:020000041000EA
:1004000000080108910400100D0000003948021096
:1004100000000000000000000000000000000000DC
:100420000000000000000000000000002148021051
:100430000000000000000000E5470210FD0400106D
:10044000FD04001041480210FD040010FD040010DE
:10045000FD040010FD040010FD040010B54602105C
:10046000FD040010FD040010FD040010FD04001048
:10047000FD040010FD040010FD040010FD04001038
:100480007047EFF3108072B6704780F310887047A2
:10049000FFF7F6FF72B6144C144DAC4209DA21682E
:1004A0006268A368043B02DBC858D050FAE70C34FA
:1004B000F3E70F4B0F4CA34208DA19685A68002083
:1004C000043A01DB8850FBE70833F4E724F098FA9C
:1004D000EFF314800221084380F31488064880F368
:1004E000098821F0DDF8FEE71C05001070050010FA
:1004F00070050010C805001000100108FEE7FEE7B7
:1005000000B504207146084202D0EFF3098001E0F3
:0C051000EFF30880043023F087FAFEE7C8
:10051C004067021080350208EC00000000670210F2
:10052C000000000800000000006702100010010825
:10053C000000000000670210802C01080000000081
:10054C0000670210003401084000000040670210F0
:10055C0000240208000000004067021080280208F6
:04056C00000000008B
:100570006C360208E8130000001001084012000069
:1005800080220108000A0000802C010840020000BF
:10059000002F0108000500004034010880CF000052
:1005A00000040208002000000024020820000000CF
:1005B0008024020800040000802802086002000075
:0805C000002B0208800A000074
:0805C80000000000000000002B
:1005D000000000000000000000000000000000001B
:1005E000000000000000000000000000000000000B
:1006000010B5034B0A000100186800F055F810BD42
:1006100000360208084B10B50400002B02D0002160
:1006200000E000BF054B1868836A002B00D0984794
:10063000200025F07FF8C0460000000020170010C1
:1006400010B5034B0100186800F044F810BDC04617
:100650000036020830B500240139A24201D1002041
:1006600005E0035D01340D5DAB42F6D0581B30BD93
:10067000002310B59A4200D110BDCC5CC4540133A4
:10068000F8E710B5884202D98B18984203D30023AB
:1006900007E08B5C8354013AFBD210BDCC5CC454A0
:1006A00001339A42FAD1F8E703001218934200D1BD
:1006B000704719700133F9E74A4370B5110014000F
:1006C00000F052F8051E03D022000021FFF7ECFFD6
:1006D000280070BD70B50500002910D00C1F2368DC
:1006E000002B00DAE418280000F06AFC1D4A1368A9
:1006F000002B05D163601460280000F069FC70BD18
:10070000A34209D9216860188342F3D118685B6855
:1007100041182160EEE713005A68002A01D0A24276
:10072000F9D919685818A0420BD12068091858182F
:1007300019608242E0D110685268411819605A600D
:10074000DAE7A04202D90C232B60D5E721686018B4
:10075000824203D1106852684118216062605C6077
:10076000CAE7C046344A0208F8B50323CD1C9D43AE
:10077000083506000C2D1FD20C25A9421ED83000CA
:1007800000F01EFC25490A681400002C1AD1244FE1
:100790003B68002B04D12100300000F0D9F838600C
:1007A0002900300000F0D4F8431C2AD10C2330007B
:1007B000336000F00DFC03E0002DDEDA0C23336023
:1007C0000020F8BD23685B1B18D40B2B03D92360D2
:1007D000E418256003E06368A2420DD10B6030008D
:1007E00000F0F6FB200007220B30231D9043C21AB5
:1007F000E7D01B1AA350E4E75360F0E722006468D7
:10080000C3E70323C41C9C43A042E2D0211A30005A
:1008100000F09EF8431CDCD1C8E7C046344A020809
:10082000384A02080FB40B4B13B51C68002C05D0D6
:10083000A369002B02D1200000F0B2FA05AB049AA4
:10084000A1682000019300F0F3FB16BC08BC04B0C3
:100850001847C0460036020870B505000E00002893
:1008600004D08369002B01D100F09AFAAB69AC681F
:10087000002B02D1280000F093FA2D4B9C4222D18C
:100880006C68636EDB0705D4A3899B0502D4A06D59
:1008900000F028FBA3891B0702D52369002B29D16F
:1008A0002100280000F0DAF8002823D001256D424D
:1008B000636EDB0705D4A3899B0502D4A06D00F00D
:1008C00012FB280070BD1B4B9C4201D1AC68D8E7DD
:1008D000194B9C42D5D1EC68D3E70136A360002BBD
:1008E00004DAA2699A4216DC0A2914D023685A1C39
:1008F00022601970A3683178013B0029EDD1A36013
:10090000002B0FDA280022000A3100F051F80A25E6
:10091000431CCDD1CAE72200280000F049F8431C4F
:10092000E8D1C3E70A2523685A1C22601D70BFE77F
:1009300044170010641700102417001010B5034B63
:1009400001001868FFF788FF10BDC0460036020896
:10095000002370B5064C05000800236024F0DCFE7F
:10096000431C03D12368002B00D02B6070BDC04610
:10097000504A02080023C25C0133002AFBD1581EF2
:1009800070470A7830B5002A0CD130BD9A4208D1A0
:100990000123CC5C002CF8D0C55CA54201D1013309
:1009A000F7E701300378002BF0D11800EDE70000E5
:1009B000F8B505000E001400002804D08369002B50
:1009C00001D100F0EDF9224B9C422ED16C68A36955
:1009D000A360A3891B0732D52369002B2FD023687E
:1009E0002269F7B2981A6369F6B2834205DC2100E6
:1009F000280000F033F9002827D1A3680130013B1B
:100A0000A36023685A1C22601F706369834204D06C
:100A1000A389DB0707D50A2E05D12100280000F0A5
:100A20001DF9002811D13000F8BD0A4B9C4201D1BC
:100A3000AC68CCE7084B9C42C9D1EC68C7E7210001
:100A4000280000F00BF80028C9D001267642EAE71A
:100A5000441700106417001024170010364B70B5AF
:100A60001D6806000C00002D05D0AB69002B02D1DB
:100A7000280000F095F9314B9C420FD16C680C2393
:100A8000E25E93B219072DD4D90611D409230120AF
:100A9000336037331343A381404270BD284B9C42DF
:100AA00001D1AC68EBE7274B9C42E8D1EC68E6E764
:100AB0005B0713D5616B002908D0230044339942AA
:100AC00002D03000FFF706FE002363632422A389CF
:100AD0009343A38100236360236923600823A289D1
:100AE0001343A3812369002B0BD1A0218022A3896A
:100AF000890092000B40934203D02100300000F0A7
:100B00001BFA0123A289134011D00023A36063695B
:100B10005B42A361002023698342BED10C23E25EC5
:100B20001306BAD540231343A3810138B5E79207D2
:100B300000D46369A360EDE7003602084417001093
:100B40006417001024170010F7B58A8905000C00FF
:100B500013075DD44B68002B04DC0B6C002B01DC0D
:100B60000020FEBDE76A002FFAD000232E682B601C
:100B700080235B011A4034D0606DA3895B0706D5E2
:100B80006368C01A636B002B01D0236CC01A02008B
:100B9000216A00232800E76AB847A189431C06D1CF
:100BA0002B681D2B31D82C4ADA40D3072DD50023D2
:100BB000636023692360CB0405D5431C02D12B68F5
:100BC000002B00D16065616B2E600029C8D0230026
:100BD0004433994202D02800FFF77CFD0020606377
:100BE000BFE70123216A2800B847431CC5D12B6801
:100BF000002BC2D01D2B01D0162B01D12E60AFE7E8
:100C00004023A2891343A381ABE740230B43FAE7B8
:100C10000F69002FA4D00B680F60DB1B019300232A
:100C2000920700D14B69A360019B002B00DC97E782
:100C3000019B3A00216A2800A66AB047002806DC1A
:100C400040230120A28940421343A38189E7019BED
:100C50003F181B1A0193E7E7010040200B6970B5AC
:100C600005000C00002B02D10025280070BD0028D3
:100C700004D08369002B01D100F092F8144B9C4200
:100C80001BD16C680C22A35E002BEDD0626ED207E4
:100C900004D49B0502D4A06D00F024F928002100A3
:100CA000FFF752FF636E0500DB07DED4A3899B05C7
:100CB000DBD4A06D00F017F9D7E7064B9C4201D1B9
:100CC000AC68DFE7044B9C42DCD1EC68DAE7C04655
:100CD000441700106417001024170010002310B5EB
:100CE000040003604360836081814366C2810361C5
:100CF00043618361190008225C30FFF7D5FC054B86
:100D000024626362044BA362044BE362044B2363DB
:100D100010BDC0468D150010B5150010ED15001062
:100D20001916001010B5024900F0BAF810BDC046FF
:100D30005D0C001070B568254A1E55430E00290051
:100D40007431FFF711FD041E08D000212A00016054
:100D500046600C30A0606832FFF7A6FC200070BD32
:100D600010B5024800F0BEF810BDC0464C4A02085B
:100D700010B5024800F0B7F810BDC0464C4A020852
:100D800010B5024800F0AEF810BDC046474A020850
:100D900010B5024800F0A7F810BDC046474A020847
:100DA00013B50400FFF7ECFFA369002B02D0FFF797
:100DB000EFFF13BDA364E3642365134B134A1B6861
:100DC000A2620193A34201D10123A361200000F09C
:100DD0001FF86060200000F01BF8A060200000F009
:100DE00017F80022E06004216068FFF777FF012216
:100DF0000921A068FFF772FF02221221E068FFF7C5
:100E00006DFF0123A361D2E720170010250D00100C
:100E1000F8B50700FFF7A4FF1F4B1E68B369002B4E
:100E200002D13000FFF7BCFF4836B4687368013B5D
:100E300004D53368002B22D03668F6E70C22A55E75
:100E4000002D1AD12000154B5830E360656600F084
:100E500048F8FFF78DFF20002560A56065602561DB
:100E60006561A561082229005C30FFF71DFC656300
:100E7000A563A564E5642000F8BD6834D7E70421C4
:100E80003800FFF757FF041E3060D5D1FFF770FF21
:100E90000C233B60EFE7C046201700100100FFFF66
:100EA000F7B504000700002601914834002C01D159
:100EB0003000FEBD6368A5680093009B013B009372
:100EC00001D52468F2E7AB89012B08D90E22AB5E6D
:100ED000013304D029003800019B98470643683548
:100EE000EBE770477047704770B50E001D000E238A
:100EF000C95E96B01400002907DA00232B60B3897D
:100F00001B0611D48023DB000FE06A4600F0B0FB23
:100F10000028F2DBF022019B12021340054A9B18C5
:100F20005A4253412B60EDE740230020236016B066
:100F300070BDC04600E0FFFFF7B502268B890500B3
:100F40000C00334206D02300473323602361012382
:100F50006361F7BD01AB6A46FFF7C6FF0099070062
:100F60002800FFF701FC002808D10C22A35E9A0597
:100F7000EFD4032293431E43A681E4E70F4BAB62F9
:100F80008023A28920601343A381009B20616361B9
:100F9000019B002B0DD00E23E15E280000F07AFBB0
:100FA000002806D00322A38993431A000123134388
:100FB000A381A0893843A081CBE7C046250D00104E
:100FC00010B50248FFF78EFF10BDC046484A020820
:100FD00010B50248FFF787FF10BDC046484A020817
:100FE000936810B5013B9360002B04DA9469A34227
:100FF00007DB0A2905D01368581C10601970080017
:1010000010BDFFF7D5FC0100F9E7F8B506000F00A9
:101010001400D518AC4201D1002007E021783A0035
:101020003000FFF7DDFF0134431CF3D1F8BD0000B1
:10103000F0B5A1B007000D0003921E00002804D0F7
:101040008369002B01D1FFF7ABFE8C4B9D421CD175
:101050007D686B6EDB0705D4AB899B0502D4A86D58
:10106000FFF740FFAB891B0702D52B69002B1DD171
:1010700029003800FFF7F2FC002817D06B6EDB0761
:101080000DD50120404221B0F0BD7D4B9D4201D1E4
:10109000BD68DEE77B4B9D42DBD1FD68D9E7AB89BC
:1010A0009B05EED4A86DFFF71EFFEAE7002308AC0E
:1010B0006361203363761033A3760796039E3378FB
:1010C000002B01D0252B4BD1039BF31A05930CD099
:1010D000039A29003800FFF798FF431C00D1B5E0C0
:1010E0006269059B9446634463613378002B00D1A9
:1010F000ACE00122731C039300235242626004A9F6
:10110000543252182360E360A3601370A365039BFD
:10111000052219785C4800F0E3FA039B5E1C002866
:1011200020D12268D30604D5532304A95B182021BB
:101130001970130704D5532304A95B182B211970C8
:10114000039B1B782A2B16D00021E368039E32787C
:10115000701C303A8446092A4FD9002911D117E072
:101160000136ACE7484B2268C01A01238340134381
:1011700023600396CBE7079B191D1B680791002B83
:1011800001DB0B9304E05B42E36002231343236023
:1011900033782E2B0AD173782A2B37D1079B02364E
:1011A0001A1D1B680792002B2DDB0993317803224F
:1011B000364800F095FA002807D0344B2268C01A50
:1011C000402383401343013623603178731C062289
:1011D0002F480393217600F083FA002845D02D4B49
:1011E000002B27D10722079B07339343083307932C
:1011F0006369049A9B18636160E70A214B43664662
:101200009B180939A3E701235B42CEE700231A00AC
:10121000013663603178701C30398446092903D95E
:10122000002BC3D00992C1E70A235A4366465218DD
:10123000093BEFE707AB00932A00174B210038006A
:1012400000E000BF0490049B0133D1D16B6EDB073B
:1012500005D4AB899B0502D4A86DFFF744FEAB898A
:101260005B0600D50DE70D980DE707AB00932A004C
:10127000094B2100380000F07FF8E3E74417001025
:101280006417001024170010841700108A1700102C
:101290008E170010000000000B100010F7B51500AD
:1012A00001938A680B6900900C00934200DA1300E6
:1012B00022002B6043321278002A01D001332B60C8
:1012C00023689B0602D52B6802332B600627236810
:1012D0001F4027D0230043331B785A1E93412268B6
:1012E000920630D42200019943320098089EB047FC
:1012F000431C25D0062320682A68E16803400025A6
:10130000042B03D18D1AEB43DB171D40A368226920
:10131000934201DD9B1AED180027BD4220D1002029
:1013200010E00137E3682A689B1ABB42D2DD220035
:101330000123193201990098089EB047431CF0D14F
:1013400001204042FEBD3020E118433108702100E9
:101350005A1C45310978A218433202331170C1E793
:10136000220001231A3201990098089EB047431CBD
:10137000E6D00137D1E70000F0B58BB006920A0045
:1013800043320793059004920A7E0C00109B6E2A4C
:1013900000D1AFE020D8632A35D008D8002A00D188
:1013A000B5E0582A51D026004236327032E0642A25
:1013B00001D0692AF7D1196820680A1D05062BD5C6
:1013C0000D681A60002D03DA2D23049A6D42137004
:1013D0006C4B0A27039352E0732A00D19BE008D894
:1013E0006F2A1FD0702ADED1202209680A432260AA
:1013F00003E0752A16D0782AD5D12200782145320B
:101400001170614A24E026001A684236111D1960E5
:101410001368337001238CE00D681A604106D1D542
:101420002DB2CFE719682568081D18602E0601D572
:101430000D6803E06D06FBD50D68ADB2514B0A2770
:1014400003936F2A17D1082715E045310A704D4ADA
:1014500003921A68216820CA1A60080644D5CB078F
:1014600002D52023194321601027002D03D120230A
:1014700022689A4322602300002243331A70636873
:10148000A360002B03DB0422216891432160002D1F
:1014900002D1049E002B0AD0049E3900280001F0DE
:1014A000EBFB039B013E5B5C3370AF4220D9082FFE
:1014B00009D12368DB0706D563682269934202DC01
:1014C0003023013E3370049B9B1B2361079B09AAB9
:1014D00000932100069B0598FFF7E0FE431C2DD1E9
:1014E000012040420BB0F0BD4806B8D5ADB2B6E71A
:1014F0000500D2E71A680D68101D49691860136865
:101500002E0601D5196002E06D06FBD51980002377
:10151000049E2361DAE71A68111D1960166800211C
:101520006268300000F0DCF8002801D0801B6060A9
:10153000636823610023049A1370C7E723693200AC
:1015400006990598079DA847431CC9D023689B07A7
:1015500015D4099BE0689842C4DA1800C2E722005B
:101560000123193206990598079EB047431CB7D04E
:101570000135E368099A9B1AAB42F0DCE9E70025E4
:10158000F7E7C04695170010A617001070B50C00BD
:101590000E25495F00F0B0F8002803DB636D1B18CF
:1015A000636570BDA389024A1340A381F9E7C04671
:1015B000FFEFFFFFF8B51F008B8905000C00160038
:1015C000DB0505D50E23C95E0022022300F074F866
:1015D000A389054A28001340A38132000E23E15E4F
:1015E0003B0000F01FF8F8BDFFEFFFFF70B50C00E7
:1015F0000E25495F00F060F8A389421C03D1054A1B
:101600001340A38170BD802252011343A381606502
:10161000F8E7C046FFEFFFFF10B50E23C95E00F0EC
:1016200015F810BD70B50500080011000022064C29
:1016300022601A0020F0EAFC431C03D12368002B2F
:1016400000D02B6070BDC046504A0208002370B520
:10165000064C05000800236024F036F8431C03D133
:101660002368002B00D02B6070BDC046504A020892
:10167000002370B5064C050008001100236024F01B
:101680002BF8431C03D12368002B00D02B6070BDC6
:10169000504A0208002370B5064C0500080023607C
:1016A00024F022F8431C03D12368002B00D02B60C8
:1016B00070BDC046504A020870B505000800110010
:1016C0000022064C22601A0024F016F8431C03D1B5
:1016D0002368002B00D02B6070BDC046504A020822
:1016E000C9B28218904201D10020704703788B4222
:1016F000FBD00130F6E7000070B5050008001100CE
:101700000022064C22601A0023F0FEFF431C03D186
:101710002368002B00D02B6070BDC046504A0208E1
:101720000436020800000000000000000000000075
:1017300000000000000000000000000000000000A9
:101740000000000000000000000000000000000099
:101750000000000000000000000000000000000089
:101760000000000000000000000000000000000079
:101770000000000000000000000000000000000069
:1017800000000000232D302B2000686C4C006566A3
:1017900067454647003031323334353637383941C2
:1017A00042434445460030313233343536373839D8
:1017B000616263646566000005DF70470020FBE737
:1017C00006DF7047EFF314830138421E9041012277
:1017D00010409343184380F3148870470EDFFEE7F0
:1017E0000EDFFEE70020704730B595B007AC05006E
:1017F000342200212000FEF757FF342301210493F7
:101800008020323B03940595069302F073FB041E7F
:101810000FDD0123019305AB009303AA01230021EF
:1018200002F06AFB0500200002F072FB280015B0F0
:1018300030BD84256D42F9E7F0B599B007000391FA
:101840001600002130220CA8FEF72EFF3423089347
:1018500003AB0993042301250BAC0A930121023B3E
:101860008020676107940B950596069302F042FB72
:10187000041E0EDD05AB0195009307AA022300218B
:1018800002F03AFB0500200002F042FB280019B0EC
:10189000F0BD84256D42F9E7862040427047C0467E
:1018A00030B505001A2093B02E2200216844FEF7BF
:1018B000FBFE022305AC0593012132338020A58075
:1018C0000394049302F016FB041E0EDD002303AA0A
:1018D000019300930021013302F00EFB050020006C
:1018E00002F016FB280013B030BD84256D42F9E7E5
:1018F000F0B5C6468046222000B594B00F00160011
:1019000000212E2268441D00FEF7CEFE032307931C
:10191000434607ACA380342301218020A7600394B1
:1019200004930596069502F0E5FA041E10DD0023E7
:1019300003AA019300930021023302F0DDFA0500AF
:10194000200002F0E5FA280014B004BC9046F0BD77
:1019500084256D42F7E7C04630B505001A2093B0E4
:101960002E2200216844FEF79FFE042305AC059358
:10197000012130338020A5800394049302F0BAFA49
:10198000041E0EDD002303AA0193009300210133FE
:1019900002F0B2FA0500200002F0BAFA280013B0F3
:1019A00030BD84256D42F9E7F0B507002A2097B0D5
:1019B0000E00150000212E226844FEF775FE052357
:1019C00009932F3309AC04930121303B8020A78079
:1019D0000394059606930795089302F08BFA041E6C
:1019E0000FDD0223019305AB009303AA012300211D
:1019F00002F082FA0500200002F08AFA280017B0EF
:101A0000F0BD84256D42F9E7F0B5C64607002220F7
:101A100000B594B00E00150000212E2268449846AF
:101A2000FEF742FE062307AC079301212E338020E8
:101A3000A780039404930596069502F05BFA041EB2
:101A400014DD0123019305AB009303AA01230021B8
:101A500002F052FA4346069A05001A60200002F08E
:101A600057FA280014B004BC9046F0BD84256D429E
:101A7000F7E7C046F0B5C6460700222000B594B08F
:101A80000E00150000212E2268449846FEF70CFE39
:101A9000072307AC079301212D338020A7800394EF
:101AA00004930596069502F025FA041E14DD012321
:101AB000019305AB009303AA0123002102F01CFA55
:101AC0004346069A05001A60200002F021FA280019
:101AD00014B004BC9046F0BD84256D42F7E7C046C3
:101AE000F0B50E240700322099B06C442180160016
:101AF00000212E226844FEF7D7FD08230B932C33D8
:101B00000693323B0BAD089301210A3380200794E2
:101B1000AF80059509960A9302F0ECF9041E0EDDDC
:101B2000002305AA019300930021033302F0E4F996
:101B30000500200002F0ECF9280019B0F0BD842562
:101B40006D42F9E706C0704700687047406870470B
:101B500070B50600222094B00D002E2200216844AA
:101B6000FEF7A2FD092307932B3307AC0493012151
:101B7000283B8020A68003940595069302F0BAF9CD
:101B8000041E0EDD002303AA0193009300210233FB
:101B900002F0B2F90500200002F0BAF9280014B0F2
:101BA00070BD84256D42F9E770B50600222094B01F
:101BB0000D002E2200216844FEF776FD0A230793CC
:101BC0002A3307AC04930121283B8020A68003948C
:101BD0000595069302F08EF9041E0FDD0123019393
:101BE00005AB009303AA0123002102F085F905004B
:101BF000200002F08DF9280014B070BD84256D42DC
:101C0000F9E7C04670B50600222094B00D002E22E0
:101C100000216844FEF748FD0B230793293307ACE6
:101C200004930121303B8020A68003940595069300
:101C300002F060F9041E0FDD0123019305AB009350
:101C400003AA0123002102F057F90500200002F049
:101C50005FF9280014B070BD84256D42F9E7C046D5
:101C6000F0B5C64600B596B004000F00160000217E
:101C700030220AA89846FEF717FD0C230993236823
:101C800009ADAB613423012104938020303B0594DE
:101C9000039506930797089602F02CF9041E14DDAD
:101CA0000223019305AB009303AA0123002102F054
:101CB00023F94346089A05001A60200002F028F92B
:101CC000280016B004BC9046F0BD84256D42F7E7AD
:101CD000F0B597B004000F001600002130220AA8CA
:101CE000FEF7E2FC0D230993236809ADAB613423B1
:101CF000012106938020303B0394059507970896B1
:101D0000049302F0F7F8041E0FDD0123019303ABE7
:101D1000009305AA0223002102F0EEF8050020003E
:101D200002F0F6F8280017B0F0BD84256D42F9E7FF
:101D3000F0B50500222095B00F00160000212E22DC
:101D40006844FEF7B1FC0E2307932B6807ACA36130
:101D50003423012104938020303BA7802661039423
:101D60000595069302F0C6F8041E0FDD01230193CA
:101D700005AB009303AA0123002102F0BDF8050082
:101D8000200002F0C5F8280015B0F0BD84256D4292
:101D9000F9E7C046F0B50500222095B00F00160007
:101DA00000212E226844FEF77FFC0F2307932B6847
:101DB00007ACA3613423012104938020303BA7802A
:101DC000266103940595069302F094F8041E0FDD36
:101DD0000123019305AB009303AA0123002102F024
:101DE0008BF80500200002F093F8280015B0F0BD34
:101DF00084256D42F9E7C046F0B5C64600B598B0F7
:101E0000040088461700002130220CA81E00FEF7AF
:101E10004BFC10230B9323680BADAB61342304936D
:101E200043460593042308931E9B012180200794B9
:101E30000395069709960A9302F05CF8041E14DDD8
:101E40000223019307AB009303AA0223002102F0AF
:101E500053F80A9A1F9B05001A60200002F058F8F8
:101E6000280018B004BC9046F0BD84256D42F7E709
:101E700030B595B004003022002108A8FEF714FC0C
:101E800011230793236807ADAB6134230121049329
:101E90008020303B05940395069302F02BF8041E36
:101EA0000FDD0123019305AB009303AA0123002159
:101EB00002F022F80500200002F02AF8280015B0F0
:101EC00030BD84256D42F9E7F0B5C64600B596B041
:101ED00004000F001600002130220AA89846FEF7E1
:101EE000E3FB12230993236809ADAB61342301217D
:101EF00004938020303B059403950693079708963A
:101F000001F0F8FF041E14DD0223019305AB0093DA
:101F100003AA0123002101F0EFFF4346089A0500C0
:101F20001A60200001F0F4FF280016B004BC9046AF
:101F3000F0BD84256D42F7E770B594B005000E0042
:101F40003022002108A8FEF7AFFB132307932B686C
:101F500007ACA3613423012104938020303B266128
:101F600003940595069301F0C5FF041E0FDD0123C0
:101F7000019305AB009303AA0123002101F0BCFFEC
:101F80000500200001F0C4FF280014B070BD8425B6
:101F90006D42F9E7F0B597B004000F00160000217C
:101FA00030220AA8FEF780FB14230993236809ADA9
:101FB000AB613423012106938020303B03940595C7
:101FC00007970896049301F095FF041E0FDD012387
:101FD000019303AB009305AA0223002101F08CFFBB
:101FE0000500200001F094FF280017B0F0BD842503
:101FF0006D42F9E7F0B5C64600B596B004000F0093
:102000001600002130220AA89846FEF74DFB152342
:102010000993236809ADAB61342301210493802027
:10202000303B0594039506930797089601F062FFED
:10203000041E14DD0223019305AB009303AA0123C0
:10204000002101F059FF4346089A05001A6020005C
:1020500001F05EFF280016B004BC9046F0BD842558
:102060006D42F7E7F0B597B004000F0016000021AD
:1020700030220AA8FEF718FB16230993236809AD3E
:10208000AB613423012106938020303B03940595F6
:1020900007970896049301F02DFF041E0FDD01231E
:1020A000019303AB009305AA0223002101F024FF52
:1020B0000500200001F02CFF280017B0F0BD84259A
:1020C0006D42F9E730B595B004003022002108A830
:1020D000FEF7EAFA17230793236807ADAB613423B1
:1020E000012104938020303B05940395069301F071
:1020F00001FF041E0FDD0123019305AB009303AA2A
:102100000123002101F0F8FE0500200001F000FF8E
:10211000280015B030BD84256D42F9E770B594B044
:1021200006000D003022002108A8FEF7BDFA182392
:102130000793336807ACA361342301210493802003
:10214000303B03940595069301F0D4FE041E0FDD89
:102150000123019305AB009303AA0123002101F0A1
:10216000CBFE0500200001F0D3FE280014B070BDA6
:1021700084256D42F9E7C046F0B50500222095B0F0
:102180000F00160000212E226844FEF78DFA192355
:1021900007932B6807ACA3613423012104938020AB
:1021A000303BA780266103940595069301F0A2FEBB
:1021B000041E0FDD0123019305AB009303AA012345
:1021C000002101F099FE0500200001F0A1FE280089
:1021D00015B0F0BD84256D42F9E7C046F0B50500A5
:1021E000222095B00F00160000212E226844FEF731
:1021F0005BFA1A2307932B6807ACA36134230121F0
:1022000004938020303BA7802661039405950693B4
:1022100001F070FE041E0FDD0123019305AB009356
:1022200003AA0123002101F067FE0500200001F050
:102230006FFE280015B0F0BD84256D42F9E7C04659
:10224000F0B597B004000F001600002130220AA854
:10225000FEF72AFA1B230993236809ADAB613423E7
:10226000012106938020303B03940595079708963B
:10227000049301F03FFE041E0FDD0123019303AB25
:10228000009305AA0223002101F036FE050020007C
:1022900001F03EFE280017B0F0BD84256D42F9E73D
:1022A000F0B5C64600B596B004000F001600002138
:1022B00030220AA89846FEF7F7F91C2309932368F1
:1022C00009ADAB613423012104938020303B059498
:1022D000039506930797089601F00CFE041E14DD83
:1022E0000223019305AB009303AA0123002101F00F
:1022F00003FE4346089A05001A60200001F008FE1C
:10230000280016B004BC9046F0BD84256D42F7E766
:10231000F0B597B004000F001600002130220AA883
:10232000FEF7C2F91D230993236809ADAB6134237D
:10233000012106938020303B03940595079708966A
:10234000049301F0D7FD041E0FDD0123019303ABBD
:10235000009305AA0223002101F0CEFD0500200014
:1023600001F0D6FD280017B0F0BD84256D42F9E7D5
:1023700030B595B004003022002108A8FEF794F98A
:102380001E230793236807ADAB6134230121049317
:102390008020303B05940395069301F0ABFD041EAD
:1023A0000FDD0123019305AB009303AA0123002154
:1023B00001F0A2FD0500200001F0AAFD280015B0E3
:1023C00030BD84256D42F9E7F0B5C646804632201F
:1023D00000B598B00F00160000212A2268441D00A5
:1023E0001E9CFEF761F91F2342460B936B460F9725
:1023F0001A861795002C37D00BAB05933423069320
:10240000209B09940793219B08931F9B0A93229B6F
:102410000393239B0493102D29D8002E06D0002D62
:1024200004D02A00310013A8FEF722F901218020F0
:1024300001F060FD051E1DDD230001225C1EA3418D
:10244000019203AA02330092002105AA01F054FD73
:10245000049A249B04001A60280001F059FD200012
:1024600018B004BC9046F0BD1F9B002BC4D087243D
:102470006442F4E784246442F1E7C046F0B5C646FE
:102480008046322000B598B00F00160000212A22A5
:1024900068441D001E9CFEF707F9202342460B935B
:1024A0006B460F971A861795002C37D00BAB059308
:1024B00034230693209B09940793219B08931F9B29
:1024C0000A93229B0393239B0493102D29D8002E5B
:1024D00006D0002D04D02A00310013A8FEF7C8F85A
:1024E0000121802001F006FD051E1DDD23000122D3
:1024F0005C1EA341019203AA02330092002105AAA7
:1025000001F0FAFC049A249B04001A60280001F0F0
:10251000FFFC200018B004BC9046F0BD1F9B002BB0
:10252000C4D087246442F4E784246442F1E7C046BF
:10253000F0B5C64680462A2000B596B00F001600BA
:1025400000212E2268441D00FEF7AEF821230993D6
:10255000434609ACA380342306931C9B01210393BB
:102560001D9B80202761059407960895049301F030
:10257000C1FC041E14DD0123019303AB009305AAE3
:102580000223002101F0B8FC049A1E9B05001A608A
:10259000200001F0BDFC280016B004BC9046F0BD40
:1025A00084256D42F7E7C046F0B5C64680462A202E
:1025B00000B596B00F00160000212E2268441D00C1
:1025C000FEF772F822230993434609ACA380342313
:1025D00004931C9B012107931D9B8020276103947A
:1025E00005960695089301F085FC041E10DD002376
:1025F00003AA019300930021033301F07DFC050041
:10260000200001F085FC280016B004BC9046F0BD07
:1026100084256D42F7E7C046F0B50500322099B039
:102620000C00170000212E2268441E00FEF73CF823
:1026300023230B936B461D861E9B0F94002B28D0E3
:102640000BAB0593342305AC63601E9BE6602361EE
:102650001F9B03AE6361209BA7600393219B012115
:102660007360802001F046FC0323051E2BDD012250
:102670000096019200212200280001F03DFC7268C2
:10268000229B04001A60280001F042FC200019B0CF
:10269000F0BD1F9B002B19D10BAB0593342305AC68
:1026A00063601F9BE66023616361209B03AE03931D
:1026B000219BA76073600121802001F01BFC051E97
:1026C00001DD0223D3E784246442DFE787246442E8
:1026D000DCE7C046F0B50500322099B00C001700C9
:1026E00000212E2268441E00FDF7DEFF24230B93F9
:1026F0006B461D861E9B0F94002B28D00BAB0593B9
:10270000342305AC63601E9BE66023611F9B03AE10
:102710006361209BA7600393219B0121736080204C
:1027200001F0E8FB0323051E2BDD01220096019238
:1027300000212200280001F0DFFB7268229B0400C8
:102740001A60280001F0E4FB200019B0F0BD1F9BC7
:10275000002B19D10BAB0593342305AC63601F9B91
:10276000E66023616361209B03AE0393219BA76016
:1027700073600121802001F0BDFB051E01DD0223F5
:10278000D3E784246442DFE787246442DCE7C04661
:1027900070B594B006000D003022002108A8FDF7A6
:1027A00083FF25230793336807ACA36134230121FA
:1027B00004938020303B03940595069301F09AFB27
:1027C000041E0FDD0123019305AB009303AA01232F
:1027D000002101F091FB0500200001F099FB280089
:1027E00014B070BD84256D42F9E7C046F0B595B0D0
:1027F00007000E0015000021302208A8FDF754FF45
:10280000262307933B6807ACA36134230121802072
:10281000039404930596069501F06CFB041E0FDDEE
:102820000123019305AB009303AA0123002101F0CA
:1028300063FB0500200001F06BFB280015B0F0BD24
:1028400084256D42F9E7C046F0B507002A2097B00D
:102850000E00039200212E2268441D00FDF724FF84
:10286000272309932B6809ACA3613423069303AB98
:102870000793042301218020A780A6600594089374
:1028800001F038FB041E0EDD002305AA019300931E
:102890000021023301F030FB0500200001F038FB7D
:1028A000280017B0F0BD84256D42F9E730B595B02A
:1028B00004003022002108A8FDF7F6FE2823079324
:1028C000236807ADAB613423012104938020303BA2
:1028D00005940395069301F00DFB041E0FDD012303
:1028E000019305AB009303AA0123002101F004FB2F
:1028F0000500200001F00CFB280015B030BD842538
:102900006D42F9E7F0B50600322099B00F001400CF
:1029100000212E2268441D00FDF7C6FE29230B93DB
:102920006B461F8633680F941193219B1293002DE1
:1029300045D01F9B002B25D00BAB0593342305AC52
:1029400063601E9B03AFE3601F9BA5602361209B18
:1029500001216361042380207B60039601F0CAFAA1
:10296000061E32DD0323012200970192002122007E
:10297000300001F0C1FA0400300001F0C9FA200073
:1029800019B0F0BD209B002B1CD10BAB0593342359
:1029900005AC63601E9B03AFE360209BA5602361D1
:1029A0006361042301217B608020039601F0A2FA79
:1029B000061E0ADD2B005D1EAB410133D3E71E9BD3
:1029C000002BB6D087246442D9E784246442D6E73A
:1029D000F0B5C64605002A2000B596B08846170017
:1029E00000212E2268441E00FDF75EFE2A23099373
:1029F000434609ACA3801C9B012123612B688020E6
:102A0000A36134230693303B0594079708960395FA
:102A1000049301F06FFA041E11DD0123019303AB4F
:102A2000009305AA0223002101F066FA05002000A8
:102A300001F06EFA280016B004BC9046F0BD842563
:102A40006D42F7E730B595B005000C00302200214B
:102A500008A8FDF729FE2B23079307AB0393342324
:102A60000595049306940025002C02D1280015B08A
:102A700030BD0121802001F03DFA041E0DDD01234F
:102A8000019305AB009303AA0123002101F034FA5E
:102A90000500200001F03CFAE8E784256D42E5E7F7
:102AA00070B50600322098B00C00039200212E224F
:102AB00068441D00FDF7F8FD2C230B936B460D9425
:102AC0001E86002D21D00BAB0593342305AC63602B
:102AD00003ABA3600423E3601C9B256163610121B8
:102AE000802001F007FA0323051E25DD00220021C6
:102AF000019200922800220001F0FEF90400280053
:102B000001F006FA200018B070BD1C9B002B16D1F6
:102B10000BAB0593342305AC636003ABA3600423C4
:102B2000E3601C9B012123616361802001F0E2F9D5
:102B3000051E01DD0223D9E784246442E2E78724ED
:102B40006442DFE702B4714649084900095C490064
:102B50008E4402BC7047C04603B471464908400029
:102B60004900095A49008E4403BC704700224308BB
:102B70008B4274D303098B425FD3030A8B4244D345
:102B8000030B8B4228D3030C8B420DD3FF22090287
:102B900012BA030C8B4202D31212090265D0030B46
:102BA0008B4219D300E0090AC30B8B4201D3CB033C
:102BB000C01A5241830B8B4201D38B03C01A52417E
:102BC000430B8B4201D34B03C01A5241030B8B4280
:102BD00001D30B03C01A5241C30A8B4201D3CB026B
:102BE000C01A5241830A8B4201D38B02C01A524150
:102BF000430A8B4201D34B02C01A5241030A8B4253
:102C000001D30B02C01A5241CDD2C3098B4201D36A
:102C1000CB01C01A524183098B4201D38B01C01AE8
:102C2000524143098B4201D34B01C01A524103095F
:102C30008B4201D30B01C01A5241C3088B4201D30E
:102C4000CB00C01A524183088B4201D38B00C01ABB
:102C5000524143088B4201D34B00C01A5241411AE2
:102C600000D20146524110467047FFE701B50020EF
:102C700000F0F0F802BDC0460029F7D076E77047B3
:102C800003460B437FD4002243088B4274D30309CD
:102C90008B425FD3030A8B4244D3030B8B4228D36E
:102CA000030C8B420DD3FF22090212BA030C8B4294
:102CB00002D31212090265D0030B8B4219D300E034
:102CC000090AC30B8B4201D3CB03C01A5241830BB9
:102CD0008B4201D38B03C01A5241430B8B4201D369
:102CE0004B03C01A5241030B8B4201D30B03C01A92
:102CF0005241C30A8B4201D3CB02C01A5241830A0C
:102D00008B4201D38B02C01A5241430A8B4201D33A
:102D10004B02C01A5241030A8B4201D30B02C01A64
:102D20005241CDD2C3098B4201D3CB01C01A5241CB
:102D300083098B4201D38B01C01A524143098B4254
:102D400001D34B01C01A524103098B4201D30B013D
:102D5000C01A5241C3088B4201D3CB00C01A524162
:102D600083088B4201D38B00C01A524143088B4227
:102D700001D34B00C01A5241411A00D201465241C0
:102D8000104670475DE0CA0F00D04942031000D3DF
:102D90004042534000229C4603098B422DD3030A34
:102DA0008B4212D3FC22890112BA030A8B420CD344
:102DB000890192118B4208D3890192118B4204D36D
:102DC00089013AD0921100E08909C3098B4201D3ED
:102DD000CB01C01A524183098B4201D38B01C01A27
:102DE000524143098B4201D34B01C01A524103099E
:102DF0008B4201D30B01C01A5241C3088B4201D34D
:102E0000CB00C01A524183088B4201D38B00C01AF9
:102E10005241D9D243088B4201D34B00C01A5241D0
:102E2000411A00D20146634652415B10104601D35D
:102E30004042002B00D54942704763465B1000D3E7
:102E4000404201B5002000F005F802BD0029F8D08D
:102E500016E770477047C046002B11D1002A0FD1EA
:102E6000002900D1002802D00021C943081C07B462
:102E7000024802A14018029003BDC046D9FFFFFFDF
:102E800003B4684601B5029800F030F8019B9E46F5
:102E900002B00CBC7047C046F0B5CE46474615049C
:102EA0002D0C2E0080B50704140C3F0C9946030C22
:102EB0007E435D43674363437F19340CE4199C46AA
:102EC000A54203D980235B029846C4444B46434342
:102ED0005143250C36046544360C2404A4195B19AF
:102EE000591820000CBC90469946F0BDF0B55746E5
:102EF0004E464546DE46E0B5040083B00D009246DE
:102F000099468B4230D82DD04946504600F0C0F843
:102F100029000600200000F0BBF8331A9846203B39
:102F20009B4633D45A465346934042461F0053466D
:102F300093401E00AF423AD8AF4200D17BE05B46DF
:102F4000A41BBD41002B00DA78E000220023009290
:102F5000019301235A469340019301234246934033
:102F6000009328E08242CFD90022002300920193EF
:102F70000C9B002B01D01C605D600098019903B090
:102F80003CBC90469946A246AB46F0BD4246202343
:102F90009B1A5246DA40414613004A468A401700BF
:102FA00042461F43534693401E00AF42C4D90022FD
:102FB0000023009201934346002BD9D0FB079C4687
:102FC000614672080A437B0846460EE0AB4201D1D7
:102FD000A2420CD8A41A9D41012024196D41002160
:102FE000013E24184D41002E06D0AB42EED9013EE1
:102FF00024196D41002EF8D1009801995B46001903
:103000006941002B25DB2B005A464446D3402A0059
:10301000E2401C005B461500002B2BDB26005F46C0
:10302000BE40330026004746BE403200801A994118
:10303000009001919CE7A342B9D880E74246202343
:1030400000219B1A0022009101920122DA40019294
:1030500083E7424620239B1A2A0046469A402300D3
:10306000F340444613432A00E2401C005B4615002F
:10307000002BD3DA2023424626009B1ADE402F0085
:10308000B4464646B74066463B003343CAE7C046AF
:1030900010B5002903D100F007F8203002E0081C29
:1030A00000F002F810BDC0461C2101231B04984209
:1030B00001D3000C10391B0A984201D3000A0839C9
:1030C0001B09984201D30009043902A2105C401880
:1030D0007047C04604030202010101010000000024
:1030E000000000000FB4F0B54E464546DE46574698
:1030F000E0B593B01CAE08CE984600230993434632
:103100001B780596002B01D100F064FD00220027FA
:1031100001920FE009AC7A1CE419099223711F2A6D
:1031200019D81700D046019B0133019343461B7801
:10313000002B18D0012242449246252BEAD1434667
:103140005B78253BDBB2532B01D900F08DFCBA4AEA
:103150009B00D3589F46002320210AA809931EF004
:103160003FFF099ADDE7002F08D039000AA81EF0BA
:1031700037FF019B9C46844463460193019813B03A
:103180003CBC90469946A246AB46F0BC08BC04B095
:103190001847AA4A30239146002209AC93467A1C6C
:1031A000E719002522603B711F2A0BD84B460135D9
:1031B0005B5D002B11D027687A1CE71922603B71F8
:1031C0001F2AF3D95B4620210AA823601EF008FFBE
:1031D0004B4601355B5D002BEDD1019B0C229C46DB
:1031E000AC44634606AD0021280080CE0193FDF774
:1031F0005BFA0F231900924A3940515C8A462970C4
:10320000390901D100F0E8FD1940515C6970390AB3
:1032100001D100F017FE1940515CA970390B01D1A2
:1032200000F028FE1940515CE970390C01D100F022
:10323000E3FC1940515C2971390D01D100F023FEE6
:103240001940515C6971390E01D100F025FE0B4027
:10325000D35C3F0FAB7101D100F02DFED15D226830
:10326000E971531CA218236011711F2B01D900F0C2
:1032700076FDA9795A1CE3181971082322600627E4
:1032800099461F2A01D900F0CDFC7B1EE95C9B46C4
:1032900023685A1CE318226019711F2A01D900F013
:1032A000DBFC5B46002B42D0BB1EE95C9B462368DF
:1032B0005A1CE318226019711F2A01D900F0E2FCA0
:1032C0005B46002B33D0FB1EE95C9B4623685A1CEF
:1032D000E318226019711F2A01D900F0F5FC5B4642
:1032E000002B24D03B1FE95C9B4623685A1CE31843
:1032F000226019711F2A01D900F0FFFC5B46002BE8
:1033000015D02368053FE95D5A1CE3182260197146
:103310001F2A01D900F00DFD002F08D05146236867
:103320005A1CE318226019711F2A00D968E3019B17
:1033300027684B440193C3E208CE99461B78002BC3
:1033400000D1BDE2002209AC93467A1CE7190025A2
:1033500022603B711F2A0BD84B4601355B5D002B69
:1033600012D017007A1CE71922603B711F2AF3D98B
:103370005B4620210AA823601EF032FE4B46013531
:103380005B5D2268002BECD1019B17009C46AC448E
:103390006346019394E206AD0C220021280010CE72
:1033A000FDF782F90F231900254A2140515C8B4615
:1033B0002970210901D100F06DFC1940515C697040
:1033C000210A00D1CDE31940515CA970210B01D134
:1033D00000F082FC1940515CE970210C01D100F031
:1033E00094FC1940515C2971210D01D100F0C7FCFA
:1033F0001940515C6971210E01D100F0D9FC0B40DC
:10340000D35C240FAB7101D100F00AFD125D09AC51
:103410007B1CE719EA7109933A711F2B00D892E2DD
:1034200007239A4601339946002320210AA82360E6
:103430001EF0D6FDA4E3C046283F001098400010BF
:103440007840001010CE06AD0C2200212800FDF7B8
:103450002BF90A212000FFF70FFC3031CBB22B7083
:103460000A2120009946FFF781FB092C01D800F0C2
:10347000C2FC0A21FFF700FC303169702000642192
:10348000FFF774FB632C01D800F0DFFC0A21FFF783
:10349000F3FB3031A970FA2120008900FFF766FBA9
:1034A0006D4B9C4201D800F0E8FC0A21FFF7E4FBD9
:1034B0003031E97020006949FFF758FB684B9C42A6
:1034C00000D80DE30A21FFF7D7FB30312971200026
:1034D0006449FFF74BFB644B9C4201D800F0D9FCD8
:1034E0000A21FFF7C9FB3031697120005F49FFF7FE
:1034F0003DFB5F4B9C4201D800F0D4FC0A21FFF752
:10350000BBFB3031A97120005A49FFF72FFB5A4B02
:103510009C4201D800F0C9FC0A21FFF7ADFB303115
:10352000E97120005549FFF721FB554B9C4201D81A
:1035300000F0C4FC0A21FFF79FFB30312972200004
:103540005049FFF713FB504B9C4201D800F0BCFCE4
:1035500009AC30307B1CE7196872099338711F2B56
:1035600000D9DBE3297A5A1CE31819710A2309925E
:1035700008279B461F2A00D9CBE223687A1EA95C44
:1035800092465A1CE318226019711F2A00D955E38C
:103590005346002B5AD02368BA1EA95C92465A1C87
:1035A000E318226019711F2A00D964E35346002BE7
:1035B0004CD02368FA1EA95C92465A1CE31822607C
:1035C00019711F2A00D978E35346002B3ED0236897
:1035D0003A1FA95C92465A1CE318226019711F2AEF
:1035E00000D983E35346002B30D023687A1FA95CAF
:1035F00092465A1CE318226019711F2A00D9A7E3CA
:103600005346002B22D02368BA1FA95C92465A1C4D
:10361000E318226019711F2A00D9BBE35346002B1F
:1036200014D02368073FE95D5A1CE3182260197122
:103630001F2A00D9C6E3002F08D0494623685A1C28
:10364000E318226019711F2A00D9ECE3019B276857
:103650005B44019334E1C046E703000010270000FB
:103660000F270000A08601009F86010040420F0046
:103670003F420F00809698007F96980000E1F50584
:10368000FFE0F50500CA9A3BFFC99A3B330006AD3F
:1036900040CB0C22002128000393FDF705F8002EF3
:1036A00000DA0FE2002309AC02930A213000FFF791
:1036B000E3FA3031CBB22B700A2130009946FFF784
:1036C00055FA092E00D8A1E30A21FFF7D5FA3031C7
:1036D000697030006421FFF749FA632E00D8B7E320
:1036E0000A21FFF7C9FA3031A970FA2130008900A8
:1036F000FFF73CFACE4B9E4200D8B8E30A21FFF711
:10370000BBFA3031E9703000CA49FFF72FFACA4BD3
:103710009E4200D8B4E30A21FFF7AEFA3031297196
:103720003000C649FFF722FAC54B9E4200D8ADE3F0
:103730000A21FFF7A1FA303169713000C149FFF762
:1037400015FAC14B9E4200D8A9E30A21FFF794FA6B
:103750003031A9713000BD49FFF708FABC4B9E42D9
:1037600000D8A5E30A21FFF787FA3031E97130006C
:10377000B849FFF7FBF9B84B9E4200D8A1E30A21F4
:10378000FFF77AFA303129723000B449FFF7EEF9C9
:10379000B34B9E4200D89AE330307B1CE719687225
:1037A000236038711F2B00D9BDE1297A5A1CE31818
:1037B00019710A23226008279B461F2A00D9C6E1F7
:1037C00023687A1EA95C92465A1CE318226019717C
:1037D0001F2A00D939E25346002B5AD02368BA1E5B
:1037E000A95C92465A1CE318226019711F2A00D95D
:1037F0003AE25346002B4CD02368FA1EA95C92464D
:103800005A1CE318226019711F2A00D94EE2534650
:10381000002B3ED023683A1FA95C92465A1CE3183D
:10382000226019711F2A00D959E25346002B30D06B
:1038300023687A1FA95C92465A1CE318226019710A
:103840001F2A00D97DE25346002B22D02368BA1FDD
:10385000A95C92465A1CE318226019711F2A00D9EC
:103860009FE25346002B14D02368073FE95D5A1CA2
:10387000E318226019711F2A00D99CE2002F08D09A
:10388000494623685A1CE318226019711F2A00D97F
:10389000D1E2019A029B94465B449C4463462768AC
:1038A0000193039E0CE004CE09AC7B1CE419099340
:1038B00022711F2B00D9B3E01F00019A013201923F
:1038C00002239C46E04431E406AD0C22002128008E
:1038D00010CEFCF7E9FE0F231900624A2140515C2B
:1038E0008B462970210900D1D4E11940515C6970DF
:1038F000210A00D135E11940515CA970210B00D19A
:10390000EAE11940515CE970210C00D1FDE1194058
:10391000515C2971210D00D131E21940515C69716E
:10392000210E00D144E20B40D35C240FAB7100D1D7
:1039300076E2125D09AC7B1CE719EA7109933A71D2
:103940001F2B00D915E2A9795A1CE3181971082315
:103950000992062799461F2A00D91BE123687A1E7F
:10396000A95C92465A1CE318226019711F2A00D9DB
:103970001BE15346002B00D1D9E42368BA1EA95C91
:1039800092465A1CE318226019711F2A00D913E1CC
:103990005346002B00D1CAE42368FA1EA95C924664
:1039A0005A1CE318226019711F2A00D90BE15346F3
:1039B000002B00D1BBE423683A1FA95C92465A1C35
:1039C000E318226019711F2A00D907E15346002B22
:1039D00000D1ACE42368053FE95D5A1CE31822607E
:1039E00019711F2A00D900E1002F00D19FE4594628
:1039F00023685A1CE318226019711F2A00D896E424
:103A0000002320210AA823601EF0EAFA8FE4252271
:103A100009AC7B1CE419099322711F2B00D84BE7DA
:103A2000002320210AA809931EF0DAFA099B43E734
:103A3000E7030000102700000F270000A086010008
:103A40009F86010040420F003F420F008096980081
:103A50007F96980000E1F505FFE0F50500CA9A3B66
:103A6000FFC99A3B88400010DA4B5B22994600233D
:103A700009AC9B467B1CE719002523603A711F2B7C
:103A80000BD84A460135525D002A12D01F007B1C1C
:103A9000E71923603A711F2BF3D95B4620210AA84E
:103AA00023601EF09DFA4A460135525D2368002AC4
:103AB000ECD1019A1F009446AC446246D046019274
:103AC000FFF734FB2D2109AC7B1CE71909933971F1
:103AD0001F2B00D956E11F00012376420293E4E533
:103AE00004239B4601235B425B44E95C09AC9A4694
:103AF0007B1CE719099339711F2B00D912E1574636
:103B00002368013FE95D5A1CE318226019711F2ADE
:103B100005D9002320210AA823601EF061FA002F96
:103B200000D02AE592E509239A4601339B460023FB
:103B300020210AA823601EF053FA57462368013F4C
:103B4000E95D5A1CE318226019711F2A05D9002368
:103B500020210AA823601EF043FA002F00D02FE690
:103B600097E60223994601235B424B44E95C09AC8A
:103B70009A467B1CE719099339711F2B00D953E42E
:103B800057462368013FE95D5A1CE318226019710A
:103B90001F2A05D9002320210AA823601EF020FA3D
:103BA000002F00D0DAE6FFF7C2FB002320210AA88D
:103BB00023601EF015FADCE6002320210AA823600A
:103BC0001EF00EFAE4E6002320210AA823601EF06E
:103BD00007FAECE600230193FFF7D0FA0023202137
:103BE0000AA823601EF0FCF9F0E6002320210AA8B1
:103BF00023601EF0F5F9F7E6042399464B465F1E55
:103C00002368E95D5A1CE318226019711F2A00D944
:103C1000A8E02368013FE95D5A1CE318226019718E
:103C20001F2A05D9002320210AA823601EF0D8F9F5
:103C3000002F01D0FFF729FBFFF779FB002320219C
:103C40000AA823601EF0CCF9A2E4002320210AA8D0
:103C500023601EF0C5F9BEE5002320210AA82360D9
:103C60001EF0BEF9FFF71DFB002320210AA82360E8
:103C70001EF0B6F9BDE5002320210AA823601EF03E
:103C8000AFF993E4002320210AA823601EF0A8F9CD
:103C9000FFF716FB287809AC7B1CE71909933871EC
:103CA0001F2B35D801239946FFF741FB0023202124
:103CB0000AA823601EF094F9A9E5002320210AA890
:103CC00023601EF08DF97FE4002320210AA82360E1
:103CD0001EF086F9FFF703FB0323994643E7002311
:103CE00020210AA823601EF07BF99EE500232021F5
:103CF0000AA823601EF074F974E4002320210AA8A6
:103D000023601EF06DF9FFF7F9FA042399462AE7BC
:103D100009910AA820211EF063F9C3E709239A46F6
:103D200001339B46002320210AA823601EF058F986
:103D3000E5E6002320210AA823601EF051F9FFF7D1
:103D4000EBFA002320210AA823601EF049F97AE546
:103D5000002320210AA823601EF042F950E4082322
:103D600007279946002320210AA823601EF038F96E
:103D70004FE708239946013B9A46FFF755FB052379
:103D80009946F0E600230D390AA809931EF028F998
:103D9000099BA0E6002320210AA823601EF020F939
:103DA0003CE4002320210AA823601EF019F958E5FD
:103DB00006239946D7E6002320210AA823601EF097
:103DC0000FF95BE5002320210AA823601EF008F903
:103DD00031E4C0469C400010236828785A1CE31840
:103DE000226018711F2A00D85CE721600AA82021F0
:103DF0001EF0F6F856E7297809AC7B1CE719099301
:103E000039711F2B66D801239B461FE429787B1C40
:103E1000E719236039711F2B63D801239B4638E5CE
:103E2000072399469FE6002320210AA823601EF05D
:103E3000D7F8FFF70BFC002320210AA823601EF00F
:103E4000CFF826E502239946D8E602239B4649E6A9
:103E500002239B4601235B425B44E95C9A467B1C40
:103E6000E719236039711F2B00D866E65FE603234C
:103E70009B46EFE703239946C0E603239B4631E6C2
:103E800004239B46E6E705239946B7E605239B46B0
:103E9000E0E705239B4625E606239946AEE6062382
:103EA0009B46D7E706239B461CE607239B4619E65D
:103EB00007239B46CEE7072399469FE608239B46A8
:103EC00010E608239B46C5E709239B460AE609231B
:103ED0009B46BFE7002320210AA809931EF080F823
:103EE00091E7002320210AA823601EF079F894E7C7
:103EF00012DF704711DF704700B585B00293079B52
:103F00000191039301A9069BFFF7F2FF05B000BDE5
:103F100013DF70470BDF704714DF704716DF704701
:103F200018DF704719DF70470E3A0010683A00102A
:103F3000683A0010683A0010683A0010683A0010B9
:103F4000683A0010683A0010683A0010683A0010A9
:103F5000683A0010683A0010683A0010683A001099
:103F6000683A0010683A0010683A0010683A001089
:103F7000683A0010683A0010683A0010683A001079
:103F8000683A0010683A0010683A0010683A001069
:103F9000683A0010683A0010683A0010683A001059
:103FA000683A0010683A0010683A0010683A001049
:103FB000683A0010683A0010683A0010683A001039
:103FC000683A0010683A0010683A0010683A001029
:103FD000683A0010683A0010683A0010683A001019
:103FE000683A0010683A0010683A0010683A001009
:103FF000683A0010C8380010683A0010683A00109B
:10400000683A0010683A0010683A0010683A0010E8
:10401000683A0010683A0010683A0010683A0010D8
:10402000A63800108C360010683A0010683A00106C
:10403000683A0010683A00108C360010683A001098
:10404000683A0010683A0010683A0010683A0010A8
:10405000683A001092310010683A0010683A001077
:1040600038330010683A001044340010683A0010E9
:10407000683A001096330010303132333435363719
:1040800038396162636465663031323334353637CE
:104090003839414243444546307800005B556E73E1
:1040A0007570706F72746564205461675D00000004
:1040B0000000000000000000000000000000000000
:1040C00070B5184C86B02369082B0FD1A369042B57
:1040D0000CD1236A042B09D1043304AA002160689F
:1040E000A5686669FFF71AFF082802D0082006B005
:1040F00070BD042302AA02216068FFF70FFF0428A5
:10410000F4D1029B009601932800049A059B00F0CD
:1041100023F90423039003AA60680021FFF700FF3E
:104120000020E4E700100108F0B5D6464F464646A9
:10413000C0B588B000F002F9002825D18027704C66
:1041400006AE8021012009064042FFF7E3FE03008E
:10415000C2061AD482066CD4420628D402003A4021
:1041600000D098E08020400003421FD02100FFF7DC
:10417000D3FE2568AB1C00DA8CE0002D4CDA002160
:104180006068FFF7CFFEDCE7FEE721001020FFF7B5
:10419000C3FE23689A1C4BDB002BF0DB48D1FFF7F2
:1041A0008FFF01006068FFF7BDFECAE7FEE7210050
:1041B0004020FFF7B1FE2568AB1C00DA93E0002D2C
:1041C000DDDB00D08FE02369082B2BD1236A042B81
:1041D00028D1636A082B25D1A2682900904660681F
:1041E00004AAFFF79BFE08281CD1049A059B0096A1
:1041F000404600F0DFF80423039003AA0021606822
:10420000FFF78EFE039B002B0DD1083332000121F6
:104210006068FFF785FE06E0002D3BD1236A9846D3
:10422000042B62D0082529006068FFF77BFE88E731
:10423000FEE721002020FFF76FFE2568AB1C51DB55
:10424000002D9CDB4ED12369082BEBD16269042A37
:10425000E8D1226A9046042AE4D1A2682900914656
:10426000626A606892463200FFF758FE0828D9D18A
:10427000434603AA01216068FFF750FE0428D1D10C
:1042800053460193039B48460093069A079B00F010
:104290007DF81FE0FEE721003800FFF73DFE2568AE
:1042A000AB1C21DB002D00DA69E71DD12369082B47
:1042B000B8D1226A042AB5D1A26829009046606864
:1042C0003200FFF72BFE0828ACD1069A079B404628
:1042D00000F080F80490042304AA00216068FFF72E
:1042E0001FFEA0E7FEE7FEE7FEE700F083F8434687
:1042F0000690320029006068FFF712FE93E7C0467F
:1043000000100108064B10B502000C0058680B00A5
:104310000121FFF703FE201A441EA041C00010BD7A
:104320000010010810B50B00034902004868012184
:10433000FFF7F6FD10BDC0460010010810B500F0F3
:104340005BF8002800D110BD00F080F90028FAD1F8
:1043500000F052F8F7E7C0461900130010B50B4300
:1043600082B01400002B0ED00123059A9A4308D185
:10437000049B020000932000059B00F07FF802B030
:1043800010BD0220FBE70820F9E7C0461900130022
:1043900010B50B4382B01400002B08D0059B02001F
:1043A00000932000049B00F039F802B010BD0820F3
:1043B000FBE7C0461900130010B50B431400002B97
:1043C00005D00200029B200000F0E4F810BD082098
:1043D000FCE7C046110010B51A4307D002000800E0
:1043E000190000F0F7F80A2802D010BD0820FCE7F9
:1043F0000130FAE70020704710B500F0F3FD002807
:1044000006D1044C200000F001FA034B283C5C600C
:1044100010BDC0466010010830100108F8B5144DF9
:104420001F002B0000F03CFC041E01D02000F8BD52
:10443000104E2868310001F073FC041E06D1069A64
:104440003900F06900F0B8FD041E05D00A4A0021C9
:104450003000FCF729F9E9E73000283038180699D0
:10446000FFF760FF044A00213000FCF71DF9DDE78B
:10447000301001083810010828080000F0B5574630
:104480004E46DE4645469A468023E0B583B09146C7
:104490000C9A06000F001B019A4255D8394B4A4628
:1044A000984600F0FDFB384D041E0ED005284DD077
:1044B000364A00212800FCF7F7F8200003B03CBC86
:1044C00090469946A246AB46F0BD4346290018687F
:1044D00001F026FC041EEBD16B6A01341C40E7D1CD
:1044E00053466B620C9B2B6243461B68019301236E
:1044F0009B46274B0C9918009A46FFF703FF041EB2
:10450000D6D128235B429C46E24453460C9A41464E
:104510005846DA6100F01EFA041EC9D143465146DE
:10452000186801F03DFC041EC2D143464A463000E3
:10453000390000F09DFA041E1FD1019B002B13D1FE
:1045400000F02EFD0400B3E70824B6E70F4A00216F
:104550002800FCF7A9F80C9B2B6253466B620223E0
:104560009B4600230193C4E700F01AFD041E9FD16F
:10457000019800F017FE04009AE74346186800F01F
:1045800011FE95E7301001083810010828080000D6
:1045900060100108F8B50C4D1F002B0000F080FBE7
:1045A000041E01D02000F8BD084E2868310001F03B
:1045B000B7FB041E02D1736AF2690CC7044A0021DA
:1045C0003000FCF771F8EDE73010010838100108F1
:1045D00028080000F8B54746CE46194D80B52B0097
:1045E00006000F00904600F05BFB041E04D0200084
:1045F0000CBC90469946F8BD124B286819009946A4
:1046000001F08EFB041E04D14B465B6A01341C4052
:1046100005D00D4A00214846FCF746F8E7E7424638
:104620003000390000F0ECFB041EF2D12D6800F0E0
:10463000B7FC041EEDD1280000F0B4FD0400E8E74B
:1046400030100108381001082808000010B500F0EB
:10465000CDFC002800D010BD00F0C4FC0028FAD129
:1046600000F0BEF8F7E7C046002310B582B00400A2
:1046700001A90120019301F0EBFB002824D1019B4B
:104680009C4205D80BE0019B01330193A34206D263
:10469000012001F0E7FB0028F5D002B010BD01A910
:1046A000022001F0D5FB00280ED1019B9C4205D8C9
:1046B0000CE0019B01330193A34207D2022001F0D9
:1046C000D1FB0028F5D0E8E70B20E6E70020E4E77F
:1046D000F0B583005E58DBB0B227CA686B460C00A9
:1046E00031007F00DA511C313A0005006846FBF7C3
:1046F000BFFFB42269465200300001F0EFFA0028F3
:1047000018D02369002B04D16419013323725BB0E4
:10471000F0BD6A46D351B42269465200300001F020
:10472000DDFA431E98410123404298430330641947
:104730002072ECE7022364192372E8E7F0B5C6465D
:10474000002300B50020DCB0019301F08BFB041EB8
:1047500004D020005CB004BC9046F0BD01A900204C
:1047600001F076FB041EF4D101F096F9041EF0D19D
:104770001A4D019C280001F00BFA08216B46B22269
:104780005B18290052001C3118009C50FBF770FF89
:10479000B42202A95200280001F078FA041E1AD1AE
:1047A00001F0DEF9041ED4D18223C026FF33EF5C72
:1047B00076009846781C2B003200310000F026FC71
:1047C000041EC6D14246AB5D0198AB54AF55FFF70E
:1047D0004BFF0400BDE701F0C3F9BAE76018010818
:1047E00010B501F02DFB00280DD1C422064C52005B
:1047F00000212000FBF758FF0123C022237752003D
:10480000A354FFF79BFF10BD601801080023C021CF
:1048100070B54F4E86B001AC2381E36023616060C8
:104820003300002249000120019600F02FFD0028EE
:1048300001D001232372C0216368002249000220B5
:1048400000F024FD002801D00123637201F024F957
:10485000051E02D0280006B070BD01F0F1FA051E59
:1048600005D104A9002001F0F3FA051E02D001F0E1
:1048700077F9EFE76946012001F0EAFA051EF6D163
:1048800005A9022001F0E4FA051EF0D12369009A7F
:10489000934200D02061237A012B39D1637A012B16
:1048A00031D101F05DF9051ED4D1019B1B7F012B95
:1048B00001D00123237261680B7F012B01D00123FA
:1048C000637202232289FF339A422DD0237A012B6F
:1048D00035D0637A012B20D0022B27D0C023802231
:1048E00002205B005200F25200F05CFC051E01D079
:1048F0000528AFD1E068FFF7B7FE051EAAD130004A
:1049000001F03CF9A6E721000120FFF7E1FEC8E72E
:1049100021000020FFF7DCFEC0E780228033FF3358
:104920005200F2520220DFE70B2593E7C022012359
:104930005200B3523000FBF79BFE0120D4E7C022A7
:104940005200B3523000FBF793FE0120CCE7C04683
:104950006018010870B504000D00002800D16DE05A
:10496000424A116B536B194302D1013C002C57D0C2
:10497000116D536D194303D1013C002C00D165E04A
:10498000116F536F194302D1013C002C60D010000D
:10499000903001684068014302D1013C002C59D09D
:1049A0001000B03001684068014302D1013C002C86
:1049B00052D01000D03001684068014302D1013C60
:1049C000002C4BD01000F03001684068014302D148
:1049D000013C002C44D010001130FF3001684068C9
:1049E000014302D1013C002C3CD010003130FF309B
:1049F0000168406801431CD010005130FF3001684D
:104A00004068014302D1013C002C2DD07132FF32AD
:104A100011685268032011430AD1012C08D10934CE
:104A20000334200000F0E6FA002809D000202C60B2
:104A300070BD013C002CDFD10824F1E70820F7E726
:104A4000200000F0AFFB0028F0D0F1E70124E7E7F9
:104A50000224E5E70324E3E70424E1E70524DFE794
:104A60000624DDE70724DBE70924D9E760180108FD
:104A7000F0B5DE4657464E464546E0B5874C1F002A
:104A8000236B89B005008B461600834257D0236DF7
:104A9000AB4200D191E0236FAB4200D197E02300FD
:104AA00090331A68AA4200D19BE02300B0331A6801
:104AB000AA4200D1A0E02300D0331A68AA4200D154
:104AC000A5E02300F0331A68AA4200D1AAE023002F
:104AD0001133FF331A68AA4200D1AEE0230031330C
:104AE000FF331A68AA4200D1B3E023005133FF33E9
:104AF0001A68AA4200D1B8E023007133FF331A6864
:104B0000AA4200D1BDE059463A68D31E023A52018A
:104B10005B01E318A4181D6359639E637968102232
:104B20002000FBF7A5FDFFF709FE051E3FD1280079
:104B300009B03CBC90469946A246AB46F0BD636BBB
:104B40008B42A4D1A36B9A42A1D1002301335B0114
:104B50009846A044202241466846FBF789FD43461B
:104B60001B692022994643465B69002140469A46CC
:104B7000FBF79AFD59463A68D31E023A52015B018F
:104B8000E318A4181D6359639E63796810222000FE
:104B9000FBF76EFDFFF7D2FD051EC8D04B4652460F
:104BA000134304D0202269464046FBF761FD2022D2
:104BB00000212000FBF778FDB9E7636D5B4500D06D
:104BC00069E7A36D9E4200D065E70123BEE7636FEE
:104BD0005B4500D063E7A36F9E4200D05FE70223EE
:104BE000B4E75B685B4500D05FE79823E3589E42DB
:104BF00000D05AE70323A9E75B685B4500D05AE77A
:104C0000B823E3589E4200D055E704239EE75B6833
:104C10005B4500D055E7D823E3589E4200D050E7CB
:104C2000052393E75B685B4500D050E7F823E35822
:104C30009E4200D04BE7062388E75B685B4500D0C7
:104C40004CE78C235B00E3589E4200D046E70723E5
:104C50007CE75B685B4500D047E79C235B00E3583B
:104C60009E4200D041E7082370E75B685B4500D0B7
:104C700042E7AC235B00E3589E4200D03CE70923A7
:104C800064E75B685B4500D03DE7BC235B00E3580D
:104C90009E4200D037E70A2358E7C0466018010853
:104CA00070B5564C256B85423FD0256D85424ED060
:104CB000256F854253D0250090352E68864256D008
:104CC0002500B0352E6886425AD02500D0352E6892
:104CD00086425ED02500F0352E68864262D02500DF
:104CE0001135FF352E68864265D025003135FF35F8
:104CF0002E6886426AD025005135FF352E688642DF
:104D000000D16FE025007135FF352E68864201D055
:104D1000052070BD68688842FAD1BC2149006158FD
:104D200005208A42F5D10A2106E0656B8D42BCD18F
:104D3000A56BAA42B9D10021CA1C013149011A60F0
:104D4000586861181022FBF793FC0020E1E7656DBD
:104D50008D42ADD1A56DAA42AAD10121ECE7656FC4
:104D60008D42A8D1A56FAA42A5D10221E4E76D68C2
:104D70008D42A5D198256559AA42A1D10321DBE72F
:104D80006D688D42A1D1B8256559AA429DD10421F3
:104D9000D2E76D688D429DD1D8256559AA4299D137
:104DA0000521C9E76D688D4299D1F8256559AA4258
:104DB00095D10621C0E76D688D4296D18C256D0096
:104DC0006559AA4200D090E70721B5E76D688D428A
:104DD00000D090E79C256D006559AA4200D08AE773
:104DE0000821A9E76D688D4200D08BE7AC256D00E6
:104DF0006559AA4200D085E709219DE7601801089E
:104E000030B5664B89B01C6B84425DD01C6D84420A
:104E100062D01C6F844267D01C00903425688542A4
:104E200000D16BE01C00B0342568854200D170E0F1
:104E30001C00D0342568854200D175E01C00F03498
:104E40002568854200D17AE01C001134FF342568C2
:104E5000854200D17EE01C003134FF342568854254
:104E600000D183E01C005134FF342568854200D115
:104E700088E01C007134FF342568854203D0052585
:104E8000280009B030BD60688842F8D1BC214900D3
:104E9000595805250A248A42F2D1013464011C19AB
:104EA000202221006846FBF7E3FB2022002120009E
:104EB000FBF7FAFBFFF742FC051EE1D02022694612
:104EC0002000FBF7D5FBDBE75C6B8C429ED19C6B33
:104ED000A2429BD10024E0E75C6D8C4299D19C6D8D
:104EE000A24296D10124D8E75C6F8C4200D093E7B0
:104EF0009C6FA24200D08FE70224CEE764688C4208
:104F000000D08FE798241C59A24200D08AE70324DE
:104F1000C3E764688C4200D08AE7B8241C59A242D7
:104F200000D085E70424B8E764688C4200D085E7A8
:104F3000D8241C59A24200D080E70524ADE764685C
:104F40008C4200D080E7F8241C59A24200D07BE7B5
:104F50000624A2E764688C4200D07CE78C246400BD
:104F60001C59A24200D076E7072496E764688C4279
:104F700000D077E79C2464001C59A24200D071E75E
:104F800008248AE764688C4200D072E7AC2464008D
:104F90001C59A24200D06CE709247EE76018010882
:104FA000822310B5034AFF33D05C013000F0FAF8D9
:104FB00010BDC04660180108814208D8411A00207F
:104FC00091424041052340429843063070470720F4
:104FD000FCE7C046431E98410423404298430530F5
:104FE0007047C04610B500F0D9FA10BD10B500F0FA
:104FF00051FC10BD00B583B001A900F07DFA002876
:1050000001D103B000BD0520FBE7C046F0B5C646A0
:1050100000B58EB00E0005A904001500984600F0FA
:105020006BFA00284BD006AF009709AB05AA3100F8
:10503000200000F093FB00283DD1002D1FD0AE4290
:105040003DD34346002B3AD02A000A99099800F034
:10505000ABF9002835D109A938000B9500F0B0F95B
:1050600000282ED1099B3C681800039300F03AFAFF
:10507000099B386019002000039300F089FC390077
:10508000099800F08DFC00281BD109A9059800F0B3
:10509000F5FC002815D1059800F000FA002810D181
:1050A000099B002B01D1002D03D100F0BFFA00288D
:1050B00007D100F099FA0EB004BC9046F0BD08206C
:1050C000F9E70B20F7E7C04630B587B00D00694619
:1050D000040000F011FA00280ED101A9009800F098
:1050E000E1FA002806D1059BA34205D1039B2B6062
:1050F000049B6B6007B030BD0520FBE770B58CB03A
:105100000D0003A914001E0000F0F6F9002843D199
:1051100007A9039800F0C6FA00283DD104A9079812
:1051200000F0F2FA00283AD1089B2A00E11807980B
:10513000330000F039F9002831D1099B0193AB42CB
:1051400000D2099507A904A800F03AF9002826D151
:105150000798049C00F0C6F907990490200000F01D
:1051600017FC04A9079800F01BFC002817D107A919
:10517000039800F083FC002811D1039800F08EF909
:1051800000280CD1079B002B03D000F04FFA002819
:1051900005D100F029FA00E005200CB070BD0B200D
:1051A000FBE7C046F0B5CE46474680B58DB005A9B1
:1051B00000F0A2F900284ED106A9059800F072FA75
:1051C000051E05D028000DB00CBC90469946F0BDD8
:1051D0000A9B18000393FFF7FDFE00283BD1099BB3
:1051E00000229846002306A90598069E0A95069572
:1051F000079F0892099300F041FC051EE2D180232D
:105200005B010024994608E006A9200000F036FC66
:10521000002836D101340D2C1FD0059BA342F9D0B4
:1052200006A9200000F03EFA00282AD1069B03932D
:10523000B342E9D10A9B0393002BE5D0079BBB4205
:10524000E2D999451FD842469B1A0793099B9C4671
:1052500003936544D8E70525B4E700953B004A462B
:105260004146300000F03EF8051EABD1002E04D0C0
:1052700000F0DCF90B250028A4D100F0B5F90500F9
:10528000A0E705009EE79946DDE7C046F0B589B086
:105290000E0002A9040015001F0000F02DF90028DF
:1052A00009D103A9029800F0FDF9002817D1079B46
:1052B0000193A34202D0052009B0F0BD059B320046
:1052C000290018000193FFF777FE0028F4D13B0076
:1052D0003200290003A800F04DF80028ECD00B2084
:1052E000EAE7C046F0B5C64600B588B00F0005A98C
:1052F000050090461E0000F007FA041E04D02000AE
:1053000008B004BC9046F0BD079B28009C4667444B
:105310000393079700F0E6F80E9B0700002B1CD1C3
:1053200006990598B14209D2761A020000960B0040
:10533000380000F0D1FD00281AD10598290000F0AE
:1053400027FB05A92800059700F02AFB041ED6D0EC
:105350002900380000F01CFBD1E7059B31000393C6
:105360000E9B039A0093434600F0B6FD0028D7D069
:105370000B24C4E7F0B585B005000C00006801A956
:1053800017001E0000F0C0F900280AD10198431C44
:1053900007D06A683B00A218310000F079FD05B023
:1053A000F0BD0B20FBE7C04670B50D0016001C00D9
:1053B00000F098F833002A00210000F07BFD70BD5A
:1053C00070B50E00040082B0086800F08BF87368B6
:1053D000616805008B4208D95B1A009322680B00B4
:1053E00000F07AFD00280DD17368F168A0685918A3
:1053F00080235B011B1A5B1A009322680B002800B4
:1054000000F06AFD02B070BD10B584B00823002220
:105410006946002000F03CFD002801D004B010BD1A
:105420000823002202A9013000F032FD0028F5D146
:105430006B461A7B1B79012B0BD0012A21D16B46BD
:105440005B7BFF2B1DD000220121134B9960DA609A
:10545000E4E76B465C79FF2CEFD0012A0ED16B4656
:105460005B7BFF2B0AD0002B0DD1012CEBD19C4292
:105470008941002249429C425241E6E70021012233
:10548000E3E70B20CAE7002CF1D15A1E51425141EB
:10549000531E9A41D9E7C046E819010870B5104B70
:1054A0008400DD689E68241882B0A40000942C2338
:1054B00032002C21280000F00FFD002805D121002A
:1054C00030234031FF33994201D902B070BD01331E
:1054D0005B1A009332000B00280000F0FDFCF4E79B
:1054E000E8190108034B002801D018687047D868F4
:1054F000FCE7C046E8190108264BF0B54E46994630
:1055000030235746DE464546FF33E0B580468B469E
:105510002C2400269A46204F89B01423220003A988
:10552000B86800F0B5FC051E2FD1039B0193022B38
:105530002BD8079B18000193FFF74CFD002813D1CF
:10554000069A4A4521D8059B01939A421DD3039B95
:1055500004990193002B01D1514516D980204001B7
:10556000FFF72AFD002810D1079B019343450ED079
:10557000013614340D2ED0D10525280009B03CBCCD
:1055800090469946A246AB46F0BD0B25F5E75B4633
:105590001E60F2E728080000E819010810B500F0C5
:1055A00069FC002800D010BDFFF72EFF00280BD1AA
:1055B0000C4C082300222100A06800F069FC0028A0
:1055C00002D12379012B01D00B20ECE76379FF2B6B
:1055D000FAD0E06800F0BEFC0028E4D1206800F0BA
:1055E000B9FCE0E7E819010810B50F4C6379E068F1
:1055F0000133DBB2FF2B14D063710022082321009A
:1056000000F058FC002800D010BDE368A068A3603B
:10561000E06000F09FFC0028F6D1206800F09AFCC2
:10562000F2E70023E8E7C046E819010830B51C4B53
:1056300089B09C68DD6808220C2305A9200000F0D1
:1056400027FC002821D1059B042B20D88020079B14
:1056500040010293069B029A19000393FFF7ACFCEA
:10566000011E14D1059B0293012B12D9069B0293B4
:105670008B420CD18023079A5B019B1A5B1A009323
:1056800022000B00280000F027FC09B030BD0920E3
:10569000FBE73131069BFF3102938B42EAD0F6E7FC
:1056A000E81901088200164B1218920070B598682C
:1056B0002C3214230C0000F0EBFB051E1CD12368D8
:1056C000022B1BD82069FFF785FC002814D1E26863
:1056D0000C4B9A4212D8A3689A420FD32368616890
:1056E000002B03D13023FF33994207D9802040019A
:1056F000FFF762FC002801D1280070BD0925FBE7F7
:10570000E81901082808000042001218114B920005
:1057100010B5986808320C230C0000F0B9FB002883
:1057200015D12368042B13D88020A268616840013A
:10573000FFF742FC00280BD10123226893429B41D2
:10574000054A134031336268FF339A4200D110BDDD
:105750000920FCE7E8190108D0FEFFFFF0B5574625
:105760004E464546DE469B460123E0B588469146B7
:10577000082600249A4689B0129D424F01900C23BE
:1057800032002900B86800F083FB002860D12B6844
:10579000042B5DD88020AA6869684001FFF70CFCE3
:1057A000002855D12B68384A9A459B411340313324
:1057B0006A68FF339A424BD1AB6898454AD90134A5
:1057C0000C36032CDBD1314B2C2698463023FF338B
:1057D00000259A461423320003A9B86800F058FB4C
:1057E000002829D1039B0193022B25D8079B180081
:1057F0000193FFF7EFFB002813D1069A42451BD80F
:10580000059B01939A4217D3039B04990193002BA4
:1058100001D1514510D980204001FFF7CDFB002870
:105820000AD1079B18000193FFF7D4FB002823D16E
:10583000013514360D2DCDD14A46154B1360032486
:10584000200009B03CBC90469946A246AB46F0BD4C
:105850000B24B8E75A461460802259465201D21AE6
:105860004A605A464146D1600199906011614246B2
:105870009B1AAB600024A6E74B461D60002CDFD0CE
:10588000DDE7C046E8190108D0FEFFFF2808000048
:10589000FFFF000070B588B0FFF7B6FD00240028B8
:1058A00001D13A4BDC68200000F054FB002801D005
:1058B00008B070BD6042604100F04CFB0028F7D199
:1058C0000223324D00222B60013BAB80EB60ED23C5
:1058D0001B01029398235B0000920193A8600C23A4
:1058E00008326946013000F0E5FA0028E0D1802353
:1058F00001905B010330029300F02CFB04000420B4
:1059000000F028FB04433CD1032314220093694692
:105910000933E86800F0CEFA002830D104232022B1
:10592000009369460833E86800F0C4FA002826D1DD
:105930001422002103A89826FAF7B6FE2C2476003C
:105940001423220003A9E86800F0B4FA002816D155
:105950001434B442F4D16B79EC680133DBB2FF2B21
:1059600011D06B71082300222900200000F0A2FA58
:10597000002804D1AB68EA68EB60AA6098E70B20C6
:1059800096E7042094E76871ECE7C046E81901083F
:10599000002901D0014B18607047C046E819010882
:1059A000F0B5C64600B5344D040088B0E868002C58
:1059B00016D108600C23082200F07CFA002824D1BC
:1059C000EF68AE682C2301346100091989000831A1
:1059D0005B1A009332000B00380000F07DFA15E0EE
:1059E00063001B199B001A00984608320C2300F034
:1059F00061FA002809D1AE680C23082205A93000FD
:105A0000EF6800F045FA002804D00B2008B004BC71
:105A10009046F0BD059B042BF7D88020079B4001E2
:105A20000293069B029A19000393FFF7C5FA002818
:105A3000EBD1059B0293012B1AD9069B029383425B
:105A4000E3D1E8680C23082205A9059700F032FA93
:105A50000028DAD1012CB5D943460C3B0093320023
:105A600014231421380000F037FA0028AAD0CDE71B
:105A70003130FF30E1E7C046E819010810B5820077
:105A8000044B12189200D8682C32142300F012FA3A
:105A900010BDC046E81901080023002210B58AB0E5
:105AA000069207930023284C089320000593FBF7E8
:105AB0009BFE00283DD1C02106A88900234AFCF79F
:105AC00041F8208806A9FCF743F800282BD11223BF
:105AD0006B441A001E490130FBF7AEFE002822D1AC
:105AE0006B46598A10230393043B0293194B009091
:105AF0000193194A002305A8FCF704FF00281DD1D3
:105B0000208805AB80221549FCF79EFE002812D1A3
:105B100005A8FCF7CBFE002810D16B46588AFBF78E
:105B2000BFFE002803D02088FBF716FF0B200AB029
:105B300010BD0B20FBE705A8FCF7B8FE6B46588AA2
:105B4000FBF7AEFEEFE7C046041A0108021000069C
:105B50005B81FFFF845F0010000F00B00100004078
:105B6000054B10B51888FBF7F7FE434258410A234E
:105B7000404298430B3010BD041A0108010010B5D3
:105B800010310C220148FAF773FD10BDF819010815
:105B9000F0B583B06C460E4923000A0060CA60C3AA
:105BA0000122009E019F002392197B4100920193E4
:105BB0001A4353425A410B008D681030AD1844CC43
:105BC00044C38D600C22FAF753FD03B0F0BDC0460C
:105BD000F8190108F0B51600020089B0109F050001
:105BE0001048119C008805970F9F029304970E9F01
:105BF000009110320694039701960C230A49FCF792
:105C0000E3FB00280CD10F9B21689C4610392160D2
:105C1000102261442800FAF72BFD002009B0F0BDE6
:105C20000B20FBE7041A010802100006F0B5C64677
:105C30000400904600B588B00E9D0F005819210051
:105C400010221E00FAF714FD0E4B22001888119B3B
:105C500010350693109B103205930F9B0395049308
:105C600043460296019300970C230749FCF706FC74
:105C7000434258410923404298430A3008B004BCCB
:105C80009046F0BD041A010802100006030030B56A
:105C900014008BB002000F4809AD008806950493EC
:105CA000102500230091039302931032059501946F
:105CB0000C330949FCF788FB002808D109981038F3
:105CC000431E98410B23404218400BB030BD0B20BF
:105CD000FBE7C046041A01080210000630B50300B5
:105CE0008BB0150002000C4809AC00880694002413
:105CF000059404941034029300910C231032039401
:105D000001950649FCF7BAFB099B184301D10BB07A
:105D100030BD0A20FBE7C046041A01080210000645
:105D2000F0B589B00D0006A90400FFF7CDF90028F1
:105D300001D009B0F0BD2B000022103306992000DD
:105D4000FFF7A4FA0028F4D1069E0494FFF7A4FEFE
:105D50000028EED134002F000F4E0C3C1C372200DF
:105D600039003000FAF784FC05AB03930B4B019725
:105D7000029300943300042204A92800FFF756FF81
:105D8000002802D1059B9C4203D0FFF7E9FE0B20BF
:105D9000CFE7FFF7E5FECCE7081A01080C08000082
:105DA000F0B5CE46474680B50C00096A87B0183179
:105DB000002300220500FFF729F9002804D007B0CE
:105DC0000CBC90469946F0BDE6690495FFF764FE69
:105DD0000028F4D11C23370098462000FFF7D8FE96
:105DE00005AB0393144B0C370293144BA044994614
:105DF000019300974346042204A92000FFF7EAFE1E
:105E0000002802D1059B9F4203D0FFF7A9FE0B207B
:105E1000D5E73A0049464046FAF72AFCFFF7A0FECC
:105E20000028CCD123003100103318310022280083
:105E3000FFF764F9C3E7C0461C080000081A010810
:105E400010B51FF009F8002800D110BD0B20FCE7A9
:105E500010B50A0004211FF043F8002800D110BD3E
:105E60000B20FCE710B51FF08BF8002800D110BD07
:105E70000B20FCE700B5054B83B09B680020019325
:105E80009847431E9841800003B000BDC85F0210D0
:105E900010B5C530064CFF30000380181A00636946
:105EA00082B001939847431E9841800002B010BD14
:105EB000C85F021010B5C530064CFF3000038018D3
:105EC0001A00A36982B001939847431E984180004D
:105ED00002B010BDC85F0210F0B54746D646C530C7
