:020000041000EA
:1004000000880008910400100D000000493302101C
:1004100000000000000000000000000000000000DC
:100420000000000000000000000000003133021056
:100430000000000000000000F5320210FD04001072
:10044000FD0400109D330210FD040010FD04001097
:10045000FD040010FD040010FD0400108D31021099
:10046000FD040010FD040010FD040010FD04001048
:10047000FD040010FD040010FD040010FD04001038
:100480007047EFF3108072B6704780F310887047A2
:10049000FFF7F6FF72B6144C144DAC4209DA21682E
:1004A0006268A368043B02DBC858D050FAE70C34FA
:1004B000F3E70F4B0F4CA34208DA19685A68002083
:1004C000043A01DB8850FBE70833F4E722F06EFFC3
:1004D000EFF314800221084380F31488064880F368
:1004E00009881FF031FEFEE71C05001070050010A2
:1004F00070050010C805001000900008FEE7FEE738
:1005000000B504207146084202D0EFF3098001E0F3
:0C051000EFF30880043022F001F8FEE751
:10051C002060021080B5010804010000E05F0210A9
:10052C000000000800000000E05F021000900008CE
:10053C0000000000E05F021080AA0008000000002C
:10054C00E05F021080B30008400000002060021041
:10055C0000A40108000000002060021080A801081F
:04056C00000000008B
:1005700084B60108981400000090000820120000C2
:1005800080A200080008000080AA00088002000085
:1005900000AD000880060000C0B3000800D00000D5
:1005A000008401080020000000A4010820000000D1
:1005B00080A401080004000080A801086002000077
:0805C00000AB0108800A0000F5
:0805C80000000000000000002B
:1005D000000000000000000000000000000000001B
:1005E000000000000000000000000000000000000B
:1006000010B5034B0A000100186800F056F810BD41
:1006100018B60108084B10B50400002B02D00021C9
:1006200000E000BF054B1868836A002B00D0984794
:10063000200024F00FFCC046000000001C16001033
:1006400010B5034B0100186800F046F810BDC04615
:1006500018B6010830B50024A24201D1002005E0FF
:10066000035D651C0C5DA34201D0181B30BD2C003E
:10067000F2E7002310B59A4200D110BDCC5CC454FF
:100680000133F8E710B5884202D98B18984203D39A
:10069000002307E08B5C8354013AFBD210BDCC5C95
:1006A000C45401339A42FAD1F8E703001218934276
:1006B00000D1704719700133F9E74A4370B5110052
:1006C000140000F053F8051E03D022000021FFF7AC
:1006D000ECFF280070BD000070B50500002910D0A7
:1006E0000C1F2368002B00DAE418280000F016FC29
:1006F0001D4A1368002B05D163601460280000F0C8
:100700000EFC70BDA34209D9216860188342F3D161
:1007100018685B6841182160EEE713005A68002AE8
:1007200001D0A242F9D919685818A0420BD120680B
:100730000918581819608242E0D1106852684118AF
:1007400019605A60DAE7A04202D90C232B60D5E782
:1007500021686018824203D11068526841182160F4
:1007600062605C60CAE7C04608CB0108032370B52D
:10077000CD1C9D43083506000C2D1ED20C25A94228
:100780001DD8300000F0CAFB254A1468210000295A
:1007900019D1244C2368002B03D1300000F0C8F895
:1007A00020602900300000F0C3F8431C2BD10C233B
:1007B0003000336000F0B3FB03E0002DDFDA0C23E0
:1007C0003360002070BD0B685B1B19D40B2B03D961
:1007D0000B60CC18256003E04B688C420DD1136090
:1007E000300000F09CFB200007220B30231D9043BB
:1007F000C31AE7D05A42E250E4E763600C00EFE727
:100800000C004968C3E70323C41C9C43A042E1D009
:10081000211A300000F08CF8431CDBD1C7E7C0463A
:1008200008CB01080CCB01080FB40B4B13B51C68A7
:10083000002C05D0A369002B02D1200000F06EFA35
:1008400005AB049AA1682000019300F091FB16BC4F
:1008500008BC04B01847C04618B6010870B50500BA
:100860000E00002804D08369002B01D100F056FA55
:10087000AB69AC68002B02D1280000F04FFA244B82
:100880009C420FD16C68A3891B0702D52369002BFA
:100890001FD12100280000F0D3F8002819D0012032
:1008A000404270BD1B4B9C4201D1AC68EBE71A4B38
:1008B0009C42E8D1EC68E6E70136A360002B04DA3D
:1008C000A2699A4216DC0A2914D023685A1C2260B5
:1008D0001970A3683178013B0029EDD1A360002B8A
:1008E0000FDA22000A31280000F054F8431CD6D059
:1008F0000A20D6E72200280000F04CF8431CE8D17B
:10090000CDE70A2023685A1C22601870C9E7C04648
:1009100040160010601600102016001010B5034B92
:1009200001001868FFF79AFF10BDC04618B601080D
:10093000002370B5064C05000800236024F07CFA03
:10094000431C03D12368002B00D02B6070BDC04630
:1009500018CB01080023C25C0133002AFBD1581ECA
:10096000704710B50378002B0FD10B785A425341D2
:100970005B42184010BD0023CA5C002AFAD0C45C58
:10098000944201D10133F7E701300378002BF2D113
:100990001800EFE7F8B505000E001400002804D099
:1009A0008369002B01D100F0B9F9224B9C422DD173
:1009B0006C68A369A360A3891B0731D52369002B49
:1009C0002ED023682269F7B2981A6369F6B283427F
:1009D00005DC2100280000F033F9002826D1A368A7
:1009E0000130013BA36023685A1C22601F706369B9
:1009F000834204D0A389DB071AD50A2E18D121001F
:100A0000280000F01DF9002812D00FE00A4B9C428C
:100A100001D1AC68CDE7094B9C42CAD1EC68C8E76C
:100A20002100280000F00CF80028CAD001267642E8
:100A30003000F8BD4016001060160010201600109F
:100A4000364B70B51D6806000C00002D05D0AB6953
:100A5000002B02D1280000F061F9314B9C420FD1EC
:100A60006C680C23E25E93B219072DD4D90611D419
:100A700009230120336037331343A381404270BD03
:100A8000284B9C4201D1AC68EBE7274B9C42E8D154
:100A9000EC68E6E75B0713D5616B002908D02300FB
:100AA0004433994202D03000FFF716FE00236363FF
:100AB0002422A3899343A3810023636023692360D5
:100AC0000823A2891343A3812369002B0BD1A02102
:100AD0008022A389890092000B40934203D0210019
:100AE000300000F0D7F90123A289134011D0002370
:100AF000A36063695B42A361002023698342BED186
:100B00000C23E25E1306BAD540231343A3810138B8
:100B1000B5E7920700D46369A360EDE718B6010852
:100B2000401600106016001020160010F7B58A89D4
:100B300005000C00130760D44B68002B04DC0B6C21
:100B4000002B01DC0020FEBDE76A002FFAD0002355
:100B50002E682B6080235B01216A1A4034D0606DBF
:100B6000A3895B0706D56368C01A636B002B01D0AD
:100B7000236CC01A0200216A00232800E76AB847E4
:100B8000A189431C06D12B681D2B30D82B4ADA4093
:100B9000D3072CD50023636023692360CB0405D5DC
:100BA000431C02D12B68002B00D16065616B2E6065
:100BB0000029C7D023004433994202D02800FFF710
:100BC0008BFD00206063BEE701232800B847431C6B
:100BD000C6D12B68002BC3D01D2B01D0162B01D101
:100BE0002E60AFE74023A2891343A381ABE74023E4
:100BF0000B430120A3814042A5E70F69002FA1D03C
:100C00000B680F60DB1B01930023920700D14B6937
:100C1000A360019B002B00DC94E7019B3A00216A52
:100C20002800A66AB047002803DC4023A2891343AA
:100C3000DFE7019B3F181B1A0193EAE70100402000
:100C40000B6970B505000C00002B01D1002070BDB0
:100C5000002804D08369002B01D100F05FF80B4B12
:100C60009C4209D16C680C22A35E002BEED02100BF
:100C70002800FFF75BFFEAE7054B9C4201D1AC6817
:100C8000F1E7044B9C42EED1EC68ECE74016001013
:100C90006016001020160010002310B50400036039
:100CA0004360836081814366C281036143618361E4
:100CB000190008225C30FFF7F8FC054B24626362E0
:100CC000044BA362044BE362044B236310BDC04694
:100CD00089140010B1140010E9140010151500104B
:100CE00010B5024900F08CF810BDC046410C001050
:100CF00070B568254A1E55430E0029007431FFF770
:100D000035FD041E08D000212A00016046600C3029
:100D1000A0606832FFF7C9FC200070BD836913B57D
:100D20000400002B28D18364C3640365134B144A69
:100D30001B6882620193984201D1012383612000E4
:100D400000F020F86060200000F01CF8A060200097
:100D500000F018F80022E06004216068FFF79CFFB3
:100D600001220921A068FFF797FF02221221E06803
:100D7000FFF792FF0123A36113BDC0461C160010AC
:100D8000E10C0010F8B51C4B07001E68B369002B7E
:100D900002D13000FFF7C2FF4836B4687368013BE8
:100DA00004D53368002B07D03668F6E70C22A55E21
:100DB000002D0DD06834F2E704213800FFF798FFCA
:100DC00030600028F0D10C2304003B602000F8BD07
:100DD00020000A4B656625606560A560E3602561BB
:100DE0006561A561082229005C30FFF75EFC656340
:100DF000A563A564E564E9E71C1600100100FFFF88
:100E0000F7B504000700002601914834002C01D1F9
:100E10003000FEBD6368A5680093009B013B009312
:100E200001D52468F2E7AB89012B08D90E22AB5E0D
:100E3000013304D029003800019B984706436835E8
:100E4000EBE7000070B50E001D000E23C95E96B0E2
:100E50001400002907DA00232B60B3891B0611D484
:100E60008023DB000FE06A4600F080FB0028F2DB05
:100E7000F022019B12021340054A9B185A4253412B
:100E80002B60EDE740230020236016B070BDC04604
:100E900000E0FFFFF7B502268B8905000C00334206
:100EA00006D0230047332360236101236361F7BD2C
:100EB00001AB6A46FFF7C6FF009907002800FFF75D
:100EC00055FC002808D10C22A35E9A05EFD403221A
:100ED00093431E43A681E4E70F4BAB628023A289B4
:100EE00020601343A381009B20616361019B002B61
:100EF0000DD00E23E15E280000F04AFB002806D04A
:100F00000322A38993431A0001231343A381A089D9
:100F10003843A081CBE7C046E10C00107047704712
:100F2000936810B5013B9360002B04DA9469A342E7
:100F300007DB0A2905D01368581C106019700800D7
:100F400010BDFFF727FD0100F9E7F8B506000F0017
:100F50001400D518AC4201D1002007E021783A00F6
:100F60003000FFF7DDFF0134431CF3D1F8BD000072
:100F7000F0B5A1B003900F0016001D00002805D0A9
:100F800083690593002B01D1FFF7C8FE7B4B9F427D
:100F90005CD1039B5F68BB891B0763D53B69002B52
:100FA00060D0002308AC6361203363761033A376EE
:100FB000079535002B78002B01D0252B5CD1AB1B7E
:100FC00005930CD0320039000398FFF7BEFF431C95
:100FD00000D1C4E06269059B9446634463612B7849
:100FE000002B00D1BBE0012200235242626004A921
:100FF000543252186E1C2360E360A3601370A36523
:10100000317805225E4800F0E9FA751C002835D1D8
:101010002268D30604D5532304A95B182021197034
:10102000130704D5532304A95B182B2119703378B7
:101030002A2B2CD0350000210A20E3682A786E1C68
:10104000303A092A64D900292ED026E04D4B9F4220
:1010500002D1039B9F689EE74B4B9F429BD1039B12
:10106000DF6898E739000398FFF7EAFC002898D07A
:101070000120404221B0F0BD01359BE7404B226882
:10108000C01A01238340134323602E00B8E7079B57
:10109000191D1B680791002B01DB0B9304E05B42D9
:1010A000E3600223134323602B782E2B0AD16B7845
:1010B0002A2B35D1079B02351A1D1B680792002B7E
:1010C0002BDB0993314E29780322300000F086FA99
:1010D000002806D04023801B83402268013513433B
:1010E0002360297806222A486E1C217600F076FAC1
:1010F00000283AD0274B002B25D10722079B073326
:101100009343083307936369049A9B18636150E71C
:10111000434301219B18350090E701235B42D0E750
:1011200000230A201A000135636029786E1C3039CB
:10113000092903D9002BC5D00992C3E742430123F3
:1011400052183500F1E707AB00933A00124B21002B
:10115000039800E000BF0490049B0133D3D1BB8906
:101160005B0600D584E70D9884E707AB00933A004F
:10117000094B2100039800F07FF8ECE740160010BF
:101180008016001060160010201600108616001041
:101190008A160010000000004B0F0010F7B5150074
:1011A00001938A680B6900900C00934200DA1300E7
:1011B00022002B6043321278002A01D001332B60C9
:1011C00023689B0602D52B6802332B600627236811
:1011D0001F4027D0230043331B785A1E93412268B7
:1011E000920630D42200019943320098089EB047FD
:1011F000431C25D0062320682A68E16803400025A7
:10120000042B03D18D1AEB43DB171D40A368226921
:10121000934201DD9B1AED180027BD4220D100202A
:1012200010E00137E3682A689B1ABB42D2DD220036
:101230000123193201990098089EB047431CF0D150
:1012400001204042FEBD3020E118433108702100EA
:101250005A1C45310978A218433202331170C1E794
:10126000220001231A3201990098089EB047431CBE
:10127000E6D00137D1E70000F0B589B004920A004A
:1012800043320593039002920A7E0C000E9B6E2A55
:1012900000D186E01FD8632A33D008D8002A00D1B5
:1012A0008CE0582A4DD0250042352A7030E0642A5F
:1012B00001D0692AF7D1196825680A1D280629D5A1
:1012C00008681A60002803DA2D23029A404213703E
:1012D0006B4E0A274FE0732A74D008D86F2A1FD0AC
:1012E000702AE0D1202209680A43226003E0752AAF
:1012F00016D0782AD7D12200782145321170614E5C
:1013000022E025001A684235111D196013682B7000
:10131000012365E008681A606906D3D500B2D1E7F9
:1013200019682568081D186008682E0605D5544EF2
:1013300008276F2A1BD00A2719E06D06F7D580B25F
:10134000F5E745314E4E0A7018682268011D0068A5
:101350001960150621D5D30702D520231A43226030
:101360001027002803D1202322689A4322602300FB
:10137000002243331A706368A360002B58DB0422F9
:10138000216891432160002854D1029D002B5AD03E
:101390002500337842352B7055E05506DBD580B2F9
:1013A000D9E71A680D68101D4969186013682E0680
:1013B00001D5196002E06D06FBD519800023029D5E
:1013C00023614FE01A68111D1960156800216268D9
:1013D000280000F003F9002801D0401B606063681A
:1013E00023610023029A13703CE023692A000499C8
:1013F0000398059DA847431C3ED023689B0715D43E
:10140000079BE068984239DA180037E02200012390
:10141000193204990398059EB047431C2CD001351E
:10142000E368079A9B1AAB42F0DCE9E70025F7E78F
:101430000028ADD0029D390001F088FC735C013DAD
:101440002B700028F7D1082F09D12368DB0706D5B8
:1014500063682269934202DC3023013D2B70029BBA
:101460005B1B2361059B07AA00932100049B039843
:10147000FFF794FE431CB8D10120404209B0F0BDF3
:1014800091160010A216001070B50C000E25495FD1
:1014900000F0B0F8002803DB636D1B18636570BDB6
:1014A000A389024A1340A381F9E7C046FFEFFFFF7B
:1014B000F8B51F008B8905000C001600DB0505D56B
:1014C0000E23C95E0022022300F074F8A389054AA6
:1014D00028001340A38132000E23E15E3B0000F0A0
:1014E0001FF8F8BDFFEFFFFF70B50C000E25495F38
:1014F00000F060F8A389421C03D1054A1340A38180
:1015000070BD802252011343A3816065F8E7C04695
:10151000FFEFFFFF10B50E23C95E00F015F810BDF8
:1015200070B50500080011000022064C22601A0068
:101530001FF080FB431C03D12368002B00D02B60DD
:1015400070BDC04618CB0108002370B5064C0500DD
:101550000800236023F048FC431C03D12368002BC0
:1015600000D02B6070BDC04618CB0108002370B5B9
:10157000064C050008001100236023F03DFC431CCD
:1015800003D12368002B00D02B6070BD18CB01085D
:10159000002370B5064C05000800236023F034FCDE
:1015A000431C03D12368002B00D02B6070BDC046C4
:1015B00018CB010870B50500080011000022064C88
:1015C00022601A0023F028FC431C03D12368002B5F
:1015D00000D02B6070BDC04618CB0108C9B282187C
:1015E000904201D10020704703788B42FBD001303C
:1015F000F6E7000070B50500080011000022064C57
:1016000022601A0023F010FC431C03D12368002B36
:1016100000D02B6070BDC04618CB01081CB6010875
:1016200000000000000000000000000000000000BA
:1016300000000000000000000000000000000000AA
:10164000000000000000000000000000000000009A
:10165000000000000000000000000000000000008A
:10166000000000000000000000000000000000007A
:10167000000000000000000000000000000000006A
:10168000232D302B2000686C4C006566674546476B
:1016900000303132333435363738394142434445EE
:1016A000460030313233343536373839616263645D
:1016B0006566000005DF70470020FBE706DF704726
:1016C000EFF314830138421E9041012210409343EE
:1016D000184380F31488704730B58BB002900391A3
:1016E00002A90491069308210EAB089304230591E7
:1016F000702007390792099302F0F2FC041E10DDF6
:10170000002304AA019300930021033302F0EAFCB2
:101710000500200002F0F2FC032D05D028000BB0DC
:1017200030BD84256D42F9E787256D42F6E7C04656
:1017300070B58CB0039204AA08920822099203AAF9
:101740000A920422119E0B92109A0490059106921F
:101750000793002E19D00121712002F0C1FC041E54
:1017600016DD0123019306AB009308AA0223002192
:1017700002F0B8FC0500200002F0C0FC032D04D0EC
:10178000079B336028000CB070BD87256D42F9E7D8
:1017900084256D42F6E7C04630B589B002AB0493AC
:1017A00008230290039105930121043372200692CD
:1017B000079302F095FC041E11DD0123019306AB93
:1017C000009304AA0123002102F08CFC05002000F4
:1017D00002F094FC032D05D0280009B030BD84250B
:1017E0006D42F9E787256D42F6E7C04630B587B010
:1017F00002AB049308230290039101217320059307
:1018000002F06EFC041E0EDD002304AA0193009377
:101810000021013302F066FC0500200002F06EFC9E
:10182000280007B030BD84256D42F9E700207047DD
:1018300030B595B00C000390242200210BA8FEF7D0
:1018400034FF0AAA06922822079203AA02230892CA
:1018500004220121802004940A930992059302F046
:101860003FFC041E0FDD0123019304AB009306AA85
:101870000223002102F036FC0500200002F03EFCAD
:10188000280015B030BD84256D42F9E7862040421E
:101890007047C04630B58FB005002422002105A84E
:1018A000FEF703FF032304AC0493012125338020BA
:1018B000E5800294039302F013FC041E0EDD002366
:1018C00002AA019300930021013302F00BFC0500F2
:1018D000200002F013FC28000FB030BD84256D42BB
:1018E000F9E7C046F0B595B007000E0015000021DD
:1018F00024220BA81C00FEF7D8FE04230A930AAB8F
:10190000049328230593043B07930121223B802065
:101910000294069708960995039302F0E1FB041ED2
:101920000FDD0123019302AB009304AA03230021DE
:1019300002F0D8FB0500200002F0E0FB280015B003
:10194000F0BD84256D42F9E730B58FB00500242243
:10195000002105A8FEF7A9FE052304AC049301218C
:1019600023338020E5800294039302F0B9FB041E28
:101970000EDD002302AA019300930021013302F03F
:10198000B1FB0500200002F0B9FB28000FB030BD0C
:1019900084256D42F9E7C04670B590B006AC0600EC
:1019A0000D00282200212000FEF77FFE28230121C0
:1019B00003938020043BE68002940495059302F093
:1019C0008FFB041E0FDD0123019304AB009302AAD9
:1019D0000123002102F086FB0500200002F08EFBAF
:1019E000280010B070BD84256D42F9E7F0B5C646F9
:1019F00000B590B007000E0015000021242207A8B2
:101A00009846FEF752FE062306AC069301212233C8
:101A10008020E780029403930496059502F060FB12
:101A2000041E14DD0123019304AB009302AA0123D9
:101A3000002102F057FB4346059A05001A6020007A
:101A400002F05CFB280010B004BC9046F0BD842579
:101A50006D42F7E7F0B5C64600B590B007000E003E
:101A600015000021242207A89846FEF71EFE072332
:101A700006AC0693012121338020E7800294039372
:101A80000496059502F02CFB041E14DD012301933E
:101A900004AB009302AA0123002102F023FB43467A
:101AA000059A05001A60200002F028FB280010B0FB
:101AB00004BC9046F0BD84256D42F7E7F0B593B0C5
:101AC00007000E0015000021242209A8FEF7EDFDF5
:101AD0000823089320330593043B08AC07930121A6
:101AE000223B8020E780049406960295039302F03F
:101AF000F7FA041E0FDD0123019302AB009304AA41
:101B00000223002102F0EEFA0500200002F0F6FAAE
:101B1000280013B0F0BD84256D42F9E7F0B5C64644
:101B200000B592B004000F0016000021242209A87D
:101B30009846FEF7BAFD1D230893236808ADEB60B5
:101B40002823012103938020243B049402950593CC
:101B50000697079602F0C4FA041E14DD02230193CF
:101B600004AB009302AA0123002102F0BBFA434612
:101B7000079A05001A60200002F0C0FA280012B08F
:101B800004BC9046F0BD84256D42F7E7F0B593B0F4
:101B900004000F0016000021242209A8FEF785FD8D
:101BA0001E230893236808ADEB60282301210593C9
:101BB0008020243B0294049506970796039302F035
:101BC0008FFA041E0FDD0123019302AB009304AAD8
:101BD0000223002102F086FA0500200002F08EFAAE
:101BE000280013B0F0BD84256D42F9E7F0B591B03F
:101BF00005000F0016000021242207A8FEF755FD5E
:101C00001B2306932B6806ACE36028230121039372
:101C10008020243BE780A66002940495059302F09F
:101C20005FFA041E0FDD0123019304AB009302AAA7
:101C30000123002102F056FA0500200002F05EFAAE
:101C4000280011B0F0BD84256D42F9E7F0B591B0E0
:101C500005000F0016000021242207A8FEF725FD2D
:101C60001C2306932B6806ACE36028230121039311
:101C70008020243BE780A66002940495059302F03F
:101C80002FFA041E0FDD0123019304AB009302AA77
:101C90000123002102F026FA0500200002F02EFAAE
:101CA000280011B0F0BD84256D42F9E7F0B5C646B5
:101CB00000B594B0040088461700002124220BA828
:101CC0001E00FEF7F2FC1F230A9323680AADEB60A7
:101CD0002823039343460493042307931A9B01216B
:101CE00080200694029505970896099302F0F8F96A
:101CF000041E14DD0223019306AB009302AA022303
:101D0000002102F0EFF9099A1B9B05001A602000E0
:101D100002F0F4F9280014B004BC9046F0BD84250C
:101D20006D42F7E730B591B004002422002107A8E6
:101D3000FEF7BBFC21230693236806ADEB60282346
:101D4000012103938020243B04940295059302F023
:101D5000C7F9041E0FDD0123019304AB009302AA0F
:101D60000123002102F0BEF90500200002F0C6F9AF
:101D7000280011B030BD84256D42F9E7F0B5C646A4
:101D800000B592B004000F0016000021242209A81B
:101D90009846FEF78AFC20230893236808ADEB6081
:101DA0002823012103938020243B0494029505936A
:101DB0000697079602F094F9041E14DD022301939E
:101DC00004AB009302AA0123002102F08BF94346E1
:101DD000079A05001A60200002F090F9280012B05E
:101DE00004BC9046F0BD84256D42F7E770B590B015
:101DF00005000E002422002107A8FEF756FC0B2345
:101E000006932B6806ACE36028230121039380200E
:101E1000243BA66002940495059302F061F9041E28
:101E20000FDD0123019304AB009302AA01230021DB
:101E300002F058F90500200002F060F9280010B007
:101E400070BD84256D42F9E7F0B593B004000F0032
:101E500016000021242209A8FEF727FC0C23089372
:101E6000236808ADEB602823012105938020243BE3
:101E70000294049506970796039302F031F9041E25
:101E80000FDD0123019302AB009304AA022300217A
:101E900002F028F90500200002F030F9280013B004
:101EA000F0BD84256D42F9E7F0B5C64600B592B0A5
:101EB00004000F0016000021242209A89846FEF70E
:101EC000F4FB0D230893236808ADEB602823012160
:101ED00003938020243B049402950593069707966C
:101EE00002F0FEF8041E14DD0223019304AB0093FC
:101EF00002AA0123002102F0F5F84346079A0500E3
:101F00001A60200002F0FAF8280012B004BC9046D3
:101F1000F0BD84256D42F7E7F0B593B004000F00E3
:101F200016000021242209A8FEF7BFFB0E23089308
:101F3000236808ADEB602823012105938020243B12
:101F40000294049506970796039302F0C9F8041EBD
:101F50000FDD0123019302AB009304AA02230021A9
:101F600002F0C0F80500200002F0C8F8280013B005
:101F7000F0BD84256D42F9E730B591B0040024220C
:101F8000002107A8FEF791FB0F230693236806ADF7
:101F9000EB602823012103938020243B04940295C5
:101FA000059302F09DF8041E0FDD0123019304AB9D
:101FB000009302AA0123002102F094F805002000FA
:101FC00002F09CF8280011B030BD84256D42F9E77D
:101FD00070B590B006000C002422002107A8FEF77F
:101FE00064FB10230693336806ADEB60282303934C
:101FF000243B029504940593002C02D02368002B07
:1020000018D10121802002F06BF8041E0FDD01239E
:10201000019304AB009302AA0123002102F062F8AD
:102020000500200002F06AF8280010B070BD842579
:102030006D42F9E789256D42F6E7C046F0B591B0EB
:1020400005000F0016000021242207A8FEF72DFB33
:10205000132306932B6806ACE36028230121039326
:102060008020243BE780A66002940495059302F04B
:1020700037F8041E0FDD0123019304AB009302AA7D
:102080000123002102F02EF80500200002F036F8AE
:10209000280011B0F0BD84256D42F9E7F0B591B08C
:1020A00005000F0016000021242207A8FEF7FDFA04
:1020B000142306932B6806ACE360282301210393C5
:1020C0008020243BE780A66002940495059302F0EB
:1020D00007F8041E0FDD0123019304AB009302AA4D
:1020E0000123002101F0FEFF0500200002F006F8A8
:1020F000280011B0F0BD84256D42F9E7F0B593B02A
:1021000004000F0016000021242209A8FEF7CDFAD2
:1021100015230893236808ADEB602823012105935C
:102120008020243B0294049506970796039301F0C0
:10213000D7FF041E0FDD0123019302AB009304AA15
:102140000223002101F0CEFF0500200001F0D6FFA0
:10215000280013B0F0BD84256D42F9E7F0B5C646FE
:1021600000B592B004000F0016000021242209A837
:102170009846FEF79AFA16230893236808ADEB6099
:102180002823012103938020243B04940295059386
:102190000697079601F0A4FF041E14DD02230193A5
:1021A00004AB009302AA0123002101F09BFF4346E8
:1021B000079A05001A60200001F0A0FF280012B065
:1021C00004BC9046F0BD84256D42F7E7F0B593B0AE
:1021D00004000F0016000021242209A8FEF765FA6A
:1021E00017230893236808ADEB602823012105938A
:1021F0008020243B0294049506970796039301F0F0
:102200006FFF041E0FDD0123019302AB009304AAAC
:102210000223002101F066FF0500200001F06EFF9F
:10222000280013B0F0BD84256D42F9E730B591B0B8
:1022300004002422002107A8FEF737FA182306938A
:10224000236806ADEB602823012103938020243B03
:1022500004940295059301F043FF041E0FDD012352
:10226000019304AB009302AA0123002101F03AFF7D
:102270000500200001F042FF280011B030BD842588
:102280006D42F9E7F0B595B004000F00160000218B
:1022900020220BA81D00FEF708FA22230A936B46A2
:1022A000DC851A9B0C971395002B36D00AAB049350
:1022B000282305931C9B06931D9B07931A9B089349
:1022C0001B9B09931E9B02931F9B0393102D27D8E2
:1022D000002E06D0002D04D02A0031000FA8FEF7F2
:1022E000C8F90121802001F0FBFE051E1BDD1A9BB1
:1022F00001225C1EA341019202AA02330092002136
:1023000004AA01F0EFFE039A209B04001A60280043
:1023100001F0F4FE200015B0F0BD1B9B002BC5D0D2
:1023200087246442F6E784246442F3E7F0B595B06D
:1023300004000F001600002120220BA81D00FEF74C
:10234000B4F923230A936B46DC851A9B0C971395EB
:10235000002B36D00AAB0493282305931C9B0693CD
:102360001D9B07931A9B08931B9B09931E9B02932B
:102370001F9B0393102D27D8002E06D0002D04D0CC
:102380002A0031000FA8FEF774F90121802001F026
:10239000A7FE051E1BDD1A9B01225C1EA3410192B4
:1023A00002AA02330092002104AA01F09BFE039AC4
:1023B000209B04001A60280001F0A0FE200015B048
:1023C000F0BD1B9B002BC5D087246442F6E7842414
:1023D0006442F3E7F0B5C64600B592B080460F0000
:1023E00016000021242209A81D00FEF75EF92E2305
:1023F0000893434608ACE38028230593189B0121EA
:102400000293199B8020A760049406960795039376
:1024100001F066FE041E14DD0123019302AB00935C
:1024200004AA0223002101F05DFE039A1A9B050015
:102430001A60200001F062FE280012B004BC904631
:10244000F0BD84256D42F7E7F0B5C64600B592B001
:1024500080460F0016000021242209A81D00FEF767
:1024600024F92E230893434608ACE38028230593E0
:10247000189B01210293199B8020A7600494069663
:102480000795039301F02CFE041E14DD0123019334
:1024900002AB009304AA0223002101F023FE039A59
:1024A0001A9B05001A60200001F028FE280012B0D7
:1024B00004BC9046F0BD84256D42F7E7F0B5C646F2
:1024C00000B592B080460F0016000021242209A812
:1024D0001D00FEF7EAF82F230893434608ACE3807B
:1024E00028230393189B01210693199B8020A76042
:1024F000029404960595079301F0F2FD041E10DD89
:10250000002302AA019300930021033301F0EAFDA6
:102510000500200001F0F2FD280012B004BC904636
:10252000F0BD84256D42F7E7F0B5C64600B592B020
:1025300080460F0016000021242209A81D00FEF786
:10254000B4F82F230893434608ACE3802823039371
:10255000189B01210693199B8020A7600294049682
:102560000595079301F0BCFD041E10DD002302AAAF
:10257000019300930021033301F0B4FD0500200016
:1025800001F0BCFD280012B004BC9046F0BD8425CB
:102590006D42F7E7F0B595B005000C00170000217B
:1025A00024220BA81E00FEF780F830230A936B4606
:1025B000DD851A9B0C94002B28D00AAB04932823AA
:1025C00004AC63601A9BE66023611B9B02AE6361EF
:1025D0001C9BA76002931D9B01217360802001F06A
:1025E0007FFD0323051E2BDD0122009601920021B1
:1025F0002200280001F076FD72681E9B04001A601C
:10260000280001F07BFD200015B0F0BD1B9B002BC6
:1026100019D10AAB0493282304AC63601B9BE660CA
:10262000236163611C9B02AE02931D9BA7607360D4
:102630000121802001F054FD051E01DD0223D3E7B6
:1026400084246442DFE787246442DCE7F0B595B078
:1026500005000C001700002124220BA81E00FEF725
:1026600024F831230A936B46DD851A9B0C94002BCA
:1026700028D00AAB0493282304AC63601A9BE6605D
:1026800023611B9B02AE63611C9BA76002931D9B91
:1026900001217360802001F023FD0323051E2BDD43
:1026A00001220096019200212200280001F01AFD6B
:1026B00072681E9B04001A60280001F01FFD2000B4
:1026C00015B0F0BD1B9B002B19D10AAB0493282336
:1026D00004AC63601B9BE660236163611C9B02AEDC
:1026E00002931D9BA76073600121802001F0F8FC1C
:1026F000051E01DD0223D3E784246442DFE787243B
:102700006442DCE770B590B006000D002422002181
:1027100007A8FDF7CAFF33230693336806ACE360CE
:102720002823012103938020243B029404950593E0
:1027300001F0D6FC041E0FDD0123019304AB0093CE
:1027400002AA0123002101F0CDFC0500200001F0C8
:10275000D5FC280010B070BD84256D42F9E7C04655
:10276000F0B591B007000E0015000021242207A843
:10277000FDF79BFF382306933B6806ACE3602823F4
:1027800001218020029403930496059501F0A8FC92
:10279000041E0FDD0123019304AB009302AA012361
:1027A000002101F09FFC0500200001F0A7FC28009B
:1027B00011B0F0BD84256D42F9E7C046F0B58FB089
:1027C00005000F0016000021202206A8FDF76DFF6E
:1027D000362304932B6804ACE36028230121802076
:1027E000A780E6800294039301F07AFC041E0EDDBC
:1027F000002302AA019300930021013301F072FC2F
:102800000500200001F07AFC28000FB0F0BD8425FF
:102810006D42F9E730B591B004002422002107A8E9
:10282000FDF743FF3A230693236806ADEB602823A8
:10283000012103938020243B04940295059301F029
:102840004FFC041E0FDD0123019304AB009302AA89
:102850000123002101F046FC0500200001F04EFCA0
:10286000280011B030BD84256D42F9E7F0B5C646A9
:1028700000B592B0050088461700002120220AA862
:102880001E00FDF712FF37230893434608ACA380D0
:102890002B680121E36028230593189B8020079370
:1028A0000423E780049406960295039301F018FC34
:1028B000041E11DD0123019302AB009304AA02233D
:1028C000002101F00FFC0500200001F017FC28009A
:1028D00012B004BC9046F0BD84256D42F7E7C046B7
:1028E00030B591B005000C002422002107A8FDF7A7
:1028F000DCFE3C23069306AB029328230495039346
:1029000005940025002C02D1280011B030BD012112
:10291000802001F0E5FB041E0DDD0123019304ABD3
:10292000009302AA0123002101F0DCFB0500200036
:1029300001F0E4FBE8E784256D42E5E730B593B0AC
:102940000C0005002422002109A8FDF7AEFE3D235E
:10295000089308AB049328230593043B07930121B4
:10296000223B802002940695039301F0B9FB041EDC
:102970000FDD0123019302AB009304AA022300217F
:1029800001F0B0FB0500200001F0B8FB280013B0F7
:1029900030BD84256D42F9E7862040427047C0462D
:1029A000862040427047C046862040427047C0465D
:1029B000862040427047C046862040427047C0464D
:1029C000862040427047C046862040427047C0463D
:1029D000862040427047C046862040427047C0462D
:1029E000862040427047C046862040427047C0461D
:1029F000F0B5C64600B592B0070088461600002123
:102A0000242209A81D00FDF750FE3B2308934346EE
:102A100008ACE38028230593189B01210293199B9E
:102A20008020A760049406960795039301F058FB55
:102A3000041E14DD0123019302AB009304AA0223B8
:102A4000002101F04FFB039A1A9B05001A60200039
:102A500001F054FB280012B004BC9046F0BD842560
:102A60006D42F7E770B590B005000E0024220021FA
:102A700007A8FDF71AFE322306932B6806ACE36025
:102A80002823012103938020243BA660029404950F
:102A9000059301F025FB041E0FDD0123019304AB18
:102AA000009302AA0123002101F01CFB0500200075
:102AB00001F024FB280010B070BD84256D42F9E7B9
:102AC00070B58EB006000D002422002105A8FDF788
:102AD000ECFD34230493336804ACE3602823012124
:102AE000802025610294039301F0FAFA041E0EDDA2
:102AF000002302AA019300930021013301F0F2FAAE
:102B00000500200001F0FAFA28000EB070BD8425FF
:102B10006D42F9E7F0B5C64607001E2000B590B03B
:102B2000884616000021222268441D00FDF7BDFDE5
:102B300035230693434606ACA3803B680121E3603E
:102B400028238020029403930496059501F0C8FA87
:102B5000041E10DD002302AA01930093002102331A
:102B600001F0C0FA0500200001F0C8FA280010B0FA
:102B700004BC9046F0BD84256D42F7E7F0B593B0F4
:102B800006000F0015000021242209A8FDF78DFD85
:102B9000392308933B6808ACE36028230593043B82
:102BA00007930121223B802004940696029503930B
:102BB00001F096FA041E0FDD0123019302AB00938E
:102BC00004AA0223002101F08DFA0500200001F083
:102BD00095FA280013B0F0BD84256D42F9E7C04690
:102BE000862040427047C046862040427047C0461B
:102BF000862040427047C046862040427047C0460B
:102C0000862040427047C046862040427047C046FA
:102C1000862040427047C04602B4714649084900C8
:102C2000095C49008E4402BC7047C04603B471463B
:102C3000490840004900095A49008E4403BC7047C6
:102C4000002243088B4274D303098B425FD3030AEB
:102C50008B4244D3030B8B4228D3030C8B420DD3FE
:102C6000FF22090212BA030C8B4202D3121209028C
:102C700065D0030B8B4219D300E0090AC30B8B42CA
:102C800001D3CB03C01A5241830B8B4201D38B0378
:102C9000C01A5241430B8B4201D34B03C01A52411D
:102CA000030B8B4201D30B03C01A5241C30A8B4260
:102CB00001D3CB02C01A5241830A8B4201D38B024B
:102CC000C01A5241430A8B4201D34B02C01A5241EF
:102CD000030A8B4201D30B02C01A5241CDD2C30961
:102CE0008B4201D3CB01C01A524183098B4201D3DD
:102CF0008B01C01A524143098B4201D34B01C01AC8
:102D0000524103098B4201D30B01C01A5241C3083F
:102D10008B4201D3CB00C01A524183088B4201D3AE
:102D20008B00C01A524143088B4201D34B00C01A9A
:102D30005241411A00D20146524110467047FFE706
:102D400001B5002000F0F0F802BDC0460029F7D020
:102D500076E7704703460B437FD4002243088B423B
:102D600074D303098B425FD3030A8B4244D3030B12
:102D70008B4228D3030C8B420DD3FF22090212BAD7
:102D8000030C8B4202D31212090265D0030B8B4253
:102D900019D300E0090AC30B8B4201D3CB03C01A3D
:102DA0005241830B8B4201D38B03C01A5241430B18
:102DB0008B4201D34B03C01A5241030B8B4201D308
:102DC0000B03C01A5241C30A8B4201D3CB02C01A73
:102DD0005241830A8B4201D38B02C01A5241430AEB
:102DE0008B4201D34B02C01A5241030A8B4201D3DA
:102DF0000B02C01A5241CDD2C3098B4201D3CB0181
:102E0000C01A524183098B4201D38B01C01A52412F
:102E100043098B4201D34B01C01A524103098B4233
:102E200001D30B01C01A5241C3088B4201D3CB001E
:102E3000C01A524183088B4201D38B00C01A524101
:102E400043088B4201D34B00C01A5241411A00D2B1
:102E500001465241104670475DE0CA0F00D049421A
:102E6000031000D34042534000229C4603098B428A
:102E70002DD3030A8B4212D3FC22890112BA030A12
:102E80008B420CD3890192118B4208D38901921194
:102E90008B4204D389013AD0921100E08909C30919
:102EA0008B4201D3CB01C01A524183098B4201D31B
:102EB0008B01C01A524143098B4201D34B01C01A06
:102EC000524103098B4201D30B01C01A5241C3087E
:102ED0008B4201D3CB00C01A524183088B4201D3ED
:102EE0008B00C01A5241D9D243088B4201D34B0008
:102EF000C01A5241411A00D20146634652415B104A
:102F0000104601D34042002B00D54942704763462A
:102F10005B1000D3404201B5002000F005F802BD6F
:102F20000029F8D016E770477047C046002B11D132
:102F3000002A0FD1002900D1002802D00021C94366
:102F4000081C07B4024802A14018029003BDC04605
:102F5000D9FFFFFF03B4684601B5029800F030F8CE
:102F6000019B9E4602B00CBC7047C046F0B5CE46F1
:102F7000474615042D0C2E0080B50704140C3F0C99
:102F80009946030C7E435D43674363437F19340CCA
:102F9000E4199C46A54203D980235B029846C444A9
:102FA0004B4643435143250C36046544360C2404F8
:102FB000A4195B19591820000CBC90469946F0BD25
:102FC000F0B54F464646D646C0B5040082B00D0067
:102FD000914698468B422FD82CD04146484600F067
:102FE000B1F829000600200000F0ACF8331A9C4626
:102FF000203B9A4600D576E04B46524693401F0050
:103000004B46624693401E00AF4228D825D0534617
:10301000A41BBD41002B00DA7BE0002200230092BC
:10302000019301235246934001930123624693404A
:10303000009318E08242D0D900220023009201932D
:103040000A9B002B01D01C605D600098019902B0C2
:103050001CBC90469946A246F0BDA342D7D9002297
:103060000023009201936346002BE9D0FB079846AA
:10307000414672080A437B0866460EE0AB4201D126
:10308000A2420CD8A41A9D41012024196D410021AF
:10309000013E24184D41002E06D0AB42EED9013E30
:1030A00024196D41002EF8D100980199534600195A
:1030B0006941002B23DB2B005246D3402A00644693
:1030C000E2401C0053461500002B2DDB260057461E
:1030D000BE40330026006746BE403200801A994148
:1030E00000900191ACE7624620239B1A4A46DA40E1
:1030F0006146130042468A4017001F4380E762463C
:1031000020239B1A2A0066469A402300F34013436B
:10311000D4E76246202300219B1A002200910192ED
:103120000122DA40019280E72023624626009B1AA2
:10313000DE402F00B0466646B74046463B0033436C
:10314000C8E7C04610B5002903D100F007F82030C9
:1031500002E0081C00F002F810BDC0461C2101234B
:103160001B04984201D3000C10391B0A984201D36A
:10317000000A08391B09984201D30009043902A248
:10318000105C40187047C0460403020201010101AF
:1031900000000000000000000FB4F0B55746DE4606
:1031A0004E464546E0B595B01EAE08CE00249A4680
:1031B000002357469B4607960B933B78002B12D073
:1031C0007A1C9046252B20D00BAD621C2C190B923B
:1031D00023711F2A24D8012347469C463B78E344A9
:1031E0001400002BECD1002C04D021000CA81DF001
:1031F0000BFD8344584615B03CBC90469946A24608
:10320000AB46F0BC08BC04B018477B78253BDBB26A
:10321000532B01D900F09EFC854A9B00D3589F4652
:10322000002320210CA80B931DF0EEFC0B9AD2E793
:103230000023804A0BAD984691462A004546B04689
:1032400016003033621C3419326023711F2A0BD8E8
:103250004B4601355B5D002B12D01400621C341903
:10326000326023711F2AF3D9002320210CA8336078
:103270001DF0CAFC4B4601355B5D3268002BECD17A
:1032800033004646A8461D00331D019308AB924605
:1032900000210C22180034689946FDF706FA0F2326
:1032A0001A00494664482240825CC3440A70039273
:1032B0005246984621090132002901D100F0D7FD7C
:1032C0004E461940415C7170260A01D100F010FE93
:1032D0001E404B46865D9E70230B01D100F031FEEF
:1032E0001900434619404B46415CD970230C01D16B
:1032F00000F04BFE1E0043461E404B46865D1E718D
:10330000230D01D100F04AFE1900434619404B46F7
:10331000415C5971230E01D100F076FE46461E40F5
:103320004B46865D240F9E7101D100F090FE015D39
:10333000D97106230293023398465346EB182A604C
:1033400019711F2A01D900F06BFD541CAA182C60BA
:1033500016711F2C01D900F0A6FC029B002B01D195
:1033600000F05CFC4346DE1E4B469A5D631C2C1944
:103370002B6022711F2B01D900F014FD002E01D10A
:1033800000F078FC4246161F4A46925D5C1CEB1822
:103390002C601A711F2C01D900F02FFD002E01D1D5
:1033A00000F092FC43465E1F4B469A5D631C2C194D
:1033B0002B6022711F2B01D900F071FD002E01D16D
:1033C00000F00AFD4246961F4A46925D5C1CEB18CF
:1033D0002C601A711F2C06D9002320210CA82B6009
:1033E0001DF012FC2C68002E01D100F017FD46469E
:1033F0004B46073E9A5D631C2C192B6022711F2BD4
:1034000001D900F077FC002E01D100F05AFD039A9B
:103410005C1CEB182C601A7108261F2C00D80FE2D8
:10342000002320210CA82B601DF0EEFB2C6807E286
:10343000144100108442001064420010331D0293B6
:1034400008AB180036680C2200219946FDF72DF9CB
:10345000631C9A46002E00DAA6E30023B04601263C
:1034600003930BAD0A214046FFF770FC4A4630310A
:10347000CBB213700A2140460593FFF7E1FB002809
:1034800001D100F0E9FC0A21FFF760FC4B46303126
:10349000CEB25E7064214046FFF7D2FB002801D116
:1034A00000F017FD0A21FFF751FC3031CBB24A463C
:1034B000FA219370890040460193FFF7C1FB002871
:1034C00001D100F02DFD0A21FFF740FC4B463031C1
:1034D000CEB2DE70E4494046FFF7B2FB002801D1CE
:1034E00000F049FD0A21FFF731FC4A463031CBB2EA
:1034F0001371DE4940460193FFF7A2FB002801D17A
:1035000000F055FD0A21FFF721FC4B463031CEB2C9
:103510005E71D7494046FFF793FB002801D100F0C8
:103520005BFD0A21FFF712FC4A463031CBB29371A2
:10353000D04940460193FFF783FB002801D100F0FA
:1035400075FD0A21FFF702FC4B463031CEB2DE7129
:10355000C9494046FFF774FB002801D100F091FDF6
:103560000A21FFF7F3FB4A463031CBB21372C3494D
:1035700040460193FFF764FB002801D100F0A0FD55
:103580004B463030C6B25E7208230493023398462D
:1035900053462C192B6026711F2B01D900F052FCC9
:1035A0005346019A5C1CEB182C601A711F2C00D931
:1035B00071E3049B002B01D100F0CCFC4346DE1EDE
:1035C0004B469A5D631C2C192B6022711F2B00D96E
:1035D000F1E3002E01D100F0C9FC4246161F4A4615
:1035E000925D5C1CEB182C601A711F2C01D900F045
:1035F000FBFB002E01D100F0E3FC43465E1F4B466F
:103600009A5D631C2C192B6022711F2B01D900F0CD
:103610004FFC002E01D100F0FDFC4246961F4A46A9
:10362000925D5C1CEB182C601A711F2C06D90023CC
:1036300020210CA82B601DF0E7FA2C68002E01D188
:1036400000F0EDFC4346DE1F4B469A5D631C2C19CF
:103650002B6022711F2B00D955E3002E01D100F001
:1036600016FD46464A46083E925D5C1CEB182C60EF
:103670001A711F2C00D966E3002E01D100F029FD3C
:1036800046464B46093E9A5D631C2C192B602271FD
:103690001F2B00D95FE3002E00D16CE3059A5C1C60
:1036A000EB182C601A711F2C01D900F09BFC039EB3
:1036B0000A36B3440237029E7FE5331D32780BADE4
:1036C0009846631C2C190B9322711F2B00D97DE2A5
:1036D000012294461C00E344464602376DE5331D43
:1036E000019308AB00210C22180035689946FCF7BD
:1036F000DCFF63490F231A002A408A5C98469246F1
:103700004A46504610702809621C002800D19FE2EA
:103710004E461840085C70702E0A00D1ADE21E4083
:103720004B468E5D9E702B0B00D12BE31800434659
:1037300018404B46085CD8702B0C00D14FE31E009C
:1037400043461E404B468E5D1E712B0D00D1BDE2DF
:103750001800434618404B46085C58712B0E00D1A8
:10376000B2E346461E404B468E5D2D0F9E7100D142
:10377000CEE3485DD87106230293023398460BAD21
:103780002C190B9220711F2A00D959E2541CAA1837
:103790002C6016711F2C00D928E2029B002B00D14F
:1037A0003CE24346DE1E4B469A5D631C2C192B609F
:1037B00022711F2B00D921E2002E00D15AE242468D
:1037C000161F4A46925D5C1CEB182C601A711F2C68
:1037D00000D91BE2002E00D176E243465E1F4B4625
:1037E0009A5D631C2C192B6022711F2B00D939E2C2
:1037F000002E00D1F0E24246961F4A46925D5C1CC4
:10380000EB182C601A711F2C00D93CE2002E00D15D
:1038100004E346464B46073E9A5D631C2C192B6019
:1038200022711F2B00D9B5E2002E00D149E3524688
:103830005C1CEB182C601A7108261F2C00D9EFE5D0
:10384000B3440237019EB8E425220BAD631C2C194A
:103850000B9322711F2B00D9C0E1012294461C005A
:10386000E3440237A9E4C04610270000A086010007
:1038700040420F008096980000E1F50500CA9A3B8F
:1038800074420010331D019308AB00210C22180074
:1038900035689946FCF709FFE1492BE7331D029390
:1038A00008AB994635680C2218000021FCF7FDFE94
:1038B0000A212800FFF74AFA4A463031CBB213708A
:1038C0000A2128000493FFF7BBF9631C9A460028DD
:1038D00000D103E20A21FFF739FA4B463031CEB26C
:1038E0005E7064212800FFF7ABF9002800D1F8E2F0
:1038F0000A21FFF72BFA3031CBB29846FA214B461A
:10390000424689009A702800FFF79AF9002800D1F2
:103910000FE30A21FFF71AFA4B463031CEB2DE70C0
:10392000C0492800FFF78CF9002800D119E30A21CB
:10393000FFF70CFA3031CBB298464B464246BA49B3
:103940001A712800FFF77CF9002800D13CE30A2116
:10395000FFF7FCF94B463031CEB25E71B349280017
:10396000FFF76EF9002800D149E30A21FFF7EEF9CD
:103970003031CBB298464B464246AD499A71280049
:10398000FFF75EF9002800D159E30A21FFF7DEF9BD
:103990004B463031CEB2DE71A6492800FFF750F910
:1039A000002800D178E30A21FFF7D0F93031CBB2FB
:1039B00098464B464246A0491A722800FFF740F944
:1039C000002800D171E34B463030C6B25E72082346
:1039D00003930233019353460BAD2C190B932671BD
:1039E0001F2B00D925E2534642465C1CEB182C6085
:1039F0001A711F2C00D95FE1039B002B00D1ADE2AF
:103A0000019BDE1E4B469A5D631C2C192B602271B4
:103A10001F2B00D9D8E1002E00D1B2E2019A5C1C24
:103A2000161F4A46925DEB182C601A711F2C00D9A4
:103A3000ECE1002E00D1AEE2019B5E1F4B469A5D89
:103A4000631C2C192B6022711F2B00D91FE2002E42
:103A500000D1D0E2019A5C1C961F4A46925DEB1899
:103A60002C601A711F2C06D9002320210CA82B6072
:103A70001DF0CAF82C68002E00D1D4E2019BDE1F95
:103A80004B469A5D631C2C192B6022711F2B00D9A9
:103A900041E1002E00D104E34A46019E5C1C083E31
:103AA000925DEB182C601A711F2C00D943E1002E97
:103AB00000D102E34B46019E093E9A5D631C2C191E
:103AC0002B6022711F2B00D94DE1002E00D156E151
:103AD000049A5C1CEB182C601A710A261F2C00D863
:103AE000E7E5002320210CA82B601DF08DF82C6841
:103AF000DFE5331D994633681A789846002A25D0A9
:103B000000239A463B000BAD47469846631C2C1990
:103B100000262B6022711F2B0AD80136BA5D002ABD
:103B200011D01C00631C2C192B6022711F2BF4D99F
:103B3000534620210CA801362B601DF065F8BA5DB4
:103B40002B68002AEDD147461C00B3444E4602378D
:103B5000FFF733FB394B5B22994600230BAD9A46A6
:103B6000631C2C1900272B6022711F2B0BD84A468F
:103B70000137D25D002A12D01C00631C2C192B6067
:103B800022711F2BF3D9534620210CA82B601DF066
:103B90003BF84A460137D25D2B68002AECD1BB4482
:103BA0001C004746FFF709FB0B932D230BAD2C1987
:103BB000237153461F2B00D9A1E17342984601237C
:103BC0009C4654460226E24403934BE40023202102
:103BD0000CA80B931DF018F80B9B79E5002320210E
:103BE0000CA80B931DF010F80B9B36E60023202148
:103BF0000CA82B601DF008F82C68CEE500232021CE
:103C00000CA82B601DF000F82B68D5E500232021BF
:103C10000CA82B601CF0F8FF2C68DBE502260FE6F1
:103C20006442001010270000A086010040420F00EF
:103C30008096980000E1F50500CA9A3B8842001082
:103C4000002320210CA80B931CF0DEFF0B9A9DE5AE
:103C500053460BAD2C190B9223711F2A63D8140005
:103C60000126EDE5002320210CA82B601CF0CCFFE1
:103C70002B68BDE51C000326E2E500230293023316
:103C8000564698467BE5002320210CA82B601CF0AB
:103C9000BBFF2C68BAE5002320210CA82B601CF088
:103CA000B3FF2C6885E4002320210CA82B601CF0B6
:103CB000ABFF2C68FFF751FB002320210CA82B60E1
:103CC0001CF0A2FF2C6897E60426B9E5030030003B
:103CD0001E00032302930233984650E50BAD0B936D
:103CE000049B2C19237153461F2B00D9C0E1544665
:103CF0000126DEE4002320210CA82B601CF084FFA9
:103D00002B68FFF780FB002320210CA82B601CF000
:103D10007BFF2B68A1E4002320210CA82B601CF062
:103D200073FF2B68B5E60B9020210CA81CF06CFFEC
:103D300001260B9C84E5002320210CA82B601CF09D
:103D400063FF2C68B3E6002320210CA82B601CF035
:103D50005BFF2C6890E4002320210CA82B601CF052
:103D600053FF2B6897E4002320210CA82B601CF044
:103D70004BFF2B68A9E6039E1C00093699E41C0042
:103D8000092696E4030030001E000123029302334B
:103D90009846F4E4002320210CA82B601CF034FF8B
:103DA0002B6841E5002320210CA82B601CF02CFF80
:103DB0002B68FFF7E3FA002320210CA82B601CF0EE
:103DC00023FF2B68FFF705FC002320210CA82B60A4
:103DD0001CF01AFF2B681EE61C00052630E50223A6
:103DE000029302339846CAE4002320210CA82B60DA
:103DF0001CF00AFF2C68FFF7FCFB002320210CA815
:103E00002B601CF001FF2C68FFF7C8FA002320216B
:103E10000CA82B601CF0F8FE2C680AE606260FE5BD
:103E2000002320210CA82B601CF0EEFE2A68FFF76F
:103E30008CFA002320210CA80B931CF0E5FE0B9BB1
:103E40009A46D0E5002320210CA82B601CF0DCFE54
:103E50002B689A46FFF7A4FB53462B60059B2C1951
:103E6000237153461F2B00D9FAE0544621E45346F0
:103E70000398EB182A6018711F2A00D8EFE6296012
:103E80000CA820211CF0C0FE01262C68D8E40023D9
:103E900020210CA82B601CF0B7FE2B68D7E500236F
:103EA00020210CA82B601CF0AFFE2B68FFF786FAD0
:103EB000002320210CA82B601CF0A6FE2B68FFF726
:103EC000A8FB1C000726BBE4042302930233984698
:103ED00055E4059B01930023049302339846FFF7B2
:103EE00057FB049B9846002303930233019372E52A
:103EF000002302930233039E9846FFF71EFA002325
:103F000020210CA80B931CF07FFE0B9B9A4654E6D5
:103F1000030030001E0005230293023398462EE46E
:103F20003300019E01930123049302339846FFF767
:103F30002FFB330046469846012303930233019337
:103F400049E50B0031001E0001230293023398461D
:103F5000FFF7F3F9039E0236FFF7ABFB0226FFF7EC
:103F6000A8FB022303930233019334E5039E1C0054
:103F70000336FFF79EFB0223049302339846FFF7B4
:103F800007FB1C000326FFF794FB02230293023376
:103F90009846FFF7D2F90426FFF78BFB0B003100A0
:103FA0001E000323029302339846FFF7C6F933003D
:103FB000019E01930323049302339846FFF7E8FA26
:103FC000039E0436FFF775FB3300464698460323ED
:103FD000039302330193FEE40423049302339846CF
:103FE000FFF7D6FA002320210CA82B601CF00CFE52
:103FF0002C68FFF75CFB1C000526FFF75AFB042327
:10400000039302330193E6E40423029302339846B8
:10401000FFF793F9039E1C000536FFF74AFB039E4A
:104020000636FFF746FB0626FFF743FB3300019EEB
:1040300001930523049302339846FFF7A9FA33004E
:10404000464698460523039302330193C3E40B00CD
:1040500031001E000523029302339846FFF76DF9E5
:10406000286020210CA81CF0CFFD2C68FFF721FB55
:104070000B9020210CA81CF0C7FD01260B9CFFF71C
:1040800018FB0623049302339846FFF781FA039E38
:104090001C000736FFF70DFB062303930233019341
:1040A00099E41C000726FFF704FB330046469846B8
:1040B00007230393023301938DE40826FFF7F9FAEF
:1040C0003300019E01930723049302339846FFF7C0
:1040D0005FFA039E0836FFF7ECFAC04611DF70471F
:1040E00010DF704700B585B00293079B01910393E1
:1040F00001A9069BFFF7F2FF05B000BD12DF704774
:104100000BDF704713DF704715DF704717DF70470D
:1041100018DF704748380010543B0010543B001023
:10412000543B0010543B0010543B0010543B001013
:10413000543B0010543B0010543B0010543B001003
:10414000543B0010543B0010543B0010543B0010F3
:10415000543B0010543B0010543B0010543B0010E3
:10416000543B0010543B0010543B0010543B0010D3
:10417000543B0010543B0010543B0010543B0010C3
:10418000543B0010543B0010543B0010543B0010B3
:10419000543B0010543B0010543B0010543B0010A3
:1041A000543B0010543B0010543B0010543B001093
:1041B000543B0010543B0010543B0010543B001083
:1041C000543B0010543B0010543B0010543B001073
:1041D000543B0010543B0010543B0010543B001063
:1041E000DE360010543B0010543B0010543B0010CE
:1041F000543B0010543B0010543B0010543B001043
:10420000543B0010543B0010543B0010BA360010D1
:104210003C340010543B0010543B0010543B001041
:10422000543B00103C340010543B0010543B001031
:10423000543B0010543B0010543B0010543B001002
:1042400030320010543B0010543B0010F23A001082
:10425000543B00109C380010543B0010543B00109D
:1042600084380010303132333435363738396162B2
:10427000636465663031323334353637383941421C
:1042800043444546307800005B556E737570706F1F
:1042900072746564205461675D00000000000000D6
:1042A000F0B5CE46474680B58DB000F00DF9002838
:1042B00025D106AB81279846734C08AE7F428021FA
:1042C000012009064042FFF71BFF0300C20676D417
:1042D000820645D4420614D4020600D59BE0802015
:1042E000400003420CD02100FFF70CFF2568AB1CF7
:1042F00000DAC5E0002D00DBB1E00021A6E0FEE71A
:10430000FEE721004020FFF7FDFE21688B1C00DA4C
:10431000A4E00029F1DB00D0A0E023696068082B4D
:1043200000D0AFE0226A0C2A00D0ABE04246FFF793
:10433000EBFE2369984200D0A4E0069A079B009602
:10434000A06800F02BF9051E05D1236A3200002178
:104350006068FFF7DBFE29006068FFF7D9FEAEE773
:1043600021002020FFF7CEFE21688B1C00DA88E0B8
:104370000029C2DB00D084E023696068082B69D182
:104380006269042A66D13200FFF7BEFE23699842B3
:1043900060D1636905AA01216068FFF7B5FE636912
:1043A000984257D143460293236A0193059B009399
:1043B000A068089A099B00F0C5F8010046E02100BA
:1043C0001020FFF79FFE21688B1C46DB002994DB41
:1043D00043D12369A5686068082B3BD1A269042AF0
:1043E00038D13200FFF790FE2369984232D1A36999
:1043F000424602216068FFF787FEA369984229D1EF
:10440000069B2800019363690093089A099B00F0BA
:1044100069F801001AE021008020FFF773FE21688F
:104420008B1C19DB002900DA67E715D12369606866
:10443000082B0FD13200FFF767FE2369984209D19C
:10444000089A099BA06800F0CDF801006068FFF7AA
:104450005FFE34E73900F9E7FEE7FEE7FEE7002DEF
:104460000ED1236A9946042BF4D100F0E1F829001B
:1044700008904B4632006068FFF748FE2900E5E7E8
:10448000FEE7FEE73D0066E700900008074B10B529
:1044900002000C0058680B000121FFF735FE201ABE
:1044A000441EA04180234042984310BD0090000864
:1044B00010B50B000349020048680021FFF726FEF3
:1044C00010BDC0460090000810B500F0B3F80028F9
:1044D00000D110BD00F0E8F90028FAD100F0AAF8E8
:1044E000F7E7C04630B51D00130083B014002B431E
:1044F0001FD00723079A9A431ED10123104A5B421B
:1045000012196B41002B09D0069B0200009320007A
:10451000079B290000F0CEF803B030BDFF2AF3D886
:10452000079B22000193069B00932B001FF096FE31
:10453000F2E787204042EFE786204042ECE7C046A2
:1045400000FFFFFF30B51D00130085B014002B43A2
:104550001FD00123104A5B4212196B41002B0BD074
:104560000A9B02000193099B200000932900089BED
:1045700000F06EF805B030BDFF2AF1D80A9B22008A
:104580000293099B0193089B00932B001FF06AFE86
:10459000F0E787204042EDE700FFFFFF30B51D0048
:1045A000130083B014002B4317D001230C4A5B4245
:1045B00012196B41002B07D00200069B2000290036
:1045C00000F00CF903B030BDFF2AF5D8069B22009D
:1045D00000932B001FF074FEF4E787204042F1E7C0
:1045E00000FFFFFF70B51D00130014002B4316D011
:1045F00001230E4A5B4212196B41002B08D00200C6
:104600002900200000F012F9030095330AD070BD94
:10461000FF2AF4D822002B001FF070FEF7E7872056
:104620004042F4E784204042F1E7C04600FFFFFF2C
:104630000020704710B5044C200000F001FA034B35
:10464000283C5C6010BDC0466090000830900008B7
:10465000F8B5144D1E002B0000F064FC041E01D0C0
:104660002000F8BD104F2868390000F007FF041E35
:1046700004D1FD69B54207D2872464420B4A002168
:104680003800FCF712F8EBE7069BAD1B9D4207D8FC
:10469000074829003018FFF70BFF079B1D60EDE767
:1046A0001D00F5E730900008389000082808000049
:1046B00060900008F0B557464E46DE4645469A469D
:1046C0008023E0B583B091460C9A06000F001B01D1
:1046D0009A4267D83D4B4A46984600F023FC041E98
:1046E00010D003003A4D8C334BD03A4A00212800B9
:1046F000FBF7DBFF200003B03CBC90469946A24686
:10470000AB46F0BD4346324D1868290000F0B6FEB6
:10471000041EEAD16B6ADB0741D453466B620C9BE3
:104720002B6243461B68019301239B462A4B0C993D
:1047300018009A46FFF7AAFE041ED6D128235B4232
:104740009C46E24453460C9A41465846DA6100F0D2
:1047500041FA041EC9D143465146186800F0D0FE04
:10476000041EC2D143464A463000390000F0C0FA68
:10477000041E24D1019B002B17D100F04DFD040035
:10478000B3E7144A00212800FBF78FFF0C9B2B6234
:1047900053466B6202239B4600230193C6E78524A0
:1047A0006442A2E787246442A4E700F035FD041EBA
:1047B0009BD101980021FDF719F8040095E74346C5
:1047C00000211868FDF712F88FE7C0463090000806
:1047D000389000082808000060900008F8B5104DD7
:1047E0001F002B0000F09EFB041E01D02000F8BD2E
:1047F0000C4E2868310000F041FE041E05D00A4A24
:1048000000213000FBF751FFF0E7F369064A7B60B7
:10481000736A0021BB603000FBF747FFE6E7C04644
:10482000309000083890000828080000F8B5474686
:10483000CE461A4D80B52B0006000F00904600F0C2
:1048400071FB041E04D020000CBC90469946F8BDB4
:10485000134B28681900994600F010FE041E05D17C
:104860004B465B6ADB0707D5852464420D4A00216D
:104870004846FBF71AFFE6E742463000390000F0F1
:10488000FFFB041EF2D12D6800F0C6FC041EEDD122
:1048900028000021FCF7AAFF0400E7E73090000899
:1048A000389000082808000010B500F0B3F810BDDB
:1048B000F0B583005E58DBB0B227CA686B460C00C7
:1048C00031007F00DA511C313A0005006846FBF7E1
:1048D000D0FEB42269465200300000F0ABFD002843
:1048E00004D10223641923725BB0F0BD2369002B4D
:1048F00003D1641901332372F6E76A46D351B42217
:1049000069465200300000F095FD431E9841012396
:1049100040429843033064192072E5E7F0B5C6467B
:10492000002300B50020DEB0039300F049FE041E12
:1049300004D020005EB004BC9046F0BD03A9002066
:1049400000F032FE041EF4D100F072FC041EF0D11F
:104950002F4D039C280000F0C9FC10216B46B222A9
:104960005B18290052001C3118009C50FBF781FE97
:10497000B42204A95200280000F038FD041E40D1E2
:1049800000F09CFC041ED4D18223C026FF33EF5CD0
:104990007600781C00949846C1172B003200FCF773
:1049A0009BFE041EC5D14246AB5D04A904900120C4
:1049B000AB54AF55039D00F0F7FD002824D1049BB4
:1049C0009D4209D9012000F0FBFD041EB1D1049BDA
:1049D000013304939D42F5D804A9022000F0E4FDC0
:1049E000002811D1049B9D4209D9022000F0E8FD66
:1049F000041E9ED1049B013304939D42F5D80024EC
:104A000097E700F05BFC94E78424644291E7C0469A
:104A10006098000810B500F0BDFD00280DD1C4223B
:104A2000064C520000212000FBF73FFE0123C0226C
:104A300023775200A354FFF771FF10BD6098000860
:104A40000023F0B589B003AC614E23726372E3605A
:104A5000236102AF81336060FF330197009600222B
:104A6000012000210396FCF763FE002801D00123FA
:104A700023720197636800220093C02302205B0029
:104A80000021FCF755FE002801D00123637200F0DD
:104A9000CFFB051E02D0280009B0F0BD00F07AFD62
:104AA000051E0BD106A9002000F07EFD051E05D1D4
:104AB0003900012000F078FD051E02D000F0FEFB59
:104AC000E9E707A9022000F06FFD051EF6D1236972
:104AD000029A934200D02061237A012B03D0210057
:104AE0000020FFF7E5FE637A012B03D021000120AF
:104AF000FFF7DEFE00F0E2FB051ECCD1039B1B7F1F
:104B0000012B01D00123237261680B7F012B01D09F
:104B10000123637202232289FF339A4255D0237AFC
:104B2000012B4FD0637A012B3FD0022B40D0C02302
:104B30005B008022022000215200F252FCF756FE58
:104B4000051E02D003008C33A5D1002339000120BB
:104B5000E468029300F028FD002836D1029B9C42B5
:104B60000AD9012000F02CFD051E00D093E7029B1E
:104B7000013302939C42F4D83900022000F014FD66
:104B8000002822D1029B9C420AD9022000F018FD85
:104B9000051E00D07FE7029B013302939C42F4D8AC
:104BA000300000F099FB002575E78033FF33C0E744
:104BB000C02201235200B3523000FBF75AFD0120FE
:104BC0000021BBE7C0225200F5E784256D4262E771
:104BD0006098000870B50D00002800D183E0434BB9
:104BE0001A6B596B0A4302D1013800285AD01A6D4A
:104BF000596D0A4303D10138002800D163E01A6FD0
:104C0000596F0A4302D1013800285ED01900903153
:104C10000A6849680A4302D10138002857D01900B0
:104C2000B0310A6849680A4302D10138002850D0DF
:104C30001900D0310A6849680A4302D101380028B6
:104C400049D01900F0310A6849680A4302D1013895
:104C5000002842D019001131FF310A6849680A431F
:104C600002D1013800283AD019003131FF310A68E9
:104C700049680A4302D10138002832D01900513165
:104C8000FF310A6849680A4308D07133FF331A6854
:104C90005B681A4313D08E20404270BD0138002853
:104CA000F3D10920C41C20000021FCF79FFD00283F
:104CB00002D003008C33F0D12C600020EDE70128F6
:104CC000E9D10930EEE70120ECE70220EAE7032012
:104CD000E8E70420E6E70520E4E70620E2E707200E
:104CE000E0E70820DEE787204042D6E7609800082A
:104CF000F0B5DE4657464E464546E0B5884C1F00A7
:104D0000236B89B005008B461600834257D0236D74
:104D1000AB4200D194E0236FAB4200D19AE0230074
:104D200090331A68AA4200D19EE02300B0331A687B
:104D3000AA4200D1A3E02300D0331A68AA4200D1CE
:104D4000A8E02300F0331A68AA4200D1ADE02300A6
:104D50001133FF331A68AA4200D1B1E02300313386
:104D6000FF331A68AA4200D1B6E023005133FF3363
:104D70001A68AA4200D1BBE023007133FF331A68DE
:104D8000AA4200D1C0E059463A68D31E023A520105
:104D90005B01E318A4181D6359639E6379681022B0
:104DA0002000FBF766FCFFF7B9FD051E42D1280085
:104DB00009B03CBC90469946A246AB46F0BD636B39
:104DC0008B42A4D1A36B9A42A1D1002301335B0192
:104DD0009846A044202241466846FBF74AFC4346D9
:104DE0001B6920229A4643465B690021404699464A
:104DF000FBF75BFC59463A68D31E023A52015B014D
:104E0000E318A4181D6359639E637968102220007B
:104E1000FBF72FFCFFF782FD051EC8D053464A461C
:104E2000134307D053460592694620224046049317
:104E3000FBF71FFC202200212000FBF736FCB6E721
:104E4000636D5B4500D066E7A36D9E4200D062E7CC
:104E50000123BBE7636F5B4500D060E7A36F9E4211
:104E600000D05CE70223B1E75B685B4500D05CE7FC
:104E70009823E3589E4200D057E70323A6E75B68D8
:104E80005B4500D057E7B823E3589E4200D052E775
:104E900004239BE75B685B4500D052E7D823E358C7
:104EA0009E4200D04DE7052390E75B685B4500D04C
:104EB0004DE7F823E3589E4200D048E7062385E7F4
:104EC0005B685B4500D049E78C235B00E3589E425A
:104ED00000D043E7072379E75B685B4500D044E7F0
:104EE0009C235B00E3589E4200D03EE708236DE719
:104EF0005B685B4500D03FE7AC235B00E3589E4214
:104F000000D039E7092361E75B685B4500D03AE7E9
:104F1000BC235B00E3589E4200D034E70A2355E7E8
:104F20006098000870B5554C256B854234D0256DCE
:104F3000854243D0256F854248D0250090352E68A4
:104F400086424BD02500B0352E6886424FD02500D2
:104F5000D0352E68864253D02500F0352E68864223
:104F600057D025001135FF352E6886425AD02500CE
:104F70003135FF352E6886425ED025005135FF352C
:104F80002E68864262D025007135FF352E68864234
:104F900067D08C20404270BD656B8D42C7D1A56B38
:104FA000AA42C4D10021CA1C013149011A605868C3
:104FB00061181022FBF75DFB0020ECE7656D8D4268
:104FC000B8D1A56DAA42B5D10121ECE7656F8D423C
:104FD000B3D1A56FAA42B0D10221E4E76D688D423A
:104FE000B0D198256559AA42ACD10321DBE76D68A1
:104FF0008D42ACD1B8256559AA42A8D10421D2E787
:105000006D688D42A8D1D8256559AA42A4D1052141
:10501000C9E76D688D42A4D1F8256559AA42A0D18F
:105020000621C0E76D688D42A1D18C256D006559C0
:10503000AA429CD10721B6E76D688D429DD19C257F
:105040006D006559AA4298D10821ACE76D688D4280
:1050500099D1AC256D006559AA4200D093E709218A
:10506000A1E76868884200D093E7BC2149006158F5
:105070008A4200D08DE70A2195E7C0466098000873
:1050800030B5644B89B01C6B84423BD01C6D8442AC
:1050900056D01C6F84425BD01C009034256885423A
:1050A0005ED01C00B0342568854262D01C00D0342C
:1050B0002568854267D01C00F0342568854200D100
:1050C0006CE01C001134FF342568854200D170E08B
:1050D0001C003134FF342568854200D175E01C0086
:1050E0005134FF342568854200D17AE01C007134C8
:1050F000FF342568854200D17FE08C256D42280071
:1051000009B030BD5C6B8C42C0D19C6BA242BDD15A
:105110000024013464011C19202221006846FBF799
:10512000A8FA202200212000FBF7BFFAFFF7F6FBC8
:10513000051EE4D0202269462000FBF79AFADEE73C
:105140005C6D8C42A5D19C6DA242A2D10124E0E706
:105150005C6F8C42A0D19C6FA2429DD10224D8E703
:1051600064688C429DD198241C59A24299D1032491
:10517000CFE764688C4299D1B8241C59A24200D070
:1051800094E70424C5E764688C4200D093E7D824F0
:105190001C59A24200D08EE70524BAE764688C420D
:1051A00000D08EE7F8241C59A24200D089E70624DB
:1051B000AFE764688C4200D08AE78C2464001C59F5
:1051C000A24200D084E70724A3E764688C4200D0A1
:1051D00085E79C2464001C59A24200D07FE7082484
:1051E00097E764688C4200D080E7AC2464001C59C7
:1051F000A24200D07AE709248BE76068884200D099
:105200007BE7BC21490059580A248A4200D074E740
:105210007FE7C04660980008822310B5034AFF3339
:10522000D05C0130C117FCF7E1FA10BD60980008AE
:1052300030B58BB00021202202A8FBF736FA0023FC
:105240000093C0239B000493164B01AC0593164BAF
:1052500016490193802368462383FDF703FC002849
:1052600001D00BB030BD0C23114A12496846FDF73E
:1052700051FC00280FD1104D69462A002000FDF78F
:105280007DFC002807D16846FDF7C4FA0028E8D065
:105290002888FCF759FB6846FDF7BCFA8420404299
:1052A000DFE7C0460210400601000040000F00B0DA
:1052B000D455001001020000F4990008054B10B508
:1052C0001888FCF741FB002800D110BD8420404223
:1052D000FBE7C046F4990008010010B510310C221C
:1052E0000148FBF7C6F910BDE8990008F0B583B096
:1052F0006C460E4923000A0060CA60C30122009E6A
:10530000019F002392197B41009201931A4353425B
:105310005A410B008D681030AD1844CC44C38D60E9
:105320000C22FBF7A6F903B0F0BDC046E8990008CF
:10533000F0B51500020089B0109F06001148119CBD
:10534000008805970F9F029304970E9F0195009187
:105350001032069403970C230B49FCF793FF051EAC
:105360000CD10F9B21689C461039216010226144AA
:105370003000FBF77EF9280009B0F0BD84256D42AE
:10538000F9E7C046F499000802104006F0B5C64699
:105390000400904600B588B00E9D0F0058191022E9
:1053A00021001E00FBF765F90E4B22001888119BA7
:1053B00010350693109B103205930F9B03950493B1
:1053C00043460296019300970C230749FCF7AEFF72
:1053D000002803D108B004BC9046F0BD952040429F
:1053E000F8E7C046F499000802104006030030B503
:1053F00014008BB002000D4809AD00880695049397
:105400001025002300910393029310320595019417
:105410000C330749FCF736FF002804D1099B102BF9
:1054200001D10BB030BD84204042FAE7F499000866
:105430000210400630B503008BB0150002000D4885
:1054400009AC008806940024059404941034029357
:1054500000911032039401950C230749FCF766FF75
:10546000002804D1099B002B01D10BB030BD952041
:105470004042FAE7F499000802104006F0B589B0FE
:1054800005AB01930B0010330D0000930022194B64
:1054900000210400FCF74CF9002801D009B0F0BD50
:1054A000059E0694FFF7C4FE0028F7D134002F00B4
:1054B000114E0C3C1C37220039003000FBF7D9F8A4
:1054C00007AB03930D4B0197029300943300042222
:1054D00006A92800FFF75AFF002805D1079B9C4228
:1054E00002D1FFF7EBFED9E7FFF7E8FE8420404248
:1054F000D4E7C04628080000F89900080C0800000E
:10550000F0B5CE46474680B587B006000C00CD69A1
:105510000490FFF78DFE002804D007B00CBC904625
:105520009946F0BD1C232F0098462000FFF7DEFEB1
:1055300005AB0393154B0C370293154BA0449946CA
:10554000019300974346042204A92000FFF7F0FED0
:10555000002815D1059B9F4212D13A00494640468A
:10556000FBF787F8FFF7AAFE0028D6D123002A0010
:1055700000901033183230000021FCF7ADF8CCE772
:10558000FFF79CFE84204042C7E7C0461C0800008D
:10559000F899000810B51EF0E5FF431E98418323DB
:1055A0004042984310BDC04610B50A0004211FF0C8
:1055B0001DF8431E984183234042984310BDC046C6
:1055C00010B51FF065F8431E98418323404298436D
:1055D00010BDC04673746F726167655F6B6579005B
:1055E000F0B5CE46474680B58DB000F0E9F800280A
:1055F00022D106AB81269846644C08AD76428021C4
:10560000012009064042FEF77BFDC30616D483063F
:105610006FD4430642D403060FD521008020FEF745
:1056200071FD0028EBD121688B1C00DA94E0002981
:1056300000DB95E000218BE0FEE7FEE72100102073
:10564000FEF760FD0028DAD121688B1C00DA9CE0AF
:105650000029EFDB00D098E023696068082B00D0B8
:105660007BE0A769042F78D1626991462A00FEF792
:105670004BFD082871D13B00424602216068FEF7CD
:1056800043FD042869D1069B01934B460093A06813
:10569000089A099B00F0C6F8010059E0210040205B
:1056A000FEF730FD0028AAD121688B1C6CDB002995
:1056B000C0DB69D123696068082B63D1226A0C2A98
:1056C00060D14246FEF720FD08285BD1069A079B71
:1056D0000095A06800F094F9071E05D101000C2385
:1056E0002A006068FEF712FD39006068FEF710FDC1
:1056F00085E721002020FEF705FD002800D07EE789
:1057000021688B1C2BDB002994DB28D1236960687E
:10571000082B22D16769042F1FD1226A91462A00E3
:10572000FEF7F2FC082818D13B0005AA01216068A9
:10573000FEF7EAFC042810D1434602934B4601933E
:10574000059B0093A068089A099B00F0F5F80100FA
:105750006068FEF7DDFC52E7FEE73100F8E7FEE7A0
:105760000029F9D123696068082BF6D12A00FEF7D9
:10577000CBFC0828F1D1089A099BA06800F06EF9CB
:105780000100E5E73700AFE7FEE7FEE780AA000883
:1057900010B50B000349020048680121FEF7B4FC74
:1057A00010BDC04680AA000810B50B0003490200D6
:1057B00048680021FEF7AAFC10BDC04680AA000878
:1057C00010B5002000F07EF9144C0100200000F01C
:1057D000B9F900280BD0200000F0BAF9002800D059
:1057E00010BD00F06FF90100200000F0ABF90120BE
:1057F00000F068F90A4C0100200000F0A3F900282D
:10580000EED0200000F0A4F90028E9D1013000F02A
:1058100059F90100200000F095F9E1E7B0AC00086B
:10582000C4AC0008F0B5DE4657464E46454611006A
:10583000E0B5194385B0002900D16DE007210F9C28
:105840008C4366D10393374B0292984602AA01C358
:1058500012CA12C380235B00984257D0324B99463C
:10586000324C41462200484600F0E6F9071E42D17C
:10587000A368DB0753D44146484600F06DFA071E83
:105880003CD180230E9E9B009E4200D91E00284BD7
:1058900031009A461800FFF77BFF534601930F9B98
:1058A0000E9A009341463300484600F055F9071E12
:1058B00024D10E9B9C1B03D120E07619641B1DD0C4
:1058C000802325009B009C4200D91D0029005046E2
:1058D000FFF75EFF53462A000093414633004846D7
:1058E00000F0D0F983460028E7D04146484600F052
:1058F00033FA5F4602E003008C33C2D0380005B0B3
:105900003CBC90469946A246AB46F0BD094B994631
:10591000A6E786277F42F1E787277F42EEE78527C4
:105920007F42EBE7D8AC0008B0AC0008E4AC00085C
:10593000B0AA0008C4AC0008F0B54E46DE46574693
:1059400045461100E0B585B00E9E19434AD0039339
:10595000264B0292994602AA01C312CA12C380239F
:105960005B0098423BD0224B9A46224C494622008B
:10597000504600F061F9071E27D12468B44231D3A4
:105980000F9BA41B9C4228D8109B1C601A4B984666
:1059900080239B009B4606E029004046FFF704FF5A
:1059A0007619641B11D025005C4501D98025AD0016
:1059B00043462A00009349463300504600F052FA0D
:1059C000071EE9D00023109A1360380005B03CBCD4
:1059D00090469946A246AB46F0BD1C00D4E7074B63
:1059E0009A46C2E787277F42EFE7C046D8AC000857
:1059F000B0AC0008E4AC0008B0AA0008C4AC0008D1
:105A0000110070B582B0069C19431BD00F49019359
:105A10000B0000926A4601C360CA60C380235B002A
:105A200098420DD00A480B4D2A0000F005F90028D5
:105A300004D12B6823606360AB68A36002B070BDC3
:105A40000548F0E787204042F8E7C046D8AC000898
:105A5000B0AC0008E4AC0008C4AC0008110070B59C
:105A6000194382B0002922D0124C019323000092E6
:105A70006A4601C322CA22C380235B00984211D028
:105A80000D4E0E4D21002A00300000F0D5F8002800
:105A900006D1AB68DB0707D42100300000F05CF9C9
:105AA00002B070BD064EECE785204042F8E7872043
:105AB0004042F5E7D8AC0008B0AC0008E4AC000800
:105AC000C4AC0008014B8000C0587047C06B001088
:105AD000F0B54E464546DE465746E0B5C3B04D9D4F
:105AE00006008B4690469946002D29D080235B0006
:105AF0009A4610E00094434602AA59463000B7681F
:105B0000B847002815D14C9BA0449C46A44463464A
:105B10002D1B4C9314D02C00554501D980246400D2
:105B200000944C9B02AA494630007768B847002889
:105B3000E0D043B03CBC90469946A246AB46F0BD8F
:105B40000020F6E710B5016000F036FB10BDC0463E
:105B500010B500F0BBFD10BDF0B54746CE4680B590
:105B60009946036891B09B8C0400884617009342C5
:105B70005FD304AA00F0A4FA00285AD004AB05AE03
:105B800008AD009302960195189B3A00414620000B
:105B900000F0A0FC002844D14B46002B1FD04A4601
:105BA0000021E86800F084FF00283FD1199B2A00FB
:105BB00001934B46310000932000002300F0FCF9D4
:105BC000002833D14B46296820003768AB6000F0CD
:105BD00071FA2A6830603900200000F0B9FE320006
:105BE0000899200000F0B8FE00281FD12A0004996F
:105BF000200000F045FF002818D10499200000F093
:105C000021FA002812D12B68002B02D14B46002B21
:105C100004D1200000F08CFB002807D1200000F008
:105C200057FB11B00CBC90469946F0BD8420404211
:105C3000F7E787204042F4E770B58CB0150003AA5F
:105C400004000E0000F03CFA002817D1200004AA3E
:105C5000039900F0B5FB041E0DD10C2209A93000F8
:105C6000FAF7F8FC002809D1079B6B60069B0193AB
:105C70002B60089BAB6020000CB070BD8C2464428C
:105C8000F9E7C04670B590B0160004AA04001D00E4
:105C900000F016FA00285BD108AA0499200000F051
:105CA0008FFB002854D105AA0899200000F0D8FBEA
:105CB00000284AD10A9B03939D4246D80B9B320091
:105CC00029001800039300F0F3FE00283DD1149B37
:105CD0000096019308AA2B0005A9200000F06CF99A
:105CE000002832D10A9BAD1903939D4226D808990A
:105CF0002000059D00F0DEF9089A0590290020009B
:105D000000F026FE05AA0899200000F025FE0028D4
:105D10001BD108AA0499200000F0B2FE002814D17B
:105D20000499200000F08EF900280ED1089B002B6A
:105D300006D1200000F0CCFA10B070BD0A95D6E76D
:105D4000200000F0F5FA0028F3D084204042F3E769
:105D50008C204042F0E7C046F0B54646D6464F4656
:105D6000C0B503688EB005AA0500DE8B00F0A8F967
:105D7000002800D070E006AA0599280000F020FB5A
:105D8000002805D00EB01CBC90469946A246F0BD36
:105D90000BA800F099FE00285ED1079B20229846B0
:105DA000099B002106A8069F9946FAF77EFC06AAE1
:105DB0000599280000F064FE0028E3D12B68DB8CF5
:105DC000002B30D00022002492460BE006AA2100CE
:105DD000280000F055FE0028D4D12B68DB8C01345C
:105DE000A34222D9059AA242F9D006AA210028008E
:105DF00000F0E6FA0028C5D1069B0393BB42E5D12B
:105E00000BA800F061FE0028E0D1079B4345DDD9D7
:105E10009E4200D91E004A469B1A0793099B9C4646
:105E20000393E244D2E700239A4653460193434644
:105E30004A46009339003300280000F047F8002854
:105E4000A0D1002F04D0280000F072FA002806D15B
:105E5000280000F03DFA95E78C20404292E784202C
:105E600040428FE7F0B58FB0170005AA04000D007F
:105E70001E0000F025F9002825D106AA059920006A
:105E800000F09EFA00281BD10C220BA92800FAF77B
:105E9000E1FB002817D1089B3A003100180003935A
:105EA00000F006FE002801D00FB0F0BD149B3200B8
:105EB000009306A93B00200000F062F80028F3D010
:105EC00084204042F0E78C204042EDE7F0B5C64622
:105ED00000B588B0170005AA05000E00984600F02E
