:020000041000EA
:1004000000880008910400100D000000515C0210EB
:1004100000000000000000000000000000000000DC
:10042000000000000000000000000000395C021025
:100430000000000000000000FD5B0210FD04001041
:10044000FD040010A55C0210FD040010FD04001066
:10045000FD040010FD040010FD040010955A021068
:10046000FD040010FD040010FD040010FD04001048
:10047000FD040010FD040010FD040010FD04001038
:100480007047EFF3108072B6704780F310887047A2
:10049000FFF7F6FF72B6144C144DAC4209DA21682E
:1004A0006268A368043B02DBC858D050FAE70C34FA
:1004B000F3E70F4B0F4CA34208DA19685A68002083
:1004C000043A01DB8850FBE70833F4E725F0F2FB40
:1004D000EFF314800221084380F31488064880F368
:1004E000098822F049FDFEE71C050010D005001028
:1004F000D0050010A806001000900008FEE7FEE7F7
:1005000000B504207146084202D0EFF3098001E0F3
:0C051000EFF30880043024F0BBFEFEE78F
:10051C0000350310005F0208580A00002033031056
:10052C000000000800000000C03403100090000818
:10053C0000000000C034031080AA00080000000076
:10054C00C034031080430108400000000035031044
:10055C008034020800000000003503100039020846
:10056C0000000000003503100046020800000000E7
:10057C00203303100000000800000000203303109B
:10058C00800B0008A0010000003503100057020882
:10059C0000000000203303100003000800000000DE
:1005AC0000350310A059020800000000203303108E
:1005BC00800600080000000020330310000A000829
:0405CC00000000002B
:1005D000586902081821000000900008201200004D
:1005E00080A200080008000080AA00088092000095
:1005F000003D010880060000C043010880D00000D3
:10060000801402080020000080340208200000004E
:1006100000350208000400000039020860020000F2
:10062000803B0208800A000000460208200000000B
:10063000804602088003000000000008200000003F
:100640008000000880020000200D00082012000039
:10065000004A0208000D00000057020820000000B8
:10066000805702082002000000030008200000005C
:100670008003000800030000A059020820000000C9
:10068000005A020800050000800600082000000053
:100690000007000800030000000A00082000000016
:0806A000800A000800010000BF
:0806A80000000000000000004A
:1006B000000000000000000000000000000000003A
:1006C000000000000000000000000000000000002A
:1006E00010B5034B0A000100186800F056F810BD61
:1006F000800B0008084B10B50400002B02D000212D
:1007000000E000BF054B1868836A002B00D09847B3
:1007100020002DF0FBFDC04600000000FC1600107C
:1007200010B5034B0100186800F046F810BDC04634
:10073000800B000830B50024A24201D1002005E062
:10074000035D651C0C5DA34201D0181B30BD2C005D
:10075000F2E7002310B59A4200D110BDCC5CC4541E
:100760000133F8E710B5884202D98B18984203D3B9
:10077000002307E08B5C8354013AFBD210BDCC5CB4
:10078000C45401339A42FAD1F8E703001218934295
:1007900000D1704719700133F9E74A4370B5110071
:1007A000140000F053F8051E03D022000021FFF7CB
:1007B000ECFF280070BD000070B50500002910D0C6
:1007C0000C1F2368002B00DAE418280000F016FC48
:1007D0001D4A1368002B05D163601460280000F0E7
:1007E0000EFC70BDA34209D9216860188342F3D181
:1007F00018685B6841182160EEE713005A68002A08
:1008000001D0A242F9D919685818A0420BD120682A
:100810000918581819608242E0D1106852684118CE
:1008200019605A60DAE7A04202D90C232B60D5E7A1
:1008300021686018824203D1106852684118216013
:1008400062605C60CAE7C046200D0008032370B5F3
:10085000CD1C9D43083506000C2D1ED20C25A94247
:100860001DD8300000F0CAFB254A14682100002979
:1008700019D1244C2368002B03D1300000F0C8F8B4
:1008800020602900300000F0C3F8431C2BD10C235A
:100890003000336000F0B3FB03E0002DDFDA0C23FF
:1008A0003360002070BD0B685B1B19D40B2B03D980
:1008B0000B60CC18256003E04B688C420DD11360AF
:1008C000300000F09CFB200007220B30231D9043DA
:1008D000C31AE7D05A42E250E4E763600C00EFE746
:1008E0000C004968C3E70323C41C9C43A042E1D029
:1008F000211A300000F08CF8431CDBD1C7E7C0465A
:10090000200D0008240D00080FB40B4B13B51C6814
:10091000002C05D0A369002B02D1200000F06EFA54
:1009200005AB049AA1682000019300F091FB16BC6E
:1009300008BC04B01847C046800B000870B505001D
:100940000E00002804D08369002B01D100F056FA74
:10095000AB69AC68002B02D1280000F04FFA244BA1
:100960009C420FD16C68A3891B0702D52369002B19
:100970001FD12100280000F0D3F8002819D0012051
:10098000404270BD1B4B9C4201D1AC68EBE71A4B57
:100990009C42E8D1EC68E6E70136A360002B04DA5C
:1009A000A2699A4216DC0A2914D023685A1C2260D4
:1009B0001970A3683178013B0029EDD1A360002BA9
:1009C0000FDA22000A31280000F054F8431CD6D078
:1009D0000A20D6E72200280000F04CF8431CE8D19A
:1009E000CDE70A2023685A1C22601870C9E7C04668
:1009F00020170010401700100017001010B5034B0F
:100A000001001868FFF79AFF10BDC046800B000870
:100A1000002370B5064C0500080023602DF068FC2B
:100A2000431C03D12368002B00D02B6070BDC0464F
:100A3000280D00080023C25C0133002AFBD1581E98
:100A4000704710B50378002B0FD10B785A425341F1
:100A50005B42184010BD0023CA5C002AFAD0C45C77
:100A6000944201D10133F7E701300378002BF2D132
:100A70001800EFE7F8B505000E001400002804D0B8
:100A80008369002B01D100F0B9F9224B9C422DD192
:100A90006C68A369A360A3891B0731D52369002B68
:100AA0002ED023682269F7B2981A6369F6B283429E
:100AB00005DC2100280000F033F9002826D1A368C6
:100AC0000130013BA36023685A1C22601F706369D8
:100AD000834204D0A389DB071AD50A2E18D121003E
:100AE000280000F01DF9002812D00FE00A4B9C42AC
:100AF00001D1AC68CDE7094B9C42CAD1EC68C8E78C
:100B00002100280000F00CF80028CAD00126764207
:100B10003000F8BD2017001040170010001700101B
:100B2000364B70B51D6806000C00002D05D0AB6972
:100B3000002B02D1280000F061F9314B9C420FD10B
:100B40006C680C23E25E93B219072DD4D90611D438
:100B500009230120336037331343A381404270BD22
:100B6000284B9C4201D1AC68EBE7274B9C42E8D173
:100B7000EC68E6E75B0713D5616B002908D023001A
:100B80004433994202D03000FFF716FE002363631E
:100B90002422A3899343A3810023636023692360F4
:100BA0000823A2891343A3812369002B0BD1A02121
:100BB0008022A389890092000B40934203D0210038
:100BC000300000F0D7F90123A289134011D000238F
:100BD000A36063695B42A361002023698342BED1A5
:100BE0000C23E25E1306BAD540231343A3810138D8
:100BF000B5E7920700D46369A360EDE7800B0008B6
:100C0000201700104017001000170010F7B58A8950
:100C100005000C00130760D44B68002B04DC0B6C40
:100C2000002B01DC0020FEBDE76A002FFAD0002374
:100C30002E682B6080235B01216A1A4034D0606DDE
:100C4000A3895B0706D56368C01A636B002B01D0CC
:100C5000236CC01A0200216A00232800E76AB84703
:100C6000A189431C06D12B681D2B30D82B4ADA40B2
:100C7000D3072CD50023636023692360CB0405D5FB
:100C8000431C02D12B68002B00D16065616B2E6084
:100C90000029C7D023004433994202D02800FFF72F
:100CA0008BFD00206063BEE701232800B847431C8A
:100CB000C6D12B68002BC3D01D2B01D0162B01D120
:100CC0002E60AFE74023A2891343A381ABE7402303
:100CD0000B430120A3814042A5E70F69002FA1D05B
:100CE0000B680F60DB1B01930023920700D14B6957
:100CF000A360019B002B00DC94E7019B3A00216A72
:100D00002800A66AB047002803DC4023A2891343C9
:100D1000DFE7019B3F181B1A0193EAE7010040201F
:100D20000B6970B505000C00002B01D1002070BDCF
:100D3000002804D08369002B01D100F05FF80B4B31
:100D40009C4209D16C680C22A35E002BEED02100DE
:100D50002800FFF75BFFEAE7054B9C4201D1AC6836
:100D6000F1E7044B9C42EED1EC68ECE72017001051
:100D70004017001000170010002310B50400036096
:100D80004360836081814366C28103614361836103
:100D9000190008225C30FFF7F8FC054B24626362FF
:100DA000044BA362044BE362044B236310BDC046B3
:100DB0006915001091150010C9150010F5150010E7
:100DC00010B5024900F08CF810BDC046210D00108E
:100DD00070B568254A1E55430E0029007431FFF78F
:100DE00035FD041E08D000212A00016046600C3049
:100DF000A0606832FFF7C9FC200070BD836913B59D
:100E00000400002B28D18364C3640365134B144A88
:100E10001B6882620193984201D101238361200003
:100E200000F020F86060200000F01CF8A0602000B6
:100E300000F018F80022E06004216068FFF79CFFD2
:100E400001220921A068FFF797FF02221221E06822
:100E5000FFF792FF0123A36113BDC046FC160010EB
:100E6000C10D0010F8B51C4B07001E68B369002BBC
:100E700002D13000FFF7C2FF4836B4687368013B07
:100E800004D53368002B07D03668F6E70C22A55E40
:100E9000002D0DD06834F2E704213800FFF798FFE9
:100EA00030600028F0D10C2304003B602000F8BD26
:100EB00020000A4B656625606560A560E3602561DA
:100EC0006561A561082229005C30FFF75EFC65635F
:100ED000A563A564E564E9E7FC1600100100FFFFC7
:100EE000F7B504000700002601914834002C01D119
:100EF0003000FEBD6368A5680093009B013B009332
:100F000001D52468F2E7AB89012B08D90E22AB5E2C
:100F1000013304D029003800019B98470643683507
:100F2000EBE7000070B50E001D000E23C95E96B001
:100F30001400002907DA00232B60B3891B0611D4A3
:100F40008023DB000FE06A4600F080FB0028F2DB24
:100F5000F022019B12021340054A9B185A4253414A
:100F60002B60EDE740230020236016B070BDC04623
:100F700000E0FFFFF7B502268B8905000C00334225
:100F800006D0230047332360236101236361F7BD4B
:100F900001AB6A46FFF7C6FF009907002800FFF77C
:100FA00055FC002808D10C22A35E9A05EFD4032239
:100FB00093431E43A681E4E70F4BAB628023A289D3
:100FC00020601343A381009B20616361019B002B80
:100FD0000DD00E23E15E280000F04AFB002806D069
:100FE0000322A38993431A0001231343A381A089F9
:100FF0003843A081CBE7C046C10D00107047704751
:10100000936810B5013B9360002B04DA9469A34206
:1010100007DB0A2905D01368581C106019700800F6
:1010200010BDFFF727FD0100F9E7F8B506000F0036
:101030001400D518AC4201D1002007E021783A0015
:101040003000FFF7DDFF0134431CF3D1F8BD000091
:10105000F0B5A1B003900F0016001D00002805D0C8
:1010600083690593002B01D1FFF7C8FE7B4B9F429C
:101070005CD1039B5F68BB891B0763D53B69002B71
:1010800060D0002308AC6361203363761033A3760D
:10109000079535002B78002B01D0252B5CD1AB1B9D
:1010A00005930CD0320039000398FFF7BEFF431CB4
:1010B00000D1C4E06269059B9446634463612B7868
:1010C000002B00D1BBE0012200235242626004A940
:1010D000543252186E1C2360E360A3601370A36542
:1010E000317805225E4800F0E9FA751C002835D1F8
:1010F0002268D30604D5532304A95B182021197054
:10110000130704D5532304A95B182B2119703378D6
:101110002A2B2CD0350000210A20E3682A786E1C87
:10112000303A092A64D900292ED026E04D4B9F423F
:1011300002D1039B9F689EE74B4B9F429BD1039B31
:10114000DF6898E739000398FFF7EAFC002898D099
:101150000120404221B0F0BD01359BE7404B2268A1
:10116000C01A01238340134323602E00B8E7079B76
:10117000191D1B680791002B01DB0B9304E05B42F8
:10118000E3600223134323602B782E2B0AD16B7864
:101190002A2B35D1079B02351A1D1B680792002B9D
:1011A0002BDB0993314E29780322300000F086FAB8
:1011B000002806D04023801B83402268013513435A
:1011C0002360297806222A486E1C217600F076FAE0
:1011D00000283AD0274B002B25D10722079B073345
:1011E0009343083307936369049A9B18636150E73C
:1011F000434301219B18350090E701235B42D0E770
:1012000000230A201A000135636029786E1C3039EA
:10121000092903D9002BC5D00992C3E74243012312
:1012200052183500F1E707AB00933A00124B21004A
:10123000039800E000BF0490049B0133D3D1BB8925
:101240005B0600D584E70D9884E707AB00933A006E
:10125000094B2100039800F07FF8ECE720170010FD
:1012600060170010401700100017001066170010DC
:101270006A170010000000002B100010F7B51500D1
:1012800001938A680B6900900C00934200DA130006
:1012900022002B6043321278002A01D001332B60E8
:1012A00023689B0602D52B6802332B600627236830
:1012B0001F4027D0230043331B785A1E93412268D6
:1012C000920630D42200019943320098089EB0471C
:1012D000431C25D0062320682A68E16803400025C6
:1012E000042B03D18D1AEB43DB171D40A368226941
:1012F000934201DD9B1AED180027BD4220D100204A
:1013000010E00137E3682A689B1ABB42D2DD220055
:101310000123193201990098089EB047431CF0D16F
:1013200001204042FEBD3020E11843310870210009
:101330005A1C45310978A218433202331170C1E7B3
:10134000220001231A3201990098089EB047431CDD
:10135000E6D00137D1E70000F0B589B004920A0069
:1013600043320593039002920A7E0C000E9B6E2A74
:1013700000D186E01FD8632A33D008D8002A00D1D4
:101380008CE0582A4DD0250042352A7030E0642A7E
:1013900001D0692AF7D1196825680A1D280629D5C0
:1013A00008681A60002803DA2D23029A404213705D
:1013B0006B4E0A274FE0732A74D008D86F2A1FD0CB
:1013C000702AE0D1202209680A43226003E0752ACE
:1013D00016D0782AD7D12200782145321170614E7B
:1013E00022E025001A684235111D196013682B7020
:1013F000012365E008681A606906D3D500B2D1E719
:1014000019682568081D186008682E0605D5544E11
:1014100008276F2A1BD00A2719E06D06F7D580B27E
:10142000F5E745314E4E0A7018682268011D0068C4
:101430001960150621D5D30702D520231A4322604F
:101440001027002803D1202322689A43226023001A
:10145000002243331A706368A360002B58DB042218
:10146000216891432160002854D1029D002B5AD05D
:101470002500337842352B7055E05506DBD580B218
:10148000D9E71A680D68101D4969186013682E069F
:1014900001D5196002E06D06FBD519800023029D7D
:1014A00023614FE01A68111D1960156800216268F8
:1014B000280000F003F9002801D0401B6060636839
:1014C00023610023029A13703CE023692A000499E7
:1014D0000398059DA847431C3ED023689B0715D45D
:1014E000079BE068984239DA180037E022000123B0
:1014F000193204990398059EB047431C2CD001353E
:10150000E368079A9B1AAB42F0DCE9E70025F7E7AE
:101510000028ADD0029D390001F042FE735C013D10
:101520002B700028F7D1082F09D12368DB0706D5D7
:1015300063682269934202DC3023013D2B70029BD9
:101540005B1B2361059B07AA00932100049B039862
:10155000FFF794FE431CB8D10120404209B0F0BD12
:10156000711700108217001070B50C000E25495F2E
:1015700000F0B0F8002803DB636D1B18636570BDD5
:10158000A389024A1340A381F9E7C046FFEFFFFF9A
:10159000F8B51F008B8905000C001600DB0505D58A
:1015A0000E23C95E0022022300F074F8A389054AC5
:1015B00028001340A38132000E23E15E3B0000F0BF
:1015C0001FF8F8BDFFEFFFFF70B50C000E25495F57
:1015D00000F060F8A389421C03D1054A1340A3819F
:1015E00070BD802252011343A3816065F8E7C046B5
:1015F000FFEFFFFF10B50E23C95E00F015F810BD18
:1016000070B50500080011000022064C22601A0087
:101610001FF0D0FB431C03D12368002B00D02B60AC
:1016200070BDC046280D0008002370B5064C0500AB
:10163000080023602CF034FE431C03D12368002BE8
:1016400000D02B6070BDC046280D0008002370B587
:10165000064C05000800110023602CF029FE431CF5
:1016600003D12368002B00D02B6070BD280D00082B
:10167000002370B5064C0500080023602CF020FE06
:10168000431C03D12368002B00D02B6070BDC046E3
:10169000280D000870B50500080011000022064C56
:1016A00022601A002CF014FE431C03D12368002B87
:1016B00000D02B6070BDC046280D0008C9B282184A
:1016C000904201D10020704703788B42FBD001305B
:1016D000F6E7000070B50500080011000022064C76
:1016E00022601A002CF0FCFD431C03D12368002B60
:1016F00000D02B6070BDC046280D0008840B000888
:1017000000000000000000000000000000000000D9
:1017100000000000000000000000000000000000C9
:1017200000000000000000000000000000000000B9
:1017300000000000000000000000000000000000A9
:101740000000000000000000000000000000000099
:101750000000000000000000000000000000000089
:10176000232D302B2000686C4C006566674546478A
:10177000003031323334353637383941424344450D
:10178000460030313233343536373839616263647C
:101790006566000004DF70470020FBE705DF704747
:1017A000EFF314830138421E90410122104093430D
:1017B000184380F31488704730B585B00291050056
:1017C00001210C48039204F05DFA041E0EDD002393
:1017D00029000193009302AA013304F055FA050091
:1017E000200004F05DFA280005B030BD84256D426C
:1017F000F9E7C046E0F0000030B5012183B00B48A6
:1018000004F040FA041E0DDD002300220193009332
:10181000002104F039FA0500200004F041FA280004
:1018200003B030BD84256D42F9E7C046C0F000002A
:1018300030B587B0029003912020012104920593D6
:1018400004F020FA041E11DD0123019304AB009380
:1018500002AA0123002104F017FA0500200004F079
:101860001FFA2C1E02D1059A0A9B1A60200007B0AD
:1018700030BDC04630B589B003AB04930423039058
:101880000691212001210593079304F0FBF9041E22
:101890000DDD0123019306AB009304AA012300216F
:1018A00004F0F2F90500200004F0FAF92C00200001
:1018B00009B030BD30B589B0049302230290039182
:1018C00005930121023322200692079304F0DAF9EE
:1018D000041E0DDD0323019302AB009300220023BD
:1018E000002104F0D1F90500200004F0D9F92C0002
:1018F000200009B030BDC04630B58BB002900391D6
:1019000002A90491069308210EAB089304230591C4
:10191000602007390792099304F0B4F9041E10DD22
:10192000002304AA019300930021033304F0ACF9CF
:101930000500200004F0B4F9032D05D028000BB0F9
:1019400030BD84256D42F9E787256D42F6E7C04634
:1019500070B58CB0039204AA08920822099203AAD7
:101960000A920422119E0B92109A049005910692FD
:101970000793002E19D00121612004F083F9041E81
:1019800016DD0123019306AB009308AA0223002170
:1019900004F07AF90500200004F082F9032D04D048
:1019A000079B336028000CB070BD87256D42F9E7B6
:1019B00084256D42F6E7C04630B589B002AB04938A
:1019C00008230290039105930121043362200692BB
:1019D000079304F057F9041E11DD0123019306ABB0
:1019E000009304AA0123002104F04EF90500200011
:1019F00004F056F9032D05D0280009B030BD842528
:101A00006D42F9E787256D42F6E7C04630B587B0ED
:101A100002AB0493082302900391012163200593F4
:101A200004F030F9041E10DD002304AA0193009392
:101A30000021013304F028F90500200004F030F9FA
:101A4000032D05D0280007B030BD84256D42F9E78D
:101A500087256D42F6E7C046862040427047C04663
:101A6000862040427047C046002310B586B00393DD
:101A700003AB0493042301216420059304F002F9CD
:101A8000041E0BDD0123019304AB0093002200230D
:101A9000002104F0F9F8200004F002F9039806B0E0
:101AA00010BDC04630B58BB00290039102A90491DD
:101AB000069308210EAB0893042305917020073983
:101AC0000792099304F0DEF8041E10DD002304AA37
:101AD000019300930021033304F0D6F805002000A1
:101AE00004F0DEF8032D05D028000BB030BD8425AE
:101AF0006D42F9E787256D42F6E7C04670B58CB0B8
:101B0000039204AA08920822099203AA0A920422C4
:101B1000119E0B92109A0490059106920793002E45
:101B200019D00121712004F0ADF8041E16DD012347
:101B3000019306AB009308AA0223002104F0A4F845
:101B40000500200004F0ACF8032D04D0079B33609F
:101B500028000CB070BD87256D42F9E784256D42E1
:101B6000F6E7C04630B589B002AB04930823029073
:101B7000039105930121043372200692079304F028
:101B800081F8041E11DD0123019306AB009304AA22
:101B90000123002104F078F80500200004F080F80B
:101BA000032D05D0280009B030BD84256D42F9E72A
:101BB00087256D42F6E7C04630B587B002AB049387
:101BC00008230290039101217320059304F05AF831
:101BD000041E0EDD002304AA0193009300210133AB
:101BE00004F052F80500200004F05AF8280007B06D
:101BF00030BD84256D42F9E70020704730B595B0BF
:101C00000C000390242200210BA8FEF7BEFD0AAAB7
:101C100006922822079203AA022308920422012195
:101C2000802004940A930992059304F02BF8041E73
:101C30000FDD0123019304AB009306AA02230021C8
:101C400004F022F80500200004F02AF8280015B05E
:101C500030BD84256D42F9E730B58FB005002422F0
:101C6000002105A8FEF791FD032304AC0493012194
:101C700025338020E5800294039304F003F8041ECA
:101C80000EDD002302AA019300930021013303F02B
:101C9000FBFF0500200004F003F828000FB030BD62
:101CA00084256D42F9E7C046F0B595B007000E00F7
:101CB0001500002124220BA81C00FEF766FD04235A
:101CC0000A930AAB049328230593043B079301214D
:101CD000223B80200294069708960995039303F00F
:101CE000D1FF041E0FDD0123019302AB009304AA70
:101CF0000323002103F0C8FF0500200003F0D0FFFC
:101D0000280015B0F0BD84256D42F9E730B58FB0DD
:101D100005002422002105A8FEF737FD052304ACA9
:101D20000493012123338020E5800294039303F080
:101D3000A9FF041E0EDD002302AA019300930021D7
:101D4000013303F0A1FF0500200003F0A9FF2800E4
:101D50000FB030BD84256D42F9E7C04670B590B034
:101D600006AC06000D00282200212000FEF70DFD24
:101D70002823012103938020043BE68002940495EC
:101D8000059303F07FFF041E0FDD0123019304ABD5
:101D9000009302AA0123002103F076FF0500200032
:101DA00003F07EFF280010B070BD84256D42F9E776
:101DB000F0B5C64600B590B007000E001500002132
:101DC000242207A89846FEF7E0FC062306AC0693FB
:101DD000012122338020E780029403930496059525
:101DE00003F050FF041E14DD0123019304AB0093A4
:101DF00002AA0123002103F047FF4346059A05008C
:101E00001A60200003F04CFF280010B004BC90467C
:101E1000F0BD84256D42F7E7F0B5C64600B590B039
:101E200007000E0015000021242207A89846FEF79F
:101E3000ACFC072306AC0693012121338020E78008
:101E4000029403930496059503F01CFF041E14DD11
:101E50000123019304AB009302AA0123002103F0A4
:101E600013FF4346059A05001A60200003F018FF8F
:101E7000280010B004BC9046F0BD84256D42F7E701
:101E8000F0B593B007000E0015000021242209A828
:101E9000FEF77BFC0823089320330593043B08AC32
:101EA00007930121223B8020E78004940696029547
:101EB000039303F0E7FE041E0FDD0123019302AB41
:101EC000009304AA0223002103F0DEFE0500200097
:101ED00003F0E6FE280013B0F0BD84256D42F9E75B
:101EE000F0B5C64600B592B004000F001600002100
:101EF000242209A89846FEF748FC1D23089323686E
:101F000008ADEB602823012103938020243B049437
:101F1000029505930697079603F0B4FE041E14DDA0
:101F20000223019304AB009302AA0123002103F0D2
:101F3000ABFE4346079A05001A60200003F0B0FE8E
:101F4000280012B004BC9046F0BD84256D42F7E72E
:101F5000F0B593B004000F0016000021242209A858
:101F6000FEF713FC1E230893236808ADEB602823BB
:101F7000012105938020243B02940495069707963F
:101F8000039303F07FFE041E0FDD0123019302ABD8
:101F9000009304AA0223002103F076FE050020002E
:101FA00003F07EFE280013B0F0BD84256D42F9E7F2
:101FB000F0B591B005000F0016000021242207A8FB
:101FC000FEF7E3FB1B2306932B6806ACE360282394
:101FD000012103938020243BE780A66002940495AE
:101FE000059303F04FFE041E0FDD0123019304ABA4
:101FF000009302AA0123002103F046FE0500200001
:1020000003F04EFE280011B0F0BD84256D42F9E7C3
:10201000F0B591B005000F0016000021242207A89A
:10202000FEF7B3FB1C2306932B6806ACE360282362
:10203000012103938020243BE780A660029404954D
:10204000059303F01FFE041E0FDD0123019304AB73
:10205000009302AA0123002103F016FE05002000D0
:1020600003F01EFE280011B0F0BD84256D42F9E793
:10207000F0B5C64600B594B00400884617000021AC
:1020800024220BA81E00FEF780FB1F230A9323685F
:102090000AADEB602823039343460493042307937C
:1020A0001A9B0121802006940295059708960993B2
:1020B00003F0E8FD041E14DD0223019306AB009338
:1020C00002AA0223002103F0DFFD099A1B9B0500F1
:1020D0001A60200003F0E4FD280014B004BC904610
:1020E000F0BD84256D42F7E730B591B0040024229D
:1020F000002107A8FEF749FB21230693236806ADBC
:10210000EB602823012103938020243B0494029553
:10211000059303F0B7FD041E0FDD0123019304AB0B
:10212000009302AA0123002103F0AEFD0500200068
:1021300003F0B6FD280011B030BD84256D42F9E7EB
:10214000F0B5C64600B592B004000F00160000219D
:10215000242209A89846FEF718FB20230893236839
:1021600008ADEB602823012103938020243B0494D5
:10217000029505930697079603F084FD041E14DD6F
:102180000223019304AB009302AA0123002103F070
:102190007BFD4346079A05001A60200003F080FD8E
:1021A000280012B004BC9046F0BD84256D42F7E7CC
:1021B00070B590B005000E002422002107A8FEF79C
:1021C000E4FA0B2306932B6806ACE3602823012175
:1021D00003938020243BA66002940495059303F0AA
:1021E00051FD041E0FDD0123019304AB009302AAED
:1021F0000123002103F048FD0500200003F050FDFD
:10220000280010B070BD84256D42F9E7F0B593B099
:1022100004000F0016000021242209A8FEF7B5FAD9
:102220000C230893236808ADEB6028230121059354
:102230008020243B0294049506970796039303F0AD
:1022400021FD041E0FDD0123019302AB009304AABC
:102250000223002103F018FD0500200003F020FDFB
:10226000280013B0F0BD84256D42F9E7F0B5C646ED
:1022700000B592B004000F0016000021242209A826
:102280009846FEF782FA0D230893236808ADEB60A9
:102290002823012103938020243B04940295059375
:1022A0000697079603F0EEFC041E14DD022301934B
:1022B00004AB009302AA0123002103F0E5FC43468E
:1022C000079A05001A60200003F0EAFC280012B00B
:1022D00004BC9046F0BD84256D42F7E7F0B593B09D
:1022E00004000F0016000021242209A8FEF74DFA71
:1022F0000E230893236808ADEB6028230121059382
:102300008020243B0294049506970796039303F0DC
:10231000B9FC041E0FDD0123019302AB009304AA54
:102320000223002103F0B0FC0500200003F0B8FCFC
:10233000280013B0F0BD84256D42F9E730B591B0A7
:1023400004002422002107A8FEF71FFA0F2306939A
:10235000236806ADEB602823012103938020243BF2
:1023600004940295059303F08DFC041E0FDD0123F8
:10237000019304AB009302AA0123002103F084FC23
:102380000500200003F08CFC280011B030BD84252E
:102390006D42F9E770B590B006000C0024220021D0
:1023A00007A8FEF7F2F910230693336806ADEB6039
:1023B00028230393243B029504940593002C02D018
:1023C0002368002B18D10121802003F05BFC041E40
:1023D0000FDD0123019304AB009302AA0123002126
:1023E00003F052FC0500200003F05AFC280010B056
:1023F00070BD84256D42F9E789256D42F6E7C04638
:10240000F0B591B005000F0016000021242207A8A6
:10241000FEF7BBF9132306932B6806ACE360282371
:10242000012103938020243BE780A6600294049559
:10243000059303F027FC041E0FDD0123019304AB79
:10244000009302AA0123002103F01EFC05002000D6
:1024500003F026FC280011B0F0BD84256D42F9E799
:10246000F0B591B005000F0016000021242207A846
:10247000FEF78BF9142306932B6806ACE360282340
:10248000012103938020243BE780A66002940495F9
:10249000059303F0F7FB041E0FDD0123019304AB4A
:1024A000009302AA0123002103F0EEFB05002000A7
:1024B00003F0F6FB280011B0F0BD84256D42F9E76A
:1024C000F0B593B004000F0016000021242209A8E3
:1024D000FEF75BF915230893236808ADEB6028230A
:1024E000012105938020243B0294049506970796CA
:1024F000039303F0C7FB041E0FDD0123019302AB1E
:10250000009304AA0223002103F0BEFB0500200073
:1025100003F0C6FB280013B0F0BD84256D42F9E737
:10252000F0B5C64600B592B004000F0016000021B9
:10253000242209A89846FEF728F916230893236851
:1025400008ADEB602823012103938020243B0494F1
:10255000029505930697079603F094FB041E14DD7D
:102560000223019304AB009302AA0123002103F08C
:102570008BFB4346079A05001A60200003F090FB8E
:10258000280012B004BC9046F0BD84256D42F7E7E8
:10259000F0B593B004000F0016000021242209A812
:1025A000FEF7F3F817230893236808ADEB602823A0
:1025B000012105938020243B0294049506970796F9
:1025C000039303F05FFB041E0FDD0123019302ABB5
:1025D000009304AA0223002103F056FB050020000B
:1025E00003F05EFB280013B0F0BD84256D42F9E7CF
:1025F00030B591B004002422002107A8FEF7C5F8E9
:1026000018230693236806ADEB602823012103936A
:102610008020243B04940295059303F033FB041EB1
:102620000FDD0123019304AB009302AA01230021D3
:1026300003F02AFB0500200003F032FB280011B054
:1026400030BD84256D42F9E7F0B595B004000F0068
:102650001600002120220BA81D00FEF796F8222369
:102660000A936B46DC851A9B0C971395002B36D08A
:102670000AAB0493282305931C9B06931D9B079389
:102680001A9B08931B9B09931E9B02931F9B03930A
:10269000102D27D8002E06D0002D04D02A0031009E
:1026A0000FA8FEF756F80121802003F0EBFA051E73
:1026B0001BDD1A9B01225C1EA341019202AA023378
:1026C0000092002104AA03F0DFFA039A209B040081
:1026D0001A60280003F0E4FA200015B0F0BD1B9B3F
:1026E000002BC5D087246442F6E784246442F3E7D4
:1026F000F0B595B004000F001600002120220BA8B1
:102700001D00FEF742F823230A936B46DC851A9BD3
:102710000C971395002B36D00AAB0493282305930E
:102720001C9B06931D9B07931A9B08931B9B099365
:102730001E9B02931F9B0393102D27D8002E06D0BB
:10274000002D04D02A0031000FA8FEF702F8012165
:10275000802003F097FA051E1BDD1A9B01225C1EE8
:10276000A341019202AA02330092002104AA03F0BD
:102770008BFA039A209B04001A60280003F090FA59
:10278000200015B0F0BD1B9B002BC5D087246442F0
:10279000F6E784246442F3E7F0B5C64600B592B08C
:1027A00080460F0016000021242209A81D00FDF715
:1027B000ECFF2E230893434608ACE38028230593BF
:1027C000189B01210293199B8020A7600494069610
:1027D0000795039303F056FA041E14DD01230193B9
:1027E00002AB009304AA0223002103F04DFA039ADE
:1027F0001A9B05001A60200003F052FA280012B05C
:1028000004BC9046F0BD84256D42F7E7F0B5C6469E
:1028100000B592B080460F0016000021242209A8BE
:102820001D00FDF7B2FF2E230893434608ACE3805A
:1028300028230593189B01210293199B8020A760F0
:10284000049406960795039303F01CFA041E14DD06
:102850000123019302AB009304AA0223002103F099
:1028600013FA039A1A9B05001A60200003F018FA65
:10287000280012B004BC9046F0BD84256D42F7E7F5
:10288000F0B5C64600B592B080460F001600002194
:10289000242209A81D00FDF778FF2F230893434643
:1028A00008ACE38028230393189B01210693199B0E
:1028B0008020A760029404960595079303F0E2F93F
:1028C000041E10DD002302AA0193009300210333AC
:1028D00003F0DAF90500200003F0E2F9280012B055
:1028E00004BC9046F0BD84256D42F7E7F0B5C646BE
:1028F00000B592B080460F0016000021242209A8DE
:102900001D00FDF742FF2F230893434608ACE380E8
:1029100028230393189B01210693199B8020A7600D
:10292000029404960595079303F0ACF9041E10DD9C
:10293000002302AA019300930021033303F0A4F9BA
:102940000500200003F0ACF9280012B004BC90464A
:10295000F0BD84256D42F7E7F0B595B005000C0099
:102960001700002124220BA81E00FDF70EFF3023C4
:102970000A936B46DD851A9B0C94002B28D00AAB7A
:102980000493282304AC63601A9BE66023611B9BBD
:1029900002AE63611C9BA76002931D9B01217360C3
:1029A000802003F06FF90323051E2BDD0122009622
:1029B000019200212200280003F066F972681E9B34
:1029C00004001A60280003F06BF9200015B0F0BD78
:1029D0001B9B002B19D10AAB0493282304AC636022
:1029E0001B9BE660236163611C9B02AE02931D9BEF
:1029F000A76073600121802003F044F9051E01DD0A
:102A00000223D3E784246442DFE787246442DCE7BF
:102A1000F0B595B005000C001700002124220BA88A
:102A20001E00FDF7B2FE31230A936B46DD851A9B2B
:102A30000C94002B28D00AAB0493282304AC6360C9
:102A40001A9BE66023611B9B02AE63611C9BA7601F
:102A500002931D9B01217360802003F013F903236F
:102A6000051E2BDD01220096019200212200280084
:102A700003F00AF972681E9B04001A60280003F034
:102A80000FF9200015B0F0BD1B9B002B19D10AAB2C
:102A90000493282304AC63601B9BE660236163619D
:102AA0001C9B02AE02931D9BA760736001218020D6
:102AB00003F0E8F8051E01DD0223D3E78424644215
:102AC000DFE787246442DCE770B590B006000D00B4
:102AD0002422002107A8FDF758FE3323069333680C
:102AE00006ACE3602823012103938020243B029459
:102AF0000495059303F0C6F8041E0FDD012301932E
:102B000004AB009302AA0123002103F0BDF80500E5
:102B1000200003F0C5F8280010B070BD84256D4278
:102B2000F9E7C046F0B591B007000E00150000218E
:102B3000242207A8FDF729FE382306933B6806AC3C
:102B4000E3602823012180200294039304960595D5
:102B500003F098F8041E0FDD0123019304AB0093EA
:102B600002AA0123002103F08FF80500200003F0E2
:102B700097F8280011B0F0BD84256D42F9E7C046F2
:102B8000F0B58FB005000F0016000021202206A826
:102B9000FDF7FBFD362304932B6804ACE360282388
:102BA00001218020A780E6800294039303F06AF855
:102BB000041E0EDD002302AA0193009300210133BD
:102BC00003F062F80500200003F06AF828000FB057
:102BD000F0BD84256D42F9E730B591B004002422A0
:102BE000002107A8FDF7D1FD3A230693236806AD1F
:102BF000EB602823012103938020243B0494029559
:102C0000059303F03FF8041E0FDD0123019304AB8D
:102C1000009302AA0123002103F036F805002000EA
:102C200003F03EF8280011B030BD84256D42F9E76D
:102C3000F0B5C64600B592B00500884617000021E1
:102C400020220AA81E00FDF7A0FD37230893434663
:102C500008ACA3802B680121E36028230593189B0F
:102C6000802007930423E78004940696029503933B
:102C700003F008F8041E11DD0123019302AB009359
:102C800004AA0223002102F0FFFF0500200003F048
:102C900007F8280012B004BC9046F0BD84256D42B0
:102CA000F7E7C04630B591B005000C0024220021A2
:102CB00007A8FDF76AFD3C23069306AB0293282381
:102CC0000495039305940025002C02D1280011B02F
:102CD00030BD0121802002F0D5FF041E0DDD01234F
:102CE000019304AB009302AA0123002102F0CCFF60
:102CF0000500200002F0D4FFE8E784256D42E5E7F7
:102D000030B593B00C0005002422002109A8FDF77E
:102D10003CFD3D23089308AB049328230593043B13
:102D200007930121223B802002940695039302F031
:102D3000A9FF041E0FDD0123019302AB009304AA37
:102D40000223002102F0A0FF0500200002F0A8FFEE
:102D5000280013B030BD84256D42F9E7862040423B
:102D60007047C046862040427047C0468620404299
:102D70007047C046862040427047C0468620404289
:102D80007047C046862040427047C0468620404279
:102D90007047C046862040427047C0468620404269
:102DA0007047C046862040427047C0468620404259
:102DB0007047C046F0B5C64600B592B007008846D9
:102DC00016000021242209A81D00FDF7DEFC3B238C
:102DD0000893434608ACE38028230593189B012100
:102DE0000293199B8020A76004940696079503938D
:102DF00002F048FF041E14DD0123019302AB00938F
:102E000004AA0223002102F03FFF039A1A9B050047
:102E10001A60200002F044FF280012B004BC904663
:102E2000F0BD84256D42F7E770B590B005000E0047
:102E30002422002107A8FDF7A8FC322306932B6863
:102E400006ACE3602823012103938020243BA66085
:102E500002940495059302F015FF041E0FDD012373
:102E6000019304AB009302AA0123002102F00CFF9E
:102E70000500200002F014FF280010B070BD84256A
:102E80006D42F9E770B58EB006000D0024220021D6
:102E900005A8FDF77AFC34230493336804ACE3609F
:102EA00028230121802025610294039302F0EAFE89
:102EB000041E0EDD002302AA0193009300210133BA
:102EC00002F0E2FE0500200002F0EAFE28000EB04B
:102ED00070BD84256D42F9E7F0B5C64607001E2097
:102EE00000B590B0884616000021222268441D00DB
:102EF000FDF74BFC35230693434606ACA3803B68A5
:102F00000121E36028238020029403930496059511
:102F100002F0B8FE041E10DD002302AA0193009304
:102F20000021023302F0B0FE0500200002F0B8FEDE
:102F3000280010B004BC9046F0BD84256D42F7E730
:102F4000F0B593B006000F0015000021242209A857
:102F5000FDF71BFC392308933B6808ACE36028238A
:102F60000593043B07930121223B8020049406969D
:102F70000295039302F086FE041E0FDD01230193E8
:102F800002AB009304AA0223002102F07DFE05009B
:102F9000200002F085FE280013B0F0BD84256D42AC
:102FA000F9E7C046862040427047C046862040422E
:102FB0007047C046862040427047C0468620404247
:102FC0007047C046862040427047C0468620404237
:102FD0007047C046862040427047C04630B5012148
:102FE00083B0402002F04EFE051E0EDD00230022BD
:102FF00001930093002102F047FE0400280002F034
:103000004FFE002C01DB200000E0012003B030BDAA
:1030100070B58AB005AB069304231400059007939E
:10302000002920D002260B6808934B68039309936C
:103030000121412002F026FE051E11DD23005A1E4B
:1030400093410094019306AA3300002102F01CFE74
:103050000400280002F024FE002C01DB200000E028
:1030600001200AB070BD0126E2E7C04602B47146F5
:1030700049084900095C49008E4402BC7047C046BB
:1030800003B47146490840004900095A49008E447A
:1030900003BC7047002243088B4274D303098B4260
:1030A0005FD3030A8B4244D3030B8B4228D3030C18
:1030B0008B420DD3FF22090212BA030C8B4202D3BA
:1030C0001212090265D0030B8B4219D300E0090AE2
:1030D000C30B8B4201D3CB03C01A5241830B8B42EB
:1030E00001D38B03C01A5241430B8B4201D34B03D4
:1030F000C01A5241030B8B4201D30B03C01A524139
:10310000C30A8B4201D3CB02C01A5241830A8B42BD
:1031100001D38B02C01A5241430A8B4201D34B02A6
:10312000C01A5241030A8B4201D30B02C01A52410A
:10313000CDD2C3098B4201D3CB01C01A52418309BE
:103140008B4201D38B01C01A524143098B4201D3F8
:103150004B01C01A524103098B4201D30B01C01A23
:103160005241C3088B4201D3CB00C01A524183089D
:103170008B4201D38B00C01A524143088B4201D3CA
:103180004B00C01A5241411A00D20146524110462A
:103190007047FFE701B5002000F0F0F802BDC0461F
:1031A0000029F7D076E7704703460B437FD400220F
:1031B00043088B4274D303098B425FD3030A8B42CB
:1031C00044D3030B8B4228D3030C8B420DD3FF2235
:1031D000090212BA030C8B4202D31212090265D003
:1031E000030B8B4219D300E0090AC30B8B4201D3B6
:1031F000CB03C01A5241830B8B4201D38B03C01AFD
:103200005241430B8B4201D34B03C01A5241030B73
:103210008B4201D30B03C01A5241C30A8B4201D324
:10322000CB02C01A5241830A8B4201D38B02C01ACF
:103230005241430A8B4201D34B02C01A5241030A46
:103240008B4201D30B02C01A5241CDD2C3098B422B
:1032500001D3CB01C01A524183098B4201D38B01A8
:10326000C01A524143098B4201D34B01C01A52414B
:1032700003098B4201D30B01C01A5241C3088B4290
:1032800001D3CB00C01A524183088B4201D38B007B
:10329000C01A524143088B4201D34B00C01A52411D
:1032A000411A00D201465241104670475DE0CA0FF4
:1032B00000D04942031000D34042534000229C46B4
:1032C00003098B422DD3030A8B4212D3FC228901BE
:1032D00012BA030A8B420CD3890192118B4208D394
:1032E000890192118B4204D389013AD0921100E0F6
:1032F0008909C3098B4201D3CB01C01A524183090A
:103300008B4201D38B01C01A524143098B4201D336
:103310004B01C01A524103098B4201D30B01C01A61
:103320005241C3088B4201D3CB00C01A52418308DB
:103330008B4201D38B00C01A5241D9D243088B4231
:1033400001D34B00C01A5241411A00D201466346D4
:1033500052415B10104601D34042002B00D5494238
:10336000704763465B1000D3404201B5002000F077
:1033700005F802BD0029F8D016E770477047C0462F
:103380008446101C62468C46191C634600E0C04609
:103390001FB500F055FD002801D40021C8421FBD13
:1033A00010B500F0ADFC4042013010BD10B500F08A
:1033B00047FD002801DB002010BD012010BDC046E4
:1033C00010B500F03DFD002801DD002010BD0120FA
:1033D00010BDC04610B500F0CFFC002801DC002075
:1033E00010BD012010BDC04610B500F0C5FC00287E
:1033F00001DA002010BD012010BDC046994201D164
:10340000801A04D002D20120404270470120704748
:10341000002B11D1002A0FD1002900D1002802D0A1
:103420000021C943081C07B4024802A140180290B9
:1034300003BDC04649FFFFFF03B4684601B50298CB
:1034400000F080F8019B9E4602B00CBC7047C0465D
:10345000F0B5CE46474615042D0C2E0080B5070466
:10346000140C3F0C9946030C7E435D436743634352
:103470007F19340CE4199C46A54203D980235B02D2
:103480009846C4444B4643435143250C3604654497
:10349000360C2404A4195B19591820000CBC904662
:1034A0009946F0BD70B505000C00002200232800ED
:1034B0002100FFF77BFF002804D12800210000F045
:1034C0000DF870BD80231B06E118280000F006F8F7
:1034D00002000B00002150429941F2E770B5002232
:1034E0000B4B0D00040000F013FD01F0B3FB0600D0
:1034F00001F002FB0022074B00F00AFD02000B0066
:103500002000290000F076FF01F0A4FB310070BD1F
:103510000000F03D0000F04170B50600080001F029
:10352000B1FA0022064B00F0F3FC0D00040030005D
:1035300001F0E2FA2B00220000F0C6F870BDC04690
:103540000000F041F0B54F464646D646C0B50400EF
:1035500082B00D00914698468B422FD82CD0414620
:10356000484601F06BFB29000600200001F066FBD5
:10357000331A9C46203B9A4600D576E04B4652468D
:1035800093401F004B46624693401E00AF4228D82E
:1035900025D05346A41BBD41002B00DA7BE000225E
:1035A000002300920193012352469340019301238B
:1035B00062469340009318E08242D0D90022002353
:1035C000009201930A9B002B01D01C605D60009863
:1035D000019902B01CBC90469946A246F0BDA34298
:1035E000D7D900220023009201936346002BE9D033
:1035F000FB079846414672080A437B0866460EE080
:10360000AB4201D1A2420CD8A41A9D410120241939
:103610006D410021013E24184D41002E06D0AB42E1
:10362000EED9013E24196D41002EF8D10098019980
:10363000534600196941002B23DB2B005246D3402F
:103640002A006446E2401C0053461500002B2DDB87
:1036500026005746BE40330026006746BE40320073
:10366000801A994100900191ACE7624620239B1A91
:103670004A46DA406146130042468A4017001F431B
:1036800080E7624620239B1A2A0066469A40230060
:10369000F3401343D4E76246202300219B1A002203
:1036A000009101920122DA40019280E720236246D4
:1036B00026009B1ADE402F00B0466646B7404646BD
:1036C0003B003343C8E7C046F0B54F464646D646B2
:1036D0000C000903C0B5490A470F5E0039431F03B8
:1036E000DB0F9C4665007B0A570F1F436D0DE40FEF
:1036F000760DA146C000B846D200AB1B64457BD016
:10370000002B5FDD002E00D0A4E03E00164300D168
:1037100012E15E1E002E00D09EE1871A4346B84299
:1037200080410125C91A4042091A0B0200D431E137
:1037300049024E0A002E00D16EE1300001F060FA1D
:103740000300083B1F2B00DD61E120223900D21A63
:103750009E40D1409F400E439D4200DD51E15D1BE4
:103760006B1C1F2B00DD7CE12021C91A3D003000BD
:103770008F408840DD40791E8F4131000722284369
:10378000D940002507433A40002A09D00F233B4087
:10379000042B05D03B1DBB42BF417F42C9191F000E
:1037A0000B0200D426E26A1CC64B55056D0D9A42E9
:1037B00000D106E1C44AFF080A40530752023B43C6
:1037C000120B8EE0002B00D0B8E06B1C5B055B0D8C
:1037D000012B00DC30E1871A4346B842B641CB1AD0
:1037E00076429E1B330200D54CE13B003343A1D10E
:1037F00000220024002570E0002B00DCE5E0002E14
:1038000000D183E0AF4EB54260D080263604374306
:10381000B846382B00DC3EE1434613431F007A1EB6
:1038200097413F1887428041404209180B0200D45B
:10383000B0E0A44B01359D4200D1C3E0A24A7B0811
:103840000A4001210F401F435108D30707221F439D
:103850003A4099E79B4EB54238D08026360437432C
:10386000B846382B00DDDCE01F2B00DC30E11E0009
:103870004746203EF740BC46202B04D04026F31A92
:1038800046469E403243170063467A1E97411F43C7
:10389000CCE0002B00D104E24346134300D159E1B0
:1038A0004B07C00818438023C9081B03194208D0DE
:1038B0004546ED081D4204D14346D0085907084348
:1038C0002900420FC9007F4D1143C0004B07CA08B1
:1038D0007C49C00803438D4268D012036D05120B6A
:1038E0006D0D002112031800130B0A0D12051A4367
:1038F000764B2D0513402B435B00E4075B08234305
:1039000019001CBC90469946A246F0BD3E001643E5
:1039100012D05E1E002E00D000E187188742804141
:1039200041444042091801250B0233D5022585E7A1
:1039300064463300414610001D00C7E7002D00D04B
:10394000DAE00C000443F3D05C1C00D19FE15D4C35
:10395000A64200D12FE1DB43382B00DD66E11F2BAF
:1039600000DD83E120240500E41A0F00DD40D9408A
:10397000A0404346A7405B1A441EA04198462F43EF
:103980003843171ABA42924143465242991A644642
:103990003500CAE607223A40002A00D0F6E64B0777
:1039A000CA084849FF083B438D4296D1190011438C
:1039B00000D19EE1802109030A431203120B414DFD
:1039C0008FE71500002200238BE7002B00D0C7E013
:1039D0006B1C5F057F0D012F00DCF1E0394DAB4220
:1039E00000D1B9E085180A00854289414244494224
:1039F00051180722CF076D082F4349083A401D0090
:103A0000C2E607223049ED1A31403A40BCE63E009A
:103A10002838864000279FE6380001F0F1F8203072
:103A20008EE6434613431F007A1E9741C71BB842D8
:103A300080414042091A78E60E003B0006431343DA
:103A4000002D61D1002E00D0F4E0002B00D11BE14D
:103A500064463900100039E71A4FBB427AD0330070
:103A6000FFE630001F3DE840202B03D04021CB1A59
:103A70009E4037437B1E9F41072207433A40002167
:103A8000002589E7171A4346BA42B641591A7642C9
:103A90008E1B64464EE61F2B00DDADE02026474618
:103AA000F61AB740B9461700B246DF404E463E43CD
:103AB00037005646B240561EB24117434246DA40DE
:103AC0008918AEE6FF070000FFFF7FFFFFFF0F80B2
:103AD00020264746F61AB740B9461700B246DF40DF
:103AE0004E463E4337005646B240561EB24117433B
:103AF0004246DA40891A99E77F4CA6425BD080247F
:103B000024045B42214327E7002E0CD1002B00D177
:103B1000CBE0644639001000774DD7E6764FBB42C4
:103B200018D0330075E6002B14D04B07C00818439B
:103B30008023C9081B03194207D0FC081C4204D18A
:103B40007907D0080843E14621004C46420FC900DE
:103B50001143C000684DB9E61D0000220023C0E6F5
:103B6000002D5BD10D00054300D1E2E65D1C00D1C4
:103B7000B0E0614DAE421FD0DB43382B71DC1F2B10
:103B800000DD96E020250F00ED1AAF40B946070092
:103B9000AA46DF404D463D432F005546A840D94038
:103BA000451EA84188440743BF189742924151429D
:103BB000414435003AE6644635004146100085E64A
:103BC0000B000343002D00D063E6002BF5D04346E5
:103BD000134300D17AE68718874280410722414487
:103BE000404209183A400B0200D4D5E6434B013558
:103BF0001940C9E5380069E61E004746203EF740F7
:103C0000BC46202B04D04026F31A46469E40324341
:103C1000170063467A1E97411F4302E6364DAE42B7
:103C2000CAD080252D045B422943A6E70843411EE4
:103C30008841A6E6002B00D148E6871A4346B842E1
:103C4000B641CB1A76429E1B33024BD5171A434618
:103C5000BA429241591A5242891A072264463A409E
:103C600092E501430F00791E8F419DE71C000F0074
:103C7000203CE740202B03D04024E31A994008431E
:103C8000411E884138437CE60022002425E6171AAD
:103C90004346BA429241591A5242891A6446350043
:103CA00043E541461000144D10E680220024120323
:103CB00080E61D000F00203DEF40BC46202B03D0C6
:103CC0004025EB1A9940084307006346781E874158
:103CD0001F4369E7871897429B4141445B42C918DB
:103CE0003500A3E53B003343CED0072231003A40F4
:103CF00052E600231A00F4E5FF070000FFFF7FFFF4
:103D0000F0B54F464646D6468446C0B58046194E65
:103D100018030F034D00000B5C0082463F0B6D0D36
:103D2000C90F9146640DDB0F0120B5420AD0B442A1
:103D300003D0A54201D157450CD01CBC90469946F2
:103D4000A246F0BD66463E43F7D1AC42F5D154469B
:103D50001443F2D10120C845EFD1994207D0002D7C
:103D6000EBD163461F433800471EB841E5E700200A
:103D7000E3E7C046FF070000F0B54F464646D6468B
:103D80004D00C0B50E03C90F8A462C491F035C00C5
:103D90008046360B6D0D91463F0B640DDB0F8D4257
:103DA0001ED08C4216D0002D1ED130438446002CEC
:103DB00001D13A4323D06246002A1AD09A4529D02D
:103DC000514602200139084001381CBC90469946F2
:103DD000A246F0BD39001143E5D002204042F4E78D
:103DE0003043FAD1AC420FD0002C0FD13A43E7D088
:103DF0000CE00122013B934318000130E5E76346E4
:103E00000020002BE1D0DBE73A43E6D19A45D7D139
:103E1000A542D5DCA54205DBBE42D1D808D00020A2
:103E2000BE42D2D250460123013898430130CCE73C
:103E3000C845C5D80020C845F4D3C6E7FF07000031
:103E4000F0B54F464646D6464D00C0B50E03C90FE5
:103E50008A462E491F035C008046360B6D0D914645
:103E60003F0B640DDB0F8D4218D08C4211D0002D1A
:103E700018D130438446002C1ED13A431CD16346EE
:103E80000020002B30D05146022001390840013873
:103E90002AE039001143EAD0022025E03043FBD16B
:103EA000AC4226D0002C26D13A4324D151460220E0
:103EB00001390840013817E06246002A0FD09A45C0
:103EC000E1D1A54205DBBE42DDD819D00020BE42BB
:103ED0000AD25046012301389843013004E0012200
:103EE000013B9343180001301CBC90469946A24602
:103EF000F0BD3A43D0D19A45C5D1A542C3DCE0E735
:103F0000C845C0D80020C845E3D3EDE7FF0700004F
:103F1000F0B55746DE464E464546E0B583460600B8
:103F20000F03480087B092461D003F0B400DCC0F99
:103F3000002800D16FE0DE4B984238D08023FF008C
:103F40001B041F43730F3B430193DA4B0027994631
:103F500000239B46F60081442B0369001B0B52464D
:103F60009846490DED0F002900D185E0D04B9942CC
:103F700000D173E04346DA0080231B04134352460A
:103F8000CC48520F84461343524600206144D2006D
:103F900089442100694000918C46012149448A46A8
:103FA0000F2F00D990E0C449BF00CF59BF465B46F0
:103FB0003B43019300D06AE1022308270026814693
:103FC0009B46C9E732005846019B61460091022892
:103FD00000D175E0032800D1FEE1012800D02CE1DA
:103FE00000230027002600253F032A0D3F0BB3487E
:103FF00012053A4302401B051343009A5B00D107A8
:104000005B080B433000190007B03CBC9046994652
:10401000A246AB46F0BD5B463B43019300D12FE186
:10402000002F00D1A5E1380000F0EAFD03000B3BB2
:104030001C2B00DD96E11D22D31A5A460100DA40FE
:104040005E4608398F4013008E403B4301939C4BE2
:1040500000271B1A994600239B467DE7414653469D
:104060000B4393498C46E144002B00D01AE1022215
:104070000220174300228CE7134300D10DE1434691
:10408000002B00D181E1404600F0BAFD02000B3A5E
:104090001C2A00DD72E10100434608398B40984636
:1040A0001D239A1A5346D3401A00434613435246DF
:1040B0008A404946081A824989468144002068E7B7
:1040C0007B4B002700268EE7140C1204120C110003
:1040D000370C3604350C794328008C462E0060439B
:1040E0006044834656432100300C8046584679434D
:1040F00040440291844506D98846802149028C4675
:10410000E044414602913604010C360C00048B4613
:1041100081191E0C1B041B0C0391190079438C465A
:10412000280075436544A8465843050C4544774329
:10413000A94203D9802149028C466744290C8C4648
:1041400039000004000C2D042D186144AB44059186
:104150005946049101990F043F0C080C3900514352
:104160004243904602008C46090C8B4662437C43D6
:1041700044445C44A04503D9802149028846424416
:10418000210C884661460904090C8C4639005943C4
:10419000434370437E430F0CF6182404BE19644455
:1041A00042448C46B34203D980235B029846404484
:1041B000029B61469846049B370443449B46AB45AB
:1041C000AD416B420D0405992D0C8C467F19674457
:1041D000FD18A8465D462D19A542A44193466442A8
:1041E000A446C344DC448F42BF4198459B4193455C
:1041F0009241A445A4415B427F421F43360C524288
:104200006442BF192243BF18624638184302D20DD8
:10421000039913436A020A43501E82416146ED0D21
:104220002A434E023243D90100D4B3E0012650089C
:1042300032400243DE0732435B08224C5444002CD8
:1042400062DD510709D00F201040042805D0101D51
:104250009042924152429B180200D90104D5802419
:104260001948E400034054441848844200DD27E71D
:104270005E075B02D2081F0B630516435B0DB2E6B7
:10428000002399460133042700269B4664E6032356
:10429000019781460C279B465EE6012201201743C9
:1042A000002276E6032303201F43434671E6C046FF
:1042B000FF07000001FCFFFFFC4C0010FFFF0F8018
:1042C0000DFCFFFFFF030000FFFFFFFEFE070000E5
:1042D0000023802700933F030026434B83E6019B86
:1042E0003200A446584670E6AC466EE68027019937
:1042F0003F0339422DD03B422BD11F433F033F0B9D
:1043000000951600384B6EE601252D1B382D00DD7B
:1043100066E61F2D40DC35481C00504416008240E4
:104320008440EE40501E824134431443EB40620708
:1043300009D00F222240042A05D02200141D9442E5
:10434000804140421B181A023ED501230027002657
:1043500049E68027019B3F031F433F033F0B009427
:10436000214B40E603005A46283B9A400026019222
:104370006DE6584600F044FC203057E603005246F4
:10438000283B9A401300002293E6504600F038FC88
:1043900020307BE6CA4650E71F201E004042041B27
:1043A000E640202D03D0124C5444A3401A43501E23
:1043B0008241324307260027164009D00F200023F0
:1043C000104014000428B9D122005E075B021F0BC5
:1043D000D2081643002306E680273F031F433F030E
:1043E0003F0B1600004BFEE5FF0700001E04000017
:1043F0003E040000F8B557464E464546DE460C00E2
:104400000903E0B5490A460F5F0031431E03DB0F85
:10441000760A9B46530F3343C84E6500C000E40F35
:10442000D2006D0DA24681467F0D9C469046B74254
:1044300000D1B9E05B46012673409B46EE1BA345C5
:1044400000D183E0002E63DD002F00D0B1E0634691
:10445000134300D123E1731E002B00D0BAE1861A6A
:104460006346B04280410125C91A4042091A0B0235
:1044700000D447E149024B0A98464346002B00D13D
:1044800089E1404600F0BCFB0300083B1F2B00DD28
:104490007CE120223000D21A4146D04099400200EF
:1044A0009E400A439D4200DD6AE15D1B6B1C1F2B91
:1044B00000DD94E1202110003500C91A8E40DA4059
:1044C0008840DD40711E8E411100072228430025DF
:1044D00006433240002A09D00F233340042B05D075
:1044E000331DB342B641764289191E000B0200D437
:1044F0003DE26A1C914B55056D0D9A4200D119E1C0
:104500008F4AF6080A40570752023743120B9BE0C6
:10451000002E00D0C5E06E1C7605760D012E00DC65
:1045200048E16746861ACB1BB042BF417F42B8467E
:104530001F004346FF1A3B00B8461B0200D55FE14F
:1045400037439AD100220024002579E0002E00DCB8
:10455000FAE0002F00D18DE0784B9D4267D0802398
:1045600067461B041F43BC46382E00DC52E16346FD
:1045700013435A1E93411E18864280414042091837
:104580000B0200D4BEE06D4B01359D4200D1D2E05C
:104590006B4A73080A4001210E401E435108D3079D
:1045A00007221E43324095E71E00164300D045E720
:1045B00040E7624B9D423AD0802367461B041F436D
:1045C000BC46382E00DDEBE01F2E00DC3AE1330064
:1045D0006746203BDF403B00202E05D04027BF1B15
:1045E0006646BE40324390464646721E964133436D
:1045F000DAE0002B00D114E26346134300D168E1F6
:1046000080234E07C008C9081B030643194208D07F
:104610006046C008184204D163460100D2085E0714
:104620001643F3009946C900720F444D11434B469F
:10463000DE08424B4F073743CA089D4200D16EE067
:1046400012036D05120B6D0D00211203130B0A0DE1
:1046500012051A433B4B2D0513402B435B00E40727
:104660005B082343380019003CBC90469946A2469B
:10467000AB46F8BD6346134311D0731E002B00D028
:1046800007E18618864280416144404209180125AD
:104690000B0237D502257BE73E0061469146350087
:1046A000C5E75C46002D00D0E1E00B000343F3D0EA
:1046B000731C00D1ACE1214B9F4200D13AE1F3439E
:1046C000382B00DD6FE11F2B00DD8CE120250E0073
:1046D000ED1AAE40B0460600AA46DE4045463543D8
:1046E0002E005546D940A8406346451EA8415B1A96
:1046F0009C463043161AB242924163465242991A7E
:104700003D00B4E607223240002A00D0E4E60B4B1D
:10471000F6084F073743CA089D4200D090E73B0098
:10472000134300D1A6E180231B031A431203120B8B
:10473000024D89E715000022002785E7FF070000EA
:10474000FFFF7FFFFFFF0F80002E00D0C7E06B1C34
:104750005E05760D012E00DCF0E0C84DAB4200D1C5
:10476000B9E085180A0085428941624449425118DE
:104770000722CE076D082E43490832401D00A9E6E6
:10478000BF49ED1A114007223240A3E63200283813
:104790008240002686E6300000F032FA203073E6D0
:1047A000634613435A1E9341C61AB04280414042A9
:1047B000091A5CE60E00674606431743002D5ED1DA
:1047C000002E00D0F3E0002F00D11EE15C466146D0
:1047D00091462CE7A94FBE427BD01E00F1E61000A7
:1047E0001F3DE840202B03D04021CB1A9A401643AE
:1047F000731E9E410722064332400021002583E7B5
:10480000161A6346B2428041591A40420B1A984622
:104810005C4632E61F2E00DDABE02027BB1B9A462C
:1048200063465746BB40994613004F46F3401F432B
:104830003B005746BA40571EBA4113436246F24006
:10484000891898E62027BB1B9A4663465746BB400B
:10485000994613004F46F3401F433B005746BA406A
:10486000571EBA4113436246F240891A9CE7834BB4
:104870009F425FD080252D047342294320E7002EFC
:104880000CD1002F00D1D0E05C46614691467B4DB3
:10489000CDE67A4FBE421CD01E0065E6002F18D030
:1048A000C0084E0706438020C9080003014208D013
:1048B0006346DC08044204D12100DA46D2085E07D0
:1048C0001643F300994601245346C900720F114361
:1048D0001C406A4DABE61D0000220027B4E6002D07
:1048E00059D10B00034300D1D6E6731C00D1B2E0CE
:1048F000624B9F421ED0F343382B6FDC1F2B00DD31
:1049000097E020250E00ED1AAE40B0460600AA46FC
:10491000DE40454635432E005546A840D940451E49
:10492000A8418C440643B6189642924151426144D4
:104930003D0025E63D006146914678E60B000343C5
:10494000002D00D055E6002BF5D06346134300D16F
:104950006DE6861886428041614440420918002273
:104960000B0200D4D0E6464B01351940B2E5B14602
:104970005DE633006746203BDF403B00202E05D03C
:104980004027BF1B6646BE40324390464646721ED5
:1049900096413343EFE5394B9F42CBD080252D0420
:1049A00073422943A8E70843411E8841A2E6002F2D
:1049B00000D13CE66346861ACF1AB0429B415B4267
:1049C000FB1A98461B024ED5161A6346B242924114
:1049D000591A5242891A5C4600227BE501430E00B7
:1049E000711E8E419FE71D000E00203DEE40B04637
:1049F000202B04D04025EB1A9940084381464846B5
:104A00004346411E8841184374E60022002417E6FD
:104A1000161A6346B2429241591A5242891A3D000F
:104A200025E561469146154D01E6802200241203DA
:104A300079E61D000E00203DEE40B046202B04D04C
:104A40004025EB1A9940084381464E464346711E65
:104A50008E411E4367E7861896429B4161445B4244
:104A6000C9183D008CE547463743CED00722414662
:104A7000324049E600273A00E6E5C046FF0700005D
:104A8000FFFF7FFF70B500282DD0C317C5185D400C
:104A9000C40F280000F0B4F8154B1B1A5B055B0D22
:104AA0000A2815DD0B38854000222D032D0B00212F
:104AB00010002D030A0D2D0B12052A430D4D1B0569
:104AC0002A4013435B00E4075B082343190070BDD1
:104AD00002002900153291400A000B21081AC54036
:104AE0002D032D0BE3E70024002300250022DEE741
:104AF0001E040000FFFF0F8010B5041E25D000F03B
:104B00007FF8144B1B1A5B055B0D0A2812DD0B386E
:104B1000844000222403240B0021100024030A0DEA
:104B2000240B120522430C4C1B05224013435B004F
:104B3000590810BD02002100153291400A000B21D6
:104B4000081AC4402403240BE6E7002300240022B3
:104B5000E2E7C0461E040000FFFF0F804100090E7F
:104B60004B1C70B5DBB24602750AC40F012B14DD75
:104B7000E0239B006D07360BCB1800210A0D28009F
:104B800012051C4D32435B052A405B0813435B0052
:104B9000E4075B082343190070BD002914D1002DE0
:104BA0001ED0280000F02CF80A281CDC0B232A0059
:104BB0001B1ADA40030015339D400F4B12031B1ADA
:104BC0005B05160B5B0DD8E7002D06D0320B802657
:104BD00036036D071643094BCFE7084B0026CCE799
:104BE00000230026C9E703002A000B3B9A4000255A
:104BF000E3E7C046FFFF0F8089030000FF070000C6
:104C00001C2101231B04984201D3000C10391B0AFC
:104C1000984201D3000A08391B09984201D30009C0
:104C2000043902A2105C40187047C0460403020217
:104C300001010101000000000000000010B5002982
:104C400003D1FFF7DDFF203002E0081CFFF7D8FF9B
:104C500010BDC04670B500220C4B04000D00FEF7DD
:104C6000C3FB002804D12000290000F011F870BD1A
:104C7000064B002220002900FFF7BCFB00F008F8DB
:104C800080231B069C466044F1E7C0460000E041DB
:104C900030B5144D0A034B00120B5B0DC90F0024F5
:104CA000AB4211DD104CA34210DC8024640322438C
:104CB0000E4CE41A1F2C0CDD0D48C31ADA40130009
:104CC0005C42002900D11C00200030BD094BCC18EB
:104CD000FAE7094DE040AC4663449A4013000343B1
:104CE000EEE7C046FE0300001D0400003304000090
:104CF00013040000FFFFFF7FEDFBFFFFC840001023
:104D0000CA3F0010CA3F0010E8420010C43F001024
:104D1000C43F0010D0420010E8420010C43F001011
:104D2000D0420010C43F0010E8420010DE420010E4
:104D3000DE420010DE420010EC4200100FB4F0B56D
:104D40005746DE464E464546E0B595B01EAE08CE07
:104D500000249A46002357469B4607960B933B78C0
:104D6000002B12D07A1C9046252B20D00BAD621C54
:104D70002C190B9223711F2A24D8012347469C46E5
:104D80003B78E3441400002BECD1002C04D021002C
:104D90000CA81BF0F9FF8344584615B03CBC904664
:104DA0009946A246AB46F0BC08BC04B018477B78D5
:104DB000253BDBB2532B01D900F09EFC854A9B00BA
:104DC000D3589F46002320210CA80B931BF0DCFF37
:104DD0000B9AD2E70023804A0BAD984691462A00F1
:104DE0004546B04616003033621C341932602371D8
:104DF0001F2A0BD84B4601355B5D002B12D01400E7
:104E0000621C3419326023711F2AF3D90023202138
:104E10000CA833601BF0B8FF4B4601355B5D326870
:104E2000002BECD133004646A8461D00331D0193EC
:104E300008AB924600210C22180034689946FBF713
:104E4000A4FC0F231A00494664482240825CC344F4
:104E50000A7003925246984621090132002901D175
:104E600000F0D7FD4E461940415C7170260A01D111
:104E700000F010FE1E404B46865D9E70230B01D154
:104E800000F031FE1900434619404B46415CD97091
:104E9000230C01D100F04BFE1E0043461E404B4642
:104EA000865D1E71230D01D100F04AFE19004346B4
:104EB00019404B46415C5971230E01D100F076FE3A
:104EC00046461E404B46865D240F9E7101D100F080
:104ED00090FE015DD9710623029302339846534632
:104EE000EB182A6019711F2A01D900F06BFD541CC0
:104EF000AA182C6016711F2C01D900F0A6FC029B89
:104F0000002B01D100F05CFC4346DE1E4B469A5D4F
:104F1000631C2C192B6022711F2B01D900F014FD8A
:104F2000002E01D100F078FC4246161F4A46925DE1
:104F30005C1CEB182C601A711F2C01D900F02FFD9E
:104F4000002E01D100F092FC43465E1F4B469A5D55
:104F5000631C2C192B6022711F2B01D900F071FDED
:104F6000002E01D100F00AFD4246961F4A46925D8E
:104F70005C1CEB182C601A711F2C06D90023202111
:104F80000CA82B601BF000FF2C68002E01D100F054
:104F900017FD46464B46073E9A5D631C2C192B6055
:104FA00022711F2B01D900F077FC002E01D100F0F7
:104FB0005AFD039A5C1CEB182C601A7108261F2CF2
:104FC00000D80FE2002320210CA82B601BF0DCFE90
:104FD0002C6807E2B85C0010285E0010085E001024
:104FE000331D029308AB180036680C220021994645
:104FF000FBF7CBFB631C9A46002E00DAA6E30023E6
:10500000B046012603930BAD0A214046FEF7C8F8CF
:105010004A463031CBB213700A2140460593FEF761
:1050200039F8002801D100F0E9FC0A21FEF7B8F8B0
:105030004B463031CEB25E7064214046FEF72AF80E
:10504000002801D100F017FD0A21FEF7A9F8303140
:10505000CBB24A46FA219370890040460193FEF78D
:1050600019F8002801D100F02DFD0A21FEF798F86B
:105070004B463031CEB2DE70E4494046FEF70AF8C6
:10508000002801D100F049FD0A21FEF789F84A46BF
:105090003031CBB21371DE4940460193FDF7FAFF80
:1050A000002801D100F055FD0A21FEF779F84B46A2
:1050B0003031CEB25E71D7494046FDF7EBFF002894
:1050C00001D100F05BFD0A21FEF76AF84A46303153
:1050D000CBB29371D04940460193FDF7DBFF002826
:1050E00001D100F075FD0A21FEF75AF84B46303128
:1050F000CEB2DE71C9494046FDF7CCFF002801D190
:1051000000F091FD0A21FEF74BF84A463031CBB250
:105110001372C34940460193FDF7BCFF002801D13B
:1051200000F0A0FD4B463030C6B25E7208230493F7
:105130000233984653462C192B6026711F2B01D938
:1051400000F052FC5346019A5C1CEB182C601A715B
:105150001F2C00D971E3049B002B01D100F0CCFC83
:105160004346DE1E4B469A5D631C2C192B60227150
:105170001F2B00D9F1E3002E01D100F0C9FC4246FB
:10518000161F4A46925D5C1CEB182C601A711F2C8E
:1051900001D900F0FBFB002E01D100F0E3FC4346F7
:1051A0005E1F4B469A5D631C2C192B6022711F2BCE
:1051B00001D900F04FFC002E01D100F0FDFC424669
:1051C000961F4A46925D5C1CEB182C601A711F2CCE
:1051D00006D9002320210CA82B601BF0D5FD2C68DC
:1051E000002E01D100F0EDFC4346DE1F4B469A5DD8
:1051F000631C2C192B6022711F2B00D955E3002E44
:1052000001D100F016FD46464A46083E925D5C1C00
:10521000EB182C601A711F2C00D966E3002E01D107
:1052200000F029FD46464B46093E9A5D631C2C1949
:105230002B6022711F2B00D95FE3002E00D16CE39D
:10524000059A5C1CEB182C601A711F2C01D900F018
:105250009BFC039E0A36B3440237029E7FE5331D52
:1052600032780BAD9846631C2C190B9322711F2BBF
:1052700000D97DE2012294461C00E34446460237F1
:105280006DE5331D019308AB00210C221800356831
:105290009946FBF77AFA63490F231A002A408A5C81
:1052A000984692464A46504610702809621C0028CB
:1052B00000D19FE24E461840085C70702E0A00D163
:1052C000ADE21E404B468E5D9E702B0B00D12BE352
:1052D0001800434618404B46085CD8702B0C00D190
:1052E0004FE31E0043461E404B468E5D1E712B0D44
:1052F00000D1BDE21800434618404B46085C587187
:105300002B0E00D1B2E346461E404B468E5D2D0F5C
:105310009E7100D1CEE3485DD8710623029302331B
:1053200098460BAD2C190B9220711F2A00D959E217
:10533000541CAA182C6016711F2C00D928E2029B5D
:10534000002B00D13CE24346DE1E4B469A5D631CB7
:105350002C192B6022711F2B00D921E2002E00D1C5
:105360005AE24246161F4A46925D5C1CEB182C60BE
:105370001A711F2C00D91BE2002E00D176E24346A1
:105380005E1F4B469A5D631C2C192B6022711F2BEC
:1053900000D939E2002E00D1F0E24246961F4A467B
:1053A000925D5C1CEB182C601A711F2C00D93CE23A
:1053B000002E00D104E346464B46073E9A5D631C2F
:1053C0002C192B6022711F2B00D9B5E2002E00D1C1
:1053D00049E352465C1CEB182C601A7108261F2CFE
:1053E00000D9EFE5B3440237019EB8E425220BADA6
:1053F000631C2C190B9322711F2B00D9C0E10122D1
:1054000094461C00E3440237A9E4C046102700007C
:10541000A086010040420F008096980000E1F5054B
:1054200000CA9A3B185E0010331D019308AB00219F
:105430000C22180035689946FBF7A7F9E1492BE7DC
:10544000331D029308AB994635680C2218000021E1
:10545000FBF79BF90A212800FDF7A2FE4A463031EE
:10546000CBB213700A2128000493FDF713FE631CCE
:105470009A46002800D103E20A21FDF791FE4B462F
:105480003031CEB25E7064212800FDF703FE0028A3
:1054900000D1F8E20A21FDF783FE3031CBB2984605
:1054A000FA214B46424689009A702800FDF7F2FD2A
:1054B000002800D10FE30A21FDF772FE4B46303180
:1054C000CEB2DE70C0492800FDF7E4FD002800D10F
:1054D00019E30A21FDF764FE3031CBB298464B4602
:1054E0004246BA491A712800FDF7D4FD002800D1C0
:1054F0003CE30A21FDF754FE4B463031CEB25E71DB
:10550000B3492800FDF7C6FD002800D149E30A2170
:10551000FDF746FE3031CBB298464B464246AD4988
:105520009A712800FDF7B6FD002800D159E30A2141
:10553000FDF736FE4B463031CEB2DE71A64928006B
:10554000FDF7A8FD002800D178E30A21FDF728FE29
:105550003031CBB298464B464246A0491A722800D9
:10556000FDF798FD002800D171E34B463030C6B2FC
:105570005E72082303930233019353460BAD2C193B
:105580000B9326711F2B00D925E2534642465C1C23
:10559000EB182C601A711F2C00D95FE1039B002BC4
:1055A00000D1ADE2019BDE1E4B469A5D631C2C19B7
:1055B0002B6022711F2B00D9D8E1002E00D1B2E25E
:1055C000019A5C1C161F4A46925DEB182C601A71FA
:1055D0001F2C00D9ECE1002E00D1AEE2019B5E1F32
:1055E0004B469A5D631C2C192B6022711F2B00D92E
:1055F0001FE2002E00D1D0E2019A5C1C961F4A46A1
:10560000925DEB182C601A711F2C06D90023202103
:105610000CA82B601BF0B8FB2C68002E00D1D4E244
:10562000019BDE1F4B469A5D631C2C192B60227177
:105630001F2B00D941E1002E00D104E34A46019E10
:105640005C1C083E925DEB182C601A711F2C00D96F
:1056500043E1002E00D102E34B46019E093E9A5DD4
:10566000631C2C192B6022711F2B00D94DE1002ED9
:1056700000D156E1049A5C1CEB182C601A710A26C2
:105680001F2C00D8E7E5002320210CA82B601BF07D
:105690007BFB2C68DFE5331D994633681A78984602
:1056A000002A25D000239A463B000BAD474698467A
:1056B000631C2C1900262B6022711F2B0AD801367F
:1056C000BA5D002A11D01C00631C2C192B602271BA
:1056D0001F2BF4D9534620210CA801362B601BF058
:1056E00053FBBA5D2B68002AEDD147461C00B3443A
:1056F0004E460237FFF733FB394B5B2299460023B6
:105700000BAD9A46631C2C1900272B6022711F2BAE
:105710000BD84A460137D25D002A12D01C00631C08
:105720002C192B6022711F2BF3D9534620210CA872
:105730002B601BF029FB4A460137D25D2B68002AFB
:10574000ECD1BB441C004746FFF709FB0B932D230C
:105750000BAD2C19237153461F2B00D9A1E17342C5
:10576000984601239C4654460226E24403934BE4A8
:10577000002320210CA80B931BF006FB0B9B79E563
:10578000002320210CA80B931BF0FEFA0B9B36E69E
:10579000002320210CA82B601BF0F6FA2C68CEE524
:1057A000002320210CA82B601BF0EEFA2B68D5E516
:1057B000002320210CA82B601BF0E6FA2C68DBE507
:1057C00002260FE6085E001010270000A0860100E8
:1057D00040420F008096980000E1F50500CA9A3B10
:1057E0002C5E0010002320210CA80B931BF0CCFA98
:1057F0000B9A9DE553460BAD2C190B9223711F2A72
:1058000063D814000126EDE5002320210CA82B60AD
:105810001BF0BAFA2B68BDE51C000326E2E5002365
:1058200002930233564698467BE5002320210CA8BC
:105830002B601BF0A9FA2C68BAE5002320210CA8E4
:105840002B601BF0A1FA2C6885E4002320210CA812
:105850002B601BF099FA2C68FFF751FB00232021E5
:105860000CA82B601BF090FA2C6897E60426B9E58B
:10587000030030001E00032302930233984650E5D4
:105880000BAD0B93049B2C19237153461F2B00D98E
:10589000C0E154460126DEE4002320210CA82B6041
:1058A0001BF072FA2B68FFF780FB002320210CA865
:1058B0002B601BF069FA2B68A1E4002320210CA8BF
:1058C0002B601BF061FA2B68B5E60B9020210CA829
:1058D0001BF05AFA01260B9C84E5002320210CA81A
:1058E0002B601BF051FA2C68B3E6002320210CA892
:1058F0002B601BF049FA2C6890E4002320210CA8AF
:105900002B601BF041FA2B6897E4002320210CA8A0
:105910002B601BF039FA2B68A9E6039E1C000936A0
:1059200099E41C00092696E4030030001E000123C0
:10593000029302339846F4E4002320210CA82B6044
:105940001BF022FA2B6841E5002320210CA82B60D4
:105950001BF01AFA2B68FFF7E3FA002320210CA8AA
:105960002B601BF011FA2B68FFF705FC00232021A8
:105970000CA82B601BF008FA2B681EE61C000526FD
:1059800030E50223029302339846CAE40023202123
:105990000CA82B601BF0F8F92C68FFF7FCFB002328
:1059A00020210CA82B601BF0EFF92C68FFF7C8FA38
:1059B000002320210CA82B601BF0E6F92C680AE6D6
:1059C00006260FE5002320210CA82B601BF0DCF934
:1059D0002A68FFF78CFA002320210CA80B931BF0F8
:1059E000D3F90B9B9A46D0E5002320210CA82B600D
:1059F0001BF0CAF92B689A46FFF7A4FB53462B60AD
:105A0000059B2C19237153461F2B00D9FAE05446ED
:105A100021E453460398EB182A6018711F2A00D816
:105A2000EFE629600CA820211BF0AEF901262C68B6
:105A3000D8E4002320210CA82B601BF0A5F92B68CB
:105A4000D7E5002320210CA82B601BF09DF92B68C3
:105A5000FFF786FA002320210CA82B601BF094F995
:105A60002B68FFF7A8FB1C000726BBE40423029366
:105A70000233984655E4059B0193002304930233B7
:105A80009846FFF757FB049B984600230393023385
:105A9000019372E5002302930233039E9846FFF7B9
:105AA0001EFA002320210CA80B931BF06DF90B9B11
:105AB0009A4654E6030030001E0005230293023389
:105AC00098462EE43300019E019301230493023390
:105AD0009846FFF72FFB3300464698460123039371
:105AE0000233019349E50B0031001E0001230293AC
:105AF00002339846FFF7F3F9039E0236FFF7ABFB3C
:105B00000226FFF7A8FB022303930233019334E537
:105B1000039E1C000336FFF79EFB0223049302330F
:105B20009846FFF707FB1C000326FFF794FB0223B0
:105B3000029302339846FFF7D2F90426FFF78BFB56
:105B40000B0031001E000323029302339846FFF737
:105B5000C6F93300019E0193032304930233984650
:105B6000FFF7E8FA039E0436FFF775FB330046465D
:105B700098460323039302330193FEE40423049322
:105B800002339846FFF7D6FA002320210CA82B6099
:105B90001BF0FAF82C68FFF75CFB1C000526FFF7EA
:105BA0005AFB0423039302330193E6E40423029394
:105BB00002339846FFF793F9039E1C000536FFF762
:105BC0004AFB039E0636FFF746FB0626FFF743FB1C
:105BD0003300019E01930523049302339846FFF797
:105BE000A9FA3300464698460523039302330193EE
:105BF000C3E40B0031001E000523029302339846D4
:105C0000FFF76DF9286020210CA81BF0BDF82C6867
:105C1000FFF721FB0B9020210CA81BF0B5F8012603
:105C20000B9CFFF718FB0623049302339846FFF7FB
:105C300081FA039E1C000736FFF70DFB0623039332
:105C40000233019399E41C000726FFF704FB33009D
:105C50004646984607230393023301938DE40826B2
:105C6000FFF7F9FA3300019E0193072304930233EF
:105C70009846FFF75FFA039E0836FFF7ECFAC04636
:105C800010DF70470FDF704700B585B00293079BA8
:105C90000191039301A9069BFFF7F2FF05B000BD38
:105CA00011DF70470ADF704712DF704714DF70475B
:105CB00016DF704717DF7047EC530010F8560010DE
:105CC000F8560010F8560010F8560010F85600105C
:105CD000F8560010F8560010F8560010F85600104C
:105CE000F8560010F8560010F8560010F85600103C
:105CF000F8560010F8560010F8560010F85600102C
:105D0000F8560010F8560010F8560010F85600101B
:105D1000F8560010F8560010F8560010F85600100B
:105D2000F8560010F8560010F8560010F8560010FB
:105D3000F8560010F8560010F8560010F8560010EB
:105D4000F8560010F8560010F8560010F8560010DB
:105D5000F8560010F8560010F8560010F8560010CB
:105D6000F8560010F8560010F8560010F8560010BB
:105D7000F8560010F8560010F8560010F8560010AB
:105D8000F856001082520010F8560010F856001015
:105D9000F8560010F8560010F8560010F85600108B
:105DA000F8560010F8560010F8560010F85600107B
:105DB0005E520010E04F0010F8560010F856001028
:105DC000F8560010F8560010E04F0010F85600107A
:105DD000F8560010F8560010F8560010F85600104B
:105DE000F8560010D44D0010F8560010F856001068
:105DF00096560010F856001040540010F856001047
:105E0000F85600102854001030313233343536370C
:105E10003839616263646566303132333435363720
:105E20003839414243444546307800005B556E7333
:105E30007570706F72746564205461675D00000056
:105E4000F0B5CE46474680B58DB000F00DF900287C
:105E500025D106AB81279846734C08AE7F4280213E
:105E6000012009064042FFF71DFF0300C20676D459
:105E7000820645D4420614D4020600D59BE0802059
:105E8000400003420CD02100FFF70EFF2568AB1C39
:105E900000DAC5E0002D00DBB1E00021A6E0FEE75E
:105EA000FEE721004020FFF7FFFE21688B1C00DA8F
:105EB000A4E00029F1DB00D0A0E023696068082B92
:105EC00000D0AFE0226A0C2A00D0ABE04246FFF7D8
:105ED000EDFE2369984200D0A4E0069A079B009645
