:020000041000EA
:1004000000080108910400100D0000008946021048
:1004100000000000000000000000000000000000DC
:100420000000000000000000000000007146021003
:10043000000000000000000035460210FD0400101E
:10044000FD04001091460210FD040010FD04001090
:10045000FD040010FD040010FD040010054502100D
:10046000FD040010FD040010FD040010FD04001048
:10047000FD040010FD040010FD040010FD04001038
:100480007047EFF3108072B6704780F310887047A2
:10049000FFF7F6FF72B6144C144DAC4209DA21682E
:1004A0006268A368043B02DBC858D050FAE70C34FA
:1004B000F3E70F4B0F4CA34208DA19685A68002083
:1004C000043A01DB8850FBE70833F4E724F0E8F84E
:1004D000EFF314800221084380F31488064880F368
:1004E000098820F0F3FFFEE71C0500107C050010D2
:1004F0007C050010D405001000100108FEE7FEE79F
:1005000000B504207146084202D0EFF3098001E0F3
:0C051000EFF30880043023F05FF9FEE7F1
:10051C00C065021080350208F000000080650210F2
:10052C0000000008000000008065021000100108A7
:10053C000000000080650210802C01080000000003
:10054C00806502100034010840000000C0650210F4
:10055C000024020800000000C06502108028020878
:10056C0000000000B066021000F002081006000047
:10057C0070360208FC130000001001084012000045
:10058C0080220108000A0000802C010840020000B3
:10059C00002F0108000500004034010880CF000046
:1005AC0000040208002000000024020820000000C3
:1005BC008024020800040000802802086002000069
:0805CC00002B0208800A000068
:0805D40000000000000000001F
:1005DC00000000000000000000000000000000000F
:1005EC0000000000000000000000000000000000FF
:1006000010B5034B0A000100186800F056F810BD41
:1006100004360208084B10B50400002B02D000215C
:1006200000E000BF054B1868836A002B00D0984794
:10063000200025F08BF8C046000000001C160010BA
:1006400010B5034B0100186800F046F810BDC04615
:100650000436020830B50024A24201D1002005E092
:10066000035D651C0C5DA34201D0181B30BD2C003E
:10067000F2E7002310B59A4200D110BDCC5CC454FF
:100680000133F8E710B5884202D98B18984203D39A
:10069000002307E08B5C8354013AFBD210BDCC5C95
:1006A000C45401339A42FAD1F8E703001218934276
:1006B00000D1704719700133F9E74A4370B5110052
:1006C000140000F053F8051E03D022000021FFF7AC
:1006D000ECFF280070BD000070B50500002910D0A7
:1006E0000C1F2368002B00DAE418280000F016FC29
:1006F0001D4A1368002B05D163601460280000F0C8
:100700000EFC70BDA34209D9216860188342F3D161
:1007100018685B6841182160EEE713005A68002AE8
:1007200001D0A242F9D919685818A0420BD120680B
:100730000918581819608242E0D1106852684118AF
:1007400019605A60DAE7A04202D90C232B60D5E782
:1007500021686018824203D11068526841182160F4
:1007600062605C60CAE7C046584A0208032370B55D
:10077000CD1C9D43083506000C2D1ED20C25A94228
:100780001DD8300000F0CAFB254A1468210000295A
:1007900019D1244C2368002B03D1300000F0C8F895
:1007A00020602900300000F0C3F8431C2BD10C233B
:1007B0003000336000F0B3FB03E0002DDFDA0C23E0
:1007C0003360002070BD0B685B1B19D40B2B03D961
:1007D0000B60CC18256003E04B688C420DD1136090
:1007E000300000F09CFB200007220B30231D9043BB
:1007F000C31AE7D05A42E250E4E763600C00EFE727
:100800000C004968C3E70323C41C9C43A042E1D009
:10081000211A300000F08CF8431CDBD1C7E7C0463A
:10082000584A02085C4A02080FB40B4B13B51C6807
:10083000002C05D0A369002B02D1200000F06EFA35
:1008400005AB049AA1682000019300F091FB16BC4F
:1008500008BC04B01847C0460436020870B505004D
:100860000E00002804D08369002B01D100F056FA55
:10087000AB69AC68002B02D1280000F04FFA244B82
:100880009C420FD16C68A3891B0702D52369002BFA
:100890001FD12100280000F0D3F8002819D0012032
:1008A000404270BD1B4B9C4201D1AC68EBE71A4B38
:1008B0009C42E8D1EC68E6E70136A360002B04DA3D
:1008C000A2699A4216DC0A2914D023685A1C2260B5
:1008D0001970A3683178013B0029EDD1A360002B8A
:1008E0000FDA22000A31280000F054F8431CD6D059
:1008F0000A20D6E72200280000F04CF8431CE8D17B
:10090000CDE70A2023685A1C22601870C9E7C04648
:1009100040160010601600102016001010B5034B92
:1009200001001868FFF79AFF10BDC04604360208A0
:10093000002370B5064C05000800236024F0F8FE83
:10094000431C03D12368002B00D02B6070BDC04630
:10095000684A02080023C25C0133002AFBD1581EFA
:10096000704710B50378002B0FD10B785A425341D2
:100970005B42184010BD0023CA5C002AFAD0C45C58
:10098000944201D10133F7E701300378002BF2D113
:100990001800EFE7F8B505000E001400002804D099
:1009A0008369002B01D100F0B9F9224B9C422DD173
:1009B0006C68A369A360A3891B0731D52369002B49
:1009C0002ED023682269F7B2981A6369F6B283427F
:1009D00005DC2100280000F033F9002826D1A368A7
:1009E0000130013BA36023685A1C22601F706369B9
:1009F000834204D0A389DB071AD50A2E18D121001F
:100A0000280000F01DF9002812D00FE00A4B9C428C
:100A100001D1AC68CDE7094B9C42CAD1EC68C8E76C
:100A20002100280000F00CF80028CAD001267642E8
:100A30003000F8BD4016001060160010201600109F
:100A4000364B70B51D6806000C00002D05D0AB6953
:100A5000002B02D1280000F061F9314B9C420FD1EC
:100A60006C680C23E25E93B219072DD4D90611D419
:100A700009230120336037331343A381404270BD03
:100A8000284B9C4201D1AC68EBE7274B9C42E8D154
:100A9000EC68E6E75B0713D5616B002908D02300FB
:100AA0004433994202D03000FFF716FE00236363FF
:100AB0002422A3899343A3810023636023692360D5
:100AC0000823A2891343A3812369002B0BD1A02102
:100AD0008022A389890092000B40934203D0210019
:100AE000300000F0D7F90123A289134011D0002370
:100AF000A36063695B42A361002023698342BED186
:100B00000C23E25E1306BAD540231343A3810138B8
:100B1000B5E7920700D46369A360EDE704360208E5
:100B2000401600106016001020160010F7B58A89D4
:100B300005000C00130760D44B68002B04DC0B6C21
:100B4000002B01DC0020FEBDE76A002FFAD0002355
:100B50002E682B6080235B01216A1A4034D0606DBF
:100B6000A3895B0706D56368C01A636B002B01D0AD
:100B7000236CC01A0200216A00232800E76AB847E4
:100B8000A189431C06D12B681D2B30D82B4ADA4093
:100B9000D3072CD50023636023692360CB0405D5DC
:100BA000431C02D12B68002B00D16065616B2E6065
:100BB0000029C7D023004433994202D02800FFF710
:100BC0008BFD00206063BEE701232800B847431C6B
:100BD000C6D12B68002BC3D01D2B01D0162B01D101
:100BE0002E60AFE74023A2891343A381ABE74023E4
:100BF0000B430120A3814042A5E70F69002FA1D03C
:100C00000B680F60DB1B01930023920700D14B6937
:100C1000A360019B002B00DC94E7019B3A00216A52
:100C20002800A66AB047002803DC4023A2891343AA
:100C3000DFE7019B3F181B1A0193EAE70100402000
:100C40000B6970B505000C00002B01D1002070BDB0
:100C5000002804D08369002B01D100F05FF80B4B12
:100C60009C4209D16C680C22A35E002BEED02100BF
:100C70002800FFF75BFFEAE7054B9C4201D1AC6817
:100C8000F1E7044B9C42EED1EC68ECE74016001013
:100C90006016001020160010002310B50400036039
:100CA0004360836081814366C281036143618361E4
:100CB000190008225C30FFF7F8FC054B24626362E0
:100CC000044BA362044BE362044B236310BDC04694
:100CD00089140010B1140010E9140010151500104B
:100CE00010B5024900F08CF810BDC046410C001050
:100CF00070B568254A1E55430E0029007431FFF770
:100D000035FD041E08D000212A00016046600C3029
:100D1000A0606832FFF7C9FC200070BD836913B57D
:100D20000400002B28D18364C3640365134B144A69
:100D30001B6882620193984201D1012383612000E4
:100D400000F020F86060200000F01CF8A060200097
:100D500000F018F80022E06004216068FFF79CFFB3
:100D600001220921A068FFF797FF02221221E06803
:100D7000FFF792FF0123A36113BDC0461C160010AC
:100D8000E10C0010F8B51C4B07001E68B369002B7E
:100D900002D13000FFF7C2FF4836B4687368013BE8
:100DA00004D53368002B07D03668F6E70C22A55E21
:100DB000002D0DD06834F2E704213800FFF798FFCA
:100DC00030600028F0D10C2304003B602000F8BD07
:100DD00020000A4B656625606560A560E3602561BB
:100DE0006561A561082229005C30FFF75EFC656340
:100DF000A563A564E564E9E71C1600100100FFFF88
:100E0000F7B504000700002601914834002C01D1F9
:100E10003000FEBD6368A5680093009B013B009312
:100E200001D52468F2E7AB89012B08D90E22AB5E0D
:100E3000013304D029003800019B984706436835E8
:100E4000EBE7000070B50E001D000E23C95E96B0E2
:100E50001400002907DA00232B60B3891B0611D484
:100E60008023DB000FE06A4600F080FB0028F2DB05
:100E7000F022019B12021340054A9B185A4253412B
:100E80002B60EDE740230020236016B070BDC04604
:100E900000E0FFFFF7B502268B8905000C00334206
:100EA00006D0230047332360236101236361F7BD2C
:100EB00001AB6A46FFF7C6FF009907002800FFF75D
:100EC00055FC002808D10C22A35E9A05EFD403221A
:100ED00093431E43A681E4E70F4BAB628023A289B4
:100EE00020601343A381009B20616361019B002B61
:100EF0000DD00E23E15E280000F04AFB002806D04A
:100F00000322A38993431A0001231343A381A089D9
:100F10003843A081CBE7C046E10C00107047704712
:100F2000936810B5013B9360002B04DA9469A342E7
:100F300007DB0A2905D01368581C106019700800D7
:100F400010BDFFF727FD0100F9E7F8B506000F0017
:100F50001400D518AC4201D1002007E021783A00F6
:100F60003000FFF7DDFF0134431CF3D1F8BD000072
:100F7000F0B5A1B003900F0016001D00002805D0A9
:100F800083690593002B01D1FFF7C8FE7B4B9F427D
:100F90005CD1039B5F68BB891B0763D53B69002B52
:100FA00060D0002308AC6361203363761033A376EE
:100FB000079535002B78002B01D0252B5CD1AB1B7E
:100FC00005930CD0320039000398FFF7BEFF431C95
:100FD00000D1C4E06269059B9446634463612B7849
:100FE000002B00D1BBE0012200235242626004A921
:100FF000543252186E1C2360E360A3601370A36523
:10100000317805225E4800F0E9FA751C002835D1D8
:101010002268D30604D5532304A95B182021197034
:10102000130704D5532304A95B182B2119703378B7
:101030002A2B2CD0350000210A20E3682A786E1C68
:10104000303A092A64D900292ED026E04D4B9F4220
:1010500002D1039B9F689EE74B4B9F429BD1039B12
:10106000DF6898E739000398FFF7EAFC002898D07A
:101070000120404221B0F0BD01359BE7404B226882
:10108000C01A01238340134323602E00B8E7079B57
:10109000191D1B680791002B01DB0B9304E05B42D9
:1010A000E3600223134323602B782E2B0AD16B7845
:1010B0002A2B35D1079B02351A1D1B680792002B7E
:1010C0002BDB0993314E29780322300000F086FA99
:1010D000002806D04023801B83402268013513433B
:1010E0002360297806222A486E1C217600F076FAC1
:1010F00000283AD0274B002B25D10722079B073326
:101100009343083307936369049A9B18636150E71C
:10111000434301219B18350090E701235B42D0E750
:1011200000230A201A000135636029786E1C3039CB
:10113000092903D9002BC5D00992C3E742430123F3
:1011400052183500F1E707AB00933A00124B21002B
:10115000039800E000BF0490049B0133D3D1BB8906
:101160005B0600D584E70D9884E707AB00933A004F
:10117000094B2100039800F07FF8ECE740160010BF
:101180008016001060160010201600108616001041
:101190008A160010000000004B0F0010F7B5150074
:1011A00001938A680B6900900C00934200DA1300E7
:1011B00022002B6043321278002A01D001332B60C9
:1011C00023689B0602D52B6802332B600627236811
:1011D0001F4027D0230043331B785A1E93412268B7
:1011E000920630D42200019943320098089EB047FD
:1011F000431C25D0062320682A68E16803400025A7
:10120000042B03D18D1AEB43DB171D40A368226921
:10121000934201DD9B1AED180027BD4220D100202A
:1012200010E00137E3682A689B1ABB42D2DD220036
:101230000123193201990098089EB047431CF0D150
:1012400001204042FEBD3020E118433108702100EA
:101250005A1C45310978A218433202331170C1E794
:10126000220001231A3201990098089EB047431CBE
:10127000E6D00137D1E70000F0B589B004920A004A
:1012800043320593039002920A7E0C000E9B6E2A55
:1012900000D186E01FD8632A33D008D8002A00D1B5
:1012A0008CE0582A4DD0250042352A7030E0642A5F
:1012B00001D0692AF7D1196825680A1D280629D5A1
:1012C00008681A60002803DA2D23029A404213703E
:1012D0006B4E0A274FE0732A74D008D86F2A1FD0AC
:1012E000702AE0D1202209680A43226003E0752AAF
:1012F00016D0782AD7D12200782145321170614E5C
:1013000022E025001A684235111D196013682B7000
:10131000012365E008681A606906D3D500B2D1E7F9
:1013200019682568081D186008682E0605D5544EF2
:1013300008276F2A1BD00A2719E06D06F7D580B25F
:10134000F5E745314E4E0A7018682268011D0068A5
:101350001960150621D5D30702D520231A43226030
:101360001027002803D1202322689A4322602300FB
:10137000002243331A706368A360002B58DB0422F9
:10138000216891432160002854D1029D002B5AD03E
:101390002500337842352B7055E05506DBD580B2F9
:1013A000D9E71A680D68101D4969186013682E0680
:1013B00001D5196002E06D06FBD519800023029D5E
:1013C00023614FE01A68111D1960156800216268D9
:1013D000280000F003F9002801D0401B606063681A
:1013E00023610023029A13703CE023692A000499C8
:1013F0000398059DA847431C3ED023689B0715D43E
:10140000079BE068984239DA180037E02200012390
:10141000193204990398059EB047431C2CD001351E
:10142000E368079A9B1AAB42F0DCE9E70025F7E78F
:101430000028ADD0029D390001F094FB735C013DA2
:101440002B700028F7D1082F09D12368DB0706D5B8
:1014500063682269934202DC3023013D2B70029BBA
:101460005B1B2361059B07AA00932100049B039843
:10147000FFF794FE431CB8D10120404209B0F0BDF3
:1014800091160010A216001070B50C000E25495FD1
:1014900000F0B0F8002803DB636D1B18636570BDB6
:1014A000A389024A1340A381F9E7C046FFEFFFFF7B
:1014B000F8B51F008B8905000C001600DB0505D56B
:1014C0000E23C95E0022022300F074F8A389054AA6
:1014D00028001340A38132000E23E15E3B0000F0A0
:1014E0001FF8F8BDFFEFFFFF70B50C000E25495F38
:1014F00000F060F8A389421C03D1054A1340A38180
:1015000070BD802252011343A3816065F8E7C04695
:10151000FFEFFFFF10B50E23C95E00F015F810BDF8
:1015200070B50500080011000022064C22601A0068
:1015300020F0D6FC431C03D12368002B00D02B6085
:1015400070BDC046684A0208002370B5064C05000D
:101550000800236024F0C4F8431C03D12368002B47
:1015600000D02B6070BDC046684A0208002370B5E9
:10157000064C050008001100236024F0B9F8431C54
:1015800003D12368002B00D02B6070BD684A02088D
:10159000002370B5064C05000800236024F0B0F865
:1015A000431C03D12368002B00D02B6070BDC046C4
:1015B000684A020870B50500080011000022064CB8
:1015C00022601A0024F0A4F8431C03D12368002BE6
:1015D00000D02B6070BDC046684A0208C9B28218AC
:1015E000904201D10020704703788B42FBD001303C
:1015F000F6E7000070B50500080011000022064C57
:1016000022601A0024F08CF8431C03D12368002BBD
:1016100000D02B6070BDC046684A02080836020838
:1016200000000000000000000000000000000000BA
:1016300000000000000000000000000000000000AA
:10164000000000000000000000000000000000009A
:10165000000000000000000000000000000000008A
:10166000000000000000000000000000000000007A
:10167000000000000000000000000000000000006A
:10168000232D302B2000686C4C006566674546476B
:1016900000303132333435363738394142434445EE
:1016A000460030313233343536373839616263645D
:1016B0006566000005DF70470020FBE706DF704726
:1016C000EFF314830138421E9041012210409343EE
:1016D000184380F3148870470EDFFEE70EDFFEE745
:1016E0000020704730B595B007AC050034220021CA
:1016F0002000FEF7DAFF3423012104938020323BDF
:1017000003940595069302F0F7FB041E0FDD0123F9
:10171000019305AB009303AA0123002102F0EEFB25
:101720000500200002F0F6FB280015B030BD84252E
:101730006D42F9E7F0B599B007000391160000215A
:1017400030220CA8FEF7B1FF3423089303AB0993B2
:10175000042301250BAC0A930121023B8020676121
:1017600007940B950596069302F0C6FB041E0EDD4A
:1017700005AB0195009307AA0223002102F0BEFBEE
:101780000500200002F0C6FB280019B0F0BD84253A
:101790006D42F9E7862040427047C04630B50500EB
:1017A0001A2093B02E2200216844FEF77EFF022308
:1017B00005AC0593012132338020A5800394049366
:1017C00002F09AFB041E0EDD002303AA019300938E
:1017D0000021013302F092FB0500200002F09AFB89
:1017E000280013B030BD84256D42F9E7F0B5C64638
:1017F0008046222000B594B00F00160000212E2252
:1018000068441D00FEF751FF03230793434607ACCE
:10181000A380342301218020A760039404930596BC
:10182000069502F069FB041E10DD002303AA019354
:1018300000930021023302F061FB0500200002F05A
:1018400069FB280014B004BC9046F0BD84256D42AD
:10185000F7E7C04630B505001A2093B02E220021CC
:101860006844FEF722FF042305AC059301213033C1
:101870008020A5800394049302F03EFB041E0EDD3D
:10188000002303AA019300930021013302F036FBE9
:101890000500200002F03EFB280013B030BD842577
:1018A0006D42F9E7F0B507002A2097B00E00150049
:1018B00000212E226844FEF7F8FE052309932F33FA
:1018C00009AC04930121303B8020A7800394059646
:1018D00006930795089302F00FFB041E0FDD022309
:1018E000019305AB009303AA0123002102F006FB3C
:1018F0000500200002F00EFB280017B0F0BD842583
:101900006D42F9E7F0B5C6460700222000B594B055
:101910000E00150000212E2268449846FEF7C5FEF1
:10192000062307AC079301212E338020A780039460
:1019300004930596069502F0DFFA041E14DD0123D8
:10194000019305AB009303AA0123002102F0D6FA0C
:101950004346069A05001A60200002F0DBFA2800D0
:1019600014B004BC9046F0BD84256D42F7E7C04634
:10197000F0B5C6460700222000B594B00E00150051
:1019800000212E2268449846FEF78FFE072307ACFD
:10199000079301212D338020A7800394049305969B
:1019A000069502F0A9FA041E14DD0123019305AB8C
:1019B000009303AA0123002102F0A0FA4346069AED
:1019C00005001A60200002F0A5FA280014B004BC3B
:1019D0009046F0BD84256D42F7E7C046F0B50E2471
:1019E0000700322099B06C442180160000212E227D
:1019F0006844FEF75AFE08230B932C330693323BC0
:101A00000BAD089301210A3380200794AF80059520
:101A100009960A9302F070FA041E0EDD002305AA4F
:101A2000019300930021033302F068FA05002000BF
:101A300002F070FA280019B0F0BD84256D42F9E774
:101A400006C07047006870474068704770B5060070
:101A5000222094B00D002E2200216844FEF725FEBE
:101A6000092307932B3307AC04930121283B8020E3
:101A7000A68003940595069302F03EFA041E0EDD3F
:101A8000002303AA019300930021023302F036FAE7
:101A90000500200002F03EFA280014B070BD842535
:101AA0006D42F9E770B50600222094B00D002E2299
:101AB00000216844FEF7F9FD0A2307932A3307AC97
:101AC00004930121283B8020A6800394059506936A
:101AD00002F012FA041E0FDD0123019305AB0093FF
:101AE00003AA0123002102F009FA0500200002F0F8
:101AF00011FA280014B070BD84256D42F9E7C04684
:101B000070B50600222094B00D002E2200216844FA
:101B1000FEF7CBFD0B230793293307AC0493012178
:101B2000303B8020A68003940595069302F0E4F9EB
:101B3000041E0FDD0123019305AB009303AA0123CB
:101B4000002102F0DBF90500200002F0E3F9280093
:101B500014B070BD84256D42F9E7C046F0B5C646A5
:101B600000B596B004000F001600002130220AA82C
:101B70009846FEF79AFD0C230993236809ADAB61E3
:101B80003423012104938020303B05940395069370
:101B90000797089602F0B0F9041E14DD02230193A2
:101BA00005AB009303AA0123002102F0A7F94346E5
:101BB000089A05001A60200002F0ACF9280016B05F
:101BC00004BC9046F0BD84256D42F7E7F0B597B0B0
:101BD00004000F001600002130220AA8FEF765FD60
:101BE0000D230993236809ADAB61342301210693CA
:101BF0008020303B0394059507970896049302F0E4
:101C00007BF9041E0FDD0123019303AB009305AAAA
:101C10000223002102F072F90500200002F07AF997
:101C2000280017B0F0BD84256D42F9E7F0B5050036
:101C3000222095B00F00160000212E226844FEF7E6
:101C400034FD0E2307932B6807ACA36134230121D5
:101C500004938020303BA78026610394059506936A
:101C600002F04AF9041E0FDD0123019305AB009336
:101C700003AA0123002102F041F90500200002F02F
:101C800049F9280015B0F0BD84256D42F9E7C0463A
:101C9000F0B50500222095B00F00160000212E227D
:101CA0006844FEF702FD0F2307932B6807ACA3617E
:101CB0003423012104938020303BA78026610394C4
:101CC0000595069302F018F9041E0FDD0123019318
:101CD00005AB009303AA0123002102F00FF90500D0
:101CE000200002F017F9280015B0F0BD84256D42E0
:101CF000F9E7C046F0B5C64600B598B0040088467E
:101D00001700002130220CA81E00FEF7CEFC102385
:101D10000B9323680BADAB613423049343460593C7
:101D2000042308931E9B01218020079403950697A6
:101D300009960A9302F0E0F8041E14DD02230193D1
:101D400007AB009303AA0223002102F0D7F80A9AF6
:101D50001F9B05001A60200002F0DCF8280018B074
:101D600004BC9046F0BD84256D42F7E730B595B0D0
:101D700004003022002108A8FEF797FC11230793E6
:101D8000236807ADAB613423012104938020303BED
:101D900005940395069302F0AFF8041E0FDD0123AE
:101DA000019305AB009303AA0123002102F0A6F8DA
:101DB0000500200002F0AEF8280015B030BD8425E3
:101DC0006D42F9E7F0B5C64600B596B004000F00C5
:101DD0001600002130220AA89846FEF766FC12235E
:101DE0000993236809ADAB6134230121049380205A
:101DF000303B0594039506930797089602F07CF80C
:101E0000041E14DD0223019305AB009303AA0123F2
:101E1000002102F073F84346089A05001A6020007A
:101E200002F078F8280016B004BC9046F0BD842576
:101E30006D42F7E770B594B005000E003022002126
:101E400008A8FEF732FC132307932B6807ACA361A5
:101E50003423012104938020303B266103940595AF
:101E6000069302F049F8041E0FDD0123019305AB30
:101E7000009303AA0123002102F040F8050020008E
:101E800002F048F8280014B070BD84256D42F9E7CF
:101E9000F0B597B004000F001600002130220AA808
:101EA000FEF703FC14230993236809ADAB613423C7
:101EB000012106938020303B0394059507970896EF
:101EC000049302F019F8041E0FDD0123019303AB04
:101ED000009305AA0223002102F010F8050020005B
:101EE00002F018F8280017B0F0BD84256D42F9E71C
:101EF000F0B5C64600B596B004000F0016000021EC
:101F000030220AA89846FEF7D0FB152309932368D0
:101F100009ADAB613423012104938020303B05944B
:101F2000039506930797089601F0E6FF041E14DD5B
:101F30000223019305AB009303AA0123002101F0C2
:101F4000DDFF4346089A05001A60200001F0E2FF19
:101F5000280016B004BC9046F0BD84256D42F7E71A
:101F6000F0B597B004000F001600002130220AA837
:101F7000FEF79BFB16230993236809ADAB6134235D
:101F8000012106938020303B03940595079708961E
:101F9000049301F0B1FF041E0FDD0123019303AB95
:101FA000009305AA0223002101F0A8FF05002000EC
:101FB00001F0B0FF280017B0F0BD84256D42F9E7AD
:101FC00030B595B004003022002108A8FEF76DFB63
:101FD00017230793236807ADAB61342301210493D2
:101FE0008020303B05940395069301F085FF041E85
:101FF0000FDD0123019305AB009303AA0123002108
:1020000001F07CFF0500200001F084FF280015B0DE
:1020100030BD84256D42F9E770B594B006000D001F
:102020003022002108A8FEF740FB182307933368ED
:1020300007ACA3613423012104938020303B039437
:102040000595069301F058FF041E0FDD012301934F
:1020500005AB009303AA0123002101F04FFF050007
:10206000200001F057FF280014B070BD84256D4298
:10207000F9E7C046F0B50500222095B00F00160024
:1020800000212E226844FEF710FB192307932B68CA
:1020900007ACA3613423012104938020303BA78047
:1020A000266103940595069301F026FF041E0FDDBB
:1020B0000123019305AB009303AA0123002101F042
:1020C0001DFF0500200001F025FF280015B0F0BD20
:1020D00084256D42F9E7C046F0B50500222095B091
:1020E0000F00160000212E226844FEF7DEFA1A23A4
:1020F00007932B6807ACA36134230121049380204C
:10210000303BA780266103940595069301F0F4FE09
:10211000041E0FDD0123019305AB009303AA0123E5
:10212000002101F0EBFE0500200001F0F3FE280085
:1021300015B0F0BD84256D42F9E7C046F0B597B003
:1021400004000F001600002130220AA8FEF7ADFAA5
:102150001B230993236809ADAB6134230121069346
:102160008020303B0394059507970896049301F06F
:10217000C3FE041E0FDD0123019303AB009305AAE8
:102180000223002101F0BAFE0500200001F0C2FE8A
:10219000280017B0F0BD84256D42F9E7F0B5C646BA
:1021A00000B596B004000F001600002130220AA8E6
:1021B0009846FEF77AFA1C230993236809ADAB61B0
:1021C0003423012104938020303B0594039506932A
:1021D0000797089601F090FE041E14DD0223019378
:1021E00005AB009303AA0123002101F087FE4346BB
:1021F000089A05001A60200001F08CFE280016B035
:1022000004BC9046F0BD84256D42F7E7F0B597B069
:1022100004000F001600002130220AA8FEF745FA3C
:102220001D230993236809ADAB6134230121069373
:102230008020303B0394059507970896049301F09E
:102240005BFE041E0FDD0123019303AB009305AA7F
:102250000223002101F052FE0500200001F05AFE89
:10226000280017B0F0BD84256D42F9E730B595B070
:1022700004003022002108A8FEF717FA1E23079356
:10228000236807ADAB613423012104938020303BE8
:1022900005940395069301F02FFE041E0FDD012324
:1022A000019305AB009303AA0123002101F026FE50
:1022B0000500200001F02EFE280015B030BD842559
:1022C0006D42F9E7F0B50400322099B00F00160016
:1022D00000212A2268441D00FEF7E7F91F230B9313
:1022E0006B461C861E9B0F971795002B36D00BABA9
:1022F000059334230693209B0793219B08931E9BF1
:1023000009931F9B0A93229B0393239B0493102DF5
:1023100027D8002E06D0002D04D02A00310013A8A3
:10232000FEF7A7F90121802001F0E6FD051E1BDD67
:102330001E9B01225C1EA341019203AA023300925C
:10234000002105AA01F0DAFD049A249B04001A601A
:10235000280001F0DFFD200019B0F0BD1F9B002B0D
:10236000C5D087246442F6E784246442F3E7C0467C
:10237000F0B50400322099B00F00160000212A2287
:1023800068441D00FEF791F920230B936B461C86D1
:102390001E9B0F971795002B36D00BAB059334235C
:1023A0000693209B0793219B08931E9B09931F9BD9
:1023B0000A93229B0393239B0493102D27D8002E6E
:1023C00006D0002D04D02A00310013A8FEF751F9E1
:1023D0000121802001F090FD051E1BDD1E9B0122C6
:1023E0005C1EA341019203AA02330092002105AAB8
:1023F00001F084FD049A249B04001A60280001F077
:1024000089FD200019B0F0BD1F9B002BC5D087248B
:102410006442F6E784246442F3E7C046F0B5C6465A
:1024200080462A2000B596B00F00160000212E220B
:1024300068441D00FEF739F921230993434609AC8E
:10244000A380342306931C9B012103931D9B8020B2
:102450002761059407960895049301F04DFD041E2D
:1024600014DD0123019303AB009305AA022300218D
:1024700001F044FD049A1E9B05001A60200001F043
:1024800049FD280016B004BC9046F0BD84256D427D
:10249000F7E7C046F0B5C64680462A2000B596B09C
:1024A0000F00160000212E2268441D00FEF7FDF8E3
:1024B00022230993434609ACA380342304931C9B35
:1024C000012107931D9B80202761039405960695A3
:1024D000089301F011FD041E10DD002303AA0193EF
:1024E00000930021033301F009FD0500200001F0F5
:1024F00011FD280016B004BC9046F0BD84256D4245
:10250000F7E7C046F0B50500322099B00C0017007F
:1025100000212E2268441E00FEF7C7F823230B93E8
:102520006B461D861E9B0F94002B28D00BAB05938A
:10253000342305AC63601E9BE66023611F9B03AEE2
:102540006361209BA7600393219B0121736080201E
:1025500001F0D2FC0323051E2BDD0122009601921F
:1025600000212200280001F0C9FC7268229B0400AF
:102570001A60280001F0CEFC200019B0F0BD1F9BAE
:10258000002B19D10BAB0593342305AC63601F9B63
:10259000E66023616361209B03AE0393219BA760E8
:1025A00073600121802001F0A7FC051E01DD0223DC
:1025B000D3E784246442DFE787246442DCE7C04633
:1025C000F0B50500322099B00C00170000212E2232
:1025D00068441E00FEF769F824230B936B461D86A2
:1025E0001E9B0F94002B28D00BAB0593342305AC16
:1025F00063601E9BE66023611F9B03AE6361209BAB
:10260000A7600393219B01217360802001F074FC7B
:102610000323051E2BDD01220096019200212200DA
:10262000280001F06BFC7268229B04001A602800ED
:1026300001F070FC200019B0F0BD1F9B002B19D1D8
:102640000BAB0593342305AC63601F9BE6602361ED
:102650006361209B03AE0393219BA76073600121FC
:10266000802001F049FC051E01DD0223D3E784240C
:102670006442DFE787246442DCE7C04670B594B06B
:1026800006000D003022002108A8FEF70EF82523D1
:102690000793336807ACA36134230121049380209E
:1026A000303B03940595069301F026FC041E0FDDD4
:1026B0000123019305AB009303AA0123002101F03C
:1026C0001DFC0500200001F025FC280014B070BDA1
:1026D00084256D42F9E7C046F0B595B007000E00BD
:1026E00015000021302208A8FDF7DFFF26230793FD
:1026F0003B6807ACA3613423012180200394049339
:102700000596069501F0F8FB041E0FDD01230193E9
:1027100005AB009303AA0123002101F0EFFB0500A4
:10272000200001F0F7FB280015B0F0BD84256D42B4
:10273000F9E7C046F0B507002A2097B00E000392D3
:1027400000212E2268441D00FDF7AFFF27230993C7
:102750002B6809ACA3613423069303AB07930423CE
:1027600001218020A780A6600594089301F0C4FB96
:10277000041E0EDD002305AA0193009300210233FD
:1027800001F0BCFB0500200001F0C4FB280017B0DD
:10279000F0BD84256D42F9E730B595B004003022D4
:1027A000002108A8FDF781FF28230793236807ADC0
:1027B000AB613423012104938020303B05940395C1
:1027C000069301F099FB041E0FDD0123019305AB75
:1027D000009303AA0123002101F090FB05002000D3
:1027E00001F098FB280015B030BD84256D42F9E753
:1027F000F0B50600322099B00F00140000212E22FF
:1028000068441D00FDF751FF29230B936B461F867B
:1028100033680F941193219B1293002D45D01F9B79
:10282000002B25D00BAB0593342305AC63601E9BB6
:1028300003AFE3601F9BA5602361209B01216361BF
:10284000042380207B60039601F056FB061E32DDD8
:10285000032301220097019200212200300001F0A1
:102860004DFB0400300001F055FB200019B0F0BD15
:10287000209B002B1CD10BAB0593342305AC63606C
:102880001E9B03AFE360209BA5602361636104236B
:1028900001217B608020039601F02EFB061E0ADDDD
:1028A0002B005D1EAB410133D3E71E9B002BB6D03E
:1028B00087246442D9E784246442D6E7F0B5C6464B
:1028C00005002A2000B596B08846170000212E2268
:1028D00068441E00FDF7E9FE2A230993434609AC2C
:1028E000A3801C9B012123612B688020A3613423DA
:1028F0000693303B0594079708960395049301F0DF
:10290000FBFA041E11DD0123019303AB009305AA1A
:102910000223002101F0F2FA0500200001F0FAFA8A
:10292000280016B004BC9046F0BD84256D42F7E740
:1029300030B595B005000C003022002108A8FDF745
:10294000B4FE2B23079307AB03933423059504931D
:1029500006940025002C02D1280015B030BD0121BD
:10296000802001F0C9FA041E0DDD0123019305AB9F
:10297000009303AA0123002101F0C0FA0500200002
:1029800001F0C8FAE8E784256D42E5E770B5060076
:10299000322098B00C00039200212E2268441D00C2
:1029A000FDF783FE2C230B936B460D941E86002DA2
:1029B00021D00BAB0593342305AC636003ABA3605C
:1029C0000423E3601C9B256163610121802001F0E9
:1029D00093FA0323051E25DD0022002101920092B7
:1029E0002800220001F08AFA0400280001F092FA7F
:1029F000200018B070BD1C9B002B16D10BAB0593AB
:102A0000342305AC636003ABA3600423E3601C9B29
:102A1000012123616361802001F06EFA051E01DD52
:102A20000223D9E784246442E2E787246442DFE793
:102A300002B4714649084900095C49008E4402BC51
:102A40007047C04603B47146490840004900095A1E
:102A500049008E4403BC7047002243088B4274D364
:102A600003098B425FD3030A8B4244D3030B8B428F
:102A700028D3030C8B420DD3FF22090212BA030C98
:102A80008B4202D31212090265D0030B8B4219D379
:102A900000E0090AC30B8B4201D3CB03C01A524199
:102AA000830B8B4201D38B03C01A5241430B8B42E1
:102AB00001D34B03C01A5241030B8B4201D30B03CA
:102AC000C01A5241C30A8B4201D3CB02C01A5241F1
:102AD000830A8B4201D38B02C01A5241430A8B42B4
:102AE00001D34B02C01A5241030A8B4201D30B029D
:102AF000C01A5241CDD2C3098B4201D3CB01C01AB7
:102B0000524183098B4201D38B01C01A52414309C0
:102B10008B4201D34B01C01A524103098B4201D3AE
:102B20000B01C01A5241C3088B4201D3CB00C01A1B
:102B3000524183088B4201D38B00C01A5241430893
:102B40008B4201D34B00C01A5241411A00D20146B8
:102B5000524110467047FFE701B5002000F0F0F841
:102B600002BDC0460029F7D076E7704703460B4305
:102B70007FD4002243088B4274D303098B425FD376
:102B8000030A8B4244D3030B8B4228D3030C8B42A2
:102B90000DD3FF22090212BA030C8B4202D3121288
:102BA000090265D0030B8B4219D300E0090AC30B5D
:102BB0008B4201D3CB03C01A5241830B8B4201D30A
:102BC0008B03C01A5241430B8B4201D34B03C01AF3
:102BD0005241030B8B4201D30B03C01A5241C30A6B
:102BE0008B4201D3CB02C01A5241830A8B4201D3DC
:102BF0008B02C01A5241430A8B4201D34B02C01AC6
:102C00005241030A8B4201D30B02C01A5241CDD26A
:102C1000C3098B4201D3CB01C01A524183098B42B5
:102C200001D38B01C01A524143098B4201D34B019E
:102C3000C01A524103098B4201D30B01C01A524101
:102C4000C3088B4201D3CB00C01A524183088B4288
:102C500001D38B00C01A524143088B4201D34B0071
:102C6000C01A5241411A00D20146524110467047E3
:102C70005DE0CA0F00D04942031000D340425340E8
:102C800000229C4603098B422DD3030A8B4212D3A8
:102C9000FC22890112BA030A8B420CD389019211DA
:102CA0008B4208D3890192118B4204D389013AD017
:102CB000921100E08909C3098B4201D3CB01C01AEC
:102CC000524183098B4201D38B01C01A52414309FF
:102CD0008B4201D34B01C01A524103098B4201D3ED
:102CE0000B01C01A5241C3088B4201D3CB00C01A5A
:102CF000524183088B4201D38B00C01A5241D9D272
:102D000043088B4201D34B00C01A5241411A00D2F2
:102D10000146634652415B10104601D34042002BEE
:102D200000D54942704763465B1000D3404201B56D
:102D3000002000F005F802BD0029F8D016E7704722
:102D40007047C046002B11D1002A0FD1002900D1B5
:102D5000002802D00021C943081C07B4024802A180
:102D60004018029003BDC046D9FFFFFF03B4684678
:102D700001B5029800F030F8019B9E4602B00CBCF1
:102D80007047C046F0B5CE46474615042D0C2E00C0
:102D900080B50704140C3F0C9946030C7E435D4339
:102DA000674363437F19340CE4199C46A54203D959
:102DB00080235B029846C4444B4643435143250C51
:102DC00036046544360C2404A4195B1959182000F4
:102DD0000CBC90469946F0BDF0B54F464646D646E7
:102DE000C0B5040082B00D00914698468B422FD8A2
:102DF0002CD04146484600F0B1F8290006002000DA
:102E000000F0ACF8331A9C46203B9A4600D576E099
:102E10004B46524693401F004B46624693401E006D
:102E2000AF4228D825D05346A41BBD41002B00DA61
:102E30007BE000220023009201930123524693403D
:102E40000193012362469340009318E08242D0D957
:102E500000220023009201930A9B002B01D01C60EA
:102E60005D600098019902B01CBC90469946A2464C
:102E7000F0BDA342D7D900220023009201936346FC
:102E8000002BE9D0FB079846414672080A437B08AD
:102E900066460EE0AB4201D1A2420CD8A41A9D4175
:102EA000012024196D410021013E24184D41002EBE
:102EB00006D0AB42EED9013E24196D41002EF8D167
:102EC00000980199534600196941002B23DB2B0020
:102ED0005246D3402A006446E2401C005346150087
:102EE000002B2DDB26005746BE40330026006746E8
:102EF000BE403200801A994100900191ACE76246D1
:102F000020239B1A4A46DA406146130042468A4013
:102F100017001F4380E7624620239B1A2A0066465B
:102F20009A402300F3401343D4E762462023002154
:102F30009B1A0022009101920122DA40019280E75F
:102F40002023624626009B1ADE402F00B0466646CC
:102F5000B74046463B003343C8E7C04610B500299A
:102F600003D100F007F8203002E0081C00F002F85E
:102F700010BDC0461C2101231B04984201D3000C44
:102F800010391B0A984201D3000A08391B099842DC
:102F900001D30009043902A2105C40187047C046F2
:102FA0000403020201010101000000000000000012
:102FB0000FB4F0B55746DE464E464546E0B595B0EF
:102FC0001EAE08CE00249A46002357469B4607961D
:102FD0000B933B78002B12D07A1C9046252B20D0E7
:102FE0000BAD621C2C190B9223711F2A24D80123CC
:102FF00047469C463B78E3441400002BECD1002C60
:1030000004D021000CA81EF055FF8344584615B08B
:103010003CBC90469946A246AB46F0BC08BC04B006
:1030200018477B78253BDBB2532B01D900F09EFC7F
:10303000854A9B00D3589F46002320210CA80B9360
:103040001EF038FF0B9AD2E70023804A0BAD98465A
:1030500091462A004546B04616003033621C3419AA
:10306000326023711F2A0BD84B4601355B5D002B64
:1030700012D01400621C3419326023711F2AF3D954
:10308000002320210CA833601EF014FF4B460135AD
:103090005B5D3268002BECD133004646A8461D002C
:1030A000331D019308AB924600210C2218003468AE
:1030B0009946FDF7FAFA0F231A0049466448224060
:1030C000825CC3440A700392524698462109013239
:1030D000002901D100F0D7FD4E461940415C7170C6
:1030E000260A01D100F010FE1E404B46865D9E7000
:1030F000230B01D100F031FE1900434619404B4625
:10310000415CD970230C01D100F04BFE1E004346F8
:103110001E404B46865D1E71230D01D100F04AFE14
:103120001900434619404B46415C5971230E01D1A9
:1031300000F076FE46461E404B46865D240F9E718B
:1031400001D100F090FE015DD97106230293023394
:1031500098465346EB182A6019711F2A01D900F0CE
:103160006BFD541CAA182C6016711F2C01D900F09D
:10317000A6FC029B002B01D100F05CFC4346DE1E46
:103180004B469A5D631C2C192B6022711F2B01D9B1
:1031900000F014FD002E01D100F078FC4246161F0D
:1031A0004A46925D5C1CEB182C601A711F2C01D9E9
:1031B00000F02FFD002E01D100F092FC43465E1F6F
:1031C0004B469A5D631C2C192B6022711F2B01D971
:1031D00000F071FD002E01D100F00AFD4246961F5D
:1031E0004A46925D5C1CEB182C601A711F2C06D9A4
:1031F000002320210CA82B601EF05CFE2C68002E02
:1032000001D100F017FD46464B46073E9A5D631C10
:103210002C192B6022711F2B01D900F077FC002E96
:1032200001D100F05AFD039A5C1CEB182C601A7156
:1032300008261F2C00D80FE2002320210CA82B60A9
:103240001EF038FE2C6807E22C3F00109C40001056
:103250007C400010331D029308AB180036680C2226
:1032600000219946FDF721FA631C9A46002E00DAE8
:10327000A6E30023B046012603930BAD0A21404686
:10328000FFF770FC4A463031CBB213700A2140463A
:103290000593FFF7E1FB002801D100F0E9FC0A21CA
:1032A000FFF760FC4B463031CEB25E706421404681
:1032B000FFF7D2FB002801D100F017FD0A21FFF72C
:1032C00051FC3031CBB24A46FA2193708900404616
:1032D0000193FFF7C1FB002801D100F02DFD0A2169
:1032E000FFF740FC4B463031CEB2DE70E449404639
:1032F000FFF7B2FB002801D100F049FD0A21FFF7DA
:1033000031FC4A463031CBB21371DE49404601935D
:10331000FFF7A2FB002801D100F055FD0A21FFF7BD
:1033200021FC4B463031CEB25E71D7494046FFF7A3
:1033300093FB002801D100F05BFD0A21FFF712FC8E
:103340004A463031CBB29371D04940460193FFF7E2
:1033500083FB002801D100F075FD0A21FFF702FC74
:103360004B463031CEB2DE71C9494046FFF774FB9F
:10337000002801D100F091FD0A21FFF7F3FB4A4636
:103380003031CBB21372C34940460193FFF764FB5F
:10339000002801D100F0A0FD4B463030C6B25E726D
:1033A000082304930233984653462C192B60267148
:1033B0001F2B01D900F052FC5346019A5C1CEB18FC
:1033C0002C601A711F2C00D971E3049B002B01D1D2
:1033D00000F0CCFC4346DE1E4B469A5D631C2C1964
:1033E0002B6022711F2B00D9F1E3002E01D100F0D8
:1033F000C9FC4246161F4A46925D5C1CEB182C60C5
:103400001A711F2C01D900F0FBFB002E01D100F036
:10341000E3FC43465E1F4B469A5D631C2C192B60F0
:1034200022711F2B01D900F04FFC002E01D100F0BA
:10343000FDFC4246961F4A46925D5C1CEB182C60D0
:103440001A711F2C06D9002320210CA82B601EF016
:1034500031FD2C68002E01D100F0EDFC4346DE1F4B
:103460004B469A5D631C2C192B6022711F2B00D9CF
:1034700055E3002E01D100F016FD46464A46083EAF
:10348000925D5C1CEB182C601A711F2C00D966E34E
:10349000002E01D100F029FD46464B46093E9A5DBB
:1034A000631C2C192B6022711F2B00D95FE3002EA7
:1034B00000D16CE3059A5C1CEB182C601A711F2C70
:1034C00001D900F09BFC039E0A36B3440237029EEA
:1034D0007FE5331D32780BAD9846631C2C190B9396
:1034E00022711F2B00D97DE2012294461C00E34487
:1034F000464602376DE5331D019308AB00210C22CF
:10350000180035689946FDF7D0F863490F231A0073
:103510002A408A5C984692464A46504610702809CE
:10352000621C002800D19FE24E461840085C707073
:103530002E0A00D1ADE21E404B468E5D9E702B0BD5
:1035400000D12BE31800434618404B46085CD87066
:103550002B0C00D14FE31E0043461E404B468E5DB0
:103560001E712B0D00D1BDE21800434618404B469A
:10357000085C58712B0E00D1B2E346461E404B4604
:103580008E5D2D0F9E7100D1CEE3485DD87106236C
:103590000293023398460BAD2C190B9220711F2A0F
:1035A00000D959E2541CAA182C6016711F2C00D99E
:1035B00028E2029B002B00D13CE24346DE1E4B4634
:1035C0009A5D631C2C192B6022711F2B00D921E2FC
:1035D000002E00D15AE24246161F4A46925D5C1CFC
:1035E000EB182C601A711F2C00D91BE2002E00D1A1
:1035F00076E243465E1F4B469A5D631C2C192B6096
:1036000022711F2B00D939E2002E00D1F0E2424690
:10361000961F4A46925D5C1CEB182C601A711F2C99
:1036200000D93CE2002E00D104E346464B46073E5B
:103630009A5D631C2C192B6022711F2B00D9B5E2F7
:10364000002E00D149E352465C1CEB182C601A7125
:1036500008261F2C00D9EFE5B3440237019EB8E4D9
:1036600025220BAD631C2C190B9322711F2B00D943
:10367000C0E1012294461C00E3440237A9E4C0469D
:1036800010270000A086010040420F00809698009D
:1036900000E1F50500CA9A3B8C400010331D0193F0
:1036A00008AB00210C22180035689946FCF7FDFF95
:1036B000E1492BE7331D029308AB994635680C228C
:1036C00018000021FCF7F1FF0A212800FFF74AFA51
:1036D0004A463031CBB213700A2128000493FFF719
:1036E000BBF9631C9A46002800D103E20A21FFF7C8
:1036F00039FA4B463031CEB25E7064212800FFF7B4
:10370000ABF9002800D1F8E20A21FFF72BFA30319B
:10371000CBB29846FA214B46424689009A7028005F
:10372000FFF79AF9002800D10FE30A21FFF71AFAF0
:103730004B463031CEB2DE70C0492800FFF78CF91D
:10374000002800D119E30A21FFF70CFA3031CBB27F
:1037500098464B464246BA491A712800FFF77CF951
:10376000002800D13CE30A21FFF7FCF94B46303139
:10377000CEB25E71B3492800FFF76EF9002800D180
:1037800049E30A21FFF7EEF93031CBB298464B46B8
:103790004246AD499A712800FFF75EF9002800D132
:1037A00059E30A21FFF7DEF94B463031CEB2DE7124
:1037B000A6492800FFF750F9002800D178E30A2134
:1037C000FFF7D0F93031CBB298464B464246A0497C
:1037D0001A722800FFF740F9002800D171E34B4628
:1037E0003030C6B25E72082303930233019353460E
:1037F0000BAD2C190B9326711F2B00D925E25346D4
:1038000042465C1CEB182C601A711F2C00D95FE13A
:10381000039B002B00D1ADE2019BDE1E4B469A5D5F
:10382000631C2C192B6022711F2B00D9D8E1002EAC
:1038300000D1B2E2019A5C1C161F4A46925DEB1859
:103840002C601A711F2C00D9ECE1002E00D1AEE2E1
:10385000019B5E1F4B469A5D631C2C192B602271E5
:103860001F2B00D91FE2002E00D1D0E2019A5C1C70
:10387000961F4A46925DEB182C601A711F2C06D9D0
:10388000002320210CA82B601EF014FB2C68002EB6
:1038900000D1D4E2019BDE1F4B469A5D631C2C19BC
:1038A0002B6022711F2B00D941E1002E00D104E3CF
:1038B0004A46019E5C1C083E925DEB182C601A7112
:1038C0001F2C00D943E1002E00D102E34B46019E9C
:1038D000093E9A5D631C2C192B6022711F2B00D9A5
:1038E0004DE1002E00D156E1049A5C1CEB182C60CF
:1038F0001A710A261F2C00D8E7E5002320210CA806
:103900002B601EF0D7FA2C68DFE5331D994633682B
:103910001A789846002A25D000239A463B000BAD22
:1039200047469846631C2C1900262B6022711F2BDA
:103930000AD80136BA5D002A11D01C00631C2C196C
:103940002B6022711F2BF4D9534620210CA801367D
:103950002B601EF0AFFABA5D2B68002AEDD1474606
:103960001C00B3444E460237FFF733FB394B5B2252
:10397000994600230BAD9A46631C2C1900272B6037
:1039800022711F2B0BD84A460137D25D002A12D074
:103990001C00631C2C192B6022711F2BF3D953467A
:1039A00020210CA82B601EF085FA4A460137D25D13
:1039B0002B68002AECD1BB441C004746FFF709FBEB
:1039C0000B932D230BAD2C19237153461F2B00D9BC
:1039D000A1E17342984601239C4654460226E244E4
:1039E00003934BE4002320210CA80B931EF062FAF2
:1039F0000B9B79E5002320210CA80B931EF05AFAAB
:103A00000B9B36E6002320210CA82B601EF052FAF7
:103A10002C68CEE5002320210CA82B601EF04AFA6A
:103A20002B68D5E5002320210CA82B601EF042FA5C
:103A30002C68DBE502260FE67C4000101027000012
:103A4000A086010040420F008096980000E1F50535
:103A500000CA9A3BA0400010002320210CA80B9321
:103A60001EF028FA0B9A9DE553460BAD2C190B92CC
:103A700023711F2A63D814000126EDE500232021BD
:103A80000CA82B601EF016FA2B68BDE51C0003265F
:103A9000E2E5002302930233564698467BE5002375
:103AA00020210CA82B601EF005FA2C68BAE5002333
:103AB00020210CA82B601EF0FDF92C6885E4002362
:103AC00020210CA82B601EF0F5F92C68FFF751FBA4
:103AD000002320210CA82B601EF0ECF92C6897E63F
:103AE0000426B9E5030030001E00032302930233CD
:103AF000984650E50BAD0B93049B2C19237153464C
:103B00001F2B00D9C0E154460126DEE4002320210A
:103B10000CA82B601EF0CEF92B68FFF780FB00236A
:103B200020210CA82B601EF0C5F92B68A1E400230E
:103B300020210CA82B601EF0BDF92B68B5E60B9078
:103B400020210CA81EF0B6F901260B9C84E5002369
:103B500020210CA82B601EF0ADF92C68B3E60023E1
:103B600020210CA82B601EF0A5F92C6890E40023FE
:103B700020210CA82B601EF09DF92B6897E40023F0
:103B800020210CA82B601EF095F92B68A9E6039E56
:103B90001C00093699E41C00092696E40300300055
:103BA0001E000123029302339846F4E400232021EF
:103BB0000CA82B601EF07EF92B6841E50023202124
:103BC0000CA82B601EF076F92B68FFF7E3FA0023B0
:103BD00020210CA82B601EF06DF92B68FFF705FC67
:103BE000002320210CA82B601EF064F92B681EE630
:103BF0001C00052630E50223029302339846CAE4EE
:103C0000002320210CA82B601EF054F92C68FFF72C
:103C1000FCFB002320210CA82B601EF04BF92C6824
:103C2000FFF7C8FA002320210CA82B601EF042F9F0
:103C30002C680AE606260FE5002320210CA82B603D
:103C40001EF038F92A68FFF78CFA002320210CA80F
:103C50000B931EF02FF90B9B9A46D0E500232021F1
:103C60000CA82B601EF026F92B689A46FFF7A4FBE0
:103C700053462B60059B2C19237153461F2B00D9EB
:103C8000FAE0544621E453460398EB182A60187171
:103C90001F2A00D8EFE629600CA820211EF00AF99F
:103CA00001262C68D8E4002320210CA82B601EF0EC
:103CB00001F92B68D7E5002320210CA82B601EF00A
:103CC000F9F82B68FFF786FA002320210CA82B6057
:103CD0001EF0F0F82B68FFF7A8FB1C000726BBE4DA
:103CE000042302930233984655E4059B0193002375
:103CF000049302339846FFF757FB049B9846002332
:103D000003930233019372E5002302930233039E6F
:103D10009846FFF71EFA002320210CA80B931EF0F3
:103D2000C9F80B9B9A4654E6030030001E00052399
:103D30000293023398462EE43300019E019301233F
:103D4000049302339846FFF72FFB3300464698460C
:103D5000012303930233019349E50B0031001E0058
:103D60000123029302339846FFF7F3F9039E0236CC
:103D7000FFF7ABFB0226FFF7A8FB022303930233F6
:103D8000019334E5039E1C000336FFF79EFB0223DC
:103D9000049302339846FFF707FB1C000326FFF746
:103DA00094FB0223029302339846FFF7D2F90426CC
:103DB000FFF78BFB0B0031001E000323029302333D
:103DC0009846FFF7C6F93300019E0193032304933D
:103DD00002339846FFF7E8FA039E0436FFF775FBB7
:103DE0003300464698460323039302330193FEE4CF
:103DF0000423049302339846FFF7D6FA00232021C8
:103E00000CA82B601EF056F82C68FFF75CFB1C001A
:103E10000526FFF75AFB0423039302330193E6E4DC
:103E20000423029302339846FFF793F9039E1C0084
:103E30000536FFF74AFB039E0636FFF746FB0626CC
:103E4000FFF743FB3300019E0193052304930233E4
:103E50009846FFF7A9FA3300464698460523039390
:103E600002330193C3E40B0031001E0005230293CB
:103E700002339846FFF76DF9286020210CA81EF048
:103E800019F82C68FFF721FB0B9020210CA81EF0DD
:103E900011F801260B9CFFF718FB0623049302334D
:103EA0009846FFF781FA039E1C000736FFF70DFBCB
:103EB000062303930233019399E41C000726FFF7BE
:103EC00004FB3300464698460723039302330193CD
:103ED0008DE40826FFF7F9FA3300019E01930723CA
:103EE000049302339846FFF75FFA039E0836FFF704
:103EF000ECFAC04612DF704711DF704700B585B09D
:103F00000293079B0191039301A9069BFFF7F2FF20
:103F100005B000BD13DF70470BDF704714DF70473B
:103F200016DF704718DF704719DF704760360010E2
:103F30006C3900106C3900106C3900106C390010AD
:103F40006C3900106C3900106C3900106C3900109D
:103F50006C3900106C3900106C3900106C3900108D
:103F60006C3900106C3900106C3900106C3900107D
:103F70006C3900106C3900106C3900106C3900106D
:103F80006C3900106C3900106C3900106C3900105D
:103F90006C3900106C3900106C3900106C3900104D
:103FA0006C3900106C3900106C3900106C3900103D
:103FB0006C3900106C3900106C3900106C3900102D
:103FC0006C3900106C3900106C3900106C3900101D
:103FD0006C3900106C3900106C3900106C3900100D
:103FE0006C3900106C3900106C3900106C390010FD
:103FF0006C3900106C390010F63400106C39001068
:104000006C3900106C3900106C3900106C390010DC
:104010006C3900106C3900106C3900106C390010CC
:104020006C390010D2340010543200106C3900107A
:104030006C3900106C3900106C39001054320010CB
:104040006C3900106C3900106C3900106C3900109C
:104050006C3900106C390010483000106C390010B9
:104060006C3900100A3900106C390010B436001099
:104070006C3900106C3900109C360010303132332E
:1040800034353637383961626364656630313233CE
:10409000343536373839414243444546307800009C
:1040A0005B556E737570706F7274656420546167D0
:1040B0005D000000000000000000000000000000A3
:1040C00070B5184C86B02369082B05D16369042BA1
:1040D00002D1236A042B02D0082006B070BD04333D
:1040E00004AA00216068A568666AFFF719FF08281E
:1040F000F2D1042302AA01216068FFF711FF04280E
:10410000EAD1029B019600932800049A059B00F0D7
:1041100053F90423039003AA60680021FFF702FF0C
:104120000020DAE70010010870B5184C86B023694A
:10413000082B05D1A369042B02D1236A042B02D0DA
:10414000082006B070BD043304AA00216068A56889
:104150006669FFF7E5FE0828F2D1042302AA0221CE
:104160006068FFF7DDFE0428EAD1029B0096019308
:104170002800049A059B00F003F90423039003AA86
:1041800060680021FFF7CEFE0020DAE7001001088A
:10419000F0B5C64600B588B000F0E4F8002821D19B
:1041A0000825614C06AF8021012009064042FFF737
:1041B000B3FE0300C20636D4820623D4420613D4CB
:1041C000020641D48020400003420CD02100FFF7BA
:1041D000A5FE2668B31C00DAA5E0002E00DB91E006
:1041E000002144E0FEE7FEE721004020FFF796FEB5
:1041F00021688B1C54DB002954DA00216068FFF72A
:1042000093FED0E721002020FFF788FE23689A1C48
:1042100047DB002BF1DB44D1FFF752FF0100606860
:10422000FFF782FEBFE721001020FFF777FE23682B
:104230009A1C34DB002BE0DB31D1FFF775FF010066
:104240006068FFF771FEAEE721008020FFF766FE91
:1042500021688B1C0FDB0029CFDB0CD12269A668FB
:10426000236A6068082A01D1042B05D02900606800
:10427000FFF75AFE97E7FEE72B003A00FFF750FEE4
:104280000828F3D1069A079B300000F0B9F8042300
:10429000049004AA00216068FFF744FEA0E7FEE74F
:1042A000FEE7FEE70029FBD1636AA6689C46236906
:1042B000226A6068082B04D1042A02D16346082BC5
:1042C00002D02E003100D2E72B0004AAFFF728FE0F
:1042D0000828F6D1049A059B3000009700F080F87A
:1042E00000260390042303AA00216068FFF71AFE4A
:1042F000039BB342E6D12B003A0001216068FFF72F
:1043000011FEDFE7002E0ED1236A29009846042B08
:10431000ADD100F089F8434606903A00310060685C
:10432000FFF700FECEE7FEE700100108064B10B5D0
:1043300002000C0058680B000121FFF7F1FD201A64
:10434000441EA041C00010BD0010010810B50B00B4
:104350000349020048680121FFF7E4FD10BDC04693
:104360000010010810B500F061F8002800D110BD60
:1043700000F08AF90028FAD100F058F8F7E7C046B3
:104380001900130010B50B4382B01400002B10D09D
:104390000123059A9A430133002A07D1049B0200A6
:1043A00000932000059B00F07FF80300180002B086
:1043B00010BD0823FAE7C04610B51900140082B0FA
:1043C0001A430823002A07D0059B0200009320000F
:1043D000049B00F03DF80300180002B010BDC04679
:1043E00010B5190014001A430823002A05D0029BB7
:1043F0000200200000F0E4F80300180010BDC046E1
:1044000010B5140011001C430822002C07D0020034
:104410000800190000F0FCF802000A2801D0100082
:1044200010BD0132FBE7C0460020704710B500F018
:104430000FFE002806D1044C200000F0F9F9034BD0
:10444000283C5C6010BDC0466010010830100108B7
:10445000F8B5124D1F002B0000F05EFC041E01D0C9
:104460002000F8BD0E4E2868310001F0C1FC041E8A
:1044700005D00C4A00213000FCF717F9F0E7069A46
:104480003900F06900F0D4FD041EF2D1300028306C
:1044900038180699FFF75AFFEBE7C04630100108BD
:1044A0003810010828080000F0B557464E4645462A
:1044B000DE469A468023E0B583B090460C9A06000B
:1044C0000F001B0108249A420ED8394B42469946E8
:1044D00000F022FC374D041E0ED0052821D0364AAC
:1044E00000212800FCF7E1F8200003B03CBC904616
:1044F0009946A246AB46F0BD4B462900186801F02C
:1045000077FC041EEBD16B6A0134DB07E7D453461A
:104510006B620C9B2B624B461B68019301239B46ED
:104520000CE0254A00212800FCF7BFF80C9B2B6209
:1045300053466B6202239B46002301931F4B0C9949
:1045400018009A46FFF7F2FE041EC8D128235B42EA
:104550009C46E24453460C9A49465846DA6100F0BC
:1045600031FA041EBBD14B465146186801F080FC5D
:10457000041EB4D14B4642463000390000F0B2FA76
:10458000041E06D1019B002B08D100F045FD04005C
:10459000A5E74B46186800F03DFEA0E700F03CFDA3
:1045A000041E9CD1019800F035FE040097E7C04638
:1045B00030100108381001082808000060100108B8
:1045C000F8B5104D1F002B0000F0A6FB041E01D013
:1045D0002000F8BD0C4E2868310001F009FC041ED3
:1045E00005D00A4A00213000FCF75FF8F0E7F369D4
:1045F000064A3B60736A00217B603000FCF755F887
:10460000E6E7C0463010010838100108280800000D
:10461000F8B54746CE46194D80B52B0006000F0071
:10462000904600F079FB041E04D020000CBC90469C
:104630009946F8BD124B28681900994601F0D8FB3D
:10464000041E0BD14B465B6A0134DB0706D442469D
:104650003000390000F010FC041E05D0094A00218A
:104660004846FCF722F8E0E72D6800F0D5FC041E70
:10467000F4D1280000F0CEFD0400EFE7301001086F
:10468000381001082808000010B500F0E5FC0028EB
:1046900000D010BD00F0DCFC0028FAD100F0B2F828
:1046A000F7E7C046F0B583005E58DBB0B227CA68B2
:1046B0006B460C0031007F00DA511C313A000500D6
:1046C0006846FBF7D6FFB42269465200300001F07D
:1046D00069FB002804D10223641923725BB0F0BD8A
:1046E0002369002B03D1641901332372F6E76A466C
:1046F000D351B42269465200300001F053FB431EEF
:104700009841012340429843033064192072E5E741
:10471000F0B5C646002300B50020DCB0019301F0DF
:104720000DFC041E04D020005CB004BC9046F0BD1B
:1047300001A9002001F0F6FB041EF4D101F012FAE9
:10474000041EF0D12E4D019C280001F085FA0821AD
:104750006B46B2225B18290052001C3118009C5095
:10476000FBF787FFB42202A95200280001F0F2FAF9
:10477000041E3FD101F058FA041ED4D18223C02672
:10478000FF33EF5C76009846781C2B003200310036
:1047900000F072FC041EC6D14246AB5D02A9029035
:1047A0000120AB54AF55019D01F0BCFB002824D182
:1047B000029B9D4209D9012001F0C0FB041EB2D129
:1047C000029B013302939D42F5D802A9022001F019
:1047D000A9FB002811D1029B9D4209D9022001F0BA
:1047E000ADFB041E9FD1029B013302939D42F5D87D
:1047F000002498E701F018FA95E70B2493E7C046E8
:104800006018010810B501F083FB00280DD1C42207
:10481000064C520000212000FBF747FF0123C02275
:1048200023775200A354FFF773FF10BD60180108EF
:104830000023C02170B5624E86B001AC2372637252
:10484000E36023616060330000224900012001968B
:1048500000F04EFD002801D001232372C0216368BF
:1048600000224900022000F043FD002801D001236E
:10487000637201F077F9051E02D0280006B070BD02
:1048800001F046FB051E0BD104A9002001F04AFBF4
:10489000051E05D16946012001F044FB051E02D02A
:1048A00001F0C2F9E9E705A9022001F03BFB051E72
:1048B000F6D12369009A934200D02061237A012B1C
:1048C00003D021000020FFF7EDFE637A012B03D017
:1048D00021000120FFF7E6FE01F0A6F9051ECCD16C
:1048E000019B1B7F012B01D00123237261680B7F89
:1048F000012B01D00123637202232289FF339A42E4
:1049000040D0237A012B4FD0637A012B3CD0022B6D
:1049100041D0C023802202205B005200F25200F0FE
:1049200079FC051E01D00528A7D100236946012086
:10493000E468009301F0F6FA002823D1009B9C4222
:104940000AD9012001F0FAFA051E00D095E7009B74
:10495000013300939C42F4D86946022001F0E2FA48
:10496000051E0FD1009B9C4205D825E0009B01331A
:1049700000939C4220D9022001F0E0FA0028F5D0F3
:1049800005007AE70B2578E780228033FF33520059
:10499000F2520220C3E7C02201235200B35230007A
:1049A000FBF767FE0120BAE7C0225200B352300085
:1049B000FBF75FFE0120B2E7300001F043F95CE74E
:1049C0006018010870B504000D00002800D16CE0EB
:1049D000434A116B536B194302D1013C002C5BD04D
:1049E000116D536D194303D1013C002C00D166E0D9
:1049F000116F536F194302D1013C002C61D010009C
:104A0000903001684068014302D1013C002C5AD02B
:104A10001000B03001684068014339D01000D03038
:104A200001684068014302D1013C002C55D01000C0
:104A3000F03001684068014302D1013C002C44D0B1
:104A400010001130FF3001684068014302D1013C81
:104A5000002C3CD010003130FF3001684068014329
:104A600002D1013C002C34D010005130FF300168DD
:104A70004068014302D1013C002C2CD07132FF323E
:104A8000116852680320114301D1012C15D070BD6B
:104A9000013C002CC2D104240334200000F0E0FAD1
:104AA000002804D02C600020F1E70820EFE7200068
:104AB00000F0B0FB0028F5D0E9E70934ECE7012469
:104AC000EAE70224E8E70324E6E70624E4E707240C
:104AD000E2E70824E0E70924DEE70524DCE7C04636
:104AE00060180108F0B5DE4657464E464546E0B52B
:104AF000884C1F00236B89B005008B46160083424B
:104B000057D0236DAB4200D194E0236FAB4200D16C
:104B10009AE0230090331A68AA4200D19EE0230055
:104B2000B0331A68AA4200D1A3E02300D0331A6838
:104B3000AA4200D1A8E02300F0331A68AA4200D1AB
:104B4000ADE023001133FF331A68AA4200D1B1E06F
:104B500023003133FF331A68AA4200D1B6E02300A4
:104B60005133FF331A68AA4200D1BBE023007133EE
:104B7000FF331A68AA4200D1C0E059463A68D31EF2
:104B8000023A52015B01E318A4181D6359639E6346
:104B9000796810222000FBF76CFDFFF7B9FD051EB8
:104BA00042D1280009B03CBC90469946A246AB468B
:104BB000F0BD636B8B42A4D1A36B9A42A1D10023B9
:104BC00001335B019846A044202241466846FBF72A
:104BD00050FD43461B6920229A4643465B690021EB
:104BE00040469946FBF761FD59463A68D31E023AA2
:104BF00052015B01E318A4181D6359639E63796831
:104C000010222000FBF735FDFFF782FD051EC8D0FE
:104C100053464A46134307D053460592694620221D
:104C200040460493FBF725FD202200212000FBF7DE
:104C30003CFDB6E7636D5B4500D066E7A36D9E4221
:104C400000D062E70123BBE7636F5B4500D060E7FC
:104C5000A36F9E4200D05CE70223B1E75B685B452F
:104C600000D05CE79823E3589E4200D057E7032327
:104C7000A6E75B685B4500D057E7B823E3589E4240
:104C800000D052E704239BE75B685B4500D052E706
:104C9000D823E3589E4200D04DE7052390E75B6898
:104CA0005B4500D04DE7F823E3589E4200D048E72B
:104CB000062385E75B685B4500D049E78C235B00F2
:104CC000E3589E4200D043E7072379E75B685B45E2
:104CD00000D044E79C235B00E3589E4200D03EE7AF
:104CE00008236DE75B685B4500D03FE7AC235B00C2
:104CF000E3589E4200D039E7092361E75B685B45D2
:104D000000D03AE7BC235B00E3589E4200D034E772
:104D10000A2355E76018010870B5564C256B85428B
:104D20003FD0256D85424ED0256F854253D025005A
:104D300090352E68864256D02500B0352E688642C2
:104D40005AD02500D0352E6886425ED02500F03539
:104D50002E68864262D025001135FF352E688642C6
:104D600065D025003135FF352E6886426AD0250092
:104D70005135FF352E68864200D16FE02500713530
:104D8000FF352E68864201D0052070BD68688842D4
:104D9000FAD1BC214900615805208A42F5D10A2187
:104DA00006E0656B8D42BCD1A56BAA42B9D100214A
:104DB000CA1C013149011A60586861181022FBF7BA
:104DC00058FC0020E1E7656D8D42ADD1A56DAA428A
:104DD000AAD10121ECE7656F8D42A8D1A56FAA4247
:104DE000A5D10221E4E76D688D42A5D198256559CA
:104DF000AA42A1D10321DBE76D688D42A1D1B8257C
:104E00006559AA429DD10421D2E76D688D429DD19A
:104E1000D8256559AA4299D10521C9E76D688D4207
:104E200099D1F8256559AA4295D10621C0E76D6848
:104E30008D4296D18C256D006559AA4200D090E72D
:104E40000721B5E76D688D4200D090E79C256D0085
:104E50006559AA4200D08AE70821A9E76D688D420A
:104E600000D08BE7AC256D006559AA4200D085E7DC
:104E700009219DE76018010830B5664B89B01C6BAD
:104E800084425DD01C6D844262D01C6F844267D026
:104E90001C0090342568854200D16BE01C00B034C2
:104EA0002568854200D170E01C00D0342568854219
:104EB00000D175E01C00F0342568854200D17AE00D
:104EC0001C001134FF342568854200D17EE01C00AF
:104ED0003134FF342568854200D183E01C00513411
:104EE000FF342568854200D188E01C007134FF340E
:104EF0002568854203D00525280009B030BD6068CB
:104F00008842F8D1BC214900595805250A248A4213
:104F1000F2D1013464011C19202221006846FBF7FC
:104F2000A8FB202200212000FBF7BFFBFFF7F0FBCE
:104F3000051EE1D0202269462000FBF79AFBDBE743
:104F40005C6B8C429ED19C6BA2429BD10024E0E71B
:104F50005C6D8C4299D19C6DA24296D10124D8E718
:104F60005C6F8C4200D093E79C6FA24200D08FE729
:104F70000224CEE764688C4200D08FE798241C5945
:104F8000A24200D08AE70324C3E764688C4200D0C1
:104F90008AE7B8241C59A24200D085E70424B8E768
:104FA00064688C4200D085E7D8241C59A24200D006
:104FB00080E70524ADE764688C4200D080E7F824E0
:104FC0001C59A24200D07BE70624A2E764688C4209
:104FD00000D07CE78C2464001C59A24200D076E704
:104FE000072496E764688C4200D077E79C2464002D
:104FF0001C59A24200D071E708248AE764688C42F9
:1050000000D072E7AC2464001C59A24200D06CE7C7
:1050100009247EE760180108822310B5034AFF3394
:10502000D05C013000F0F6F810BDC04660180108F1
:10503000814205D8401A90428041062210407047B4
:105040000720FCE74342584105234042184070477F
:1050500010B500F08BFA10BD10B500F041FC10BD8A
:1050600000B583B001A900F02FFA002801D103B0E8
:1050700000BD0520FBE7C046F0B5C64600B58EB0C2
:105080000D0005A904001600984600F01DFA00283E
:105090004BD006AF009709AB05AA2900200000F00D
:1050A00081FB00283DD1002E1FD0B5423DD34346A1
:1050B000002B3AD032000A99099800F0A7F900288D
:1050C00035D109A938000B9600F0ACF900282ED193
:1050D000099B3C681800039300F0ECF9099B3860C9
:1050E00019002000039300F0B9FC3900099800F082
:1050F000BDFC00281BD109A9059800F025FD00285A
:1051000015D1059800F0B2F9002810D1099B002BA9
:1051100001D1002E03D100F0ADFA002807D100F034
:1051200089FA0EB004BC9046F0BD0820F9E70B20C8
:10513000F7E7C04630B589B00D0002A9040000F0C1
:10514000C3F9002810D103A9029800F0CFFA002873
:1051500008D1079B0193A34206D1069B01936B6084
:10516000059B2B6009B030BD0520FBE770B58CB006
:105170000D0003A914001E0000F0A6F9002842D17A
:1051800007A9039800F0B2FA00283CD104A90798B7
:1051900000F0DEFA002839D1089B2A00E1180798B0
:1051A000330000F033F9002830D1099B0193AB4262
:1051B0002ED307A904A800F035F9002826D10798B6
:1051C000049C00F077F907990490200000F046FC59
:1051D00004A9079800F04AFC002817D107A90398F2
:1051E00000F0B2FC002811D1039800F03FF900282C
:1051F0000CD1079B002B03D000F03CFA002805D10E
:1052000000F018FA00E005200CB070BD0B20FBE7A1
:105210000995CEE7F0B5CE46474680B58BB004A9D8
:1052200000F052F900280AD105A9049800F05EFAAE
:10523000002806D00BB00CBC90469946F0BD052066
:10524000F8E7099B18000393FFF7FCFE0028F6D14E
:10525000059D089F099005900890079005A904985E
:10526000069E00F071FC0028E4D1002398468023BC
:105270005B010024994608E005A9200000F064FCC9
:105280000028D7D101340D2C1DD0049BA342F9D0A6
:1052900005A9200000F02AFA0028CBD1059B039332
:1052A000AB42E9D1099B0393002BE5D0069BB342A7
:1052B000E2D9994500D99946DB1B0693089B9C4689
:1052C0000393E044D8E743464A460093390033004D
:1052D000280000F039F80028ACD1002D03D000F0F0
:1052E000C9F9002802D100F0A5F9A3E70B20A1E736
:1052F000F0B589B00E0002A9040015001F0000F0EF
:10530000E3F8002809D103A9029800F0EFF900287A
:1053100017D1079B0193A34202D0052009B0F0BD2D
:10532000059B3200290018000193FFF781FE002839
:10533000F4D13B003200290003A800F04DF800280A
:10534000ECD00B20EAE7C046F0B5C64600B588B001
:105350000F0005A9050090461E0000F0F9F9041E93
:1053600004D0200008B004BC9046F0BD079B280084
:105370009C4667440393079700F09CF80E9B070038
:10538000002B1CD106990598B14209D2761A020069
:1053900000960B00380000F00DFE00281AD1059889
:1053A000290000F05BFB05A92800059700F05EFBD3
:1053B000041ED6D02900380000F050FBD1E7059B31
:1053C000310003930E9B039A0093434600F0F2FDD5
:1053D0000028D7D00B24C4E7F0B585B004000D0039
:1053E000006801A917001E0000F0B2F9002809D1D9
:1053F0000198431C06D062683B00AA18310000F0F7
:10540000B5FD00E00B2005B0F0BDC04670B50D0045
:1054100016001C0000F04EF833002A00210000F0B6
:10542000B7FD70BD70B50E00040082B0086800F0D2
:1054300041F87368616805008B4208D95B1A0093D4
:1054400022680B0000F0B6FD00280DD17368F168EA
:10545000A068591880235B011B1A5B1A009322680D
:105460000B00280000F0A6FD02B070BD70B5104B17
:105470008400DD689E68241882B0A40000942C2368
:1054800032002C21280000F095FD002805D12100D4
:1054900030234031FF33994201D902B070BD01334E
:1054A0005B1A009332000B00280000F083FDF4E744
:1054B000E8190108034B002801D018687047D86824
:1054C000FCE7C046E8190108264BF0B54E46994660
:1054D000302357464546DE46FF33E0B580468B46CF
:1054E0002C2500269A46204F89B014232A0003A9B0
:1054F000B86800F03BFD041E28D1039B0193022BEA
:1055000024D8079B18000193FFF79CFD002813D1B6
:10551000069A4A451AD8059B01939A4216D3039BD3
:1055200004990193002B01D151450FD980204001EE
:10553000FFF77EFD002809D1079B019343450ED05C
:10554000013614350D2ED0D1052400E00B242000A7
:1055500009B03CBC90469946A246AB46F0BD5B46BE
:105560001E60F4E728080000E819010810B584B0AF
:1055700000F0EEFC002801D004B010BD082300228A
:10558000694600F0F3FC002801D00B20F4E7082363
:10559000002202A9013000F0E9FC0028F5D16B4699
:1055A0001A7B1B79012B08D0012AEED16B465B7B5D
:1055B000FF2BEAD00023012007E06B465979FF2931
:1055C000F2D0012A1CD001230020194C0022E360F4
:1055D00021000823A06000F0C9FC03000B20002B71
:1055E000CAD12379012BC7D16379FF2BC4D0E068DE
:1055F00000F022FD0028BFD1206800F01DFDBBE7B0
:105600006B465A7BFF2ADED0002A08D10129D1D16E
:10561000914280410023404291425B41D5E70029FD
:10562000F6D1531E584258415A1E9341CDE7C04609
:10563000E819010810B50E4C6379E0680133DBB25C
:10564000FF2B00D10023637100220823210000F00A
:105650009FFC002800D010BDE368A068A360E06054
:1056600000F0EAFC0028F6D1206800F0E5FCF2E743
:10567000E819010830B51B4B89B09C68DD68082229
:105680000C2305A9200000F071FC002826D1059B01
:10569000042B25D88020079B40010293069B029A89
:1056A00019000393FFF7C4FC002819D1059B069944
:1056B00002930123029A93429B410B4A13403133D8
:1056C000FF3399420CD18023079A5B018A189B1AF9
:1056D000009322000B00280000F06CFC09B030BDE4
:1056E0000920FBE7E8190108D0FEFFFF8200164BF6
:1056F0001218920070B598682C3214230D0000F037
:1057000035FC041E1CD12B68022B1BD82869FFF71F
:1057100099FC002814D1EA680C4B9A4212D8AB6865
:105720009A420FD32B686968002B03D13023FF33D3
:10573000994207D980204001FFF77AFC002801D167
:10574000200070BD0924FBE7E819010828080000C3
:1057500042001218114B920010B5986808320C23C1
:105760000C0000F003FC002815D12368042B13D88B
:105770008020A26861684001FFF75AFC00280BD125
:105780000123226893429B41054A134031336268EA
:10579000FF339A4200D110BD0920FCE7E819010847
:1057A000D0FEFFFFF0B557464E464546DE469B46C7
:1057B0000023E0B58A4691460827984689B0129D95
:1057C000444E01900C233A002900B06800F0CEFB53
:1057D00000281DD12B68042B1AD88020AA6869687C
:1057E0004001FFF725FC041E12D12B68012B55D96F
:1057F00000236A689A420BD1AB689A4551D90123BC
:105800009C46E04443460C37032BDBD1032400E0E5
:105810000B24314B2C2598463023FF3300279A4622
:1058200014232A0003A9B06800F0A0FB002829D1A6
:10583000039B0193022B25D8079B18000193FFF7C8
:1058400001FC002813D1069A42451BD8059B019301
:105850009A4217D3039B04990193002B01D1514520
:1058600010D980204001FFF7E3FB00280AD1079BF5
:1058700018000193FFF7E6FB002826D10137143505
:105880000D2FCDD14A46154B13600324200009B0DB
:105890003CBC90469946A246AB46F0BD98235B00BF
:1058A000A7E75A4641461160802259465201D21A52
:1058B0004A605A465146D160019911610022594609
:1058C0008A6052469B1AAB60A3E74B461F60002CD0
:1058D000DCD0DAE7E819010828080000FFFF000023
:1058E000F0B589B0082300226946002000F03EFB95
:1058F000002807D00024200000F09EFB00281DD0C7
:1059000009B0F0BD03AD082300222900013000F0EA
:105910002DFB041EEED16B461B792A79012B73D027
:10592000012AE7D16B790122FF2BE3D04A4B2000FB
:105930009A60DC6000F080FB0028E1D101252000A6
:10594000684000F079FB0028DAD10223424C0022A3
:105950002360ED231B01029398235B0000920193C7
:10596000A060A5800C23083269460130E56000F094
:105970000FFB0028C4D1802301905B010330029308
:1059800000F05AFB0500042000F056FB054346D109
:1059900003231422009369460933E06800F0F8FA03
:1059A00000283AD104232022009369460833E06896
:1059B00000F0EEFA002830D103AD142200212800B7
:1059C0009827FAF772FE2C267F0014233200290054
:1059D000E06800F0DDFA00281FD11436BE42F4D191
:1059E0006379E5680133DBB2FF2B32D063710823A2
:1059F00000222100280000F0CBFA00280DD1E36836
:105A0000A268A360E2607BE76B465979FF2987D0E3
:105A1000012A06D00124002288E70B2070E7042029
:105A20006EE76B79FF2BF5D0002B0AD101220129FB
:105A300000D07BE79942924100245242994264414E
:105A400074E70029F6D15C1E62426241631E9C41EC
:105A50006CE76071CBE7C046E8190108002901D066
:105A6000014B18607047C046E8190108F0B5C646FA
:105A700000B5344D040088B0E868002C16D10860E9
:105A80000C23082200F084FA00281AD1EF68AE68CF
:105A90002C23013461000919890008315B1A009335
:105AA00032000B00380000F085FA0BE063001B1990
:105AB0009B001A00984608320C2300F069FA00286F
:105AC00004D00B2008B004BC9046F0BDAE680C2397
:105AD000082205A93000EF6800F048FA0028F0D14C
:105AE000059B042BEDD88020079B40010293069B69
:105AF000029A19000393FFF79BFA0028E1D1059B56
:105B00000293012B1BD90023069A02929A42D8D104
:105B1000E8680C23082205A9059700F039FA002847
:105B2000CFD1012CB4D943460C3B0093320014234F
:105B30001421380000F03EFA0028A9D0C2E79823CB
:105B40005B00E1E7E819010810B58200044B121868
:105B50009200D8682C32142300F01AFA10BDC04607
:105B6000E8190108002310B5294C8AB020000793DA
:105B7000089309930693FBF7B5FD0B23002838D152
:105B8000C02107A88900234AFBF75AFF208807A9EC
:105B9000FBF75CFF002836D116236B441A001E4920
:105BA0000130FBF7C7FD00282DD16B46D98A1023A1
:105BB0000393043B0293194B00900193184A00236E
:105BC00006A8FCF715FE002819D1208806AB802214
:105BD0001449FCF7AFFD00280ED106A8FCF7DCFD48
:105BE00000280CD16B46D88AFBF7D8FD00280AD1D3
:105BF000002318000AB010BD06A8FCF7CDFD6B46C7
:105C0000D88AFBF7CBFD2088FBF724FE0B23F0E7B7
:105C1000041A0108021000065B81FFFF6860001093
:105C2000000F00B001000040054B10B51888FBF7CD
:105C300011FE431E98410B234042184010BDC04640
:105C4000041A0108010010B510310C220148FAF7BE
:105C500010FD10BDF8190108F0B583B06C460E496F
:105C600023000A0060CA60C30122009E019F002336
:105C700092197B41009201931A4353425A410B00FF
:105C80008D681030AD1844CC44C38D600C22FAF7F7
:105C9000F0FC03B0F0BDC046F8190108F0B51600DD
:105CA000020089B0109F05001048119C00880597DC
:105CB0000F9F029304970E9F00910C2310320694BD
:105CC000039701960A49FCF7FDFA0B2300280AD135
:105CD0000F9B21689C4610392160102261442800E6
:105CE000FAF7C7FC0023180009B0F0BD041A010838
:105CF00002100006F0B5C6460400904600B588B014
:105D00000E9D0F005819210010221E00FAF7B1FC59
:105D10000E4B22001888119B10350693109B1032F1
:105D200005930F9B039504934346029601930097B6
:105D30000C230749FCF71CFB431E98410A234042F1
:105D4000184008B004BC9046F0BDC046041A0108D3
:105D500002100006030030B514008BB002000F489B
:105D600009AD008806950493102500230091039344
:105D700002931032059501940C330949FCF7A2FAFD
:105D8000002808D109981038431E98410B2340423F
:105D900018400BB030BD0B20FBE7C046041A0108C9
:105DA0000210000630B503008BB0150002000E484B
:105DB00009AC0088069400240594049410340293DE
:105DC00000911032039401950C230849FCF7D0FA96
:105DD000002807D10998431E98410A2340421840E1
:105DE0000BB030BD0A20FBE7041A010802100006C0
:105DF000F0B589B00D0006A90400FFF79BF9002853
:105E000001D009B0F0BD2B0000221033069920000C
:105E1000FFF76EFA0028F4D1069E0494FFF7A2FE65
:105E20000028EED134002F000F4E0C3C1C3722000E
:105E300039003000FAF71DFC05AB03930B4B0197BB
:105E4000029300943300042204A92800FFF752FFB4
:105E5000002802D1059B9C4203D0FFF7E5FE0B20F2
:105E6000CFE7FFF7E1FECCE7081A01080C080000B5
:105E7000F0B5CE46474680B50C00096A87B01831A8
:105E8000002300220500FFF7F7F8002804D007B030
:105E90000CBC90469946F0BDE6690495FFF762FE9A
:105EA0000028F4D11C23370098462000FFF7D4FEC9
:105EB00005AB0393144B0C370293144BA044994643
:105EC000019300974346042204A92000FFF7E6FE51
:105ED000002802D1059B9F4203D0FFF7A5FE0B20AF
