:020000041000EA
:1004000000940008910400100D000000D1B8021003
:1004100000000000000000000000000000000000DC
:10042000000000000000000000000000B9B8021049
:1004300000000000000000007DB80210110500104F
:100440001105001025B9021011050010110500104A
:1004500011050010110500101105001069B70210F8
:1004600011050010110500101105001011050010F4
:1004700011050010110500101105001011050010E4
:100480007047EFF3108072B6704780F310887047A2
:10049000FFF7F6FF72B6174C174DAC4209DA216828
:1004A0006268A368043B02DBC858D050FAE70C34FA
:1004B000F3E7124B124CA34208DA19685A6800207D
:1004C000043A01DB8850FBE70833F4E70D480E4996
:1004D0000860BFF34F8F2BF005FBEFF31480022170
:1004E000084380F31488094880F3098823F028FB27
:1004F000FEE70000300500109C0500109C05001070
:10050000F405001000AF010808ED00E0009C0008B1
:10051000FEE7FEE700B504207146084202D0EFF383
:10052000098001E0EFF30880043026F0D7FAFEE7F7
:100530000004001000AF0108300100004003031068
:1005400080AF01080C010000A00203100018000891
:1005500000000000A0020310009C00080000000042
:10056000A002031000C20008600000000003031096
:1005700080CD00084000000040030310809B01086C
:10058000000000004003031000A00108000000006C
:0C0590004C04031000F80208580300009F
:10059C008CB00108B0360000009C00082018000048
:1005AC0080B40008800D000060C2000880040000C8
:1005BC0000C7000880060000C0CD0008A0AD0000F8
:1005CC00807B010800200000809B010820000000B7
:1005DC00009C01080004000000A00108600200005B
:0805EC0080A20108000C0000D0
:0805F4000000000000000000FF
:1005FC0000000000000000000000000000000000EF
:10060C0000000000000000000000000000000000DE
:1006200010B50A22002100F093FA10BD10B50A227D
:10063000002100F045FB10BD10B5034B0A0001007E
:10064000186800F05FF810BD20B00108084B10B525
:100650000400002B02D0002100E000BF054B186809
:10066000836A002B00D0984720002EF013FCC04670
:10067000000000004C1B001010B5034B010018686F
:1006800000F098F810BDC04620B0010810B5034B2B
:100690000100186800F044F810BDC04620B0010801
:1006A00030B500240139A24201D1002005E0035DEC
:1006B00001340D5DAB42F6D0581B30BD002310B5A0
:1006C0009A4200D110BDCC5CC4540133F8E710B598
:1006D000884202D98B18984203D3002307E08B5C31
:1006E0008354013AFBD210BDCC5CC45401339A420E
:1006F000FAD1F8E703001218934200D1704719703D
:100700000133F9E74A4370B51100140000F052F8C4
:10071000051E03D022000021FFF7ECFF280070BD6A
:1007200070B50500002910D00C1F2368002B00DADB
:10073000E418280000F0D8FD1D4A1368002B05D1ED
:1007400063601460280000F0D7FD70BDA34209D992
:10075000216860188342F3D118685B6841182160F2
:10076000EEE713005A68002A01D0A242F9D91968AD
:100770005818A0420BD120680918581819608242F5
:10078000E0D110685268411819605A60DAE7A04257
:1007900002D90C232B60D5E721686018824203D16F
:1007A000106852684118216062605C60CAE7C04608
:1007B0009CE60108F8B50323CD1C9D4308350600CF
:1007C0000C2D1FD20C25A9421ED8300000F08CFD44
:1007D00025490A681400002C1AD1244F3B68002BCD
:1007E00004D12100300000F0D9F838602900300031
:1007F00000F0D4F8431C2AD10C233000336000F001
:100800007BFD03E0002DDEDA0C2333600020F8BD11
:1008100023685B1B18D40B2B03D92360E4182560D5
:1008200003E06368A2420DD10B60300000F064FD6C
:10083000200007220B30231D9043C21AE7D01B1A59
:10084000A350E4E75360F0E722006468C3E70323A2
:10085000C41C9C43A042E2D0211A300000F09EF854
:10086000431CDCD1C8E7C0469CE60108A0E60108AD
:100870000FB40B4B13B51C68002C05D0A369002BDB
:1008800002D1200000F020FC05AB049AA1682000F2
:10089000019300F061FD16BC08BC04B01847C046C7
:1008A00020B0010870B505000E00002804D083694F
:1008B000002B01D100F008FCAB69AC68002B02D121
:1008C000280000F001FC2D4B9C4222D16C68636E25
:1008D000DB0705D4A3899B0502D4A06D00F096FC2C
:1008E000A3891B0702D52369002B29D121002800E9
:1008F00000F048FA002823D001256D42636EDB0723
:1009000005D4A3899B0502D4A06D00F080FC2800CB
:1009100070BD1B4B9C4201D1AC68D8E7194B9C427F
:10092000D5D1EC68D3E70136A360002B04DAA269C5
:100930009A4216DC0A2914D023685A1C22601970C6
:10094000A3683178013B0029EDD1A360002B0FDAB9
:10095000280022000A3100F0BFF90A25431CCDD13E
:10096000CAE72200280000F0B7F9431CE8D1C3E72A
:100970000A2523685A1C22601D70BFE7701B0010F7
:10098000901B0010501B001010B5034B010018689D
:10099000FFF788FF10BDC04620B00108002370B5E6
:1009A000064C0500080023602EF066FA431C03D1B4
:1009B0002368002B00D02B6070BDC04638E70108CB
:1009C000C9B20378002B04D08B4200D170470130AC
:1009D000F7E74B42594149420840F7E702780B7864
:1009E000002A03D0013001319A42F7D0D01A704763
:1009F0000023C25C0133002AFBD1581E704703005C
:100A000030B51D00002A06D00C78013A01332C7055
:100A10000131002CF5D100219A18934200D130BD4C
:100A200019700133F9E70A7830B5002A0CD130BDCE
:100A30009A4208D10123CC5C002CF8D0C55CA542B9
:100A400001D10133F7E701300378002BF0D1180012
:100A5000EDE70000F0B587B0019102921F000A0097
:100A600008210590384813001C78551C065D2A00A3
:100A70000E40F8D12D2C34D12C7801369D1C002F3E
:100A80005ED0102F09D1302C07D120222B78934330
:100A9000582B50D110276C7802352C4B3900F318A5
:100AA0001800039302F004FC049101210023494241
:100AB00002008C46180021003039092916D80C0094
:100AC000A7421FDD591C09D06346824206D302D1DA
:100AD0000499A14202DB0123784320182C780135C8
:100AE000E9E72B2CCBD12C789D1CC8E7210041399C
:100AF000192901D8373CE3E721006139192901D8C8
:100B0000573CDDE75A1C08D1059A23331360029B3A
:100B10000398002B09D107B0F0BD002E00D0404251
:100B2000029A002AF7D0002B01D06B1E0193029B82
:100B3000019A1A60EFE73024002FAED10837ACE7F6
:100B4000302CA2D00A27A8E7491A0010FFFFFF7F28
:100B500010B513000A00010002480068FFF77AFF91
:100B600010BDC04620B00108F0B58DB00A901E003F
:100B70000820514F019102920A0014784D1C3B5DF0
:100B800029000340F8D12D2C52D101272C78951C37
:100B9000002E00D18BE0102E0AD1302C08D120225B
:100BA0002B789343582B00D07BE010266C780235CD
:100BB000002F44D101235B420493404B0593320044
:100BC000F317049805990B9302F078FB0023089023
:100BD00003910020002109922200303A092A33D8DB
:100BE0001400A6423FDD5A1C1FD0039B994237D800
:100BF00002D1089B984233D8089B834207D1039BBC
:100C00008B4204D10123099A5B42A2420DDB0B0007
:100C100002000B99300002F071FBE3170694079372
:100C2000069B079CC018614101232C780135D3E74E
:100C30002B2C01D01F00ABE72C78951CFAE7002382
:100C4000049380231B06B9E72200413A192A01D8F0
:100C5000373CC6E72200613A192A04D8573CC0E75E
:100C600001235B42E1E75A1C09D10A9A233313603E
:100C7000029B04980599002B0DD10DB0F0BD002FFB
:100C800004D006000F0000217042B941029A002AE8
:100C9000F3D0002B01D06B1E0193029B019A1A60C6
:100CA000EBE73024002E00D082E7083680E7302CB6
:100CB00000D174E70A267BE7491A0010FFFFFF7F87
:100CC00010B513000A00010002480068FFF74CFF4E
:100CD00010BDC04620B00108F8B505000E00140094
:100CE000002804D08369002B01D100F0EDF9224BDC
:100CF0009C422ED16C68A369A360A3891B0732D5DF
:100D00002369002B2FD023682269F7B2981A6369F0
:100D1000F6B2834205DC2100280000F033F90028F8
:100D200027D1A3680130013BA36023685A1C2260CD
:100D30001F706369834204D0A389DB0707D50A2E9D
:100D400005D12100280000F01DF9002811D1300044
:100D5000F8BD0A4B9C4201D1AC68CCE7084B9C42E1
:100D6000C9D1EC68C7E72100280000F00BF8002883
:100D7000C9D001267642EAE7701B0010901B0010D4
:100D8000501B0010364B70B51D6806000C00002D7E
:100D900005D0AB69002B02D1280000F095F9314B4A
:100DA0009C420FD16C680C23E25E93B219072DD4DC
:100DB000D90611D409230120336037331343A381AB
:100DC000404270BD284B9C4201D1AC68EBE7274BF9
:100DD0009C42E8D1EC68E6E75B0713D5616B00291C
:100DE00008D023004433994202D03000FFF798FC2A
:100DF000002363632422A3899343A38100236360B8
:100E0000236923600823A2891343A3812369002B4C
:100E10000BD1A0218022A389890092000B4093422C
:100E200003D02100300000F01BFA0123A2891340F7
:100E300011D00023A36063695B42A3610020236992
:100E40008342BED10C23E25E1306BAD5402313437E
:100E5000A3810138B5E7920700D46369A360EDE789
:100E600020B00108701B0010901B0010501B0010D8
:100E7000F7B58A8905000C0013075DD44B68002B79
:100E800004DC0B6C002B01DC0020FEBDE76A002FA8
:100E9000FAD000232E682B6080235B011A4034D0E7
:100EA000606DA3895B0706D56368C01A636B002B6E
:100EB00001D0236CC01A0200216A00232800E76ACF
:100EC000B847A189431C06D12B681D2B31D82C4A69
:100ED000DA40D3072DD50023636023692360CB0458
:100EE00005D5431C02D12B68002B00D16065616BD6
:100EF0002E600029C8D023004433994202D0280034
:100F0000FFF70EFC00206063BFE70123216A280081
:100F1000B847431CC5D12B68002BC2D01D2B01D074
:100F2000162B01D12E60AFE74023A2891343A38182
:100F3000ABE740230B43FAE70F69002FA4D00B68FF
:100F40000F60DB1B01930023920700D14B69A36064
:100F5000019B002B00DC97E7019B3A00216A2800E7
:100F6000A66AB047002806DC40230120A28940423F
:100F70001343A38189E7019B3F181B1A0193E7E7FD
:100F8000010040200B6970B505000C00002B02D158
:100F90000025280070BD002804D08369002B01D1F2
:100FA00000F092F8144B9C421BD16C680C22A35E9B
:100FB000002BEDD0626ED20704D49B0502D4A06D45
:100FC00000F024F928002100FFF752FF636E0500AE
:100FD000DB07DED4A3899B05DBD4A06D00F017F9F5
:100FE000D7E7064B9C4201D1AC68DFE7044B9C423B
:100FF000DCD1EC68DAE7C046701B0010901B0010D3
:10100000501B0010002310B5040003604360836090
:1010100081814366C28103614361836119000822B3
:101020005C30FFF767FB054B24626362044BA362ED
:10103000044BE362044B236310BDC046B518001097
:10104000DD180010151900104119001010B50249E3
:1010500000F0BAF810BDC046850F001070B56825C5
:101060004A1E55430E0029007431FFF7A3FB041EEE
:1010700008D000212A00016046600C30A060683270
:10108000FFF738FB200070BD10B5024800F0BEF835
:1010900010BDC04634E7010810B5024800F0B7F8AB
:1010A00010BDC04634E7010810B5024800F0AEF8A4
:1010B00010BDC0462FE7010810B5024800F0A7F8A0
:1010C00010BDC0462FE7010813B50400FFF7ECFF81
:1010D000A369002B02D0FFF7EFFF13BDA364E36405
:1010E0002365134B134A1B68A2620193A34201D1EB
:1010F0000123A361200000F01FF86060200000F0D1
:101100001BF8A060200000F017F80022E060042126
:101110006068FFF777FF01220921A068FFF772FFDF
:1011200002221221E068FFF76DFF0123A361D2E7DD
:101130004C1B00104D100010F8B50700FFF7A4FF7E
:101140001F4B1E68B369002B02D13000FFF7BCFFB4
:101150004836B4687368013B04D53368002B22D04D
:101160003668F6E70C22A55E002D1AD12000154B3B
:101170005830E360656600F048F8FFF78DFF200007
:101180002560A560656025616561A561082229006B
:101190005C30FFF7AFFA6563A563A564E5642000E2
:1011A000F8BD6834D7E704213800FFF757FF041E65
:1011B0003060D5D1FFF770FF0C233B60EFE7C046EE
:1011C0004C1B00100100FFFFF7B5040007000026CC
:1011D00001914834002C01D13000FEBD6368A56840
:1011E0000093009B013B009301D52468F2E7AB8993
:1011F000012B08D90E22AB5E013304D02900380040
:10120000019B984706436835EBE770477047704786
:1012100070B50E001D000E23C95E96B014000029A3
:1012200007DA00232B60B3891B0611D48023DB006F
:101230000FE06A4600F0B0FB0028F2DBF022019BD1
:1012400012021340054A9B185A4253412B60EDE7A6
:1012500040230020236016B070BDC04600E0FFFFB1
:10126000F7B502268B8905000C00334206D0230017
:1012700047332360236101236361F7BD01AB6A46F5
:10128000FFF7C6FF009907002800FFF793FA002830
:1012900008D10C22A35E9A05EFD4032293431E4388
:1012A000A681E4E70F4BAB628023A2892060134341
:1012B000A381009B20616361019B002B0DD00E2355
:1012C000E15E280000F07AFB002806D00322A38903
:1012D00093431A0001231343A381A0893843A081BB
:1012E000CBE7C0464D10001010B50248FFF78EFF47
:1012F00010BDC04630E7010810B50248FFF787FF70
:1013000010BDC04630E70108936810B5013B9360FB
:10131000002B04DA9469A34207DB0A2905D013687D
:10132000581C10601970080010BDFFF7D5FC0100B3
:10133000F9E7F8B506000F001400D518AC4201D14A
:10134000002007E021783A003000FFF7DDFF01348C
:10135000431CF3D1F8BD0000F0B5A1B007000D00AB
:1013600003921E00002804D08369002B01D1FFF7EF
:10137000ABFE8C4B9D421CD17D686B6EDB0705D4A8
:10138000AB899B0502D4A86DFFF740FFAB891B0713
:1013900002D52B69002B1DD129003800FFF7F2FC84
:1013A000002817D06B6EDB070DD50120404221B01D
:1013B000F0BD7D4B9D4201D1BD68DEE77B4B9D4278
:1013C000DBD1FD68D9E7AB899B05EED4A86DFFF7AB
:1013D0001EFFEAE7002308AC636120336376103315
:1013E000A3760796039E3378002B01D0252B4BD193
:1013F000039BF31A05930CD0039A29003800FFF7DA
:1014000098FF431C00D1B5E06269059B9446634494
:1014100063613378002B00D1ACE00122731C03938D
:1014200000235242626004A9543252182360E360E0
:10143000A3601370A365039B052219785C4800F034
:10144000E3FA039B5E1C002820D12268D30604D552
:10145000532304A95B1820211970130704D55323C3
:1014600004A95B182B211970039B1B782A2B16D01B
:101470000021E368039E3278701C303A8446092AC2
:101480004FD9002911D117E00136ACE7484B22684B
:10149000C01A01238340134323600396CBE7079BC5
:1014A000191D1B680791002B01DB0B9304E05B42C5
:1014B000E36002231343236033782E2B0AD1737821
:1014C0002A2B37D1079B02361A1D1B680792002B67
:1014D0002DDB099331780322364800F095FA002875
:1014E00007D0344B2268C01A40238340134301368F
:1014F00023603178731C06222F480393217600F075
:1015000083FA002845D02D4B002B27D10722079BBB
:1015100007339343083307936369049A9B18636105
:1015200060E70A214B4366469B180939A3E701236C
:101530005B42CEE700231A00013663603178701CED
:1015400030398446092903D9002BC3D00992C1E759
:101550000A235A4366465218093BEFE707AB00934C
:101560002A00174B2100380000E000BF0490049BC4
:101570000133D1D16B6EDB0705D4AB899B0502D457
:10158000A86DFFF744FEAB895B0600D50DE70D980B
:101590000DE707AB00932A00094B2100380000F04B
:1015A0007FF8E3E7701B0010901B0010501B001029
:1015B000B01B0010B61B0010BA1B0010000000008A
:1015C00033130010F7B5150001938A680B6900907A
:1015D0000C00934200DA130022002B604332127891
:1015E000002A01D001332B6023689B0602D52B68AB
:1015F00002332B60062723681F4027D02300433384
:101600001B785A1E93412268920630D42200019919
:1016100043320098089EB047431C25D0062320681B
:101620002A68E16803400025042B03D18D1AEB439F
:10163000DB171D40A3682269934201DD9B1AED1858
:101640000027BD4220D1002010E00137E3682A685E
:101650009B1ABB42D2DD2200012319320199009866
:10166000089EB047431CF0D101204042FEBD30200F
:10167000E1184331087021005A1C45310978A2183D
:10168000433202331170C1E7220001231A3201995B
:101690000098089EB047431CE6D00137D1E7000010
:1016A000F0B58BB006920A0043320793059004927E
:1016B0000A7E0C00109B6E2A00D1AFE020D8632A6E
:1016C00035D008D8002A00D1B5E0582A51D02600DC
:1016D0004236327032E0642A01D0692AF7D11968A3
:1016E00020680A1D05062BD50D681A60002D03DA47
:1016F0002D23049A6D4213706C4B0A27039352E01A
:10170000732A00D19BE008D86F2A1FD0702ADED13F
:10171000202209680A43226003E0752A16D0782A3D
:10172000D5D12200782145321170614A24E026008B
:101730001A684236111D19601368337001238CE05A
:101740000D681A604106D1D52DB2CFE7196825681A
:10175000081D18602E0601D50D6803E06D06FBD547
:101760000D68ADB2514B0A2703936F2A17D1082792
:1017700015E045310A704D4A03921A68216820CA63
:101780001A60080644D5CB0702D5202319432160EF
:101790001027002D03D1202322689A4322602300C2
:1017A000002243331A706368A360002B03DB04221A
:1017B000216891432160002D02D1049E002B0AD0A4
:1017C000049E3900280001F073FD039B013E5B5C21
:1017D0003370AF4220D9082F09D12368DB0706D523
:1017E00063682269934202DC3023013E3370049B1C
:1017F0009B1B2361079B09AA00932100069B059868
:10180000FFF7E0FE431C2DD1012040420BB0F0BD9C
:101810004806B8D5ADB2B6E70500D2E71A680D683C
:10182000101D4969186013682E0601D5196002E081
:101830006D06FBD519800023049E2361DAE71A6840
:10184000111D1960166800216268300000F0DCF894
:10185000002801D0801B6060636823610023049A24
:101860001370C7E72369320006990598079DA847BA
:10187000431CC9D023689B0715D4099BE068984294
:10188000C4DA1800C2E7220001231932069905982C
:10189000079EB047431CB7D00135E368099A9B1AED
:1018A000AB42F0DCE9E70025F7E7C046C11B0010BA
:1018B000D21B001070B50C000E25495F00F0B0F887
:1018C000002803DB636D1B18636570BDA389024AA2
:1018D0001340A381F9E7C046FFEFFFFFF8B51F00F3
:1018E0008B8905000C001600DB0505D50E23C95EAB
:1018F0000022022300F074F8A389054A280013404F
:10190000A38132000E23E15E3B0000F01FF8F8BD1A
:10191000FFEFFFFF70B50C000E25495F00F060F887
:10192000A389421C03D1054A1340A38170BD8022C4
:1019300052011343A3816065F8E7C046FFEFFFFF44
:1019400010B50E23C95E00F015F810BD70B5050086
:10195000080011000022064C22601A0022F076FED8
:10196000431C03D12368002B00D02B6070BDC04600
:1019700038E70108002370B5064C05000800236015
:101980002DF052FA431C03D12368002B00D02B60AA
:1019900070BDC04638E70108002370B5064C05004D
:1019A0000800110023602DF047FA431C03D123687F
:1019B000002B00D02B6070BD38E70108002370B504
:1019C000064C0500080023602DF03EFA431C03D1AD
:1019D0002368002B00D02B6070BDC04638E701089B
:1019E00070B50500080011000022064C22601A00A4
:1019F0002DF032FA431C03D12368002B00D02B605A
:101A000070BDC04638E70108C9B28218904201D1C2
:101A10000020704703788B42FBD00130F6E70000CE
:101A200070B50500080011000022064C22601A0063
:101A30002DF01AFA431C03D12368002B00D02B6031
:101A400070BDC04638E7010800202020202020205B
:101A5000202028282828282020202020202020205E
:101A6000202020202020202020881010101010106E
:101A700010101010101010101004040404040404BA
:101A80000404041010101010101041414141414154
:101A90000101010101010101010101010101010136
:101AA0000101010110101010101042424242424246
:101AB0000202020202020202020202020202020206
:101AC00002020202101010102000000000000000AE
:101AD0000000000000000000000000000000000006
:101AE00000000000000000000000000000000000F6
:101AF00000000000000000000000000000000000E6
:101B000000000000000000000000000000000000D5
:101B100000000000000000000000000000000000C5
:101B200000000000000000000000000000000000B5
:101B300000000000000000000000000000000000A5
:101B400000000000000000000000000024B00108B8
:101B50000000000000000000000000000000000085
:101B60000000000000000000000000000000000075
:101B70000000000000000000000000000000000065
:101B80000000000000000000000000000000000055
:101B90000000000000000000000000000000000045
:101BA0000000000000000000000000000000000035
:101BB000232D302B2000686C4C0065666745464736
:101BC00000303132333435363738394142434445B9
:101BD0004600303132333435363738396162636428
:101BE0006566000005DF70470020FBE706DF7047F1
:101BF00000000000080000000800000000020000D3
:101C000000000000000000000000000000000000D4
:101C10000000000000000000000000000B000000B9
:101C20003F000000000000003F0000000000000036
:101C3000EFF314830138421E904101221040934378
:101C4000184380F31488704730B58BB0029003912D
:101C500002A90491069308210EAB08930423059171
:101C6000702007390792099302F076FB041E10DDFD
:101C7000002304AA019300930021033302F06EFBBA
:101C80000500200002F076FB032D05D028000BB0E4
:101C900030BD84256D42F9E78A3DF7E770B58CB019
:101CA000039204AA08920822099203AA0A92042223
:101CB000119E0B92109A0490059106920793002EA4
:101CC0001CD00121712002F047FB041E13DD01230B
:101CD000019306AB009308AA0223002102F03EFB09
:101CE0000500200002F046FB032D07D0079B336060
:101CF00028000CB070BD84256D42F9E787256D4240
:101D0000F6E7C04630B589B002AB049308230290D1
:101D1000039105930121043372200692079302F088
:101D20001BFB041E11DD0123019306AB009304AAE3
:101D30000123002102F012FB0500200002F01AFB33
:101D4000032D05D0280009B030BD84256D42F9E788
:101D50008A3DF7E730B587B002AB049308230290C1
:101D6000039101217320059302F0F6FA041E0EDDA3
:101D7000002304AA019300930021013302F0EEFA3C
:101D80000500200002F0F6FA280007B030BD8425D7
:101D90006D42F9E70020704730B595B00C00039014
:101DA000242200210BA8FEF7A5FC0AAA06922822ED
:101DB000079203AA0223089204220121802004949E
:101DC0000A930992059302F0C7FA041E0FDD01235E
:101DD000019304AB009306AA0223002102F0BEFA8D
:101DE0000500200002F0C6FA280015B030BD842599
:101DF0006D42F9E7862040427047C04630B58FB04B
:101E000005002422002105A8FEF774FC032304AC7E
:101E10000493012125338020E5800294039302F08E
:101E20009BFA041E0EDD002302AA019300930021F9
:101E3000013302F093FA0500200002F09BFA28001B
:101E40000FB030BD84256D42F9E7C046F0B595B0BE
:101E500007000E001500002124220BA81C00FEF72D
:101E600049FC04230A930AAB049328230593043BFB
:101E700007930121223B802002940697089609953A
:101E8000039302F069FA041E0FDD0123019302ABF4
:101E9000009304AA0323002102F060FA0500200049
:101EA00002F068FA280015B0F0BD84256D42F9E70C
:101EB00030B58FB005002422002105A8FEF71AFCDA
:101EC000052304AC0493012123338020E580029490
:101ED000039302F041FA041E0EDD002302AA0193CF
:101EE00000930021013302F039FA0500200002F0CE
:101EF00041FA28000FB030BD84256D42F9E7C04695
:101F000070B590B006AC06000D002822002120001C
:101F1000FEF7F0FB2823012103938020043BE68099
:101F200002940495059302F017FA041E0FDD0123B5
:101F3000019304AB009302AA0123002102F00EFAE0
:101F40000500200002F016FA280010B070BD8425AC
:101F50006D42F9E7F0B5C64600B590B007000E0037
:101F600015000021242207A89846FEF7C3FB06238C
:101F700006AC0693012122338020E780029403936C
:101F80000496059502F0E8F9041E14DD012301937F
:101F900004AB009302AA0123002102F0DFF94346BB
:101FA000059A05001A60200002F0E4F9280010B03C
:101FB00004BC9046F0BD84256D42F7E7F0B5C646F7
:101FC00000B590B007000E0015000021242207A8DC
:101FD0009846FEF78FFB072306AC069301212133B9
:101FE0008020E780029403930496059502F0B4F9EB
:101FF000041E14DD0123019304AB009302AA012304
:10200000002102F0ABF94346059A05001A60200052
:1020100002F0B0F9280010B004BC9046F0BD842551
:102020006D42F7E7F0B593B007000E0015000021F0
:10203000242209A8FEF75EFB0823089320330593AA
:10204000043B08AC07930121223B8020E7800494E5
:1020500006960295039302F07FF9041E0FDD01231B
:10206000019302AB009304AA0223002102F076F947
:102070000500200002F07EF9280013B0F0BD842591
:102080006D42F9E7F0B5C64600B592B004000F0006
:1020900016000021242209A89846FEF72BFB1D23D9
:1020A0000893236808ADEB60282301210393802067
:1020B000243B0494029505930697079602F04CF989
:1020C000041E14DD0223019304AB009302AA012332
:1020D000002102F043F94346079A05001A602000E8
:1020E00002F048F9280012B004BC9046F0BD8425E7
:1020F0006D42F7E7F0B593B004000F001600002121
:10210000242209A8FEF7F6FA1E230893236808ADD7
:10211000EB602823012105938020243B0294049541
:1021200006970796039302F017F9041E0FDD0123AB
:10213000019302AB009304AA0223002102F00EF9DE
:102140000500200002F016F9280013B0F0BD842528
:102150006D42F9E7F0B591B005000F0016000021BF
:10216000242207A8FEF7C6FA1B2306932B6806ACA9
:10217000E3602823012103938020243BE780A660AD
:1021800002940495059302F0E7F8041E0FDD012385
:10219000019304AB009302AA0123002102F0DEF8B0
:1021A0000500200002F0E6F8280011B0F0BD8425FB
:1021B0006D42F9E7F0B591B005000F00160000215F
:1021C000242207A8FEF796FA1C2306932B6806AC78
:1021D000E3602823012103938020243BE780A6604D
:1021E00002940495059302F0B7F8041E0FDD012355
:1021F000019304AB009302AA0123002102F0AEF880
:102200000500200002F0B6F8280011B0F0BD8425CA
:102210006D42F9E7F0B5C64600B594B004008846B3
:102220001700002124220BA81E00FEF763FA1F23CB
:102230000A9323680AADEB60282303934346049373
:10224000042307931A9B0121802006940295059789
:102250000896099302F080F8041E14DD022301930E
:1022600006AB009302AA0223002102F077F8099A34
:102270001B9B05001A60200002F07CF8280014B0B7
:1022800004BC9046F0BD84256D42F7E730B591B0AF
:1022900004002422002107A8FEF72CFA212306932C
:1022A000236806ADEB602823012103938020243BA3
:1022B00004940295059302F04FF8041E0FDD0123EC
:1022C000019304AB009302AA0123002102F046F817
:1022D0000500200002F04EF8280011B030BD842522
:1022E0006D42F9E7F0B5C64600B592B004000F00A4
:1022F00016000021242209A89846FEF7FBF92023A6
:102300000893236808ADEB60282301210393802004
:10231000243B0494029505930697079602F01CF857
:10232000041E14DD0223019304AB009302AA0123CF
:10233000002102F013F84346079A05001A602000B6
:1023400002F018F8280012B004BC9046F0BD8425B5
:102350006D42F7E770B590B005000E002422002111
:1023600007A8FEF7C7F90B2306932B6806ACE360BA
:102370002823012103938020243BA6600294049526
:10238000059301F0E9FF041E0FDD0123019304AB67
:10239000009302AA0123002101F0E0FF05002000C4
:1023A00001F0E8FF280010B070BD84256D42F9E708
:1023B000F0B593B004000F0016000021242209A8F4
:1023C000FEF798F90C230893236808ADEB602823E7
:1023D000012105938020243B0294049506970796DB
:1023E000039301F0B9FF041E0FDD0123019302AB3B
:1023F000009304AA0223002101F0B0FF0500200091
:1024000001F0B8FF280013B0F0BD84256D42F9E754
:10241000F0B5C64600B592B004000F0016000021CA
:10242000242209A89846FEF765F90D23089323682E
:1024300008ADEB602823012103938020243B049402
:10244000029505930697079601F086FF041E14DD9A
:102450000223019304AB009302AA0123002101F09F
:102460007DFF4346079A05001A60200001F082FFB5
:10247000280012B004BC9046F0BD84256D42F7E7F9
:10248000F0B593B004000F0016000021242209A823
:10249000FEF730F90E230893236808ADEB6028237C
:1024A000012105938020243B02940495069707960A
:1024B000039301F051FF041E0FDD0123019302ABD2
:1024C000009304AA0223002101F048FF0500200028
:1024D00001F050FF280013B0F0BD84256D42F9E7EC
:1024E00030B591B004002422002107A8FEF702F9BC
:1024F0000F230693236806ADEB6028230121039385
:102500008020243B04940295059301F025FF041ECE
:102510000FDD0123019304AB009302AA01230021E4
:1025200001F01CFF0500200001F024FF280011B07D
:1025300030BD84256D42F9E770B590B006000C00FF
:102540002422002107A8FEF7D5F81023069333684C
:1025500006ADEB6028230393243B02950494059376
:10256000002C02D02368002B18D10121802001F01B
:10257000F3FE041E0FDD0123019304AB009302AAB6
:102580000123002101F0EAFE0500200001F0F2FE27
:10259000280010B070BD84256D42F9E789256D4291
:1025A000F6E7C046F0B591B005000F001600002117
:1025B000242207A8FEF79EF8132306932B6806AC87
:1025C000E3602823012103938020243BE780A66059
:1025D00002940495059301F0BFFE041E0FDD012354
:1025E000019304AB009302AA0123002101F0B6FE7F
:1025F0000500200001F0BEFE280011B0F0BD8425CA
:102600006D42F9E7F0B591B005000F00160000210A
:10261000242207A8FEF76EF8142306932B6806AC55
:10262000E3602823012103938020243BE780A660F8
:1026300002940495059301F08FFE041E0FDD012323
:10264000019304AB009302AA0123002101F086FE4E
:102650000500200001F08EFE280011B0F0BD842599
:102660006D42F9E7F0B593B004000F0016000021A9
:10267000242209A8FEF73EF815230893236808AD25
:10268000EB602823012105938020243B02940495CC
:1026900006970796039301F05FFE041E0FDD0123EA
:1026A000019302AB009304AA0223002101F056FE1D
:1026B0000500200001F05EFE280013B0F0BD842567
:1026C0006D42F9E7F0B5C64600B592B004000F00C0
:1026D00016000021242209A89846FEF70BF81623BD
:1026E0000893236808ADEB60282301210393802021
:1026F000243B0494029505930697079601F02CFE5F
:10270000041E14DD0223019304AB009302AA0123EB
:10271000002101F023FE4346079A05001A602000BD
:1027200001F028FE280012B004BC9046F0BD8425BC
:102730006D42F7E7F0B593B004000F0016000021DA
:10274000242209A8FDF7D6FF17230893236808ADB4
:10275000EB602823012105938020243B02940495FB
:1027600006970796039301F0F7FD041E0FDD012382
:10277000019302AB009304AA0223002101F0EEFDB5
:102780000500200001F0F6FD280013B0F0BD8425FF
:102790006D42F9E730B591B004002422002107A86A
:1027A000FDF7A8FF18230693236806ADEB602823E6
:1027B000012103938020243B04940295059301F0AA
:1027C000CBFD041E0FDD0123019304AB009302AA8D
:1027D0000123002101F0C2FD0500200001F0CAFD27
:1027E000280011B030BD84256D42F9E7F0B5C6462A
:1027F00000B594B080460F001600002120220BA8DF
:102800001D001A9CFDF776FF222342460A936B4671
:102810000C97DA851395002C37D00AAB0493282344
:1028200005931C9B089406931D9B07931B9B099380
:102830001E9B02931F9B0393102D29D8002E06D0B8
:10284000002D04D02A0031000FA8FDF737FF012129
:10285000802001F081FD051E1DDD230001225C1E8C
:10286000A341019202AA02330092002104AA01F0BE
:1028700075FD039A209B04001A60280001F07AFD80
:10288000200014B004BC9046F0BD1B9B002BC4D0AC
:1028900087246442F4E784246442F1E7F0B5C64635
:1028A00000B594B080460F001600002120220BA82E
:1028B0001D001A9CFDF71EFF232342460A936B4618
:1028C0000C97DA851395002C37D00AAB0493282394
:1028D00005931C9B089406931D9B07931B9B0993D0
:1028E0001E9B02931F9B0393102D29D8002E06D008
:1028F000002D04D02A0031000FA8FDF7DFFE0121D2
:10290000802001F029FD051E1DDD230001225C1E33
:10291000A341019202AA02330092002104AA01F00D
:102920001DFD039A209B04001A60280001F022FD7F
:10293000200014B004BC9046F0BD1B9B002BC4D0FB
:1029400087246442F4E784246442F1E7F0B5C64684
:1029500000B592B080460F0016000021242209A87D
:102960001D00FDF7C7FE2E230893434608ACE38005
:1029700028230593189B01210293199B8020A760AF
:10298000049406960795039301F0E6FC041E14DDFB
:102990000123019302AB009304AA0223002101F05A
:1029A000DDFC039A1A9B05001A60200001F0E2FC8E
:1029B000280012B004BC9046F0BD84256D42F7E7B4
:1029C000F0B5C64600B592B080460F001600002153
:1029D000242209A81D00FDF78DFE2E2308934346EF
:1029E00008ACE38028230593189B01210293199BCF
:1029F0008020A760049406960795039301F0ACFC31
:102A0000041E14DD0123019302AB009304AA0223E8
:102A1000002101F0A3FC039A1A9B05001A60200014
:102A200001F0A8FC280012B004BC9046F0BD84253B
:102A30006D42F7E7F0B5C64600B592B080460F008C
:102A400016000021242209A81D00FDF753FE2F23A4
:102A50000893434608ACE38028230393189B012185
:102A60000693199B8020A76002940496059507930E
:102A700001F072FC041E10DD002302AA01930093F2
:102A80000021033301F06AFC0500200001F072FC14
:102A9000280012B004BC9046F0BD84256D42F7E7D3
:102AA000F0B5C64600B592B080460F001600002172
:102AB000242209A81D00FDF71DFE2F23089343467D
:102AC00008ACE38028230393189B01210693199BEC
:102AD0008020A760029404960595079301F03CFCC2
:102AE000041E10DD002302AA01930093002103338A
:102AF00001F034FC0500200001F03CFC280012B07D
:102B000004BC9046F0BD84256D42F7E7F0B595B062
:102B100005000C001700002124220BA81E00FDF761
:102B2000E9FD30230A936B46DD851A9B0C94002B3C
:102B300028D00AAB0493282304AC63601A9BE66098
:102B400023611B9B02AE63611C9BA76002931D9BCC
:102B500001217360802001F0FFFB0323051E2BDDA4
:102B600001220096019200212200280001F0F6FBCC
:102B700072681E9B04001A60280001F0FBFB200015
:102B800015B0F0BD1B9B002B19D10AAB0493282371
:102B900004AC63601B9BE660236163611C9B02AE17
:102BA00002931D9BA76073600121802001F0D4FB7C
:102BB000051E01DD0223D3E784246442DFE7872476
:102BC0006442DCE7F0B595B005000C001700002169
:102BD00024220BA81E00FDF78DFD31230A936B46BE
:102BE000DD851A9B0C94002B28D00AAB0493282374
:102BF00004AC63601A9BE66023611B9B02AE6361B9
:102C00001C9BA76002931D9B01217360802001F033
:102C1000A3FB0323051E2BDD012200960192002158
:102C20002200280001F09AFB72681E9B04001A60C3
:102C3000280001F09FFB200015B0F0BD1B9B002B6E
:102C400019D10AAB0493282304AC63601B9BE66094
:102C5000236163611C9B02AE02931D9BA76073609E
:102C60000121802001F078FB051E01DD0223D3E75E
:102C700084246442DFE787246442DCE770B590B0C7
:102C800006000D002422002107A8FDF733FD3323A1
:102C90000693336806ACE360282301210393802068
:102CA000243B02940495059301F056FB041E0FDDAE
:102CB0000123019304AB009302AA0123002101F038
:102CC0004DFB0500200001F055FB280010B070BD41
:102CD00084256D42F9E7C046F0B591B007000E00BB
:102CE00015000021242207A8FDF704FD38230693D0
:102CF0003B6806ACE3602823012180200294039303
:102D00000496059501F028FB041E0FDD01230193B5
:102D100004AB009302AA0123002101F01FFB050070
:102D2000200001F027FB280011B0F0BD84256D4282
:102D3000F9E7C046F0B58FB005000F00160000217E
:102D4000202206A8FDF7D6FC362304932B6804AC9A
:102D5000E360282301218020A780E680029403936A
:102D600001F0FAFA041E0EDD002302AA019300937B
:102D70000021013301F0F2FA0500200001F0FAFA17
:102D800028000FB0F0BD84256D42F9E730B591B051
:102D900004002422002107A8FDF7ACFC3A23069387
:102DA000236806ADEB602823012103938020243B98
:102DB00004940295059301F0CFFA041E0FDD012360
:102DC000019304AB009302AA0123002101F0C6FA8B
:102DD0000500200001F0CEFA280011B030BD842596
:102DE0006D42F9E7F0B5C64600B592B005008846D9
:102DF0001700002120220AA81E00FDF77BFC3723C4
:102E00000893434608ACA3802B680121E360282384
:102E10000593189B802007930423E780049406966B
:102E20000295039301F098FA041E11DD012301932A
:102E300002AB009304AA0223002101F08FFA0500DF
:102E4000200001F097FA280012B004BC9046F0BDB3
:102E500084256D42F7E7C04630B591B005000C00FF
:102E60002422002107A8FDF745FC3C23069306AB6E
:102E7000029328230495039305940025002C02D186
:102E8000280011B030BD0121802001F065FA041E38
:102E90000DDD0123019304AB009302AA012300215D
:102EA00001F05CFA0500200001F064FAE8E78425EF
:102EB0006D42E5E730B593B00C00050024220021F7
:102EC00009A8FDF717FC3D23089308AB04932823BA
:102ED0000593043B07930121223B80200294069531
:102EE000039301F039FA041E0FDD0123019302ABB5
:102EF000009304AA0223002101F030FA050020000B
:102F000001F038FA280013B030BD84256D42F9E78E
:102F1000862040427047C046862040427047C046E7
:102F2000862040427047C046862040427047C046D7
:102F3000862040427047C046862040427047C046C7
:102F4000862040427047C046862040427047C046B7
:102F5000862040427047C046862040427047C046A7
:102F6000862040427047C046F0B5C64600B592B0D4
:102F70000700884616000021242209A81D00FDF73D
:102F8000B9FB3B230893434608ACE3802823059311
:102F9000189B01210293199B8020A7600494069638
:102FA0000795039301F0D8F9041E14DD0123019362
:102FB00002AB009304AA0223002101F0CFF9039A87
:102FC0001A9B05001A60200001F0D4F9280012B005
:102FD00004BC9046F0BD84256D42F7E770B590B013
:102FE00005000E002422002107A8FDF783FB3223F1
:102FF00006932B6806ACE36028230121039380200D
:10300000243BA66002940495059301F0A5F9041EE3
:103010000FDD0123019304AB009302AA01230021D9
:1030200001F09CF90500200001F0A4F9280010B07F
:1030300070BD84256D42F9E770B58EB006000D00B5
:103040002422002105A8FDF755FB3423049333689F
:1030500004ACE360282301218020256102940393BE
:1030600001F07AF9041E0EDD002302AA01930093F9
:103070000021013301F072F90500200001F07AF916
:1030800028000EB070BD84256D42F9E7F0B5C64644
:1030900007001E2000B590B08846160000212222AD
:1030A00068441D00FDF726FB35230693434606AC16
:1030B000A3803B680121E3602823802002940393CE
:1030C0000496059501F048F9041E10DD002302AABC
:1030D000019300930021023301F040F90500200024
:1030E00001F048F9280010B004BC9046F0BD8425DA
:1030F0006D42F7E7F0B593B006000F001500002110
:10310000242209A8FDF7F6FA392308933B6808AC96
:10311000E36028230593043B07930121223B802091
:10312000049406960295039301F016F9041E0FDD30
:103130000123019302AB009304AA0223002101F0B2
:103140000DF90500200001F015F9280013B0F0BDBD
:1031500084256D42F9E7C046862040427047C0464C
:10316000862040427047C046862040427047C04695
:10317000862040427047C046862040427047C04685
:10318000862040427047C046862040427047C04675
:1031900002B4714649084900095C49008E4402BCEA
:1031A0007047C046002243088B4274D303098B4208
:1031B0005FD3030A8B4244D3030B8B4228D3030C07
:1031C0008B420DD3FF22090212BA030C8B4202D3A9
:1031D0001212090265D0030B8B4219D300E0090AD1
:1031E000C30B8B4201D3CB03C01A5241830B8B42DA
:1031F00001D38B03C01A5241430B8B4201D34B03C3
:10320000C01A5241030B8B4201D30B03C01A524127
:10321000C30A8B4201D3CB02C01A5241830A8B42AC
:1032200001D38B02C01A5241430A8B4201D34B0295
:10323000C01A5241030A8B4201D30B02C01A5241F9
:10324000CDD2C3098B4201D3CB01C01A52418309AD
:103250008B4201D38B01C01A524143098B4201D3E7
:103260004B01C01A524103098B4201D30B01C01A12
:103270005241C3088B4201D3CB00C01A524183088C
:103280008B4201D38B00C01A524143088B4201D3B9
:103290004B00C01A5241411A00D201465241104619
:1032A0007047FFE701B5002000F006F802BDC046F8
:1032B0000029F7D076E770477047C046002B11D140
:1032C000002A0FD1002900D1002802D00021C943D3
:1032D000081C07B4024802A14018029003BDC04672
:1032E000D9FFFFFF03B4684601B5029800F030F83B
:1032F000019B9E4602B00CBC7047C046F0B5CE465E
:10330000474615042D0C2E0080B50704140C3F0C05
:103310009946030C7E435D43674363437F19340C36
:10332000E4199C46A54203D980235B029846C44415
:103330004B4643435143250C36046544360C240464
:10334000A4195B19591820000CBC90469946F0BD91
:10335000F0B557464E464546DE46E0B5040083B01C
:103360000D00924699468B4230D82DD049465046A2
:1033700000F0C0F829000600200000F0BBF8331A66
:103380009846203B9B4633D45A4653469340424688
:103390001F00534693401E00AF423AD8AF4200D1BF
:1033A0007BE05B46A41BBD41002B00DA78E00022E5
:1033B00000230092019301235A4693400193012375
:1033C00042469340009328E08242CFD90022002356
:1033D000009201930C9B002B01D01C605D60009853
:1033E000019903B03CBC90469946A246AB46F0BD5D
:1033F000424620239B1A5246DA40414613004A4671
:103400008A40170042461F43534693401E00AF4276
:10341000C4D900220023009201934346002BD9D047
:10342000FB079C46614672080A437B0846460EE04D
:10343000AB4201D1A2420CD8A41A9D41012024190B
:103440006D410021013E24184D41002E06D0AB42B3
:10345000EED9013E24196D41002EF8D10098019952
:103460005B4600196941002B25DB2B005A46444678
:10347000D3402A00E2401C005B461500002B2BDBEA
:1034800026005F46BE40330026004746BE4032005D
:10349000801A9941009001919CE7A342B9D880E736
:1034A0004246202300219B1A002200910192012212
:1034B000DA40019283E7424620239B1A2A004646BF
:1034C0009A402300F340444613432A00E2401C0084
:1034D0005B461500002BD3DA2023424626009B1AB8
:1034E000DE402F00B4464646B74066463B003343B5
:1034F000CAE7C04610B5002903D100F007F8203014
:1035000002E0081C00F002F810BDC0461C21012397
:103510001B04984201D3000C10391B0A984201D3B6
:10352000000A08391B09984201D30009043902A294
:10353000105C40187047C0460403020201010101FB
:1035400000000000000000000FB4F0B54E464546F4
:10355000DE465746E0B593B01CAE08CE9846002331
:10356000099343461B780596002B01D100F064FDBA
:103570000022002701920FE009AC7A1CE41909929D
:1035800023711F2A19D81700D046019B01330193DC
:1035900043461B78002B18D0012242449246252B2B
:1035A000EAD143465B78253BDBB2532B01D900F0CF
:1035B0008DFCBA4A9B00D3589F46002320210AA8BD
:1035C000099321F02DF8099ADDE7002F08D0390082
:1035D0000AA821F025F8019B9C4684446346019388
:1035E000019813B03CBC90469946A246AB46F0BC4D
:1035F00008BC04B01847AA4A30239146002209ACFF
:1036000093467A1CE719002522603B711F2A0BD8CC
:103610004B4601355B5D002B11D027687A1CE719FA
:1036200022603B711F2AF3D95B4620210AA8236040
:1036300020F0F6FF4B4601355B5D002BEDD1019B81
:103640000C229C46AC44634606AD0021280080CE87
:103650000193FDF74FF80F231900924A3940515C4E
:103660008A462970390901D100F0E8FD1940515C02
:103670006970390A01D100F017FE1940515CA97038
:10368000390B01D100F028FE1940515CE970390C6A
:1036900001D100F0E3FC1940515C2971390D01D1D1
:1036A00000F023FE1940515C6971390E01D100F020
:1036B00025FE0B40D35C3F0FAB7101D100F02DFE16
:1036C000D15D2268E971531CA218236011711F2B70
:1036D00001D900F076FDA9795A1CE3181971082365
:1036E0002260062799461F2A01D900F0CDFC7B1ED7
:1036F000E95C9B4623685A1CE318226019711F2A53
:1037000001D900F0DBFC5B46002B42D0BB1EE95C1C
:103710009B4623685A1CE318226019711F2A01D99D
:1037200000F0E2FC5B46002B33D0FB1EE95C9B46BD
:1037300023685A1CE318226019711F2A01D900F06E
:10374000F5FC5B46002B24D03B1FE95C9B462368BD
:103750005A1CE318226019711F2A01D900F0FFFCDE
:103760005B46002B15D02368053FE95D5A1CE31822
:10377000226019711F2A01D900F00DFD002F08D019
:10378000514623685A1CE318226019711F2A00D978
:1037900068E3019B27684B440193C3E208CE994636
:1037A0001B78002B00D1BDE2002209AC93467A1CA5
:1037B000E719002522603B711F2A0BD84B460135C3
:1037C0005B5D002B12D017007A1CE71922603B7159
:1037D0001F2AF3D95B4620210AA8236020F020FF8E
:1037E0004B4601355B5D2268002BECD1019B170035
:1037F0009C46AC446346019394E206AD0C22002142
:10380000280010CEFCF776FF0F231900254A21402F
:10381000515C8B462970210901D100F06DFC1940E3
:10382000515C6970210A00D1CDE31940515CA97047
:10383000210B01D100F082FC1940515CE970210C90
:1038400001D100F094FC1940515C2971210D01D186
:1038500000F0C7FC1940515C6971210E01D100F0E4
:10386000D9FC0B40D35C240FAB7101D100F00AFDF1
:10387000125D09AC7B1CE719EA7109933A711F2BA1
:1038800000D892E207239A4601339946002320216B
:103890000AA8236020F0C4FEA4E3C0468C430010B5
:1038A000FC440010DC44001010CE06AD0C220021B8
:1038B0002800FCF71FFF0A212000FFF7F9FC303138
:1038C000CBB22B700A2120009946FFF76BFC092C24
:1038D00001D800F0C2FC0A21FFF7EAFC3031697020
:1038E00020006421FFF75EFC632C01D800F0DFFCB0
:1038F0000A21FFF7DDFC3031A970FA212000890090
:10390000FFF750FC6D4B9C4201D800F0E8FC0A2107
:10391000FFF7CEFC3031E97020006949FFF742FC27
:10392000684B9C4200D80DE30A21FFF7C1FC3031FF
:10393000297120006449FFF735FC644B9C4201D893
:1039400000F0D9FC0A21FFF7B3FC30316971200087
:103950005F49FFF727FC5F4B9C4201D800F0D4FC85
:103960000A21FFF7A5FC3031A97120005A49FFF761
:1039700019FC5A4B9C4201D800F0C9FC0A21FFF700
:1039800097FC3031E97120005549FFF70BFC554B8E
:103990009C4201D800F0C4FC0A21FFF789FC3031B9
:1039A000297220005049FFF7FDFB504B9C4201D883
:1039B00000F0BCFC09AC30307B1CE719687209933D
:1039C00038711F2B00D9DBE3297A5A1CE3181971CF
:1039D0000A23099208279B461F2A00D9CBE22368B5
:1039E0007A1EA95C92465A1CE318226019711F2A9C
:1039F00000D955E35346002B5AD02368BA1EA95C60
:103A000092465A1CE318226019711F2A00D964E3F8
:103A10005346002B4CD02368FA1EA95C92465A1CD0
:103A2000E318226019711F2A00D978E35346002B4E
:103A30003ED023683A1FA95C92465A1CE3182260C4
:103A400019711F2A00D983E35346002B30D0236815
:103A50007A1FA95C92465A1CE318226019711F2A2A
:103A600000D9A7E35346002B22D02368BA1FA95CD4
:103A700092465A1CE318226019711F2A00D9BBE331
:103A80005346002B14D02368073FE95D5A1CE31806
:103A9000226019711F2A00D9C6E3002F08D04946B9
:103AA00023685A1CE318226019711F2A00D9ECE31D
:103AB000019B27685B44019334E1C046E7030000A3
:103AC000102700000F270000A08601009F8601003C
:103AD00040420F003F420F00809698007F9698006A
:103AE00000E1F505FFE0F50500CA9A3BFFC99A3BE6
:103AF000330006AD40CB0C22002128000393FCF7D5
:103B0000F9FD002E00DA0FE2002309AC02930A212E
:103B10003000FFF7CDFB3031CBB22B700A213000E3
:103B20009946FFF73FFB092E00D8A1E30A21FFF7D2
:103B3000BFFB3031697030006421FFF733FB632E27
:103B400000D8B7E30A21FFF7B3FB3031A970FA219F
:103B500030008900FFF726FBCE4B9E4200D8B8E329
:103B60000A21FFF7A5FB3031E9703000CA49FFF7A1
:103B700019FBCA4B9E4200D8B4E30A21FFF798FB19
:103B8000303129713000C649FFF70CFBC54B9E420E
:103B900000D8ADE30A21FFF78BFB303169713000AB
:103BA000C149FFF7FFFAC14B9E4200D8A9E30A21A1
:103BB000FFF77EFB3031A9713000BD49FFF7F2FA03
:103BC000BC4B9E4200D8A5E30A21FFF771FB3031C0
:103BD000E9713000B849FFF7E5FAB84B9E4200D8CA
:103BE000A1E30A21FFF764FB303129723000B449A8
:103BF000FFF7D8FAB34B9E4200D89AE330307B1CD3
:103C0000E7196872236038711F2B00D9BDE1297A4A
:103C10005A1CE31819710A23226008279B461F2AA1
:103C200000D9C6E123687A1EA95C92465A1CE318A3
:103C3000226019711F2A00D939E25346002B5AD04D
:103C40002368BA1EA95C92465A1CE31822601971B7
:103C50001F2A00D93AE25346002B4CD02368FA1EA3
:103C6000A95C92465A1CE318226019711F2A00D9D8
:103C70004EE25346002B3ED023683A1FA95C924681
:103C80005A1CE318226019711F2A00D959E25346C1
:103C9000002B30D023687A1FA95C92465A1CE31887
:103CA000226019711F2A00D97DE25346002B22D0D1
:103CB0002368BA1FA95C92465A1CE3182260197146
:103CC0001F2A00D99FE25346002B14D02368073FD8
:103CD000E95D5A1CE318226019711F2A00D99CE281
:103CE000002F08D0494623685A1CE3182260197136
:103CF0001F2A00D9D1E2019A029B94465B449C445E
:103D0000634627680193039E0CE004CE09AC7B1C3C
:103D1000E419099322711F2B00D9B3E01F00019A07
:103D20000132019202239C46E04431E406AD0C22AC
:103D30000021280010CEFCF7DDFC0F231900624A99
:103D40002140515C8B462970210900D1D4E11940F2
:103D5000515C6970210A00D135E11940515CA970AC
:103D6000210B00D1EAE11940515CE970210C00D12E
:103D7000FDE11940515C2971210D00D131E219405A
:103D8000515C6971210E00D144E20B40D35C240FD9
:103D9000AB7100D176E2125D09AC7B1CE719EA71C8
:103DA00009933A711F2B00D915E2A9795A1CE3181F
:103DB000197108230992062799461F2A00D91BE189
:103DC00023687A1EA95C92465A1CE3182260197176
:103DD0001F2A00D91BE15346002B00D1D9E42368E8
:103DE000BA1EA95C92465A1CE318226019711F2A58
:103DF00000D913E15346002B00D1CAE42368FA1E10
:103E0000A95C92465A1CE318226019711F2A00D936
:103E10000BE15346002B00D1BBE423683A1FA95C99
:103E200092465A1CE318226019711F2A00D907E133
:103E30005346002B00D1ACE42368053FE95D5A1CD2
:103E4000E318226019711F2A00D900E1002F00D168
:103E50009FE4594623685A1CE318226019711F2AEF
:103E600000D896E4002320210AA8236020F0D8FB84
:103E70008FE4252209AC7B1CE419099322711F2BC6
:103E800000D84BE7002320210AA8099320F0C8FBA3
:103E9000099B43E7E7030000102700000F270000FD
:103EA000A08601009F86010040420F003F420F00A4
:103EB000809698007F96980000E1F505FFE0F505F3
:103EC00000CA9A3BFFC99A3BEC440010DA4B5B22D4
:103ED0009946002309AC9B467B1CE719002523600B
:103EE0003A711F2B0BD84A460135525D002A12D079
:103EF0001F007B1CE71923603A711F2BF3D95B4627
:103F000020210AA8236020F08BFB4A460135525D30
:103F10002368002AECD1019A1F009446AC44624603
:103F2000D0460192FFF734FB2D2109AC7B1CE71929
:103F3000099339711F2B00D956E11F0001237642E6
:103F40000293E4E504239B4601235B425B44E95C66
:103F500009AC9A467B1CE719099339711F2B00D9CC
:103F600012E157462368013FE95D5A1CE3182260BD
:103F700019711F2A05D9002320210AA8236020F0E7
:103F80004FFB002F00D02AE592E509239A46013322
:103F90009B46002320210AA8236020F041FB5746BE
:103FA0002368013FE95D5A1CE318226019711F2A3A
:103FB00005D9002320210AA8236020F031FB002F1F
:103FC00000D02FE697E60223994601235B424B443B
:103FD000E95C09AC9A467B1CE719099339711F2BE0
:103FE00000D953E457462368013FE95D5A1CE318A2
:103FF000226019711F2A05D9002320210AA82360F5
:1040000020F00EFB002F00D0DAE6FFF7C2FB002302
:1040100020210AA8236020F003FBDCE600232021F6
:104020000AA8236020F0FCFAE4E6002320210AA875
:10403000236020F0F5FAECE600230193FFF7D0FAB5
:10404000002320210AA8236020F0EAFAF0E60023EA
:1040500020210AA8236020F0E3FAF7E6042399461A
:104060004B465F1E2368E95D5A1CE31822601971F4
:104070001F2A00D9A8E02368013FE95D5A1CE31814
:10408000226019711F2A05D9002320210AA8236064
:1040900020F0C6FA002F01D0FFF729FBFFF779FBCC
:1040A000002320210AA8236020F0BAFAA2E400230A
:1040B00020210AA8236020F0B3FABEE500232021C6
:1040C0000AA8236020F0ACFAFFF71DFB0023202193
:1040D0000AA8236020F0A4FABDE5002320210AA845
:1040E000236020F09DFA93E4002320210AA8236096
:1040F00020F096FAFFF716FB287809AC7B1CE7192D
:10410000099338711F2B35D801239946FFF741FBDE
:10411000002320210AA8236020F082FAA9E50023C9
:1041200020210AA8236020F07BFA7FE400232021CD
:104130000AA8236020F074FAFFF703FB03239946D3
:1041400043E7002320210AA8236020F069FA9EE5B6
:10415000002320210AA8236020F062FA74E40023DF
:1041600020210AA8236020F05BFAFFF7F9FA042364
:1041700099462AE709910AA8202120F051FAC3E7BD
:1041800009239A4601339B46002320210AA8236075
:1041900020F046FAE5E6002320210AA8236020F05B
:1041A0003FFAFFF7EBFA002320210AA8236020F052
:1041B00037FA7AE5002320210AA8236020F030FA9C
:1041C00050E4082307279946002320210AA82360EA
:1041D00020F026FA4FE708239946013B9A46FFF75D
:1041E00055FB05239946F0E600230D390AA80993EB
:1041F00020F016FA099BA0E6002320210AA82360DC
:1042000020F00EFA3CE4002320210AA8236020F0CD
:1042100007FA58E506239946D7E6002320210AA885
:10422000236020F0FDF95BE5002320210AA823602C
:1042300020F0F6F931E4C0460045001023682878E4
:104240005A1CE318226018711F2A00D85CE721600D
:104250000AA8202120F0E4F956E7297809AC7B1C54
:10426000E719099339711F2B66D801239B461FE478
:1042700029787B1CE719236039711F2B63D8012330
:104280009B4638E5072399469FE6002320210AA88C
:10429000236020F0C5F9FFF70BFC002320210AA8BA
:1042A000236020F0BDF926E502239946D8E60223D3
:1042B0009B4649E602239B4601235B425B44E95C43
:1042C0009A467B1CE719236039711F2B00D866E6DC
:1042D0005FE603239B46EFE703239946C0E60323EB
:1042E0009B4631E604239B46E6E705239946B7E65D
:1042F00005239B46E0E705239B4625E606239946D2
:10430000AEE606239B46D7E706239B461CE607231B
:104310009B4619E607239B46CEE7072399469FE66F
:1043200008239B4610E608239B46C5E709239B46C6
:104330000AE609239B46BFE7002320210AA8099328
:1043400020F06EF991E7002320210AA8236020F0D5
:1043500067F994E711DF704710DF704700B585B04B
:104360000293079B0191039301A9069BFFF7F2FFBC
:1043700005B000BD12DF70470BDF704713DF7047D9
:1043800015DF704717DF704718DF7047723E001067
:10439000CC3E0010CC3E0010CC3E0010CC3E0010B5
:1043A000CC3E0010CC3E0010CC3E0010CC3E0010A5
:1043B000CC3E0010CC3E0010CC3E0010CC3E001095
:1043C000CC3E0010CC3E0010CC3E0010CC3E001085
:1043D000CC3E0010CC3E0010CC3E0010CC3E001075
:1043E000CC3E0010CC3E0010CC3E0010CC3E001065
:1043F000CC3E0010CC3E0010CC3E0010CC3E001055
:10440000CC3E0010CC3E0010CC3E0010CC3E001044
:10441000CC3E0010CC3E0010CC3E0010CC3E001034
:10442000CC3E0010CC3E0010CC3E0010CC3E001024
:10443000CC3E0010CC3E0010CC3E0010CC3E001014
:10444000CC3E0010CC3E0010CC3E0010CC3E001004
:10445000CC3E0010CC3E00102C3D0010CC3E001095
:10446000CC3E0010CC3E0010CC3E0010CC3E0010E4
:10447000CC3E0010CC3E0010CC3E0010CC3E0010D4
:10448000CC3E00100A3D0010F03A0010CC3E001067
:10449000CC3E0010CC3E0010CC3E0010F03A001094
:1044A000CC3E0010CC3E0010CC3E0010CC3E0010A4
:1044B000CC3E0010CC3E0010F6350010CC3E001073
:1044C000CC3E00109C370010CC3E0010A8380010E5
:1044D000CC3E0010CC3E0010FA37001030313233A1
:1044E000343536373839616263646566303132336A
:1044F0003435363738394142434445463078000038
:104500005B556E737570706F72746564205461676B
:104510005D0000000000000000000000000000003E
:1045200030B5144C87B02369A568082B1FD1A36947
:10453000042B1CD1043304AA00216068FFF720FF7C
:104540002369834213D1A36903AA02216068FFF79C
:1045500017FFA36983420AD1039B28000193636973
:104560000093049A059B00F013F907B030BD812039
:104570004042FAE7009C0008F0B5CE46474680B5B9
:104580008DB000F0F7F8002828D106AB98468027B8
:10459000674C08AE8021012009064042FFF7ECFE7F
:1045A0000300C2061BD4820631D442065ED4020048
:1045B0003A40914600D08EE080204000034225D052
:1045C0002100FFF7DBFE2568AB1C00DA82E04946DC
:1045D000002D6FDA6068FFF7D7FEDBE7FEE721000A
:1045E0001020FFF7CBFE23689A1C3EDB002B04DA79
:1045F00000216068FFF7C8FECCE7002B35D1FFF73C
:104600008FFF01006068FFF7BFFEC3E7FEE72100F0
:104610002020FFF7B3FE21688B1C00DA79E0002927
:10462000E6DB76D123696068082B73D16269042ABE
:1046300070D13200FFF7A4FE236998426AD1636902
:1046400005AA01216068FFF79BFE6369984261D16A
:1046500043460293236A0193059B0093A068089A3E
:10466000099B00F0C5F80100B4E7FEE721004020F7
:10467000FFF784FE21688B1C49DB0029B8DB46D19B
:1046800023696068082B48D1226A0C2A45D142462A
:10469000FFF776FE236998423FD1069A079B009662
:1046A000A06800F0D1F8051E3AD029006068FFF735
:1046B0006BFE6FE7002D0DD1236A9946042B2CD198
:1046C00000F00CF94B460890320029006068FFF7B3
:1046D00059FEEAE7FEE721003800FFF74FFE2168A8
:1046E0008B1C15DB002900DA82E711D12369606891
:1046F000082B0FD13200FFF743FE2369984209D1FE
:10470000089A099BA06800F0C3F8010062E7FEE781
:10471000FEE7FEE7812149425CE781256D42C4E75F
:10472000236A320000216068FFF72CFEBDE7C04617
:10473000009C0008084B10B502000C0058680B00E4
:104740000121FFF71DFE201A4442604181244042AE
:104750002040813810BDC046009C000810B50B00F9
:104760000349020048680021FFF70CFE10BDC04657
:10477000009C000810B500F0B3F8002800D110BD6F
:1047800000F0E4F90028FAD100F0AAF8F7E7C046F3
:1047900030B51D00130083B014002B431FD0072336
:1047A000079A9A431ED10123104A5B4212196B41AA
:1047B000002B09D0069B020000932000079B2900D4
:1047C00000F0D2F803B030BDFF2AF3D8079B2200D7
:1047D0000193069B00932B0029F00AFBF2E7872048
:1047E0004042EFE786204042ECE7C04600FFFFFF73
:1047F00030B51D00130085B014002B431FD00123DA
:10480000104A5B4212196B41002B0BD00A9B02002D
:104810000193099B200000932900089B00F06EF88B
:1048200005B030BDFF2AF1D80A9B22000293099BF4
:104830000193089B00932B0029F0DEFAF0E7872014
:104840004042EDE700FFFFFF30B51D00130083B0CD
:1048500014002B4317D001230C4A5B4212196B4101
:10486000002B07D00200069B2000290000F010F961
:1048700003B030BDFF2AF5D8069B220000932B0021
:1048800029F0E6FAF4E787204042F1E700FFFFFF56
:1048900070B51D00130014002B4316D001230E4ADF
:1048A0005B4212196B41002B08D002002900200046
:1048B00000F00EF9030095330AD070BDFF2AF4D83A
:1048C00022002B0029F0E2FAF7E787204042F4E7C4
:1048D00084204042F1E7C04600FFFFFF0020704700
:1048E00010B5044C200000F015FA034B283C5C6026
:1048F00010BDC046609C0008309C0008F8B5174DFC
:104900001E002B0000F050FB041E01D02000F8BD5B
:10491000134F2868390000F0D3FC041E04D1FD6950
:10492000B54208D287246442802200211201380057
:10493000FBF7E0FEEAE7069BAD1B9D4200D91D0098
:10494000084829003018FFF709FF8022079B120151
:104950001D6000213800FBF7CDFED7E7309C000832
:10496000389C0008609C0008F0B557464E46DE466D
:1049700045469A46FB23E0B583B091460C9A060063
:104980000F00DB009A4269D83E4B4A46984600F039
:104990000BFB041E4AD003003B4D8C330DD080220C
:1049A000002112012800FBF7A5FE200003B03CBC4B
:1049B00090469946A246AB46F0BD802200211201E6
:1049C0002800FBF797FE0C9B2B6253466B62022379
:1049D0009B46002301932D4B0C9918009A46FFF734
:1049E000A9FE041EDBD128235B429C46E2445346C9
:1049F0000C9A41465846DA6100F02CFA041ECED1DA
:104A000043465146186800F09BFC041EC7D143463C
:104A10004A463000390000F053FA041E2BD1019BA6
:104A2000002B1ED100F018FB0400B8E74346164DDA
:104A30001868290000F044FC041EB0D16B6ADB0743
:104A400009D453466B620C9B2B6243461B6801934F
:104A500001239B46BFE785246442A0E78724644284
:104A6000A3E700F0F9FA041E99D101980021FDF79F
:104A700071F9040093E7434600211868FDF76AF9CD
:104A80008DE7C046309C0008389C0008609C0008F8
:104A9000F8B50D4D1F002B0000F086FA041E01D062
:104AA0002000F8BD094E2868310000F009FC041E02
:104AB00003D1736AF269BB607A608022002112011F
:104AC0003000FBF717FEEBE7309C0008389C00082D
:104AD000F8B54746CE461B4D80B52B0006000F00AB
:104AE000904600F061FA041E04D020000CBC9046F1
:104AF0009946F8BD144B28681900994600F0E0FB70
:104B0000041E05D14B465B6ADB0708D58524644249
:104B10008022002112014846FBF7ECFDE5E7424602
:104B20003000390000F064FA041EF1D12D6800F065
:104B300093FA041EECD128000021FDF70BF90400C4
:104B4000E6E7C046309C0008389C000810B500F02D
:104B5000CBF810BD002310B582B0040001A90120DC
:104B6000019300F041FC002825D1019B9C4205D80F
:104B70000BE0019B01330193A34206D2012000F018
:104B80003FFC0028F5D002B010BD01A9022000F0C2
:104B90002BFC00280FD1019B9C4206D80020F2E795
:104BA000019B01330193A342F8D2022000F028FCBC
:104BB0000028F5D0E7E784204042E4E7F0B5830021
:104BC0001A4C5E58A544CA686B460C003100184F59
:104BD0001C31DA5105003A006846FBF76FFDF522FB
:104BE0006946D200300000F047FB002819D0236945
:104BF000002B05D16419013323720E4B9D44F0BD87
:104C00006A46D351F5226946D200300000F034FBE9
:104C1000431E984101234042984303306419207297
:104C2000EBE7022364192372E7E7C04654F8FFFF5D
:104C3000A4070000AC070000F0B5C646002300B58D
:104C4000254C0020A544039300F0DAFB041E06D097
:104C50002000F723DB009D4404BC9046F0BD03A96F
:104C6000002000F0C1FB041EF2D100F003FA041E84
:104C7000EED11A4D039E280000F05AFA290004AC28
:104C8000174A1C312000A650FBF718FDF522210021
:104C9000D200280000F0CCFA041E1AD100F030FA3D
:104CA000041ED5D1F8260F4BF600EF5C9846781C11
:104CB0000094C1172B003200FCF7C6FF041EC7D1B9
:104CC0004246AB5D0398AB54AF55FFF743FF04007A
:104CD000BEE700F015FABBE748F8FFFF38A400086C
:104CE000A4070000C107000010B500F073FB002806
:104CF0000DD1F922064CD20000212000FBF7FAFC6E
:104D00000123F8222377D200A354FFF795FF10BDAB
:104D100038A400080023F0B589B003AC2381E36018
:104D20002361F8234A4E02AF6060DB0001970096D2
:104D30000022012000210396FCF7B0FF002801D0DB
:104D4000012323720197636800220093F823022055
:104D5000DB000021FCF7A2FF002801D001236372D1
:104D600000F088F9051E02D0280009B0F0BD00F05F
:104D700031FB051E05D106A9002000F035FB051EFC
:104D800002D000F0BDF9EFE73900012000F02CFB64
:104D9000051EF6D107A9022000F026FB051EF0D162
:104DA0002369029A934200D02061237A012B3DD1DE
:104DB000637A012B35D100F0A3F9051ED4D1039BF2
:104DC0001B7F012B01D00123237261680B7F012B14
:104DD00001D00123637202232289FF339A4234D027
:104DE000F822237AD200012B28D0637A012B01D03C
:104DF000022B20D0F823802202200021DB00520069
:104E0000F252FCF7A7FF051E02D003008C33ABD192
:104E1000E068FFF79FFE051EA6D1300000F07EF986
:104E2000A2E721000120FFF7C9FEC4E7210000200E
:104E3000FFF7C4FEBCE7F8220123D200B3523000D2
:104E4000FBF73CFC01200021DBE784256D428BE76A
:104E500038A4000870B50D0000282CD000240021D3
:104E6000164B1A685E6832430CD14A1C01383D2A41
:104E70000ED0203300280DD00C005E6811001A6897
:104E80003243F2D001313D2901D02033E9E721003E
:104E900000280DD1CC1C20000021FCF75BFF00286E
:104EA00002D100202C6070BD03008C33FBD1F8E7E9
:104EB0008E204042F7E787204042F4E768A40008CC
:104EC000F0B5454657464E46DE46E0B5984689B0B1
:104ED00005000F001600324B002403E0013420339C
:104EE0003D2C46D01A68AA42F8D15A68BA42F5D188
:104EF0009A689642F2D12B4B0134994664014C4496
:104F0000202221006846FBF7D9FB236920229A461C
:104F10006369002120009B46FBF7ECFB43461A68BF
:104F2000D31E5B014B441D639E635F634346951E26
:104F30006D014D44596810222800FBF7BFFBFFF7B5
:104F40007BFE061E0DD053465A46134304D0202242
:104F500069462000FBF7B2FB202200212800FBF766
:104F6000C9FB300009B03CBC90469946A246AB460E
:104F7000F0BD43461A680B49D31E5B01CB181D6375
:104F80009E635F634346951E6D016D18102259683C
:104F90002800FBF793FBFFF74FFE061EE1D0DBE78F
:104FA00068A4000838A4000870B50F4C002503E081
:104FB000013520343D2D14D026688642F8D166682C
:104FC0008E42F5D1A668B242F2D1EA1C691C074DA7
:104FD00049011A60586849191022FBF76FFB00203D
:104FE00070BD8C204042FBE768A4000838A400088C
:104FF00030B5174B89B0002403E0013420333D2C39
:105000001DD01D688542F8D15D688D42F5D19D683F
:10501000AA42F2D10F4B01346401E418202221008E
:105020006846FBF74BFB202200212000FBF762FBC8
:10503000FFF702FE051E05D1280009B030BD8C2502
:105040006D42F9E7202269462000FBF737FBF3E7C2
:1050500068A4000838A4000810B5044A044BD05CCA
:105060000130C117FCF776FE10BDC04638A4000819
:10507000C107000030B58BB00021202202A8FBF749
:1050800039FB00230093C0239B000493164B01AC13
:105090000593164B16490193802368462383FDF739
:1050A0009DFF002801D00BB030BD0C23114A1249DE
:1050B0006846FDF7EBFF00280FD1104D69462A0026
:1050C0002000FEF717F8002807D16846FDF75EFEBE
:1050D0000028E8D02888FCF7EBFE6846FDF756FE6E
:1050E00084204042DFE7C046021040060100004035
:1050F000000F00B014540010010200000CAC0008B6
:10510000054B10B51888FCF7D3FE002800D110BD60
:1051100084204042FBE7C0460CAC0008010010B5FB
:1051200010310C220148FBF7C9FA10BD00AC000891
:10513000F0B583B06C460E4923000A0060CA60C314
:105140000122009E019F002392197B41009201934E
:105150001A4353425A410B008D681030AD1844CCAD
:1051600044C38D600C22FBF7A9FA03B0F0BDC04622
:1051700000AC0008F0B51500020089B0109F0600D1
:105180001148119C008805970F9F029304970E9F6A
:10519000019500911032069403970C230B49FDF7FB
:1051A00025FB051E0CD10F9B21689C461039216000
:1051B000102261443000FBF781FA280009B0F0BDED
:1051C00084256D42F9E7C0460CAC00080210400689
:1051D000F0B5C6460400904600B588B00E9D0F009D
:1051E0005819102221001E00FBF768FA0E4B22000E
:1051F0001888119B10350693109B103205930F9B56
:105200000395049343460296019300970C230749A4
:10521000FDF744FB002803D108B004BC9046F0BD64
:1052200095204042F8E7C0460CAC0008021040064A
:10523000030030B514008BB002000D4809AD0088A2
:1052400006950493102500230091039302931032D6
:10525000059501940C330749FDF7C8FA002804D1DD
:10526000099B102B01D10BB030BD84204042FAE7DE
:105270000CAC00080210400630B503008BB01500DE
:1052800002000D4809AC008806940024059404949B
:105290001034029300911032039401950C230749B6
:1052A000FDF7FCFA099B18434342584195234042BD
:1052B000184095380BB030BD0CAC00080210400609
:1052C000F0B589B005AB01930B0010330093802338
:1052D0000D001B01002200210400FCF7DFFC002868
:1052E00001D009B0F0BD059E0694FFF7C3FE00286B
:1052F000F7D134002F00104E0C3C1C37220039002F
:105300003000FBF7DBF907AB03930C4B01970293DB
:1053100000943300042206A92800FFF759FF002853
:1053200005D1079B9C4202D1FFF7EAFED9E7FFF7C0
:10533000E7FE84204042D4E710AC0008E4070000F8
:10534000F0B5CE46474680B587B006000C00CD6963
:105350000490FFF78FFE002804D007B00CBC9046E5
:105360009946F0BD1C232F0098462000FFF7E0FE71
:1053700005AB0393154B0C370293154BA04499468C
:10538000019300974346042204A92000FFF7F2FE90
:10539000002815D1059B9F4212D13A00494640464C
:1053A000FBF78CF9FFF7ACFE0028D6D123002A00CA
:1053B00000901033183230000021FCF745FCCCE798
:1053C000FFF79EFE84204042C7E7C046F407000076
:1053D00010AC000810B528F0E7FE434258414342A4
:1053E00084201840843810BD10B50A00042128F02C
:1053F0004BFF43425841434284201840843810BD3B
:1054000010B528F0A7FF434258414342842018407A
:10541000843810BD73746F726167655F6B65790066
:10542000F0B5CE46474680B58DB000F0F3F80028C1
:105430005DD106AB81269846694C08AD7642802145
:10544000012009064042FEF797FFC3061ED48306DB
:105450004FD4430600D58EE0030649D521008020B5
:10546000FEF78CFF0028EAD121688B1C00DAA9E046
:1054700000296DDA00216068FEF786FF8021012097
:1054800009064042FEF778FFC306E0D52100102050
:10549000FEF774FF0028D2D121688B1C6ADB00293B
:1054A000E8DB67D123696068082B00D08FE0A7692B
:1054B000042F00D08BE0626991462A00FEF760FF5E
:1054C000082800D083E03B00424602216068FEF7D6
:1054D00057FF042800D07AE0069B01934B460093C7
:1054E000A068089A099B00F0C7F80100C3E7FEE72F
:1054F000FEE721002020FEF741FF00289FD1216810
:105500008B1C60DB0029B5DB5DD123696068082B4B
:105510005DD16769042F5AD1226A91462A00FEF7AD
:105520002FFF082853D13B0005AA01216068FEF730
:1055300027FF04284BD1434602934B460193059B1A
:105540000093A068089A099B00F022F9010092E7F5
:10555000002937D123696068082B38D12A00FEF76B
:105560000FFF082833D1089A099BA06800F0A2F920
:10557000010080E7FEE721004020FEF7FFFE002843
:1055800000D05CE721688B1C1EDB002900DA71E784
:105590001AD123696068082B17D1226A0C2A14D10A
:1055A0004246FEF7EDFE08280FD1069A079B0095AC
:1055B000A06800F051F9071E0BD039006068FEF7B3
:1055C000E3FE3CE7FEE7FEE7FEE73700F5E73100E4
:1055D00051E701000C232A006068FEF7D3FEECE7D8
:1055E00060C2000810B50B000349020048680121A1
:1055F000FEF7C6FE10BDC04660C2000810B50B0025
:105600000349020048680021FEF7BCFE10BDC046F9
:1056100060C2000810B5002000F080F9144C0100B1
:10562000200000F007FA00280BD0200000F008FA54
:10563000002800D010BD00F071F90100200000F03A
:10564000F9F9012000F06AF90A4C0100200000F08D
:10565000F1F90028EED0200000F0F2F90028E9D19D
:10566000013000F05BF90100200000F0E3F9E1E710
:1056700090C60008A4C60008F0B5DE4657464E4660
:1056800045461100E0B5194385B0002900D171E00D
:1056900007210F9C8C4365D10393384B02929846A7
:1056A00002AA01C312CA12C380235B00984256D0DB
:1056B000334B9A46334C41462200504600F032FAB2
:1056C0008346031E40D08C3336D180230E9EDB00F0
:1056D0009E4200D91E002C4F31003800FFF782FF98
:1056E0000F9B019700930E9A33004146504600F0FD
:1056F000ABF9834600281FD10E9B9C1B03D11BE0F6
:105700007619641B18D080232500DB009C4200D949
:105710001D0029003800FFF765FF009733002A00BD
:105720004146504600F022FA81460028E8D0414622
:10573000504600F085FACB46584605B03CBC904632
:105740009946A246AB46F0BDA368DB070ED441469E
:10575000504600F075FA83460028B6D0ECE70B4BB4
:105760009A46A7E786235B429B46E5E785235B4293
:105770009B46E1E787235B429B46DDE7B8C600080E
:1057800090C60008C4C6000890C20008A4C600085D
:10579000F0B54E46DE46574645461100E0B585B0A9
:1057A0000E9E19434AD00393264B0292994602AAB1
:1057B00001C312CA12C380235B0098423BD0224B24
:1057C0009A46224C49462200504600F0ABF9071E8B
:1057D00027D12468B44231D30F9BA41B9C4228D804
:1057E000109B1C601A4B98468023DB009B4606E00A
:1057F00029004046FFF702FF7619641B11D02500EF
:105800005C4501D98025ED0043462A0000934946B6
:105810003300504600F09AFA071EE9D00023109A90
:105820001360380005B03CBC90469946A246AB4692
:10583000F0BD1C00D4E7074B9A46C2E787277F429A
:10584000EFE7C046B8C6000890C60008C4C6000806
:1058500090C20008A4C60008110070B582B0069D71
:1058600019431BD00F4901930B0000926A4601C3F4
:1058700050CA50C380235B0098420DD00A480B4C9D
:10588000220000F04FF9002804D1A2682368AA6022
:105890002B606B6002B070BD0548F0E78720404286
:1058A000F8E7C046B8C6000890C60008C4C600089D
:1058B000A4C60008110070B5194382B000291FD09A
:1058C000124C0193230000926A4601C322CA22C3EC
:1058D00080235B00984211D00D4E0E4D21002A000E
:1058E000300000F01FF9002806D1AB68DB070AD4AE
:1058F0002100300000F0A4F902B070BD064EECE7C4
:1059000087204042F8E785204042F5E7B8C6000806
:1059100090C60008C4C60008A4C6000810B5044B11
:105920008000C458200023689847200010BDC0465E
:1059300044690010F0B54E464546DE465746E0B590
:10594000C3B04D9D06008B4690469946002D29D048
:1059500080235B009A4610E00094434602AA594611
:105960003000F768B847002815D14C9BA0449C46EE
:10597000A44463462D1B4C9314D02C00554501D9EB
:105980008024640000944C9B02AA49463000B7680A
:10599000B8470028E0D043B03CBC90469946A246A8
:1059A000AB46F0BD0020F6E710B5040082B01C3015
:1059B00001A927F055FB618C0198FDF7F3FB238DBE
:1059C000A084002B07D0638D002B0AD0200000F0AC
:1059D000F1F902B010BD27F06DFB638D2085002B1F
:1059E000F4D127F07FFB6085F0E7C04610B50400D6
:1059F00082B01C3001A927F08DFB618C0198FDF766
:105A0000D1FB238DA084002B07D0638D002B0BD0FE
:105A1000200000F0CFF902B010BD27F0A5FB638D88
:105A200028302085002BF3D127F0B8FB03306085A8
:105A3000EEE7C04610B5016000F0C0FB10BDC046E7
:105A400010B500F093FD10BDF0B54746CE4680B5C9
:105A50001F00036891B01B8D040089469046934255
:105A60005DD304AA00F030FB002858D004AB05AE8B
:105A700008AD009302960195189B424649462000C6
:105A800000F0D0FC002822D1002F25D13200089947
:105A9000200000F04DFE00283ED12A00049920008D
:105AA00000F0B0FE002837D10499200000F0C6FABB
:105AB000002831D12B68002B01D1002F04D1200008
:105AC00000F0E2FB002827D1200000F0ABFB11B072
:105AD0000CBC90469946F0BD3A000021E86800F001
:105AE000A9FE002818D1199B009701932A000023D2
:105AF0003100200000F0F6F900280DD13368296844
:105B000020009846AF6000F0D9FA2A68306041461C
:105B1000200000F009FEB9E784204042D7E7872043
:105B20004042D4E770B58AB0150001AA04000E0007
:105B300000F0CAFA002815D102AA0199200000F04D
:105B4000E9FB00280CD10C2207A93000FAF7A8FDC8
:105B5000002807D1049B2B60059B6B60069BAB6004
:105B60000AB070BD8C204042FAE7C04670B590B0D4
:105B7000160004AA04001D0000F0A6FA00285BD15C
:105B800008AA0499200000F0C5FB002854D105AAFA
:105B90000899200000F00EFC00284AD10A9B0393CC
:105BA0009D4246D80B9B320029001800039300F059
:105BB00041FE00283DD1149B0096019308AA2B00BA
:105BC00005A9200000F08EF9002832D10A9BAD19FA
:105BD00003939D4226D808992000059D00F06EFA97
:105BE000089A05902900200000F09EFD05AA08995A
:105BF000200000F09DFD00281BD108AA0499200078
:105C000000F000FE002814D10499200000F016FADC
:105C100000280ED1089B002B06D1200000F002FBCB
:105C200010B070BD0A95D6E7200000F02DFB0028CB
:105C3000F3D084204042F3E78C204042F0E7C04696
:105C4000F0B54F46D6464646C0B503688EB005AAA5
:105C500005005F8C00F038FA002800D073E006AA37
:105C60000599280000F056FB002805D00EB01CBC9A
:105C700090469946A246F0BD0BA800F0E7FD00282B
:105C800061D1079B20229846099B002106A8069E09
:105C90009946FAF72FFD06AA0599280000F0B2FDF3
:105CA0000028E3D12B685B8D002B30D0002200242C
:105CB00092460BE006AA2100280000F0A3FD002870
:105CC000D4D12B685B8D0134A34222D9059AA2421C
:105CD000F9D006AA2100280000F01CFB0028C5D13D
:105CE000069B0393B342E5D10BA800F0AFFD00285B
:105CF000E0D1079B4345DDD99F4200D91F004A46AA
:105D00009B1A0793099B9C460393E244D2E7002326
:105D10009A465346019343464A46009331003B005E
:105D2000280000F069F80028A0D1002E07D0280034
:105D300000F0AAFA002802D08420404296E728000A
:105D400000F070FA92E78C2040428FE7F0B58FB0F8
:105D5000170005AA04000D001E0000F0B5F9002888
:105D600025D106AA0599200000F0D4FA00281BD1FD
:105D70000C220BA92800FAF793FC002817D1089BE6
:105D80003A0031001800039300F054FD002801D0C0
:105D90000FB0F0BD149B3200009306A93B00200019
:105DA00000F084F80028F3D084204042F0E78C20F3
:105DB0004042EDE7828C10B5012A12D9032A10D097
:105DC000418D448C4901022A0DD0023A53009B18A0
:105DD0009B000831028D5B189C4203DBA24209D86C
:105DE00010BDFEE7FEE70B00028D1433E11A8A4274
:105DF000F2DDFEE7FEE7C046F0B5C64600B588B066
:105E0000170005AA05000E00984600F0D3FA041EFC
:105E100004D0200008B004BC9046F0BD079B3100C0
:105E20009C46280067440393079700F047F90F9BAF
:105E30000700002B22D1069A0E9B05999A420AD29E
:105E4000981A01900B00009239002868FFF772FD44
:105E5000002821D105993200280000F065FC05AA30
:105E600031002800059700F063FC041E17D1002EB6
:105E7000CFD02868036998470400CAE7059B010052
:105E800003930F9B0E9A0193434628680093039B4C
:105E9000FFF750FD0028CED084246442B9E73200D9
:105EA0003900280000F040FCB3E7C046F0B587B0E9
:105EB0000D001400096803AA06001F0000F07AFA1A
:105EC00000280BD103994B1C08D030686B680097F1
:105ED000E3180C9A8468A04707B0F0BD84204042C4
