:020000041000EA
:1004000000940008910400100D00000071C5021056
:1004100000000000000000000000000000000000DC
:1004200000000000000000000000000059C502109C
:1004300000000000000000001DC5021011050010A2
:1004400011050010C5C5021011050010110500109E
:1004500021810210110500101105001019C40210AD
:1004600011050010110500101105001011050010F4
:1004700011050010110500101105001011050010E4
:100480007047EFF3108072B6704780F310887047A2
:10049000FFF7F6FF72B6174C174DAC4209DA216828
:1004A0006268A368043B02DBC858D050FAE70C34FA
:1004B000F3E7124B124CA34208DA19685A6800207D
:1004C000043A01DB8850FBE70833F4E70D480E4996
:1004D0000860BFF34F8F2CF07DF8EFF314800221FA
:1004E000084380F31488094880F3098823F0DCFC72
:1004F000FEE70000300500109C0500109C05001070
:10050000F405001000AF010808ED00E0009C0008B1
:10051000FEE7FEE700B504207146084202D0EFF383
:10052000098001E0EFF30880043026F07FFFFEE74A
:100530000004001000AF0108300100004004031067
:1005400080AF010878020000A00303100018000823
:1005500000000000A0030310009C00080000000041
:10056000A003031000C20008600000000004031094
:1005700080CD00084000000040040310809B01086B
:10058000000000004004031000A00108000000006B
:0C059000B806031000F80208A8040000E0
:10059C00F8B1010894360000009C000820180000F7
:1005AC0080B40008800D000060C2000880040000C8
:1005BC0000C7000880060000C0CD0008A0AD0000F8
:1005CC00807B010800200000809B010820000000B7
:1005DC00009C01080004000000A00108600200005B
:0805EC0080A20108000C0000D0
:0805F4000000000000000000FF
:1005FC0000000000000000000000000000000000EF
:10060C0000000000000000000000000000000000DE
:1006200010B50A22002100F0ADFA10BD10B50A2263
:10063000002100F067FB10BD10B5034B0A0001005C
:10064000186800F084F810BD20B00108084B10B500
:100650000400002B02D0002100E000BF054B186809
:10066000836A002B00D0984720002EF0B3FDC046CF
:1006700000000000CC190010EC300068704700004A
:10068000044B1B681B6A002B00D1034BEC3318682A
:100690007047C04620B0010884B0010810B5034B74
:1006A0000100186800F0ACF810BDC04620B0010889
:1006B00010B5034B0100186800F058F810BDC04693
:1006C00020B0010882B0002900D101A9101E06D077
:1006D000002B06D013780B601078431E984102B0AF
:1006E000704702204042FAE730B50024A24201D10F
:1006F000002005E0035D651C0C5DA34201D0181BC2
:1007000030BD2C00F2E7002310B59A4200D110BD95
:10071000CC5CC4540133F8E710B5884202D98B1879
:10072000984203D3002307E08B5C8354013AFBD249
:1007300010BDCC5CC45401339A42FAD1F8E70300EF
:100740001218934200D1704719700133F9E74A43F8
:1007500070B51100140000F053F8051E03D02200FC
:100760000021FFF7ECFF280070BD000070B5050008
:10077000002910D00C1F2368002B00DAE418280091
:1007800000F0A4FD1D4A1368002B05D163601460BE
:10079000280000F09CFD70BDA34209D921686018B3
:1007A0008342F3D118685B6841182160EEE71300BB
:1007B0005A68002A01D0A242F9D919685818A042F3
:1007C0000BD120680918581819608242E0D11068CE
:1007D0005268411819605A60DAE7A04202D90C2326
:1007E0002B60D5E721686018824203D110685268F7
:1007F0004118216062605C60CAE7C04608E80108F1
:10080000032370B5CD1C9D43083506000C2D1ED268
:100810000C25A9421DD8300000F058FD254A146867
:100820002100002919D1244C2368002B03D130006A
:1008300000F0C8F820602900300000F0C3F8431C25
:100840002BD10C233000336000F041FD03E0002D7C
:10085000DFDA0C233360002070BD0B685B1B19D4FA
:100860000B2B03D90B60CC18256003E04B688C423E
:100870000DD11360300000F02AFD200007220B305C
:10088000231D9043C31AE7D05A42E250E4E7636065
:100890000C00EFE70C004968C3E70323C41C9C432A
:1008A000A042E1D0211A300000F08CF8431CDBD1CB
:1008B000C7E7C04608E801080CE801080FB40B4B75
:1008C00013B51C68002C05D0A369002B02D12000B1
:1008D00000F0FCFB05AB049AA1682000019300F036
:1008E0001FFD16BC08BC04B01847C04620B0010864
:1008F00070B505000E00002804D08369002B01D1DB
:1009000000F0E4FBAB69AC68002B02D1280000F0DA
:10091000DDFB244B9C420FD16C68A3891B0702D5D9
:100920002369002B1FD12100280000F061FA002864
:1009300019D00120404270BD1B4B9C4201D1AC68D4
:10094000EBE71A4B9C42E8D1EC68E6E70136A3607E
:10095000002B04DAA2699A4216DC0A2914D0236813
:100960005A1C22601970A3683178013B0029EDD12F
:10097000A360002B0FDA22000A31280000F0D6F91C
:10098000431CD6D00A20D6E72200280000F0CEF97A
:10099000431CE8D1CDE70A2023685A1C2260187056
:1009A000C9E7C046FC1A00101C1B0010DC1A00101E
:1009B00010B5034B01001868FFF79AFF10BDC04641
:1009C00020B00108002370B5064C05000800236024
:1009D0002EF0F2FB431C03D12368002B00D02B60C8
:1009E00070BDC04688E80108C9B20378002B04D066
:1009F0008B4200D170470130F7E74B4259414942E1
:100A00000840F7E702780B78002A03D00130013163
:100A10009A42F7D0D01A70470023C25C0133002AF3
:100A2000FBD1581E704730B50500002A00D130BDFB
:100A30000C78013A6B1C2C700131002C05D19A18EE
:100A40009A42F4D01C700133FAE71D00EDE710B5AF
:100A50000378002B0FD10B785A4253415B42184068
:100A600010BD0023CA5C002AFAD0C45C944201D1B4
:100A70000133F7E701300378002BF2D11800EFE7DC
:100A8000F0B51F000E0087B00590019102920C98FE
:100A90003478FFF7F1FD082200194378751C1340E4
:100AA00036D12D2C36D1B51C74780126002F62D09A
:100AB000102F09D1302C07D120222B789343582BAB
:100AC00054D110276C7802352D4B3900F3181800DB
:100AD000039302F08FFB049101210023494202009D
:100AE0008C4618002100303909291AD80C00A74279
:100AF00023DD591C09D06346824206D302D10499F2
:100B0000A14202DB0123784320182C780135E9E764
:100B10002E00BCE72B2C01D01E00C7E7B51C747853
:100B2000FAE721004139192901D8373CDFE72100D4
:100B30006139192901D8573CD9E75A1C08D1059ABF
:100B400023331360029B0398002B09D107B0F0BD3B
:100B5000002E00D04042029A002AF7D0002B01D08C
:100B60006B1E0193029B019A1A60EFE73024002F5D
:100B7000AAD10827A8E7302C9ED00A27A4E7C046B0
:100B8000FFFFFF7F37B51300064A05001068046AAF
:100B9000002C00D1044C0A0000942900FFF770FFDC
:100BA0003EBDC04620B0010884B00108F0B51F006A
:100BB0000E008DB00B900291039212983478FFF7DB
:100BC0005BFD082200194378751C134053D12D2C6E
:100BD00053D17478B51C01330193002F00D18AE002
:100BE000102F0AD1302C08D120222B789343582B78
:100BF00000D07AE010276C780235019B002B41D1A0
:100C0000013B04933E4B05933A00FB17049805996A
:100C1000089302F0F5FA002309900E00002000214D
:100C20000A922200303A092A31D81400A7423DDD49
:100C30005A1C1DD0B14236D802D1099B984232D8F5
:100C4000099B834206D18E4204D101230A9A5B425A
:100C5000A2420DDB0B0002000899380002F0F0FA06
:100C6000E31706940793069B079CC0186141012374
:100C70002C780135D5E72E009FE72B2CACD1B51C85
:100C80007478A9E70023049380231B06BBE72200A6
:100C9000413A192A01D8373CC8E72200613A192A9B
:100CA00004D8573CC2E701235B42E1E75A1C09D153
:100CB0000B9A23331360039B04980599002B0ED1E4
:100CC0000DB0F0BD019A002A04D006000F000021EB
:100CD0007042B941039A002AF2D0002B01D06B1E5A
:100CE0000293039B029A1A60EAE73024002F00D097
:100CF00083E7082781E7302C00D175E70A277CE7D6
:100D0000FFFFFF7F37B51300064A05001068046A2D
:100D1000002C00D1044C0A0000942900FFF746FF84
:100D200003B030BD20B0010884B00108F8B505005B
:100D30000E001400002804D08369002B01D100F0BC
:100D4000C5F9224B9C422DD16C68A369A360A3898D
:100D50001B0731D52369002B2ED023682269F7B2F7
:100D6000981A6369F6B2834205DC2100280000F07E
:100D70003FF9002826D1A3680130013BA360236816
:100D80005A1C22601F706369834204D0A389DB0769
:100D90001AD50A2E18D12100280000F029F90028C0
:100DA00012D00FE00A4B9C4201D1AC68CDE7094B51
:100DB0009C42CAD1EC68C8E72100280000F018F86E
:100DC0000028CAD0012676423000F8BDFC1A001077
:100DD0001C1B0010DC1A00100B1E04D0FF2A04D9C3
:100DE0008A2303608B3B180070470A700123FAE7DF
:100DF000364B70B51D6806000C00002D05D0AB69A0
:100E0000002B02D1280000F061F9314B9C420FD138
:100E10006C680C23E25E93B219072DD4D90611D465
:100E200009230120336037331343A381404270BD4F
:100E3000284B9C4201D1AC68EBE7274B9C42E8D1A0
:100E4000EC68E6E75B0713D5616B002908D0230047
:100E50004433994202D03000FFF788FC00236363DB
:100E60002422A3899343A381002363602369236021
:100E70000823A2891343A3812369002B0BD1A0214E
:100E80008022A389890092000B40934203D0210065
:100E9000300000F0D7F90123A289134011D00023BC
:100EA000A36063695B42A361002023698342BED1D2
:100EB0000C23E25E1306BAD540231343A381013805
:100EC000B5E7920700D46369A360EDE720B001089D
:100ED000FC1A00101C1B0010DC1A0010F7B58A89E0
:100EE00005000C00130760D44B68002B04DC0B6C6E
:100EF000002B01DC0020FEBDE76A002FFAD00023A2
:100F00002E682B6080235B01216A1A4034D0606D0B
:100F1000A3895B0706D56368C01A636B002B01D0F9
:100F2000236CC01A0200216A00232800E76AB84730
:100F3000A189431C06D12B681D2B30D82B4ADA40DF
:100F4000D3072CD50023636023692360CB0405D528
:100F5000431C02D12B68002B00D16065616B2E60B1
:100F60000029C7D023004433994202D02800FFF75C
:100F7000FDFB00206063BEE701232800B847431C47
:100F8000C6D12B68002BC3D01D2B01D0162B01D14D
:100F90002E60AFE74023A2891343A381ABE7402330
:100FA0000B430120A3814042A5E70F69002FA1D088
:100FB0000B680F60DB1B01930023920700D14B6984
:100FC000A360019B002B00DC94E7019B3A00216A9F
:100FD0002800A66AB047002803DC4023A2891343F7
:100FE000DFE7019B3F181B1A0193EAE7010040204D
:100FF0000B6970B505000C00002B01D1002070BDFD
:10100000002804D08369002B01D100F05FF80B4B5E
:101010009C4209D16C680C22A35E002BEED021000B
:101020002800FFF75BFFEAE7054B9C4201D1AC6863
:10103000F1E7044B9C42EED1EC68ECE7FC1A00109F
:101040001C1B0010DC1A0010002310B50400036004
:101050004360836081814366C28103614361836130
:10106000190008225C30FFF76AFB054B24626362BB
:10107000044BA362044BE362044B236310BDC046E0
:10108000391800106118001099180010C5180010C8
:1010900010B5024900F08CF810BDC046F10F0010E9
:1010A00070B568254A1E55430E0029007431FFF7BC
:1010B000A7FB041E08D000212A00016046600C3006
:1010C000A0606832FFF73BFB200070BD836913B559
:1010D0000400002B28D18364C3640365134B144AB6
:1010E0001B6882620193984201D101238361200031
:1010F00000F020F86060200000F01CF8A0602000E4
:1011000000F018F80022E06004216068FFF79CFFFF
:1011100001220921A068FFF797FF02221221E0684F
:10112000FFF792FF0123A36113BDC046CC19001045
:1011300091100010F8B51C4B07001E68B369002B16
:1011400002D13000FFF7C2FF4836B4687368013B34
:1011500004D53368002B07D03668F6E70C22A55E6D
:10116000002D0DD06834F2E704213800FFF798FF16
:1011700030600028F0D10C2304003B602000F8BD53
:1011800020000A4B656625606560A560E360256107
:101190006561A561082229005C30FFF7D0FA65631C
:1011A000A563A564E564E9E7CC1900100100FFFF21
:1011B000F7B504000700002601914834002C01D146
:1011C0003000FEBD6368A5680093009B013B00935F
:1011D00001D52468F2E7AB89012B08D90E22AB5E5A
:1011E000013304D029003800019B98470643683535
:1011F000EBE7000070B50E001D000E23C95E96B02F
:101200001400002907DA00232B60B3891B0611D4D0
:101210008023DB000FE06A4600F080FB0028F2DB51
:10122000F022019B12021340054A9B185A42534177
:101230002B60EDE740230020236016B070BDC04650
:1012400000E0FFFFF7B502268B8905000C00334252
:1012500006D0230047332360236101236361F7BD78
:1012600001AB6A46FFF7C6FF009907002800FFF7A9
:10127000C7FA002808D10C22A35E9A05EFD40322F6
:1012800093431E43A681E4E70F4BAB628023A28900
:1012900020601343A381009B20616361019B002BAD
:1012A0000DD00E23E15E280000F04AFB002806D096
:1012B0000322A38993431A0001231343A381A08926
:1012C0003843A081CBE7C0469110001070477047AB
:1012D000936810B5013B9360002B04DA9469A34234
:1012E00007DB0A2905D01368581C10601970080024
:1012F00010BDFFF71BFD0100F9E7F8B506000F0070
:101300001400D518AC4201D1002007E021783A0042
:101310003000FFF7DDFF0134431CF3D1F8BD0000BE
:10132000F0B5A1B003900F0016001D00002805D0F5
:1013300083690593002B01D1FFF7C8FE7B4B9F42C9
:101340005CD1039B5F68BB891B0763D53B69002B9E
:1013500060D0002308AC6361203363761033A3763A
:10136000079535002B78002B01D0252B5CD1AB1BCA
:1013700005930CD0320039000398FFF7BEFF431CE1
:1013800000D1C4E06269059B9446634463612B7895
:10139000002B00D1BBE0012200235242626004A96D
:1013A000543252186E1C2360E360A3601370A3656F
:1013B000317805225E4800F0E9FA751C002835D125
:1013C0002268D30604D5532304A95B182021197081
:1013D000130704D5532304A95B182B211970337804
:1013E0002A2B2CD0350000210A20E3682A786E1CB5
:1013F000303A092A64D900292ED026E04D4B9F426D
:1014000002D1039B9F689EE74B4B9F429BD1039B5E
:10141000DF6898E739000398FFF7EAFC002898D0C6
:101420000120404221B0F0BD01359BE7404B2268CE
:10143000C01A01238340134323602E00B8E7079BA3
:10144000191D1B680791002B01DB0B9304E05B4225
:10145000E3600223134323602B782E2B0AD16B7891
:101460002A2B35D1079B02351A1D1B680792002BCA
:101470002BDB0993314E29780322300000F086FAE5
:10148000002806D04023801B834022680135134387
:101490002360297806222A486E1C217600F076FA0D
:1014A00000283AD0274B002B25D10722079B073372
:1014B0009343083307936369049A9B18636150E769
:1014C000434301219B18350090E701235B42D0E79D
:1014D00000230A201A000135636029786E1C303918
:1014E000092903D9002BC5D00992C3E74243012340
:1014F00052183500F1E707AB00933A00124B210078
:10150000039800E000BF0490049B0133D3D1BB8952
:101510005B0600D584E70D9884E707AB00933A009B
:10152000094B2100039800F07FF8ECE7FC1A00104B
:101530003C1B00101C1B0010DC1A0010421B00108A
:10154000461B001000000000FB120010F7B515004C
:1015500001938A680B6900900C00934200DA130033
:1015600022002B6043321278002A01D001332B6015
:1015700023689B0602D52B6802332B60062723685D
:101580001F4027D0230043331B785A1E9341226803
:10159000920630D42200019943320098089EB04749
:1015A000431C25D0062320682A68E16803400025F3
:1015B000042B03D18D1AEB43DB171D40A36822696E
:1015C000934201DD9B1AED180027BD4220D1002077
:1015D00010E00137E3682A689B1ABB42D2DD220083
:1015E0000123193201990098089EB047431CF0D19D
:1015F00001204042FEBD3020E11843310870210037
:101600005A1C45310978A218433202331170C1E7E0
:10161000220001231A3201990098089EB047431C0A
:10162000E6D00137D1E70000F0B589B004920A0096
:1016300043320593039002920A7E0C000E9B6E2AA1
:1016400000D186E01FD8632A33D008D8002A00D101
:101650008CE0582A4DD0250042352A7030E0642AAB
:1016600001D0692AF7D1196825680A1D280629D5ED
:1016700008681A60002803DA2D23029A404213708A
:101680006B4E0A274FE0732A74D008D86F2A1FD0F8
:10169000702AE0D1202209680A43226003E0752AFB
:1016A00016D0782AD7D12200782145321170614EA8
:1016B00022E025001A684235111D196013682B704D
:1016C000012365E008681A606906D3D500B2D1E746
:1016D00019682568081D186008682E0605D5544E3F
:1016E00008276F2A1BD00A2719E06D06F7D580B2AC
:1016F000F5E745314E4E0A7018682268011D0068F2
:101700001960150621D5D30702D520231A4322607C
:101710001027002803D1202322689A432260230047
:10172000002243331A706368A360002B58DB042245
:10173000216891432160002854D1029D002B5AD08A
:101740002500337842352B7055E05506DBD580B245
:10175000D9E71A680D68101D4969186013682E06CC
:1017600001D5196002E06D06FBD519800023029DAA
:1017700023614FE01A68111D196015680021626825
:10178000280000F003F9002801D0401B6060636866
:1017900023610023029A13703CE023692A00049914
:1017A0000398059DA847431C3ED023689B0715D48A
:1017B000079BE068984239DA180037E022000123DD
:1017C000193204990398059EB047431C2CD001356B
:1017D000E368079A9B1AAB42F0DCE9E70025F7E7DC
:1017E0000028ADD0029D390001F004FD735C013D7D
:1017F0002B700028F7D1082F09D12368DB0706D505
:1018000063682269934202DC3023013D2B70029B06
:101810005B1B2361059B07AA00932100049B03988F
:10182000FFF794FE431CB8D10120404209B0F0BD3F
:101830004D1B00105E1B001070B50C000E25495F9B
:1018400000F0B0F8002803DB636D1B18636570BD02
:10185000A389024A1340A381F9E7C046FFEFFFFFC7
:10186000F8B51F008B8905000C001600DB0505D5B7
:101870000E23C95E0022022300F074F8A389054AF2
:1018800028001340A38132000E23E15E3B0000F0EC
:101890001FF8F8BDFFEFFFFF70B50C000E25495F84
:1018A00000F060F8A389421C03D1054A1340A381CC
:1018B00070BD802252011343A3816065F8E7C046E2
:1018C000FFEFFFFF10B50E23C95E00F015F810BD45
:1018D00070B50500080011000022064C22601A00B5
:1018E00023F0C6F8431C03D12368002B00D02B60E3
:1018F00070BDC04688E80108002370B5064C05009D
:10190000080023602DF030FC431C03D12368002B1A
:1019100000D02B6070BDC04688E80108002370B578
:10192000064C05000800110023602DF025FC431C27
:1019300003D12368002B00D02B6070BD88E801081C
:10194000002370B5064C0500080023602DF01CFC38
:10195000431C03D12368002B00D02B6070BDC04610
:1019600088E8010870B50500080011000022064C47
:1019700022601A002DF010FC431C03D12368002BB9
:1019800000D02B6070BDC04688E80108C9B282183B
:10199000904201D10020704703788B42FBD0013088
:1019A000F6E7000070B50500080011000022064CA3
:1019B00022601A002DF0F8FB431C03D12368002B92
:1019C00000D02B6070BDC04688E8010824B0010833
:1019D0004300504F534958002E0000202020202063
:1019E00020202020282828282820202020202020CF
:1019F00020202020202020202020208810101010BF
:101A00001010101010101010101010040404040412
:101A1000040404040410101010101010414141413E
:101A20004141010101010101010101010101010126
:101A30000101010101011010101010104242424238
:101A400042420202020202020202020202020202F6
:101A5000020202020202101010102000000000001A
:101A60000000000000000000000000000000000076
:101A70000000000000000000000000000000000066
:101A80000000000000000000000000000000000056
:101A90000000000000000000000000000000000046
:101AA0000000000000000000000000000000000036
:101AB0000000000000000000000000000000000026
:101AC0000000000000000000000000000000000016
:101AD0000000000000000000000000000000000006
:101AE00000000000000000000000000000000000F6
:101AF00000000000000000000000000000000000E6
:101B000000000000000000000000000000000000D5
:101B100000000000000000000000000000000000C5
:101B200000000000000000000000000000000000B5
:101B3000000000000000000000000000232D302BFA
:101B40002000686C4C0065666745464700303132BE
:101B50003334353637383941424344454600303115
:101B60003233343536373839616263646566000074
:101B700005DF70470020FBE706DF7047EFF31483B3
:101B80000138421E9041012210409343184380F3D4
:101B90001488704730B58BB00290039102A904916C
:101BA000069308210EAB0893042305917020073992
:101BB0000792099302F0FEFB041E10DD002304AA25
:101BC000019300930021033302F0F6FB050020008F
:101BD00002F0FEFB032D05D028000BB030BD84259C
:101BE0006D42F9E787256D42F6E7C04670B58CB0C7
:101BF000039204AA08920822099203AA0A920422D4
:101C0000119E0B92109A0490059106920793002E54
:101C100019D00121712002F0CDFB041E16DD012335
:101C2000019306AB009308AA0223002102F0C4FB33
:101C30000500200002F0CCFB032D04D0079B33608D
:101C400028000CB070BD87256D42F9E784256D42F0
:101C5000F6E7C04630B589B002AB04930823029082
:101C6000039105930121043372200692079302F039
:101C7000A1FB041E11DD0123019306AB009304AA0E
:101C80000123002102F098FB0500200002F0A0FBD8
:101C9000032D05D0280009B030BD84256D42F9E739
:101CA00087256D42F6E7C04630B587B002AB049396
:101CB00008230290039101217320059302F07AFB1F
:101CC000041E0EDD002304AA0193009300210133BA
:101CD00002F072FB0500200002F07AFB280007B03A
:101CE00030BD84256D42F9E70020704730B595B0CE
:101CF0000C000390242200210BA8FEF720FD0AAA65
:101D000006922822079203AA0223089204220121A4
:101D1000802004940A930992059302F04BFB041E61
:101D20000FDD0123019304AB009306AA02230021D7
:101D300002F042FB0500200002F04AFB280015B02B
:101D400030BD84256D42F9E7862040427047C04689
:101D500030B58FB005002422002105A8FEF7EFFC66
:101D6000032304AC0493012125338020E5800294F1
:101D7000039302F01FFB041E0EDD002302AA019351
:101D800000930021013302F017FB0500200002F050
:101D90001FFB28000FB030BD84256D42F9E7C04617
:101DA000F0B595B007000E001500002124220BA805
:101DB0001C00FEF7C4FC04230A930AAB04932823F7
:101DC0000593043B07930121223B80200294069750
:101DD00008960995039302F0EDFA041E0FDD012326
:101DE000019302AB009304AA0323002102F0E4FA5A
:101DF0000500200002F0ECFA280015B0F0BD8425A3
:101E00006D42F9E730B58FB005002422002105A806
:101E1000FEF795FC052304AC0493012123338020B5
:101E2000E5800294039302F0C5FA041E0EDD002340
:101E300002AA019300930021013302F0BDFA0500CC
:101E4000200002F0C5FA28000FB030BD84256D4295
:101E5000F9E7C04670B590B006AC06000D00282228
:101E600000212000FEF76BFC282301210393802032
:101E7000043BE68002940495059302F09BFA041E4D
:101E80000FDD0123019304AB009302AA012300217B
:101E900002F092FA0500200002F09AFA280010B031
:101EA00070BD84256D42F9E7F0B5C64600B590B027
:101EB00007000E0015000021242207A89846FEF70F
:101EC0003EFC062306AC0693012122338020E780E6
:101ED000029403930496059502F06CFA041E14DD37
:101EE0000123019304AB009302AA0123002102F015
:101EF00063FA4346059A05001A60200002F068FA6A
:101F0000280010B004BC9046F0BD84256D42F7E770
:101F1000F0B5C64600B590B007000E0015000021D0
:101F2000242207A89846FEF70AFC072306AC06936E
:101F3000012121338020E7800294039304960595C4
:101F400002F038FA041E14DD0123019304AB009360
:101F500002AA0123002102F02FFA4346059A050048
:101F60001A60200002F034FA280010B004BC904639
:101F7000F0BD84256D42F7E7F0B593B007000E0081
:101F800015000021242209A8FEF7D9FB0823089395
:101F900020330593043B08AC07930121223B8020AA
:101FA000E780049406960295039302F003FA041E58
:101FB0000FDD0123019302AB009304AA0223002149
:101FC00002F0FAF90500200002F002FA280013B02E
:101FD000F0BD84256D42F9E7F0B5C64600B592B074
:101FE00004000F0016000021242209A89846FEF7DD
:101FF000A6FB1D230893236808ADEB60282301216D
:1020000003938020243B049402950593069707963A
:1020100002F0D0F9041E14DD0223019304AB0093F7
:1020200002AA0123002102F0C7F94346079A0500DE
:102030001A60200002F0CCF9280012B004BC9046CF
:10204000F0BD84256D42F7E7F0B593B004000F00B2
:1020500016000021242209A8FEF771FB1E23089315
:10206000236808ADEB602823012105938020243BE1
:102070000294049506970796039302F09BF9041EB9
:102080000FDD0123019302AB009304AA0223002178
:1020900002F092F90500200002F09AF9280013B02E
:1020A000F0BD84256D42F9E7F0B591B005000F0051
:1020B00016000021242207A8FEF741FB1B230693EC
:1020C0002B6806ACE3602823012103938020243B86
:1020D000E780A66002940495059302F06BF9041E54
:1020E0000FDD0123019304AB009302AA0123002119
:1020F00002F062F90500200002F06AF9280011B030
:10210000F0BD84256D42F9E7F0B591B005000F00F0
:1021100016000021242207A8FEF711FB1C230693BA
:102120002B6806ACE3602823012103938020243B25
:10213000E780A66002940495059302F03BF9041E23
:102140000FDD0123019304AB009302AA01230021B8
:1021500002F032F90500200002F03AF9280011B02F
:10216000F0BD84256D42F9E7F0B5C64600B594B0E0
:10217000040088461700002124220BA81E00FEF749
:10218000DEFA1F230A9323680AADEB60282303932A
:1021900043460493042307931A9B0121802006944D
:1021A000029505970896099302F004F9041E14DDC0
:1021B0000223019306AB009302AA0223002102F03E
:1021C000FBF8099A1B9B05001A60200002F000F939
:1021D000280014B004BC9046F0BD84256D42F7E79A
:1021E00030B591B004002422002107A8FEF7A7FA19
:1021F00021230693236806ADEB6028230121039376
:102200008020243B04940295059302F0D3F8041E29
:102210000FDD0123019304AB009302AA01230021E7
:1022200002F0CAF80500200002F0D2F8280011B030
:1022300030BD84256D42F9E7F0B5C64600B592B0D1
:1022400004000F0016000021242209A89846FEF77A
:1022500076FA20230893236808ADEB602823012138
:1022600003938020243B04940295059306970796D8
:1022700002F0A0F8041E14DD0223019304AB0093C6
:1022800002AA0123002102F097F84346079A0500AD
:102290001A60200002F09CF8280012B004BC90469E
:1022A000F0BD84256D42F7E770B590B005000E00D3
:1022B0002422002107A8FEF742FA0B2306932B687D
:1022C00006ACE3602823012103938020243BA66011
:1022D00002940495059302F06DF8041E0FDD0123AE
:1022E000019304AB009302AA0123002102F064F8D9
:1022F0000500200002F06CF8280010B070BD8425A5
:102300006D42F9E7F0B593B004000F00160000210C
:10231000242209A8FEF713FA0C230893236808ADBA
:10232000EB602823012105938020243B029404952F
:1023300006970796039302F03DF8041E0FDD012374
:10234000019302AB009304AA0223002102F034F8A7
:102350000500200002F03CF8280013B0F0BD8425F1
:102360006D42F9E7F0B5C64600B592B004000F0023
:1023700016000021242209A89846FEF7E0F90D2353
:102380000893236808ADEB60282301210393802084
:10239000243B0494029505930697079602F00AF8E9
:1023A000041E14DD0223019304AB009302AA01234F
:1023B000002102F001F84346079A05001A60200048
:1023C00002F006F8280012B004BC9046F0BD842547
:1023D0006D42F7E7F0B593B004000F00160000213E
:1023E000242209A8FEF7ABF90E230893236808AD51
:1023F000EB602823012105938020243B029404955F
:1024000006970796039301F0D5FF041E0FDD012305
:10241000019302AB009304AA0223002101F0CCFF38
:102420000500200001F0D4FF280013B0F0BD842582
:102430006D42F9E730B591B004002422002107A8CD
:10244000FEF77DF90F230693236806ADEB60282382
:10245000012103938020243B04940295059301F00D
:10246000A9FF041E0FDD0123019304AB009302AA10
:102470000123002101F0A0FF0500200001F0A8FFCA
:10248000280011B030BD84256D42F9E770B590B0D9
:1024900006000C002422002107A8FEF750F91023A3
:1024A0000693336806ADEB6028230393243B029523
:1024B00004940593002C02D02368002B18D101212D
:1024C000802001F077FF041E0FDD0123019304AB90
:1024D000009302AA0123002101F06EFF05002000F5
:1024E00001F076FF280010B070BD84256D42F9E739
:1024F00089256D42F6E7C046F0B591B005000F00A2
:1025000016000021242207A8FEF719F913230693C9
:102510002B6806ACE3602823012103938020243B31
:10252000E780A66002940495059301F043FF041E22
:102530000FDD0123019304AB009302AA01230021C4
:1025400001F03AFF0500200001F042FF280011B021
:10255000F0BD84256D42F9E7F0B591B005000F009C
:1025600016000021242207A8FEF7E9F81423069399
:102570002B6806ACE3602823012103938020243BD1
:10258000E780A66002940495059301F013FF041EF2
:102590000FDD0123019304AB009302AA0123002164
:1025A00001F00AFF0500200001F012FF280011B021
:1025B000F0BD84256D42F9E7F0B593B004000F003B
:1025C00016000021242209A8FEF7B9F81523089364
:1025D000236808ADEB602823012105938020243B6C
:1025E0000294049506970796039301F0E3FE041EF8
:1025F0000FDD0123019302AB009304AA0223002103
:1026000001F0DAFE0500200001F0E2FE280013B020
:10261000F0BD84256D42F9E7F0B5C64600B592B02D
:1026200004000F0016000021242209A89846FEF796
:1026300086F816230893236808ADEB602823012150
:1026400003938020243B04940295059306970796F4
:1026500001F0B0FE041E14DD0223019304AB0093CD
:1026600002AA0123002101F0A7FE4346079A0500B4
:102670001A60200001F0ACFE280012B004BC9046A5
:10268000F0BD84256D42F7E7F0B593B004000F006C
:1026900016000021242209A8FEF751F817230893F9
:1026A000236808ADEB602823012105938020243B9B
:1026B0000294049506970796039301F07BFE041E8F
:1026C0000FDD0123019302AB009304AA0223002132
:1026D00001F072FE0500200001F07AFE280013B020
:1026E000F0BD84256D42F9E730B591B00400242295
:1026F000002107A8FEF723F818230693236806ADE8
:10270000EB602823012103938020243B049402954D
:10271000059301F04FFE041E0FDD0123019304AB6E
:10272000009302AA0123002101F046FE05002000CB
:1027300001F04EFE280011B030BD84256D42F9E74E
:10274000F0B595B004000F001600002120220BA860
:102750001D00FDF7F4FF22230A936B46DC851A9BCC
:102760000C971395002B36D00AAB049328230593BE
:102770001C9B06931D9B07931A9B08931B9B099315
:102780001E9B02931F9B0393102D27D8002E06D06B
:10279000002D04D02A0031000FA8FDF7B4FF01215D
:1027A000802001F007FE051E1BDD1A9B01225C1E26
:1027B000A341019202AA02330092002104AA01F06F
:1027C000FBFD039A209B04001A60280001F000FE24
:1027D000200015B0F0BD1B9B002BC5D087246442A0
:1027E000F6E784246442F3E7F0B595B004000F00E7
:1027F0001600002120220BA81D00FDF7A0FF2323B7
:102800000A936B46DC851A9B0C971395002B36D0E8
:102810000AAB0493282305931C9B06931D9B0793E7
:102820001A9B08931B9B09931E9B02931F9B039368
:10283000102D27D8002E06D0002D04D02A003100FC
:102840000FA8FDF760FF0121802001F0B3FD051EF8
:102850001BDD1A9B01225C1EA341019202AA0233D6
:102860000092002104AA01F0A7FD039A209B040016
:102870001A60280001F0ACFD200015B0F0BD1B9BD4
:10288000002BC5D087246442F6E784246442F3E732
:10289000F0B5C64600B592B080460F001600002184
:1028A000242209A81D00FDF74AFF2E230893434662
:1028B00008ACE38028230593189B01210293199B00
:1028C0008020A760049406960795039301F072FD9B
:1028D000041E14DD0123019302AB009304AA02231A
:1028E000002101F069FD039A1A9B05001A6020007F
:1028F00001F06EFD280012B004BC9046F0BD8425A6
:102900006D42F7E7F0B5C64600B592B080460F00BD
:1029100016000021242209A81D00FDF710FF2E2318
:102920000893434608ACE38028230593189B0121B4
:102930000293199B8020A760049406960795039341
:1029400001F038FD041E14DD0123019302AB009356
:1029500004AA0223002101F02FFD039A1A9B05000F
:102960001A60200001F034FD280012B004BC90462B
:10297000F0BD84256D42F7E7F0B5C64600B592B0CC
:1029800080460F0016000021242209A81D00FDF733
:10299000D6FE2F230893434608ACE38028230393F5
:1029A000189B01210693199B8020A760029404962E
:1029B0000595079301F0FEFC041E10DD002302AA1A
:1029C000019300930021033301F0F6FC0500200081
:1029D00001F0FEFC280012B004BC9046F0BD842536
:1029E0006D42F7E7F0B5C64600B592B080460F00DD
:1029F00016000021242209A81D00FDF7A0FE2F23A8
:102A00000893434608ACE38028230393189B0121D5
:102A10000693199B8020A76002940496059507935E
:102A200001F0C8FC041E10DD002302AA01930093EC
:102A30000021033301F0C0FC0500200001F0C8FCB8
:102A4000280012B004BC9046F0BD84256D42F7E723
:102A5000F0B595B005000C001700002124220BA84A
:102A60001E00FDF76CFE30230A936B46DD851A9B32
:102A70000C94002B28D00AAB0493282304AC636089
:102A80001A9BE66023611B9B02AE63611C9BA760DF
:102A900002931D9B01217360802001F08BFC0323B6
:102AA000051E2BDD01220096019200212200280044
:102AB00001F082FC72681E9B04001A60280001F07D
:102AC00087FC200015B0F0BD1B9B002B19D10AAB71
:102AD0000493282304AC63601B9BE660236163615D
:102AE0001C9B02AE02931D9BA76073600121802096
:102AF00001F060FC051E01DD0223D3E7842464425B
:102B0000DFE787246442DCE7F0B595B005000C00F0
:102B10001700002124220BA81E00FDF710FE312310
:102B20000A936B46DD851A9B0C94002B28D00AABC8
:102B30000493282304AC63601A9BE66023611B9B0B
:102B400002AE63611C9BA76002931D9B0121736011
:102B5000802001F02FFC0323051E2BDD01220096AF
:102B6000019200212200280001F026FC72681E9BC1
:102B700004001A60280001F02BFC200015B0F0BD05
:102B80001B9B002B19D10AAB0493282304AC636070
:102B90001B9BE660236163611C9B02AE02931D9B3D
:102BA000A76073600121802001F004FC051E01DD97
:102BB0000223D3E784246442DFE787246442DCE70E
:102BC00070B590B006000D002422002107A8FDF783
:102BD000B6FD33230693336806ACE3602823012156
:102BE00003938020243B02940495059301F0E2FBBB
:102BF000041E0FDD0123019304AB009302AA0123FD
:102C0000002101F0D9FB0500200001F0E1FB2800C4
:102C100010B070BD84256D42F9E7C046F0B591B0A3
:102C200007000E0015000021242207A8FDF787FDEC
:102C3000382306933B6806ACE360282301218020FB
:102C4000029403930496059501F0B4FB041E0FDD76
:102C50000123019304AB009302AA0123002101F098
:102C6000ABFB0500200001F0B3FB280011B0F0BD64
:102C700084256D42F9E7C046F0B58FB005000F001E
:102C800016000021202206A8FDF759FD36230493E3
:102C90002B6804ACE360282301218020A780E68014
:102CA0000294039301F086FB041E0EDD002302AAAA
:102CB000019300930021013301F07EFB0500200009
:102CC00001F086FB28000FB0F0BD84256D42F9E7C6
:102CD00030B591B004002422002107A8FDF72FFD94
:102CE0003A230693236806ADEB6028230121039362
:102CF0008020243B04940295059301F05BFB041EA5
:102D00000FDD0123019304AB009302AA01230021EC
:102D100001F052FB0500200001F05AFB280011B021
:102D200030BD84256D42F9E7F0B5C64600B592B0D6
:102D3000050088461700002120220AA81E00FDF782
:102D4000FEFC37230893434608ACA3802B6801217F
:102D5000E36028230593189B802007930423E780D2
:102D6000049406960295039301F024FB041E11DDE2
:102D70000123019302AB009304AA0223002101F076
:102D80001BFB0500200001F023FB280012B004BC4F
:102D90009046F0BD84256D42F7E7C04630B591B04E
:102DA00005000C002422002107A8FDF7C8FC3C23E5
:102DB000069306AB029328230495039305940025FC
:102DC000002C02D1280011B030BD0121802001F07B
:102DD000F1FA041E0DDD0123019304AB009302AA56
:102DE0000123002101F0E8FA0500200001F0F0FACB
:102DF000E8E784256D42E5E730B593B00C000500A7
:102E00002422002109A8FDF79AFC3D23089308AB72
:102E1000049328230593043B07930121223B802040
:102E200002940695039301F0C5FA041E0FDD0123F9
:102E3000019302AB009304AA0223002101F0BCFA23
:102E40000500200001F0C4FA280013B030BD84252D
:102E50006D42F9E7862040427047C04686204042D6
:102E60007047C046862040427047C0468620404298
:102E70007047C046862040427047C0468620404288
:102E80007047C046862040427047C0468620404278
:102E90007047C046862040427047C0468620404268
:102EA0007047C046862040427047C046F0B5C646CF
:102EB00000B592B00700884616000021242209A818
:102EC0001D00FDF73CFC3B230893434608ACE38020
:102ED00028230593189B01210293199B8020A7604A
:102EE000049406960795039301F064FA041E14DD1A
:102EF0000123019302AB009304AA0223002101F0F5
:102F00005BFA039A1A9B05001A60200001F060FA30
:102F1000280012B004BC9046F0BD84256D42F7E74E
:102F200070B590B005000E002422002107A8FDF71F
:102F300006FC322306932B6806ACE36028230121AC
:102F400003938020243BA66002940495059301F02E
:102F500031FA041E0FDD0123019304AB009302AA92
:102F60000123002101F028FA0500200001F030FAC9
:102F7000280010B070BD84256D42F9E770B58EB0A1
:102F800006000D002422002105A8FDF7D8FB3423FC
:102F90000493336804ACE360282301218020256179
:102FA0000294039301F006FA041E0EDD002302AA28
:102FB000019300930021013301F0FEF90500200088
:102FC00001F006FA28000EB070BD84256D42F9E7C5
:102FD000F0B5C64607001E2000B590B08846160022
:102FE0000021222268441D00FDF7A9FB352306932A
:102FF000434606ACA3803B680121E3602823802080
:10300000029403930496059501F0D4F9041E10DD93
:10301000002302AA019300930021023301F0CCF9AE
:103020000500200001F0D4F9280010B004BC90463F
:10303000F0BD84256D42F7E7F0B593B006000F00B0
:1030400015000021242209A8FDF779FB39230893F4
:103050003B6808ACE36028230593043B07930121F8
:10306000223B8020049406960295039301F0A2F976
:10307000041E0FDD0123019302AB009304AA022377
:10308000002101F099F90500200001F0A1F92800C4
:1030900013B0F0BD84256D42F9E7C046862040425A
:1030A0007047C046862040427047C0468620404256
:1030B0007047C046862040427047C0468620404246
:1030C0007047C046862040427047C0468620404236
:1030D0007047C04602B4714649084900095C49007E
:1030E0008E4402BC7047C046002243088B4274D312
:1030F00003098B425FD3030A8B4244D3030B8B42F9
:1031000028D3030C8B420DD3FF22090212BA030C01
:103110008B4202D31212090265D0030B8B4219D3E2
:1031200000E0090AC30B8B4201D3CB03C01A524102
:10313000830B8B4201D38B03C01A5241430B8B424A
:1031400001D34B03C01A5241030B8B4201D30B0333
:10315000C01A5241C30A8B4201D3CB02C01A52415A
:10316000830A8B4201D38B02C01A5241430A8B421D
:1031700001D34B02C01A5241030A8B4201D30B0206
:10318000C01A5241CDD2C3098B4201D3CB01C01A20
:10319000524183098B4201D38B01C01A524143092A
:1031A0008B4201D34B01C01A524103098B4201D318
:1031B0000B01C01A5241C3088B4201D3CB00C01A85
:1031C000524183088B4201D38B00C01A52414308FD
:1031D0008B4201D34B00C01A5241411A00D2014622
:1031E000524110467047FFE701B5002000F006F895
:1031F00002BDC0460029F7D076E770477047C04649
:10320000002B11D1002A0FD1002900D1002802D0B3
:103210000021C943081C07B4024802A140180290CB
:1032200003BDC046D9FFFFFF03B4684601B502984D
:1032300000F030F8019B9E4602B00CBC7047C046BF
:10324000F0B5CE46474615042D0C2E0080B5070478
:10325000140C3F0C9946030C7E435D436743634364
:103260007F19340CE4199C46A54203D980235B02E4
:103270009846C4444B4643435143250C36046544A9
:10328000360C2404A4195B19591820000CBC904674
:103290009946F0BDF0B54F464646D646C0B5040047
:1032A00082B00D00914698468B422FD82CD04146D3
:1032B000484600F0B1F829000600200000F0ACF804
:1032C000331A9C46203B9A4600D576E04B46524640
:1032D00093401F004B46624693401E00AF4228D8E1
:1032E00025D05346A41BBD41002B00DA7BE0002211
:1032F000002300920193012352469340019301233E
:1033000062469340009318E08242D0D90022002305
:10331000009201930A9B002B01D01C605D60009815
:10332000019902B01CBC90469946A246F0BDA3424A
:10333000D7D900220023009201936346002BE9D0E5
:10334000FB079846414672080A437B0866460EE032
:10335000AB4201D1A2420CD8A41A9D4101202419EC
:103360006D410021013E24184D41002E06D0AB4294
:10337000EED9013E24196D41002EF8D10098019933
:10338000534600196941002B23DB2B005246D340E2
:103390002A006446E2401C0053461500002B2DDB3A
:1033A00026005746BE40330026006746BE40320026
:1033B000801A994100900191ACE7624620239B1A44
:1033C0004A46DA406146130042468A4017001F43CE
:1033D00080E7624620239B1A2A0066469A40230013
:1033E000F3401343D4E76246202300219B1A0022B6
:1033F000009101920122DA40019280E72023624687
:1034000026009B1ADE402F00B0466646B74046466F
:103410003B003343C8E7C04610B5002903D100F094
:1034200007F8203002E0081C00F002F810BDC0468A
:103430001C2101231B04984201D3000C10391B0AE4
:10344000984201D3000A08391B09984201D30009A8
:10345000043902A2105C40187047C04604030202FF
:103460000101010100000000000000000FB4F0B5F0
:103470005746DE464E464546E0B595B01EAE08CEF0
:1034800000249A46002357469B4607960B933B78A9
:10349000002B12D07A1C9046252B20D00BAD621C3D
:1034A0002C190B9223711F2A24D8012347469C46CE
:1034B0003B78E3441400002BECD1002C04D0210015
:1034C0000CA821F0BFFA8344584615B03CBC904686
:1034D0009946A246AB46F0BC08BC04B018477B78BE
:1034E000253BDBB2532B01D900F09EFC854A9B00A3
:1034F000D3589F46002320210CA80B9321F0A2FA59
:103500000B9AD2E70023804A0BAD984691462A00D9
:103510004546B04616003033621C341932602371C0
:103520001F2A0BD84B4601355B5D002B12D01400CF
:10353000621C3419326023711F2AF3D90023202121
:103540000CA8336021F07EFA4B4601355B5D326892
:10355000002BECD133004646A8461D00331D0193D5
:1035600008AB924600210C22180034689946FDF7FA
:10357000E6F80F231A00494664482240825CC3449F
:103580000A7003925246984621090132002901D15E
:1035900000F0D7FD4E461940415C7170260A01D1FA
:1035A00000F010FE1E404B46865D9E70230B01D13D
:1035B00000F031FE1900434619404B46415CD9707A
:1035C000230C01D100F04BFE1E0043461E404B462B
:1035D000865D1E71230D01D100F04AFE190043469D
:1035E00019404B46415C5971230E01D100F076FE23
:1035F00046461E404B46865D240F9E7101D100F069
:1036000090FE015DD971062302930233984653461A
:10361000EB182A6019711F2A01D900F06BFD541CA8
:10362000AA182C6016711F2C01D900F0A6FC029B71
:10363000002B01D100F05CFC4346DE1E4B469A5D38
:10364000631C2C192B6022711F2B01D900F014FD73
:10365000002E01D100F078FC4246161F4A46925DCA
:103660005C1CEB182C601A711F2C01D900F02FFD87
:10367000002E01D100F092FC43465E1F4B469A5D3E
:10368000631C2C192B6022711F2B01D900F071FDD6
:10369000002E01D100F00AFD4246961F4A46925D77
:1036A0005C1CEB182C601A711F2C06D900232021FA
:1036B0000CA82B6021F0C6F92C68002E01D100F077
:1036C00017FD46464B46073E9A5D631C2C192B603E
:1036D00022711F2B01D900F077FC002E01D100F0E0
:1036E0005AFD039A5C1CEB182C601A7108261F2CDB
:1036F00000D80FE2002320210CA82B6021F0A2F9B2
:103700002C6807E2E84300105845001038450010C7
:10371000331D029308AB180036680C22002199462D
:10372000FDF70DF8631C9A46002E00DAA6E300238D
:10373000B046012603930BAD0A214046FFF75AFD20
:103740004A463031CBB213700A2140460593FFF749
:10375000CBFC002801D100F0E9FC0A21FFF74AFD6B
:103760004B463031CEB25E7064214046FFF7BCFC60
:10377000002801D100F017FD0A21FFF73BFD303191
:10378000CBB24A46FA219370890040460193FFF775
:10379000ABFC002801D100F02DFD0A21FFF72AFD26
:1037A0004B463031CEB2DE70E4494046FFF79CFC18
:1037B000002801D100F049FD0A21FFF71BFD4A4610
:1037C0003031CBB21371DE4940460193FFF78CFCD8
:1037D000002801D100F055FD0A21FFF70BFD4B46F3
:1037E0003031CEB25E71D7494046FFF77DFC0028EC
:1037F00001D100F05BFD0A21FFF7FCFC4A463031A5
:10380000CBB29371D04940460193FFF76DFC00287D
:1038100001D100F075FD0A21FFF7ECFC4B46303179
:10382000CEB2DE71C9494046FFF75EFC002801D1E7
:1038300000F091FD0A21FFF7DDFC4A463031CBB2A2
:103840001372C34940460193FFF74EFC002801D193
:1038500000F0A0FD4B463030C6B25E7208230493E0
:103860000233984653462C192B6026711F2B01D921
:1038700000F052FC5346019A5C1CEB182C601A7144
:103880001F2C00D971E3049B002B01D100F0CCFC6C
:103890004346DE1E4B469A5D631C2C192B60227139
:1038A0001F2B00D9F1E3002E01D100F0C9FC4246E4
:1038B000161F4A46925D5C1CEB182C601A711F2C77
:1038C00001D900F0FBFB002E01D100F0E3FC4346E0
:1038D0005E1F4B469A5D631C2C192B6022711F2BB7
:1038E00001D900F04FFC002E01D100F0FDFC424652
:1038F000961F4A46925D5C1CEB182C601A711F2CB7
:1039000006D9002320210CA82B6021F09BF82C68FD
:10391000002E01D100F0EDFC4346DE1F4B469A5DC0
:10392000631C2C192B6022711F2B00D955E3002E2C
:1039300001D100F016FD46464A46083E925D5C1CE9
:10394000EB182C601A711F2C00D966E3002E01D1F0
:1039500000F029FD46464B46093E9A5D631C2C1932
:103960002B6022711F2B00D95FE3002E00D16CE386
:10397000059A5C1CEB182C601A711F2C01D900F001
:103980009BFC039E0A36B3440237029E7FE5331D3B
:1039900032780BAD9846631C2C190B9322711F2BA8
:1039A00000D97DE2012294461C00E34446460237DA
:1039B0006DE5331D019308AB00210C22180035681A
:1039C0009946FCF7BCFE63490F231A002A408A5C23
:1039D000984692464A46504610702809621C0028B4
:1039E00000D19FE24E461840085C70702E0A00D14C
:1039F000ADE21E404B468E5D9E702B0B00D12BE33B
:103A00001800434618404B46085CD8702B0C00D178
:103A10004FE31E0043461E404B468E5D1E712B0D2C
:103A200000D1BDE21800434618404B46085C58716F
:103A30002B0E00D1B2E346461E404B468E5D2D0F45
:103A40009E7100D1CEE3485DD87106230293023304
:103A500098460BAD2C190B9220711F2A00D959E200
:103A6000541CAA182C6016711F2C00D928E2029B46
:103A7000002B00D13CE24346DE1E4B469A5D631CA0
:103A80002C192B6022711F2B00D921E2002E00D1AE
:103A90005AE24246161F4A46925D5C1CEB182C60A7
:103AA0001A711F2C00D91BE2002E00D176E243468A
:103AB0005E1F4B469A5D631C2C192B6022711F2BD5
:103AC00000D939E2002E00D1F0E24246961F4A4664
:103AD000925D5C1CEB182C601A711F2C00D93CE223
:103AE000002E00D104E346464B46073E9A5D631C18
:103AF0002C192B6022711F2B00D9B5E2002E00D1AA
:103B000049E352465C1CEB182C601A7108261F2CE6
:103B100000D9EFE5B3440237019EB8E425220BAD8E
:103B2000631C2C190B9322711F2B00D9C0E10122B9
:103B300094461C00E3440237A9E4C0461027000065
:103B4000A086010040420F008096980000E1F50534
:103B500000CA9A3B48450010331D019308AB002171
:103B60000C22180035689946FCF7E9FDE1492BE77E
:103B7000331D029308AB994635680C2218000021CA
:103B8000FCF7DDFD0A212800FFF734FB4A463031FF
:103B9000CBB213700A2128000493FFF7A5FA631C27
:103BA0009A46002800D103E20A21FFF723FB4B4687
:103BB0003031CEB25E7064212800FFF795FA0028FC
:103BC00000D1F8E20A21FFF715FB3031CBB298465D
:103BD000FA214B46424689009A702800FFF784FA82
:103BE000002800D10FE30A21FFF704FB4B463031D8
:103BF000CEB2DE70C0492800FFF776FA002800D167
:103C000019E30A21FFF7F6FA3031CBB298464B465A
:103C10004246BA491A712800FFF766FA002800D117
:103C20003CE30A21FFF7E6FA4B463031CEB25E7133
:103C3000B3492800FFF758FA002800D149E30A21C8
:103C4000FFF7D8FA3031CBB298464B464246AD49E1
:103C50009A712800FFF748FA002800D159E30A2199
:103C6000FFF7C8FA4B463031CEB2DE71A6492800C4
:103C7000FFF73AFA002800D178E30A21FFF7BAFAF1
:103C80003031CBB298464B464246A0491A722800C2
:103C9000FFF72AFA002800D171E34B463030C6B254
:103CA0005E72082303930233019353460BAD2C1924
:103CB0000B9326711F2B00D925E2534642465C1C0C
:103CC000EB182C601A711F2C00D95FE1039B002BAD
:103CD00000D1ADE2019BDE1E4B469A5D631C2C19A0
:103CE0002B6022711F2B00D9D8E1002E00D1B2E247
:103CF000019A5C1C161F4A46925DEB182C601A71E3
:103D00001F2C00D9ECE1002E00D1AEE2019B5E1F1A
:103D10004B469A5D631C2C192B6022711F2B00D916
:103D20001FE2002E00D1D0E2019A5C1C961F4A4689
:103D3000925DEB182C601A711F2C06D900232021EC
:103D40000CA82B6020F07EFE2C68002E00D1D4E25F
:103D5000019BDE1F4B469A5D631C2C192B60227160
:103D60001F2B00D941E1002E00D104E34A46019EF9
:103D70005C1C083E925DEB182C601A711F2C00D958
:103D800043E1002E00D102E34B46019E093E9A5DBD
:103D9000631C2C192B6022711F2B00D94DE1002EC2
:103DA00000D156E1049A5C1CEB182C601A710A26AB
:103DB0001F2C00D8E7E5002320210CA82B6020F061
:103DC00041FE2C68DFE5331D994633681A78984622
:103DD000002A25D000239A463B000BAD4746984663
:103DE000631C2C1900262B6022711F2B0AD8013668
:103DF000BA5D002A11D01C00631C2C192B602271A3
:103E00001F2BF4D9534620210CA801362B6020F03B
:103E100019FEBA5D2B68002AEDD147461C00B34459
:103E20004E460237FFF733FB394B5B22994600239E
:103E30000BAD9A46631C2C1900272B6022711F2B97
:103E40000BD84A460137D25D002A12D01C00631CF1
:103E50002C192B6022711F2BF3D9534620210CA85B
:103E60002B6020F0EFFD4A460137D25D2B68002A17
:103E7000ECD1BB441C004746FFF709FB0B932D23F5
:103E80000BAD2C19237153461F2B00D9A1E17342AE
:103E9000984601239C4654460226E24403934BE491
:103EA000002320210CA80B9320F0CCFD0B9B79E57F
:103EB000002320210CA80B9320F0C4FD0B9B36E6B9
:103EC000002320210CA82B6020F0BCFD2C68CEE53F
:103ED000002320210CA82B6020F0B4FD2B68D5E531
:103EE000002320210CA82B6020F0ACFD2C68DBE522
:103EF00002260FE63845001010270000A0860100BA
:103F000040420F008096980000E1F50500CA9A3BF8
:103F10005C450010002320210CA80B9320F092FD9B
:103F20000B9A9DE553460BAD2C190B9223711F2A5A
:103F300063D814000126EDE5002320210CA82B6096
:103F400020F080FD2B68BDE51C000326E2E5002380
:103F500002930233564698467BE5002320210CA8A5
:103F60002B6020F06FFD2C68BAE5002320210CA8FF
:103F70002B6020F067FD2C6885E4002320210CA82D
:103F80002B6020F05FFD2C68FFF751FB0023202100
:103F90000CA82B6020F056FD2C6897E60426B9E5A6
:103FA000030030001E00032302930233984650E5BD
:103FB0000BAD0B93049B2C19237153461F2B00D977
:103FC000C0E154460126DEE4002320210CA82B602A
:103FD00020F038FD2B68FFF780FB002320210CA880
:103FE0002B6020F02FFD2B68A1E4002320210CA8DA
:103FF0002B6020F027FD2B68B5E60B9020210CA844
:1040000020F020FD01260B9C84E5002320210CA834
:104010002B6020F017FD2C68B3E6002320210CA8AC
:104020002B6020F00FFD2C6890E4002320210CA8C9
:104030002B6020F007FD2B6897E4002320210CA8BB
:104040002B6020F0FFFC2B68A9E6039E1C000936BC
:1040500099E41C00092696E4030030001E000123A9
:10406000029302339846F4E4002320210CA82B602D
:1040700020F0E8FC2B6841E5002320210CA82B60F0
:1040800020F0E0FC2B68FFF7E3FA002320210CA8C6
:104090002B6020F0D7FC2B68FFF705FC00232021C4
:1040A0000CA82B6020F0CEFC2B681EE61C00052619
:1040B00030E50223029302339846CAE4002320210C
:1040C0000CA82B6020F0BEFC2C68FFF7FCFB002343
:1040D00020210CA82B6020F0B5FC2C68FFF7C8FA53
:1040E000002320210CA82B6020F0ACFC2C680AE6F1
:1040F00006260FE5002320210CA82B6020F0A2FC4F
:104100002A68FFF78CFA002320210CA80B9320F0DB
:1041100099FC0B9B9A46D0E5002320210CA82B602C
:1041200020F090FC2B689A46FFF7A4FB53462B60C7
:10413000059B2C19237153461F2B00D9FAE05446D6
:1041400021E453460398EB182A6018711F2A00D8FF
:10415000EFE629600CA8202120F074FC01262C68D1
:10416000D8E4002320210CA82B6020F06BFC2B68E6
:10417000D7E5002320210CA82B6020F063FC2B68DE
:10418000FFF786FA002320210CA82B6020F05AFCB0
:104190002B68FFF7A8FB1C000726BBE4042302934F
:1041A0000233984655E4059B0193002304930233A0
:1041B0009846FFF757FB049B98460023039302336E
:1041C000019372E5002302930233039E9846FFF7A2
:1041D0001EFA002320210CA80B9320F033FC0B9B2C
:1041E0009A4654E6030030001E0005230293023372
:1041F00098462EE43300019E019301230493023379
:104200009846FFF72FFB3300464698460123039359
:104210000233019349E50B0031001E000123029394
:1042200002339846FFF7F3F9039E0236FFF7ABFB24
:104230000226FFF7A8FB022303930233019334E520
:10424000039E1C000336FFF79EFB022304930233F8
:104250009846FFF707FB1C000326FFF794FB022399
:10426000029302339846FFF7D2F90426FFF78BFB3F
:104270000B0031001E000323029302339846FFF720
:10428000C6F93300019E0193032304930233984639
:10429000FFF7E8FA039E0436FFF775FB3300464646
:1042A00098460323039302330193FEE4042304930B
:1042B00002339846FFF7D6FA002320210CA82B6082
:1042C00020F0C0FB2C68FFF75CFB1C000526FFF705
:1042D0005AFB0423039302330193E6E4042302937D
:1042E00002339846FFF793F9039E1C000536FFF74B
:1042F0004AFB039E0636FFF746FB0626FFF743FB05
:104300003300019E01930523049302339846FFF77F
:10431000A9FA3300464698460523039302330193D6
:10432000C3E40B0031001E000523029302339846BC
:10433000FFF76DF9286020210CA820F083FB2C6882
:10434000FFF721FB0B9020210CA820F07BFB01261E
:104350000B9CFFF718FB0623049302339846FFF7E4
:1043600081FA039E1C000736FFF70DFB062303931B
:104370000233019399E41C000726FFF704FB330086
:104380004646984607230393023301938DE408269B
:10439000FFF7F9FA3300019E0193072304930233D8
:1043A0009846FFF75FFA039E0836FFF7ECFAC0461F
:1043B00011DF704710DF704700B585B00293079B8F
:1043C0000191039301A9069BFFF7F2FF05B000BD21
:1043D00012DF70470BDF704713DF704715DF704740
:1043E00017DF704718DF70471C3B0010283E001095
:1043F000283E0010283E0010283E0010283E0010E5
:10440000283E0010283E0010283E0010283E0010D4
:10441000283E0010283E0010283E0010283E0010C4
:10442000283E0010283E0010283E0010283E0010B4
:10443000283E0010283E0010283E0010283E0010A4
:10444000283E0010283E0010283E0010283E001094
:10445000283E0010283E0010283E0010283E001084
:10446000283E0010283E0010283E0010283E001074
:10447000283E0010283E0010283E0010283E001064
:10448000283E0010283E0010283E0010283E001054
:10449000283E0010283E0010283E0010283E001044
:1044A000283E0010283E0010283E0010283E001034
:1044B000283E0010B2390010283E0010283E00109F
:1044C000283E0010283E0010283E0010283E001014
:1044D000283E0010283E0010283E0010283E001004
:1044E0008E39001010370010283E0010283E0010B2
:1044F000283E0010283E001010370010283E001003
:10450000283E0010283E0010283E0010283E0010D3
:10451000283E001004350010283E0010283E0010F0
:10452000C63D0010283E0010703B0010283E0010D1
:10453000283E0010583B00103031323334353637C6
:104540003839616263646566303132333435363709
:104550003839414243444546307800005B556E731C
:104560007570706F72746564205461675D0000003F
:10457000000000000000000000000000000000003B
:10458000F0B5CE46474680B58DB000F00DF9002855
:1045900025D106AB81279846734C08AE7F42802117
:1045A000012009064042FFF715FF0300C20676D43A
:1045B000820645D4420614D4020600D59BE0802032
:1045C000400003420CD02100FFF706FF2568AB1C1A
:1045D00000DAC5E0002D00DBB1E00021A6E0FEE737
:1045E000FEE721004020FFF7F7FE21688B1C00DA70
:1045F000A4E00029F1DB00D0A0E023696068082B6B
:1046000000D0AFE0226A0C2A00D0ABE04246FFF7B0
:10461000E5FE2369984200D0A4E0069A079B009625
:10462000A06800F02BF9051E05D1236A3200002195
:104630006068FFF7D5FE29006068FFF7D3FEAEE79C
:1046400021002020FFF7C8FE21688B1C00DA88E0DB
:104650000029C2DB00D084E023696068082B69D19F
:104660006269042A66D13200FFF7B8FE23699842D6
:1046700060D1636905AA01216068FFF7AFFE636935
:10468000984257D143460293236A0193059B0093B6
:10469000A068089A099B00F0C5F8010046E02100D7
:1046A0001020FFF799FE21688B1C46DB002994DB64
:1046B00043D12369A5686068082B3BD1A269042A0D
:1046C00038D13200FFF78AFE2369984232D1A369BC
:1046D000424602216068FFF781FEA369984229D112
:1046E000069B2800019363690093089A099B00F0D8
:1046F00069F801001AE021008020FFF76DFE2168B3
:104700008B1C19DB002900DA67E715D12369606883
:10471000082B0FD13200FFF761FE2369984209D1BF
:10472000089A099BA06800F0CDF801006068FFF7C7
:1047300059FE34E73900F9E7FEE7FEE7FEE7002D12
:104740000ED1236A9946042BF4D100F0E1F8290038
:1047500008904B4632006068FFF742FE2900E5E70B
:10476000FEE7FEE73D0066E7009C0008074B10B53A
:1047700002000C0058680B000121FFF72FFE201AE1
:10478000441EA04180234042984310BD009C000875
:1047900010B50B000349020048680021FFF720FE16
:1047A00010BDC046009C000810B500F0B3F800280A
:1047B00000D110BD00F0E8F90028FAD100F0AAF805
:1047C000F7E7C04630B51D00130083B014002B433B
:1047D0001FD00723079A9A431ED10123104A5B4238
:1047E00012196B41002B09D0069B02000093200098
:1047F000079B290000F0CEF803B030BDFF2AF3D8A4
:10480000079B22000193069B00932B0029F054FC88
:10481000F2E787204042EFE786204042ECE7C046BF
:1048200000FFFFFF30B51D00130085B014002B43BF
:104830001FD00123104A5B4212196B41002B0BD091
:104840000A9B02000193099B200000932900089B0A
:1048500000F06EF805B030BDFF2AF1D80A9B2200A7
:104860000293099B0193089B00932B0029F028FCDD
:10487000F0E787204042EDE700FFFFFF30B51D0065
:10488000130083B014002B4317D001230C4A5B4262
:1048900012196B41002B07D00200069B2000290053
:1048A00000F00CF903B030BDFF2AF5D8069B2200BA
:1048B00000932B0029F032FCF4E787204042F1E717
:1048C00000FFFFFF70B51D00130014002B4316D02E
:1048D00001230E4A5B4212196B41002B08D00200E3
:1048E0002900200000F012F9030095330AD070BDB2
:1048F000FF2AF4D822002B0029F02EFCF7E78720AE
:104900004042F4E784204042F1E7C04600FFFFFF49
:104910000020704710B5044C200000F013FA034B40
:10492000283C5C6010BDC046609C0008309C0008BC
:10493000F8B5154D1E002B0000F07EFB041E01D0C3
:104940002000F8BD114F2868390000F001FD041E59
:1049500004D1FD69B54208D2872464428022002137
:1049600012013800FBF7EBFEEAE7069BAD1B9D4208
:1049700007D8074829003018FFF70AFF079B1D607A
:10498000ECE71D00F5E7C046309C0008389C0008A5
:10499000609C0008F0B557464E46DE4645469A46AE
:1049A000FB23E0B583B091460C9A06000F00DB00B4
:1049B0009A4269D83E4B4A46984600F03DFB041E99
:1049C00011D003003B4D8C334CD0802200211201CA
:1049D0002800FBF7B4FE200003B03CBC904699468B
:1049E000A246AB46F0BD4346324D1868290000F0A0
:1049F000AFFC041EE9D16B6ADB0742D453466B62FD
:104A00000C9B2B6243461B68019301239B462A4B58
:104A10000C9918009A46FFF7A9FE041ED5D1282349
:104A20005B429C46E24453460C9A41465846DA6142
:104A300000F050FA041EC8D143465146186800F0F1
:104A4000C7FC041EC1D143464A463000390000F07D
:104A500077FA041E25D1019B002B18D100F044FBEE
:104A60000400B2E78022002112012800FBF767FE54
:104A70000C9B2B6253466B6202239B4600230193DF
:104A8000C5E785246442A0E787246442A3E700F0D9
:104A90002BFB041E99D101980021FDF705F90400B4
:104AA00093E7434600211868FDF7FEF88DE7C046FE
:104AB000309C0008389C0008609C0008F8B5114D37
:104AC0001F002B0000F0B8FA041E01D02000F8BD32
:104AD0000D4E2868310000F03BFC041E06D08022F9
:104AE000002112013000FBF72AFEEFE78022F36974
:104AF00012017B60736A0021BB603000FBF71FFE70
:104B0000E4E7C046309C0008389C0008F8B54746EA
:104B1000CE461B4D80B52B0006000F00904600F0DE
:104B20008BFA041E04D020000CBC90469946F8BDB8
:104B3000144B28681900994600F00AFC041E05D1A0
:104B40004B465B6ADB0708D585246442802200213E
:104B500012014846FBF7F3FDE5E742463000390015
:104B600000F08EFA041EF1D12D6800F0BDFA041E8B
:104B7000ECD128000021FDF797F80400E6E7C046D5
:104B8000309C0008389C000810B500F0C5F810BD36
:104B9000F0B583001A4C5E58A544CA686B460C00F9
:104BA0003100184F1C31DA5105003A006846FBF716
:104BB000AAFDF5226946D200300000F0A5FB0028CE
:104BC00005D10223641923720F4B9D44F0BD236964
:104BD000002B03D1641901332372F5E76A46D351E0
:104BE000F5226946D200300000F08EFB431E98414A
:104BF000012340429843033064192072E4E7C04621
:104C000054F8FFFFA4070000AC070000F0B5CE4643
:104C10004746002380B53B4C0020A544039300F099
:104C200037FC041E06D02000374B9D440CBC904638
:104C30009946F0BD03A9002000F01EFC041EF2D12D
:104C400000F060FA041EEED1304D039C280000F005
:104C5000B7FA290004AE2E4A1C313000B450FBF7DD
:104C600052FDF5223100D200280000F029FB041E7D
:104C700041D100F08DFA041ED5D1F827254BFF0055
:104C80009946EB5C3A00581C00949846C1172B00DB
:104C9000FCF780FF041EC6D14A46EB5D3100AB54E1
:104CA000434604900120EB55039D00F0E5FB0028EE
:104CB00024D1049B9D4209D9012000F0E9FB041E88
:104CC000B1D1049B013304939D42F5D831000220F9
:104CD00000F0D2FB002811D1049B9D4209D902208B
:104CE00000F0D6FB041E9ED1049B013304939D4229
:104CF000F5D8002497E700F04BFA94E78424644247
:104D000091E7C04644F8FFFFBC07000038A4000844
:104D1000A4070000C107000010B500F0A3FB0028A5
:104D20000DD1F922064CD20000212000FBF707FD2F
:104D30000123F8222377D200A354FFF767FF10BDA9
:104D400038A400080023F0B589B003AC2372637265
:104D5000E3602361F8235E4E02AF6060DB000197E1
:104D600000960022012000210396FCF73FFF002857
:104D700001D0012323720197636800220093F82376
:104D80000220DB000021FCF731FF002801D00123C5
:104D9000637200F0B7F9051E02D0280009B0F0BD1B
:104DA00000F060FB051E0BD106A9002000F064FB9B
:104DB000051E05D13900012000F05EFB051E02D062
:104DC00000F0E6F9E9E707A9022000F055FB051E0F
:104DD000F6D12369029A934200D02061237A012BF5
:104DE00003D021000020FFF7D3FE637A012B03D00C
:104DF00021000120FFF7CCFE00F0CAF9051ECCD13E
:104E0000039B1B7F012B01D00123237261680B7F61
:104E1000012B01D00123637202232289FF339A42BE
:104E200052D0237A012B4CD0637A012B01D0022B74
:104E30003DD0F823802202200021DB005200F252F4
:104E4000FCF732FF051E02D003008C33A5D10023EE
:104E500039000120E468029300F00EFB002833D1F2
:104E6000029B9C420AD9012000F012FB051E00D0D3
:104E700093E7029B013302939C42F4D8390002204D
:104E800000F0FAFA00281FD1029B9C420AD90220A6
:104E900000F0FEFA051E00D07FE7029B013302936B
:104EA0009C42F4D8300000F081F9002575E7F82223
:104EB0000123D200B3523000FBF725FC0120002172
:104EC000BEE7F822D200F5E784256D4265E7C046CB
:104ED00038A4000870B50D0000282CD00024002153
:104EE000164B1A685E6832430CD14A1C01383D2AC1
:104EF0000ED0203300280DD00C005E6811001A6817
:104F00003243F2D001313D2901D02033E9E72100BD
:104F100000280DD1CC1C20000021FCF7C5FE002884
:104F200002D100202C6070BD03008C33FBD1F8E768
:104F30008E204042F7E787204042F4E768A400084B
:104F4000F0B5454657464E46DE46E0B5984689B030
:104F500005000F001600364B002403E00134203317
:104F60003D2C49D01A68AA42F8D15A68BA42F5D104
:104F70009A689642F2D12F4B0134994664014C4411
:104F8000202221006846FBF7BEFB236920229B46B6
:104F90006369002120009A46FBF7D1FB43461A685B
:104FA000D31E5B014B441D639E635F634346951EA6
:104FB0006D014D44596810222800FBF7A4FBFFF750
:104FC00025FE061E10D05B465246134307D05B46B3
:104FD00005926946202220000493FBF794FB2022CF
:104FE00000212800FBF7ABFB300009B03CBC904629
:104FF0009946A246AB46F0BD43461A680D49D31EFA
:105000005B01CB181D639E635F634346951E6D0174
:105010006D18102259682800FBF775FBFFF7F6FDA5
:10502000061EE1D0202200212800FBF788FBDBE7E9
:1050300068A4000838A4000870B50F4C002503E0F0
:10504000013520343D2D14D026688642F8D166689B
:105050008E42F5D1A668B242F2D1EA1C691C074D16
:1050600049011A60586849191022FBF74CFB0020CF
:1050700070BD8C204042FBE768A4000838A40008FB
:1050800030B5174B89B0002403E0013420333D2CA8
:1050900023D01D688542F8D15D688D42F5D19D68A9
:1050A000AA42F2D10F4B013464011C1920222100C5
:1050B0006846FBF728FB202200212000FBF73FFB7E
:1050C000FFF7A4FD051E02D1280009B030BD202243
:1050D00069462000FBF717FBF6E78C256D42F3E7E6
:1050E00068A4000838A4000810B5044A044BD05C3A
:1050F0000130C117FCF7D8FD10BDC04638A4000828
:10510000C107000030B58BB00021202202A8FBF7B8
:1051100016FB00230093C0239B000493164B01ACA5
:105120000593164B16490193802368462383FDF7A8
:10513000F7FE002801D00BB030BD0C23114A1249F4
:105140006846FDF745FF00280FD1104D69462A003B
:105150002000FDF771FF002807D16846FDF7B8FD74
:105160000028E8D02888FCF74DFE6846FDF7B0FD22
:1051700084204042DFE7C0460210400601000040A4
:10518000000F00B0A4540010010200000CAC000895
:10519000054B10B51888FCF735FE002800D110BD6E
:1051A00084204042FBE7C0460CAC0008010010B56B
:1051B00010310C220148FBF7A6FA10BD00AC000824
:1051C000F0B583B06C460E4923000A0060CA60C384
:1051D0000122009E019F002392197B4100920193BE
:1051E0001A4353425A410B008D681030AD1844CC1D
:1051F00044C38D600C22FBF786FA03B0F0BDC046B5
:1052000000AC0008F0B51500020089B0109F060040
:105210001148119C008805970F9F029304970E9FD9
:10522000019500911032069403970C230B49FDF76A
:1052300087FA051E0CD10F9B21689C46103921600E
:10524000102261443000FBF75EFA280009B0F0BD7F
:1052500084256D42F9E7C0460CAC000802104006F8
:10526000F0B5C6460400904600B588B00E9D0F000C
:105270005819102221001E00FBF745FA0E4B2200A0
:105280001888119B10350693109B103205930F9BC5
:105290000395049343460296019300970C23074914
:1052A000FDF7A2FA002803D108B004BC9046F0BD77
:1052B00095204042F8E7C0460CAC000802104006BA
:1052C000030030B514008BB002000D4809AD008812
:1052D0000695049310250023009103930293103246
:1052E000059501940C330749FDF72AFA002804D1EB
:1052F000099B102B01D10BB030BD84204042FAE74E
:105300000CAC00080210400630B503008BB015004D
:1053100002000D4809AC008806940024059404940A
:105320001034029300911032039401950C23074925
:10533000FDF75AFA002804D1099B002B01D10BB0CC
:1053400030BD95204042FAE70CAC00080210400640
:10535000F0B589B005AB01930B00103300938023A7
:105360000D001B01002200210400FCF73FFC002877
:1053700001D009B0F0BD059E0694FFF7C3FE0028DA
:10538000F7D134002F00104E0C3C1C37220039009E
:105390003000FBF7B8F907AB03930C4B019702936E
:1053A00000943300042206A92800FFF759FF0028C3
:1053B00005D1079B9C4202D1FFF7EAFED9E7FFF730
:1053C000E7FE84204042D4E710AC0008E407000068
:1053D000F0B5CE46474680B587B006000C00CD69D3
:1053E0000490FFF78FFE002804D007B00CBC904655
:1053F0009946F0BD1C232F0098462000FFF7E0FEE1
:1054000005AB0393154B0C370293154BA0449946FB
:10541000019300974346042204A92000FFF7F2FEFF
:10542000002815D1059B9F4212D13A0049464046BB
:10543000FBF769F9FFF7ACFE0028D6D123002A005C
:1054400000901033183230000021FCF7A3FBCCE7AA
:10545000FFF79EFE84204042C7E7C046F4070000E5
:1054600010AC000810B529F003F8431E98418323BF
:105470004042984310BDC04610B50A00042129F0EF
:1054800067F8431E984183234042984310BDC046AD
:1054900010B529F0C5F8431E984183234042984334
:1054A00010BDC04673746F726167655F6B6579008C
:1054B00000000000000000000000000000000000EC
:1054C000F0B5CE46474680B58DB000F0E9F800282B
:1054D00022D106AB81269846644C08AD76428021E5
:1054E000012009064042FEF775FFC30616D4830665
:1054F0006FD4430642D403060FD521008020FEF767
:105500006BFF0028EBD121688B1C00DA94E00029A6
:1055100000DB95E000218BE0FEE7FEE72100102094
:10552000FEF75AFF0028DAD121688B1C00DA9CE0D4
:105530000029EFDB00D098E023696068082B00D0D9
:105540007BE0A769042F78D1626991462A00FEF7B3
:1055500045FF082871D13B00424602216068FEF7F2
:105560003DFF042869D1069B01934B460093A06838
:10557000089A099B00F0C6F8010059E0210040207C
:10558000FEF72AFF0028AAD121688B1C6CDB0029BA
:10559000C0DB69D123696068082B63D1226A0C2AB9
:1055A00060D14246FEF71AFF08285BD1069A079B96
:1055B0000095A06800F094F9071E05D101000C23A6
:1055C0002A006068FEF70CFF39006068FEF70AFFEA
:1055D00085E721002020FEF7FFFE002800D07EE7AF
:1055E00021688B1C2BDB002994DB28D123696068A0
:1055F000082B22D16769042F1FD1226A91462A0005
:10560000FEF7ECFE082818D13B0005AA01216068CE
:10561000FEF7E4FE042810D1434602934B46019363
:10562000059B0093A068089A099B00F0F5F801001B
:105630006068FEF7D7FE52E7FEE73100F8E7FEE7C5
:105640000029F9D123696068082BF6D12A00FEF7FA
:10565000C5FE0828F1D1089A099BA06800F06EF9F0
:105660000100E5E73700AFE7FEE7FEE760C20008AC
:1056700010B50B000349020048680121FEF7AEFE99
:1056800010BDC04660C2000810B50B0003490200FF
:1056900048680021FEF7A4FE10BDC04660C20008A5
:1056A00010B5002000F07EF9144C0100200000F03D
:1056B000FDF900280BD0200000F0FEF9002800D0F2
:1056C00010BD00F06FF90100200000F0EFF901209B
:1056D00000F068F90A4C0100200000F0E7F900280A
:1056E000EED0200000F0E8F90028E9D1013000F008
:1056F00059F90100200000F0D9F9E1E790C600084F
:10570000A4C60008F0B5DE4657464E464546110091
:10571000E0B5194385B0002900D16DE007210F9C49
:105720008C4366D10393374B0292984602AA01C379
:1057300012CA12C380235B00984257D0324B99465D
:10574000324C41462200484600F02AFA071E42D158
:10575000A368DB0753D44146484600F0B1FA071E60
:105760003CD180230E9EDB009E4200D91E00284BB8
:1057700031009A461800FFF77BFF534601930F9BB9
:105780000E9A009341463300484600F099F9071EEF
:1057900024D10E9B9C1B03D120E07619641B1DD0E5
:1057A00080232500DB009C4200D91D0029005046C3
:1057B000FFF75EFF53462A000093414633004846F8
:1057C00000F014FA83460028E7D04146484600F02E
:1057D00077FA5F4602E003008C33C2D0380005B090
:1057E0003CBC90469946A246AB46F0BD094B994653
:1057F000A6E786277F42F1E787277F42EEE78527E6
:105800007F42EBE7B8C6000890C60008C4C600088F
:1058100090C20008A4C60008F0B54E46DE465746C2
:1058200045461100E0B585B00E9E19434AD003935A
:10583000264B0292994602AA01C312CA12C38023C0
:105840005B0098423BD0224B9A46224C49462200AC
:10585000504600F0A5F9071E27D12468B44231D381
:105860000F9BA41B9C4228D8109B1C601A4B984687
:105870008023DB009B4606E029004046FFF704FF3B
:105880007619641B11D025005C4501D98025ED00F7
:1058900043462A00009349463300504600F096FAEA
:1058A000071EE9D00023109A1360380005B03CBCF5
:1058B00090469946A246AB46F0BD1C00D4E7074B84
:1058C0009A46C2E787277F42EFE7C046B8C600087E
:1058D00090C60008C4C6000890C20008A4C600080C
:1058E000110070B582B0069C19431BD00F4901937B
:1058F0000B0000926A4601C360CA60C380235B004C
:1059000098420DD00A480B4D2A0000F049F90028B2
:1059100004D12B6823606360AB68A36002B070BDE4
:105920000548F0E787204042F8E7C046B8C60008BF
:1059300090C60008C4C60008A4C60008110070B5CF
:10594000194382B0002922D0124C01932300009207
:105950006A4601C322CA22C380235B00984211D049
:105960000D4E0E4D21002A00300000F019F90028DC
:1059700006D1AB68DB0707D42100300000F0A0F9A6
:1059800002B070BD064EECE785204042F8E7872064
:105990004042F5E7B8C6000890C60008C4C6000833
:1059A000A4C6000810B5044B8000C458200023682A
:1059B0009847200010BDC046706B0010F0B54E46F1
:1059C0004546DE465746E0B5C3B04D9D06008B46C2
:1059D00090469946002D29D080235B009A4610E01E
:1059E0000094434602AA59463000F768B847002899
:1059F00015D14C9BA0449C46A44463462D1B4C935C
:105A000014D02C00554501D98024640000944C9B8F
:105A100002AA49463000B768B8470028E0D043B032
:105A20003CBC90469946A246AB46F0BD0020F6E746
:105A300010B5040082B01C3001A927F0C9FB618CAD
:105A40000198FDF751FB238DA084002B0AD0638DB4
:105A5000002B02D127F0FEFB6085200000F0EAF960
:105A600002B010BD27F0DEFB2085F0E710B5040082
:105A700082B01C3001A927F005FC618C0198FDF76C
:105A800033FB238DA084002B0BD0638D002B03D11F
:105A900027F03AFC03306085200000F0CBF902B01B
:105AA00010BD27F019FC28302085EEE710B5016005
:105AB00000F05AFB10BDC04610B500F0DFFD10BD70
:105AC000F0B54746CE4680B59946036891B01B8D28
:105AD00004008846170093425FD304AA00F0C8FA76
:105AE00000285AD004AB05AE08AD0093029601958C
:105AF000189B3A004146200000F0C4FC002844D125
:105B00004B46002B1FD04A460021E86800F0A8FF52
:105B100000283FD1199B2A0001934B463100009386
:105B20002000002300F020FA002833D14B462968DA
:105B300020003768AB6000F095FA2A6830603900C1
:105B4000200000F0DDFE32000899200000F0DCFEAD
:105B500000281FD12A000499200000F069FF0028C6
:105B600018D10499200000F045FA002812D12B68C2
:105B7000002B02D14B46002B04D1200000F0B0FBDB
:105B8000002807D1200000F07BFB11B00CBC904630
:105B90009946F0BD84204042F7E787204042F4E771
:105BA00070B58CB0150003AA04000E0000F060FA76
:105BB000002817D1200004AA039900F0D9FB041E85
:105BC0000DD10C2209A93000FAF78EFD002809D169
:105BD000079B6B60069B01932B60089BAB602000CA
:105BE0000CB070BD8C246442F9E7C04670B590B02B
:105BF000160004AA04001D0000F03AFA00285BD148
:105C000008AA0499200000F0B3FB002854D105AA8B
:105C10000899200000F0FCFB00284AD10A9B03935E
:105C20009D4246D80B9B320029001800039300F0D8
:105C300017FF00283DD1149B0096019308AA2B0062
:105C400005A9200000F090F9002832D10A9BAD1977
:105C500003939D4226D808992000059D00F002FA82
:105C6000089A05902900200000F04AFE05AA08992C
:105C7000200000F049FE00281BD108AA049920004A
:105C800000F0D6FE002814D10499200000F0B2F9EB
:105C900000280ED1089B002B06D1200000F0F0FA5E
:105CA00010B070BD0A95D6E7200000F019FB00285F
:105CB000F3D084204042F3E78C204042F0E7C04616
:105CC000F0B54646D6464F46C0B503688EB005AA25
:105CD00005005E8C00F0CCF9002800D070E006AA28
:105CE0000599280000F044FB002805D00EB01CBC2C
:105CF00090469946A246F0BD0BA800F0BDFE0028D4
:105D00005ED1079B20229846099B002106A8069F8A
:105D10009946FAF714FD06AA0599280000F088FEB6
:105D20000028E3D12B685B8D002B30D000220024AB
:105D300092460BE006AA2100280000F079FE002818
:105D4000D4D12B685B8D0134A34222D9059AA2429B
:105D5000F9D006AA2100280000F00AFB0028C5D1CE
:105D6000069B0393BB42E5D10BA800F085FE0028FB
:105D7000E0D1079B4345DDD99E4200D91E004A462B
:105D80009B1A0793099B9C460393E244D2E70023A6
:105D90009A465346019343464A46009339003300DE
:105DA000280000F06BF80028A0D1002F04D02800B4
:105DB00000F096FA002806D1280000F061FA95E775
:105DC0008C20404292E7842040428FE7F0B58FB0AC
:105DD000170005AA04000D001E0000F049F9002874
:105DE00025D106AA0599200000F0C2FA00281BD18F
:105DF0000C220BA92800FAF777FC002817D1089B82
:105E00003A0031001800039300F02AFE002801D068
:105E10000FB0F0BD149B3200009306A93B00200098
:105E200000F086F80028F3D084204042F0E78C2070
:105E30004042EDE710B5838C012B12D9032B10D013
:105E4000418D448C4901022B0DD0008D023B5A003C
:105E5000D3189B0008315B18A34203DCA0420BD986
:105E6000FEE7FEE7FEE70B00008D1433E31A9842CD
:105E700001DC0123EBE7FEE710BDC046F0B5C646E6
:105E800000B588B0170005AA05000E00984600F07E
:105E9000BFFA041E04D0200008B004BC9046F0BD38
:105EA000079B31009C46280067440393079700F046
:105EB000D9F80F9B0700002B23D1069A0E9B05995A
:105EC0009A4212D33200280000F01AFD05AA3100D0
:105ED0002800059700F018FD041E23D1002EDAD00B
