:020000040000FA
:1000000028310220A9020000E90200008D02000050
:10001000ED020000EF020000F1020000000000000D
:10002000000000000000000000000000CD01000002
:10003000F50200000000000029020000F33E00006D
:10004000FB020000FB020000FB020000FB020000BC
:10005000FB020000FB020000FB020000FB020000AC
:10006000FB020000FB020000FB020000FB0200009C
:10007000FB020000FB020000FB020000FB0200008C
:10008000FB020000FB020000FB020000FB0200007C
:10009000FB020000FB020000FB020000FB0200006C
:1000A000FB020000FB020000FB020000FB0200005C
:1000B000FB020000FB020000FB020000FB0200004C
:1000C000FB020000FB020000FB020000FB0200003C
:1000D000FB0200006B710000FB020000FB0200004D
:1000E000FB020000FB020000FB020000FB0200001C
:1000F000FB020000FB020000FB020000FB0200000C
:10010000FB020000FB020000FB020000FB020000FB
:10011000FB020000FB020000FB020000FB020000EB
:10012000FB020000FB020000FB020000FB020000DB
:10013000FB020000FB020000FB020000FB020000CB
:10014000FB020000FB020000FB020000FB020000BB
:10015000FB020000FB020000FB020000550500004E
:10016000FB020000FB020000FB020000FB0200009B
:10017000FB020000FB020000FB020000FB0200008B
:10018000FB020000FB020000FB020000FB0200007B
:10019000FB020000FB020000FB020000FB0200006B
:1001A000FB020000FB020000FB020000FB0200005B
:1001B000FB020000FB020000DFF80CD029F0C4FFB6
:1001C00000480047B7070000283102202C4B19686F
:1001D0000868B0E8F04F80F30988BFF36F8F4FF0E5
:1001E000000080F311887047000000000848006894
:1001F000006880F308884FF0000080F3148862B62E
:1002000061B6BFF34F8FBFF36F8F00DF00BF00BF3A
:1002100008ED00E0DFF80C00016841F470010160B6
:10022000704700BF88ED00E0EFF30980BFF36F8FE8
:10023000134B1A681EF0100F08BF20ED108A20E93A
:10024000F04F106009B44FF0500080F31188BFF3F5
:100250004F8FBFF36F8F02F03AFA4FF0000080F338
:10026000118809BC19680868B0E8F04F1EF0100F3B
:1002700008BFB0EC108A80F30988BFF36F8F704716
:100280004C000020EFF30580704700000420714609
:10029000084202D0EFF3098001E0EFF308807146D5
:1002A000004A10474742000014484FF059010160CE
:1002B0004FF0160101604FF088010160104841685D
:1002C00041F4804141600F48416841F002014160C2
:1002D000416841F0040141600B48804707484FF0F6
:1002E0000001016009480047FEE7FEE7FEE7FEE780
:1002F000FEE7FEE7FEE7FEE7FEE7FEE7000100405F
:1003000000020040007000405B030000B9010000E3
:1003100070B504F0A2F93E4908603E48006800F05C
:100320000705022D02D10846046802E03A4850F859
:10033000254038481030006800F00F00461CB4FB20
:10034000F6F0364908600846006835490844490017
:10035000B0FBF1F03349086070BD10B53248006859
:1003600040F47000304908603048C06C20F00F0045
:1003700040F008002D49C8640E2004F040F80E201B
:1003800006F049F82A48406840F0020028494860D1
:100390000846406840F00400486000BF24484068B8
:1003A000C0F380000028F9D01A488830006840F473
:1003B00080204FF08041C1F898020846D0F808022A
:1003C00040F00200C1F808021A48D0F8040100F019
:1003D000F7301849C1F804010846D0F8080100F0C8
:1003E000F730C1F808018804D0F8080220F00200B4
:1003F00008490839086000BF4FF04020D0F840019C
:1004000020F0F0004FF04021C1F8400100BF10BDC6
:1004100008000020100200400C0000200000002016
:1004200020A107000400002088ED00E000C000408B
:1004300000700040001004402DE9F04140F20367D5
:1004400040F29F5800BF00F015F90446BC42FAD8AC
:100450004445F8D3904800684609A64201D30125D7
:1004600000E000258D488E49096850F821008A492E
:100470000968081A8849086008460068204408602E
:1004800086488749096840F8214085490968481C21
:10049000C11700EBD1614911A0EB4111804A1160F5
:1004A0002846BDE8F08170B500251F2404E0FFF761
:1004B000C3FFA0400543641E002CF8DA284670BD37
:1004C00010B57848007800B110BD7748006840F05A
:1004D00080504FF08041C1F808020846D0F8200251
:1004E00020F47F00C1F820020846D0F8200240F432
:1004F000A0206D4918310860C1206C49086500BF13
:100500006B48006800F001000028F9D04FF0E0418E
:1005100067485038016000205F49086000240DE002
:1005200000F0A8F85D4941F82400084650F824007E
:1005300059490968084458490860641C202CEFDBBD
:10054000002057490860012056490870FFF7ABFFAB
:1005500000BFB9E75748406800F4803030B101204F
:10056000554908600004534948600AE05148406812
:1005700000F0030028B101205049086003204D49D4
:100580004860704770B50446254600BF00BF00BFF5
:1005900059204B49086016208905C1F800018820C0
:1005A000C1F80001C006D0F800010028F0D000BF5B
:1005B0000C2003F024FF00BF00204149086000BF69
:1005C000472000F01F02012191404209920002F1F0
:1005D000E022C2F8001100BF3648006840F48030C5
:1005E00034490860FFF75FFF0646334601220321C6
:1005F000304804F08FFA2F4804F094FA00BF2E48D8
:1006000000680028FBD029462A4804F090FA2948BF
:10061000006820F480302749086070BD2DE9F04162
:1006200088B080460D4614461F460026FFF748FF57
:1006300005E02846FFF7A6FF20352036203C202C79
:10064000F7D244B16846FFF79DFF22466946284627
:1006500029F08CF826443E60002008B0BDE8F08107
:1006600000B589B0FFF72CFF01A8FFF78BFF0198B9
:1006700009B000BD4FF480300C49486500BF0C48FC
:100680001C38006800F001000028F8D00748006C12
:10069000C0F30B007047000034000020D802002097
:1006A000380000203C0000200802004000300440D8
:1006B00010310440000008502C00002030000020C1
:1006C0000001004010B500BF00BF00BF592089499C
:1006D000086016208905C1F800018820C1F80001D2
:1006E000C006D0F800010028F0D000BF82480068A2
:1006F00020F0F0004FF04021C1F84001012004F04B
:1007000013F9012003F05AFF7C4804F0B3F81120DC
:100710007B4908607B4803F072FE7B4803F06FFE64
:1007200000221146774803F034FE4FF4FC0200210A
:10073000754803F02EFEFFF7EBFD4FF08040C06BD5
:1007400020F47F004FF08041C8630846C06B40F43E
:10075000CC00C8630846006B40F04C500863084664
:10076000006C40F04C5008640846406C40F00300B8
:1007700048640846406D654908434FF0804148652C
:100780004FF0A8704FF04021C1F8280100BF0020B1
:100790005849086000BF4FF4E1315D4805F0B8FEEC
:1007A00010BD10B50F2200214FF4A06027F0B6FA5B
:1007B000FFF788FF10BD10B5FFF7F3FF55A027F036
:1007C000D4FA02F02FF9002010BD10B586B0002039
:1007D000019006F041F904461CB953A027F0C5FA70
:1007E00008E05DA027F0C1FA4FF47A7001F04BFEEB
:1007F00000BFFEE762A0029017208DF80C0066A0F3
:1008000004901B208DF8140003208DF815000020A3
:100810008DF8160002A806F054F90446002C13D1F6
:1008200064A027F0A2FA01A806F03CFA04465CB9DD
:100830009DF8070000909DF806309DF805209DF872
:1008400004106CA027F091FA06B010BD1CB50EF094
:1008500021FC01280BD1FFF7B8FF002000900346D0
:100860004FF400626CA101906E4801F092FB1CBD38
:100870002DE9FC4104460D464FF47A7600200190A4
:100880002746009500BF2A46214667A027F06DFA4B
:1008900000BF502080F31188BFF34F8FBFF36F8FDD
:1008A00000BF03E04FF47A7001F0EDFD01980028DD
:1008B000F8D0002080F3118800BFBDE8FC8170B53E
:1008C00001244FF47A7502F004F95D490860084686
:1008D00000685C490968401AB0F57A7F03D9584826
:1008E00000685849086070BD57480068401C564968
:1008F00008607047000100404041004000B0710BAB
:1009000034020040103D805705FE0B0033330300D6
:10091000000007404672656552544F535F49504985
:100920006E69740A0000000057692D4669206D6FDA
:1009300064756C6520696E697469616C697A656457
:100940002E20436F6E6E656374696E6720746F202E
:1009500041502E2E2E0D0A0057692D4669206D6FCD
:1009600064756C65206661696C656420746F2069CC
:100970006E697469616C697A652E0D0A0000000069
:1009800050617374652057692D466920535349445B
:1009900020686572652E0000506173746520576988
:1009A0002D46692070617373776F72642068657279
:1009B000652E000057692D466920436F6E6E656392
:1009C00074656420746F2041502E204372656174F9
:1009D000696E67207461736B732077686963682040
:1009E000757365206E6574776F726B2E2E2E0D0AEF
:1009F00000000000495020416464726573732061F7
:100A0000637175697265642025642E25642E2564E2
:100A10002E25640D0A0000005465737452756E6EC5
:100A200065720000916900007641737365727443CA
:100A3000616C6C65642025732C20256C640A0000B1
:100A400040000020440000204800002038B5054642
:100A50001DB90121F84829F0D7F82020009000980E
:100A6000202801D1012000E0002018B90121F2481E
:100A700029F0CAF82C4634B100202060201D00F077
:100A8000F0F901202077204638BD10B5202003F072
:100A9000E6FA044634B100202060201D00F0E1F9A0
:100AA00000202077204610BD2DE9FE4F07468846DE
:100AB000002001903C4600901FB90121DE4829F03A
:100AC000A3F808F07F4008B9012000E0002018B921
:100AD0000121D94829F098F804F1040909F1080026
:100AE000029001F07BFCD9F80C60206840EA080015
:100AF000206026E0D6F804B035680020009005F0AC
:100B00007F4A25F07F450AF0806028B92068284098
:100B100040B10120009005E020682840A84201D1A2
:100B200001200090009858B10AF0807010B101982F
:100B300028430190206840F00071304602F0A8F987
:100B40005E4602988642D5D120680199884320608C
:100B500001F09DFB2068BDE8FE8F2DE9F84F83462C
:100B6000884614461F465D460020009004F07F40F2
:100B700008B9012000E0002018B90121AE4829F091
:100B800043F80CB1012000E0002018B90121AA4867
:100B900029F03AF802F014FA00B90FB9012000E088
:100BA000002018B90121A44829F02EF801F016FC04
:100BB000D5F8009041465846FFF776FF49EA08000D
:100BC0002040A04206D149EA08062868A0432860D0
:100BD00000270BE03FB144F0A0613A46281D02F027
:100BE000C0F8002602E02E680120009001F04FFBC3
:100BF000824607B3BAF1000F07D14FF080508F49FA
:100C00000860BFF34F8FBFF36F8F02F0F7FA06460D
:100C100006F0007068B903F035F92E6806EA0400A2
:100C2000A04202D12868A043286003F04CF90120BB
:100C3000009026F07F463046BDE8F88F10B5034699
:100C4000002022B903EA010434B1012004E003EAE0
:100C500001048C4200D1012010BD2DE9FF4F83B06B
:100C600081460D461746DDF840804C464FF0000A9D
:100C700000200190B9F1000F03D101216E4828F046
:100C8000C3FF05F07F4008B9012000E0002018B93B
:100C90000121694828F0B8FF0DB1012000E00020D3
:100CA00018B90121644828F0AFFF02F089F910B9A2
:100CB000B8F1000F01D1012000E0002018B9012196
:100CC0005D4828F0A1FF01F089FB206800902946CB
:100CD000069A0098FFF7B2FF0290029838B1009E82
:100CE0004FF00008C7B12068A843206014E0B8F1B5
:100CF000000F03D1009E012001900DE00FB14AF0DA
:100D0000807A069808B14AF0806A45EA0A014246AC
:100D1000201D02F026F8002601F0B9FA8346B8F14A
:100D2000000F23D0BBF1000F07D14FF08050434993
:100D30000860BFF34F8FBFF36F8F02F05FFA064674
:100D400006F0007080B903F09DF826682946304609
:100D5000069AFFF773FF18B117B12068A843206007
:100D60000120019003F0AFF826F07F46304607B02F
:100D7000BDE8F08F2DE9F04105460E462C461DB921
:100D800001212D4828F040FF06F07F4008B90120DE
:100D900000E0002018B90121274828F035FF03F0B2
:100DA00071F827682068B043206003F08CF838465B
:100DB000BDE8F08170B501460B4600BF5025EFF34A
:100DC000118085F31188BFF34F8FBFF36F8F00BF82
:100DD00002461C68104680F3118800BF204670BD93
:100DE00070B505462E46341D01F0F8FA11E004F105
:100DF0000800E168814201D0012000E0002018B91C
:100E000001210D4828F000FF4FF00071E06802F06A
:100E10003FF820680028EAD1307F10B9304603F04F
:100E2000A2F901F034FA70BD70B504460D462946AA
:100E30002046FFF739FE70BD5027022004ED00E088
:100E400070B504460D4629462046FFF793FF70BD56
:100E500001460A4609B9002000E0906970478161A7
:100E6000704700F1080141604FF0FF31816000F1EF
:100E70000801C1600161002101607047002101612A
:100E8000704742684A6093688B60936859609160CC
:100E9000086103685B1C0360704710B502460B686D
:100EA0005C1C0CB9106907E002F1080000E0406822
:100EB000446824689C42FAD944684C604C68A1603C
:100EC000886041600A611468641C146010BD0146AA
:100ED0000A69D1E901309860D1E90103586050688E
:100EE000884201D188685060002008611068401E67
:100EF000106010687047000070B505460E462C461D
:100F00001CB90121FE4828F07FFE02F0BBFFD4E9A6
:100F10000F12206801FB0200A0600020A06320687F
:100F20006060E06B401E226C216800FB0211E160F2
:100F3000FF2084F8440084F845009EB9206908B970
:100F4000012000E00020A8B904F1100001F044FFE6
:100F500080B14FF08050EB490860BFF34F8FBFF373
:100F60006F8F07E004F11000FFF77BFF04F124000E
:100F7000FFF777FF02F0A7FF012070BD2DE9F041D8
:100F800006460D4617469846069C0DB9246000E0BB
:100F90002760E663256401212046FFF7ADFF84F852
:100FA0004C80BDE8F0812DE9F84380460E46174697
:100FB0001D46DDF82090B8F1000F01D0012000E0BF
:100FC000002018B90121CE4828F01EFE0DB10120E5
:100FD00000E0002018B90121C94828F015FE07B12A
:100FE0000EB1012000E0002018B90121C44828F00A
:100FF0000BFE07B90EB9012000E0002018B901214D
:10100000BF4828F001FE502000900098502801D1E0
:10101000012000E0002018B90121B94828F0F4FDB2
:1010200000BF2C464CB1012084F846004B463A469E
:10103000314640460094FFF7A1FF2046BDE8F88303
:101040002DE9F84305460E4690460DB1012000E01B
:10105000002018B90121AA4828F0D6FD0EB90027B2
:1010600001E005FB06F707F1500002F0F8FF044627
:1010700064B1A14609F15009002084F846004346B6
:101080004A46314628460094FFF778FF2046BDE8DF
:10109000F88370B5044602F0F5FE94F9455010E06F
:1010A000606A08B9012000E0002038B904F124008A
:1010B00001F092FE18B101F071FF00E003E0681E3C
:1010C00045B2002DECDC00BFFF2084F8450002F0A3
:1010D000FAFE02F0D7FE94F9445010E0206908B9F6
:1010E000012000E0002048B904F1100001F074FE76
:1010F00008B101F053FF681E45B200E001E0002D89
:10110000ECDC00BFFF2084F8440002F0DCFE70BD80
:1011100070B5054602F0B6FEA86BE96B884201D1B6
:10112000012400E0002402F0CEFE204670BD2DE92F
:10113000F04104460F4615464FF00008A66B206CA0
:1011400048B9206800282CD1A06801F0A2FF804691
:101150000020A06025E07DB93946226C606828F047
:1011600005FB216C606808446060D4E90101884295
:1011700017D32068606014E03946226CE06828F0DC
:10118000F5FA216CE068411AE1602168E068884264
:1011900003D2216CA068411AE160022D01D106B191
:1011A000761E701CA0634046BDE8F0812DE9FF4328
:1011B00083B0064688461D464FF0000934461CB9E8
:1011C00001214F4828F020FDB8F1000F01D1206C1B
:1011D00008B9012000E0002018B90121484828F092
:1011E00013FD022D02D1E06B012801D1012000E0A6
:1011F000002018B90121424828F006FD01F0E0FE68
:1012000008B9059808B9012000E0002018B90121AB
:101210003B4828F0F9FC00BF02F034FEA06BE16B04
:10122000884201D3022D28D12A4641462046FFF7A5
:101230007EFF0746606A08B9012000E0002068B917
:1012400004F1240001F0C8FD88B14FF080502D4911
:101250000860BFF34F8FBFF36F8F08E03FB14FF0CF
:10126000805028490860BFF34F8FBFF36F8F02F0A3
:101270002AFE012007B0BDE8F083059818B902F0F6
:1012800022FE0020F6E7B9F1000F04D101A801F019
:101290004AFE4FF0010902F016FE01F09FF802F03D
:1012A000F1FD94F94400401C10B9002084F844007A
:1012B00094F94500401C10B9002084F8450002F064
:1012C00002FE05A901A801F035FE18BB2046FFF774
:1012D0001FFFC8B104F11000059901F02FFD204651
:1012E000FFF7D7FE00F0D3FF002895D14FF08050D4
:1012F00004490860BFF34F8FBFF36F8F8CE7000086
:101300005027022004ED00E02046FFF7C2FE00F067
:10131000BEFF81E72046FFF7BCFE00F0B8FF0020CB
:10132000A8E710B5044654B10020A0602060002159
:10133000E16000231A4619462046FFF737FF10BD2B
:101340002DE9F04104460126002722460021012014
:10135000FFF776FE05462846FFF7E3FF2846BDE87F
:10136000F0812DE9F84304460D4601274FF00008AF
:101370002B460022114601200094FFF714FE06467A
:101380003046FFF7CEFF3046BDE8F88370B504461F
:10139000264602F077FD306808B9B56800E0002500
:1013A00002F091FD284670BD70B504461CB90121BC
:1013B000FE4828F029FC206808B9A56800E000254F
:1013C000284670BD70B505462C461CB90121F7486A
:1013D00028F01AFC01F0F1FDA16888420CD1E06808
:1013E000401EE060E06828B900231A4619462046EE
:1013F000FFF7DCFE012600E00026304670BD014606
:101400004A6A22B10A6B1268C2F1070000E00020AC
:10141000704770B5054602F035FDA86B08B9012488
:1014200000E0002402F04FFD204670BD2DE9F3419D
:1014300082B005464FF000082C4600261CB9012159
:10144000DA4828F0E1FB206C08B9012000E0002018
:1014500018B90121D54828F0D7FB01F0B1FD08B932
:10146000039808B9012000E0002018B90121CF48F5
:1014700028F0CAFB00BF02F005FDA76BFFB1781E84
:10148000A063206810B901F0C5FEA060206908B90A
:10149000012000E0002060B904F1100001F09CFC84
:1014A00038B14FF08050C2490860BFF34F8FBFF38F
:1014B0006F8F02F008FD012004B0BDE8F0810398B1
:1014C00060B90EB9012000E0002018B90121B74829
:1014D00028F09AFB02F0F7FC0020EDE7B8F1000FCE
:1014E00004D1684601F01FFD4FF0010802F0EBFC4B
:1014F00000F074FF02F0C6FC94F94400401C10B9DF
:10150000002084F8440094F94500401C10B90020E4
:1015100084F8450002F0D7FC03A9684601F00AFDF3
:1015200040BB2046FFF775FFF0B1206838B902F0E4
:10153000A9FCA06801F050FD064602F0C4FC04F1CD
:101540002400039901F0FAFB2046FFF7A2FD00F00A
:101550009EFE00288FD14FF0805095490860BFF360
:101560004F8FBFF36F8F86E72046FFF792FD00F0A5
:101570008EFE80E72046FFF78CFD00F088FE2046B7
:10158000FFF747FF0028EED05EB102F07BFC20465B
:10159000FFF735FF07463946A06801F0CAFD02F0A3
:1015A00092FC002088E72DE9F04106460F463446BC
:1015B0001CB901217D4828F027FB01F0FEFCA16841
:1015C000884204D1E068401CE060012508E039460B
:1015D0002046FFF72BFF054615B1E068401CE06090
:1015E0002846BDE8F081F8B505460E4617460DB110
:1015F000012000E0002018B901216C4828F004FB0C
:10160000AE4201D8012000E0002018B9012167484E
:1016100028F0FAFA02203B460022114600902846A4
:10162000FFF7C1FC044604B1A6632046F8BD70B5BF
:1016300005460E460DB1012000E0002018B9012139
:101640005A4828F0E1FAAE4201D8012000E000201B
:1016500018B90121554828F0D7FA0222002128465E
:10166000FFF7EEFC044604B1A663204670BD2DE9E9
:10167000F05F07468A4690461E463C461CB901214B
:101680004A4828F0C1FABAF1000F01D1206C08B91C
:10169000012000E0002018B90121444828F0B4FAE4
:1016A000022E02D1E06B012801D1012000E00020D0
:1016B00018B901213D4828F0A7FA02F032FC00BF1A
:1016C0005020EFF3118180F31188BFF34F8FBFF3E8
:1016D0006F8F00BF0D46A06BE16B884201D3022ED5
:1016E00023D194F945B0324651462046FFF71FFDFD
:1016F0000BF1010088B9606A08B9012000E0002000
:1017000080B904F1240001F067FB58B1B8F1000F73
:1017100008D00120C8F8000004E00BF1010040B23D
:1017200084F845004FF0010901E04FF0000900BFC7
:1017300085F3118800BF4846BDE8F09F2DE9F047CA
:1017400006460F4634461CB90121184828F05CFAB9
:10175000206C08B9012000E0002018B901211348CD
:1017600028F052FA206808B9A06808B9012000E002
:10177000002018B901210D4828F046FA02F0D1FBEB
:1017800000BF5021EFF3118081F31188BFF34F8F19
:10179000BFF36F8F00BF0546D4F838A0E06B50450B
:1017A00023D994F945900AF1010003E05027022063
:1017B00004ED00E0A06309F1010070B9606A08B9A6
:1017C000012000E0002068B904F1240001F004FBCE
:1017D00040B13FB10120386004E009F1010040B29E
:1017E00084F845004FF0010801E04FF0000800BF09
:1017F00085F3118800BF4046BDE8F08770B5044608
:101800000D46206C70B1216CE0680144E160D4E9C0
:101810000210884201D32168E1602846226CE16809
:1018200027F0A4FF70BD2DE9F74183B005460E46B1
:101830004FF000082C461CB90121FB4828F0E4F9C0
:101840000EB9206C08B9012000E0002018B9012170
:10185000F54828F0D9F901F0B3FB08B9059808B9A3
:10186000012000E0002018B90121EF4828F0CCF950
:1018700000BF02F007FBA76BF7B131462046FFF728
:10188000BDFF781EA063206908B9012000E0002098
:1018900060B904F1100001F09FFA38B14FF08050A8
:1018A000E2490860BFF34F8FBFF36F8F02F00BFB6D
:1018B000012006B0BDE8F081059818B902F003FBDD
:1018C0000020F6E7B8F1000F04D101A801F02BFBCE
:1018D0004FF0010802F0F7FA00F080FD02F0D2FAB2
:1018E00094F94400401C10B9002084F8440094F995
:1018F0004500401C10B9002084F8450002F0E3FACE
:1019000005A901A801F016FBF0B92046FFF781FDFB
:10191000A0B104F12400059901F010FA2046FFF768
:10192000B8FB00F0B4FC0028A3D14FF08050BF49B1
:101930000860BFF34F8FBFF36F8F9AE72046FFF722
:10194000A8FB00F0A4FC94E72046FFF7A2FB00F000
:101950009EFC2046FFF75DFD00288AD00020A8E706
:101960002DE9F74382B005460E464FF000082C469D
:101970001CB90121AC4828F047F90EB9206C08B910
:10198000012000E0002018B90121A74828F03CF907
:1019900001F016FB08B9049808B9012000E0002006
:1019A00018B90121A04828F02FF900BF02F06AFA07
:1019B000D4F83890B9F1000F1ED0E76831462046C0
:1019C000FFF71CFFE760606A08B9012000E0002013
:1019D00060B904F1240001F0FFF938B14FF08050F4
:1019E00092490860BFF34F8FBFF36F8F02F06BFA1D
:1019F000012005B0BDE8F083049818B902F063FA3D
:101A00000020F6E7B8F1000F04D1684601F08BFA28
:101A10004FF0010802F057FA00F0E0FC02F032FA51
:101A200094F94400401C10B9002084F8440094F953
:101A30004500401C10B9002084F8450002F043FA2C
:101A400004A9684601F076FAF0B92046FFF7E1FCF8
:101A5000A0B104F12400049901F070F92046FFF7C9
:101A600018FB00F014FC0028A0D14FF080506F4903
:101A70000860BFF34F8FBFF36F8F97E72046FFF7E4
:101A800008FB00F004FC91E72046FFF702FB00F0A2
:101A9000FEFB2046FFF7BDFC002887D00020A8E70A
:101AA0002DE9F05F06468946174634461CB90121E8
:101AB0005D4828F0A9F8B9F1000F01D1206C08B9F0
:101AC000012000E0002018B90121574828F09CF8B7
:101AD00002F027FA00BF5021EFF3118081F3118843
:101AE000BFF34F8FBFF36F8F00BF0546D4F838A008
:101AF000BAF1000F22D094F944B049462046FFF7CE
:101B00007DFEAAF10100A0630BF1010070B920690C
:101B100008B9012000E0002068B904F1100001F0CC
:101B20005BF940B13FB10120386004E00BF10100E6
:101B300040B284F844004FF0010801E04FF0000883
:101B400000BF85F3118800BF4046BDE8F09F2DE936
:101B5000F0470646884634461CB90121324828F031
:101B600053F8B8F1000F01D1206C08B9012000E052
:101B7000002018B901212C4828F046F8206C08B143
:101B8000012000E0002018B90121274828F03CF886
:101B900002F0C7F900BF5021EFF3118081F31188E3
:101BA000BFF34F8FBFF36F8F00BF0546A06B48B1E7
:101BB000D4F80C9041462046FFF720FEC4F80C9064
:101BC000012700E0002700BF85F3118800BF3846D9
:101BD000BDE8F08770B504461CB90121124828F011
:101BE00013F802F04FF9A56B02F06DF9284670BDAD
:101BF00070B5044625461DB901210B4828F004F8AC
:101C000002F040F9D5E90E10461A02F05CF93046B0
:101C100070BD70B5044625461DB90121024827F064
:101C2000F3FFAE6B304670BD5027022004ED00E09C
:101C3000014600200EE04C4A02EBC00252688A4284
:101C400007D10022484B43F8302003EBC0035A6011
:101C500002E0401C0828EED300BF704770B5044670
:101C600025461DB90121414827F0CEFF2846FFF740
:101C7000DFFF95F8460010B9284602F074FA70BDEF
:101C80000146886C704781647047014691F84C00AA
:101C9000704770B5044626461EB90121334827F027
:101CA000B3FFB06B08B9012500E00025284670BDE0
:101CB00070B5044626461EB901212C4827F0A4FF22
:101CC000B06BF16B884201D1012500E00025284668
:101CD00070BD024600200BE0234B53F8303033B97F
:101CE000214B43F8301003EBC0035A6002E0401C64
:101CF0000828F1D300BF70470246002000210AE007
:101D0000194B03EBC1035B68934203D1164B53F8A5
:101D1000310002E0491C0829F2D300BF70472DE9C9
:101D2000F04105460E4617462C4602F0ABF894F9F2
:101D30004400401C10B9002084F8440094F9450088
:101D4000401C10B9002084F8450002F0BCF8A06BDC
:101D500028B93A46314604F1240001F026F820461D
:101D6000FFF797F9BDE8F0815803002050270220C3
:101D700010B5002407E004EB8401FD4A02EB81006A
:101D8000FFF76FF8641C072CF5D3FA48FFF769F8E2
:101D9000F948FFF766F8F948FFF763F8F848FFF7E6
:101DA00060F8F848FFF75DF8F248F7490860F24834
:101DB000F649086010BD10B5044602F063F8F44817
:101DC0000068401CF2490860F248006840B9F148D8
:101DD00004600846006801280DD1FFF7C9FF0AE03A
:101DE000ED48006838B9EB480068C06AE16A88428B
:101DF00001D8E8480460E9480068401CE7490860E9
:101E000008460068606494F82C1001208840E4497A
:101E100009680843E2490860E16A01EB8101D44A9C
:101E200002EB8100211DFFF72CF802F04CF8DA4894
:101E3000006868B1D7480068C06AE16A884207D282
:101E40004FF08050D7490860BFF34F8FBFF36F8FBB
:101E500010BD2DE9F05F82460E4690469B460A9FD4
:101E60000C9C4FEA8801A522206B27F09FFCA8F16B
:101E70000100216B01EB800929F0070909F0070037
:101E800008B9012000E0002018B90121C64827F058
:101E9000BBFE86B1002507E0715D04F134004155B9
:101EA000705D00B902E06D1C102DF5D300BF00215C
:101EB0004320015502E0002084F83400072F00D3AE
:101EC0000627E762E76400202065201DFEF7D6FFA5
:101ED00004F11800FEF7D2FF2461C7F10700A061EA
:101EE000646200206065A06584F85C005A46514633
:101EF000484601F00AFF20600B9808B10B98046077
:101F0000BDE8F09F2DE9F04F85B007468846914621
:101F10009A46DDE90EB6109C0EB1012000E00020CB
:101F200018B90121A04827F06FFE0CB1012000E094
:101F3000002018B901219C4827F066FE6420039018
:101F40000398642801D1012000E0002018B9012184
:101F5000954827F059FE00BFACB1A6B125462E63C7
:101F6000022085F85D00002004A953464A46CDE9C9
:101F700000B1CDE9025041463846FFF76AFF2846D6
:101F8000FFF719FF01E000200490049805B0BDE8B8
:101F9000F08F2DE9FF4F85B0804689461746DDE971
:101FA00012ABB80002F05BF8064656B1642002F0AE
:101FB00056F804460CB1266304E0304602F0D3F82C
:101FC00000E000248CB1002084F85D00CDE900AB76
:101FD000CDE902403A4649464046089BFFF739FFA3
:101FE0002046FFF7E8FE012501E04FF0FF352846C7
:101FF00009B0BDE8F08F64490968096809B9012191
:1020000000E0002121B14FF0FF31684A116006E085
:102010005D490968C968C868644A416811607047C9
:1020200010B5044694F85D0030B9206B02F09BF8BF
:10203000204602F098F813E094F85D00012803D1DF
:10204000204602F090F80BE094F85D00022801D1E0
:10205000012000E0002018B90121534827F0D4FDE9
:1020600010BD70B5054601F00DFF15B9494800686F
:1020700000E028460446201DFEF729FF78B9E06AF3
:1020800000EB80003A4951F8200040B994F82C1038
:102090000120884042490968814341480160A06AA3
:1020A00018B104F11800FEF712FF3C480068401C0C
:1020B0003A49086037480068844209D1211D3048F8
:1020C000FEF7DFFE3A480068401C3949086009E025
:1020D0002F480068401E2E4908602046FFF7A0FFE9
:1020E000FFF789FF01F0EFFE2B480068B0B12948E7
:1020F0000068844212D12F48006808B9012000E02E
:10210000002018B90121284827F07EFD4FF08050AB
:1021100024490860BFF34F8FBFF36F8F70BD2DE967
:10212000F0414FF000082348006800287ED1224883
:102130000068451C20480560CDB913480068006858
:1021400008B9012000E0002018B90121164827F045
:102150005BFD0D4807680D4800680B4908600B4897
:10216000076016480068401C1449086028E02AE00F
:102170009803002024040020380400204C04002090
:10218000600400207404002050000020540000204F
:10219000600000204C0000206C0000207C0000202B
:1021A0006800002004ED00E050270220800000209D
:1021B00058000020880000206400002078000020E3
:1021C000FFF719FF00BFF948006885423ED300BF02
:1021D000F7480068006808B9012000E0002020B13D
:1021E0004FF0FF30F14908602FE0F1480068C06807
:1021F000C4686668B54202D2EC48066025E0201D3E
:10220000FEF765FEA06A18B104F11800FEF75FFE44
:1022100094F82C1001208840E64909680843E549F4
:102220000860E16A01EB8101E34A00E020E002EB93
:102230008100211DFEF725FEE049E06A0968C96AB0
:102240008842C5D34FF00108C2E700BFDB480068F1
:10225000C06A00EB8000D84951F82000012801D95C
:102260004FF00108D648006808B9FEF73DFB06E0CC
:10227000D3480068401CD2490860FEF735FBD148BE
:10228000006808B14FF001084046BDE8F08170B524
:1022900000240026CC48006818B90121CB4827F05B
:1022A000B3FC01F0EFFDC8480068401EC649086055
:1022B0000846006800284FD1C548006800284BD068
:1022C00024E0C448C068C46804F11800FEF7FFFDAC
:1022D000201DFEF7FCFD94F82C1001208840B54924
:1022E00009680843B3490860E16A01EB8101B24A19
:1022F00002EB8100211DFEF7C4FDB049E06A0968C8
:10230000C96A884202D30120AE490860B14800681A
:1023100008B9012000E000200028D2D00CB1FFF75E
:102320006AFEA748056865B100BFFFF7F8FE10B167
:102330000120A44908606D1E002DF6D10020A0499F
:102340000860A048006838B101263007A24908603B
:10235000BFF34F8FBFF36F8F01F0B5FD304670BDF7
:102360002DE9F04105460E469C48076893480068F1
:10237000001DFEF7ACFD50B99048006890F82C1095
:10238000012088408B49096881438A480160681CA4
:1023900038B936B189480168091D9148FEF771FDC9
:1023A0001AE07C19854800684460BC4207D2834823
:1023B0000168091D8B480068FEF76FFD0CE07F483F
:1023C0000168091D7A480068FEF767FD77480068D4
:1023D000844201D275480460BDE8F0817A48006803
:1023E000401C7949086070472DE9F04704460F46C4
:1023F0004FF000091CB90121744827F005FC0FB10A
:10240000012000E0002018B90121704827F0FCFBF2
:102410006D48006808B9012000E0002018B90121CA
:102420006A4827F0F1FBFFF7D9FF6C48066820687F
:10243000C5192068B04207D92068A8420BD9B54217
:1024400009D94FF0010906E02068A84201D8B54239
:1024500001D94FF001092560B9F1000F03D0A81B85
:102460000021FFF77DFFFFF712FF8046B8F1000F54
:1024700007D14FF0805058490860BFF34F8FBFF32A
:102480006F8FBDE8F08770B5044600259CB14E48BB
:10249000006808B9012000E0002018B901214B486C
:1024A00027F0B2FBFFF79AFF00212046FFF758FF05
:1024B000FFF7EDFE05463DB94FF0805046490860F4
:1024C000BFF34F8FBFF36F8F70BD2DE9F047074605
:1024D0003E461EB901213D4827F096FB374800686B
:1024E000864201D1002426E001F0CCFC7569304819
:1024F000D0F800803B48D0F8009001F0E4FC45455E
:1025000001D04D4501D1022415E0354885420BD15B
:10251000B06A38B996F85C00012801D102240AE0BB
:10252000032408E0022406E02F48854200D00DB9BC
:10253000042400E001242046BDE8F08770B504467D
:1025400001F0A0FC14B91D48006800E020460646D2
:10255000F56A01F0B8FC284670BD2DE9F04105464A
:1025600001F0DFFC00BF5021EFF3118081F31188EF
:10257000BFF34F8FBFF36F8F00BF044615B90F48ED
:10258000006800E028460746FE6A00BF84F3118811
:1025900000BF3046BDE8F0812DE9F04780460D468A
:1025A0004FF00009072D21D2012020E080000020FB
:1025B0005000002068000020980300204C000020FC
:1025C00070000020740000208800002050270220A6
:1025D000600000204C04002004ED00E064000020B6
:1025E000740400205400002060040020002018B96A
:1025F0000121FE4827F008FB072D00D3062501F036
:1026000041FCB8F1000F02D1F948006800E04046F3
:102610000446E66CAE4256D0B5420BD9F448006889
:1026200084420DD0F2480068C06AA84208D84FF032
:10263000010905E0EE480068844201D14FF001092C
:10264000E76AE16AE06C884200D1E562E564A0696E
:1026500000F0004010B9C5F10700A06107EB870149
:10266000E44A02EB81016069884201D1012000E067
:102670000020E0B1201DFEF72AFC30B90120B8404F
:10268000DD4909688143DC48016094F82C10012081
:102690008840D94909680843D7490860E16A01EBD5
:1026A0008101D44A02EB8100211DFEF7EAFBB9F15A
:1026B000000F07D04FF08050D0490860BFF34F8F14
:1026C000BFF36F8F00BF01F0FEFBBDE8F08770B570
:1026D000CB48006818B10120CA4908604FE00020CB
:1026E000C8490860C2480068046B4FF0A5352068EF
:1026F000B0F1A53F0BD16068B0F1A53F07D1A0684C
:10270000B0F1A53F03D1E068B0F1A53F05D0B848CE
:1027100001683431006804F07AF9BB480068B449B4
:1027200009680866B4480068B0FA80F0C0F11F0478
:1027300004EB8400AF4951F8200008B1012000E00B
:10274000002018B90121A94827F05EFA04EB8401A2
:10275000A84A02EB810041684968416000F1080124
:1027600042688A4202D14168496841604168C9684B
:102770009F4A116010460068006EA349086070BD52
:1027800070B5054601F07EFB15B99948006800E078
:1027900028460446201DFEF79AFB78B9E06A00EB54
:1027A0008000944951F8200040B994F82C10012081
:1027B00088409149096881438F480160A06A18B137
:1027C00004F11800FEF783FB211D9048FEF759FB2A
:1027D00094F85C00012802D1002084F85C0001F02C
:1027E00072FB8B48006828B101F04CFBFFF703FC3B
:1027F00001F069FB7E480068844222D18448006869
:1028000098B17F48006808B9012000E0002018B99D
:102810000121764827F0F8F94FF080507749086099
:10282000BFF34F8FBFF36F8F0BE078480068794993
:102830000968884203D100206D49086001E0FFF774
:1028400046FF70BD70B5054600262C461DB9012116
:10285000664827F0D9F96D496069884201D10120A5
:1028600000E0002070B16C49A06A884201D10120CB
:1028700000E0002030B9A06A08B9012000E0002083
:1028800000B10126304670BD70B505462C461DB915
:102890000121564827F0B8F95548006884422BD0EA
:1028A00054B301F0EFFA2046FFF7CCFF10B3201D20
:1028B000FEF70DFB94F82C10012088404E49096862
:1028C00008434D490860E16A01EB8101494A02EB86
:1028D0008100211DFEF7D5FA4549E06A0968C96AF9
:1028E000884207D34FF0805044490860BFF34F8FB0
:1028F000BFF36F8F01F0E7FA70BD2DE9F041064696
:10290000002734461EB90121384827F07DF901F02F
:1029100008FB00BF5021EFF3118081F31188BFF352
:102920004F8FBFF36F8F00BF05462046FFF78AFF2A
:1029300020B333480068E0B92D49E06A0968C96AE4
:10294000884200D30127201DFEF7C1FA94F82C100D
:102950000120884028490968084327490860E16A3E
:1029600001EB8101234A02EB8100211DFEF789FA68
:1029700004E004F118012848FEF783FA00BF85F34C
:10298000118800BF3846BDE8F08110B516E001F0AF
:1029900079FA2248C068C468201DFEF798FA1D48DD
:1029A0000068401E1B4908601D480068401E1C4905
:1029B000086001F088FA2046FFF732FB18480068EB
:1029C0000028E4D110BD00BFFFF7DFFF0948006811
:1029D000012807D94FF0805008490860BFF34F8F96
:1029E000BFF36F8FFDF76BFFEEE70000502702206B
:1029F0004C000020980300206800002004ED00E057
:102A000088000020740000205C0000207404002076
:102A10006C000020600000204C04002060040020B6
:102A20005800002010B586B000200590049003AA3D
:102A300004A905A803F090FF0022DDE90410134665
:102A4000CDE900210290F7A1F848039AFFF75AFA5E
:102A5000F74908600846006808B1012400E0002436
:102A6000012C02D100F0FAFF0446012C15D100BF61
:102A7000502080F31188BFF34F8FBFF36F8F00BFDB
:102A80004FF0FF30EB4908600120EB49086000205F
:102A9000EA49086001F05EF909E0601C08B1012014
:102AA00000E0002018B90121E54827F0ADF806B094
:102AB00010BD10B500BF502080F31188BFF34F8FB9
:102AC000BFF36F8F00BF0020DB49086001F0CBF936
:102AD00010BDDA490868704770B501F022FA002588
:102AE000D6480468204670BDD6480068704770B567
:102AF000044614B9D448006800E0204605461DB9D4
:102B00000121CF4827F080F805F1340070BD02465E
:102B1000002101E0521C491C1078A528FAD0890830
:102B200088B270472DE9F04107460C4690461E4694
:102B300017B9C548006800E038460546256005F12C
:102B400034006060E86A2061286BE061686CA06016
:102B5000E86C60610020A061052E12D0BA480068C0
:102B6000854202D1002020730FE02673032E0CD182
:102B7000FFF734FCA86A08B102202073FFF787FB37
:102B800003E02846FFF7A1FC2073B8F1000F04D042
:102B9000286BFFF7BCFF208401E000202084BDE803
:102BA000F0812DE9F04707460C4690460026206844
:102BB00048B3204641684968416000F10801426815
:102BC0008A4202D14168496841604168D1F80C905D
:102BD00000BF204641684968416000F10801426831
:102BE0008A4202D14168496841604168CD6806EB7C
:102BF000C60007EB8001434601222846FFF792FFFB
:102C0000761C4D45E5D13046BDE8F0872DE9F04111
:102C100005468846164600240727FFF7DFFB89484C
:102C20000068804539D300BF7F1E07EB8702874BC2
:102C300003EB820104EBC40205EB82000122FFF7E3
:102C4000B0FF0444002FEFD104EBC40105EB810079
:102C500002227F490968FFF7A4FF044404EBC40182
:102C600005EB810002227B490968FFF79AFF0444C3
:102C700004EBC40105EB810004227749FFF791FFC3
:102C8000044404EBC40105EB810003227349FFF700
:102C900088FF04440EB100203060FFF7F8FA2046A8
:102CA000BDE8F08170B504460E4614B96648056863
:102CB00000E0254601F0E6F86E6501F004F970BD0C
:102CC00070B5044614B96048006800E02046064626
:102CD00001F0D8F8756D01F0F6F8284670BD70B5B2
:102CE000024612B95848006800E01046044600BF8A
:102CF0005025EFF3118085F31188BFF34F8FBFF399
:102D00006F8F014600BF636D00BF81F3118800BF64
:102D1000184670BD2DE9F04105460F4615B94A48E1
:102D2000046800E02C46606D20B13846616D88472C
:102D3000064600E000263046BDE8F08170B5044646
:102D40000D461CB901213E4826F05EFF3E48016851
:102D500018312046FEF7A1F801212846FFF700FBB5
:102D600070BD70B504460D4616461CB901213448A5
:102D700026F04AFF3A48006808B1012000E0002030
:102D800018B901212E4826F03FFF45F000402E499A
:102D9000096888612C48016818312046FEF771F8EF
:102DA00001213046FFF7DCFA70BD70B505460E46CE
:102DB00014461DB90121224826F026FF2248016849
:102DC00018312846FEF75DF80CB14FF0FF3621466A
:102DD0003046FFF7C5FA70BD70B50646F068C468A6
:102DE0001CB90121164826F00FFF04F11800FEF768
:102DF0006EF81B480068B8BB201DFEF768F894F811
:102E00002C100120884017490968084315490860BB
:102E1000E16A01EB81010D4A02EB8100211DFEF701
:102E200030F827E049444C4500000000C729000065
:102E300084000020800000206C000020640000203E
:102E400050270220600000204C0000209803002042
:102E50005000002054000020600400207404002072
:102E60008800002068000020FFE704F11801FE48F8
:102E7000FEF707F8FD49E06A0968C96A884204D983
:102E800001250120FA49086000E00025284670BDB0
:102E900070B505460E46F748006808B1012000E00D
:102EA000002018B90121F44826F0AEFE46F000409B
:102EB0002860EC681CB90121EF4826F0A5FE2846E1
:102EC000FEF705F8201DFEF702F894F82C100120FB
:102ED0008840EA4909680843E8490860E16A01EB6B
:102EE0008101E74A02EB8100211DFDF7CAFFDF499E
:102EF000E06A0968C96A884202D90120DC49086091
:102F000070BD10B504461CB90121DB4826F07CFEDB
:102F100000F0B8FFDB4800682060DB4800686060B4
:102F200000F0D1FF10BDD74909680160D649096892
:102F30004160704770B505460C461DB90121CE4869
:102F400026F062FE1CB90121CB4826F05DFE00F0A0
:102F500099FFCD4802686868131A2068401C08B9B8
:102F6000002617E0C74928680968884204D06868C5
:102F7000904201D801260DE02068984207D92068C8
:102F8000C01A20602846FFF7CEFF002602E000208E
:102F90002060012600F097FF304670BD0120B44943
:102FA00008607047014611B10A46906C00E00020AD
:102FB000704708B1024691647047AC490868704791
:102FC000B249096809B9012005E0AA49096809B9A7
:102FD000022000E00020704770B505462C46002610
:102FE000002D54D0A149E06A0968C96A884247D2D5
:102FF000A06900F0004028B99C480068C06AC0F190
:103000000700A061E16A01EB81019D4A02EB8101A9
:103010006069884201D1012000E0002050B3201DEA
:10302000FDF755FF78B9E06A00EB8000944951F84C
:10303000200040B994F82C10012088408F4909687D
:1030400081438E48016089480068C06AE06294F854
:103050002C10012088408949096808438749086085
:10306000E16A01EB8101864A02EB8100211DFDF737
:1030700008FF03E07D480068C06AE062012606E0C0
:103080007A49E06C0968C96A884200D20126304654
:1030900070BD70B505462C460026002D47D07348FC
:1030A0000068844201D1012000E0002018B901210C
:1030B000714826F0A9FD206D18B901216E4826F04F
:1030C000A3FD206D401E2065E16CE06A88422ED091
:1030D000206D60BB201DFDF7FAFE78B9E06A00EBB9
:1030E0008000674951F8200040B994F82C10012065
:1030F000884062490968814360480160E06CE06291
:10310000E06AC0F10700A06194F82C10012088400B
:103110005A490968084359490860E16A01EB81018D
:10312000574A02EB8100211DFDF7ABFE0126304618
:1031300070BD2DE9F04706460F4634464FF00109B1
:10314000002E59D0206D18B901214B4826F05CFDA6
:10315000E06CB84201D23D4600E0E56CE06AA8426E
:103160004AD0206D012847D140480068844201D0F0
:10317000012000E0002018B901213F4826F044FD5D
:10318000D4F82C80E562A06900F0004010B9C5F1C8
:103190000700A06108EB8801394A02EB81016069F0
:1031A000884201D1012000E0002028B3201DFDF756
:1031B0008EFE78B9E06A00EB8000314951F82000BA
:1031C00040B994F82C10012088402C4909688143AB
:1031D0002A48016094F82C1001208840274909688A
:1031E000084326490860E16A01EB8101244A02EBA9
:1031F0008100211DFDF745FEBDE8F0871B490968E8
:1032000088691A490968C96AC1F10701174A126831
:10321000916170471548006830B11449096801F19F
:103220005000096D491C016010480068704770B576
:1032300006460D4600F026FE0C480068806D88B9F1
:1032400001200A49096881F85C005DB10121284626
:10325000FFF786F84FF080500D490860BFF34F8F9D
:10326000BFF36F8F16E000004C0400204C000020DC
:1032700074000020880000205027022068000020F1
:103280009803002078000020640000206C000020DB
:1032900004ED00E000F017FE00F0F4FDEF480068D8
:1032A000846D4CB126B10020EC490968886503E0C3
:1032B000601EEA49096888650020E849096881F8C4
:1032C0005C0000F000FE204670BD2DE9F04107468D
:1032D000884614461D4600F0D5FDE048006890F889
:1032E0005C00022818D0DD49096801F15800896D99
:1032F000B94301600120D949096881F85C005DB1DA
:1033000001212846FFF72CF84FF08050D44908607F
:10331000BFF34F8FBFF36F8F00F0D5FD00F0B2FD0C
:103320001CB1CE480068806D2060CC48006890F8E1
:103330005C00022801D0002608E0C849096801F1B4
:103340005800896D21EA0801016001260020C34967
:10335000096881F85C0000F0B6FD3046BDE8F081F8
:103360002DE9F04706460D46174698464FF0010AEC
:103370001EB90121BB4826F047FC344600F082FD0F
:10338000B8F1000F02D0A06DC8F8000094F85C906E
:10339000022084F85C00052F17D2DFE807F0150340
:1033A000070B0D00A06D2843A0651AE0A06D401C1E
:1033B000A06516E0A56514E0B9F1020F01D0A5657E
:1033C00001E04FF0000A0CE00BE0A06D401C08B9D2
:1033D000012000E0002018B90121A24826F014FCC9
:1033E00000BF00BFB9F1010F2CD1201DFDF76FFD0B
:1033F00094F82C10012088409B49096808439A4999
:103400000860E16A01EB8101984A02EB8100211D0D
:10341000FDF737FDA06A08B9012000E0002018B9C7
:103420000121904826F0F0FB8C49E06A0968C96ADE
:10343000884207D94FF0805089490860BFF34F8F09
:10344000BFF36F8F00F03FFD5046BDE8F0872DE9D8
:10345000F84F07460E4690469946DDF828B0012001
:1034600000901FB901217F4826F0CEFB00F059FDE6
:103470003C4600BF5021EFF3118081F31188BFF368
:103480004F8FBFF36F8F00BF0546B9F1000F02D019
:10349000A06DC9F8000094F85CA0022084F85C00DC
:1034A000B8F1050F17D2DFE808F01503070B0D0080
:1034B000A06D3043A0651AE0A06D401CA06516E029
:1034C000A66514E0BAF1020F01D0A66501E0002064
:1034D00000900CE00BE0A06D401C08B9012000E05A
:1034E000002018B901215F4826F08EFB00BF00BF05
:1034F000BAF1010F36D1A06A08B9012000E000201E
:1035000018B90121574826F07FFB59480068A8B92F
:10351000201DFDF7DCFC94F82C1001208840524956
:103520000968084350490860E16A01EB81014F4A8C
:1035300002EB8100211DFDF7A4FC04E004F1180159
:103540004C48FDF79EFC4549E06A0968C96A884213
:1035500008D9BBF1000F02D00120CBF800000120F8
:103560004549086000BF85F3118800BF0098BDE899
:10357000F88F2DE9F04105460F461DB90121394864
:1035800026F042FB00F0CDFC2C4600BF5021EFF3AB
:10359000118081F31188BFF34F8FBFF36F8F00BF8E
:1035A000064694F85C80022084F85C00A06D401C04
:1035B000A065B8F1010F33D1A06A08B9012000E07D
:1035C000002018B90121274826F01EFB2848006872
:1035D000A8B9201DFDF77BFC94F82C100120884031
:1035E00021490968084320490860E16A01EB81012B
:1035F0001E4A02EB8100211DFDF743FC04E004F1AB
:1036000018011C48FDF73DFC1449E06A0968C96AC5
:10361000884205D90FB101203860012016490860A1
:1036200000BF86F3118800BFBDE8F08170B5054684
:1036300015B90A48006800E02846064600F022FC5A
:1036400096F85C00022804D1002086F85C00012472
:1036500000E0002400F037FC204670BD4C00002044
:1036600004ED00E0502702206800002098030020AD
:10367000880000204C040020740000202DE9F04157
:1036800004460D4616461F464FF00008656024614B
:10369000B5420CD8F01BA169884202D34FF0010853
:1036A00011E0211DFE480068FDF7F7FB0BE0BE426C
:1036B00004D2BD4202D34FF0010804E0211DF948B5
:1036C0000068FDF7EAFB4046BDE8F0812DE9FE43C6
:1036D00004460D4616461F46DDF828804FF00009C7
:1036E0001CB90121F04826F08FFAF048006810B3A9
:1036F000009501960294062D15DAFFF761FC022869
:1037000008D1002342466946E8480068FDF74EFDAF
:10371000814610E000231A466946E4480068FDF738
:1037200045FD814607E000233A466946DF480068C8
:10373000FDF79DFF81464846BDE8FE832DE9F8432D
:103740002DE0D8480068C0680568D6480068C068A1
:10375000C468201DFDF7BBFB2046216A884794F80A
:10376000280000F00400D0B1A0694619AE4207D984
:1037700066602461211DCB480068FDF78EFB0EE0DA
:10378000002003462A46014600902046FFF79EFF90
:1037900007461FB90121C44826F036FA00BFC148C8
:1037A0000068006808B9012000E000200028C8D0A7
:1037B000BC48D0F80080BA480068BA490860B848E8
:1037C000C0F80080BDE8F88370B50446FFF781F9C2
:1037D0000546B7480068854204D2FFF7AFFF0120D5
:1037E000206001E000202060B1480560284670BDDF
:1037F00070B586B07CE00398002879DB059C606991
:1038000008B9012000E0002010B9201DFDF75FFB82
:1038100002A8FFF7D9FF054603980A2866D2DFE819
:1038200000F0090507323A550608333B00BF00BFD8
:1038300000BF00BF94F8280040F0010084F8280081
:103840000498A269811803462A462046FFF716FF0E
:10385000C0B12046216A884794F8280000F004008F
:1038600080B1002000900498A169421800231946F5
:103870002046FFF72BFF06461EB901218A4826F095
:10388000C3F900BF33E000BF94F8280020F0010026
:1038900084F828002BE000BF94F8280040F00100D5
:1038A00084F828000498A061A06908B1012000E014
:1038B000002018B901217C4826F0A6F9A069411919
:1038C0002B462A462046FFF7D9FE10E094F8280040
:1038D00000F0020018B9204600F045FC05E094F81D
:1038E000280020F0010084F8280000E000BF00BF9D
:1038F000002203A96D480068FDF795FF00287FF4BA
:103900007AAF06B070BDF8B505460F466548006849
:10391000C068C468201DFDF7DAFA94F8280000F0AA
:103920000400B0B1A06941192B463A462046FFF782
:10393000A5FEA0B1002003462A460146009020467D
:10394000FFF7C4FE06461EB90121574826F05CF970
:1039500005E094F8280020F0010084F828002046B3
:10396000216A8847F8BDF8B505460C46FEF736FDD6
:103970006846FFF729FF0646009820BB44B9B542C8
:1039800006D8FEF784FC31462846FFF7BCFF1CE052
:103990003CB143480068006808B9012000E00020FD
:1039A0000446A91B224641480068FEF7B8F9FEF715
:1039B0006EFC50B94FF080503E490860BFF34F8F06
:1039C000BFF36F8F01E0FEF762FCF8BD0146354A98
:1039D000126812680AB9012200E000220A600A682F
:1039E00022B9304A1268D268106800E0002070479F
:1039F00008B5FCF72BFF00BF6846FFF7E7FF04465A
:103A000020460099FFF7AFFFFFF7F2FEF4E708B595
:103A100000F038FA25480068E8B92748FDF721FA90
:103A20002648FDF71EFA24481E49086023481C4911
:103A300008600020224B234A0C2100900A20FDF749
:103A4000B2FA1A4908600846006820B11EA117485A
:103A50000068FEF73EF900F036FA08BD10B586B0F2
:103A60000024FFF7D4FF11480068C8B30020059078
:103A7000049003AA04A905A802F076FF0522DDE957
:103A800004100023CDE90021029011A11248039AED
:103A9000FEF738FA114908600846006810B320E0C4
:103AA000900000208C00002050270220940000206D
:103AB0009C00002004ED00E0880400209C0400200D
:103AC000B004002000050020546D72510000000079
:103AD000546D722053766300F13900009800002085
:103AE00001E0012400BF1CB901217A4826F08CF8BE
:103AF000204606B010BD2DE9F04706460D46174694
:103B00009846DDE908940DB1012000E0002018B9C5
:103B10000121704826F078F88CB1FFF778FF266015
:103B2000A561C4F81C80C4F82090201DFDF7A6F9FB
:103B30002FB194F8280040F0040084F82800BDE874
:103B4000F0872DE9FC4705460E4617469846DDF8F6
:103B500028902C2000F083FA044654B1002084F809
:103B6000280043463A4631462846CDE90094FFF7FF
:103B7000C2FF2046BDE8FC872DE9FC4706460F46FC
:103B800090469946DDE90AA52C20019001982C2841
:103B900001D1012000E0002018B901214D4826F094
:103BA00033F800BF1DB901214A4826F02DF82C46F4
:103BB00054B1022084F828004B464246394630462C
:103BC000CDE900A4FFF797FF2046BDE8FC8710B5BC
:103BD0004148006808B1012000E0002018B9012127
:103BE0003C4826F011F83C48006810BD70B504460A
:103BF00025461CB90121374826F006F8A86970BD92
:103C000070B505460E462C461DB90121314825F0F8
:103C1000FBFF00F037F936B194F8280040F00400BB
:103C200084F8280005E094F8280020F0040084F8C7
:103C3000280000F048F970BD70B5044625461CB94F
:103C40000121244825F0E0FF6E68304670BD70B554
:103C5000044625461CB901211E4825F0D5FF2868D9
:103C600070BD70B5044626461CB90121194825F0DF
:103C7000CBFF00F007F996F8280000F0010008B922
:103C8000002500E0012500F01EF9284670BD70B542
:103C9000044626461CB901210E4825F0B5FF00F068
:103CA000F1F8F56900F00FF9284670BD70B50446CB
:103CB0000D4626461CB90121064825F0A5FF00F057
:103CC000E1F8F56100F0FFF870BD0146486A704701
:103CD000416270475027022098000020A5480068E4
:103CE000401C08B9012000E0002018B90121A248B9
:103CF00025F08AFF00BF502080F31188BFF34F8F5B
:103D0000BFF36F8F00BF00BFFEE7001F4FF080734F
:103D10000360001F21F001030360001F974B036045
:103D200014380260001F6FF00203036020387047F0
:103D300000204FF0E02108618861914800684FF44D
:103D40007A71B0FBF1F0401E4FF0E021486107208E
:103D5000086170471CB58B4800688B49884201D0C8
:103D6000012000E0002018B90121834825F04CFF14
:103D7000844800688449491E884201D0012000E03F
:103D8000002018B901217C4825F03EFF7F4C2046D9
:103D900000780190FF2021460870084600780090C6
:103DA0009DF8000000F0F0009DF80010884201D15D
:103DB000012000E0002018B901216F4825F024FF00
:103DC0009DF8000000F0500071490870072071490B
:103DD000086009E06F480068401E6E4908609DF861
:103DE00000004006000E00909DF8000000F08000EA
:103DF0008028EFD067480068C0F10700042801D18F
:103E0000012000E0002018B901215B4825F0FCFEEC
:103E10006048006800025F4908600846008800F4B6
:103E2000E0600860594901980870564820300068E1
:103E300040F470005349203108600846006840F0A3
:103E400070400860FFF774FF00204A490860FCF7E3
:103E5000E1F95148006840F040404F490860FCF7E4
:103E6000C5F900201CBD10B542480068B0F57A7F46
:103E700001D1012000E0002018B901213E4825F0C1
:103E8000C3FE10BD10B500BF502080F31188BFF3F2
:103E90004F8FBFF36F8F00BF36480068401C354915
:103EA00008600846006801280CD13648001D0068EB
:103EB000C0B208B9012000E0002018B901212E4845
:103EC00025F0A2FE10BD10B52A48006818B90121DE
:103ED000294825F099FE27480068401E25490860BA
:103EE0000846006820B9002080F3118800BF00BF99
:103EF00010BD10B500BF502080F31188BFF34F8F65
:103F0000BFF36F8F00BFFEF70AF920B14FF080506A
:103F10001C49091D086000BF002080F3118800BF04
:103F200010BD70B5FCF7AEF90546102D0FD305F1A5
:103F3000E02090F8F04316480078844201DB01202D
:103F400000E0002018B901210B4825F05DFE0D4866
:103F50000C30006800F4E0600E490968884201D81E
:103F6000012000E0002018B90121034825F04CFE93
:103F700070BD0000A000002050270220DD3C0000A2
:103F80000000002000ED00E071C20F4100E400E0FD
:103F9000A4000020A800002034EF00E010B5014686
:103FA000904800E0006803688B42FBD302464368F8
:103FB00013448B4204D143684C6823444360014658
:103FC0000A464B6813440468A34211D1864C036827
:103FD0002468A34208D04B680468646823444B609B
:103FE00003681B680B6005E07F4B1B680B6001E0FA
:103FF00003680B60884200D0016010BD30B54FF4FB
:10400000D4337A4800F007042CB1C01D20F007001B
:10401000764C041B1B1B0246724C22600024714D1F
:104020006C60D018083820F007006F4C2060002426
:104030006D4D2D686C606C4D2D682C601146441AD6
:104040004C60694C24680C60694D4C682C60694D6B
:104050004C682C604FF00044674D2C6030BD2DE95A
:10406000F04104464FF00008FEF7B8F95E480068DA
:1040700008B9FFF7C3FF60480068204000285DD101
:104080009CB1083404F0070078B104F00700C0F1D7
:104090000800044404F0070008B9012000E00020F3
:1040A00018B90121554825F0AFFD002C46D05148E4
:1040B0000068844242D84B4E3046056801E02E46E7
:1040C0002D686868A04202D228680028F7D14648C7
:1040D0000068854232D0306800F1080828683060F6
:1040E0006868001B102812D92F1907F0070008B9BB
:1040F000012000E0002018B90121404825F084FD8E
:104100006868001B78606C603846FFF747FF3949E4
:1041100068680968081A3749086008460068344921
:104120000968884203D2334800683149086032493F
:10413000686809680843686000202860FEF7A7F8EF
:10414000B8F1000F01D102F057FC08F0070008B9E0
:10415000012000E0002018B90121284825F054FD75
:104160004046BDE8F08170B506463546002E31D098
:10417000083D2C46204960680968084008B10120C4
:1041800000E0002018B901211C4825F03DFD206801
:1041900008B9012000E0002018B90121174825F0D6
:1041A00033FD154960680968084098B1206888B9EE
:1041B00011496068096888436060FEF70FF90D498E
:1041C0006068096808440B4908602046FFF7E6FE6E
:1041D000FEF75DF870BD0748006870470448006846
:1041E00070477047AC000020B40000207805002024
:1041F000BC000020B8000020C00000205027022092
:1042000010B5044638A0216826F0E0F939A06168AD
:1042100026F0DCF93AA0A16826F0D8F93BA0E168C5
:1042200026F0D4F93CA0216926F0D0F93DA06169BF
:1042300026F0CCF93EA0A16926F0C8F93FA0E169BB
:1042400026F0C4F910BD04463FA026F0BFF9204671
:10425000FFF7D6FF00BFFEE700BF4149896901F4BF
:1042600000010029F9D13E4908600A2809D100BFA0
:104270003B49896901F400010029F9D10D21384A2F
:104280001160704710B504462046FFF7E5FF10BDEA
:1042900008E03348806900F4804018B9304800686D
:1042A000C0B27047F5E72E488069C0F38030704790
:1042B0002B488069C0F30070704710B50446204653
:1042C000FFF7E0FF10BD70B504460D462046FFF72E
:1042D000D9FF204670BD10B50446FFF7D9FF10BDC9
:1042E00001464FF0FF307047723020203D2030787B
:1042F00025780A00723120203D20307825780A0088
:10430000723220203D20307825780A007233202038
:104310003D20307825780A00723132203D203078F7
:1043200025780A006C7220203D20307825780A001C
:10433000706320203D20307825780A007073722049
:104340003D20307825780A00496E2048617264204B
:104350004661756C742048616E646C65720A000079
:104360000000074010B50022002100F01F040123C7
:10437000A340DA43F849032303EA907301EB830176
:104380000B6813400B6010BD00B5F448FFF7EAFF5F
:1043900000BDF0B500230024C0F38725E5B1C0F3CC
:1043A0008145022D02D1EC4C28340CE0C0F381454C
:1043B000032D02D1E84C2C3405E0C0F38145E64ED4
:1043C0001C3606EB85042568C0F38726C0F3441726
:1043D000BE40B54315432560C0F3426575B1C0F3D7
:1043E0000175DD4E0C3606EB85031D68C0F3426691
:1043F000C0F30457BE40B5430D431D60F0BD10B57A
:104400000022002100F01F04012303FA04F2D24924
:10441000032303EA907301EB83010B6813430B60E2
:1044200010BD70B504460D46164645F0100040EA32
:104430004610C9495C310860C848FFF7E0FF002218
:104440002146C648FFF7A5FF70BDC548006840F08B
:104450000400C3490860C048001F006840F08000A5
:104460008906C1F8000230BF7047BD48006820F0DF
:104470000400BB490860B848001F006820F08000B5
:104480008906C1F8000230BF7047B349091F0968A7
:1044900001F0010109B1B34800E000207047AE49C6
:1044A000091F096801F00201022901D1880300E017
:1044B0000020704710B5FBF72BFFA748303000688D
:1044C00000F0070010B9A84804682DE0A248303079
:1044D000006800F00700012803D1A34800684408E1
:1044E00022E09D483030006800F00700022803D128
:1044F0009D480068840817E097483030006800F055
:104500000700032803D198480068C4080CE09248CB
:104510003030006800F00700042803D1924800689A
:10452000040901E090480468204610BD10B5FBF76F
:10453000EFFE89483030006800F0700010B98A48FA
:1045400004682DE084483030006800F070001028C6
:1045500003D185480068440822E07F483030006875
:1045600000F07000202803D17F480068840817E01D
:1045700079483030006800F07000302803D17A4864
:104580000068C4080CE074483030006800F0700027
:10459000402803D174480068040901E072480468A7
:1045A000204610BD10B5FBF7B3FE6F48006810BD84
:1045B00010B5FBF7ADFE6C48006810BD10B50146A4
:1045C0006A4A012005E0131EA2F1010201DC00206D
:1045D00005E0614B4C331B680B408B42F3D100BFAD
:1045E00010BD70B504460D465B484C30006800F0C5
:1045F00010064FF08040D0F8000240F00400564909
:10460000091F08601020FFF7D9FF53480C300068DD
:1046100020F00700C01D4FF08041C1F810024E4845
:104620001C30006820F00F002843C1F820024A48DF
:104630000C30006820F00700204347490C31086027
:10464000FBF766FE46B94448001F006820F00400EE
:104650004FF08041C1F8000270BDF8B5002044A6BB
:10466000366800963C4E3C36316801F4A02606B10F
:1046700027E001F40036B6F5003F09D101F4002629
:10468000B6F5002F01D1374A00E0364A104618E04F
:1046900001F40026B6F5002F01D1324A00E0314A7C
:1046A000C1F381371DF80740C1F30806B31CC1F3FD
:1046B0004426751C96085E4315FB04F7B6FBF7F617
:1046C000F000F8BD24483C30006840F480304FF0E2
:1046D0008041C1F8400270472DE9F34F87B00C4686
:1046E000FFF7F0FF079888B91B48001F006840F0EB
:1046F00001004FF08041C1F800020120FFF75EFF8A
:1047000000200690DFF85C90022611E01248001F9E
:10471000006840F004004FF08041C1F80002102012
:10472000FFF74CFF4FF400200690DFF83890042686
:10473000104884427DD8104884427AD34FF0FF3825
:104740000020029003900190009401255EE0B8F1F2
:10475000000F13D15CE00000040200400600C057C7
:1047600010ED00E0001BB7000000002080F52000E5
:10477000010202040065CD1D80F0FA02032D44D031
:10478000042D02D10098840003E0022D01D100988D
:104790004400022636E0B8F1000F00D134E0B9FB46
:1047A000F6FBD14883452CD34000834529D84FF0F0
:1047B000020A21E0CBF35D0000FB0AF7CB488742F9
:1047C00018D3CB48874215D8B7EB940F02D9A7EB83
:1047D000940001E0C7EB940004900498404509D28E
:1047E000DDF810800296CDF80CA00195B8F1000F0D
:1047F00000D105E00AF1010A40F201208245D9D931
:1048000000BF761C202EC6D900BF6D1C042D9ED97A
:1048100000BF0198401E069941EA80310298401E6F
:1048200041EA40210398801E0143B2480160042000
:1048300000E00BE0FFF7C2FEDDE901014843B9FBF0
:10484000F0F003994843400005900FE0079820B925
:1048500044F21E20A749086002E0A748A549086065
:104860000420FFF7ABFEFFF7F8FE0590059809B0AE
:10487000BDE8F08F70B504469E481030006800F027
:1048800010059E48844200D904469A484038006882
:1048900040F004004FF08041C1F800021020FFF703
:1048A0008DFE4FF08040D0F8100240F007004FF02E
:1048B0008041C1F810020846D0F8200220F00F0015
:1048C000C1F820028B484038006800F0010028B190
:1048D00021460020FFF700FF04460AE021464FF47E
:1048E0000020FFF7F9FE044682481030006800F00F
:1048F000100500210220FFF774FE45B97D484038BD
:10490000006820F004004FF08041C1F8000220460A
:1049100070BD78493039096821F0380101434FF002
:104920008042C2F810127047724940390968014349
:104930004FF08042C2F8001270476E494039096852
:1049400081434FF08042C2F80012704700224FF0BE
:10495000E0231A61042805D11A46126942F00402C4
:104960001A6109E0634A303A126822F038020243C1
:104970004FF08043C3F810224FF0E0225161002233
:104980004FF0E0239A611A46126942F003021A615D
:10499000704700204FF0E0210861704710B50446D1
:1049A000042C01D0052C0BD152484038006840F04F
:1049B00008004FF08041C1F800020820FFF7FEFD1B
:1049C0004C485030006820F0070020434FF08041F1
:1049D000C1F8900210BD47495031096821F44031B7
:1049E00001434FF08042C2F8901270474148543062
:1049F0000068704770B50446002000253D486030CF
:104A0000042606FB0400056840F2F71625EA0606B0
:104A100046EA011616431E4346F00105056070BDC7
:104A20003FB501460022364D39CD8DE83900354875
:104A3000814206D12F482838006800F0010004B0F8
:104A400030BD3148814205D12A4828380068C0F37A
:104A50004000F4E72D48814205D1264828380068F7
:104A6000C0F30020EBE72A48814205D121482838CD
:104A70000068C0F34020E2E7C1F3426088B1C1F3AF
:104A800001735DF823001B4B303BC2181068C1F363
:104A90004263C1F30454A3401840C1F30453D84007
:104AA000CDE70020CBE73FB501460022144D10357D
:104AB00039CD8DE83900C1F3872090B1C1F381432E
:104AC0005DF823000B4B203BC2181068C1F387230D
:104AD000C1F34414A3401840C1F34413D84004B0B8
:104AE00030BD0020FBE7000000093D0080F0FA0225
:104AF00040597307400200401E42080000B0710B8D
:104B00002CB00200100000A2110010A2120080A21E
:104B1000130090A210B502B1C3608C0044EA4204B5
:104B2000846010BD816841F001018160704710B55B
:104B30000A468468C4F38104641C6300002106E013
:104B400000F1100454F8214042F82140491C9942D8
:104B5000F6D3846824F00204846010BDF0B5DDE96A
:104B600005450E0646EA024646EA032646EA84065C
:104B700046EA8556C0F80061D0F80061FE4F47F85C
:104B80002160F0BD10B5FC4B53F82130C0F8003166
:104B9000D0F80031012444EA42142343C0F8003124
:104BA00010BDF0B50446C1EB011C04F5887707EB96
:104BB0008C05042707EB4306002004E052F8207020
:104BC0002F602D1D401CB042F8D3F0BD70B50346D8
:104BD000C1EB011603F5987505EB8604002004E08F
:104BE00052F820502560241D401C0428F8D370BDC5
:104BF000F0B51446059DC1EB011700F5A07606EB54
:104C000087021460C1EB0117361D06EB87021360A3
:104C1000C1EB0117361D06EB87021560F0BDF0B53C
:104C200005AC70CC0F0647EA02472F4347EA4657C8
:104C3000DFF848C34CF8217033B1674657F821704C
:104C400047F004074CF8217044B1CC4F57F821705D
:104C500047F00807DFF824C34CF82170F0BD10B509
:104C6000C64B53F82130012444EA42142343C34C79
:104C700044F82130234653F82130C0F8003210BDEB
:104C800070B504460B4604F50275402606FB035139
:104C9000002009E052F830500D60091D02EBC005FC
:104CA0006D680D60091D401C0328F3D370BD30B53D
:104CB00000F5087505EB811422602D1D05EB8114AC
:104CC000236030BD70B51446049D00F50A7606EBEE
:104CD00081121460361D06EB81121360361D06EB3F
:104CE0008112156070BD10B50C0244EA8254C0F800
:104CF00000433BB1C0F84833D0F8004344F01004FF
:104D0000C0F8004310BDD0F8002322F0E002C0F844
:104D10000023D0F80023012343EA41131A43C0F8CB
:104D200000237047C0F84C13C0F85023704730B5CB
:104D300002460C46D2F80053C5F3022008B90521FB
:104D40000CE0052801D1072108E0042801D1082141
:104D500004E0072801D10C2100E0102102F5427384
:104D6000002004E01D6844F820501B1D401C8842B0
:104D7000F8D330BD7047392803DCA0F13001C8B248
:104D80000AE07A2805DC612803DBA0F15701C8B2EC
:104D900002E0A0F13701C8B270472DE9F04707469D
:104DA0008846384624F032FD441E4FF0000A17E0D2
:104DB0004FF0000900260AE0385DFFF7DCFF0546EA
:104DC000B00005FA00F040EA0909641E761C082EBE
:104DD00001D2002CF0DA50460AF1010A48F820907E
:104DE000002CE5DABDE8F0872DE9F74F81460D4646
:104DF000484624F00BFD441E4FF0000A002721E036
:104E00004FF0000BD84613E019F80400FFF7B3FF8A
:104E100006460298864006F00F0038434FEA8801A4
:104E2000884040EA0B0BC6F30317641E08F1010823
:104E3000B8F1080F01D2002CE6DA50460AF1010A57
:104E400045F820B0002CDBDA0FB145F82A70BDE838
:104E5000FE8F0246880022FA00F000F00F00484B57
:104E6000185C70472DE9F047054688461646002035
:104E700070556C1E81460FE0002707E058F82900A6
:104E80003946FFF7E6FF3055641E7F1C082F01D21C
:104E9000002CF3DA09F10109002CEDDABDE8F08706
:104EA00070B506460025002418E0C4EB0410C0EBE2
:104EB0000420344911F82000B0420CD1C4EB041096
:104EC000C0EB04200A4602EB80014FF471722E48B9
:104ED00024F04CFC2C4D05B102E0641C152CE4D3ED
:104EE00000BF284670BD2DE9F04104460E4600275C
:104EF0003046FFF7D5FF254908600846006810B91D
:104F000000BF00BF7F1E002F7ED1002513E00021CF
:104F100004F6281040F82510483040F8251004F613
:104F2000080040F82510483040F8251004F6B81065
:104F300040F825106D1C122DE9DB04F628111348EA
:104F400000680830FFF729FF04F517610F48006873
:104F50009830FFF722FF04F608010C48006800F5BE
:104F60009470FFF71AFF04F505610848006800F522
:104F7000DC70FFF712FF0BE078AD012088AD012057
:104F8000CC0000204CB0020098AD0120E0000020D1
:104F900000BF00BF0A2204F62811EDA0FFF7EAFEC9
:104FA0000A2204F51761EFA0FFF7E4FE0A2204F6D7
:104FB0000801F1A0FFF7DEFE0A2204F50561F3A067
:104FC000FFF7D8FEF6480068D0F8C00301287DD16D
:104FD000C4F8B809F24A1268D2F8B003C21700EB5D
:104FE000D262531104F6B81252F82320EC4B1B681E
:104FF000D3F8B013CB1701EBD3635B11A1EB431CC8
:10500000012303FA0CF300E08DE01A43E44B1B6824
:10501000D3F8B003C31700EBD3634FEA631C04F665
:10502000B81343F82C20DE4A1268D2F8B403C21732
:1050300000EBD262531104F6B81252F82320D84B79
:105040001B68D3F8B413CB1701EBD3635B11A1EB4F
:10505000431C012303FA0CF31A43D14B1B68D3F80A
:10506000B403C31700EBD3634FEA631C04F6B81311
:1050700043F82C20CA4A1268D2F8B803C21700EBD2
:10508000D262531104F6B81252F82320C44B1B68A5
:10509000D3F8B813CB1701EBD3635B11A1EB431C1F
:1050A000012303FA0CF31A43BD4B1B68D3F8B80372
:1050B000C31700EBD3634FEA631C04F6B81343F83D
:1050C0002C20B74A1268D2F8BC0300E023E0C217D4
:1050D00000EBD262531104F6B81252F82320B04B01
:1050E0001B68D3F8BC13CB1701EBD3635B11A1EBA7
:1050F000431C012303FA0CF31A43A94B1B68D3F892
:10510000BC03C31700EBD3634FEA631C04F6B81368
:1051100043F82C2007E004F6B811A148006800F518
:105120001370FFF73AFE0A2204F6B8119DA0FFF7AC
:1051300021FE3846BDE8F081302804DB392802DC46
:10514000A0F13001C8B2612804DB662802DCA0F1BE
:105150005701C8B2412804DB462802DCA0F1370120
:10516000C8B2704710B5024600E0521C10783028D3
:10517000FBD000E0491C08783028FBD01BE01078F9
:10518000412806DB10785A2803DC10782030C3B29F
:1051900000E013780878412806DB08785A2803DCF9
:1051A00008782030C4B200E00C78A34201D001207E
:1051B00010BD521C491C10780028E0D10878002846
:1051C000DDD100BFF4E7416801F4800121B1012184
:1051D000794A116089054160416801F4000121B1FB
:1051E0000121764A1160C905416070472DE9F047F9
:1051F00080460E4615464FF0FF373046FFF750FE0B
:10520000674908600846006800B900BF284624F0D6
:10521000FDFA81466248006800F5407024F0F6FA15
:10522000814500D20127284624F0F0FA81465C48E7
:10523000006800F5407024F0E9FA814500D90027A4
:1052400000241EE0285DFFF777FF81465449096876
:1052500001F54071085DFFF76FFF814501DA012715
:1052600014E0285DFFF768FF81464D49096801F5A4
:105270004071085DFFF760FF814501DD002705E013
:10528000641C284624F0C2FAA042DBD800BF38468E
:10529000BDE8F0872DE9F0470446894616461F46CB
:1052A000DDF820A04FF0000849462046FFF71BFE1E
:1052B00008B14FF0FF38B8F1000F46D1002505E0E6
:1052C000002104F5206040F825106D1C122DF7DB3D
:1052D00004F520613046FFF760FD31480068D0F8E2
:1052E000C003012803D10020C4F8000803E04FF4F4
:1052F0008070C4F800080020304908602E4908601A
:10530000D4F8000826490968B1F8B013002242EA2F
:105310008151491C0843C4F8000800BF26480068B2
:105320002649096808430028F8D01D4909683A460B
:10533000486804F60801FFF795FD194909685246C7
:10534000486804F50561FFF78DFD4046BDE8F0872C
:10535000435250545F4543435F43555256455F4166
:1053600000000000435250545F4543435F43555291
:1053700056455F4200000000435250545F4543438E
:105380005F504F494E545F58310000004352505413
:105390005F4543435F504F494E545F593100000011
:1053A000E0000020435250545F4543435F43555251
:1053B00056455F4E00000000E4000020E800002099
:1053C0002DE9F05F0446894616461F46DDE90AAB23
:1053D0004FF0000849462046FFF785FD08B14FF021
:1053E000FF38B8F1000F57D100250CE0002104F67A
:1053F000080040F82510483040F8251004F52060DA
:1054000040F825106D1C122DF0DB04F60801304623
:10541000FFF7C3FC04F505613846FFF7BEFC04F551
:1054200020615046FFF7B9FCF9480068D0F8C00386
:10543000012803D10020C4F8000803E04FF4807075
:10544000C4F800080020F3490860F3490860D4F864
:105450000008EF490968B1F8B013002242EA81510F
:10546000491C0843C4F8000800BFEB480068E9493C
:10547000096808430028F8D0E54909685A46486891
:1054800004F60801FFF7EEFCE1490968486804F5F5
:1054900005610C9AFFF7E6FC4046BDE8F09F2DE958
:1054A000F05F04460D4617469846DDE90AAB4FF01B
:1054B000000929462046FFF716FD08B14FF0FF39D5
:1054C000B9F1000F71D100260CE0002104F5206035
:1054D00040F8261004F6080040F82610483040F83E
:1054E0002610761C122EF0DB0A2D09D00B2D07D0CA
:1054F0000C2D05D00D2D03D00E2D01D0052D06D17C
:10550000012204F520613846FFF76EFC13E0062DFA
:1055100005D0072D03D0082D01D0092D06D1022278
:1055200004F520613846FFF75FFC04E004F52061D4
:105530003846FFF732FC04F608014046FFF72DFC21
:1055400004F505615046FFF728FCB1480068D0F823
:10555000C003012803D10020C4F8000803E04FF481
:105560008070C4F800080020AA490860AA490860B1
:10557000D4F80008A6490968B1F8B013002242EA3D
:105580008151491C0843C4F8000800BFA2480068C4
:10559000A049096808430028F8D09D4909685A467F
:1055A000486804F60801FFF75DFC4846BDE8F09F37
:1055B00001F4C062B2F5007F04D14FF48072C0F8EC
:1055C00000280DE0924A1268D2F8C023012A03D1C4
:1055D0000022C0F8002803E04FF48072C0F80028D1
:1055E00000228C4B1A608C4B1A60D0F80028884B34
:1055F0001B68B3F8B03341EA835343F001031A4305
:10560000C0F8002800BF844A1268824B1B681A4306
:10561000002AF8D000BFD0F8042802F00102002AC6
:10562000F9D170472DE9F04FA5B0054689461646D9
:105630001F46DDE92EAB4FF0000849462846FFF72C
:1056400052FC08B14FF0FF38B8F1000F7BD10024B5
:1056500005E0002105F5206040F82410641C122CA0
:10566000F7DB05F520615046FFF797FB0021284640
:10567000FFF79EFF002405E0002105F6B81040F872
:105680002410641C122CF7DB05F6B8116048006882
:1056900000F54070FFF781FB002405E0002105F5CF
:1056A000056040F82410641C122CF7DB4FF4905175
:1056B0002846FFF77DFF002407E005F6080050F8B4
:1056C000240013A941F82400641C122CF5DB504976
:1056D00009685A46486813A9FFF7C4FB002405E08F
:1056E000002105F6B81040F82410641C122CF7DBDA
:1056F00005F6B8114648006800F54070FFF74DFB0D
:10570000002405E0002105F5056040F82410641C24
:10571000122CF7DB0120C5F85008002405E0002119
:1057200005F6080040F82410641C122CF7DB05F67F
:1057300008015046FFF731FB4FF400712846FFF790
:1057400037FF002408E09DE005F6080050F824002B
:1057500001A941F82400641C122CF5DB002405E0AB
:10576000002105F6B81040F82410641C122CF7DB59
:1057700005F6B8112648006800F54070FFF70DFBEC
:10578000002407E013A850F8241005F6080040F89C
:105790002410641C122CF5DB002405E0002105F523
:1057A000056040F82410641C122CF7DB05F5056138
:1057B0003846FFF7F2FA4FF420612846FFF7F8FE6B
:1057C000002405E0002105F6B81040F82410641C00
:1057D000122CF7DB05F6B8110D48006800F5407093
:1057E000FFF7DBFA002405E0002105F5056040F82D
:1057F0002410641C122CF7DB05F505613046FFF719
:10580000CCFA4FF490512846FFF7D2FE00240BE06B
:10581000E0000020E8000020E4000020002105F660
:10582000B81040F82410641C122CF7DB05F6B811F0
:10583000F348006800F54070FFF7AFFA002407E076
:1058400001A850F8241005F5056040F82410641CE8
:10585000122CF5DB4FF420612846FFF7A9FE002447
:1058600007E005F6080050F8240001A941F82400DB
:10587000641C122CF5DBE2490968486801A9309ADA
:10588000FFF7F0FA404625B0BDE8F08F2DE9F04F64
:10589000C9B005468A4616461F46DDF848B1DDF810
:1058A0004C814FF0000951462846FFF71CFB08B118
:1058B0004FF0FF39B9F1000F72D1002405E000214B
:1058C00005F6B81040F82410641C122CF7DB05F61E
:1058D000B811CB48006800F54070FFF75EFA00246D
:1058E00005E0002105F5056040F82410641C122C29
:1058F000F7DB0120C5F85008002405E0002105F67B
:10590000080040F82410641C122CF7DB05F608018F
:105910005498FFF742FA4FF400712846FFF748FE0B
:10592000002407E005F6080050F8240025A941F8F6
:105930002400641C122CF5DB002405E0002105F690
:10594000B81040F82410641C122CF7DB05F6B811CF
:10595000AB48006800F54070FFF71FFA002405E02F
:10596000002105F6080040F82410641C122CF7DB17
:1059700005F608013046FFF710FA002407E025A8D5
:1059800050F8241005F5056040F82410641C122C12
:10599000F5DB4FF420612846FFF70AFE002408E0FB
:1059A0002AE105F6080050F8240037A941F8240040
:1059B000641C122CF5DB002405E0002105F6B8106C
:1059C00040F82410641C122CF7DB05F6B8118C4843
:1059D000006800F54070FFF7E0F9002405E00021C1
:1059E00005F6080040F82410641C122CF7DB05F6BD
:1059F00008014046FFF7D1F9002407E025A850F838
:105A0000241005F5056040F82410641C122CF5DB09
:105A10004FF420612846FFF7CBFD002407E005F690
:105A2000080050F8240025A941F82400641C122C19
:105A3000F5DB51462846FFF756FA002407E037A861
:105A400050F8241005F5206040F82410641C122C36
:105A5000F5DB00212846FFF7ABFD00240EE005F63C
:105A6000080050F8240013A941F8240005F505604A
:105A700050F8240001A941F82400641C122CEEDB2C
:105A800051462846FFF72FFA002408E0002105F6CA
:105A9000080040F82410483040F82410641C122CF0
:105AA000F4DB05F608013846FFF777F905F50561DF
:105AB0005846FFF772F9002407E025A850F8241093
:105AC00005F5206040F82410641C122CF5DB002141
:105AD0002846FFF76DFD00240EE005F6080050F89B
