:020000041000EA
:1000000000000208FB3F00100D0000005D400010E2
:1000100000000000000000000000000000000000E0
:100020000000000000000000000000005940001027
:10003000000000000000000059400010594000106E
:10004000594000105940001059400010594000100C
:1000500059400010594000105940001059400010FC
:1000600059400010594000105940001059400010EC
:1000700059400010594000105940001059400010DC
:1000800010B5064C2378002B07D1054B002B02D06E
:10009000044800E000BF0123237010BD2C160008A7
:1000A00000000000B0990010044B10B5002B03D0E5
:1000B0000349044800E000BF10BDC0460000000036
:1000C00030160008B0990010012801D101207047B6
:1000D0000220FCE710B51022044904F00FFB0028B1
:1000E00001D1013010BD0220FCE7C046488B001052
:1000F00004280AD0052804D101390800411E88418E
:100100007047401A41424841FAE70120F8E7806809
:100110002838704730B587B004000D008168103969
:10012000102302AA00F09CFF00284BDB01283FD0DF
:1001300002A8FFF7CFFF28702000FFF7E8FF0100BB
:1001400001236A460732200000F08AFF00283CDBCA
:100150006B4607331B780F221A406A701B092B71FC
:10016000012801D0042A03D901236B7000232B71CD
:10017000A1682039AA1C0123200000F071FF00288B
:1001800025DB012817D0A878FFF79EFFA870A1688B
:100190001839EA1C0123200000F062FF002818DB58
:1001A00001280BD0E878FFF78FFFE87000200AE005
:1001B00003232B70C0E70323AB70E8E70323EB7046
:1001C000002000E0012007B030BD0120FBE7012046
:1001D000F9E70120F7E710B582B00C00C0B201A921
:1001E00000F040FE002803D00124200002B010BD22
:1001F00021000198FFF78EFF0400019800F046FEF1
:10020000F3E7000030B585B002A90120FFF7E3FF56
:10021000002858D169460230FFF7DDFF002855D18C
:10022000002407E02B79042B28D002AA927893426D
:1002300024D00134022C3CD863001B195A00244DF1
:10024000AD1802AB19782878FFF752FF0028F0D0DC
:100250006B4619786878FFF74BFF0028E9D0AB7838
:10026000042B03D002AAD2789342E2D1EB78042B7C
:10027000D8D06A46D2789342DBD1D3E7154B1B68BE
:10028000D8686B79022B07D0032B10D0042B01D038
:10029000114A02E0114A00E0114A124904F0B6F98D
:1002A0006879831EDBB2022B0ED9FF200CE00E4AC8
:1002B000F3E7084B1B68DB68172201210B4804F0A9
:1002C00007FA012000E0FF2005B030BDFF20FBE76A
:1002D000588B0010CC1000087C8B0010908B001005
:1002E000748B0010988B00106C8B0010B08B00107A
:1002F000F0B5A9B0140001932F9E02A803F042FEAE
:10030000002102A803F043FE319B002B02D0329B58
:10031000002B07DC2289E3689C4662446789BF188A
:10032000002513E01A00319902A803F03EFEF1E720
:1003300023002E9A2900019800F0AAFD002811D16F
:1003400022002E9902A803F030FE2D19BD4204D2DE
:100350007C1BB442ECD93400EAE7309902A803F0E0
:1003600031FE002029B0F0BD70B59EB016001D0012
:10037000259B0493249B039306AB0293239B019339
:10038000229B00932B00FFF7B3FF041E3ED1269B58
:10039000002B04D0202206A9180004F0BEF9002387
:1003A00000931E4B2A00310016A800F00DFC041E1D
:1003B0002CD106001CAB72226A441DA916A800F0BD
:1003C00075FC002820DB1ADC1CAB1B88102BF1D13C
:1003D00062336B441B88202B1BD10EAA1D99280069
:1003E00000F056FD002817D120220EA906A804F01F
:1003F00085F901260028DDD00124644206E0002EA4
:1004000004D10124644201E00124644220001EB0B2
:1004100070BD01246442F9E70400F7E7FFFF000024
:1004200010B50B4B02689A4201D0002010BDC26883
:100430000389D843824208D8D41801200028F5D077
:100440008B68A342F2D80020F0E70020F6E7C04610
:100450003DB8F39610B5006A00F0D6FD10BDF0B5BA
:1004600083B005000F00002000F0D7FDC0B201A945
:1004700000F0F8FC041E1DD1019800F0DDFD06001F
:10048000019800F003FD2C20784328180023032B4B
:1004900005D8C25C964208D10133DBB2F7E70123ED
:1004A000002B04D0200003B0F0BD0023F8E70124A6
:1004B0006442F7E701246442F4E710B582B00B0010
:1004C000FA22D2000192012904D002290ED0012083
:1004D00002B010BD426A2830040001A9180000F0E3
:1004E000DFFD0028F4D1019B2360F1E7026D543059
:1004F0000400F2E770B504000121FFF7DEFF0028D9
:1005000002D00125280070BD02212000FFF7D5FF91
:10051000051E01D00125F5E72000FFF79BFFE065F0
:10052000F0E7000000B587B01300002004900390AE
:100530000290802252000192054A00920A00002196
:10054000FFF712FF002801D107B000BD0320FBE731
:10055000A8970008F0B585B005000C0001920020B6
:1005600000F05BFDC0B203A900F07CFC002839D18B
:100570002C3060432F1821002800FFF770FF00285F
:1005800027D03B69DB062BD4039E31003800FFF7F0
:1005900047FF00280CD1002C13D1144B1B68D868DE
:1005A000002C14D1124A134904F030F8012511E04F
:1005B000019B320039002800FFF7B4FF051E09D067
:1005C000E9E703988268002100F0E4FCE5E70A4AC5
:1005D000E9E70125039800F059FC280005B0F0BDBB
:1005E0000125F7E701256D42F7E7C046CC1000086A
:1005F000848D0010988D00108C8D001070B5050052
:100600000E000020FFF7FEFD0400022805D004289C
:1006100003D0032801D0200070BD32000121280042
:10062000FFF798FF012803D00028F4D00524F2E753
:100630000400F0E7F8B505000F0016000024012CB7
:1006400011DC2C226243AA1833002100280000F09C
:1006500021FA002801D10134F1E7002C04DD002F3C
:1006600002D1002000E00020F8BD002383718360E8
:10067000C3600133437103600371C37170474379F1
:10068000012B01D0002070470368012B01D000200E
:10069000F9E70379012B01D00020F4E70120F2E70C
:1006A00070B504000D00FFF725FF00280FD10022D0
:1006B00000212000FFF7BEFF002814D1200000F029
:1006C00007FA00281AD158230122E2540AE01F4BEE
:1006D0001B68D868FA22D2001D4903F097FF5823FF
:1006E0000122E25470BD194B1B68D86800221949D9
:1006F00003F08CFF58230122E254F3E72800FFF7B0
:10070000B4FF2800FFF7BBFF00280DD0EB79012BC9
:1007100010D02A0001212000FFF71CFF002810D074
:1007200058230522E254DDE70B4B0C4A0C490D48D7
:1007300003F04EFF29002000FFF760FF5823E0542C
:10074000D0E7EA795823E254CCE7C046CC10000841
:10075000C48C00100C8D00103C8D0010EC8B001030
:1007600011060000408D001010B500F013FC10BD04
:10077000F0B5D646474680B583B0009101929A46BF
:100780000A9B98460B9F002512E05346E918230068
:10079000114A009800F07CFB002818D14346E91864
:1007A00023000D4A019800F0A9FB002811D12D1952
:1007B000BD4206D27C1B8023DB009C42E5D91C0095
:1007C000E3E7002003B00CBC90469A46F0BD012040
:1007D000F8E70120F6E7C046A8160008F0B5C646BF
:1007E00000B584B007003F4C2368DB683422012148
:1007F0003D4803F06DFF2368DB68202201213B4860
:1008000003F066FF03A9012000F02CFB00281AD199
:1008100002A9022000F026FB00281AD1BB6A9846E4
:1008200000250024444521D2E3007A6A94466344BB
:100830005E68320029000398FFF796FF00280ED16A
:10084000AD190134EEE72A4B2A4A2B492B4803F015
:10085000BFFE274B274A2A49284803F0B9FEE52165
:10086000234B244A8900254803F0B2FE1D4B1B6828
:10087000D8682A00234903F0C9FE0195002300939C
:10088000039A02993800FFF773FF3B6D5A68002105
:100890000298FFF769FF002818D17B6D013B3A6D84
:1008A000DB00D31811681A68511A5A680298FFF7CA
:1008B0005BFF002810D1039800F0E8FA029800F0DE
:1008C000E5FA002004B004BC9046F0BD084B094A8C
:1008D0000D490A4803F07CFE054B064A0B490748C0
:1008E00003F076FECC1000081C8C0010548C001015
:1008F000788C0010C88B00108A030000408D001017
:100900008E030000808C0010C9030000D10300009A
:1009100010B5FFF763FF002800D110BD024B034A5A
:100920000349044803F054FE788C0010D88B001063
:100930001F050000408D0010F0B585B004000F00C9
:100940006022002103F0F2FE414B6362414B2365BC
:10095000012676420025012D14D82900002000F040
:100960005CFBC0B22C2169432031611800F07AFA97
:10097000061E01D10135EEE7374B384A3849394870
:1009800003F026FE69462000FFF78AFE5823E35C49
:100990006A46D371042B07D8022B08D2012B0CD046
:1009A0005823FF22E25408E0052B06D0F8E76946F9
:1009B0002000FFF7ADFF061E16D15823E35CFF2B86
:1009C00018D0012B24D1284B22689A4228D110221A
:1009D0000021684603F0AAFE236A5A783A715B68E0
:1009E000BB603C6000252EE01B4B1C4A1F491D4884
:1009F00003F0EEFD1E4B1B68DB680E2201211D4833
:100A000003F066FE1C4B154A1C49164803F0E0FD36
:100A10006A4600212000FFF70DFE061EE2D1D2E754
:100A2000134B1B68D86800232200154903F0EEFD24
:100A30000326D7E70122521B2C235343E318186ADD
:100A400000F024FA0135012DF4D9300005B0F0BDD5
:100A5000A81A000828590008788C00100C8C001087
:100A600087060000408D00103DB8F396C7060000D1
:100A7000CC100008C48D00103C8D0010DE06000074
:100A8000D48D001010B501000148FFF755FF10BDCF
:100A90004816000810B582B01400002000F0BDFA1E
:100AA000C0B201A900F0DEF9002806D001240198A7
:100AB00000F0ECF9200002B010BD2023220000213C
:100AC000019800F0E5F9041EF1D00124EFE70000E1
:100AD000F8B5CE46474680B5856A436D9C46FA23F5
:100AE000DB009D4207D89C4505D800239946002489
:100AF000002100221AE0304B1B68DB683122012103
:100B00002E4803F0E5FD00200CBC90469946F8BD48
:100B1000DE00476AB846464476689219E600076DDB
:100B2000B84646447668891901330134AB4201D393
:100B3000644530D28A42EBD016D2DE00476AB8460E
:100B40004644766892194E46022E03D001330126A0
:100B5000B146EBE7184B1B68DB68392201211848C6
:100B600003F0B6FD0020CFE7E600076DB846464427
:100B7000766889194E46012E03D001340226B1460B
:100B8000D4E70D4B1B68DB68392201210C4803F0C8
:100B90009FFD0020B8E7AB4201D1644509D0064B68
:100BA0001B68DB6830220121064803F091FD00201C
:100BB000AAE70120A8E7C046CC100008FC8D001071
:100BC000308E00106C8E0010F0B5D6464F4680B5C2
:100BD00085B004000E00170099460CAB1B789A46AE
:100BE000002842D0002944D0002A46D00D89CB6885
:100BF0009C466544042303AA2900380000F048F904
:100C0000019000283DD103AB1A88264B9A421CD094
:100C10007389002B3DD103AB1A88234B9A423CD1F8
:100C2000266067604B4623815346A37273895B1924
:100C3000E36003AA52889B1863610435256101981B
:100C400005B00CBC91469A46F0BD738903AA518841
:100C50008B421AD149190423380000F019F90028F1
:100C6000D9D001235B420193E9E701235B42019361
:100C7000E5E701235B420193E1E701235B42019336
:100C8000DDE701235B420193D9E701235B42019336
:100C9000D5E701235B420193D1E701235B42019336
:100CA000CDE7C0460869000007690000F0B583B0D1
:100CB00004000F0016001D00002848D00368002B18
:100CC00048D04368002B20D1012040423BE0042360
:100CD00001AA2169606800F0DBF800283DD1A37A01
:100CE000002B03D02369E268934239D223891D4A3D
:100CF000934218D001AA1288934214D001AB5B88AA
:100D000022699446634404332361236962699342F0
:100D10001BD222685289002AD9D0E2689A42D6D1E1
:100D200004332361D3E7002D02D001AB1B882B8055
:100D3000236904333B6001AB5B88338022699446AE
:100D400063440433236103B0F0BD0120FBE70120BD
:100D50004042F8E701204042F5E701204042F2E737
:100D60000120F0E7FFFF000010B502F0BBFF044CCC
:100D7000200001F0A3FC200001F0A0FC10BDC04643
:100D80008002314070B5846803681B89E4180F4DF8
:100D90002B68DB68322201210D4803F099FC2B6897
:100DA000D86822000B4903F031FC2B68DB68222253
:100DB0000121094803F08CFC642002F041FBFFF79D
:100DC000D3FF200002F086FE70BDC046CC100008A4
:100DD000A08E0010D48E0010F48E001010B584B0D8
:100DE00002F068FD02F08CFD02F0A0FD62B6E12089
:100DF000400202F059FF002800D001BE154B1B68CD
:100E0000DB6822220121144803F062FC01A8FFF7ED
:100E100039FE00280CD10F4B1B68DB682F22012103
:100E20000E4803F055FC01A8FFF7ACFF01240CE0CD
:100E3000084B1B68DB6838220121094803F048FC95
:100E4000002402E0002002F029FC002CFAD130BF7F
:100E5000FBE7C046CC100008188F00103C8F001034
:100E60006C8F001010B500229300074C1B59002B0B
:100E700007D01C78844201D00132F5E70B600020D6
:100E800001E00120404210BD8010000870470000C2
:100E900070B5150044688C420CD9CA1894420FD919
:100EA000611842787F2A11D11A00280003F035FC1E
:100EB000002070BD0B4B0C4AE8210C4803F088FB66
:100EC0000B4B094AE921094803F082FB094B1B68D7
:100ED000D868012464422200074903F097FB2000F0
:100EE000E7E7C0462C900010A88F0010409000103B
:100EF00084900010CC1000089C900010F8B51700EA
:100F000044688C4209D9CA1894420DD964184278B1
:100F10007F2A10D001204042F8BD1021174B184AFB
:100F2000FF31184803F054FB8821174B144A49003D
:100F3000144803F04DFBDA0505D1E2050AD15E0A3B
:100F40000025002017E01C21104B0D4AFF310D48F1
:100F500003F03EFB8E210E4B094A4900094803F07D
:100F600037FB3900200001F02FFA80239B009C46BC
:100F7000644467440135B542F3D3CDE72C900010AB
:100F8000B88F00104090001084900010C4900010A2
:100F9000E490001070B545688D420BD98C18A542BD
:100FA0000FD9D40514D16D1843787F2B17D00120A9
:100FB000404270BD42210F4B0F4AFF310F4803F0F2
:100FC00007FBA1210E4B0C4A49000C4803F000FB23
:100FD00044210C4B084AFF31084803F0F9FA540A3F
:100FE000002004E0013C6002401901F09BF9002C54
:100FF000F8D1DEE72C900010CC8F0010409000104C
:1010000084900010C490001043787F2B02D0012000
:101010004042704780208000FBE701290AD0022966
:1010200006D0002902D00120404200E00120704794
:101030000320FCE70220FAE710B543787F2B01D1AB
:10104000002010BDE721034B034A4900034803F089
:10105000BFFAC04610900010E08F001040900010C2
:10106000F0B583B0009015001E00FFF711FF01904E
:10107000002810D10024B44208D22F5D0098FFF759
:10108000DBFF874204D10134E4B2F4E7012301938A
:10109000019803B0F0BD01235B420193F8E7000023
:1010A00070B50024A3001B4D5B59002B04D01D78A4
:1010B000854212D00134F5E71800002B24D0437884
:1010C0007F2B24D18368144CA44663445D0A0B68CB
:1010D000AB4204D34468002011E01800EDE78521FD
:1010E0000E4B0F4A89000F4803F072FAC300D31861
:1010F0008026B6005E601C60B44664440130A8429D
:10110000F4D30D60002070BD01204042FBE70120B8
:101110004042F8E780100008FF010000189000101E
:10112000F88F001040900010F0B51D4C2568002D80
:101130002CD0AC6B2418266807002C6D2418A41B37
:10114000661EB441E4B2A446AC683C1926680F247C
:101150003440062CF8D81206EC68041913432360B7
:1011600063460B4311D0AB68FB181B68DB03FAD551
:101170000C4B1A682923D35C1F2B09D8084B1B681A
:101180001B681B181B681B06F8D4F0BD0026D3E7AC
:10119000034B1B681B681B181B68002BF8D1F4E776
:1011A000A8980008C09A000810B50400E0239B0529
:1011B00080220021FFF7B8FFD0239B058022002169
:1011C0002000FFF7B1FFC0239B05802200212000F3
:1011D000FFF7AAFFB0239B05802200212000FFF724
:1011E000A3FFA0239B05802200212000FFF79CFF86
:1011F00090239B05802200212000FFF795FF80238C
:101200009B05802200212000FFF78EFFE0235B0575
:10121000802200212000FFF787FFC0235B0580228A
:1012200000212000FFF780FFA0235B058022002122
:101230002000FFF779FF80235B058022002120003A
:10124000FFF772FFC0231B05802200212000FFF75B
:101250006BFF80231B05802200212000FFF764FF25
:101260008023DB04802200212000FFF75DFF0023A4
:10127000802200212000FFF757FF0B4B1B689B08C3
:101280000A4A116829228A5C1F2A0AD90D22934032
:10129000F02292051343802200212000FFF744FF33
:1012A00010BD0C22F3E7C046AC980008C09A0008B5
:1012B000054B1A682923D35C1F2B03D9034A044B1F
:1012C0001A607047034AFAE7C09A00086491001058
:1012D000A898000810910010F0B583B01400404B9E
:1012E0001B68002B70D0002941D000296ED0002C43
:1012F0006ED080221202944200D96CE0802212014A
:10130000944255D03CD980229201944252D045D982
:101310008022D20194424FD08022120294423BD1CB
:101320000027304A12682925565D1F2E48D9651EB0
:101330000191294251D11F2E02D93F022A4947501B
:101340009B6B1B1801991960A3082921525C1F2A65
:1013500038D80C2293401A00F0239B0513438022B7
:101360000021FFF7E1FE214B1C60002031E0002A44
:10137000BBD11A6D11181B4A1268946CA400B4E713
:101380008022920094420FD08022D20094420DD04D
:1013900080225200944211D015481AE08022520156
:1013A0009442F9D17027BCE77E27BAE77C27B8E7DB
:1013B0007827B6E76027B4E74027B2E77F27B0E792
:1013C0000C4DB5E70D22C5E7094802E0084800E0EA
:1013D000074803B0F0BD0648FBE70548F9E7C046FB
:1013E000A8980008C09A000888140000AC9800086B
:1013F0000B003200FF3F000010B50400FFF758FF5C
:10140000194B1A682923D35C1F2B10D8174B236064
:10141000174B1A68536B1B1901211960154B1B6878
:10142000002B16D02000FFF7BFFE002010BD236860
:10143000114A134023600E4B1B685B681B190F4A4F
:101440001A60226880231B06134323600323A360D2
:10145000DEE7116D6118044B1B689A6C9200200046
:10146000FFF73AFFDEE7C046C09A0008030000809D
:10147000A8980008AC980008FFFFFE7F010002005A
:10148000084B1A682923D35C1F2B07D9002303605C
:101490008360054B00221A60002070470023036020
:1014A000F7E7C046C09A0008AC980008F0B50C4CAD
:1014B00025680700AC68241826680F243440042CE3
:1014C000F5D8E868C019074C0460E868C0190160E5
:1014D000E968C9190A60EA68D7193B60F0BDC046DF
:1014E000A898000810020042F0B50E4C25680700CD
:1014F000AC68241826680F243440032CF5D8E8681B
:10150000C019094C0460E868C0190160E968C9198C
:101510000A60EA68D2191360EB68DF19059B3B602B
:10152000F0BDC046A898000810320043F0B505AAE7
:1015300017780A4A1468A268121815680F222A4000
:10154000072AF6D809060222BA40114301229A401E
:10155000E3681E1811433160F0BDC046A89800082A
:1015600070B50D4A14680600A268121815680F229B
:101570002A40072AF5D8090603220598824011431C
:10158000022204988240114301229A40E3689E1986
:101590001143316070BDC046A898000810B582B0F4
:1015A00004001000002B01D102B010BD0A000100A0
:1015B0002000FFF77BFF08230093043B002250210B
:1015C0002000FFF7B3FF044B1B681B681B191B6847
:1015D000DB06F8D4E8E7C046A898000810B582B04A
:1015E0000400181E01D102B010BD1300020020003B
:1015F000FFF75CFF0C230093043B002251212000E5
:10160000FFF794FF034B1B681B681B191B68DB0665
:10161000F8D4E8E7A8980008F0B5002B50D09C4615
:10162000284C24680500A668361837680F263E4007
:10163000042EF5D8862676018659002EFADBE0685E
:101640002818214E0660E06828180260E268AA188F
:1016500060461060A268521910680F220240042AE6
:10166000F8D8E268521919481060E26852191160FE
:10167000E2685219614611600CE0A268AA1811686C
:101680000F220A40062AF8D8E268AA181049116009
:10169000103B9BB20F2BF0D8002B0CD0A268AA18DD
:1016A00011680F220A40062AF8D81B04E268AA181B
:1016B00008490B4313602368EB181B68002BFAD111
:1016C000F0BDC046A8980008080000710C0000702A
:1016D00008C0104008C00040F0B5002B3FD09C4629
:1016E0001F4C24680500A668361837680F263E4050
:1016F000042EF5D8E06828181A4E0660E06828180D
:101700000160E1686918604608600DE0A168691829
:1017100008680F2101400629F8D8E16869181248C5
:1017200010430860103B9BB20F2BEFD8002B11D059
:10173000A168691808680F2101400629F8D81B0420
:10174000C02109020B43E16869181A438423DB05B1
:101750001A430A602368EB181B68002BFAD1F0BD0E
:10176000A89800080C00007000C0104210B582B0AC
:101770000400100007234A681340C0229200A350BF
:101780000A698B69009201002000FFF7ADFE0C236F
:101790000193043B0093043B00224C212000FFF7FF
:1017A000DFFE044B1B681B681B191B685B07F8D422
:1017B00002B010BDA898000810B5002B01D0002978
:1017C00000D101BE062A00D998E090004C4C205868
:1017D00087468B6018004030086154338B610A6083
:1017E00000234B60474BCB624023CB602C3B4B61CB
:1017F0004B622D33FF33CB61002010BD8B6018008E
:101800004030086160338B610A6001234B603E4BBE
:10181000CB624023CB60203B4B61043B4B62E43303
:10182000CB610020E9E78B6018004030086160332D
:101830008B610A6001234B60344BCB624023CB6049
:10184000203B4B614B62E033CB610020D5E78B60DE
:10185000180080300861C0338B610A6002234B603E
:101860002B4BCB628023CB60403B4B61103B4B62E8
:10187000A0239B00CB610020BFE78B601800803065
:101880000861C0338B610A6002234B60214BCB623D
:101890008023CB60403B4B614B62A0239B00CB611C
:1018A0000020AAE78B60180080300861C0338B618C
:1018B0000A6002234B60184BCB628023CB60403B15
:1018C0004B61243B4B62A0239B00CB61002094E73B
:1018D0008B60180080300861C0338B610A6002237E
:1018E0004B600E4BCB628023CB60403B4B61203B77
:1018F0004B62A0239B00CB6100207EE708487CE779
:10190000B8910010D4910010E891001008920010D6
:101910002892001068920010A8920010E89200101F
:101920000B00320010B500290DD000238B620B6232
:101930004B69002B09D00C69CA6A9BB22100FFF7E2
:101940002DFE002010BD0248FCE70148FAE7C04622
:101950000B003200F0B5C64600B582B001900C0015
:1019600017001D00002930D0002A30D0CE68002E8C
:101970002FD0002B2FD00B6A5B190B62896A13E002
:10198000731A9846A3689C46614443469BB23A004A
:101990000198FFF703FEA26821000198FFF7E6FE19
:1019A0004346ED1A474400216B189E42E8D9A362D2
:1019B000002D01D100200FE0A3685918ABB23A0006
:1019C0000198FFF7EBFD002006E0054804E004481D
:1019D00002E0034800E0002002B004BC9046F0BDE5
:1019E0000B003200F0B5DE4657464E464546E0B5A0
:1019F00083B000900E00140000295ED0002A5ED053
:101A00000D698B689846CF688B6A9A460B6ADB0033
:101A10009946802F2DD0382301938023424651468A
:101A2000535401314144BBB29B4652469B1A9BB270
:101A3000013B9BB200220098FFF7D0FD019B53456C
:101A40001AD93B1F4A46120E4146CA544B461A0C3D
:101A5000FB1ECA544B461A0ABB1ECA54013F4A46D3
:101A6000CA55424631000098FFF780FE736A9B0812
:101A700019E070230193D0E7424631000098FFF748
:101A800075FE5B46002241460098FFF7A7FDD8E7A8
:101A9000EA782270AA7862706A78A2702A78E27076
:101AA00004340435013B002BF2D1002003B03CBCD0
:101AB00090469946A246AB46F0BD0248F6E701487B
:101AC000F4E7C0460B00320010B5002B01D000290E
:101AD00000D101BE062A00D970E09000384C205891
:101AE00087468B6040330B610A6069234B60354B3E
:101AF000CB624023CB602C3B4B614B62002010BD7E
:101B00008B6040330B610A606A234B602E4BCB62C3
:101B10004023CB60203B4B614B620020EFE78B60A2
:101B200040330B610A606A234B60284BCB62402331
:101B3000CB60203B4B61043B4B620020DFE78B60B6
:101B400080330B610A606B234B60214BCB62802397
:101B5000CB60403B4B614B620020D0E78B60803311
:101B60000B610A606B234B601A4BCB628023CB6006
:101B7000403B4B61103B4B620020C0E78B608033E1
:101B80000B610A606B234B60134BCB628023CB60ED
:101B9000403B4B61203B4B620020B0E78B608033C1
:101BA0000B610A606B234B600C4BCB628023CB60D4
:101BB000403B4B61243B4B620020A0E708489EE776
:101BC000289300104493001078930010589300104D
:101BD000D893001098930010589400101894001097
:101BE0000B00320010B500290DD000238B620B6270
:101BF0004B69002B09D00C69CA6A9BB22100FFF720
:101C00000BFD002010BD0248FCE70148FAE7C04682
:101C10000B003200F0B5DE4657464E464546E0B56D
:101C200083B09446002900D154E1002A00D153E149
:101C3000CE68002E00D151E1002B00D150E10A6A9C
:101C4000D2180A628A6A9046A64A14680500A268F9
:101C5000121817680F223A40062AF5D8E26882184F
:101C6000C827FF051760226852191268002AFAD1A6
:101C70000A6993464A699146A268521917680F2269
:101C80003A40042AF8D8E2685219974F1760E26880
:101C900052195F461760E26852194F4617604A6949
:101CA0009146A268521917680F223A40062AF8D8BE
:101CB000E26857190197CC27FF05BA464F465246AE
:101CC00017433A00019F3A60226852191268002AAD
:101CD000FAD1A268521917680F223A40062AF8D89A
:101CE000E2685219CA27FF0517604246002A2AD027
:101CF0008A689146A268AA1817680F223A40042AF7
:101D0000F8D8E268AA18784F1760E268AA184F4618
:101D10001760E268AA1847461760A268AA181768F1
:101D20000F223A40062AF8D8E2689246AA44CC2705
:101D3000FF05424617433A0057463A602268AA1800
:101D40001268002AFAD1A268AA1817680F223A402E
:101D5000042AF8D8862252018258002AFADBE26867
:101D6000AA1862481060E268AA1860461060E2682B
:101D7000AA18136024E04246B01AA268AA1817688D
:101D80000F223A40062AF8D842461702E2689446E3
:101D9000AC440743CC22D2053A4367463A604A68CE
:101DA0009046A268AA1817680F223A40062AF8D867
:101DB000E268AA1847463F0617601B1A00229046A1
:101DC00042469A189642D6D98A62002B14D0A2684D
:101DD000AA1810680F220240062AF8D842461202BA
:101DE000E06828181343CC22D2051343036023680C
:101DF000EB181B68002BFAD1886A002824D08E6863
:101E0000A368EB181A680F231340042BF8D8E36873
:101E1000EB18374A1A60E368EB181E60E368EB18AA
:101E20001860886AA368EB181A680F231340062B02
:101E3000F8D8E368EB18CE22D20502431A60236873
:101E4000EB181B68002BFAD14869A368EB181A68D5
:101E50000F231340042BF8D8E368EB18244A1A60C8
:101E6000E368EB185A461A60E368EB181860A36839
:101E7000EB181A680F231340062BF8D8E368EB1809
:101E8000CA22D2051A604969A368EB181A680F23A1
:101E90001340062BF8D8E368EB18CE22D2050A438C
:101EA0001A602368EB181B68002BFAD1A368EB18A3
:101EB0001A680F231340062BF8D8E368ED18CA23DD
:101EC000DB052B60002003B03CBC90469946A2463F
:101ED000AB46F0BD0748F6E70648F4E70548F2E7E9
:101EE0000020F0E7A89800080800007008000071C2
:101EF0000C0000700B003200F0B5DE4657464E462F
:101F00004546E0B583B09046002900D16EE1002A35
:101F100000D16DE1CF688B6A9C460A6A530F01932A
:101F2000D200802F00D15EE138239946B14B1B6867
:101F300004009D682D182E680F253540062DF5D814
:101F4000DD684519C826F6052E601D682D192D6817
:101F5000002DFAD10D69AB464D69AA469D682D1931
:101F60002E680F253540042DF8D8DD682D19A24EB6
:101F70002E60DD682D195E462E60DD682D195646EF
:101F80002E604D69AB469D682D192E680F25354092
:101F9000062DF8D8DD682D190095CC26F605B24639
:101FA0005E4655462E43009D2E601D682D192D68F6
:101FB000002DFAD19D682D192E680F253540062D6C
:101FC000F8D8DD682D19CA26F6052E608D68AB4657
:101FD0009D682D192E680F253540042DF8D8DD6831
:101FE0002D19854E2E60DD682D195E462E60DD6848
:101FF0002D1966462E609D682D192E680F253540D7
:10200000062DF8D8DD68AA46A244CC26F60565461A
:102010002E4355462E601D682D192D68002DFAD1CE
:102020009D682D192E680F253540062DF8D8654678
:102030002D02AA46DD68AB46A344704E55462E439A
:102040005D462E60E14512D84D68AC469D68651925
:102050002E680F253540062DF8D8DD6865196646CF
:1020600036062E601D6865192D68002DFAD17D1F7A
:10207000AC466D462D79A9469D6865192E680F25D9
:102080003540062DF8D865462D02DE68B246A244DA
:102090004E463543D026F6053543564635603D1F3E
:1020A000A946150EAC469D6865192E680F2535406A
:1020B000062DF8D84D462D02DE68B146A14466468D
:1020C0003543D026F60535434E463560FD1EA946FC
:1020D000150CEDB2AC469D6865192E680F2535408C
:1020E000062DF8D84D462D02DE68B146A14466465D
:1020F0003543D026F60535434E463560BD1EA9460C
:10210000150AEDB2AC469D6865192E680F2535405D
:10211000062DF8D84D462D02DE68B146A14466462C
:102120003543D026F60535434E463560013FD2B2E1
:1021300094469A68A21815680F222A40062AF8D8F1
:102140003A02DD68651966463243D027FF053A43F7
:102150002A604E689A68A21815680F222A40062A3B
:10216000F8D8DA68A218360616601A68A21812683B
:10217000002AFAD14E6A9A68A21815680F222A40DE
:10218000042AF8D8DA68A2181D4D1560DA68A2187A
:1021900045461560DA68A21816609A68A218156894
:1021A0000F222A40062AF8D8DA68A218CA25ED05B7
:1021B00015604D6A9A68A21811680F220A40062A13
:1021C000F8D8DB68E418CE23DB052B4323600D4BE6
:1021D000C358002BFBDB002003B03CBC9046994663
:1021E000A246AB46F0BD702399469FE60648F3E74A
:1021F0000548F1E7A8980008080000708000006812
:102200000C000070F01000000B003200014B186051
:102210007047C046C09A0008C00543425841C0B24A
:10222000704700001F4B984232D00ED91E4B984287
:1022300034D01BD91D4B984226D01D4B984225D037
:102240001C4B98421ED01C481BE0402822D007D9C6
:10225000802821D080235B009842F4D1114810E0FF
:1022600000280DD01028EED114480AE0A0231B0648
:10227000984205D0124B9842E5D1A020C00300E05F
:10228000002070470F48FCE70F48FAE70F48F8E7CF
:102290000448F6E70E48F4E70E48F2E7A420C0032E
:1022A000EFE7C04606005200010000F0040000F015
:1022B000050000F0030000F0FF0052000100500094
:1022C000090000A001005200020052000300520069
:1022D000020050000500520010B50F4B1A682E2363
:1022E000D35C002B00D101BE0B4B1C68B023E3581C
:1022F000226A944663441B68002B0ADB074B18686C
:10230000FFF790FF6268012393609368002BFCD174
:1023100010BD0348FCE7C046C09A0008B09800080A
:102320000200500010B50400FFF776FF00283CD0F3
:1023300001F016FB1E4B1F4A1A605C6000229A6077
:10234000DA601D4B1A685023D35C002B05D1802026
:102350000021400006F0E8FB28E0002000F090FF9C
:10236000154B1B681C6880229B58E4182168090ED5
:1023700001314B08C01801F07FFE23681B0AFF21C2
:10238000194001314B08181801F076FEFA21890036
:1023900001F072FE0100094801F06EFE084BC11801
:1023A0008020400006F0C0FB00E0064810BDC0469B
:1023B000B09800080001001CC09A000860F5900069
:1023C000980800000600520070B504000D00FFF7E9
:1023D00023FF00283ED0002D3ED001F0C1FA1F4B54
:1023E0001F4A1A6000225A609C60DD601D4B1A680B
:1023F0004E23D35C002B05D180200021400006F045
:1024000093FB28E0002000F03BFF164B1B681C6884
:1024100080229B58E4182168090E01314B08C0182E
:1024200001F02AFE23681B0AFF21194001314B08E5
:10243000181801F021FEFA21890001F01DFE0100AB
:10244000094801F019FE094BC1188020400006F030
:102450006BFB00E0064870BD0548FCE7B09800083B
:1024600000010005C09A0008C0EA210148260000CA
:1024700006005200F0B5CE46474680B5814600289A
:1024800000D113E1002A00D112E1072900D901BED1
:102490001368012B00D901BE0F2354689C4300D060
:1024A00001BE137A1F24A34300D001BED368032BBF
:1024B00000D901BE1369012B00D901BE5369012B5C
:1024C00000D901BE9369012B00D901BED369032B4A
:1024D00000D901BE136A012B00D901BE536A012B3A
:1024E00000D901BE936A012B00D901BED36A032B28
:1024F00000D901BE136B072B00D901BE1368072951
:1025000000D901BE012B00D901BE002B00D0BDE0D7
:1025100001338B40484643605768072900D901BE04
:102520000F233C009C4300D001BE8E00614B1C6811
:102530007923E55C4D442C686A3B1800B040844325
:102540003B40B34023432B60177A072900D901BED3
:102550001F233800984300D001BE564B1C68A36966
:102560004846C31ADB0964691B01E318032900D834
:1025700091E00C1F5D68E4001F26A640B5431F26AE
:102580003E40A64034002C435C60D768082900D93F
:1025900001BE032F00D901BE4C00464B1D687823B5
:1025A000EE5C4E443568753B1800A04085433B40C7
:1025B000A3402B4333601769082900D901BE012FBE
:1025C00000D901BE4B469E6901252B008B409C46DD
:1025D000DB431E403D408D40354348468561576989
:1025E000072900D901BE012F00D901BE314D2E6847
:1025F0007A25755DA846C844404605681D400123FC
:102600001F408F403D43056010208046A0440325B5
:102610002C0040468440604620437B24375D4F4475
:102620003C688443A44694691C408C406046044343
:10263000D0690540404685402C433C607C24345D95
:10264000200048440468FF25AC43166A3340566AAC
:10265000770002263E403343966AB70004263E4088
:102660003343D66AF70018263E403343126B5201BB
:1026700015402B438900FE22920011408B402343DA
:10268000036000200CBC90469946F0BD01238B40AE
:102690004846836040E71D68C8001F248440A54366
:1026A0001F263E4086402E431E606EE70248E9E743
:1026B0000148E7E7C09A000801005A0010B5114B25
:1026C0001A689369C31ADB091B015169C9180023F1
:1026D00003607924145D041923607A24145D0419BD
:1026E00023607B24145D041923607824145D04198D
:1026F000236083617C24125D801803600B604B6053
:1027000010BDC046C09A0008084B1A68B023D358C1
:102710001B181B68002B07DA0B0C00D001BE090444
:10272000090C4160002070470148FCE7C09A00088E
:1027300001008A000368002B08DAC2600B0C00D08D
:1027400001BE0904090C8160002070470048FCE7C5
:1027500001008A0000290BD0074B1A68B023D35818
:102760001B181B68002B05DAC3680B60002070473C
:1027700001BEF1E70148FAE7C09A000801008A00AB
:10278000034B1B68002B00D07047014B1860FBE720
:10279000C498000870B5244C2468002C41D0224C09
:1027A00025682C2460432818D33425001D4005607B
:1027B0001E0A344044601B0C83601C4B1C682E2393
:1027C000E35C9D4200D301BE184B1C68AC23E35A66
:1027D0006B43256AAC466344036143682F25645DFF
:1027E000A34200D301BE114C2468246A80335B01EC
:1027F000E418446183681D0C2D0400D001BE002D37
:1028000000D001BE1B041D0C2B43A360C2610162FA
:1028100000238361049B002B02D000229B5E8381F6
:1028200070BD01BEBBE7C046C4980008C09A00084E
:10283000F0B58FB0041E44D06368032B00D901BEED
:10284000E36A002B3FD0236B002B3ED007AA130076
:10285000210061C961C321C921C302AD2900230040
:102860001433C1CBC1C141CB41C10821535E0CAE71
:102870003380174B1B689B8E079989B25B18738056
:10288000089B0D930B9B0A980096A26AE16AFFF7DA
:1028900081FF2B69E868002200920021FFF77AFF90
:1028A000216B300000F068FD0022B35E002B06DBD8
:1028B0001F2213401E3A9A401300064A13600FB0BD
:1028C000F0BD01BEB8E701BEBDE701BEBEE7C04630
:1028D000C09A000800E100E070B5002A2BD01B4C24
:1028E0002468002C29D0194C25682C246043281812
:1028F000614369182B3C25004E68B5402D0446689D
:10290000B440006900281AD08E69002E19D10668DB
:10291000002E18DA16683604360C35431560C2608E
:1029200001228A614B62230C00D001BE2404240CD6
:102930008460002070BD01BED1E701BED3E704482A
:10294000F8E70448F6E70348F4E7C046C4980008EF
:1029500004028A0007028A0070B582B004000023D6
:10296000019300282AD02369002B29D06369002B0A
:1029700028D0236A002B27D06369DD682A0C0BD08E
:1029800012041A601B682069204B1A68B023D358C0
:102990001B181B68002B19DB2D042D0C0AD0636952
:1029A0001D601B68636A002B2AD09847002363626E
:1029B0000023A36163691B6802B070BD01BED2E74A
:1029C00001BED3E701BED4E701BED5E701A9FFF7F9
:1029D000C1FE00280ED101980268160CFF23134097
:1029E000E2699A4207D99B00226AD358002B02D091
:1029F000984700E0002631002069FFF785FECBE70D
:102A0000A36A002BD4D09847D2E7C046C09A0008EA
:102A100010B50200064B1B68002B07D0044B1B6847
:102A20002C2050431818FFF797FF10BD01BEF5E7A3
:102A3000C498000870B50C00194B1B682E229A5CD4
:102A4000824224D9002924D00A68D10623D11D6AE4
:102A5000AC215B5A58432D18124E3560D208002124
:102A6000606801F063FE00212800FFF74DFE30682A
:102A700022000021FFF75EFE00280ED1094B1868E6
:102A80000021FFF741FE002802D0074800E0074878
:102A900070BD0648FCE70548FAE70348F8E7C0467A
:102AA000C09A0008C898000801018A0003018A0042
:102AB00010B5002A0AD0002A1CD000291CD00F4BC8
:102AC00019605A601900FFF7B5FF10BD0029F2D157
:102AD0000B4B1A682E23D35C984200D301BE084BDF
:102AE0001A68136AAC21525A50431818054B1860E3
:102AF0000020EAE70448E8E70348E6E7D8150008BD
:102B0000C09A0008C898000803018A00F0B583B095
:102B10000D00194B1B68DE68336883422AD94709C8
:102B20001F2318400124844000290CD00023019366
:102B3000114B18680368002B09DB104C002D15D0D1
:102B4000200003B0F0BD01F050FA0190F0E7726888
:102B5000BB00D3181A68144206D0A2431A6000249E
:102B60000021FFF7D1FDE9E7054CF9E7019801F0F5
:102B700040FAE5E7034CE3E7C89800080301880042
:102B80000201880004018A000A4B1B68DB681A688E
:102B900082420DD941091F2210401E3A82405868D6
:102BA00089000B581A4201D1034802E0034800E0B3
:102BB00003487047C8980008000188000101880098
:102BC00004018A0003681B050CD5802282239B0028
:102BD000C358DB05DB0D934206D090239B00C15008
:102BE000012070474022F1E70020FAE7F0B5C64621
:102BF00000B5002800D176E1002900D175E10B78FD
:102C0000022B00D901BE4B7B023BDBB2062B00D965
:102C100001BE8B7B002B04D0022B02D0032B00D0F3
:102C200001BE2123CB5C012B00D901BE2823CB5C44
:102C3000012B00D901BE0B78012B0AD98B7F002B09
:102C400000D199E04B68013B062B00D996E00023A8
:102C500005E04C68083C0823A3429B415B42002BE3
:102C600000D001BE8B68053B042B00D901BE4B6927
:102C7000FF2B00D901BE8B69FF2B00D901BE8B7CD5
:102C8000002B06D00B78002B02D18B68092B77D054
:102C900001BE984B4C6B1C4200D001BE964BCC6BD6
:102CA0001C4200D001BE0B78022B6DD04B685D1E1C
:102CB0000B7F002B6DD080235B028C68082C6AD8B8
:102CC0008024240123430F242C4023438024A40484
:102CD000234303600B6B046824055ED58024A34264
:102CE00000D301BE8B6B0468240558D58024A34211
:102CF00000D301BE4B6A0468240552D58024A34248
:102D000000D301BE0E783306C024A404234003641C
:102D10004B7F002B47D040238C7C002C45D0802457
:102D2000E40023430C7C002C41D080246400234326
:102D30004C7C002C3DD08024A4002343CD6A6C1E23
:102D40002404F0273F033C4023434F7B013F0724EB
:102D50003C4023438F7B3F0130243C40234383642A
:102D60000B7B002B27D080246400CB7B002B27D14A
:102D7000022E22D0002625E0002370E701236EE713
:102D80008B7B002B85D083E78B7F002B8ED100259A
:102D90008EE7002391E7002494E740249FE7402436
:102DA000A5E74024ABE70023B6E70024B9E70024F9
:102DB000BDE70024C1E70024D7E7FF36FF3601E076
:102DC0008026B60026438B685C1E0F2398461C4065
:102DD0003443C027BF00C451FF244E6934408E697C
:102DE0003604FF231B041E403443C426B60084511E
:102DF000C4594346234003339D4201D3102D00D9CB
:102E000001BECB7F002B04D00B78012B5BD00025BB
:102E100000E000254C7B013C072323402B438D7BA6
:102E20002D0130242C40234343640B7B002B4DD0D9
:102E300080256D008B685C1E0F2323402B430C788C
:102E4000012C45D0002423438024A4000351FF23F8
:102E50000C6B2340C124A40003512023CB5C002B26
:102E600039D080239B0421240C5D012C35D0002413
:102E7000234328240C5D012C32D000242343FF245B
:102E80004D6A25402B4303658B6B1C4081239B00BF
:102E9000C4501A4B4C6B2340194C0351CB6B19494E
:102EA0000B4019494350002A21D00023536013607E
:102EB0009360D3601362D3621363144B5363002097
:102EC00004BC9046F0BD80256D00A3E70025B1E766
:102ED00080246402B7E70023C5E780246404C7E7C1
:102EE00080246402CAE70A48EAE70948E8E70020C4
:102EF000E6E7C04692F4FFFF8CF8FFFF6D0B000081
:102F0000C80F000073070000880F0000EFCDAB0072
:102F10000160AA00114B03600F3B0364002383642C
:102F20000822FF32C02189004250043143500C3145
:102F3000435043641139FF394250FD3283500365D9
:102F4000074A8350074A8350074A8350074A8350F1
:102F5000074A8350074A83507047C0460F0000035A
:102F6000C80E0000880E0000C80F0000880F000087
:102F7000080F0000480F000003685B005B08036057
:102F8000002904D000234B600B600B62CB627047BA
:102F9000014B18687047C046D09800080A4AA6231B
:102FA000DB00D25803231340032B09D0064AA62383
:102FB000DB00D25801231340022B01D0002001E096
:102FC000024B18687047C04600002640CC980008A5
:102FD00002000C4B19683A23CB5C834200D801BE37
:102FE0001300D0339B0008495B5807201840042881
:102FF00000D07047C032920053581B300340E1307C
:103000001843F6E7C09A00080000264010B5204B90
:103010001A683A23D35C834200D801BEFFF7D8FF79
:10302000022814D00CD91223FF3398421CD0142349
:10303000FF33984220D0033B98420BD0002010BDB4
:10304000002823D00128F9D1FFF7A2FFF7E7FFF707
:10305000A5FFF4E70F4A104BD358002B01DB0020EB
:10306000EDE780200002EAE70C4B1B6904201840C2
:10307000E5D080200002E2E7064A094BD358002B36
:1030800001DB0020DBE780200002D8E70548D6E717
:10309000C09A0008000026400C05000000002740F0
:1030A0003C05000000127A0010B5002832D01A4901
:1030B000B023DB00CB589A03920B026080225204AB
:1030C00013405A1E9341C371144BCB58DA04D20CEF
:1030D00082801B0CDB05DB0D0381B123DB00CB58A9
:1030E0000F2214001C4084721C092240C2721A0A6A
:1030F000D204D20C82811B0F032213408373084B2E
:10310000CB58190A04320A4082711B0CDB05DB0D17
:10311000038210BD01BECAE70000264084050000FE
:103120008C0500000138114B1A683B23D35C8342A5
:103130001AD98130FF3080000D4BC3587F221A40CE
:103140000A70180A1F2210404870180C02408A703A
:10315000802212051A40501E8241CA701B0F0322A2
:1031600013400B71002070470248FCE7C09A00082A
:103170000000264001004A00F0B587B004003E4B35
:103180001A683A23D35C834200D801BE2000FFF7BF
:103190003DFF0500002C28D0374B1A683B23D35C39
:1031A000A34243D20023002700260022002B19D07F
:1031B00000232800002101F0F5F804000D003A007A
:1031C00000233000002101F0EDF802000B00C907D8
:1031D00056080E435F08200029008019794101F04C
:1031E000C1F80500280007B0F0BD1422002101A895
:1031F00001F09CFA01A8FFF757FF204AB023DB003B
:10320000D358002B08DB002301A9019A8E88C979C5
:10321000002909D00227C9E701AB9B7B022B01D013
:103220000123F1E70023EFE70127BFE70522002193
:1032300001A801F07BFA01A92000FFF773FF013C10
:103240000D4B1A683B23D35C9C4200D301BE8134F2
:10325000FF34A400094BE358002B05DB002301A930
:103260000A784E788F78A1E701AB1B79022B01D049
:103270000123F4E70023F2E7C09A0008000026408B
:1032800010B5134B1A683C23D35C984200D301BE9F
:103290000300E0339B000F4A9A581209032313409E
:1032A00001249C400A4B1A683C23D35C984200D30B
:1032B00001BEE0308000074BC3580F201840FFF7D5
:1032C0005BFF63081818210000F0D6FE10BDC04651
:1032D000C09A00080000264030B5184B1B68282211
:1032E0009A5C1F2A15D8850807222C009443221EB9
:1032F00020D103321040C000FC3282401B682033D2
:10330000AD005B191C68814061401140614019604B
:1033100010E01B8F8B420ED007230340074A126830
:10332000126880200006184380239B019C4661445C
:103330008900885030BD01BEEEE7C046C09A000843
:103340000A4B9A680A4B9A4204D010308000094B0D
:10335000C0587047002906D003001033044A9B0070
:1033600098589950F5E701BEF6E7C04600ED00E039
:103370000010000800000010F0B5CE46474680B5AA
:1033800083B0061E019151D04368032B00D901BEC2
:103390000023F05E002826DA254C0022B35E716817
:1033A000002B25DB9A08234FC0329200D059844667
:1033B00003200340DB00FC30814605009D40604651
:1033C000A843050089014846084098402843D05149
:1033D000194B9A68194B9A4222D0200003B00CBCBA
:1033E00090469946F0BD7188FFF776FF0024D4E738
:1033F0009BB20F221A40083A9208063292000E48F9
:1034000084466244556803273B40DB00FF200700E9
:103410009F40BD4389010140994029435160D7E74E
:103420000023F05E0199FFF78BFFD6E7004CD4E74D
:103430000100560000E100E000ED00E0001000088F
:1034400010B5040006E0084B186800F0C5FD074BF6
:103450009C46644480231B029C42F4D8044B1868A9
:10346000604300F0B9FD10BDC01000080080FFFFF0
:10347000C4100008FEE7000010B50A4B0268DA61CC
:1034800042681A6282685A62C2689A620269DA62A3
:1034900042691A6382695A63C2699A63FFF7EAFF55
:1034A00010BDC046F015000870B584B006000D00D0
:1034B000022804D9042802D0032800D001BE6B1EC4
:1034C000DBB2012B04D9042D02D0082D00D001BE9F
:1034D000B300294A9C58042D24D0012D24D0022D5C
:1034E00033D1264B1C68002C32D0246930E0A3680D
:1034F0002B420BD1E3681A6802925B680193039335
:10350000290002A8236898471C4B1C606469002CA2
:1035100004D01B4B9842EAD1012DE8D1012D05D0F2
:1035200004B070BD0020F2E70020F0E7144B984291
:1035300004D0B600134B0022F250F1E7B6000F4B57
:103540001A68104BF250EBE71C006369002BFBD1AB
:10355000002000E02469002CE2D0A3682B42F9D1BE
:10356000E3681A6802925B6801930393290002A83A
:1035700023689847EEE7C0461499000810990008A0
:10358000FF004200FC980008002831D0194B1B684E
:103590001A688021595851180968016284215958C4
:1035A00052181268426241229A5C002A1FD0E0221F
:1035B00099688A58D2061AD5DB68F222D2019A5845
:1035C0000260F022D2019A5842600B4A9A588260F7
:1035D0000A4A9A58C2600A4A9A580261094A9A5895
:1035E0004261094A9A588261084A9B58C3617047F0
:1035F00001BECBE7C09A00080478000008780000FC
:103600000C78000010780000147800001878000092
:10361000002833D01A4B1B6880229A5819688C46B0
:103620006244016A116084229A5819688C46624487
:10363000416A116041229A5C002A1ED0E0229968FA
:103640008A58D20619D5DB68F022D2014168995018
:103650000C4A816899500C4AC16899500B4A01691B
:1036600099500B4A416999500A4A816999500A4A0E
:10367000C16999500168E8329950704701BEC9E7A5
:10368000C09A000804780000087800000C78000058
:10369000107800001478000018780000F0B583B0AE
:1036A0000600012800D901BEB0235B055B78002B22
:1036B0005ED0B0235B055F78FFB26D4B5B68002B7B
:1036C00058D001210120FFF7EFFE051E00D0ABE02E
:1036D00000F08BFC0190664B5B68002B03D004214B
:1036E0000120FFF7E1FE634B1A68136AAC21515ABF
:1036F000CA00521A9B181A68002AF4DADB68DA004A
:103700003AD4802292051A435A4B1968AC23C85AFE
:10371000C3001B1A086A84466344DA6000225A60B8
:103720005B68B0235B059B899BB2002B5BD0B02309
:103730005B059B899BB20132FF32934253D02E230B
:10374000CB5C002B00D101BE4A4B1A68116AB02332
:10375000D3585B181B68002B00DA74E0464A1369E3
:1037600004210B431361012E00D16AE030BF3DE01C
:103770002127A2E70025ABE71B0F1C073F48FFF7F7
:1037800003FF212F18D03B4B19688023C8580B68C2
:103790009C46604403683A4F3B40802252001343EA
:1037A00003600B68842009585B18196839400A4384
:1037B0001A60324B2343A4E72E4B19688023C85864
:1037C0000B689C46604403682D4F3B4090221201D9
:1037D000134303600B68842009585B18196839404B
:1037E0000A431A60E5E7300005F0A6F9214B1A6894
:1037F000136AAC21515ACA00521A9B181A68002A3F
:10380000F4DADE68F30020D41E4B1E40194B1A6810
:10381000136AAC21515ACA00521A9B18DE6000226A
:103820005A60019800F0E5FB002D13D1104B5B6846
:10383000002B03D008210120FFF736FE280003B03B
:10384000F0BD20BFD2E7104DD0E730010009FFF7EF
:10385000DFFED9E7064B5B68002B03D00221012075
:10386000FFF722FE084B9D42E8D0084DE6E7C04630
:1038700014990008C09A000800ED00E0D4980008F0
:10388000FF00FFFFFFFFFFDF05004200FF004200D7
:103890000749C02252008B589B009B088020C0051E
:1038A00003438B50885880231B0603438B5070477B
:1038B0000000264010B5104803689A688021C900AE
:1038C0008024E405545070241B5B9B181A680B4C31
:1038D00022401A6002686F23D05C6C3B83406C20EE
:1038E000105C6E24145DA040034390688022120691
:1038F00013434350435810BDC09A0008FF00FFFF18
:10390000084B1A683D23D35C052B09D96D23D05C85
:10391000012181406A3B83400B409168024A8B50F1
:103920007047C046C09A0008140C000010B5064C41
:10393000064A00212000FEF79DFD054A01212000D6
:10394000FEF798FD10BDC046800231408C950010F6
:10395000C095001010B50020FFF75AF810BD704751
:1039600010B50020FFF78CFC00282AD0154B1860FA
:10397000154B1B681C6880229B58E4182168090EAF
:10398000013100F079FB114B186023681B0AFF21FD
:103990001940013100F070FB0D4B1860441E0D49B9
:1039A000200000F069FB01300B4B1870FA218900F0
:1039B000200000F061FB0130084B1860C003084B89
:1039C000186010BDB8100008C09A0008BC100008AC
:1039D000B410000840420F00C8100008C4100008CE
:1039E000C010000810B52048FEF710FC1F4CB02294
:1039F000D200A3585B005B08A350E0218900635804
:103A000030208343635080235B04A350184B194A32
:103A1000E2500433A0229201E250174BFF22E25001
:103A2000FFF736FFC0225200A35801218B43A35059
:103A3000FFF795FFFFF794FF104B1A68136AAC214C
:103A4000515ACA00521A9B180022DA605A600C4A76
:103A500080210320FFF72CF80A48FEF791FE0A4860
:103A6000FEF7E6FE10BDC046989400100000264008
:103A700084050000010002008C050000C09A0008C7
:103A8000E015000828990008F4950010034A9023D7
:103A90005B01D358032018407047C0460000204007
:103AA00010B500F0A2FA084C902149016358074A6A
:103AB0001A40074B13436350034B5B68DB06FBD58F
:103AC00000F097FA10BDC04600002040FCFF000047
:103AD0000100FA0570B50500830500D001BE00F0B5
:103AE00084FA0400FFF7D2FF032813D00B4B802287
:103AF00092009D50902040011A5809491140094AEE
:103B00000A431A50054B5B68DB06FBD5200000F02A
:103B100070FA70BDFFF7C4FFE8E7C0460000204020
:103B2000FCFF00000300FA05064AD0239B00D05892
:103B300003E0044AD0239B00D058431CF9D0C0B204
:103B40007047C0460000654010B50400002003E047
:103B500021000348FFF736F80028F9D010BDC04611
:103B60000000654070B504000D000021FFF704FA65
:103B70002D4E31686D23C85C012282406A3B834030
:103B8000134089688022D20513438022D2008B50D3
:103B90000020FFF775FB32681368802152589B188C
:103BA0001968090E01314B08C01800F065FAE900E8
:103BB0004B08181800F060FA01381C4B984230D8B6
:103BC000194B1B687222995A9A68944661440A6894
:103BD000174D2A400002174D2840104308606F22FD
:103BE000995C6C3A1000884001006C20185C6E25CE
:103BF0005D5DA84001436D201D5C6C38A840AA4063
:103C000002400A43996880231B061A438023DB0085
:103C1000CA50CB580020226880231B061343236020
:103C200070BD0548F7E7C046C09A0008FFFF0000D6
:103C3000FF0000FF00FFFF0001004A0070B50C000C
:103C40001600002901D0002509E00025280070BDDC
:103C50002078094B1870FFF777FF01340135B54222
:103C6000F4DA23780A2BF3D1034B1B780D2BEFD01A
:103C70000D20FFF769FFEBE7A89A000870B50D006B
:103C8000160000290CD00024B4420ADAFFF74CFFDA
:103C9000287001340A2804D00D2802D00135F3E73A
:103CA0000024200070BD000010B504000A4A0B4932
:103CB0000B48FEF79BFF002808D0002805D1084AD2
:103CC000116880231B060B43136010BD21000448BC
:103CD000FFF748FFF1E7C046C49A00084C95001072
:103CE0000000654010B50248FFF714F910BDC0464A
:103CF00000006540074BC200D05A9B1859889A882B
:103D0000DB88084310431843C0B2431E9841C0B239
:103D10007047C046AC9A0008F8B50024002C01D0CA
:103D20001248F8BD1500A3009B185B00104E9E5B67
:103D30005300104FDB5B9E4201D30134EEE70023BA
:103D40000B704C700C4B03602000FFF7D3FF002872
:103D500008D0074AA40064196400A35A0133A3528F
:103D60000020DEE70448FDF747FBF2E70110000002
:103D7000AC9A0008289600100000104070B50500AD
:103D80000C00487883009B185B000F495B5A002B9E
:103D900005D081008A185200013B0B495352FFF7AE
:103DA000A9FF002808D1094B1B68002B05D02B6800
:103DB000002B05DB0123237070BDFDF779FAF6E7D0
:103DC0002800FDF75DFBF5E7AC9A0008A89800080D
:103DD00070B504000D0000280BD0211D2A00200022
:103DE000FFF79AFF002800D1A57143425841C0B2A5
:103DF00070BD01BEF1E710B5002803D00379002B98
:103E000002D010BD01BEF9E78279011D0068FFF7FD
:103E1000B5FFF6E730B583B004000D00002801D0EF
:103E2000002901D103B030BD03216846FFF7D0FF60
:103E3000002803D16846FFF7DEFFF3E70098ABB236
:103E4000074A116829228A5C1F2A04D9002221000E
:103E5000FDF742FCEEE700222100FDF7BFFBE9E79A
:103E6000C09A000810B5041E01D0002900D110BD71
:103E7000FFF7D0FF03212000FFF7AAFFF7E70000BC
:103E800070B505000C1E26D0002B27D000681649FF
:103E90000E682921715C1F2912D92100FDF714FE3B
:103EA00000281ED12868104B1A682923D35C1F2BC9
:103EB0000AD92100FDF796FE002809D1002070BD27
:103EC0002100FDF779FCEBE72100FDF72BFDF3E77F
:103ED00001204042F3E701204042F0E70120404248
:103EE000EDE701204042EAE7C09A000870B50029DA
:103EF00017D0002A18D0CC68002C18D000680D4CC0
:103F0000256829242C5D1F2C05D9FDF783FE002888
:103F100004D1002070BDFDF71DFDF8E701204042EF
:103F2000F8E701204042F5E701204042F2E7012096
:103F30004042EFE7C09A000810B5002917D0002AC8
:103F400018D0CB68002B18D000680D4B1C682923B3
:103F5000E35C1F2B05D9FDF7CFFF002804D100201B
:103F600010BDFDF73FFDF8E701204042F8E70120D2
:103F70004042F5E701204042F2E701204042EFE7EE
:103F8000C09A000810B59821FFF76CFF10BD10B55E
:103F90000B0001000831002B05D00122030038334B
:103FA000FFF76EFF10BD0222F8E710B5002A01D11D
:103FB000002010BD0400083413000A002100FFF7A0
:103FC00095FFF6E710B50A0001000831FFF7B4FFCE
:103FD00010BD0000000000000230800803D0013056
:103FE0000238FCD1C046C0467047EFF3108072B66D
:103FF000704780F3108870477047FFF7FDFF72B677
:104000000F4C104DAC4209DA21686268A368043B8A
:1040100002DBC858D050FAE70C34F3E70A490B4AE0
:104020000020521A02DD043A8850FCDC0848094995
:104030000860BFF34F8FFFF7D5FCFCF7CFFEFEE71C
:10404000BC990010D49900102C160008009B0008A1
:104050000010000808ED00E0FEE7FEE700B50420D0
:104060007146084202D0EFF3098001E0EFF30880C7
:104070000430FFF701FAFEE7002243088B4274D3B5
:1040800003098B425FD3030A8B4244D3030B8B4259
:1040900028D3030C8B420DD3FF22090212BA030C62
:1040A0008B4202D31212090265D0030B8B4219D343
:1040B00000E0090AC30B8B4201D3CB03C01A524163
:1040C000830B8B4201D38B03C01A5241430B8B42AB
:1040D00001D34B03C01A5241030B8B4201D30B0394
:1040E000C01A5241C30A8B4201D3CB02C01A5241BB
:1040F000830A8B4201D38B02C01A5241430A8B427E
:1041000001D34B02C01A5241030A8B4201D30B0266
:10411000C01A5241CDD2C3098B4201D3CB01C01A80
:10412000524183098B4201D38B01C01A524143098A
:104130008B4201D34B01C01A524103098B4201D378
:104140000B01C01A5241C3088B4201D3CB00C01AE5
:10415000524183088B4201D38B00C01A524143085D
:104160008B4201D34B00C01A5241411A00D2014682
:10417000524110467047FFE701B5002000F0F0F80B
:1041800002BDC0460029F7D076E7704703460B43CF
:104190007FD4002243088B4274D303098B425FD340
:1041A000030A8B4244D3030B8B4228D3030C8B426C
:1041B0000DD3FF22090212BA030C8B4202D3121252
:1041C000090265D0030B8B4219D300E0090AC30B27
:1041D0008B4201D3CB03C01A5241830B8B4201D3D4
:1041E0008B03C01A5241430B8B4201D34B03C01ABD
:1041F0005241030B8B4201D30B03C01A5241C30A35
:104200008B4201D3CB02C01A5241830A8B4201D3A5
:104210008B02C01A5241430A8B4201D34B02C01A8F
:104220005241030A8B4201D30B02C01A5241CDD234
:10423000C3098B4201D3CB01C01A524183098B427F
:1042400001D38B01C01A524143098B4201D34B0168
:10425000C01A524103098B4201D30B01C01A5241CB
:10426000C3088B4201D3CB00C01A524183088B4252
:1042700001D38B00C01A524143088B4201D34B003B
:10428000C01A5241411A00D20146524110467047AD
:104290005DE0CA0F00D04942031000D340425340B2
:1042A00000229C4603098B422DD3030A8B4212D372
:1042B000FC22890112BA030A8B420CD389019211A4
:1042C0008B4208D3890192118B4204D389013AD0E1
:1042D000921100E08909C3098B4201D3CB01C01AB6
:1042E000524183098B4201D38B01C01A52414309C9
:1042F0008B4201D34B01C01A524103098B4201D3B7
:104300000B01C01A5241C3088B4201D3CB00C01A23
:10431000524183088B4201D38B00C01A5241D9D23B
:1043200043088B4201D34B00C01A5241411A00D2BC
:104330000146634652415B10104601D34042002BB8
:1043400000D54942704763465B1000D3404201B537
:10435000002000F005F802BD0029F8D016E77047EC
:104360007047C046002B11D1002A0FD1002900D17F
:10437000002802D00021C943081C07B4024802A14A
:104380004018029003BDC046D9FFFFFF03B4684642
:1043900001B5029800F030F8019B9E4602B00CBCBB
:1043A0007047C046F0B5CE46474615042D0C2E008A
:1043B00080B50704140C3F0C9946030C7E435D4303
:1043C000674363437F19340CE4199C46A54203D923
:1043D00080235B029846C4444B4643435143250C1B
:1043E00036046544360C2404A4195B1959182000BE
:1043F0000CBC90469946F0BDF0B54F464646D646B1
:10440000C0B5040082B00D00914698468B422FD86B
:104410002CD04146484600F0CFF829000600200085
:1044200000F0CAF8331A9C46203B9A4600D576E045
:104430004B46524693401F004B46624693401E0037
:10444000AF4228D825D05346A41BBD41002B00DA2B
:104450007BE0002200230092019301235246934007
:104460000193012362469340009318E08242D0D921
:1044700000220023009201930A9B002B01D01C60B4
:104480005D600098019902B01CBC90469946A24616
:10449000F0BDA342D7D900220023009201936346C6
:1044A000002BE9D0FB079846414672080A437B0877
:1044B00066460EE0AB4201D1A2420CD8A41A9D413F
:1044C000012024196D410021013E24184D41002E88
:1044D00006D0AB42EED9013E24196D41002EF8D131
:1044E00000980199534600196941002B23DB2B00EA
:1044F0005246D3402A006446E2401C005346150051
:10450000002B2DDB26005746BE40330026006746B1
:10451000BE403200801A994100900191ACE762469A
:1045200020239B1A4A46DA406146130042468A40DD
:1045300017001F4380E7624620239B1A2A00664625
:104540009A402300F3401343D4E76246202300211E
:104550009B1A0022009101920122DA40019280E729
:104560002023624626009B1ADE402F00B046664696
:10457000B74046463B003343C8E7C0461C210123F1
:104580001B04984201D3000C10391B0A984201D336
:10459000000A08391B09984201D30009043902A214
:1045A000105C40187047C04604030202010101017B
:1045B000000000000000000010B5002903D1FFF743
:1045C000DDFF203002E0081CFFF7D8FF10BDC04619
:1045D00030B51C00094B05001B6885B0D868084B36
:1045E000002A01D1074B1A000292019300912B007F
:1045F0002200054900F00AF800F0D8FFCC100008AE
:10460000309600106B9600103D9600100EB403B566
:10461000010003AB044804CB0068019300F06CF97F
:1046200002B008BC03B01847CC100008F7B55343DC
:10463000050001911700089C0093002804D08369AD
:10464000002B01D101F018FF1E4B9C421CD16C685D
:10465000A3891B0722D52369002B1FD00026009BAE
:104660009E4222D0019B995DA368013BA360002B71
:1046700004DAA26993421DDB0A291BD023685A1C65
:10468000226019700136EAE70F4B9C4201D1AC68F9
:10469000DEE70E4B9C42DBD1EC68D9E72100280015
:1046A00000F00EFF0026B042D8D039003000FFF7EE
:1046B000E3FCFEBD2200280000F0ACFE431CE1D16B
:1046C000F3E7C046E496001004970010C49600106B
:1046D00007B5009313000A00010002480068FFF7C5
:1046E000A5FF0EBDCC10000810B5034B01001868E3
:1046F00000F07CF810BDC046CC10000830B5002496
:10470000A24201D1002005E0035D651C0C5DA342BF
:1047100001D0181B30BD2C00F2E7002310B59A42DF
:1047200000D110BDCC5CC4540133F8E7030012186B
:10473000934200D1704719700133F9E74A4370B5CD
:104740001100140000F052F8051E03D022000021D1
:10475000FFF7ECFF280070BD70B50500002910D0F0
:104760000C1F2368002B00DAE418280001F0ADFFCD
:104770001D4A1368002B05D163601460280001F006
:10478000A5FF70BDA34209D9216860188342F3D107
:1047900018685B6841182160EEE713005A68002A28
:1047A00001D0A242F9D919685818A0420BD120684B
:1047B0000918581819608242E0D1106852684118EF
:1047C00019605A60DAE7A04202D90C232B60D5E7C2
:1047D00021686018824203D1106852684118216034
:1047E00062605C60CAE7C046B49A0008032370B5F3
:1047F000CD1C9D43083506000C2D1ED20C25A94268
:104800001DD8300001F061FF254A146821000029FD
:1048100019D1244C2368002B03D1300000F0E0FDB7
:1048200020602900300000F0DBFD431C2BD10C235D
:104830003000336001F04AFF03E0002DDFDA0C2383
:104840003360002070BD0B685B1B19D40B2B03D9A0
:104850000B60CC18256003E04B688C420DD11360CF
:10486000300001F033FF200007220B30231D90435E
:10487000C31AE7D05A42E250E4E763600C00EFE766
:104880000C004968C3E70323C41C9C43A042E1D049
:10489000211A300000F0A4FD431CDBD1C7E7C0465D
:1048A000B49A0008B89A0008936810B5013B936069
:1048B000002B04DA9469A34207DB0A2905D01368A8
:1048C000581C10601970080010BD00F0A3FD010015
:1048D000F9E7F8B506000F001400D518AC4201D175
:1048E000002007E021783A003000FFF7DDFF0134B7
:1048F000431CF3D1F8BD0000F0B59FB002900F004B
:1049000016000593002805D083690493002B01D17C
:1049100001F0B2FD7B4B9F425BD1029B5F68BB897C
:104920001B0762D53B69002B5FD0002306AC636197
:10493000203363761033A37635002B78002B01D01B
:10494000252B5CD1AB1B04930CD0320039000298AC
:10495000FFF7BFFF431C00D1C4E06269049B94468B
:10496000634463612B78002B00D1BBE0012200235C
:104970005242626002A9543252186E1C2360E360F6
:10498000A3601370A365317805225F4801F092FEA1
:10499000751C002835D12268D30604D5532302A9FB
:1049A0005B1820211970130704D5532302A95B1843
:1049B0002B21197033782A2B2CD0350000210A20A6
:1049C000E3682A786E1C303A092A64D900292ED06F
:1049D00026E04E4B9F4202D1029B9F689FE74C4BC3
:1049E0009F429CD1029BDF6899E73900029800F052
:1049F00067FD002899D0012040421FB0F0BD01356D
:104A00009BE7414B2268C01A012383401343236074
:104A10002E00B8E7059B191D1B680591002B01DBD3
:104A2000099304E05B42E3600223134323602B7885
:104A30002E2B0AD16B782A2B35D1059B02351A1DF6
:104A40001B680592002B2BDB0793324E297803223B
:104A5000300001F02FFE002806D04023801B834049
:104A60002268013513432360297806222A486E1CE8
:104A7000217601F01FFE00283AD0284B002B25D1CB
:104A80000722059B07339343083305936369039A11
:104A90009B18636150E7434301219B18350090E761
:104AA00001235B42D0E700230A201A00013563602E
:104AB00029786E1C3039092903D9002BC5D00792FB
:104AC000C3E74243012352183500F1E705AB0093D9
:104AD0003A00134B2100029800F0C0F80390039BAA
:104AE0000133D3D1BB895B0600D584E70B9884E7FB
:104AF00005AB00933A000A4B2100029800F068FBD6
:104B0000ECE7C046E4960010709600100497001081
:104B1000C4960010769600107A9600105D4C001036
:104B2000D3480010F0B58BB014001D1E129953DA53
:104B3000802424061B191D0014002D230B70202334
:104B4000149E03229E43462E07D03300453B594214
:104B50004B411099013ACB18109309AB049308AB61
:104B60000393139B00920293109B220001932B004E
:104B700000F0AAFD0700472E02D1119BDB0724D5C8
:104B8000109BFB180793462E14D13B78302B0CD189
:104B9000002200232000290002F0AEF9002804D1F1
:104BA0000123109A9B1A139A1360139B079A1B6890
:104BB000D3180793002200232000290002F09CF95B
:104BC000302200280DD0079B09933800099B159AC5
:104BD000DB1B13600BB0F0BD0023AFE7591C09913C
:104BE0001A70099B07998B42F8D3EEE7F0B5831C46
:104BF00085B0019306000C0002702B23002901DA16
:104C00002D234C427370092C22DD02ABDD1D2000E8
:104C10000A21FFF7A1FB6F1E3031397020000A21F5
:104C2000FFF7B4FA040009280BDC023D3034019B85
:104C30002C7002AA07321800AA4204D8801B05B0C3
:104C4000F0BD3D00E3E72A7801351A700133F0E743
:104C50003023E418B370301DF470EFE7F0B595B071
:104C60000C000A920B931A9D099001F099FC0368BD
:104C700018000C9300F0C6FB0023129323680E90DB
:104C80000D930D99277E2B680722C90545D59B18E2
:104C900093431A0008322A601A685B68A264E364CE
:104CA0000122E56CA66C6B005B080F935242AC4B83
:104CB00030000F9903F02EFE002830D10122A84BBE
:104CC000524230000F9902F027F9002827D1002224
:104CD00000233000290002F015F9002803D023003A
:104CE0002D2243331A709F4D472F00D89E4D03232A
:104CF00000260D9A236101339A4322600B9B13AA6D
:104D0000009321000A9B099800F0F4F9431C00D09D
:104D100093E00120404215B0F0BD0733B8E7320000
:104D20002B003000290003F0F5FD002804D08F4D42
:104D3000472FDCD88E4DDAE780230D996268DB00BF
:104D40000B43511C43D10732626012AA0021059225
:104D500011AA0392232223600691019308A9636894
:104D600052180292009332002B0004970998FFF723
:104D7000D9FE20233A0005009A43472A07D1119B08
:104D8000DA1C02DB6268934245DD023FFFB21199F3
:104D9000652F25D8200001393A0050301191FFF7D6
:104DA00025FF129A060013182361012A02DC2268EB
:104DB000D20701D501332361232308AA9B181B784E
:104DC000002B9BD023002D2243331A7096E7672FC8
:104DD00000D176E1472FB8D1002AB6D10122B3E73E
:104DE000662F19D1636800290CDD2161002B02D1E7
:104DF0002268D20702D501335B182361119B00267C
:104E0000A365D9E7002B03D101222168114200D00C
:104E10009A1C2261F2E76727119B129A934205DBE5
:104E200022682361D207E9D50133E6E70121002B8F
:104E300001DC4918C91A5218EBE72268530508D457
:104E400023692A000A9909980B9DA847431C29D178
:104E50005FE7652F00D8E0E0A06CE16C0022002342
:104E600002F04AF8002834D00123424A0A990998EE
:104E70000B9DA847431C00D14BE7119B129A93420C
:104E800002DB2368DB070DD50B9D0E9B0C9A0A995C
:104E90000998A8470025431C00D13AE7129B013B23
:104EA000AB420ADC23689B0700D508E1139BE0684E
:104EB000984200DB2FE718002DE7220001231A3269
:104EC0000A9909980B9EB047431C00D121E7013590
:104ED000E4E7119B002B2DDC0123264A0A9909984F
:104EE0000B9EB047431C00D113E7119B002B05D14B
:104EF000129B002B02D12368DB07D3D50B9E0E9BA0
:104F00000C9A0A990998B0470026431C00D100E783
:104F1000119B5B42B34201DC129B92E7220001230A
:104F20001A320A9909980B9FB847431C00D1F0E642
:104F30000136EDE7A36D129F9F4200DD1F00002F99
:104F400008DD3B002A000A9909980B9EB047431CD4
:104F500000D1DEE600230D93FB43DB170F9318E02F
:104F6000FFFFEF7F85960010819600108D96001050
:104F70008996001091960010220001231A320A9996
:104F800009980B9EB047431C00D1C2E60D9B01332C
:104F90000D930F9BA66D0D9A3B40F31A9342EBDCE9
:104FA000119B129AAD19934210DB2368DB070DD4D5
:104FB000129F119BBE1BFF1AB74200DD3700002F66
:104FC0000DDCFE43F31700250C931CE00E9B0C9A9E
:104FD0000A9909980B9FB847431CE9D199E63B0011
:104FE0002A000A9909980B9DA847431CE9D190E62D
:104FF000220001231A320A9909980B9EB047431CDC
:1050000000D186E60135119A129B0C999B1A3A0041
:105010000A409B1AAB42EBDC44E7129B012B02DCFB
:1050200001231A4232D001232A000A9909980B9FC2
:10503000B847431C00D16CE60E9B0C9A0A9909985C
:105040000B9F0135B847431C00D162E6A06CE16CB0
:10505000129B00225F1E002301F04EFF3B00002840
:1050600014D000250AE0220001231A320A99099877
:105070000B9FB847431C00D14BE60135129B013B07
:10508000AB42F0DC220033005032DBE62A000A9902
:1050900009980B9DA847431CF4D13AE6220001234E
:1050A00019320A9909980B9EB047431C00D130E68B
:1050B0000135E368139A9B1AAB42EFDCF6E6002554
:1050C000F7E7002A00D189E60021069112A905918F
:1050D00011A90391232108A80918236001930092C4
:1050E0002B000497029132000998FFF71BFD050081
:1050F00045E6C046F7B5150001938A680B69009034
:105100000C00934200DA130022002B604332127825
:10511000002A01D001332B6023689B0602D52B683F
:1051200002332B60062723681F4027D02300433318
:105130001B785A1E93412268920630D422000199AE
:1051400043320098089EB047431C25D006232068B0
:105150002A68E16803400025042B03D18D1AEB4334
:10516000DB171D40A3682269934201DD9B1AED18ED
:105170000027BD4220D1002010E00137E3682A68F3
:105180009B1ABB42D2DD22000123193201990098FB
:10519000089EB047431CF0D101204042FEBD3020A4
:1051A000E1184331087021005A1C45310978A218D2
:1051B000433202331170C1E7220001231A320199F0
:1051C0000098089EB047431CE6D00137D1E70000A5
:1051D000F0B589B004920A0043320593039002921D
:1051E0000A7E0C000E9B6E2A00D186E01FD8632A2F
:1051F00033D008D8002A00D18CE0582A4DD02500A1
:1052000042352A7030E0642A01D0692AF7D1196842
:1052100025680A1D280629D508681A60002803DABF
:105220002D23029A404213706B4E0A274FE0732AD7
:1052300074D008D86F2A1FD0702AE0D120220968C4
:105240000A43226003E0752A16D0782AD7D12200BB
:10525000782145321170614E22E025001A684235EE
:10526000111D196013682B70012365E008681A602E
:105270006906D3D500B2D1E719682568081D186002
:1052800008682E0605D5544E08276F2A1BD00A271A
:1052900019E06D06F7D580B2F5E745314E4E0A703C
:1052A00018682268011D00681960150621D5D3070A
:1052B00002D520231A4322601027002803D120237F
:1052C00022689A4322602300002243331A706368E5
:1052D000A360002B58DB0422216891432160002841
:1052E00054D1029D002B5AD02500337842352B70C3
:1052F00055E05506DBD580B2D9E71A680D68101D58
:105300004969186013682E0601D5196002E06D0620
:10531000FBD519800023029D23614FE01A68111DFF
:105320001960156800216268280001F0C3F900289F
:1053300001D0401B6060636823610023029A1370F0
:105340003CE023692A0004990398059DA847431C63
:105350003ED023689B0715D4079BE068984239DA52
:10536000180037E022000123193204990398059EA2
:10537000B047431C2CD00135E368079A9B1AAB4217
:10538000F0DCE9E70025F7E70028ADD0029D390001
:10539000FEF7F8FE735C013D2B700028F7D1082F53
:1053A00009D12368DB0706D563682269934202DCD2
:1053B0003023013D2B70029B5B1B2361059B07AAD9
:1053C00000932100049B0398FFF794FE431CB8D17F
:1053D0000120404209B0F0BD93960010A496001041
:1053E000002370B5064C05000800236003F080FB25
:1053F000431C03D12368002B00D02B6070BDC04636
:10540000FC9A00080023C25C0133002AFBD1581E1D
:1054100070470000F8B505000E001400002804D005
:105420008369002B01D101F027F8224B9C422DD13A
:105430006C68A369A360A3891B0731D52369002B7E
:105440002ED023682269F7B2981A6369F6B28342B4
:1054500005DC2100280000F0A1FF002826D1A36868
:105460000130013BA36023685A1C22601F706369EE
:10547000834204D0A389DB071AD50A2E18D1210054
:10548000280000F08BFF002812D00FE00A4B9C424E
:1054900001D1AC68CDE7094B9C42CAD1EC68C8E7A2
:1054A0002100280000F00CF80028CAD0012676421E
:1054B0003000F8BDE496001004970010C496001068
:1054C000364B70B51D6806000C00002D05D0AB6989
:1054D000002B02D1280000F0CFFF314B9C420FD1AE
:1054E0006C680C23E25E93B219072DD4D90611D44F
:1054F00009230120336037331343A381404270BD39
:10550000284B9C4201D1AC68EBE7274B9C42E8D189
:10551000EC68E6E75B0713D5616B002908D0230030
:105520004433994202D03000FFF716F90023636339
:105530002422A3899343A38100236360236923600A
:105540000823A2891343A3812369002B0BD1A02137
:105550008022A389890092000B40934203D021004E
:10556000300001F051F80123A289134011D000232B
:10557000A36063695B42A361002023698342BED1BB
:105580000C23E25E1306BAD540231343A3810138EE
:10559000B5E7920700D46369A360EDE7CC1000087B
:1055A000E496001004970010C496001010B5062071
:1055B00001F09EFB012003F0A9FAF0B503690C6924
:1055C00089B0070005910026A34265DB0B00013C72
:1055D0001433A50003935B1904930300143302935F
:1055E0005D19049B28681B68591C0193FEF744FD54
:1055F0000190B04229D0039B02989C4606966246D1
:1056000008CA9446019A99B251431B0C5343891915
:105610000A0C9B1807931E0C036889B29AB2069B6A
:10562000D2180368521A190C6B469B8BCB1A1114B3
:105630005B18191492B21B041A43049B069104C010
:105640006345DCD22B68002B2DD00599380001F082
:1056500053FA00281FDB0025019B029801330399B0
:105660000193026808C992B255199AB2AA1A05683C
:105670001B0C2D0CEB1A15145B191D1492B21B0494
:10568000134308C0049B8B42EBD2029AA300D318A9
:105690001A68002A11D0019E300009B0F0BD2B68B5
:1056A000002B04D1013C029B043DAB42F7D33C618B
:1056B000CBE71A68002A04D1013C029A043B9A42C3
:1056C000F7D33C61E7E70000F0B516001F00446A1D
:1056D0009BB00290239D06960797002C08D11020BE
:1056E000FFF702F8029B5862446084600460C46063
:1056F000029B5B6A196800290BD05A68012393400A
:105700004A608B60029801F01AF80022029B5B6AE3
:105710001A60002F20DA01232B607B005B080793BF
:10572000079CB24B220017931A409A4217D1B04BF4
:10573000229A1360069B002B03D1240301D100F0B1
:1057400087FDAC4B249A0893002A02D0AA4B249AD6
:10575000136008981BB0F0BD00232B60E0E7069EA5
:10576000079F002200233000390001F0C5FB051E11
:105770000BD00123229A1360A04B249A0893002A8D
:10578000E7D09F4A24990A60E3E718AB019319AB6D
:10579000009332003B00029801F02CFA6300039062
:1057A0005B0D74D03A03974C120B14432100964AB8
:1057B000300016959E180022944B02F063FD944A27
:1057C000944B02F0EDFA944A944B01F0C3FB0400B1
:1057D00030000D0003F0F0F8914A924B02F0E0FA2D
:1057E00002000B002000290001F0B4FB04000D00B2
:1057F00003F0ACF80022070000232000290001F08C
:1058000081FB002809D0380003F0D6F82B002200D5
:1058100001F072FB434258413F1A01231493162FA3
:105820000DD88149FB00C91808684968069A079B8A
:1058300001F07CFB002846D00023013F1493189B05
:105840009E1B00230A933300013B0B9304D50123D5
:105850009B1B0A9300230B93002F36DB0B9B1197A6
:10586000DB190B9300230493209B0124092B00D9FF
:1058700084E0052B02DD0024043B2093209B981E2E
:10588000032800D984E001F01DFB7577286A189B76
:10589000199A9E18654BF218202A0FDD40239B1A97
:1058A0009C40634B0698F318D840204303F0BEF8A1
:1058B0000123604C013E091916937CE720230698CA
:1058C0009B1A9840F2E71490B9E70A9BDB1B0A93F6
:1058D0007B42049300231193C6E701230D93219B80
:1058E000002B59DD0C930993029A556A00226A60D5
:1058F0000432100014306968984252D9029800F0BE
:10590000E6FE029B28605B6A1B680893099B0E2BCE
:1059100000D90AE1002C00D107E1069B079C1293F5
:105920001394002F00DC89E00F213A003E4B0A401F
:10593000D2009B181D685E6802233C110E93E3069B
:105940000BD53D4B0C401A6A5B6A1298139901F013
:105950001DFE0323069007910E9300233AE00123D6
:105960000D93219BFB180C9301330993002BBBDC97
:105970000123B9E70023B1E70023F1E700230D94E9
:105980002093013B00220C93099313332192ABE740
:1059900001230D93023BF5E701230C9309931A00B1
:1059A000F4E7013169605200A3E701231C420ED0E5
:1059B0000E9B214A01330E93109B2800DB009B189D
:1059C00031001A685B6802F0EBF905000E00109BCD
:1059D000641001331093002CE7D1069807992A0030
:1059E000330001F0D3FD0690079142E00000F07F04
:1059F0000F270000BE960010C1960010919600106F
:105A0000929600100000F03F01FCFFFF0000F83FFD
:105A100061436F63A787D23FB3C8608B288AC63FB4
:105A2000FB799F501344D33F589700103204000075
:105A300012040000000010FE3097001002230E93A5
:105A4000002F16D0129813997C420D332340CE4A72
:105A5000DB00D3181A685B6802F0A2F90023012664
:105A60001D00069007912411002C00D08CE0002B23
:105A7000B9D1149B002B00D196E0069C079D002213
:105A8000C24B2000290001F03DFA002800D18BE034
:105A9000099B002B00D187E00C9B002B41DDBC4B08
:105AA00000222000290002F07BF90E9B069007914E
:105AB00001330E930C9B7E1E0E98109302F07CFF18
:105AC000069A079B02F06CF90022B24B01F042FAF1
:105AD000B14A0E900F910E9C0F9D94460F9B63440C
