:020000041000EA
:10000000000002088B6200100D000000ED6200107D
:1000100000000000000000000000000000000000E0
:10002000000000000000000000000000E962001075
:100030000000000000000000E9620010E96200100A
:10004000E9620010E9620010E9620010E962001044
:10005000E9620010E9620010E9620010E962001034
:10006000E9620010E9620010E9620010E962001024
:10007000E9620010E9620010E9620010E962001014
:1000800010B5064C2378002B07D1054B002B02D06E
:10009000044800E000BF0123237010BD341700089E
:1000A00000000000F0BD0010044B10B5002B03D081
:1000B0000349044800E000BF10BDC0460000000036
:1000C00038170008F0BD0010012801D10120704749
:1000D0000220FCE710B51022044906F057FC002866
:1000E00001D1013010BD0220FCE7C046D8AD0010A0
:1000F00004280AD0052804D101390800411E88418E
:100100007047401A41424841FAE70120F8E7806809
:100110002838704730B587B004000D008168103969
:10012000102302AA00F0ECFF00284BDB01283FD08F
:1001300002A8FFF7CFFF28702000FFF7E8FF0100BB
:1001400001236A460732200000F0DAFF00283CDB7A
:100150006B4607331B780F221A406A701B092B71FC
:10016000012801D0042A03D901236B7000232B71CD
:10017000A1682039AA1C0123200000F0C1FF00283B
:1001800025DB012817D0A878FFF79EFFA870A1688B
:100190001839EA1C0123200000F0B2FF002818DB08
:1001A00001280BD0E878FFF78FFFE87000200AE005
:1001B00003232B70C0E70323AB70E8E70323EB7046
:1001C000002000E0012007B030BD0120FBE7012046
:1001D000F9E70120F7E710B582B00C00C0B201A921
:1001E00000F06AFE002803D00124200002B010BDF8
:1001F00021000198FFF78EFF0400019800F070FEC7
:10020000F3E7000030B585B002A90120FFF7E3FF56
:10021000002858D169460230FFF7DDFF002855D18C
:10022000002407E02B79042B28D002AA927893426D
:1002300024D00134022C3CD863001B195A00244DF1
:10024000AD1802AB19782878FFF752FF0028F0D0DC
:100250006B4619786878FFF74BFF0028E9D0AB7838
:10026000042B03D002AAD2789342E2D1EB78042B7C
:10027000D8D06A46D2789342DBD1D3E7154B1B68BE
:10028000D8686B79022B07D0032B10D0042B01D038
:10029000114A02E0114A00E0114A124906F0FEFA42
:1002A0006879831EDBB2022B0ED9FF200CE00E4AC8
:1002B000F3E7084B1B68DB68172201210B4806F0A7
:1002C0004FFB012000E0FF2005B030BDFF20FBE721
:1002D000E8AD0010D81100080CAE001020AE0010E0
:1002E00004AE001028AE0010FCAD001040AE0010AF
:1002F000F0B5A9B0140001932F9E02A805F08AFF63
:10030000002102A805F08BFF319B002B02D0329B0D
:10031000002B07DC2289E3689C4662446789BF188A
:10032000002513E01A00319902A805F086FFF1E7D5
:1003300023002E9A2900019800F0D4FD002811D145
:1003400022002E9902A805F078FF2D19BD4204D293
:100350007C1BB442ECD93400EAE7309902A805F0DE
:1003600079FF002029B0F0BD70B59EB016001D00C9
:10037000259B0493249B039306AB0293239B019339
:10038000229B00932B00FFF7B3FF041E3ED1269B58
:10039000002B04D0202206A9180006F006FB00233B
:1003A00000931E4B2A00310016A800F00DFC041E1D
:1003B0002CD106001CAB72226A441DA916A800F0BD
:1003C00075FC002820DB1ADC1CAB1B88102BF1D13C
:1003D00062336B441B88202B1BD10EAA1D99280069
:1003E00000F080FD002817D120220EA906A806F0F3
:1003F000CDFA01260028DDD00124644206E0002E5B
:1004000004D10124644201E00124644220001EB0B2
:1004100070BD01246442F9E70400F7E7FFFF000024
:1004200010B50B4B02689A4201D0002010BDC26883
:100430000389D843824208D8D41801200028F5D077
:100440008B68A342F2D80020F0E70020F6E7C04610
:100450003DB8F39610B5006A00F018FE10BDF0B577
:1004600083B005000F00002000F020FEC0B201A9FB
:1004700000F022FD041E1DD1019800F027FE0600A9
:10048000019800F02DFD2C20784328180023032B21
:1004900005D8C25C964208D10133DBB2F7E70123ED
:1004A000002B04D0200003B0F0BD0023F8E70124A6
:1004B0006442F7E701246442F4E710B582B00B0010
:1004C000E02212010192012904D002290ED001205C
:1004D00002B010BD426A2830040001A9180000F0E3
:1004E0002FFE0028F4D1019B2360F1E7026D543008
:1004F0000400F2E770B504000121FFF7DEFF0028D9
:1005000002D00125280070BD02212000FFF7D5FF91
:10051000051E01D00125F5E72000FFF79BFFE065F0
:10052000F0E7000000B587B01300002004900390AE
:100530000290802252000192054A00920A00002196
:10054000FFF712FF002801D107B000BD0320FBE731
:10055000B0FB0008F0B585B005000C00019200204A
:1005600000F0A4FDC0B203A900F0A6FC002839D118
:100570002C3060432F1821002800FFF770FF00285F
:1005800027D03B69DB062BD4039E31003800FFF7F0
:1005900047FF00280CD1002C13D1144B1B68D868DE
:1005A000002C14D1124A134906F078F9012511E004
:1005B000019B320039002800FFF7B4FF051E09D067
:1005C000E9E703988268002100F01EFDE5E70A4A8A
:1005D000E9E70125039800F083FC280005B0F0BD91
:1005E0000125F7E701256D42F7E7C046D81100085D
:1005F00014B0001028B000101CB0001070B5050039
:100600000E000020FFF7FEFD0400022805D004289C
:1006100003D0032801D0200070BD32000121280042
:10062000FFF798FF012803D00028F4D00524F2E753
:100630000400F0E7F8B505000F0016000024012CB7
:1006400011DC2C226243AA1833002100280000F09C
:1006500021FA002801D10134F1E7002C04DD002F3C
:1006600002D1002000E00020F8BD002383718360E8
:10067000C3600133437103600371C37170474379F1
:10068000012B01D0002070470368012B01D000200E
:10069000F9E70379012B01D00020F4E70120F2E70C
:1006A00070B504000D00FFF725FF00280FD10022D0
:1006B00000212000FFF7BEFF002814D1200000F029
:1006C00007FA00281AD158230122E2540AE01F4BEE
:1006D0001B68D868E02212011D4906F0DFF8582394
:1006E0000122E25470BD194B1B68D86800221949D9
:1006F00006F0D4F858230122E254F3E72800FFF76C
:10070000B4FF2800FFF7BBFF00280DD0EB79012BC9
:1007100010D02A0001212000FFF71CFF002810D074
:1007200058230522E254DDE70B4B0C4A0C490D48D7
:1007300006F096F829002000FFF760FF5823E054E8
:10074000D0E7EA795823E254CCE7C046D811000834
:1007500054AF00109CAF0010CCAF00107CAE001066
:1007600011060000D0AF001010B500F04DFC10BD18
:10077000F0B5D646474680B583B0009101929A46BF
:100780000A9B98460B9F002512E05346E918230068
:10079000114A009800F0A6FB002818D14346E9183A
:1007A00023000D4A019800F0DBFB002811D12D1920
:1007B000BD4206D27C1B8023DB009C42E5D91C0095
:1007C000E3E7002003B00CBC90469A46F0BD012040
:1007D000F8E70120F6E7C046B0170008F0B5C646B6
:1007E00000B584B007003F4C2368DB683422012148
:1007F0003D4806F0B5F82368DB68202201213B481C
:1008000006F0AEF803A9012000F056FB00281AD12B
:1008100002A9022000F050FB00281AD1BB6A9846BA
:1008200000250024444521D2E3007A6A94466344BB
:100830005E68320029000398FFF796FF00280ED16A
:10084000AD190134EEE72A4B2A4A2B492B4806F012
:1008500007F8274B274A2A49284806F001F8E521DE
:10086000234B244A8900254805F0FAFF1D4B1B68DD
:10087000D8682A00234906F011F801950023009357
:10088000039A02993800FFF773FF3B6D5A68002105
:100890000298FFF769FF002818D17B6D013B3A6D84
:1008A000DB00D31811681A68511A5A680298FFF7CA
:1008B0005BFF002810D1039800F012FB029800F0B3
:1008C0000FFB002004B004BC9046F0BD084B094A61
:1008D0000D490A4805F0C4FF054B064A0B49074875
:1008E00005F0BEFFD8110008ACAE0010E4AE001059
:1008F00008AF001058AE00108A030000D0AF0010FF
:100900008E03000010AF0010C9030000D1030000E7
:1009100010B5FFF763FF002800D110BD024B034A5A
:100920000349044805F09CFF08AF001068AE0010B2
:100930001F050000D0AF0010F0B585B004000F0017
:100940006022002106F03AF8414B6362414B236577
:10095000012676420025012D14D82900002000F040
:10096000A5FBC0B22C2169432031611800F0A4FA24
:10097000061E01D10135EEE7374B384A3849394870
:1009800005F06EFF69462000FFF78AFE5823E35CFE
:100990006A46D371042B07D8022B08D2012B0CD046
:1009A0005823FF22E25408E0052B06D0F8E76946F9
:1009B0002000FFF7ADFF061E16D15823E35CFF2B86
:1009C00018D0012B24D1284B22689A4228D110221A
:1009D0000021684605F0F2FF236A5A783A715B6895
:1009E000BB603C6000252EE01B4B1C4A1F491D4884
:1009F00005F036FF1E4B1B68DB680E2201211D48E7
:100A000005F0AEFF1C4B154A1C49164805F028FF9F
:100A10006A4600212000FFF70DFE061EE2D1D2E754
:100A2000134B1B68D86800232200154905F036FFD8
:100A30000326D7E70122521B2C235343E318186ADD
:100A400000F04EFA0135012DF4D9300005B0F0BDAB
:100A5000B01B0008B08B000808AF00109CAE00105F
:100A600087060000D0AF00103DB8F396C70600001F
:100A7000D811000854B00010CCAF0010DE06000002
:100A800064B0001010B501000148FFF755FF10BD1C
:100A90005017000810B582B01400002000F006FBCB
:100AA000C0B201A900F008FA002806D0012401987C
:100AB00000F016FA200002B010BD20232200002111
:100AC000019800F00FFA041EF1D00124EFE70000B6
:100AD000F8B5CE46474680B5856A436D9C46E0230F
:100AE0001B019D4207D89C4505D800239946002448
:100AF000002100221AE0304B1B68DB683122012103
:100B00002E4805F02DFF00200CBC90469946F8BDFC
:100B1000DE00476AB846464476689219E600076DDB
:100B2000B84646447668891901330134AB4201D393
:100B3000644530D28A42EBD016D2DE00476AB8460E
:100B40004644766892194E46022E03D001330126A0
:100B5000B146EBE7184B1B68DB68392201211848C6
:100B600005F0FEFE0020CFE7E600076DB8464644DC
:100B7000766889194E46012E03D001340226B1460B
:100B8000D4E70D4B1B68DB68392201210C4805F0C6
:100B9000E7FE0020B8E7AB4201D1644509D0064B1F
:100BA0001B68DB6830220121064805F0D9FE0020D1
:100BB000AAE70120A8E7C046D81100088CB00010B1
:100BC000C0B00010FCB00010F0B5D6464F4680B55E
:100BD00085B004000E00170099460CAB1B789A46AE
:100BE000002842D0002944D0002A46D00D89CB6885
:100BF0009C466544042303AA2900380000F072F9DA
:100C0000019000283DD103AB1A88264B9A421CD094
:100C10007389002B3DD103AB1A88234B9A423CD1F8
:100C2000266067604B4623815346A37273895B1924
:100C3000E36003AA52889B1863610435256101981B
:100C400005B00CBC91469A46F0BD738903AA518841
:100C50008B421AD149190423380000F043F90028C7
:100C6000D9D001235B420193E9E701235B42019361
:100C7000E5E701235B420193E1E701235B42019336
:100C8000DDE701235B420193D9E701235B42019336
:100C9000D5E701235B420193D1E701235B42019336
:100CA000CDE7C0460869000007690000F0B583B0D1
:100CB00004000F0016001D00002848D00368002B18
:100CC00048D04368002B20D1012040423BE0042360
:100CD00001AA2169606800F005F900283DD1A37AD6
:100CE000002B03D02369E268934239D223891D4A3D
:100CF000934218D001AA1288934214D001AB5B88AA
:100D000022699446634404332361236962699342F0
:100D10001BD222685289002AD9D0E2689A42D6D1E1
:100D200004332361D3E7002D02D001AB1B882B8055
:100D3000236904333B6001AB5B88338022699446AE
:100D400063440433236103B0F0BD0120FBE70120BD
:100D50004042F8E701204042F5E701204042F2E737
:100D60000120F0E7FFFF000010B505F003F9064C85
:100D7000200002F0F1F8200002F0EEF8034B1868B2
:100D800000F0CAFD10BDC04680023140801000084E
:100D900070B5846803681B89E4180F4D2B68DB6805
:100DA000322201210D4805F0DBFD2B68D8682200B6
:100DB0000B4905F073FD2B68DB68222201210948ED
:100DC00005F0CEFD642004F079FCFFF7CDFF200094
:100DD00004F0C8FF70BDC046D811000830B1001043
:100DE00064B1001084B1001010B584B004F0AAFE04
:100DF00004F0CEFE04F0E2FE62B6E120400205F00F
:100E00009BF8002800D001BE244B1B68DB6822221F
:100E10000121234805F0A4FD224B186800F012FDC3
:100E2000041E1AD11D4B1B68DB682C2201211E48B1
:100E300005F096FD002C28D101A8FFF723FE00281D
:100E400013D1164B1B68DB682F220121174805F0D0
:100E500087FD01A8FFF79CFF17E0104B1B68D868BF
:100E60002200134905F01AFDE4E70C4B1B68DB6810
:100E7000382201210F4805F073FD642004F01EFCA8
:100E8000012402E0002004F051FD002CFAD0012CD6
:100E900001D030BFF9E730BFF7E7C046D8110008EE
:100EA000A8B1001080100008CCB100103CB20010B6
:100EB000FCB100106CB2001010B500229300074C7A
:100EC0001B59002B07D01C78844201D00132F5E772
:100ED0000B60002001E00120404210BD841000089A
:100EE0007047000070B5150044688C4214D9CA18C8
:100EF000944217D9611844787F2C19D064B2002C21
:100F00001CDB01246442104B1B68D86822000F4987
:100F100005F0C4FC200070BD0D4B0E4AE8210E48C0
:100F200005F09EFC0D4B0B4AE9210B4805F098FC9F
:100F30001A00280005F039FD0024EBE72A0000F034
:100F400047F9041EDFD1E5E7D81100089CB3001073
:100F50002CB30010A8B2001040B3001084B30010EE
:100F6000F8B5170044688C420CD9CA18944210D9BD
:100F7000641842787F2A13D052B2002A33DB012052
:100F80004042F8BD10211A4B1A4AFF311A4805F0A9
:100F900067FC8821194B174A4900174805F060FC87
:100FA000DA0505D1E2050AD15E0A0025002017E026
:100FB0001C21134B0F4AFF310F4805F051FC8E21C5
:100FC000104B0C4A49000C4805F04AFC390020003F
:100FD00001F048FE80239B009C4664446744013531
:100FE000B542F3D3CDE73A00210000F015F9C8E788
:100FF0002CB30010B8B2001040B3001084B300103E
:10100000C4B30010E4B3001070B545688D420ED92A
:101010008C18A54212D9D40517D16D1843787F2BAF
:101020001AD05BB2002B22DB0120404270BD42216E
:10103000114B124AFF31124805F012FCA121114B4D
:101040000E4A49000E4805F00BFC44210E4B0B4A9A
:10105000FF310B4805F004FC540A002004E0013C79
:101060006002401901F0ACFD002CF8D1DEE7110060
:10107000280000F0F5F8D9E72CB30010CCB200102E
:1010800040B3001084B30010C4B3001010B543780F
:101090007F2B08D05BB2002B02DB0120404210BD49
:1010A00000F032FCFBE780208000F8E701290AD03D
:1010B000022906D0002902D00120404200E0012090
:1010C00070470320FCE70220FAE7000010B54378E0
:1010D0007F2B0CD05BB2002B02DAFF20C0B210BD18
:1010E000E721044B044A4900044805F0B9FB0020FD
:1010F000F4E7C04610B30010E0B2001040B3001097
:10110000F0B583B0009015001E00FFF7EBFE0190D4
:10111000002810D10024B44208D22F5D0098FFF7B8
:10112000D5FF874204D10134E4B2F4E701230193EF
:10113000019803B0F0BD01235B420193F8E7000082
:1011400070B50024A3001D4D5B59002B04D01D7801
:10115000854215D00134F5E71800002B27D04378DD
:101160007F2B02D05BB2002B24DA8368144CA44698
:1011700063445D0A0B68AB4204D34468002011E06D
:101180001800EAE785210F4B0F4A89000F4805F048
:1011900067FBC300D3188026B6005E601C60B446AF
:1011A00064440130A842F4D30D60002070BD0120DA
:1011B0004042FBE701204042F8E7C04684100008A7
:1011C000FF01000018B30010F8B2001040B3001087
:1011D000F0B585B00C0003921D0043787F201840C5
:1011E00000F00AFB0600E82109068C46644400F082
:1011F0000BFB070000F00CFB01900095039B220005
:101200003100380003F088FE002802D1002005B02C
:10121000F0BD01204042FAE7F0B585B00C00039222
:101220001D0043787F20184000F0E6FA0600E82110
:1012300009068C46644400F0E7FA070000F0E8FA7B
:1012400001900095039B22003100380003F0AEFEB0
:10125000002802D1002005B0F0BD01204042FAE78D
:10126000F0B583B00400002000F0C6FA0500E823C2
:101270001B06E21883699C696442144000F0C4FABA
:101280000600AB699F6900F0C3FA00903B002200A2
:101290002900300003F0ECFE002802D1002003B04A
:1012A000F0BD01204042FAE7F8B5C64AC64BD35814
:1012B000DA0718D49A0700D5F4E05A0700D5B9E147
:1012C0001A0700D5C0E1DA0600D5C7E19B0600D4B5
:1012D000E7E0BE4B08229A61BA4AF823DB002021DE
:1012E000D150D358DDE0B94B99681A68B5488423CA
:1012F000C3580F2003400738C01A0B00814226D97B
:10130000030024E05078000214782043D4782406A7
:1013100095782D042C432043AA4E9825705150797E
:10132000000214792043D479240697793F043C4382
:1013300020437051D218C91AA2488423C3580F20E1
:1013400003400738C01A0B00814200D90300002B6C
:1013500000D18BE0082BD5D0012B25D0022B28D033
:10136000032B2ED0042B37D0052B43D0062B52D085
:10137000072B64D053781B0210780343D078000603
:1013800094782404204303438E4E98257351537957
:101390001B0210790343D07900069479240420437A
:1013A000034373510823C5E71578864C90202550D8
:1013B000C0E75078000214782043824D94242851CD
:1013C000B8E750780002147820437E4C9425605191
:1013D000957890202550ADE750780002147820438E
:1013E000D478240695782D042C432043754D9824F9
:1013F00028519FE75078000214782043D4782406BF
:1014000095782D042C4320436E4C98256051157916
:10141000902025508EE75078000214782043D4782D
:10142000240695782D042C432043664C9825605162
:101430005079000215792843942560517AE7507855
:10144000000214782043D478240695782D042C4388
:1014500020435C4C9825605150790002157928434F
:101460009425605195799020255063E7574B1A6079
:10147000996000290FD15348F921C900435801222E
:1014800093434350514B9A61DB69002B03D04F4B80
:10149000DB69012098474B4AF823DB000121D1503A
:1014A000D358F8BD494B5C69DA684649C423CB5828
:1014B0000F21194023008C421ED90B001CE0414D26
:1014C000D820295811700E0A56700E0C9670090E0D
:1014D000D17029581171080A5071080C9071090EC9
:1014E000D171D218E41A3749C423CB580F211940BF
:1014F00023008C4200D90B00002B7CD0082BDED0BF
:10150000012B1FD0022B22D0032B27D0042B2FD04E
:10151000052B38D0062B44D0072B59D02948D82189
:10152000435813701D0A55701D0C95701B0ED37017
:1015300043581371190A5171190C91711B0ED37113
:101540000823CEE71F48D02141581170C9E71D4834
:10155000D42141581170090A5170C2E71948D421A9
:1015600041581170090A5170D02141589170B8E763
:101570001448D82141581170080A5070080C907016
:10158000090ED170ADE70F48D821415811700D0AEE
:1015900055700D0C9570090ED170D0214158117104
:1015A0009FE70848D821415811700D0A55700D0C5D
:1015B0009570090ED170D42141581171090A5171E9
:1015C0008FE7C04600004240CC070000B0FC000896
:1015D0002748D821415811700D0A55700D0C95708F
:1015E000090ED170D42141581171090A5171D021CD
:1015F0004158917175E71F4BDA605C61002C10D186
:101600001B49F922D2008B58022083438B50194B7F
:1016100003229A611B6A002B03D0164B1B6A013010
:101620009847144B5C61124AF823DB000221D15029
:10163000D35836E70F4B05229A610D4AF823DB0099
:101640000421D150D3582CE70A4B06229A61084A4C
:10165000F823DB000821D150D35822E7054B07229D
:101660009A61034AF823DB001021D150D35818E7C0
:1016700000004240B0FC0008F8B54E4C4E4A032131
:10168000200001F045FB4D4F3A689369E31ADB09EE
:1016900052691B01D3181A68494E324088256D05DE
:1016A0002A431A60474A0421200001F031FB3A68BE
:1016B0009369E31ADB0952691B01D3185A681F2189
:1016C0008A430E390A435A603F4A0C39200001F020
:1016D0001FFB3A689369E31ADB0952691B01D318AF
:1016E0005A683A491140882252010A435A60384ADE
:1016F0000621200001F00CFB3A689369E31ADB092C
:1017000052691B01D3185A6832491140882252038A
:101710000A435A60304A0721200001F0F9FA3B6879
:101720009A69A41AE40924015A69944664446268D7
:101730001640354365603C229B5C022B06D9274846
:10174000E221890042580F24A2434250022B08D9BB
:101750002248E221890042583024A243103C22430F
:101760004250022B07D91D49E2229200885880235B
:101770001B0603438B501A491A4803F03BFFFA2219
:10178000194B920019491A4802F050F8041E0FD163
:10179000144B00229B5E002B06DB1F2213401E3AD7
:1017A0009A401300134A13600F49114802F0AAFA35
:1017B0002000F8BD80053140ACB40010CCFF00081B
:1017C000FFFFFFE078B4001044B40010FFE0FFFF1B
:1017D00010B40010FFFFE0FFE0B40010000026404E
:1017E000A9120010B8110008B0FC000814B50010D0
:1017F0000000424000E100E0024B1B685B68800093
:10180000C058704768FD000800487047000042401B
:1018100000487047B0FC000810B50400FFF72CFF2B
:10182000002800D010BD044B1C60044A210004486D
:1018300003F07AFAF6E7C04668FD0008B0FC00083D
:1018400000004240F8B52C4B5B6802283ED007D917
:1018500003283FD004284CD11B6808221A7004E0EA
:10186000012846D11B6801221A700138234A43001F
:101870001C18A1008C5851184D680E7A204A167217
:101880002F002900200001F043FA072D00D901BEE6
:101890001F2332009A4300D001BE1A4B1B689A697D
:1018A000A41AE4095B6924011C19032F16D9043D0D
:1018B0006368ED001F22AA4093431F221640AE40EA
:1018C0001E4366600C48FFF7A7FFF8BD1B680222A5
:1018D0001A70CAE71B6804221A70C6E72368ED0075
:1018E0001F22AA4093431F221640AE401E4326608B
:1018F000E8E701204042E8E7A8110008601100086D
:10190000B8100008CCFF0008024B5B681B689B699D
:10191000586A7047A811000870B50400224D2800CD
:1019200002F0DAFE2B685B005B082B601F4B1A6825
:101930003C23D35C022B06D91D49E22292008B582E
:101940005B005B088B501B4B00229B5E002B0BDB6C
:101950001F2213401E3A9A401300174980228B50D1
:10196000BFF34F8FBFF36F8F124B59880020185E63
:1019700003F00CFE013C6000001983000F4A9858E8
:1019800001F0EAFA0E4C200001F0E6FA200001F026
:10199000E3FA200001F0E0FA200001F0DDFA200077
:1019A00001F0DAFA70BDC04600004240CCFF0008EA
:1019B00000002640B811000800E100E060110008B6
:1019C00080053140F0B51D4C2568002D2CD0AC6B46
:1019D0002418266807002C6D2418A41B661EB44129
:1019E000E4B2A446AC683C1926680F243440062CA7
:1019F000F8D81206EC6804191343236063460B43BE
:101A000011D0AB68FB181B68DB03FAD50C4B1A68C6
:101A10002923D35C1F2B09D8084B1B681B681B1894
:101A20001B681B06F8D4F0BD0026D3E7034B1B68E8
:101A30001B681B181B68002BF8D1F4E7B4FD0008E5
:101A4000CCFF000810B50400E0239B058022002194
:101A5000FFF7B8FFD0239B05802200212000FFF76D
:101A6000B1FFC0239B05802200212000FFF7AAFFC1
:101A7000B0239B05802200212000FFF7A3FFA023B5
:101A80009B05802200212000FFF79CFF90239B05EF
:101A9000802200212000FFF795FF80239B058022F4
:101AA00000212000FFF78EFFE0235B05802200214C
:101AB0002000FFF787FFC0235B0580220021200064
:101AC000FFF780FFA0235B05802200212000FFF7A5
:101AD00079FF80235B05802200212000FFF772FF41
:101AE000C0231B05802200212000FFF76BFF80230D
:101AF0001B05802200212000FFF764FF8023DB0408
:101B0000802200212000FFF75DFF002380220021BA
:101B10002000FFF757FF0B4B1B689B080A4A116810
:101B200029228A5C1F2A0AD90D229340F0229205AD
:101B30001343802200212000FFF744FF10BD0C2238
:101B4000F3E7C046B8FD0008CCFF0008054B1A6853
:101B50002923D35C1F2B03D9034A044B1A60704717
:101B6000034AFAE7CCFF000878B50010B4FD00087E
:101B700024B50010F0B583B01400404B1B68002B57
:101B800070D0002941D000296ED0002C6ED0802268
:101B90001202944200D96CE080221201944255D086
:101BA0003CD980229201944252D045D98022D20160
:101BB00094424FD08022120294423BD10027304AF7
:101BC00012682925565D1F2E48D9651E01912942AC
:101BD00051D11F2E02D93F022A4947509B6B1B1837
:101BE00001991960A3082921525C1F2A38D80C22B8
:101BF00093401A00F0239B05134380220021FFF736
:101C0000E1FE214B1C60002031E0002ABBD11A6D9F
:101C100011181B4A1268946CA400B4E78022920049
:101C200094420FD08022D20094420DD080225200E4
:101C3000944211D015481AE0802252019442F9D101
:101C40007027BCE77E27BAE77C27B8E77827B6E796
:101C50006027B4E74027B2E77F27B0E70C4DB5E730
:101C60000D22C5E7094802E0084800E0074803B034
:101C7000F0BD0648FBE70548F9E7C046B4FD00089B
:101C8000CCFF000888140000B8FD00080B003200EB
:101C9000FF3F000010B50400FFF758FF194B1A680A
:101CA0002923D35C1F2B10D8174B2360174B1A68BE
:101CB000536B1B1901211960154B1B68002B16D0A3
:101CC0002000FFF7BFFE002010BD2368114A13401B
:101CD00023600E4B1B685B681B190F4A1A60226851
:101CE00080231B06134323600323A360DEE7116DEB
:101CF0006118044B1B689A6C92002000FFF73AFFB2
:101D0000DEE7C046CCFF000803000080B4FD0008F9
:101D1000B8FD0008FFFFFE7F01000200084B1A68B3
:101D20002923D35C1F2B07D9002303608360054B55
:101D300000221A600020704700230360F7E7C046C6
:101D4000CCFF0008B8FD0008F0B50C4C2568070072
:101D5000AC68241826680F243440042CF5D8E868B1
:101D6000C019074C0460E868C0190160E968C91926
:101D70000A60EA68D7193B60F0BDC046B4FD0008B0
:101D800010020042F0B50E4C25680700AC6824181C
:101D900026680F243440032CF5D8E868C019094C94
:101DA0000460E868C0190160E968C9190A60EA6856
:101DB000D2191360EB68DF19059B3B60F0BDC0468C
:101DC000B4FD000810320043F0B505AA17780A4A9E
:101DD0001468A268121815680F222A40072AF6D83C
:101DE00009060222BA40114301229A40E3681E18F4
:101DF00011433160F0BDC046B4FD000870B50D4A16
:101E000014680600A268121815680F222A40072AD3
:101E1000F5D809060322059882401143022204984E
:101E20008240114301229A40E3689E1911433160B8
:101E300070BDC046B4FD000810B582B004001000AB
:101E4000002B01D102B010BD0A0001002000FFF7F5
:101E50007BFF08230093043B002250212000FFF762
:101E6000B3FF044B1B681B681B191B68DB06F8D407
:101E7000E8E7C046B4FD000810B582B00400181EA3
:101E800001D102B010BD130002002000FFF75CFF7B
:101E90000C230093043B002251212000FFF794FF04
:101EA000034B1B681B681B191B68DB06F8D4E8E7AB
:101EB000B4FD0008F0B5002B50D09C46284C246897
:101EC0000500A668361837680F263E40042EF5D860
:101ED000862676018659002EFADBE0682818214E06
:101EE0000660E06828180260E268AA186046106080
:101EF000A268521910680F220240042AF8D8E2683A
:101F0000521919481060E26852191160E2685219BA
:101F1000614611600CE0A268AA1811680F220A40FD
:101F2000062AF8D8E268AA1810491160103B9BB243
:101F30000F2BF0D8002B0CD0A268AA1811680F2222
:101F40000A40062AF8D81B04E268AA1808490B437D
:101F500013602368EB181B68002BFAD1F0BDC04654
:101F6000B4FD0008080000710C00007008C01040AB
:101F700008C00040F0B5002B3FD09C461F4C2468A1
:101F80000500A668361837680F263E40042EF5D89F
:101F9000E06828181A4E0660E06828180160E168B9
:101FA0006918604608600DE0A168691808680F218B
:101FB00001400629F8D8E168691812481043086002
:101FC000103B9BB20F2BEFD8002B11D0A1686918E2
:101FD00008680F2101400629F8D81B04C021090216
:101FE0000B43E16869181A438423DB051A430A602E
:101FF0002368EB181B68002BFAD1F0BDB4FD000874
:102000000C00007000C0104210B582B00400100037
:1020100007234A681340C0229200A3500A698B69C3
:10202000009201002000FFF7ADFE0C230193043B5A
:102030000093043B00224C212000FFF7DFFE044BFD
:102040001B681B681B191B685B07F8D402B010BD26
:10205000B4FD000810B5002B01D0002900D101BE4D
:10206000062A00D998E090004C4C205887468B6097
:1020700018004030086154338B610A6000234B60C4
:10208000474BCB624023CB602C3B4B614B622D33E3
:10209000FF33CB61002010BD8B6018004030086119
:1020A00060338B610A6001234B603E4BCB6240235F
:1020B000CB60203B4B61043B4B62E433CB6100209F
:1020C000E9E78B6018004030086160338B610A607B
:1020D00001234B60344BCB624023CB60203B4B61F0
:1020E0004B62E033CB610020D5E78B601800803075
:1020F0000861C0338B610A6002234B602B4BCB62BB
:102100008023CB60403B4B61103B4B62A0239B0084
:10211000CB610020BFE78B60180080300861C033BE
:102120008B610A6002234B60214BCB628023CB6022
:10213000403B4B614B62A0239B00CB610020AAE790
:102140008B60180080300861C0338B610A60022305
:102150004B60184BCB628023CB60403B4B61243BF0
:102160004B62A0239B00CB61002094E78B6018009A
:1021700080300861C0338B610A6002234B600E4BD4
:10218000CB628023CB60403B4B61203B4B62A02362
:102190009B00CB6100207EE708487CE7CCB50010AF
:1021A000E8B50010FCB500101CB600103CB60010DD
:1021B0007CB60010BCB60010FCB600100B0032005C
:1021C00010B500290DD000238B620B624B69002BE8
:1021D00009D00C69CA6A9BB22100FFF72DFE0020CE
:1021E00010BD0248FCE70148FAE7C0460B00320088
:1021F000F0B5C64600B582B001900C0017001D0076
:10220000002930D0002A30D0CE68002E2FD0002BED
:102210002FD00B6A5B190B62896A13E0731A984618
:10222000A3689C46614443469BB23A000198FFF77D
:1022300003FEA26821000198FFF7E6FE4346ED1A6F
:10224000474400216B189E42E8D9A362002D01D1BA
:1022500000200FE0A3685918ABB23A000198FFF7CD
:10226000EBFD002006E0054804E0044802E00348D6
:1022700000E0002002B004BC9046F0BD0B0032002C
:10228000F0B5DE4657464E464546E0B583B0009071
:102290000E00140000295ED0002A5ED00D698B6804
:1022A0009846CF688B6A9A460B6ADB009946802F66
:1022B0002DD0382301938023424651465354013197
:1022C0004144BBB29B4652469B1A9BB2013B9BB218
:1022D00000220098FFF7D0FD019B53451AD93B1F00
:1022E0004A46120E4146CA544B461A0CFB1ECA54AB
:1022F0004B461A0ABB1ECA54013F4A46CA554246BB
:1023000031000098FFF780FE736A9B0819E0702384
:102310000193D0E7424631000098FFF775FE5B4617
:10232000002241460098FFF7A7FDD8E7EA7822701F
:10233000AA7862706A78A2702A78E2700434043550
:10234000013B002BF2D1002003B03CBC90469946E3
:10235000A246AB46F0BD0248F6E70148F4E7C046A6
:102360000B00320010B5002B01D0002900D101BEB6
:10237000062A00D970E09000384C205887468B60C0
:1023800040330B610A6069234B60354BCB624023BD
:10239000CB602C3B4B614B62002010BD8B60403307
:1023A0000B610A606A234B602E4BCB624023CB60EB
:1023B000203B4B614B620020EFE78B6040330B61A9
:1023C0000A606A234B60284BCB624023CB60203BE2
:1023D0004B61043B4B620020DFE78B6080330B6175
:1023E0000A606B234B60214BCB628023CB60403B68
:1023F0004B614B620020D0E78B6080330B610A6039
:102400006B234B601A4BCB628023CB60403B4B610C
:10241000103B4B620020C0E78B6080330B610A6089
:102420006B234B60134BCB628023CB60403B4B61F3
:10243000203B4B620020B0E78B6080330B610A6069
:102440006B234B600C4BCB628023CB60403B4B61DA
:10245000243B4B620020A0E708489EE73CB70010F1
:1024600058B700108CB700106CB70010ECB7001014
:10247000ACB700106CB800102CB800100B00320084
:1024800010B500290DD000238B620B624B69002B25
:1024900009D00C69CA6A9BB22100FFF70BFD00202E
:1024A00010BD0248FCE70148FAE7C0460B003200C5
:1024B000F0B5DE4657464E464546E0B583B09446F5
:1024C000002900D154E1002A00D153E1CE68002E4A
:1024D00000D151E1002B00D150E10A6AD2180A6202
:1024E0008A6A9046A64A14680500A26812181768FE
:1024F0000F223A40062AF5D8E2688218C827FF055D
:102500001760226852191268002AFAD10A699346A4
:102510004A699146A268521917680F223A40042A64
:10252000F8D8E2685219974F1760E26852195F466F
:102530001760E26852194F4617604A699146A268CF
:10254000521917680F223A40062AF8D8E26857193C
:102550000197CC27FF05BA464F46524617433A002B
:10256000019F3A60226852191268002AFAD1A268C3
:10257000521917680F223A40062AF8D8E268521911
:10258000CA27FF0517604246002A2AD08A6891466A
:10259000A268AA1817680F223A40042AF8D8E268FD
:1025A000AA18784F1760E268AA184F461760E268C9
:1025B000AA1847461760A268AA1817680F223A405F
:1025C000062AF8D8E2689246AA44CC27FF0542467C
:1025D00017433A0057463A602268AA181268002A40
:1025E000FAD1A268AA1817680F223A40042AF8D82C
:1025F000862252018258002AFADBE268AA18624851
:102600001060E268AA1860461060E268AA181360B9
:1026100024E04246B01AA268AA1817680F223A406E
:10262000062AF8D842461702E2689446AC440743AB
:10263000CC22D2053A4367463A604A689046A2687F
:10264000AA1817680F223A40062AF8D8E268AA1892
:1026500047463F0617601B1A0022904642469A18CA
:102660009642D6D98A62002B14D0A268AA181068A4
:102670000F220240062AF8D842461202E0682818C3
:102680001343CC22D205134303602368EB181B6865
:10269000002BFAD1886A002824D08E68A368EB1832
:1026A0001A680F231340042BF8D8E368EB18374A55
:1026B0001A60E368EB181E60E368EB181860886A1C
:1026C000A368EB181A680F231340062BF8D8E368A9
:1026D000EB18CE22D20502431A602368EB181B6860
:1026E000002BFAD14869A368EB181A680F2313402E
:1026F000042BF8D8E368EB18244A1A60E368EB1857
:102700005A461A60E368EB181860A368EB181A6859
:102710000F231340062BF8D8E368EB18CA22D20522
:102720001A604969A368EB181A680F231340062B37
:10273000F8D8E368EB18CE22D2050A431A60236862
:10274000EB181B68002BFAD1A368EB181A680F234B
:102750001340062BF8D8E368ED18CA23DB052B607D
:10276000002003B03CBC90469946A246AB46F0BD63
:102770000748F6E70648F4E70548F2E70020F0E7E7
:10278000B4FD000808000070080000710C00007023
:102790000B003200F0B5DE4657464E464546E0B5E2
:1027A00083B09046002900D16EE1002A00D16DE18E
:1027B000CF688B6A9C460A6A530F0193D200802F20
:1027C00000D15EE138239946B14B1B6804009D6837
:1027D0002D182E680F253540062DF5D8DD684519D2
:1027E000C826F6052E601D682D192D68002DFAD11A
:1027F0000D69AB464D69AA469D682D192E680F25B7
:102800003540042DF8D8DD682D19A24E2E60DD6804
:102810002D195E462E60DD682D1956462E604D69D5
:10282000AB469D682D192E680F253540062DF8D82A
:10283000DD682D190095CC26F605B2465E46554654
:102840002E43009D2E601D682D192D68002DFAD194
:102850009D682D192E680F253540062DF8D8DD68A6
:102860002D19CA26F6052E608D68AB469D682D1978
:102870002E680F253540042DF8D8DD682D19854EBA
:102880002E60DD682D195E462E60DD682D196646C6
:102890002E609D682D192E680F253540062DF8D81D
:1028A000DD68AA46A244CC26F60565462E43554669
:1028B0002E601D682D192D68002DFAD19D682D19E7
:1028C0002E680F253540062DF8D865462D02AA46FC
:1028D000DD68AB46A344704E55462E435D462E60E0
:1028E000E14512D84D68AC469D6865192E680F25E4
:1028F0003540062DF8D8DD686519664636062E6027
:102900001D6865192D68002DFAD17D1FAC466D46F6
:102910002D79A9469D6865192E680F253540062D2D
:10292000F8D865462D02DE68B246A2444E463543CD
:10293000D026F6053543564635603D1FA946150E8F
:10294000AC469D6865192E680F253540062DF8D8D0
:102950004D462D02DE68B146A14466463543D02679
:10296000F60535434E463560FD1EA946150CEDB201
:10297000AC469D6865192E680F253540062DF8D8A0
:102980004D462D02DE68B146A14466463543D02649
:10299000F60535434E463560BD1EA946150AEDB213
:1029A000AC469D6865192E680F253540062DF8D870
:1029B0004D462D02DE68B146A14466463543D02619
:1029C000F60535434E463560013FD2B294469A68CB
:1029D000A21815680F222A40062AF8D83A02DD68A4
:1029E000651966463243D027FF053A432A604E6890
:1029F0009A68A21815680F222A40062AF8D8DA68C1
:102A0000A218360616601A68A2181268002AFAD1AF
:102A10004E6A9A68A21815680F222A40042AF8D82C
:102A2000DA68A2181D4D1560DA68A21845461560CF
:102A3000DA68A21816609A68A21815680F222A4050
:102A4000062AF8D8DA68A218CA25ED0515604D6A7D
:102A50009A68A21811680F220A40062AF8D8DB6883
:102A6000E418CE23DB052B4323600D4BC358002B0A
:102A7000FBDB002003B03CBC90469946A246AB4627
:102A8000F0BD702399469FE60648F3E70548F1E755
:102A9000B4FD000808000070800000680C000070A1
:102AA000F01000000B003200014B18607047C04668
:102AB000CCFF0008C00543425841C0B27047000037
:102AC0001F4B984232D00ED91E4B984234D01BD99E
:102AD0001D4B984226D01D4B984225D01C4B984246
:102AE0001ED01C481BE0402822D007D9802821D0C6
:102AF00080235B009842F4D1114810E000280DD0EB
:102B00001028EED114480AE0A0231B06984205D0F5
:102B1000124B9842E5D1A020C00300E0002070478E
:102B20000F48FCE70F48FAE70F48F8E70448F6E7D4
:102B30000E48F4E70E48F2E7A420C003EFE7C046D2
:102B400006005200010000F0040000F0050000F053
:102B5000030000F0FF00520001005000090000A037
:102B60000100520002005200030052000200500017
:102B70000500520010B50F4B1A682E23D35C002BB2
:102B800000D101BE0B4B1C68B023E358226A944667
:102B900063441B68002B0ADB074B1868FFF790FFA4
:102BA0006268012393609368002BFCD110BD034839
:102BB000FCE7C046CCFF0008BCFD00080200500046
:102BC00010B50400FFF776FF00283CD003F010F8A2
:102BD0001E4B1F4A1A605C6000229A60DA601D4B2F
:102BE0001A685023D35C002B05D1802000214000BF
:102BF00008F0EAF828E0002002F068FC154B1B689A
:102C00001C6880229B58E4182168090E01314B088A
:102C1000C01803F079FB23681B0AFF21194001311A
:102C20004B08181803F070FBFA21890003F06CFBC5
:102C30000100094803F068FB084BC11880204000E0
:102C400008F0C2F800E0064810BDC046BCFD000810
:102C50000001001CCCFF000860F5900098080000FF
:102C60000600520070B504000D00FFF723FF002896
:102C70003ED0002D3ED002F0BBFF1F4B1F4A1A6012
:102C800000225A609C60DD601D4B1A684E23D35CA5
:102C9000002B05D180200021400008F095F828E0A5
:102CA000002002F013FC164B1B681C6880229B5806
:102CB000E4182168090E01314B08C01803F024FB09
:102CC00023681B0AFF21194001314B08181803F033
:102CD0001BFBFA21890003F017FB0100094803F0F0
:102CE00013FB094BC1188020400008F06DF800E08C
:102CF000064870BD0548FCE7BCFD00080001000562
:102D0000CCFF0008C0EA210148260000060052005E
:102D1000F0B5CE46474680B58146002800D113E184
:102D2000002A00D112E1072900D901BE1368012B46
:102D300000D901BE0F2354689C4300D001BE137A12
:102D40001F24A34300D001BED368032B00D901BECA
:102D50001369012B00D901BE5369012B00D901BEB3
:102D60009369012B00D901BED369032B00D901BEA1
:102D7000136A012B00D901BE536A012B00D901BE91
:102D8000936A012B00D901BED36A032B00D901BE7F
:102D9000136B072B00D901BE1368072900D901BEA8
:102DA000012B00D901BE002B00D0BDE001338B40C8
:102DB000484643605768072900D901BE0F233C00ED
:102DC0009C4300D001BE8E00614B1C687923E55CFA
:102DD0004D442C686A3B1800B04084433B40B340EC
:102DE00023432B60177A072900D901BE1F2338001F
:102DF000984300D001BE564B1C68A3694846C31ACD
:102E0000DB0964691B01E318032900D891E00C1F5A
:102E10005D68E4001F26A640B5431F263E40A6403D
:102E200034002C435C60D768082900D901BE032F09
:102E300000D901BE4C00464B1D687823EE5C4E4421
:102E40003568753B1800A04085433B40A3402B43A9
:102E500033601769082900D901BE012F00D901BECE
:102E60004B469E6901252B008B409C46DB431E4050
:102E70003D408D403543484685615769072900D953
:102E800001BE012F00D901BE314D2E687A25755D36
:102E9000A846C844404605681D4001231F408F4096
:102EA0003D43056010208046A04403252C00404689
:102EB0008440604620437B24375D4F443C68844314
:102EC000A44694691C408C4060460443D069054088
:102ED000404685402C433C607C24345D20004844BF
:102EE0000468FF25AC43166A3340566A7700022611
:102EF0003E403343966AB70004263E403343D66AC9
:102F0000F70018263E403343126B520115402B4305
:102F10008900FE22920011408B4023430360002071
:102F20000CBC90469946F0BD01238B404846836017
:102F300040E71D68C8001F248440A5431F263E406B
:102F400086402E431E606EE70248E9E70148E7E746
:102F5000CCFF000801005A0010B5114B1A689369A4
:102F6000C31ADB091B015169C918002303607924C6
:102F7000145D041923607A24145D041923607B24F2
:102F8000145D041923607824145D0419236083619F
:102F90007C24125D801803600B604B6010BDC0463E
:102FA000CCFF0008084B1A68B023D3581B181B68C5
:102FB000002B07DA0B0C00D001BE0904090C41609C
:102FC000002070470148FCE7CCFF000801008A00A0
:102FD0000368002B08DAC2600B0C00D001BE0904A4
:102FE000090C8160002070470048FCE701008A005E
:102FF00000290BD0074B1A68B023D3581B181B6845
:10300000002B05DAC3680B600020704701BEF1E7B2
:103010000148FAE7CCFF000801008A00034B1B6857
:10302000002B00D07047014B1860FBE7D0FD000873
:1030300070B5244C2468002C41D0224C25682C24E7
:1030400060432818D33425001D4005601E0A344013
:1030500044601B0C83601C4B1C682E23E35C9D4268
:1030600000D301BE184B1C68AC23E35A6B43256A9E
:10307000AC466344036143682F25645DA34200D3DB
:1030800001BE114C2468246A80335B01E41844615A
:1030900083681D0C2D0400D001BE002D00D001BEA0
:1030A0001B041D0C2B43A360C261016200238361DA
:1030B000049B002B02D000229B5E838170BD01BE69
:1030C000BBE7C046D0FD0008CCFF0008F0B58FB0CC
:1030D000041E44D06368032B00D901BEE36A002BB1
:1030E0003FD0236B002B3ED007AA1300210061C9FB
:1030F00061C321C921C302AD290023001433C1CB10
:10310000C1C141CB41C10821535E0CAE3380174B86
:103110001B689B8E079989B25B187380089B0D937F
:103120000B9B0A980096A26AE16AFFF781FF2B6960
:10313000E868002200920021FFF77AFF216B30003F
:1031400002F058FA0022B35E002B06DB1F22134068
:103150001E3A9A401300064A13600FB0F0BD01BE3C
:10316000B8E701BEBDE701BEBEE7C046CCFF000820
:1031700000E100E070B5002A2BD01B4C2468002C25
:1031800029D0194C25682C246043281861436918FC
:103190002B3C25004E68B5402D044668B4400069BC
:1031A00000281AD08E69002E19D10668002E18DA70
:1031B00016683604360C35431560C26001228A61F8
:1031C0004B62230C00D001BE2404240C8460002038
:1031D00070BD01BED1E701BED3E70448F8E704485B
:1031E000F6E70348F4E7C046D0FD000804028A0071
:1031F00007028A0070B582B0040000230193002802
:103200002AD02369002B29D06369002B28D0236A98
:10321000002B27D06369DD682A0C0BD012041A60DA
:103220001B682069204B1A68B023D3581B181B68F1
:10323000002B19DB2D042D0C0AD063691D601B685F
:10324000636A002B2AD09847002363620023A3619E
:1032500063691B6802B070BD01BED2E701BED3E74F
:1032600001BED4E701BED5E701A9FFF7C1FE0028E2
:103270000ED101980268160CFF231340E2699A42AE
:1032800007D99B00226AD358002B02D0984700E050
:10329000002631002069FFF785FECBE7A36A002BEB
:1032A000D4D09847D2E7C046CCFF000810B5020042
:1032B000064B1B68002B07D0044B1B682C20504387
:1032C0001818FFF797FF10BD01BEF5E7D0FD000805
:1032D00070B50C00194B1B682E229A5C824224D9CF
:1032E000002924D00A68D10623D11D6AAC215B5A7B
:1032F00058432D18124E3560D2080021606803F043
:103300005DFB00212800FFF74DFE30682200002100
:10331000FFF75EFE00280ED1094B18680021FFF769
:1033200041FE002802D0074800E0074870BD06486B
:10333000FCE70548FAE70348F8E7C046CCFF000879
:10334000D4FD000801018A0003018A0010B5002A9B
:103350000AD0002A1CD000291CD00F4B19605A60DB
:103360001900FFF7B5FF10BD0029F2D10B4B1A6809
:103370002E23D35C984200D301BE084B1A68136A0F
:10338000AC21525A50431818054B18600020EAE748
:103390000448E8E70348E6E7E0160008CCFF000829
:1033A000D4FD000803018A00F0B583B00D00194B6D
:1033B0001B68DE68336883422AD947091F231840F7
:1033C0000124844000290CD000230193114B18687C
:1033D0000368002B09DB104C002D15D0200003B032
:1033E000F0BD02F04AFF0190F0E77268BB00D3180D
:1033F0001A68144206D0A2431A6000240021FFF785
:10340000D1FDE9E7054CF9E7019802F03AFFE5E75D
:10341000034CE3E7D4FD00080301880002018800A3
:1034200004018A000A4B1B68DB681A6882420DD9C6
:1034300041091F2210401E3A8240586889000B58EB
:103440001A4201D1034802E0034800E003487047F4
:10345000D4FD0008000188000101880004018A00F1
:1034600003681B050CD5802282239B00C358DB0513
:10347000DB0D934206D090239B00C1500120704782
:103480004022F1E70020FAE7F0B5C64600B5002873
:1034900000D176E1002900D175E10B78022B00D92B
:1034A00001BE4B7B023BDBB2062B00D901BE8B7BFE
:1034B000002B04D0022B02D0032B00D001BE21230D
:1034C000CB5C012B00D901BE2823CB5C012B00D99A
:1034D00001BE0B78012B0AD98B7F002B00D199E01C
:1034E0004B68013B062B00D996E0002305E04C68B1
:1034F000083C0823A3429B415B42002B00D001BE45
:103500008B68053B042B00D901BE4B69FF2B00D90A
:1035100001BE8B69FF2B00D901BE8B7C002B06D02E
:103520000B78002B02D18B68092B77D001BE984B0A
:103530004C6B1C4200D001BE964BCC6B1C4200D0A1
:1035400001BE0B78022B6DD04B685D1E0B7F002BEC
:103550006DD080235B028C68082C6AD880242401FB
:1035600023430F242C4023438024A40423430360DB
:103570000B6B046824055ED58024A34200D301BEF2
:103580008B6B0468240558D58024A34200D301BE68
:103590004B6A0468240552D58024A34200D301BE9F
:1035A0000E783306C024A404234003644B7F002B11
:1035B00047D040238C7C002C45D08024E40023435A
:1035C0000C7C002C41D08024640023434C7C002CD4
:1035D0003DD08024A4002343CD6A6C1E2404F02730
:1035E0003F033C4023434F7B013F07243C402343A0
:1035F0008F7B3F0130243C40234383640B7B002BB3
:1036000027D080246400CB7B002B27D1022E22D030
:10361000002625E0002370E701236EE78B7B002B5B
:1036200085D083E78B7F002B8ED100258EE700238A
:1036300091E7002494E740249FE74024A5E7402435
:10364000ABE70023B6E70024B9E70024BDE7002478
:10365000C1E70024D7E7FF36FF3601E08026B60039
:1036600026438B685C1E0F2398461C403443C027BA
:10367000BF00C451FF244E6934408E693604FF23D5
:103680001B041E403443C426B6008451C45943462B
:10369000234003339D4201D3102D00D901BECB7FBF
:1036A000002B04D00B78012B5BD0002500E0002517
:1036B0004C7B013C072323402B438D7B2D01302481
:1036C0002C40234343640B7B002B4DD080256D00A1
:1036D0008B685C1E0F2323402B430C78012C45D0B4
:1036E000002423438024A4000351FF230C6B2340B8
:1036F000C124A40003512023CB5C002B39D08023AC
:103700009B0421240C5D012C35D000242343282464
:103710000C5D012C32D000242343FF244D6A254048
:103720002B4303658B6B1C4081239B00C4501A4BB9
:103730004C6B2340194C0351CB6B19490B40194971
:103740004350002A21D00023536013609360D3605C
:103750001362D3621363144B5363002004BC90467E
:10376000F0BD80256D00A3E70025B1E78024640249
:10377000B7E70023C5E780246404C7E78024640218
:10378000CAE70A48EAE70948E8E70020E6E7C04652
:1037900092F4FFFF8CF8FFFF6D0B0000C80F0000D4
:1037A00073070000880F0000EFCDAB000160AA0096
:1037B000114B03600F3B0364002383640822FF3234
:1037C000C02189004250043143500C3143504364BE
:1037D0001139FF394250FD3283500365074A835047
:1037E000074A8350074A8350074A8350074A835049
:1037F000074A83507047C0460F000003C80E000000
:10380000880E0000C80F0000880F0000080F00009D
:10381000480F000003685B005B080360002904D0C8
:1038200000234B600B600B62CB62704710B5002821
:1038300032D0002932D0002B32D05A62F922D20085
:1038400083580324A34383500B78012B00D901BE76
:103850000B7A032B00D901BE4B68072B00D901BEA0
:103860000B7B012B00D901BE01230A6813408A6833
:103870001203C024A401224013434A681204E02426
:10388000E40222401343CA681206802149040A4018
:1038900013430360002010BD0248FCE70148FAE72B
:1038A0000048F8E70400B2004B1EDBB2012B04D93C
:1038B000042902D0082900D001BE032A00D901BE84
:1038C00002291BD008D904291DD0082915D1982315
:1038D0001B019C46604405E001290ED180231B0199
:1038E0009C466044002808D0036809490B40120434
:1038F000C02189020A401A430260704788231B01D5
:103900009C466044EEE790231B019C466044E9E737
:10391000FFFFFCFFF0B5D6464F464646C0B5804691
:103920009A4608AB20CB1B7899460AAB1F78131F29
:10393000DBB2FA2B00D801BE4B46043BDBB2FA2BBC
:1039400000D801BE7B1EDBB2012B04D9042F02D0AC
:10395000082F00D001BE002D02D05346002B1BD0F3
:10396000002D02D04B46FF2B18D03F02F0231B0145
:103970001F400C9B5E6A1204C0239B021A403A430C
:103980001143002D0CD10B9BDA07120C1143434657
:103990001965002400200EE001BEE1E701BEE4E766
:1039A0000022F3E700221343424613650134E4B2D8
:1039B000002E1CD100202200AC4222D2134B984290
:1039C0001FD04346596C07230B40032BF0D85346B6
:1039D0009B5C3B4349460904C020800201400B43E5
:1039E0000132AA42DED30B9AD207120CDBE7012088
:1039F00001F07EFE013E002E01D10448DBE70020ED
:103A0000D9E71CBC90469946A246F0BD0200B20020
:103A1000F0B5069E1C1FE4B2FA2C00D801BE541E5D
:103A2000144DAC4200D901BE476C07253D40032D23
:103A30001BD81B04C025AD022B402404240C2343B7
:103A40008024E40223430365002910D031607260B2
:103A5000B260059BF3610223B361F922D20083585F
:103A600001210B4383500020F0BD0348FCE70020F8
:103A7000FAE7C046FFFF00000100B20070B5059DE7
:103A80001C1FE4B2FA2C00D801BE002A21D0466CDB
:103A900007243440032C1ED81B04C024A402234056
:103AA000541E2404240C234380242403234303654D
:103AB000002912D0E9602A616A61049B2B62042309
:103AC000AB61F922D200835802210B4383500020BE
:103AD00070BD0348FCE70348FAE70020F8E7C0465A
:103AE0000400B2000100B200F0B58BB00500181F51
:103AF000C0B2FA2800D801BE002A00D1DBE06C6C0D
:103B000007202040032800D9D8E01B04C0208002F1
:103B10000340501E0004000C0343802000030343B5
:103B20002B65002900D1CBE0109B5E6A03910592C2
:103B300000230893043306930020A0E0D8202958DE
:103B400011700F0A57700F0C9770090ED170295819
:103B50001171080A5071080C9071090ED171D218B8
:103B6000E41AC423EB580F21194023008C4200D9DA
:103B70000B00002B6DD0082BE0D0012B1ED0022BA8
:103B800020D0032B24D0042B2BD0052B33D0062B95
:103B90003ED0072B4BD0D8216B581370180A5070A9
:103BA000180C90701B0ED3706B581371190A517159
:103BB000190C91711B0ED3710823D0E7D0216958DD
:103BC0001170CCE7D42169581170090A5170C6E709
:103BD000D42169581170090A5170D0216958917027
:103BE000BDE7D82169581170080A5070080C907010
:103BF000090ED170B3E7D82169581170080A5070C6
:103C0000080C9070090ED170D02169581171A6E787
:103C1000D82169581170080A5070080C9070090E6C
:103C2000D170D42169581171090A517197E7D821CF
:103C300069581170080A5070080C9070090ED17004
:103C4000D42169581171090A5171D02169589171B3
:103C500085E703920594002C0DD1F922D200AB58D0
:103C600002218B43AB5003230693089B002B02D009
:103C7000089B0320984705940020002E11D1069B35
:103C8000042B19D10F4B984216D0059C039AC423DC
:103C9000EB580F21194023008C4200D869E70B0034
:103CA00067E7013001F024FD013E002E01D10548F7
:103CB000E5E70020E3E704480BB0F0BD0348FBE76D
:103CC0000020F9E70200B2000400B2000100B200D7
:103CD00000290DD0426C07231340032B0AD8013969
:103CE0000904090CC0231B03194301650020704718
:103CF0000148FCE70148FAE70400B2000100B20005
:103D00008869704700230B604B608B60CB600B6150
:103D10004B618B61026880231B061343036070476D
:103D200070B58D69AA682B6AFF26CC68B44384609D
:103D30000C696442B443C4602D68013D03242C40E7
:103D40004969002900D170E08021490021430162C6
:103D5000002A33D01468611C69D0FF2121401479F6
:103D60002404C025AD022C40214380242406214395
:103D7000016451790904C024A4022140416494687B
:103D8000611C56D0FF212140147B2404C025AD02C4
:103D90002C40214380242406214381641169002999
:103DA00049D001391F240C40802109062143C164F8
:103DB000127D1204C02189020A400265002B33D013
:103DC00019684A1C39D0FF220A4019790904C02415
:103DD000A40221400A43802109060A4302665A7957
:103DE0001204C02189020A40426699684A1C26D002
:103DF000FF220A40197B0904C024A40221400A437F
:103E0000802109060A4382661A69002A19D0013AFC
:103E10001F211140802212060A43C2661B7D1B042B
:103E2000C02292021340036770BD00218EE700217B
:103E30009EE70021B1E70021B9E70022CEE700228A
:103E4000E1E70022E9E770B508220026002400E03F
:103E500008328B790133DB00934216D3FF230340F2
:103E60008D5CAB42F4D1050AFF232B408D18ED7910
:103E7000AB42EDD18B185B78B342E9D38D18AD78A6
:103E8000012DE5D11E001400E2E7200070BD000006
:103E900070B50C0015001E00FFF7D5FF00280BD0F1
:103EA00020180379AB7043796B7083792B70C378DA
:103EB0009B003360002070BD0048FCE78000B2002A
:103EC0008278520803231340012B05D0002B07D022
:103ED000022B03D0002070470420FCE70420FAE7FF
:103EE0000320F8E743791B0202791343C2791206D3
:103EF000807900041043184302D40130C008704791
:103F0000033880231B061843F9E7437A0B6000232C
:103F10000B7102334B71037A5B090AD0FF238B606C
:103F2000FD3B0B73027A1F2313400B6102230B75B9
:103F30007047013B8B60F5E7C37A0B6000230B7180
:103F40004B71837A5B090AD0FF238B6000230B73CC
:103F5000827A1F2313400B6102230B757047013BCC
:103F60008B60F5E7C37B0B6000230B7101334B7152
:103F7000837B5B090AD0FF238B60FE3B0B73827B44
:103F80001F2313400B6101230B757047013B8B60AE
:103F9000F5E7437B0B6000230B714B71037B5B09DF
:103FA0000AD0FF238B6000230B73027B1F23134077
:103FB0000B6101230B757047013B8B60F5E7032311
:103FC0000B6000230B714B71012252428A600B611E
:103FD0000B75704710B501290DD0032909D00123B5
:103FE000002B14D08378990607D45B060AD4FF20EF
:103FF00016E00023F4E70023F2E71100FFF785FF46
:1040000005200DE01100FFF797FF042008E08378FA
:10401000D90606D4DB0709D41100FFF7D0FF012031
:1040200010BD1100FFF79EFF0320F9E71100FFF715
:10403000B0FF0220F4E7000003680139C8B2042889
:1040400008D8C9B289000E4841588F469B0601D551
:10405000EC2313607047DB06FCD56C231360F9E793
:104060001B07F7D5BC231360F4E75B07F2D53C23AD
:104070001360EFE79B07EDD50C231360EAE7C0461A
:1040800060B900102823C35C1B09012098407047C9
:10409000F0B5C64600B54F6A1B38430898460F2650
:1040A0003E4000242500032C08D90C2340465843E9
:1040B0000C381218906804BC9046F0BD0723634387
:1040C0003900D9400B09490A032001401C30034044
:1040D000012910D0002915D002290ED003290ED0B5
:1040E00001336B430C2161435118701C43435B0047
:1040F0008B600134D7E71025F2E78025F0E7FA2539
:10410000AD00EDE70125EBE710B5446A806A430F87
:1041100003211940000E1F2202400F2323400129D2
:104120000CD0002913D002290BD003290CD0002079
:104130000132504301335843400010BD80204000FD
:10414000F6E7FA200001F3E7FA200002F0E710207A
:10415000EEE7816A080A1F2202400F230B40890400
:1041600006D5402001325043013358434000704788
:104170000820F7E706230360002303717047042338
:10418000036000230371704702230360002303715F
:1041900043710122524282600373036103757047C9
:1041A0001223036000230371437101225242826093
:1041B00003730361037570473423036000230371A5
:1041C000437101225242826003730361023303751B
:1041D00070473E230360002202713C3B4371012182
:1041E00049428160037302610375704710B5030093
:1041F00010001B68042917D002D8002921D110BD56
:104200000529FCD1DA0502D5FFF7E3FFF7E71A0627
:1042100002D5FFF7D1FFF2E75B0602D5FFF7C0FF3B
:10422000EDE7FFF7B1FFEAE71A0602D5FFF7C4FF93
:10423000E5E75B0602D5FFF7B3FFE0E7FFF7A4FF72
:10424000DDE75B0602D5FFF7ABFFD8E7FFF79CFF82
:10425000D5E70523036000230371704710B5C36AD7
:10426000002B10D0036B002B0FD0046B00232371A5
:104270003A33CA5C1209333B1340052B0DD89B001F
:10428000124AD3589F4601BEECE701BEEDE7012379
:104290005B42C3632360C26A136010BD0223C36321
:1042A000013B2360C36A35221A60F6E74023C363EB
:1042B0003F3B2360C36A05221A60EEE78023C36395
:1042C000423B2360C36A3F221A60E6E774B90010DC
:1042D00060230360002303717047F0B5CE46474664
:1042E00080B5040090460368042B3ED14669053B27
:1042F000336048784008103318400023042B16D947
:10430000032B36D81A1D91460020032817D94A4698
:104310008A5C32605B001D33180000282AD0636974
:1043200000221A715A710CBC90469946F0BD0125C5
:104330009D4007002F40BD42E2D00133DEE7051D5E
:10434000AC460C25454362468A5C47467A550130A7
:10435000DBE722280BD802300B5CFF2BF9D00028BA
:10436000DBD063690A5C1A60D7E71D20F4E7002000
:10437000F5E700206369FF221A71D4E770B50022C7
:1043800000250FE02B001C33C65C5400A418A300CA
:10439000CB180124B4405C602C001D34045D1C70FB
:1043A00002350132032AEDD970BD10B5013B9C18CE
:1043B0000855000A002BF9D110BD10B504000023E8
:1043C000002003E00002E25C104301338B42F9D38A
:1043D00010BD000070B586B004001E000A9D4B069B
:1043E00029D41648CB0724D58B0710D5D368002BCA
:1043F0000DD01A68D1B21A7904950123039302965D
:10440000FE330193002300932000FFF783FA0B4B48
:10441000984201D000280CD1049501230393029601
:10442000FE330193002200921300B7212000FFF712
:1044300071FA06B070BD0020D4E7C0468000B2001B
:1044400070B586B00400160018000C9D049500227B
:104450000392029101920B9B00930A9B01002000A2
:10446000FFF758FA002806D10095002301223100F9
:104470002000FFF739FB06B070BD0000F0B5DE4646
:1044800057464E464546E0B589B005900F00904628
:104490009B4612AB1B789946002506955B4E2C0077
:1044A0003B5D9B071CD5002E68D0002E10D13B1918
:1044B0009B780133DBB299465B464A46DA64012AAF
:1044C00000D8A1E0002398461D000593C8455CD3A1
:1044D000300009B03CBC90469946A246AB46F0BDC0
:1044E000631CFB5CE21CBA5C9246172202A98C4654
:1044F0006244002111703A1992789209012A2CD055
:104500008A4204D0022A26D05A46126800E00022CD
:1045100000218A4223D813990291019206AA00929F
:10452000172202A98C46624449460598FFF788FF86
:10453000061E0BD16D00EDB2172302AA9446634408
:104540001B78524613405A1E93411D43083444457C
:10455000A6D92F4EA7E70422DAE70322D8E7A0184E
:10456000401A3818C67806A846540131D1E73B19DD
:104570009B7802339B00E418A04504D33B195B7879
:10458000AB42F4D191E7224E8FE7059B9C46AC44A9
:104590006346059304343D1928780F231840012100
:1045A0000022084221D02D682D0A01352D024346F4
:1045B0009B005946096DCB589A46059919600C2302
:1045C0005343149A944663441A7851468A6052467B
:1045D000996811615968A9420FD9D56001235360C8
:1045E00043460133DBB2984670E74900C9B2013255
:1045F000D2B2042AD5D9064ED5E7D160280001F001
:1046000083FE53465860EBE7004E61E70600B200B8
:104610000700B200F0B589B006000C000792109DAB
:104620000978227967790495002003900293019715
:1046300003230093079B3000FFF76CF9002801D09B
:1046400009B0F0BD21693000FFF742FB0028F7D127
:10465000237D0195002200920E9A0F993000FFF7FA
:104660000DFA041EECD16E6AAB69032BE8D0084B3F
:104670009842E5D0002E01D12000F5E7012001F09D
:1046800037F8013E002E01D10148EDE72000EBE7AD
:104690000200B200F0B583B001900D001600FA24BC
:1046A000A4002F0031000198FFF72AFB854206D0B5
:1046B000002C04D0012001F01BF8013CF1E731008F
:1046C0000198FFF71DFB874202D1002003B0F0BD27
:1046D0000048FBE70200B20010B5002134E00B00F7
:1046E0001033DB0100221A50CB01C318184C1C19DF
:1046F0002260184C1C192260822424011C1922609B
:10470000842424011C192260134C1C192260134CB0
:104710001C192260124C1C192260852424011C19CA
:104720002260862424011C1922600E4C1C19226070
:104730000D4C1C1922600D4C1C1922608724240189
:10474000A44663441A6001310329C8D910BDC0468C
:10475000080800000C080000440800004808000099
:104760004C08000064080000680800006C080000A5
:1047700030B587B014008B69DB68002B0FD01D7833
:104780001A790B780494012103910293FF2301937A
:10479000002300932900FFF7BDF807B030BD0148A2
:1047A000FBE7C0468000B20030B587B004001500BA
:1047B00018000A780A9B0493002303930292FF22B5
:1047C00001920093002201002000FFF7A3F80028C7
:1047D00001D007B030BD0A9B0093002301222900BD
:1047E0002000FFF781F9F4E710B584B00F236B4484
:1047F00001241C708C69A36A002B0DD01B780092D9
:104800000F226A44FFF7D0FF002805D1A36B0F22C7
:104810006A4411780B4013700F236B441878431EC1
:104820009841C0B204B010BDF0B589B006900793AE
:104830008B691C6A002C47D0002A47D0586A0E9D0D
:10484000A84245D34F69002F1FD10F7821782079D6
:104850001B686679109D04950025039502970196C3
:10486000009313000200069D2800FFF753F800286C
:1048700002D1A1684B1C0AD1002802D1216900296C
:1048800013D1002815D009B0F0BDFFB2DEE7C9B2E0
:10489000227B109B0493002303930297FF30019027
:1048A00000932800FFF736F8E6E70698FFF710FABE
:1048B000E7E7237D109A01920F9A00920E9A0799CA
:1048C0000698FFF7A5F8DEE70248DCE70248DAE7DA
:1048D0000148D8E78000B2000400B200F0B589B00A
:1048E0000690170007938B699C68002C42D0002A21
:1048F00042D04E69002E1ED10E78217822791B6895
:104900006079109D0495002503950296019000930F
:104910003B00069D2800FEF7FDFF002802D1A1689C
:104920004B1C0AD1002802D12169002913D100288B
:1049300015D009B0F0BDF6B2DFE7C9B2227B109BFB
:104940000493002303930296FF3001900093280004
:10495000FEF7E0FFE6E70698FFF7BAF9E7E7237D01
:10496000109A01920F9A00920E9A07990698FFF7F3
:1049700085F8DEE70148DCE70148DAE78000B200AD
:104980000400B200F0B583B00191002808D0866918
:10499000736893421ED3376D002F03D0002004E0CC
:1049A00001BEF4E70C4813E00130F36C83420ED9EA
:1049B0008300FC582568E36861684B435B19AA4291
:1049C000F2D39A42F0D2019B1C60002000E0024822
:1049D00003B0F0BD0148FBE70600B2000400B200DE
:1049E000F0B58BB006900C0015000793002928D075
:1049F000002D30D0A669776900230993316828001B
:104A0000FFF7DBFC020009A92000FFF7BBFF002F26
:104A10001BD03A79FF2A1AD0104B984219D000289F
:104A200011D1099B197A3368009323780798049071
:104A300001200390029301922B000698FEF76AFF73
:104A40000AE001BED4E73978EDE7054804E0044800
:104A500002E0034800E001480BB0F0BD0400B200E2
:104A60008000B200F0B5CDB004900C1E0592069304
:104A70000ED032AA002313705370937031AA1370B2
:104A80005370937030AA137053709370656B05E088
:104A900001BEEEE733AA0021D1540133632BF9D9CB
:104AA000069A059F3900049E3000FEF7FDFE002D9A
:104AB00013D0529B029333AB0193382300933B00F6
:104AC00032AA29003000FFF7A5FD061E06D133AB40
:104AD0009B79062B02D98F4E10E18E4E002E00D00E
:104AE0000CE133AB1B78532B00D006E133AB5B7882
:104AF000462B00D005E133AB9B78442B00D002E17C
:104B000033ABDB78502B00D0FFE033AB1B79052BA8
:104B100000D8FCE033AB5B79012B01D07D4EEDE09A
:104B20000027089708AB31AA33A97B48FFF7B0F9F3
:104B3000099709AB30AA33A97848FFF7A9F9784B50
:104B400098426BD000230A93FF200AAB32AA33A904
:104B50000002FFF79DF9061E00D0CFE0A368002BEE
:104B60005FD0E368002B5ED02369002B5DD06369C2
:104B7000002B5CD0E369002B5BD0236A002B5AD05A
:104B8000A36A002B59D0529B029333AF01970A9B23
:104B90000093059B32AA29000498FFF73BFD06000D
:104BA00024A93800FFF7EAFB3800FFF789F92060F5
:104BB0003800FFF797F960603800FFF763FA60622A
:104BC000E068FFF7D7FA2069FFF7D9FA0123A3635A
:104BD000A06AFFF73EFB39002000FFF73FFBE069CA
:104BE000FFF776FB3800FFF78FFA60643800FFF7B5
:104BF000B0FAA064A36807931A0006993800FFF77B
:104C0000E9F907002368042B19D0206AFFF7BCFAE2
:104C100024AA33A92000FFF760FB46E0E76427657C
:104C200090E701BE9DE701BE9EE701BE9FE701BE82
:104C3000A0E701BEA1E701BEA2E701BEA3E733AA38
:104C40003833D15C529B0093059B22000498FFF7F8
:104C5000C1FB061E0CD1529B02930BAB0193089B28
:104C60000093059B31AA29000498FFF7D3FC0600A6
:104C7000002E0BD00120431E33A9CA5C01239340B0
:104C8000A36124AAFFF704FA206410E0079A390010
:104C90000BA8FFF7D1F9226A39000BA8FFF7A6FA93
:104CA00024AA0BA92000FFF718FB0028E3D1236DED
:104CB000002B23D0529B029333AB0193099B0093AB
:104CC000059B30AA29000498FFF7A4FC061E15D105
:104CD00024AB0293529B0193059B00932300099AF6
:104CE00033A90498FFF7CAFB0E4B984203D1002367
:104CF000E364236502E0060000E0064E30004DB09C
:104D0000F0BD044EFAE7034EF8E7024EF6E7014E17
:104D1000F4E7C0460500B20084FF000081FF0000F8
:104D20008000B2000600B200F0B5DE4657464E469F
:104D30004546E0B585B0061E914600D1ADE000299C
:104D400000D1ACE04F68002F00D1AAE0002A00D1CA
:104D5000A9E00B689846002B03D0002500239A4653
:104D60004DE0524890E001BE60E0012A00D084E0AE
:104D700080231B019B46B3445B46002B00D18AE095
:104D800019684B4B19400391237A1804C0218902FA
:104D900008400399014358460160042061680840B7
:104DA0005BD1A3691B68013B032B00D901BE00281E
:104DB00024D163689B0721D52169E06801F02AFBB3
:104DC000002900D001BE23693A4A934202D95A1EF3
:104DD0001A4200D001BE21005846FEF7A1FF02236F
:104DE000FF3362681340227A1204C02189020A400C
:104DF00013438022120613435A4613600135A84517
:104E000039D9AB00FC58002CF8D02278531EDBB205
:104E1000012B04D9042A02D0082A00D001BE237A2B
:104E2000032B00D901BEA369002B9CD02278022A53
:104E300009D09AD9042A0BD0082A1ED198231B0125
:104E40009B46B34498E788231B019B46B34493E7F2
:104E500090231B019B46B3448EE7A169484600900E
:104E60003000FFF7FFFD00289BD00823AB405246DF
:104E70001A43924695E7002000E00C485346002B69
:104E800002D0B2200004184305B03CBC90469946BD
:104E9000A246AB46F0BD0548F0E70448F4E70348F6
:104EA000F2E70248F0E70148EEE7C0460400B2002E
:104EB000FFFFFCFFFFFF0000F0B583B00090019101
:104EC00015001E00940816D1013414E03F1A80B278
:104ED00000F00EFC002F05D038000D4B9F42F5D995
:104EE0001800F3E7320001990098FFF77DFC0028D5
:104EF00007D0002D05D02F00A54200D92700ED1BBB
:104F0000EAE7002802D1002003B0F0BD0148FBE72A
:104F1000FFFF00000200B200F0B5CE4600B588B039
:104F200005900E00170099460E9C00230793002958
:104F300009D04B46002B08D03B19B2695268934206
:104F400005D8194821E001BEF3E701BEF4E7164891
:104F500008B004BC9146F0BDB3691B68002207A9E4
:104F60003800FFF722FA0F9B02930023019300956C
:104F70004B4607AA31000598FFF7B0FC00280DD07A
:104F80000028E5D1641B7F19A944002CE0D025003E
:104F900080235B029C42DFD91D00DDE70F9A0321CD
:104FA0000598FFF777FBEBE70400B200F0B5D646B3
:104FB000474680B589B005900E0090469A46109DF0
:104FC0000023079300290BD05346002B0AD0B26967
:104FD000576A43465B195268934205D8234816E046
:104FE00001BEF1E701BEF2E7204809B00CBC9046D3
:104FF0009A46F0BD2C00119A31000598FFF7B8FBD6
:1050000000280FD00028F0D1A244A0442D1B002D71
:10501000EBD03900404601F0FDF96B18BB42E9D3F3
:105020007C1AE8E7B3691B68002207A94046FFF72E
:10503000BCF9119B0293002301930094534607AAE5
:1050400031000598FFF7F0FB0028DBD1119A012110
:105050000598FFF71FFB0028D4D1B3699A6C119B08
:1050600031000598FFF728FFCCE7C0460400B200E6
:10507000F0B5DE4657464E464546E0B587B001904E
:105080000E0015009A461300534402930023059323
:105090000493002914D0B3699B469F691B6C994601
:1050A0002A0004A93000FFF76DFC041E0AD1049BFE
:1050B0001A689046DF685B687B434344039304E0CF
:1050C00001BEE8E70023984603935346002B00D126
:1050D000414C4346E81A390001F09CF9002973D18C
:1050E0003D4B9C4270D0039B029A93420ED8029B88
:1050F0004246981A390001F08DF9002964D1364BE7
:105100009C4261D0B8464F46200043E0013A04A9D2
:105110003000FFF737FC041EE9D1049B1A68904663
:10512000DF68E4E7002828D1A54231D2109A310087
:105130000198FFF71DFB0028F4D13B68002205A968
:105140002800FFF732F9109B05AA31000198FFF7FC
:1051500047FC0028E6D14B465B014A469B1A9B0060
:105160004B44DA00109B31000198FFF7A5FE45443F
:10517000534642469B1A9A46D4E7BB464F4609E03F
:10518000029CB9465F46CFE7029CB9465F46CBE733
:10519000BB464F465346002B15D02A0004A93000C9
:1051A000FFF7F0FB0028EBD1049B1F69DA689046FB
:1051B0001A685C6843465C43A418029BA342E3D38D
:1051C000B9465F46B0E70400200007B03CBC9046FB
:1051D0009946A246AB46F0BD0400B200014B1868E8
:1051E0007047C046DCFD00080A4AA623DB00D258FF
:1051F00003231340032B09D0064AA623DB00D25811
:1052000001231340022B01D0002001E0024B18685B
:105210007047C04600002640D8FD000802000C4B35
:1052200019683A23CB5C834200D801BE1300D03307
:105230009B0008495B5807201840042800D070479D
:10524000C032920053581B300340E1301843F6E758
:10525000CCFF00080000264010B5204B1A683A2306
:10526000D35C834200D801BEFFF7D8FF022814D0D8
:105270000CD91223FF3398421CD01423FF339842D9
:1052800020D0033B98420BD0002010BD002823D033
:105290000128F9D1FFF7A2FFF7E7FFF7A5FFF4E731
:1052A0000F4A104BD358002B01DB0020EDE7802084
:1052B0000002EAE70C4B1B6904201840E5D080206F
:1052C0000002E2E7064A094BD358002B01DB00201D
:1052D000DBE780200002D8E70548D6E7CCFF0008CE
:1052E000000026400C050000000027403C0500009F
:1052F00000127A0010B5002832D01A49B023DB0022
:10530000CB589A03920B02608022520413405A1E1B
:105310009341C371144BCB58DA04D20C82801B0C1E
:10532000DB05DB0D0381B123DB00CB580F2214001A
:105330001C4084721C092240C2721A0AD204D20C88
:1053400082811B0F032213408373084BCB58190A29
:1053500004320A4082711B0CDB05DB0D038210BD99
:1053600001BECAE700002640840500008C0500004D
:105370000138114B1A683B23D35C83421AD9813020
:10538000FF3080000D4BC3587F221A400A70180A64
:105390001F2210404870180C02408A7080221205AB
:1053A0001A40501E8241CA701B0F032213400B711A
:1053B000002070470248FCE7CCFF000800002640B0
:1053C00001004A00F0B587B004003E4B1A683A234A
:1053D000D35C834200D801BE2000FFF73DFF0500EB
:1053E000002C28D0374B1A683B23D35CA34243D20E
:1053F0000023002700260022002B19D000232800BC
:10540000002101F017F904000D003A0000233000DC
:10541000002101F00FF902000B00C90756080E43E6
:105420005F08200029008019794101F0E3F80500A8
:10543000280007B0F0BD1422002101A801F0BEFA37
:1054400001A8FFF757FF204AB023DB00D358002BF9
:1054500008DB002301A9019A8E88C979002909D0A7
:105460000227C9E701AB9B7B022B01D00123F1E7A7
:105470000023EFE70127BFE70522002101A801F083
:105480009DFA01A92000FFF773FF013C0D4B1A683C
:105490003B23D35C9C4200D301BE8134FF34A40083
:1054A000094BE358002B05DB002301A90A784E784D
:1054B0008F78A1E701AB1B79022B01D00123F4E720
:1054C0000023F2E7CCFF00080000264010B5134B84
:1054D0001A683C23D35C984200D301BE0300E0333A
:1054E0009B000F4A9A5812090323134001249C4041
:1054F0000A4B1A683C23D35C984200D301BEE030CB
:105500008000074BC3580F201840FFF75BFF63086C
:105510001818210000F0F8FE10BDC046CCFF0008AE
:105520000000264030B5184B1B6828229A5C1F2AC1
:1055300015D8850807222C009443221E20D103325F
:105540001040C000FC3282401B682033AD005B1964
:105550001C688140614011406140196010E01B8F60
:105560008B420ED007230340074A1268126880203E
:105570000006184380239B019C46614489008850A3
:1055800030BD01BEEEE7C046CCFF000810B50A4BA7
:105590001B6828229A5C1F2A0AD91A6880239B015B
:1055A0009C46614489008B585B005B088B5010BDA2
:1055B000198FFFF7B7FFFAE7CCFF00080A4B9A688C
:1055C0000A4B9A4204D010308000094BC0587047F3
:1055D000002906D003001033044A9B0098589950C4
:1055E000F5E701BEF6E7C04600ED00E00010000858
:1055F00000000010F0B5CE46474680B583B0061EC9
:10560000019151D04368032B00D901BE0023F05E05
:10561000002826DA254C0022B35E7168002B25DBBA
:105620009A08234FC0329200D05984460320034089
:10563000DB00FC30814605009D406046A843050024
:1056400089014846084098402843D051194B9A6830
:10565000194B9A4222D0200003B00CBC90469946C8
:10566000F0BD7188FFF75EFF0024D4E79BB20F22E4
:105670001A40083A9208063292000E488446624464
:10568000556803273B40DB00FF2007009F40BD43D8
:1056900089010140994029435160D7E70023F05E1A
:1056A0000199FFF78BFFD6E7004CD4E701005600C5
:1056B00000E100E000ED00E00010000810B504007B
:1056C00006E0084B186800F0CFFD074B9C46644489
:1056D00080231B029C42F4D8044B1868604300F0FE
:1056E000C3FD10BDCC1100080080FFFFD0110008E1
:1056F00010B5034B1B78584300F0B6FD10BDC046F3
:10570000D4110008FEE7000010B50A4B0268DA6108
:1057100042681A6282685A62C2689A620269DA62F0
:1057200042691A6382695A63C2699A63FFF7EAFFA2
:1057300010BDC046F816000870B584B006000D0014
:10574000022804D9042802D0032800D001BE6B1E11
:10575000DBB2012B04D9042D02D0082D00D001BEEC
:10576000B300294A9C58042D24D0012D24D0022DA9
:1057700033D1264B1C68002C32D0246930E0A3685A
:105780002B420BD1E3681A6802925B680193039382
:10579000290002A8236898471C4B1C606469002CF0
:1057A00004D01B4B9842EAD1012DE8D1012D05D040
:1057B00004B070BD0020F2E70020F0E7144B9842DF
:1057C00004D0B600134B0022F250F1E7B6000F4BA5
:1057D0001A68104BF250EBE71C006369002BFBD1F9
:1057E000002000E02469002CE2D0A3682B42F9D10C
:1057F000E3681A6802925B6801930393290002A888
:1058000023689847EEE7C04620FE00081CFE00080B
:10581000FF00420008FE0008002831D0194B1B6829
:105820001A68802159585118096801628421595811
:1058300052181268426241229A5C002A1FD0E0226C
:1058400099688A58D2061AD5DB68F222D2019A5892
:105850000260F022D2019A5842600B4A9A58826044
:105860000A4A9A58C2600A4A9A580261094A9A58E2
:105870004261094A9A588261084A9B58C36170473D
:1058800001BECBE7CCFF00080478000008780000D8
:105890000C780000107800001478000018780000E0
:1058A000002833D01A4B1B6880229A5819688C46FE
:1058B0006244016A116084229A5819688C466244D5
:1058C000416A116041229A5C002A1ED0E022996848
:1058D0008A58D20619D5DB68F022D2014168995066
:1058E0000C4A816899500C4AC16899500B4A016969
:1058F00099500B4A416999500A4A816999500A4A5C
:10590000C16999500168E8329950704701BEC9E7F2
:10591000CCFF000804780000087800000C78000034
:10592000107800001478000018780000F0B583B0FB
:105930000600012800D901BEB0235B055B78002B6F
:105940005ED0B0235B055F78FFB26D4B5B68002BC8
:1059500058D001210120FFF7EFFE051E00D0ABE07B
:1059600000F08BFC0190664B5B68002B03D0042198
:105970000120FFF7E1FE634B1A68136AAC21515A0C
:10598000CA00521A9B181A68002AF4DADB68DA0097
:105990003AD4802292051A435A4B1968AC23C85A4C
:1059A000C3001B1A086A84466344DA6000225A6006
:1059B0005B68B0235B059B899BB2002B5BD0B02357
:1059C0005B059B899BB20132FF32934253D02E2359
:1059D000CB5C002B00D101BE4A4B1A68116AB02380
:1059E000D3585B181B68002B00DA74E0464A136931
:1059F00004210B431361012E00D16AE030BF3DE06A
:105A00002127A2E70025ABE71B0F1C073F48FFF744
:105A100003FF212F18D03B4B19688023C8580B680F
:105A20009C46604403683A4F3B4080225200134337
:105A300003600B68842009585B18196839400A43D1
:105A40001A60324B2343A4E72E4B19688023C858B1
:105A50000B689C46604403682D4F3B409022120126
:105A6000134303600B68842009585B181968394098
:105A70000A431A60E5E7300005F09EF9214B1A68E9
:105A8000136AAC21515ACA00521A9B181A68002A8C
:105A9000F4DADE68F30020D41E4B1E40194B1A685E
:105AA000136AAC21515ACA00521A9B18DE600022B8
:105AB0005A60019800F0E5FB002D13D1104B5B6894
:105AC000002B03D008210120FFF736FE280003B089
:105AD000F0BD20BFD2E7104DD0E730010009FFF73D
