:020000041000EA
:1000000000000208E35B00100D000000455C0010DA
:1000100000000000000000000000000000000000E0
:10002000000000000000000000000000415C001023
:100030000000000000000000415C0010415C001066
:10004000415C0010415C0010415C0010415C0010FC
:10005000415C0010415C0010415C0010415C0010EC
:10006000415C0010415C0010415C0010415C0010DC
:10007000415C0010415C0010415C0010415C0010CC
:1000800010B5064C2378002B07D1054B002B02D06E
:10009000044800E000BF0123237010BD441700088E
:1000A00000000000D8B60010044B10B5002B03D0A0
:1000B0000349044800E000BF10BDC0460000000036
:1000C00048170008D8B60010F0B5A9B01400019385
:1000D0002F9E02A805F004FC002102A805F005FCF3
:1000E000319B002B02D0329B002B07DC2289E36876
:1000F0009C4662446789BF18002513E01A003199B5
:1001000002A805F000FCF1E723002E9A29000198CF
:1001100000F0F2FF002811D122002E9902A805F06C
:10012000F2FB2D19BD4204D27C1BB442ECD9340041
:10013000EAE7309902A805F0F3FB002029B0F0BDF2
:1001400070B59EB016001D00259B0493249B03935D
:1001500006AB0293239B0193229B00932B00FFF796
:10016000B3FF041E3ED1269B002B04D0202206A9FB
:10017000180006F0C6F8002300931E4B2A00310039
:1001800016A800F0D3F8041E2CD106001CAB722276
:100190006A441DA916A800F03BF9002820DB1ADCF0
:1001A0001CAB1B88102BF1D162336B441B88202BB6
:1001B0001BD10EAA1D99280000F09EFF002817D120
:1001C00020220EA906A806F08DF801260028DDD011
:1001D0000124644206E0002E04D10124644201E0BF
:1001E0000124644220001EB070BD01246442F9E77E
:1001F0000400F7E7FFFF000010B582B014000020F4
:1002000001F05AF8C0B201A900F060FF002806D042
:100210000124019800F06EFF200002B010BD2023E1
:1002200022000021019800F067FF041EF1D0012494
:10023000EFE70000F8B5CE46474680B5856A436DC6
:100240009C46E0231B019D4207D89C4505D800230E
:1002500099460024002100221AE0304B1B68DB681D
:10026000312201212E4806F027F800200CBC9046D0
:100270009946F8BDDE00476AB8464644766892194A
:10028000E600076DB84646447668891901330134A3
:10029000AB4201D3644530D28A42EBD016D2DE00A5
:1002A000476AB8464644766892194E46022E03D0F5
:1002B00001330126B146EBE7184B1B68DB68392296
:1002C0000121184805F0F8FF0020CFE7E600076D90
:1002D000B8464644766889194E46012E03D001344B
:1002E0000226B146D4E70D4B1B68DB683922012199
:1002F0000C4805F0E1FF0020B8E7AB4201D16445AE
:1003000009D0064B1B68DB6830220121064805F046
:10031000D3FF0020AAE70120A8E7C046E4110008A7
:1003200020A7001054A7001090A70010F0B5D646E3
:100330004F4680B585B004000E00170099460CABFF
:100340001B789A46002842D0002944D0002A46D083
:100350000D89CB689C466544042303AA2900380014
:1003600000F0CAFE019000283DD103AB1A88264B4D
:100370009A421CD07389002B3DD103AB1A88234BC2
:100380009A423CD1266067604B4623815346A37254
:1003900073895B19E36003AA52889B186361043573
:1003A0002561019805B00CBC91469A46F0BD738951
:1003B00003AA51888B421AD149190423380000F04E
:1003C0009BFE0028D9D001235B420193E9E701237A
:1003D0005B420193E5E701235B420193E1E70123DF
:1003E0005B420193DDE701235B420193D9E70123DF
:1003F0005B420193D5E701235B420193D1E70123DF
:100400005B420193CDE7C046086900000769000020
:10041000F0B583B004000F0016001D00002848D07E
:100420000368002B48D04368002B20D101204042B4
:100430003BE0042301AA2169606800F05DFE00280A
:100440003DD1A37A002B03D02369E268934239D2CD
:1004500023891D4A934218D001AA1288934214D0CE
:1004600001AB5B88226994466344043323612369AA
:10047000626993421BD222685289002AD9D0E2686D
:100480009A42D6D104332361D3E7002D02D001ABC9
:100490001B882B80236904333B6001AB5B8833806E
:1004A0002269944663440433236103B0F0BD012004
:1004B000FBE701204042F8E701204042F5E7012038
:1004C0004042F2E70120F0E7FFFF000010B50B4BC0
:1004D00002689A4201D0002010BDC2680389D84347
:1004E000824208D8D41801200028F5D08B68A34296
:1004F000F2D80020F0E70020F6E7C0463DB8F396BA
:1005000010B5006A00F0C8FE10BDF0B583B005005C
:100510000F00002000F0D0FEC0B201A900F0D6FD0F
:10052000041E1DD1019800F0D7FE0600019800F0CE
:10053000E1FD2C20784328180023032B05D8C25C4A
:10054000964208D10133DBB2F7E70123002B04D038
:10055000200003B0F0BD0023F8E701246442F7E770
:1005600001246442F4E710B582B00B00E0221201CE
:100570000192012904D002290ED0012002B010BD41
:10058000426A2830040001A9180000F0DFFE0028AC
:10059000F4D1019B2360F1E7026D54300400F2E7CF
:1005A00070B504000121FFF7DEFF002802D001250D
:1005B000280070BD02212000FFF7D5FF051E01D0E5
:1005C0000125F5E72000FFF79BFFE065F0E700005D
:1005D00000B587B0130000200490039002908022A1
:1005E00052000192054A00920A000021FFF7A8FD7F
:1005F000002801D107B000BD0320FBE7C0FB0008C5
:10060000F0B585B005000C000192002000F054FE0A
:10061000C0B203A900F05AFD002839D12C30604344
:100620002F1821002800FFF770FF002827D03B6912
:10063000DB062BD4039E31003800FFF747FF00286C
:100640000CD1002C13D1144B1B68D868002C14D18A
:10065000124A134905F0CEFD012511E0019B32003D
:1006600039002800FFF7B4FF051E09D0E9E7039819
:100670008268002100F0CEFDE5E70A4AE9E701259E
:10068000039800F037FD280005B0F0BD0125F7E71D
:1006900001256D42F7E7C046E411000884A9001067
:1006A00098A900108CA9001070B505000E0000205C
:1006B00000F0E4FA0400022805D0042803D003283F
:1006C00001D0200070BD320001212800FFF798FF03
:1006D000012803D00028F4D00524F2E70400F0E755
:1006E000F8B505000F0016000024012C11DC2C22A7
:1006F0006243AA18330021002800FFF77DFD00287F
:1007000001D10134F1E7002C04DD002F02D10020DB
:1007100000E00020F8BD002383718360C3600133D3
:10072000437103600371C37170474379012B01D09A
:10073000002070470368012B01D00020F9E70379FE
:10074000012B01D00020F4E70120F2E770B504008E
:100750000D00FFF725FF00280FD100220021200007
:10076000FFF7BEFF002814D12000FFF763FD00282B
:100770001AD158230122E2540AE01F4B1B68D868A3
:10078000E02212011D4905F035FD58230122E254F3
:1007900070BD194B1B68D8680022194905F02AFD65
:1007A00058230122E254F3E72800FFF7B4FF2800A2
:1007B000FFF7BBFF00280DD0EB79012B10D02A00EA
:1007C00001212000FFF71CFF002810D0582305222C
:1007D000E254DDE70B4B0C4A0C490D4805F0ECFCEC
:1007E00029002000FFF760FF5823E054D0E7EA79A2
:1007F0005823E254CCE7C046E4110008C0A800101A
:1008000008A9001038A90010E8A70010F1050000A1
:100810003CA9001010B500F0FDFC10BDF0B5D646A7
:10082000474680B583B0009101929A460A9B98464C
:100830000B9F002512E05346E9182300114A009847
:1008400000F05AFC002818D14346E91823000D4A4D
:10085000019800F08FFC002811D12D19BD4206D25D
:100860007C1B8023DB009C42E5D91C00E3E70020D1
:1008700003B00CBC90469A46F0BD0120F8E7012079
:10088000F6E7C046C0170008F0B5C64600B584B00C
:1008900007003F4C2368DB68342201213D4805F006
:1008A0000BFD2368DB68202201213B4805F004FD95
:1008B00003A9012000F00AFC00281AD102A9022095
:1008C00000F004FC00281AD1BB6A984600250024D9
:1008D000444521D2E3007A6A944663445E6832005C
:1008E00029000398FFF796FF00280ED1AD190134B7
:1008F000EEE72A4B2A4A2B492B4805F05DFC274B93
:10090000274A2A49284805F057FCDD21234B244A71
:100910008900254805F050FC1D4B1B68D8682A004B
:10092000234905F067FC019500230093039A02997F
:100930003800FFF773FF3B6D5A6800210298FFF7FC
:1009400069FF002818D17B6D013B3A6DDB00D3189D
:1009500011681A68511A5A680298FFF75BFF00285D
:1009600010D1039800F0C6FB029800F0C3FB0020F2
:1009700004B004BC9046F0BD084B094A0D490A4832
:1009800005F01AFC054B064A0B49074805F014FC14
:10099000E411000818A8001050A8001074A8001056
:1009A000C4A700106A0300003CA900106E030000F9
:1009B0007CA80010A9030000B103000010B5FFF7E8
:1009C00063FF002800D110BD024B034A03490448CD
:1009D00005F0F2FB74A80010D4A70010FF0400007B
:1009E0003CA90010F0B585B004000F006022002182
:1009F00005F090FC414B6362414B23650126764232
:100A00000025012D14D82900002000F055FCC0B2AB
:100A10002C2169432031611800F058FB061E01D1DA
:100A20000135EEE7374B384A3849394805F0C4FB01
:100A300069462000FFF78AFE5823E35C6A46D371BB
:100A4000042B07D8022B08D2012B0CD05823FF22ED
:100A5000E25408E0052B06D0F8E769462000FFF7CE
:100A6000ADFF061E16D15823E35CFF2B18D0012BD7
:100A700024D1284B22689A4228D1102200216846AE
:100A800005F048FC236A5A783A715B68BB603C60A9
:100A900000252EE01B4B1C4A1F491D4805F08CFB0E
:100AA0001E4B1B68DB680E2201211D4805F004FC6B
:100AB0001C4B154A1C49164805F07EFB6A4600216E
:100AC0002000FFF70DFE061EE2D1D2E7134B1B6894
:100AD000D86800232200154905F08CFB0326D7E7D0
:100AE0000122521B2C235343E318186A00F002FB27
:100AF0000135012DF4D9300005B0F0BDC01B000850
:100B0000C08B000874A8001008A800106706000039
:100B10003CA900103DB8F396A7060000E4110008B8
:100B2000C4A9001038A90010BE060000D4A9001006
:100B300010B501000148FFF755FF10BD6017000810
:100B4000012801D1012070470220FCE710B51022D6
:100B5000044905F0C7FB002801D1013010BD022077
:100B6000FCE7C046FCA9001004280AD0052804D1DF
:100B700001390800411E88417047401A41424841EE
:100B8000FAE70120F8E780682838704730B587B069
:100B900004000D0081681039102302AA00F0B6FB92
:100BA00000284BDB01283FD002A8FFF7CFFF2870B9
:100BB0002000FFF7E8FF010001236A46073220000A
:100BC00000F0A4FB00283CDB6B4607331B780F22A8
:100BD0001A406A701B092B71012801D0042A03D91D
:100BE00001236B7000232B71A1682039AA1C0123FB
:100BF000200000F08BFB002825DB012817D0A87807
:100C0000FFF79EFFA870A1681839EA1C0123200095
:100C100000F07CFB002818DB01280BD0E878FFF7F8
:100C20008FFFE87000200AE003232B70C0E7032346
:100C3000AB70E8E70323EB70002000E0012007B071
:100C400030BD0120FBE70120F9E70120F7E710B5EF
:100C500082B00C00C0B201A900F038FA002803D01D
:100C60000124200002B010BD21000198FFF78EFF83
:100C70000400019800F03EFAF3E7000030B585B0BB
:100C800002A90120FFF7E3FF002858D1694602308E
:100C9000FFF7DDFF002855D1002407E02B79042B56
:100CA00028D002AA9278934224D00134022C3CD856
:100CB00063001B195A00244DAD1802AB197828782F
:100CC000FFF752FF0028F0D06B4619786878FFF7DD
:100CD0004BFF0028E9D0AB78042B03D002AAD278CE
:100CE0009342E2D1EB78042BD8D06A46D278934273
:100CF000DBD1D3E7154B1B68D8686B79022B07D083
:100D0000032B10D0042B01D0114A02E0114A00E05D
:100D1000114A124905F06EFA6879831EDBB2022B84
:100D20000ED9FF200CE00E4AF3E7084B1B68DB6886
:100D3000172201210B4805F0BFFA012000E0FF2037
:100D400005B030BDFF20FBE70CAA0010E41100083D
:100D500030AA001044AA001028AA00104CAA0010C3
:100D600020AA001064AA001010B5846803681B89CB
:100D7000E418084B1B68DB6832220121064805F0A5
:100D80009BFA642001F020FC200004F045FD30BFF8
:100D9000FDE7C046E41100087CAA001010B584B03D
:100DA00004F064FD04F062FC04F086FD62B6E1200C
:100DB000400200F005F91D4B1B68DB68222201216F
:100DC0001B4805F079FA012000F0D6FD041E0CD175
:100DD000164B1B68DB682C220121164805F06CFAC3
:100DE000002C0AD0002004B010BD104B1B68D8683E
:100DF0002200114905F0FEF9F2E701A8FFF798FE7D
:100E0000002808D0094B1B68DB68382201210B48F9
:100E100005F052FAE6E7054B1B68DB682F2201213B
:100E2000074805F049FA01A8FFF79EFFE411000802
:100E3000B0AA0010D4AA001004AB001074AB0010CC
:100E400044AB0010064AD0239B00D05803E0044A6C
:100E5000D0239B00D058431CF9D0C0B27047C04685
:100E60000000654010B50400002003E021000348A5
:100E700002F00CFE0028F9D010BDC046000065400D
:100E800070B504000D00002102F040FA2C4E3168CC
:100E90006D23C85C012282406A3B8340134089680D
:100EA0008022D20513438022D2008B50002004F010
:100EB00053FA32681368802152589B181968090E3A
:100EC00001314B08C01804F0CBFEE9004B0818189C
:100ED00004F0C6FE01381B4B98422FD8184B1B68F4
:100EE0009A6872215B5AD218136817490B400002A6
:100EF00016490840184310600020114B19686F23F1
:100F0000CB5C032215009D402B006C254D5D6E26A9
:100F10008E5DB5402B436D254E5D6C3DB540B240B6
:100F20002A4013438D688022120613438021C90092
:100F30006B506B5823681A43226070BD0448DCE78D
:100F4000C0FF0008FFFF0000FF0000FF00FFFF00E0
:100F500001004A0070B50C001600002901D00025E0
:100F600009E00025280070BD2078094B1870FFF7B4
:100F700079FF01340135B542F4DA23780A2BF3D135
:100F8000034B1B780D2BEFD00D20FFF76BFFEBE72A
:100F9000C0FC000870B50D00160000290CD000241C
:100FA000B4420ADAFFF74EFF287001340A2804D051
:100FB0000D2802D00135F3E70024200070BD0000A9
:100FC00070B50500084C094A0949200002F00AF8EA
:100FD00029002000FFF754FF226880231B061343DB
:100FE0002360002070BDC0460000654088FF0008F7
:100FF00070B20010F0B585B00C0003921D0043786C
:101000007F20184000F092FC0600E82109068C467B
:10101000644400F093FC070000F094FC01900095FC
:10102000039B22003100380003F0F4FD002802D1B8
:10103000002005B0F0BD01204042FAE7F0B585B0D0
:101040000C0003921D0043787F20184000F06EFCD6
:101050000600E82109068C46644400F06FFC070096
:1010600000F070FC01900095039B220031003800D5
:1010700003F01AFE002802D1002005B0F0BD0120C7
:101080004042FAE7F0B583B00400002000F04EFCC7
:101090000500E8231B06E21883699C69644214403A
:1010A00000F04CFC0600AB699F6900F04BFC00901F
:1010B0003B0022002900300003F058FE002802D136
:1010C000002003B0F0BD01204042FAE710B5002235
:1010D0009300074C1B59002B07D01C78844201D089
:1010E0000132F5E70B60002001E00120404210BD15
:1010F000801000087047000070B5150044688C42ED
:1011000014D9CA18944217D9611844787F2C19D081
:1011100064B2002C1CDB01246442104B1B68D868AD
:1011200022000F4905F066F8200070BD0D4B0E4AF5
:10113000E4210E4805F040F80D4B0B4AE5210B4821
:1011400005F03AF81A00280005F0DBF80024EBE778
:101150002A00FFF74FFF041EDFD1E5E7E411000886
:10116000ACAC001034AC0010B0AB001048AC0010B8
:1011700094AC0010F8B5160047688F420DD9CC1812
:10118000A74211D97F1842787F2A14D052B2002A80
:101190002FDB012252421000F8BD0C21184B194AD6
:1011A000FF31194805F008F88621184B154A490007
:1011B000154805F001F8DA0504D15C0A380001256C
:1011C000002212E01821124B0E4AFF310E4804F0A3
:1011D000F3FF310000F012FD02006802C019013C6B
:1011E00080239B009C4666440135631CAB42F0D2D1
:1011F000D1E732003900FFF721FF0200CBE7C046FC
:1012000034AC0010C0AB001048AC001094AC00101F
:10121000D4AC001070B545688D420ED98C18A5422B
:1012200012D9D40517D16D1843787F2B1AD05BB231
:10123000002B22DB0120404270BD3E21114B124A9F
:10124000FF31124804F0B8FF9F21114B0E4A4900AC
:101250000E4804F0B1FF40210E4B0B4AFF310B4802
:1012600004F0AAFF540A002004E0013C6002401987
:1012700000F072FC002CF8D1DEE711002800FFF727
:1012800001FFD9E734AC0010D4AB001048AC00101B
:1012900094AC0010D4AC001010B543787F2B08D06C
:1012A0005BB2002B02DB0120404210BD00F0C6FB08
:1012B000FBE780208000F8E701290AD0022906D048
:1012C000002902D00120404200E0012070470320A5
:1012D000FCE70220FAE7000010B543787F2B0CD022
:1012E0005BB2002B02DAFF20C0B210BDE521044B37
:1012F000044A4900044804F05FFF0020F4E7C046B8
:1013000018AC0010E8AB001048AC0010F0B583B08A
:10131000009015001E00FFF7EFFE0190002810D18D
:101320000024B44208D22F5D0098FFF7D5FF874212
:1013300004D10134E4B2F4E701230193019803B02E
:10134000F0BD01235B420193F8E7000070B5002473
:10135000A3001D4D5B59002B04D01D78854215D08C
:101360000134F5E71800002B27D043787F2B02D0FB
:101370005BB2002B24DA8368144CA44663445D0AF4
:101380000B68AB4204D34468002011E01800EAE780
:1013900084210F4B0F4A89000F4804F00DFFC30052
:1013A000D3188026B6005E601C60B44664440130E9
:1013B000A842F4D30D60002070BD01204042FBE73D
:1013C00001204042F8E7C04680100008FF010000FD
:1013D00020AC001000AC001048AC0010F8B5C64AB4
:1013E000C64BD358DA0718D49A0700D5F4E05A0749
:1013F00000D5B9E11A0700D5C0E1DA0600D5C7E18A
:101400009B0600D4E7E0BE4B08229A61BA4AF82353
:10141000DB002021D150D358DDE0B94B99681A6820
:10142000B5488423C3580F2003400738C01A0B0067
:10143000814226D9030024E050780002147820432A
:10144000D478240695782D042C432043AA4E982561
:1014500070515079000214792043D4792406977989
:101460003F043C4320437051D218C91AA248842338
:10147000C3580F2003400738C01A0B00814200D91F
:101480000300002B00D18BE0082BD5D0012B25D0F9
:10149000022B28D0032B2ED0042B37D0052B43D082
:1014A000062B52D0072B64D053781B0210780343CD
:1014B000D078000694782404204303438E4E982568
:1014C000735153791B0210790343D0790006947944
:1014D00024042043034373510823C5E71578864C41
:1014E00090202550C0E75078000214782043824DA8
:1014F00094242851B8E750780002147820437E4C99
:1015000094256051957890202550ADE750780002E1
:1015100014782043D478240695782D042C43204356
:10152000754D982428519FE7507800021478204385
:10153000D478240695782D042C4320436E4C9825AE
:1015400060511579902025508EE75078000214786C
:101550002043D478240695782D042C432043664CF0
:1015600098256051507900021579284394256051DF
:101570007AE75078000214782043D47824069578CE
:101580002D042C4320435C4C982560515079000277
:10159000157928439425605195799020255063E76B
:1015A000574B1A60996000290FD15348F921C9009F
:1015B0004358012293434350514B9A61DB69002BFE
:1015C00003D04F4BDB69012098474B4AF823DB00DF
:1015D0000121D150D358F8BD494B5C69DA684649BE
:1015E000C423CB580F21194023008C421ED90B0075
:1015F0001CE0414DD820295811700E0A56700E0C6F
:101600009670090ED17029581171080A5071080C92
:101610009071090ED171D218E41A3749C423CB58FE
:101620000F21194023008C4200D90B00002B7CD0E5
:10163000082BDED0012B1FD0022B22D0032B27D06A
:10164000042B2FD0052B38D0062B44D0072B59D094
:101650002948D821435813701D0A55701D0C9570E8
:101660001B0ED37043581371190A5171190C9171E3
:101670001B0ED3710823CEE71F48D02141581170AB
:10168000C9E71D48D42141581170090A5170C2E7B9
:101690001948D42141581170090A5170D02141587C
:1016A0009170B8E71448D82141581170080A507059
:1016B000080C9070090ED170ADE70F48D821415841
:1016C00011700D0A55700D0C9570090ED170D02156
:1016D000415811719FE70848D821415811700D0AEF
:1016E00055700D0C9570090ED170D42141581171AF
:1016F000090A51718FE7C04600004240CC07000044
:10170000C4FC00082748D821415811700D0A5570B3
:101710000D0C9570090ED170D42141581171090A30
:101720005171D0214158917175E71F4BDA605C61AE
:10173000002C10D11B49F922D2008B580220834380
:101740008B50194B03229A611B6A002B03D0164B56
:101750001B6A01309847144B5C61124AF823DB0086
:101760000221D150D35836E70F4B05229A610D4A1A
:10177000F823DB000421D150D3582CE70A4B062272
:101780009A61084AF823DB000821D150D35822E798
:10179000054B07229A61034AF823DB001021D15040
:1017A000D35818E700004240C4FC0008F8B54E4C7E
:1017B0004E4A0321200001F0F3F84D4F3A68936937
:1017C000E31ADB0952691B01D3181A68494E3240EB
:1017D00088256D052A431A60474A0421200001F03C
:1017E000DFF83A689369E31ADB0952691B01D318E1
:1017F0005A681F218A430E390A435A603F4A0C39FE
:10180000200001F0CDF83A689369E31ADB095269C8
:101810001B01D3185A683A491140882252010A43E1
:101820005A60384A0621200001F0BAF83A689369F4
:10183000E31ADB0952691B01D3185A683249114077
:10184000882252030A435A60304A0721200001F0DF
:10185000A7F83B689A69A41AE40924015A699446D6
:10186000644462681640354365603C229B5C022BF1
:1018700006D92748E221890042580F24A24342504A
:10188000022B08D92248E221890042583024A24381
:10189000103C22434250022B07D91D49E2229200FC
:1018A000885880231B0603438B501A491A4803F0BB
:1018B00079FEFA22194B920019491A4800F032FABF
:1018C000041E0FD1144B00229B5E002B06DB1F224F
:1018D00013401E3A9A401300134A13600F491148EF
:1018E00000F08CFC2000F8BD8005314090AD001068
:1018F000C0FF0008FFFFFFE05CAD001028AD001046
:10190000FFE0FFFFF4AC0010FFFFE0FFC4AD0010EC
:1019100000002640DD130010C4110008C4FC0008BC
:10192000F8AD00100000424000E100E0024B1B68EF
:101930005B688000C05870477CFD00080048704715
:101940000000424000487047C4FC000810B5040085
:10195000FFF72CFF002800D010BD044B1C60044A88
:101960002100044803F05EF8F6E7C0467CFD00085D
:10197000C4FC000800004240F8B52C4B5B6802280C
:101980003ED007D903283FD004284CD11B68082239
:101990001A7004E0012846D11B6801221A70013830
:1019A000234A43001C18A1008C5851184D680E7A28
:1019B000204A16722F002900200000F0F1FF072DA9
:1019C00000D901BE1F2332009A4300D001BE1A4B3A
:1019D0001B689A69A41AE4095B6924011C19032F86
:1019E00016D9043D6368ED001F22AA4093431F22CD
:1019F0001640AE401E4366600C48FFF7A7FFF8BDD7
:101A00001B6802221A70CAE71B6804221A70C6E714
:101A10002368ED001F22AA4093431F221640AE40C8
:101A20001E432660E8E701204042E8E7B4110008C1
:101A30006C110008C4100008C0FF0008024B5B686E
:101A40001B689B69586A7047B4110008C00543427F
:101A50005841C0B2704700001F4B984232D00ED997
:101A60001E4B984234D01BD91D4B984226D01D4B9B
:101A7000984225D01C4B98421ED01C481BE04028A1
:101A800022D007D9802821D080235B009842F4D14E
:101A9000114810E000280DD01028EED114480AE0BB
:101AA000A0231B06984205D0124B9842E5D1A020F6
:101AB000C00300E0002070470F48FCE70F48FAE73A
:101AC0000F48F8E70448F6E70E48F4E70E48F2E757
:101AD000A420C003EFE7C04606005200010000F05A
:101AE000040000F0050000F0030000F0FF005200C9
:101AF00001005000090000A0010052000200520045
:101B000003005200020050000500520010B50F4BB8
:101B10001A682E23D35C002B00D101BE0B4B1C682E
:101B2000B023E358226A944663441B68002B0ADB07
:101B3000074B1868FFF790FF626801239360936872
:101B4000002BFCD110BD0348FCE7C046C0FF0008D5
:101B5000C8FD00080200500010B50400FFF776FF32
:101B600000283CD003F09EFD1E4B1F4A1A605C60AB
:101B700000229A60DA601D4B1A685023D35C002B58
:101B800005D180200021400008F0C2FD28E000209F
:101B900003F0E2FB154B1B681C6880229B58E4187D
:101BA0002168090E01314B08C01804F059F8236868
:101BB0001B0AFF21194001314B08181804F050F896
:101BC000FA21890004F04CF80100094804F048F8B3
:101BD000084BC1188020400008F09AFD00E006483C
:101BE00010BDC046C8FD00080001001CC0FF000871
:101BF00060F59000980800000600520070B50400DF
:101C00000D00FFF723FF00283ED0002D3ED003F04B
:101C100049FD1F4B1F4A1A6000225A609C60DD601C
:101C20001D4B1A684E23D35C002B05D18020002168
:101C3000400008F06DFD28E0002003F08DFB164BFE
:101C40001B681C6880229B58E4182168090E01312A
:101C50004B08C01804F004F823681B0AFF21194040
:101C600001314B08181803F0FBFFFA21890003F03B
:101C7000F7FF0100094803F0F3FF094BC11880206A
:101C8000400008F045FD00E0064870BD0548FCE74F
:101C9000C8FD000800010005C0FF0008C0EA2101DE
:101CA000482600000600520010B582B00400100063
:101CB000002B01D102B010BD0A000100200000F08D
:101CC000ABFA08230093043B00225021200000F0CF
:101CD000E3FA044B1B681B681B191B68DB06F8D46E
:101CE000E8E7C046E0FD000810B582B00400181E09
:101CF00001D102B010BD13000200200000F08CFAE8
:101D00000C230093043B00225121200000F0C4FA70
:101D1000034B1B681B681B191B68DB06F8D4E8E73C
:101D2000E0FD000810B5002832D0002932D0002B89
:101D300032D05A62F922D20083580324A34383503D
:101D40000B78012B00D901BE0B7A032B00D901BE01
:101D50004B68072B00D901BE0B7B012B00D901BEBC
:101D600001230A6813408A681203C024A401224098
:101D700013434A681204E024E40222401343CA6871
:101D80001206802149040A4013430360002010BD5D
:101D90000248FCE70148FAE70048F8E70400B2000F
:101DA0004B1EDBB2012B04D9042902D0082900D034
:101DB00001BE032A00D901BE02291BD008D904297B
:101DC0001DD0082915D198231B019C46604405E0CD
:101DD00001290ED180231B019C466044002808D0B5
:101DE000036809490B401204C02189020A401A43C2
:101DF0000260704788231B019C466044EEE79023F5
:101E00001B019C466044E9E7FFFFFCFFF0B5D646A6
:101E10004F464646C0B580469A4608AB20CB1B7855
:101E200099460AAB1F78131FDBB2FA2B00D801BE0C
:101E30004B46043BDBB2FA2B00D801BE7B1EDBB263
:101E4000012B04D9042F02D0082F00D001BE002D91
:101E500002D05346002B1BD0002D02D04B46FF2B47
:101E600018D03F02F0231B011F400C9B5E6A120436
:101E7000C0239B021A403A431143002D0CD10B9B07
:101E8000DA07120C114343461965002400200EE0C6
:101E900001BEE1E701BEE4E70022F3E700221343BD
:101EA000424613650134E4B2002E1CD1002022000A
:101EB000AC4222D2134B98421FD04346596C0723A1
:101EC0000B40032BF0D853469B5C3B434946090427
:101ED000C020800201400B430132AA42DED30B9A9C
:101EE000D207120CDBE7012000F088FB013E002E38
:101EF00001D10448DBE70020D9E71CBC9046994695
:101F0000A246F0BD0200B200F0B5069E1C1FE4B26E
:101F1000FA2C00D801BE541E144DAC4200D901BEAB
:101F2000476C07253D40032D1BD81B04C025AD027F
:101F30002B402404240C23438024E4022343036520
:101F4000002910D031607260B260059BF3610223FA
:101F5000B361F922D200835801210B438350002042
:101F6000F0BD0348FCE70020FAE7C046FFFF000091
:101F70000100B20070B5059D1C1FE4B2FA2C00D818
:101F800001BE002A21D0466C07243440032C1ED801
:101F90001B04C024A4022340541E2404240C234305
:101FA0008024240323430365002912D0E9602A61B9
:101FB0006A61049B2B620423AB61F922D20083582F
:101FC00002210B438350002070BD0348FCE7034807
:101FD000FAE70020F8E7C0460400B2000100B200B2
:101FE000F0B58BB00500181FC0B2FA2800D801BEAA
:101FF000002A00D1DBE06C6C07202040032800D9C8
:10200000D8E01B04C02080020340501E0004000CD6
:1020100003438020000303432B65002900D1CBE05C
:10202000109B5E6A03910592002308930433069384
:102030000020A0E0D820295811700F0A57700F0C0B
:102040009770090ED17029581171080A5071080C47
:102050009071090ED171D218E41AC423EB580F21E4
:10206000194023008C4200D90B00002B6DD0082BA7
:10207000E0D0012B1ED0022B20D0032B24D0042B28
:102080002BD0052B33D0062B3ED0072B4BD0D8219D
:102090006B581370180A5070180C90701B0ED37088
:1020A0006B581371190A5171190C91711B0ED37170
:1020B0000823D0E7D02169581170CCE7D4216958A2
:1020C0001170090A5170C6E7D42169581170090AC4
:1020D0005170D02169589170BDE7D82169581170AD
:1020E000080A5070080C9070090ED170B3E7D8211F
:1020F00069581170080A5070080C9070090ED17060
:10210000D02169581171A6E7D82169581170080AC1
:102110005070080C9070090ED170D421695811715B
:10212000090A517197E7D82169581170080A50704F
:10213000080C9070090ED170D42169581171090AE8
:102140005171D0216958917185E703920594002C53
:102150000DD1F922D200AB5802218B43AB5003239F
:102160000693089B002B02D0089B032098470594F8
:102170000020002E11D1069B042B19D10F4B984241
:1021800016D0059C039AC423EB580F211940230055
:102190008C4200D869E70B0067E7013000F02EFAA7
:1021A000013E002E01D10548E5E70020E3E70448A1
:1021B0000BB0F0BD0348FBE70020F9E70200B200D6
:1021C0000400B2000100B20000290DD0426C0723C8
:1021D0001340032B0AD801390904090CC0231B033F
:1021E00019430165002070470148FCE70148FAE700
:1021F0000400B2000100B2008869704700230B6040
:102200004B608B60CB600B614B618B6102688023FC
:102210001B06134303607047F0B50C4C256807009C
:10222000AC68241826680F243440042CF5D8E868DC
:10223000C019074C0460E868C0190160E968C91951
:102240000A60EA68D7193B60F0BDC046E0FD0008AF
:1022500010020042F0B50E4C25680700AC68241847
:1022600026680F243440032CF5D8E868C019094CBF
:102270000460E868C0190160E968C9190A60EA6881
:10228000D2191360EB68DF19059B3B60F0BDC046B7
:10229000E0FD000810320043F0B505AA17780A4A9D
:1022A0001468A268121815680F222A40072AF6D867
:1022B00009060222BA40114301229A40E3681E181F
:1022C00011433160F0BDC046E0FD000870B50D4A15
:1022D00014680600A268121815680F222A40072AFF
:1022E000F5D809060322059882401143022204987A
:1022F0008240114301229A40E3689E1911433160E4
:1023000070BDC046E0FD0008014B18607047C04634
:10231000C0FF0008034B1B68002B00D07047014B27
:102320001860FBE7DCFD000870B5244C2468002C25
:1023300041D0224C25682C2460432818D334250032
:102340001D4005601E0A344044601B0C83601C4B1A
:102350001C682E23E35C9D4200D301BE184B1C6811
:10236000AC23E35A6B43256AAC466344036143687C
:102370002F25645DA34200D301BE114C2468246A5A
:1023800080335B01E418446183681D0C2D0400D088
:1023900001BE002D00D001BE1B041D0C2B43A36009
:1023A000C261016200238361049B002B02D00022E2
:1023B0009B5E838170BD01BEBBE7C046DCFD0008AB
:1023C000C0FF0008F0B58FB0041E44D06368032B33
:1023D00000D901BEE36A002B3FD0236B002B3ED017
:1023E00007AA1300210061C961C321C921C302AD3D
:1023F000290023001433C1CBC1C141CB41C1082105
:10240000535E0CAE3380174B1B689B8E079989B2C5
:102410005B187380089B0D930B9B0A980096A26A29
:10242000E16AFFF781FF2B69E86800220092002132
:10243000FFF77AFF216B300003F0B4F80022B35E9F
:10244000002B06DB1F2213401E3A9A401300064A57
:1024500013600FB0F0BD01BEB8E701BEBDE701BE1D
:10246000BEE7C046C0FF000800E100E070B5002AEA
:102470002BD01B4C2468002C29D0194C25682C2407
:1024800060432818614369182B3C25004E68B5400D
:102490002D044668B440006900281AD08E69002EC9
:1024A00019D10668002E18DA16683604360C354342
:1024B0001560C26001228A614B62230C00D001BE0C
:1024C0002404240C8460002070BD01BED1E701BE4D
:1024D000D3E70448F8E70448F6E70348F4E7C046C2
:1024E000DCFD000804028A0007028A0070B582B091
:1024F00004000023019300282AD02369002B29D04F
:102500006369002B28D0236A002B27D06369DD681C
:102510002A0C0BD012041A601B682069204B1A6821
:10252000B023D3581B181B68002B19DB2D042D0C6E
:102530000AD063691D601B68636A002B2AD0984724
:10254000002363620023A36163691B6802B070BD4E
:1025500001BED2E701BED3E701BED4E701BED5E795
:1025600001A900F067FB00280ED101980268160C43
:10257000FF231340E2699A4207D99B00226AD3588D
:10258000002B02D0984700E000263100206900F0BF
:102590002BFBCBE7A36A002BD4D09847D2E7C046E9
:1025A000C0FF000810B50200064B1B68002B07D0C7
:1025B000044B1B682C2050431818FFF797FF10BDE1
:1025C00001BEF5E7DCFD000810B5040006E0084B8D
:1025D000186803F0F5FA074B9C46644480231B02FD
:1025E0009C42F4D8044B1868604303F0E9FA10BD2C
:1025F000D81100080080FFFFDC11000810B5034B64
:102600001B78584303F0DCFA10BDC046E011000807
:10261000FEE7000010B50A4B0268DA6142681A62F0
:1026200082685A62C2689A620269DA6242691A630F
:1026300082695A63C2699A63FFF7EAFF10BDC04618
:102640000817000810B582B00400100007234A687C
:102650001340C0229200A3500A698B6900920100C6
:102660002000FFF7F7FD0C230193043B0093043B8C
:1026700000224C212000FFF729FE044B1B681B6839
:102680001B191B685B07F8D402B010BDE0FD000801
:1026900010B5002B01D0002900D101BE062A00D9B7
:1026A00098E090004C4C205887468B6018004030D2
:1026B000086154338B610A6000234B60474BCB6247
:1026C0004023CB602C3B4B614B622D33FF33CB61FE
:1026D000002010BD8B6018004030086160338B61B2
:1026E0000A6001234B603E4BCB624023CB60203B12
:1026F0004B61043B4B62E433CB610020E9E78B6024
:1027000018004030086160338B610A6001234B6020
:10271000344BCB624023CB60203B4B614B62E033B8
:10272000CB610020D5E78B60180080300861C03392
:102730008B610A6002234B602B4BCB628023CB6002
:10274000403B4B61103B4B62A0239B00CB610020C0
:10275000BFE78B60180080300861C0338B610A606E
:1027600002234B60214BCB628023CB60403B4B610B
:102770004B62A0239B00CB610020AAE78B6018006E
:1027800080300861C0338B610A6002234B60184BB4
:10279000CB628023CB60403B4B61243B4B62A02348
:1027A0009B00CB61002094E78B60180080300861AB
:1027B000C0338B610A6002234B600E4BCB628023D7
:1027C000CB60403B4B61203B4B62A0239B00CB6125
:1027D00000207EE708487CE7BCAE0010D8AE0010B1
:1027E000ECAE00100CAF00102CAF00106CAF00105E
:1027F000ACAF0010ECAF00100B00320010B5002998
:102800000DD000238B620B624B69002B09D00C6941
:10281000CA6A9BB22100FFF747FA002010BD0248A8
:10282000FCE70148FAE7C0460B003200F0B5C646A7
:1028300000B582B001900C0017001D00002930D0B7
:10284000002A30D0CE68002E2FD0002B2FD00B6A5C
:102850005B190B62896A13E0731A9846A3689C4659
:10286000614443469BB23A000198FFF71DFAA26803
:1028700021000198FFF7E6FE4346ED1A4744002188
:102880006B189E42E8D9A362002D01D100200FE011
:10289000A3685918ABB23A000198FFF705FA002077
:1028A00006E0054804E0044802E0034800E0002098
:1028B00002B004BC9046F0BD0B003200F0B5DE461D
:1028C00057464E464546E0B583B000900E001400D2
:1028D00000295ED0002A5ED00D698B689846CF68CB
:1028E0008B6A9A460B6ADB009946802F2DD03823DD
:1028F0000193802342465146535401314144BBB2B7
:102900009B4652469B1A9BB2013B9BB20022009809
:10291000FFF7EAF9019B53451AD93B1F4A46120EAD
:102920004146CA544B461A0CFB1ECA544B461A0A5F
:10293000BB1ECA54013F4A46CA5542463100009860
:10294000FFF780FE736A9B0819E070230193D0E7BC
:10295000424631000098FFF775FE5B460022414673
:102960000098FFF7C1F9D8E7EA782270AA78627078
:102970006A78A2702A78E27004340435013B002B97
:10298000F2D1002003B03CBC90469946A246AB462B
:10299000F0BD0248F6E70148F4E7C0460B003200FC
:1029A000F0B5CE46474680B58146002800D113E1F8
:1029B000002A00D112E1072900D901BE1368012BBA
:1029C00000D901BE0F2354689C4300D001BE137A86
:1029D0001F24A34300D001BED368032B00D901BE3E
:1029E0001369012B00D901BE5369012B00D901BE27
:1029F0009369012B00D901BED369032B00D901BE15
:102A0000136A012B00D901BE536A012B00D901BE04
:102A1000936A012B00D901BED36A032B00D901BEF2
:102A2000136B072B00D901BE1368072900D901BE1B
:102A3000012B00D901BE002B00D0BDE001338B403B
:102A4000484643605768072900D901BE0F233C0060
:102A50009C4300D001BE8E00614B1C687923E55C6D
:102A60004D442C686A3B1800B04084433B40B3405F
:102A700023432B60177A072900D901BE1F23380092
:102A8000984300D001BE564B1C68A3694846C31A40
:102A9000DB0964691B01E318032900D891E00C1FCE
:102AA0005D68E4001F26A640B5431F263E40A640B1
:102AB00034002C435C60D768082900D901BE032F7D
:102AC00000D901BE4C00464B1D687823EE5C4E4495
:102AD0003568753B1800A04085433B40A3402B431D
:102AE00033601769082900D901BE012F00D901BE42
:102AF0004B469E6901252B008B409C46DB431E40C4
:102B00003D408D403543484685615769072900D9C6
:102B100001BE012F00D901BE314D2E687A25755DA9
:102B2000A846C844404605681D4001231F408F4009
:102B30003D43056010208046A04403252C004046FC
:102B40008440604620437B24375D4F443C68844387
:102B5000A44694691C408C4060460443D0690540FB
:102B6000404685402C433C607C24345D2000484432
:102B70000468FF25AC43166A3340566A7700022684
:102B80003E403343966AB70004263E403343D66A3C
:102B9000F70018263E403343126B520115402B4379
:102BA0008900FE22920011408B40234303600020E5
:102BB0000CBC90469946F0BD01238B40484683608B
:102BC00040E71D68C8001F248440A5431F263E40DF
:102BD00086402E431E606EE70248E9E70148E7E7BA
:102BE000C0FF000801005A00084B1A68B023D358F0
:102BF0001B181B68002B07DA0B0C00D001BE090460
:102C0000090C4160002070470148FCE7C0FF000844
:102C100001008A000368002B08DAC2600B0C00D0A8
:102C200001BE0904090C8160002070470048FCE7E0
:102C300001008A0000290BD0074B1A68B023D35833
:102C40001B181B68002B05DAC3680B600020704757
:102C500001BEF1E70148FAE7C0FF000801008A0061
:102C6000F0B51D4C2568002D2CD0AC6B24182668BF
:102C700007002C6D2418A41B661EB441E4B2A446C0
:102C8000AC683C1926680F243440062CF8D812068C
:102C9000EC6804191343236063460B4311D0AB68FF
:102CA000FB181B68DB03FAD50C4B1A682923D35C8D
:102CB0001F2B09D8084B1B681B681B181B681B06B9
:102CC000F8D4F0BD0026D3E7034B1B681B681B1824
:102CD0001B68002BF8D1F4E7E0FD0008C0FF0008F6
:102CE00010B50400E0239B0580220021FFF7B8FF08
:102CF000D0239B05802200212000FFF7B1FFC023D5
:102D00009B05802200212000FFF7AAFFB0239B052E
:102D1000802200212000FFF7A3FFA0239B05802233
:102D200000212000FFF79CFF90239B0580220021BB
:102D30002000FFF795FF80239B05802200212000C3
:102D4000FFF78EFFE0235B05802200212000FFF7C4
:102D500087FFC0235B05802200212000FFF780FF52
:102D6000A0235B05802200212000FFF779FF80234C
:102D70005B05802200212000FFF772FFC0231B05A6
:102D8000802200212000FFF76BFF80231B0580229B
:102D900000212000FFF764FF8023DB048022002154
:102DA0002000FFF75DFF0023802200212000FFF7B5
:102DB00057FF0B4B1B689B080A4A116829228A5C43
:102DC0001F2A0AD90D229340F02292051343802234
:102DD00000212000FFF744FF10BD0C22F3E7C0469E
:102DE000E4FD0008C0FF0008054B1A682923D35CE6
:102DF0001F2B03D9034A044B1A607047034AFAE7B2
:102E0000C0FF000880B00010E0FD00082CB00010EA
:102E1000F0B583B01400404B1B68002B70D0002924
:102E200041D000296ED0002C6ED080221202944234
:102E300000D96CE080221201944255D03CD9802206
:102E40009201944252D045D98022D20194424FD06F
:102E50008022120294423BD10027304A1268292571
:102E6000565D1F2E48D9651E0191294251D11F2E52
:102E700002D93F022A4947509B6B1B1801991960E0
:102E8000A3082921525C1F2A38D80C2293401A002B
:102E9000F0239B05134380220021FFF7E1FE214B25
:102EA0001C60002031E0002ABBD11A6D11181B4AAA
:102EB0001268946CA400B4E78022920094420FD070
:102EC0008022D20094420DD080225200944211D030
:102ED00015481AE0802252019442F9D17027BCE7CC
:102EE0007E27BAE77C27B8E77827B6E76027B4E7FC
:102EF0004027B2E77F27B0E70C4DB5E70D22C5E7C5
:102F0000094802E0084800E0074803B0F0BD064861
:102F1000FBE70548F9E7C046E0FD0008C0FF0008F0
:102F200088140000E4FD00080B003200FF3F0000A1
:102F300010B50400FFF758FF194B1A682923D35C1A
:102F40001F2B10D8174B2360174B1A68536B1B1994
:102F500001211960154B1B68002B16D02000FFF7CC
:102F6000BFFE002010BD2368114A134023600E4BA2
:102F70001B685B681B190F4A1A60226880231B06B6
:102F8000134323600323A360DEE7116D6118044B34
:102F90001B689A6C92002000FFF73AFFDEE7C046FC
:102FA000C0FF000803000080E0FD0008E4FD000809
:102FB000FFFFFE7F01000200084B1A682923D35C43
:102FC0001F2B07D9002303608360054B00221A6082
:102FD0000020704700230360F7E7C046C0FF0008E9
:102FE000E4FD0008F0B5C64600B5002800D176E142
:102FF000002900D175E10B78022B00D901BE4B7B73
:10300000023BDBB2062B00D901BE8B7B002B04D028
:10301000022B02D0032B00D001BE2123CB5C012B5D
:1030200000D901BE2823CB5C012B00D901BE0B784F
:10303000012B0AD98B7F002B00D199E04B68013B13
:10304000062B00D996E0002305E04C68083C0823D5
:10305000A3429B415B42002B00D001BE8B68053B25
:10306000042B00D901BE4B69FF2B00D901BE8B692F
:10307000FF2B00D901BE8B7C002B06D00B78002BD8
:1030800002D18B68092B77D001BE984B4C6B1C4248
:1030900000D001BE964BCC6B1C4200D001BE0B7819
:1030A000022B6DD04B685D1E0B7F002B6DD08023F3
:1030B0005B028C68082C6AD88024240123430F24E7
:1030C0002C4023438024A404234303600B6B046837
:1030D00024055ED58024A34200D301BE8B6B046817
:1030E000240558D58024A34200D301BE4B6A04684E
:1030F000240552D58024A34200D301BE0E783306A6
:10310000C024A404234003644B7F002B47D04023FA
:103110008C7C002C45D08024E40023430C7C002CC4
:1031200041D08024640023434C7C002C3DD080247B
:10313000A4002343CD6A6C1E2404F0273F033C40C7
:1031400023434F7B013F07243C4023438F7B3F01B8
:1031500030243C40234383640B7B002B27D0802406
:103160006400CB7B002B27D1022E22D0002625E045
:10317000002370E701236EE78B7B002B85D083E76C
:103180008B7F002B8ED100258EE7002391E7002452
:1031900094E740249FE74024A5E74024ABE70023C1
:1031A000B6E70024B9E70024BDE70024C1E7002406
:1031B000D7E7FF36FF3601E08026B60026438B684E
:1031C0005C1E0F2398461C403443C027BF00C451E7
:1031D000FF244E6934408E693604FF231B041E40D1
:1031E0003443C426B6008451C459434623400333B4
:1031F0009D4201D3102D00D901BECB7F002B04D0FE
:103200000B78012B5BD0002500E000254C7B013CB6
:10321000072323402B438D7B2D0130242C40234357
:1032200043640B7B002B4DD080256D008B685C1EAA
:103230000F2323402B430C78012C45D0002423433B
:103240008024A4000351FF230C6B2340C124A4005D
:1032500003512023CB5C002B39D080239B042124F5
:103260000C5D012C35D00024234328240C5D012C57
:1032700032D000242343FF244D6A25402B430365AD
:103280008B6B1C4081239B00C4501A4B4C6B23401A
:10329000194C0351CB6B19490B4019494350002A73
:1032A00021D00023536013609360D3601362D36214
:1032B0001363144B5363002004BC9046F0BD80257B
:1032C0006D00A3E70025B1E780246402B7E700237F
:1032D000C5E780246404C7E780246402CAE70A487B
:1032E000EAE70948E8E70020E6E7C04692F4FFFF76
:1032F0008CF8FFFF6D0B0000C80F00007307000083
:10330000880F0000EFCDAB000160AA0003685B00EE
:103310005B080360002904D000234B600B600B6244
:10332000CB6270470749C02252008B589B009B0814
:103330008020C00503438B50885880231B0603431D
:103340008B5070470000264010B5002B01D000299B
:1033500000D101BE062A00D970E09000384C2058F8
:1033600087468B6040330B610A6069234B60354BA5
:10337000CB624023CB602C3B4B614B62002010BDE5
:103380008B6040330B610A606A234B602E4BCB622B
:103390004023CB60203B4B614B620020EFE78B600A
:1033A00040330B610A606A234B60284BCB62402399
:1033B000CB60203B4B61043B4B620020DFE78B601E
:1033C00080330B610A606B234B60214BCB628023FF
:1033D000CB60403B4B614B620020D0E78B60803379
:1033E0000B610A606B234B601A4BCB628023CB606E
:1033F000403B4B61103B4B620020C0E78B60803349
:103400000B610A606B234B60134BCB628023CB6054
:10341000403B4B61203B4B620020B0E78B60803328
:103420000B610A606B234B600C4BCB628023CB603B
:10343000403B4B61243B4B620020A0E708489EE7DD
:10344000D4B00010F0B0001024B1001004B100108E
:1034500084B1001044B1001004B20010C4B10010D7
:103460000B00320010B500290DD000238B620B62D7
:103470004B69002B09D00C69CA6A9BB2210001F08C
:1034800097FF002010BD0248FCE70148FAE7C0465C
:103490000B003200F0B5DE4657464E464546E0B5D5
:1034A00083B09446002900D154E1002A00D153E1B1
:1034B000CE68002E00D151E1002B00D150E10A6A04
:1034C000D2180A628A6A9046A64A14680500A26861
:1034D000121817680F223A40062AF5D8E2688218B7
:1034E000C827FF051760226852191268002AFAD10E
:1034F0000A6993464A699146A268521917680F22D1
:103500003A40042AF8D8E2685219974F1760E268E7
:1035100052195F461760E26852194F4617604A69B0
:103520009146A268521917680F223A40062AF8D825
:10353000E26857190197CC27FF05BA464F46524615
:1035400017433A00019F3A60226852191268002A14
:10355000FAD1A268521917680F223A40062AF8D801
:10356000E2685219CA27FF0517604246002A2AD08E
:103570008A689146A268AA1817680F223A40042A5E
:10358000F8D8E268AA18784F1760E268AA184F4680
:103590001760E268AA1847461760A268AA18176859
:1035A0000F223A40062AF8D8E2689246AA44CC276D
:1035B000FF05424617433A0057463A602268AA1868
:1035C0001268002AFAD1A268AA1817680F223A4096
:1035D000042AF8D8862252018258002AFADBE268CF
:1035E000AA1862481060E268AA1860461060E26893
:1035F000AA18136024E04246B01AA268AA181768F5
:103600000F223A40062AF8D842461702E26894464A
:10361000AC440743CC22D2053A4367463A604A6835
:103620009046A268AA1817680F223A40062AF8D8CE
:10363000E268AA1847463F0617601B1A0022904608
:1036400042469A189642D6D98A62002B14D0A268B4
:10365000AA1810680F220240062AF8D84246120221
:10366000E06828181343CC22D20513430360236873
:10367000EB181B68002BFAD1886A002824D08E68CA
:10368000A368EB181A680F231340042BF8D8E368DB
:10369000EB18374A1A60E368EB181E60E368EB1812
:1036A0001860886AA368EB181A680F231340062B6A
:1036B000F8D8E368EB18CE22D20502431A602368DB
:1036C000EB181B68002BFAD14869A368EB181A683D
:1036D0000F231340042BF8D8E368EB18244A1A6030
:1036E000E368EB185A461A60E368EB181860A368A1
:1036F000EB181A680F231340062BF8D8E368EB1871
:10370000CA22D2051A604969A368EB181A680F2308
:103710001340062BF8D8E368EB18CE22D2050A43F3
:103720001A602368EB181B68002BFAD1A368EB180A
:103730001A680F231340062BF8D8E368ED18CA2344
:10374000DB052B60002003B03CBC90469946A246A6
:10375000AB46F0BD0748F6E70648F4E70548F2E750
:103760000020F0E7E0FD000808000070080000718C
:103770000C0000700B003200F0B5DE4657464E4696
:103780004546E0B583B09046002900D16EE1002A9D
:1037900000D16DE1CF688B6A9C460A6A530F019392
:1037A000D200802F00D15EE138239946B14B1B68CF
:1037B00004009D682D182E680F253540062DF5D87C
:1037C000DD684519C826F6052E601D682D192D687F
:1037D000002DFAD10D69AB464D69AA469D682D1999
:1037E0002E680F253540042DF8D8DD682D19A24E1E
:1037F0002E60DD682D195E462E60DD682D19564657
:103800002E604D69AB469D682D192E680F253540F9
:10381000062DF8D8DD682D190095CC26F605B246A0
:103820005E4655462E43009D2E601D682D192D685D
:10383000002DFAD19D682D192E680F253540062DD3
:10384000F8D8DD682D19CA26F6052E608D68AB46BE
:103850009D682D192E680F253540042DF8D8DD6898
:103860002D19854E2E60DD682D195E462E60DD68AF
:103870002D1966462E609D682D192E680F2535403E
:10388000062DF8D8DD68AA46A244CC26F605654682
:103890002E4355462E601D682D192D68002DFAD136
:1038A0009D682D192E680F253540062DF8D86546E0
:1038B0002D02AA46DD68AB46A344704E55462E4302
:1038C0005D462E60E14512D84D68AC469D6865198D
:1038D0002E680F253540062DF8D8DD686519664637
:1038E00036062E601D6865192D68002DFAD17D1FE2
:1038F000AC466D462D79A9469D6865192E680F2541
:103900003540062DF8D865462D02DE68B246A24441
:103910004E463543D026F6053543564635603D1FA5
:10392000A946150EAC469D6865192E680F253540D1
:10393000062DF8D84D462D02DE68B146A1446646F4
:103940003543D026F60535434E463560FD1EA94663
:10395000150CEDB2AC469D6865192E680F253540F3
:10396000062DF8D84D462D02DE68B146A1446646C4
:103970003543D026F60535434E463560BD1EA94673
:10398000150AEDB2AC469D6865192E680F253540C5
:10399000062DF8D84D462D02DE68B146A144664694
:1039A0003543D026F60535434E463560013FD2B249
:1039B00094469A68A21815680F222A40062AF8D859
:1039C0003A02DD68651966463243D027FF053A435F
:1039D0002A604E689A68A21815680F222A40062AA3
:1039E000F8D8DA68A218360616601A68A2181268A3
:1039F000002AFAD14E6A9A68A21815680F222A4046
:103A0000042AF8D8DA68A2181D4D1560DA68A218E1
:103A100045461560DA68A21816609A68A2181568FB
:103A20000F222A40062AF8D8DA68A218CA25ED051E
:103A300015604D6A9A68A21811680F220A40062A7A
:103A4000F8D8DB68E418CE23DB052B4323600D4B4D
:103A5000C358002BFBDB002003B03CBC90469946CA
:103A6000A246AB46F0BD702399469FE60648F3E7B1
:103A70000548F1E7E0FD00080800007080000068DC
:103A80000C000070F01000000B00320003681B05F2
:103A90000CD5802282239B00C358DB05DB0D9342AB
:103AA00006D090239B00C150012070474022F1E7CF
:103AB0000020FAE770B58D69AA682B6AFF26CC68EA
:103AC000B44384600C696442B443C4602D68013D12
:103AD00003242C404969002900D170E0802149006D
:103AE00021430162002A33D01468611C69D0FF2190
:103AF000214014792404C025AD022C4021438024A8
:103B000024062143016451790904C024A402214000
:103B100041649468611C56D0FF212140147B240429
:103B2000C025AD022C40214380242406214381641A
:103B30001169002949D001391F240C408021090650
:103B40002143C164127D1204C02189020A4002652A
:103B5000002B33D019684A1C39D0FF220A4019794A
:103B60000904C024A40221400A43802109060A4313
:103B700002665A791204C02189020A404266996895
:103B80004A1C26D0FF220A40197B0904C024A40243
:103B900021400A43802109060A4382661A69002AE5
:103BA00019D0013A1F211140802212060A43C26631
:103BB0001B7D1B04C02292021340036770BD0021CD
:103BC0008EE700219EE70021B1E70021B9E700223E
:103BD000CEE70022E1E70022E9E770B508220026DF
:103BE000002400E008328B790133DB00934216D3C6
:103BF000FF2303408D5CAB42F4D1050AFF232B4029
:103C00008D18ED79AB42EDD18B185B78B342E9D3D7
:103C10008D18AD78012DE5D11E001400E2E72000DB
:103C200070BD000070B50C0015001E00FFF7D5FF39
:103C300000280BD020180379AB7043796B7083791F
:103C40002B70C3789B003360002070BD0048FCE7F8
:103C50008000B2008278520803231340012B05D064
:103C6000002B07D0022B03D0002070470420FCE774
:103C70000420FAE70320F8E743791B020279134393
:103C8000C2791206807900041043184302D401302F
:103C9000C0087047033880231B061843F9E7437AAE
:103CA0000B6000230B7102334B71037A5B090AD05E
:103CB000FF238B60FD3B0B73027A1F2313400B61C4
:103CC00002230B757047013B8B60F5E7C37A0B60ED
:103CD00000230B714B71837A5B090AD0FF238B6041
:103CE00000230B73827A1F2313400B6102230B7591
:103CF0007047013B8B60F5E7C37B0B6000230B71C2
:103D000001334B71837B5B090AD0FF238B60FE3B41
:103D10000B73827B1F2313400B6101230B757047CC
:103D2000013B8B60F5E7437B0B6000230B714B710C
:103D3000037B5B090AD0FF238B6000230B73027B9C
:103D40001F2313400B6101230B757047013B8B60F0
:103D5000F5E703230B6000230B714B7101225242E4
:103D60008A600B610B75704710B501290DD00329CE
:103D700009D00123002B14D08378990607D45B0661
:103D80000AD4FF2016E00023F4E70023F2E7110035
:103D9000FFF785FF05200DE01100FFF797FF0420D6
:103DA00008E08378D90606D4DB0709D41100FFF7B1
:103DB000D0FF012010BD1100FFF79EFF0320F9E79F
:103DC0001100FFF7B0FF0220F4E70000036801399B
:103DD000C8B2042808D8C9B289000E4841588F4695
:103DE0009B0601D5EC2313607047DB06FCD56C23E2
:103DF0001360F9E71B07F7D5BC231360F4E75B07F3
:103E0000F2D53C231360EFE79B07EDD50C2313603D
:103E1000EAE7C04644B200102823C35C1B09012016
:103E200098407047F0B5C64600B54F6A1B38430846
:103E300098460F263E4000242500032C08D90C2369
:103E4000404658430C381218906804BC9046F0BDA8
:103E5000072363433900D9400B09490A0320014075
:103E60001C300340012910D0002915D002290ED0A2
:103E700003290ED001336B430C2161435118701C90
:103E800043435B008B600134D7E71025F2E78025C0
:103E9000F0E7FA25AD00EDE70125EBE710B5446A40
:103EA000806A430F03211940000E1F2202400F2396
:103EB000234001290CD0002913D002290BD003295B
:103EC0000CD000200132504301335843400010BD54
:103ED00080204000F6E7FA200001F3E7FA20000214
:103EE000F0E71020EEE7816A080A1F2202400F2344
:103EF0000B40890406D5402001325043013358431A
:103F0000400070470820F7E7062303600023037191
:103F1000704704230360002303717047022303608A
:103F200000230371437101225242826003730361D3
:103F3000037570471223036000230371437101224C
:103F40005242826003730361037570473423036038
:103F500000230371437101225242826003730361A3
:103F60000233037570473E230360002202713C3B1D
:103F700043710121494281600373026103757047F7
:103F800010B5030010001B68042917D002D80029BF
:103F900021D110BD0529FCD1DA0502D5FFF7E3FFD9
:103FA000F7E71A0602D5FFF7D1FFF2E75B0602D565
:103FB000FFF7C0FFEDE7FFF7B1FFEAE71A0602D50A
:103FC000FFF7C4FFE5E75B0602D5FFF7B3FFE0E7C5
:103FD000FFF7A4FFDDE75B0602D5FFF7ABFFD8E7ED
:103FE000FFF79CFFD5E705230360002303717047AB
:103FF00010B5C36A002B10D0036B002B0FD0046BDD
:10400000002323713A33CA5C1209333B1340052B5A
:104010000DD89B00124AD3589F4601BEECE701BE63
:10402000EDE701235B42C3632360C26A136010BDE6
:104030000223C363013B2360C36A35221A60F6E79B
:104040004023C3633F3B2360C36A05221A60EEE747
:104050008023C363423B2360C36A3F221A60E6E7C2
:1040600058B2001060230360002303717047F0B55D
:10407000CE46474680B5040090460368042B3ED1E7
:104080004669053B336048784008103318400023E8
:10409000042B16D9032B36D81A1D9146002003286D
:1040A00017D94A468A5C32605B001D33180000282D
:1040B0002AD0636900221A715A710CBC9046994645
:1040C000F0BD01259D4007002F40BD42E2D00133E5
:1040D000DEE7051DAC460C25454362468A5C474633
:1040E0007A550130DBE722280BD802300B5CFF2B1E
:1040F000F9D00028DBD063690A5C1A60D7E71D207D
:10410000F4E70020F5E700206369FF221A71D4E785
:1041100070B5002200250FE02B001C33C65C540054
:10412000A418A300CB180124B4405C602C001D34FB
:10413000045D1C7002350132032AEDD970BD10B543
:10414000013B9C180855000A002BF9D110BD10B591
:1041500004000023002003E00002E25C104301336E
:104160008B42F9D310BD000070B586B004001E006C
:104170000A9D4B0629D41648CB0724D58B0710D5AA
:10418000D368002B0DD01A68D1B21A790495012397
:1041900003930296FE330193002300932000FDF762
:1041A00035FE0B4B984201D000280CD10495012319
:1041B00003930296FE330193002200921300B7216D
:1041C0002000FDF723FE06B070BD0020D4E7C046F6
:1041D0008000B20070B586B00400160018000C9D77
:1041E000049500220392029101920B9B00930A9B7B
:1041F00001002000FDF70AFE002806D100950023EB
:10420000012231002000FDF7EBFE06B070BD00007A
:10421000F0B5DE4657464E464546E0B589B00590B6
:104220000F0090469B4612AB1B78994600250695D9
:104230005B4E2C003B5D9B071CD5002E68D0002EEA
:1042400010D13B199B780133DBB299465B464A4655
:10425000DA64012A00D8A1E0002398461D000593E6
:10426000C8455CD3300009B03CBC90469946A24694
:10427000AB46F0BD631CFB5CE21CBA5C92461722A5
:1042800002A98C466244002111703A199278920971
:10429000012A2CD08A4204D0022A26D05A4612681B
:1042A00000E0002200218A4223D813990291019252
:1042B00006AA0092172202A98C4662444946059834
:1042C000FFF788FF061E0BD16D00EDB2172302AA7F
:1042D000944663441B78524613405A1E93411D4333
:1042E00008344445A6D92F4EA7E70422DAE7032273
:1042F000D8E7A018401A3818C67806A846540131E5
:10430000D1E73B199B7802339B00E418A04504D306
:104310003B195B78AB42F4D191E7224E8FE7059BC6
:104320009C46AC446346059304343D1928780F231A
:10433000184001210022084221D02D682D0A0135A4
:104340002D0243469B005946096DCB589A46059964
:1043500019600C235343149A944663441A785146C7
:104360008A605246996811615968A9420FD9D5608F
:104370000123536043460133DBB2984670E749009E
:10438000C9B20132D2B2042AD5D9064ED5E7D160DE
:10439000280001F065FC53465860EBE7004E61E7EA
:1043A0000600B2000700B200F0B589B006000C00AC
:1043B0000792109D0978227967790495002003906F
:1043C0000293019703230093079B3000FDF71EFD26
:1043D000002801D009B0F0BD21693000FDF7F4FEDE
:1043E0000028F7D1237D0195002200920E9A0F99A3
:1043F0003000FDF7BFFD041EECD16E6AAB69032BE4
:10440000E8D0084B9842E5D0002E01D12000F5E716
:104410000120FEF7F3F8013E002E01D10148EDE73F
:104420002000EBE70200B200F0B583B001900D0070
:104430001600FA24A4002F0031000198FDF7DCFEDD
:10444000854206D0002C04D00120FEF7D7F8013CAD
:10445000F1E731000198FDF7CFFE874202D100203D
:1044600003B0F0BD0048FBE70200B20030B587B0F2
:1044700014008B69DB68002B0FD01D781A790B783C
:104480000494012103910293FF23019300230093DD
:104490002900FDF7BBFC07B030BD0148FBE7C04673
:1044A0008000B20030B587B00400150018000A780B
:1044B0000A9B0493002303930292FF22019200932C
:1044C000002201002000FDF7A1FC002801D007B068
:1044D00030BD0A9B00930023012229002000FDF734
:1044E0007FFDF4E710B584B00F236B4401241C70EA
:1044F0008C69A36A002B0DD01B7800920F226A44AE
:10450000FFF7D0FF002805D1A36B0F226A44117872
:104510000B4013700F236B441878431E9841C0B2B0
:1045200004B010BDF0B589B0069007938B691C6A82
:10453000002C47D0002A47D0586A0E9DA84245D388
:104540004F69002F1FD10F78217820791B68667979
:10455000109D049500250395029701960093130082
:104560000200069D2800FDF751FC002802D1A16839
:104570004B1C0AD1002802D12169002913D100283F
:1045800015D009B0F0BDFFB2DEE7C9B2227B109BA7
:104590000493002303930297FF30019000932800B7
:1045A000FDF734FCE6E70698FDF70EFEE7E7237D0E
:1045B000109A01920F9A00920E9A07990698FDF7A9
:1045C000A3FCDEE70248DCE70248DAE70148D8E767
:1045D0008000B2000400B200F0B589B00690170068
:1045E00007938B699C68002C42D0002A42D04E6908
:1045F000002E1ED10E78217822791B686079109DDB
:104600000495002503950296019000933B00069DBA
:104610002800FDF7FBFB002802D1A1684B1C0AD142
:10462000002802D12169002913D1002815D009B032
:10463000F0BDF6B2DFE7C9B2227B109B04930023E2
:1046400003930296FF30019000932800FDF7DEFBF4
:10465000E6E70698FDF7B8FDE7E7237D109A01929B
:104660000F9A00920E9A07990698FDF783FCDEE7F1
:104670000148DCE70148DAE78000B2000400B2003C
:10468000F0B583B00191002808D086697368934221
:104690001ED3376D002F03D0002004E001BEF4E7E5
:1046A0000C4813E00130F36C83420ED98300FC58B0
:1046B0002568E36861684B435B19AA42F2D39A42CA
:1046C000F0D2019B1C60002000E0024803B0F0BD66
:1046D0000148FBE70600B2000400B200F0B58BB061
:1046E00006900C0015000793002928D0002D30D02B
:1046F000A66977690023099331682800FFF727FD31
:10470000020009A92000FFF7BBFF002F1BD03A7958
:10471000FF2A1AD0104B984219D0002811D1099BBA
:10472000197A336800932378079804900120039046
:10473000029301922B000698FDF768FB0AE001BE88
:10474000D4E73978EDE7054804E0044802E003487F
:1047500000E001480BB0F0BD0400B2008000B200E0
:10476000F0B5CDB004900C1E059206930ED032AA7F
:10477000002313705370937031AA137053709370A9
:1047800030AA137053709370656B05E001BEEEE7BD
:1047900033AA0021D1540133632BF9D9069A059F1E
:1047A0003900049E3000FDF7FBFA002D13D0529B18
:1047B000029333AB0193382300933B0032AA2900C4
:1047C0003000FFF7F1FD061E06D133AB9B79062BB7
:1047D00002D98F4E10E18E4E002E00D00CE133AB8B
:1047E0001B78532B00D006E133AB5B78462B00D00F
:1047F00005E133AB9B78442B00D002E133ABDB788F
:10480000502B00D0FFE033AB1B79052B00D8FCE028
:1048100033AB5B79012B01D07D4EEDE0002708978B
:1048200008AB31AA33A97B48FFF7FCF9099709AB1C
:1048300030AA33A97848FFF7F5F9784B98426BD046
:1048400000230A93FF200AAB32AA33A90002FFF724
:10485000E9F9061E00D0CFE0A368002B5FD0E36823
:10486000002B5ED02369002B5DD06369002B5CD0E8
:10487000E369002B5BD0236A002B5AD0A36A002B7C
:1048800059D0529B029333AF01970A9B0093059B2B
:1048900032AA29000498FFF787FD060024A93800F2
:1048A000FFF736FC3800FFF7D5F920603800FFF736
:1048B000E3F960603800FFF7AFFA6062E068FFF785
:1048C00023FB2069FFF725FB0123A363A06AFFF701
:1048D0008AFB39002000FFF78BFBE069FFF7C2FB82
:1048E0003800FFF7DBFA60643800FFF7FCFAA064D9
:1048F000A36807931A0006993800FFF735FA0700F6
:104900002368042B19D0206AFFF708FB24AA33A9D7
:104910002000FFF7ACFB46E0E764276590E701BEA7
:104920009DE701BE9EE701BE9FE701BEA0E701BE75
:10493000A1E701BEA2E701BEA3E733AA3833D15CE9
:10494000529B0093059B22000498FFF70DFC061E66
:104950000CD1529B02930BAB0193089B0093059BD8
:1049600031AA29000498FFF71FFD0600002E0BD086
:104970000120431E33A9CA5C01239340A36124AAEA
:10498000FFF750FA206410E0079A39000BA8FFF7F0
:104990001DFA226A39000BA8FFF7F2FA24AA0BA924
:1049A0002000FFF764FB0028E3D1236D002B23D008
:1049B000529B029333AB0193099B0093059B30AA52
:1049C00029000498FFF7F0FC061E15D124AB0293D2
:1049D000529B0193059B00932300099A33A90498E5
:1049E000FFF716FC0E4B984203D10023E3642365C6
:1049F00002E0060000E0064E30004DB0F0BD044E6F
:104A0000FAE7034EF8E7024EF6E7014EF4E7C04638
:104A10000500B20084FF000081FF00008000B200AA
:104A20000600B200F0B5DE4657464E464546E0B5B4
:104A300085B0061E914600D1ADE0002900D1ACE062
:104A40004F68002F00D1AAE0002A00D1A9E00B682E
:104A50009846002B03D0002500239A464DE052488B
:104A600090E001BE60E0012A00D084E080231B01B9
:104A70009B46B3445B46002B00D18AE019684B4B40
:104A800019400391237A1804C02189020840039930
:104A90000143584601600420616808405BD1A36966
:104AA0001B68013B032B00D901BE002824D1636899
:104AB0009B0721D52169E06801F058F9002900D051
:104AC00001BE23693A4A934202D95A1E1A4200D0C3
:104AD00001BE21005846FEF7EDFF0223FF33626856
:104AE0001340227A1204C02189020A401343802213
:104AF000120613435A4613600135A84539D9AB0055
:104B0000FC58002CF8D02278531EDBB2012B04D9BC
:104B1000042A02D0082A00D001BE237A032B00D930
:104B200001BEA369002B9CD02278022A09D09AD911
:104B3000042A0BD0082A1ED198231B019B46B3449C
:104B400098E788231B019B46B34493E790231B01FE
:104B50009B46B3448EE7A169484600903000FFF7BA
:104B6000FFFD00289BD00823AB4052461A439246D3
:104B700095E7002000E00C485346002B02D0B220FD
:104B80000004184305B03CBC90469946A246AB468B
:104B9000F0BD0548F0E70448F4E70348F2E70248AF
:104BA000F0E70148EEE7C0460400B200FFFFFCFF5B
:104BB000FFFF0000F0B583B00090019115001E00CA
:104BC000940816D1013414E03F1A80B2FDF716FDA7
:104BD000002F05D038000D4B9F42F5D91800F3E7A0
:104BE000320001990098FFF77DFC002807D0002DC6
:104BF00005D02F00A54200D92700ED1BEAE70028C9
:104C000002D1002003B0F0BD0148FBE7FFFF000028
:104C10000200B200F0B5CE4600B588B005900E0097
:104C2000170099460E9C00230793002909D04B4694
:104C3000002B08D03B19B2695268934205D8194835
:104C400021E001BEF3E701BEF4E7164808B004BC5A
:104C50009146F0BDB3691B68002207A93800FFF731
:104C60006EFA0F9B02930023019300954B4607AA0F
:104C700031000598FFF7B0FC00280DD00028E5D1E1
:104C8000641B7F19A944002CE0D0250080235B021F
:104C90009C42DFD91D00DDE70F9A03210598FFF73D
:104CA000C3FBEBE70400B200F0B5D646474680B53B
:104CB00089B005900E0090469A46109D00230793F8
:104CC00000290BD05346002B0AD0B269576A4346DD
:104CD0005B195268934205D8234816E001BEF1E7FC
:104CE00001BEF2E7204809B00CBC90469A46F0BDE0
:104CF0002C00119A31000598FFF7B8FB00280FD05F
:104D00000028F0D1A244A0442D1B002DEBD0390087
:104D1000404601F02BF86B18BB42E9D37C1AE8E758
:104D2000B3691B68002207A94046FFF708FA119BE8
:104D30000293002301930094534607AA310005987B
:104D4000FFF7F0FB0028DBD1119A01210598FFF74E
:104D50006BFB0028D4D1B3699A6C119B3100059884
:104D6000FFF728FFCCE7C0460400B200F0B5DE46EE
:104D700057464E464546E0B587B001900E001500F7
:104D80009A46130053440293002305930493002989
:104D900014D0B3699B469F691B6C99462A0004A9ED
:104DA0003000FFF76DFC041E0AD1049B1A68904680
:104DB000DF685B687B434344039304E001BEE8E79C
:104DC0000023984603935346002B00D1414C4346A1
:104DD000E81A390000F0CAFF002973D13D4B9C420C
:104DE00070D0039B029A93420ED8029B4246981AB7
:104DF000390000F0BBFF002964D1364B9C4261D0E2
:104E0000B8464F46200043E0013A04A93000FFF7BE
:104E100037FC041EE9D1049B1A689046DF68E4E77A
:104E2000002828D1A54231D2109A31000198FFF70D
:104E30001DFB0028F4D13B68002205A92800FFF7DC
:104E40007EF9109B05AA31000198FFF747FC002866
:104E5000E6D14B465B014A469B1A9B004B44DA0065
:104E6000109B31000198FFF7A5FE4544534642468A
:104E70009B1A9A46D4E7BB464F4609E0029CB946C6
:104E80005F46CFE7029CB9465F46CBE7BB464F463D
:104E90005346002B15D02A0004A93000FFF7F0FB81
:104EA0000028EBD1049B1F69DA6890461A685C6899
:104EB00043465C43A418029BA342E3D3B9465F4632
:104EC000B0E70400200007B03CBC90469946A246DB
:104ED000AB46F0BD0400B20070B50C00194B1B6866
:104EE0002E229A5C824224D9002924D00A68D10655
:104EF00023D11D6AAC215B5A58432D18124E3560E0
:104F0000D2080021606801F005FA00212800FDF7B1
:104F10006BFE306822000021FDF77CFE00280ED1D8
:104F2000094B18680021FDF75FFE002802D00748F2
:104F300000E0074870BD0648FCE70548FAE703486B
:104F4000F8E7C046C0FF0008E8FD000801018A003C
:104F500003018A0010B5002A0AD0002A1CD00029BB
:104F60001CD00F4B19605A601900FFF7B5FF10BD38
:104F70000029F2D10B4B1A682E23D35C984200D340
:104F800001BE084B1A68136AAC21525A50431818D4
:104F9000054B18600020EAE70448E8E70348E6E725
:104FA000F0160008C0FF0008E8FD000803018A00B1
:104FB000F0B583B00D00194B1B68DE68336883427F
:104FC0002AD947091F2318400124844000290CD006
:104FD00000230193114B18680368002B09DB104C68
:104FE000002D15D0200003B0F0BD00F0F2FD0190BF
:104FF000F0E77268BB00D3181A68144206D0A243C7
:105000001A6000240021FDF7EFFDE9E7054CF9E700
:10501000019800F0E2FDE5E7034CE3E7E8FD000856
:10502000030188000201880004018A000A4B1B6802
:10503000DB681A6882420DD941091F2210401E3ACE
:105040008240586889000B581A4201D1034802E097
:10505000034800E003487047E8FD000800018800AD
:105060000101880004018A00014B18687047C0469E
:10507000F0FD00080A4AA623DB00D25803231340A0
:10508000032B09D0064AA623DB00D2580123134084
:10509000022B01D0002001E0024B18687047C04687
:1050A00000002640ECFD000802000C4B19683A2372
:1050B000CB5C834200D801BE1300D0339B0008496B
:1050C0005B5807201840042800D07047C032920077
:1050D00053581B300340E1301843F6E7C0FF000887
:1050E0000000264010B5204B1A683A23D35C834257
:1050F00000D801BEFFF7D8FF022814D00CD9122324
:10510000FF3398421CD01423FF33984220D0033B36
:1051100098420BD0002010BD002823D00128F9D1DF
:10512000FFF7A2FFF7E7FFF7A5FFF4E70F4A104BE1
:10513000D358002B01DB0020EDE780200002EAE7D6
:105140000C4B1B6904201840E5D080200002E2E7E8
:10515000064A094BD358002B01DB0020DBE78020F7
:105160000002D8E70548D6E7C0FF00080000264047
:105170000C050000000027403C05000000127A00EA
:1051800010B5002832D01A49B023DB00CB589A035F
:10519000920B02608022520413405A1E9341C37145
:1051A000144BCB58DA04D20C82801B0CDB05DB0DD0
:1051B0000381B123DB00CB580F2214001C40847202
:1051C0001C092240C2721A0AD204D20C82811B0F1F
:1051D000032213408373084BCB58190A04320A4048
:1051E00082711B0CDB05DB0D038210BD01BECAE71B
:1051F00000002640840500008C0500000138114B9A
:105200001A683B23D35C83421AD98130FF30800077
:105210000D4BC3587F221A400A70180A1F221040F3
:105220004870180C02408A70802212051A40501EE5
:105230008241CA701B0F032213400B71002070477C
:105240000248FCE7C0FF00080000264001004A00B9
:10525000F0B587B004003E4B1A683A23D35C834212
:1052600000D801BE2000FFF73DFF0500002C28D02C
:10527000374B1A683B23D35CA34243D20023002759
:1052800000260022002B19D000232800002100F066
:105290007DFE04000D003A0000233000002100F0E4
:1052A00075FE02000B00C90756080E435F08200078
:1052B00029008019794100F049FE0500280007B057
:1052C000F0BD1422002101A801F024F801A8FFF785
:1052D00057FF204AB023DB00D358002B08DB002304
:1052E00001A9019A8E88C979002909D00227C9E746
:1052F00001AB9B7B022B01D00123F1E70023EFE7F9
:105300000127BFE70522002101A801F003F801A948
:105310002000FFF773FF013C0D4B1A683B23D35C61
:105320009C4200D301BE8134FF34A400094BE358F2
:10533000002B05DB002301A90A784E788F78A1E7BE
:1053400001AB1B79022B01D00123F4E70023F2E724
:10535000C0FF00080000264010B5134B1A683C231C
:10536000D35C984200D301BE0300E0339B000F4A98
:105370009A5812090323134001249C400A4B1A68CF
:105380003C23D35C984200D301BEE0308000074B41
:10539000C3580F201840FFF75BFF6308181821005F
:1053A00000F05EFC10BDC046C0FF000800002640B3
:1053B000F0B5002B50D09C46284C24680500A66808
:1053C000361837680F263E40042EF5D8862676011B
:1053D0008659002EFADBE0682818214E0660E06846
:1053E00028180260E268AA1860461060A268521984
:1053F00010680F220240042AF8D8E26852191948AE
:105400001060E26852191160E26852196146116039
:105410000CE0A268AA1811680F220A40062AF8D8E0
:10542000E268AA1810491160103B9BB20F2BF0D80C
:10543000002B0CD0A268AA1811680F220A40062A75
:10544000F8D81B04E268AA1808490B4313602368C4
:10545000EB181B68002BFAD1F0BDC046E0FD000838
:10546000080000710C00007008C0104008C0004027
:10547000F0B5002B3FD09C461F4C24680500A66861
:10548000361837680F263E40042EF5D8E0682818F5
:105490001A4E0660E06828180160E16869186046E5
:1054A00008600DE0A168691808680F21014006290D
:1054B000F8D8E1686918124810430860103B9BB2A5
:1054C0000F2BEFD8002B11D0A168691808680F21A5
:1054D00001400629F8D81B04C02109020B43E168EA
:1054E00069181A438423DB051A430A602368EB1802
:1054F0001B68002BFAD1F0BDE0FD00080C00007025
:1055000000C0104230B5184B1B6828229A5C1F2A35
:1055100015D8850807222C009443221E20D103327F
:105520001040C000FC3282401B682033AD005B1984
:105530001C688140614011406140196010E01B8F80
:105540008B420ED007230340074A1268126880205E
:105550000006184380239B019C46614489008850C3
:1055600030BD01BEEEE7C046C0FF00080A4B9A6896
:105570000A4B9A4204D010308000094BC058704743
:10558000002906D003001033044A9B009858995014
:10559000F5E701BEF6E7C04600ED00E000100008A8
:1055A00000000010F0B5CE46474680B583B0061E19
:1055B000019151D04368032B00D901BE0023F05E56
:1055C000002826DA254C0022B35E7168002B25DB0B
:1055D0009A08234FC0329200D059844603200340DA
:1055E000DB00FC30814605009D406046A843050075
:1055F00089014846084098402843D051194B9A6881
:10560000194B9A4222D0200003B00CBC9046994618
:10561000F0BD7188FFF776FF0024D4E79BB20F221C
:105620001A40083A9208063292000E4884466244B4
:10563000556803273B40DB00FF2007009F40BD4328
:1056400089010140994029435160D7E70023F05E6A
:105650000199FFF78BFFD6E7004CD4E70100560015
:1056600000E100E000ED00E000100008084B1A68BF
:105670003D23D35C052B09D96D23D05C01218140EA
:105680006A3B83400B409168024A8B507047C0468A
:10569000C0FF0008140C000010B50020FCF782FFCA
:1056A00010BD704710B50020FFF756FE00282AD025
:1056B000154B1860154B1B681C6880229B58E4181A
:1056C0002168090E013100F0CBFA114B18602368F4
:1056D0001B0AFF211940013100F0C2FA0D4B18607E
:1056E000441E0D49200000F0BBFA01300B4B18702E
:1056F000FA218900200000F0B3FA0130084B18604D
:10570000C003084B186010BDD0110008C0FF00088E
:10571000D4110008CC11000840420F00E01100082D
:10572000DC110008D811000810B52048FCF7ECFD8A
:105730001F4CB022D200A3585B005B08A350E021AD
:105740008900635830208343635080235B04A35057
:10575000184B194AE2500433A0229201E250174B31
:10576000FF22E250FDF7DEFDC0225200A3580121C6
:105770008B43A350FFF795FFFFF794FF104B1A6878
:10578000136AAC21515ACA00521A9B180022DA60DF
:105790005A600C4A80210320FFF7DCFB0A48FCF723
:1057A000B9FD0A48FCF70EFE10BDC04608AE001059
:1057B0000000264084050000010002008C05000066
:1057C000C0FF0008F8160008F4FD0008B0B2001091
:1057D000034A90235B01D358032018407047C0460A
:1057E0000000204010B500F0F4F9084C9021490168
:1057F0006358074A1A40074B13436350034B5B68D7
:10580000DB06FBD500F0E9F910BDC04600002040E2
:10581000FCFF00000100FA0570B50500830500D00B
:1058200001BE00F0D6F90400FFF7D2FF032813D021
:105830000B4B802292009D50902040011A5809493C
:105840001140094A0A431A50054B5B68DB06FBD539
:10585000200000F0C2F970BDFFF7C4FFE8E7C046C2
:1058600000002040FCFF00000300FA0510B51048BE
:1058700003689A688021C9008024E405545070248C
:105880001B5B9B181A680B4C22401A6002686F233E
:10589000D05C6C3B83406C20105C6E24145DA04097
:1058A000034390688022120613434350435810BDAF
:1058B000C0FF0008FF00FFFF10B5064C064A00219C
:1058C0002000FDF76DF8054A01212000FDF768F87A
:1058D00010BDC04680023140E4B2001018B3001081
:1058E00010B5982100F0DCF810BD10B50B000100D8
:1058F0000831002B05D001220300383300F0DEF818
:1059000010BD0222F8E710B5002A01D1002010BD19
:105910000400083413000A00210000F005F9F6E73E
:1059200010B50A000100083100F024F910BD000094
:10593000074BC200D05A9B1859889A88DB880843C5
:1059400010431843C0B2431E9841C0B27047C046CE
:1059500074FF0008F8B50024002C01D01248F8BDEF
:105960001500A3009B185B00104E9E5B5300104F68
:10597000DB5B9E4201D30134EEE700230B704C70D9
:105980000C4B03602000FFF7D3FF002808D0074A24
:10599000A40064196400A35A0133A3520020DEE777
:1059A0000448FDF7C5FAF2E70110000074FF000893
:1059B0004CB300100000104070B505000C00487892
:1059C00083009B185B000F495B5A002B05D08100B8
:1059D0008A185200013B0B495352FFF7A9FF0028D8
:1059E00008D1094B1B68002B05D02B68002B05DB69
:1059F0000123237070BDFDF7F7F9F6E72800FDF7E6
:105A0000DBFAF5E774FF0008E0FD000870B504005C
:105A10000D0000280BD0211D2A002000FFF79AFF5F
:105A2000002800D1A57143425841C0B270BD01BEEB
:105A3000F1E710B5002803D00379002B02D010BD88
:105A400001BEF9E78279011D0068FFF7B5FFF6E7AF
:105A500030B583B004000D00002801D0002901D129
:105A600003B030BD03216846FFF7D0FF002803D103
:105A70006846FFF7DEFFF3E70098ABB2074A11680C
:105A800029228A5C1F2A04D900222100FFF7F0FC9A
:105A9000EEE700222100FCF727F9E9E7C0FF000844
:105AA00010B5041E01D0002900D110BDFFF7D0FFB2
:105AB00003212000FFF7AAFFF7E7000070B50500FB
:105AC0000C1E26D0002B27D0006816490E6829210D
:105AD000715C1F2912D92100FDF736FC00281ED168
