:02000002F0000C
:108000000000042079830F0061830F0063830F0059
:1080100065830F0067830F0069830F000000000075
:108020000000000000000000000000006B830F0053
:108030006D830F00000000006F830F0071830F003D
:1080400073830F0073830F00AD890F0073830F00DC
:1080500073830F0073830F0073830F0073830F000C
:1080600073830F0073830F0073830F0073830F00FC
:1080700073830F0073830F0073830F0073830F00EC
:1080800073830F0073830F0073830F0073830F00DC
:1080900073830F0073830F0073830F0073830F00CC
:1080A00073830F0073830F0073830F0073830F00BC
:1080B00073830F0073830F000000000000000000B6
:1080C00073830F0073830F0073830F0073830F009C
:1080D00073830F0073830F0073830F0073830F008C
:1080E00073830F0073830F00E1B20F0000000000E4
:1080F0000000000073830F000000000073830F0076
:10810000000000000000000000000000000000006F
:10811000000000000000000000000000000000005F
:10812000000000000000000000000000000000004F
:10813000000000000000000000000000000000003F
:10814000000000000000000000000000000000002F
:10815000000000000000000000000000000000001F
:10816000000000000000000000000000000000000F
:1081700000000000000000000000000000000000FF
:1081800000000000000000000000000000000000EF
:1081900000000000000000000000000000000000DF
:1081A00000000000000000000000000000000000CF
:1081B00000000000000000000000000000000000BF
:1081C00000000000000000000000000000000000AF
:1081D000000000000000000000000000000000009F
:1081E000000000000000000000000000000000008F
:1081F000000000000000000000000000000000007F
:10820000364937480A1A02D0072291438D4635492C
:1082100035480A1A06D00722914381F309880222C1
:1082200082F3148831483249324A00F045F8324826
:108230003249334A00F040F832483349334A00F0BB
:108240003BF833483349344A00F036F83348344970
:10825000344A00F031F834483449354A00F02CF8FB
:1082600034483549354A00F027F835483549002269
:1082700000F02DF834483549002200F028F8344841
:108280003449091A082903DB002202600430016026
:10829000314A90471F482049884205D0026804307F
:1082A00003B4904703BCF7E700208646EC46002065
:1082B00000212A4A9047FEE7884207D0521A05D08B
:1082C000037801300B700131013AF9D170478842CF
:1082D00002D002700130FAE770470000000004206D
:1082E00000F8032000000420000004207CBC0F00E4
:1082F000080000200C000020D8830F00D8830F0056
:1083000064B80F007CBC0F000800002008000020AB
:108310006CB80F006CB80F006CB80F006CB80F0091
:108320006CB80F006CB80F006CB80F006CB80F0081
:108330007CBC0F0080BC0F000C0000200C00002053
:108340000C0000200001002000010020000100209E
:108350000001002000010020A1830F0039900F00D0
:10836000FEE7FEE7FEE7FEE7FEE7FEE7FEE7FEE7E5
:10837000FEE7FEE7704700BF1048804710484FF007
:108380000701884385460F4880470F48016841F43C
:1083900070010160BFF34F8FBFF36F8FFFF730BFE6
:1083A0000A480B490B4A884207D0521A05D0037875
:1083B00001300B700131013AF9D1704775830F001C
:1083C00000000420C59A0F0088ED00E06CB80F0093
:0883D000080000200800002055
:1083D80000B585B001900091019B0393039B08337E
:1083E80020220099184603F0DDF9039B03F12800C9
:1083F800009B20332022194603F0D4F900231846A5
:1084080005B05DF804FB00B585B001900121019825
:1084180000F02AFA0390BFF35F8F039B002B0CBF79
:1084280001230023DBB2184605B05DF804FB82B0D7
:108438000190BFF35F8F019B00221A6000BF02B05A
:108448007047000008B50348FFF7DDFF03461846EC
:1084580008BD00BF0C00002008B50248FFF7E7FF81
:1084680000BF08BD0C00002082B00190019B002BCA
:1084780006D0074A934205D000BF48F2165303E0DE
:10848800002301E048F24253184602B0704700BF8B
:108498008408F00000B58DB0059004910392029312
:1084A800059B0B93049B0A930B9B154A1A60FFF7D5
:1084B800C9FF03468DF827309DF8273083F0010364
:1084C800DBB2002B02D048F2045315E000F0B4F9F7
:1084D8000B980A9B03F10801029B0093039B0E9AD9
:1084E80001F0A0FD089000F0B3F9FFF7B5FF089878
:1084F800FFF7BAFF0790079B18460DB05DF804FB1D
:10850800DD55AABB00B585B001900121019800F0A6
:10851800ABF90390BFF35F8F039B002B0CBF0123C4
:108528000023DBB2184605B05DF804FB82B0019069
:10853800BFF35F8F019B00221A6000BF02B0704733
:1085480008B50348FFF7DEFF0346184608BD00BF1D
:108558000C00002008B50248FFF7E8FF00BF08BD7F
:108568000C00002082B00190019B03F06043B3F13E
:10857800005F0CBF01230023DBB2184602B070472E
:1085880084B00190019B1A4A934219D0184A934229
:1085980005D8002B0DD0174A93420DD020E0164A7B
:1085A800934215D0154A934216D0154A93420BD0E0
:1085B80016E00023039317E048F20153039313E0F6
:1085C80048F2035303930FE048F2025303930BE07E
:1085D80048F21653039307E048F20353039303E06A
:1085E80048F21653039300BF039B184604B0704724
:1085F8000102F0000002F0000C02F0000F02F0008F
:108608000202F00000B587B00190019B0833059382
:10861800059801F071FD04900498FFF7B1FF0390ED
:10862800039B184607B05DF804FB00B58DB00390B6
:1086380002910192039B08330993029B0A93019BC1
:108648000B93FFF77DFF03468DF823309DF8233009
:1086580083F00103DBB2002B02D048F2045331E06F
:1086680000F0EAF80298FFF77DFF034683F0010364
:10867800DBB2002B02D048F2125323E00B9B4FF6DB
:10868800FF72934228BF13460793079A0A990998DD
:1086980001F04CFD06900B9A079BD31A0B930A9A8C
:1086A800079B13440A93069B002B02D10B9B002BBC
:1086B800E4D100F0CDF8FFF74DFF0698FFF760FF13
:1086C8000590059B18460DB05DF804FB00B58BB00E
:1086D800039002910192039B08330993029B08932C
:1086E800019B1B681F2B02D848F2145324E0FFF7A4
:1086F80027FF03468DF81F309DF81F3083F00103D4
:10870800DBB2002B02D048F2045315E000F094F8D5
:108718000899099801F062FD069000F099F8FFF7B2
:1087280019FF0698FFF72CFF0590059B002B02D137
:10873800019B20221A60059B18460BB05DF804FBCC
:1087480082B00190019B00221A60BFF35F8F00BFC7
:1087580002B0704708B50248FFF7F2FF00BF08BD36
:108768000C00002084B0019003230393019B002B8D
:1087780002D0052B03D006E00023039306E048F25D
:108788000353039302E00323039300BF039B18469C
:1087980004B0704700B583B0FFF7DCFF094B012236
:1087A800C3F8002501F04AFD0190064B0022C3F8EA
:1087B80000250198FFF7D6FF0090009B184603B0EC
:1087C8005DF804FB00A00250034B0022C3F800250B
:1087D80000231846704700BF00A0025082B003462D
:1087E8008DF807309DF8073003F01F0205499DF901
:1087F80007305B09012000FA02F241F8232000BF8C
:1088080002B0704700E100E082B003468DF80730FF
:108818009DF8073003F01F0206499DF907305B09F0
:10882800012000FA02F2203341F8232000BF02B0F1
:10883800704700BF00E100E008B5044B0122C3F80F
:1088480000252A20FFF7CAFF00BF08BD00A002507C
:1088580008B5044B0022C3F800252A20FFF7D4FFEF
:1088680000BF08BD00A0025010B487B0019000916D
:10887800019B009A53E8004F104643E8000191F02D
:10888800000FF7D1059404900391059B184607B093
:108898005DF8044B7047000000BF034BD3F8003469
:1088A800002BFAD000BF704700E0014000B583B04C
:1088B80001900D4B0222C3F80425BFF36F8FBFF35D
:1088C8004F8F094A019BC2F80835FFF7E5FF064BB1
:1088D8000022C3F80425BFF36F8FBFF34F8F00BF8B
:1088E80003B05DF804FB00BF00E0014000B587B0AD
:1088F80001900B468DF80330019B03F003030593A9
:10890800059BDB43019A13400493049B1A68059B5B
:10891800DB00FF2101FA03F3DB43134003939DF8C7
:108928000320059BDB0002FA03F3039A1344039325
:108938000C4B0122C3F80425BFF36F8FBFF34F8F91
:10894800049B039A1A60FFF7A7FF064B0022C3F89F
:108958000425BFF36F8FBFF34F8F00BF07B05DF8DB
:1089680004FB00BF00E0014000B587B0039002910E
:108978000192002305930CE0039A059BD018029AF4
:10898800059B13441B781946FFF7B0FF059B01337D
:108998000593059A019B9A42EED300BF07B05DF894
:1089A80004FB000008B5024B1B68984700BF08BDD0
:1089B8001000002082B001900091019B002B02D191
:1089C80048F210530CE0009B002B02D148F21353DD
:1089D80006E0009B00221A60009B019A5A6000235F
:1089E800184602B0704782B001900091019B002B9D
:1089F80002D148F2105308E0019B1B68009A9A4282
:108A080002D048F2405300E00023184602B07047F5
:108A180084B0039002910192039B002B02D148F28B
:108A2800105307E0029A019B9A4202D048F2115370
:108A380000E00023184604B07047000000B58BB072
:108A48000390029101920093029B0993099903985C
:108A5800FFF7B0FF0890089B0793079B002B01D0F6
:108A6800079B22E0039B9B791A4600990198FFF720
:108A7800CFFF0890089B0693069B002B01D0069B0E
:108A880013E00C4B0593059B002B02D148F20353CE
:108A98000BE0059B0199029898470890089B002BCA
:108AA80002D1099B044A1A60089B18460BB05DF86E
:108AB80004FB00BFD9830F007052464D90B58FB0AC
:108AC80002AFF860B9607A603B600023FB62BB6864
:108AD800BB622B49B86AFFF786FF78627B6A3B6204
:108AE8003B6A002B01D03B6A46E0BB6A5B68FB61CE
:108AF800FB695B795B001A46796C386CFFF788FF75
:108B080078627B6ABB61BB69002B01D0BB6933E02B
:108B18007B68002B02D148F210532DE0194B7B6182
:108B2800A4233B617B69002B02D148F2035323E065
:108B3800FB68002B16D13B69002B13D03B69073328
:108B48000733DB08DB00ADEB030D02AB0733DB08B3
:108B5800DB00FB62FB6A002B02D148F215530BE0E5
:108B6800FB6AFB603B6C00937C693B687A68B96878
:108B7800F868A04778627B6A18463437BD4690BDCE
:108B88007052464D9D840F0082B00190019B002BCE
:108B980002D148F2015308E0019B1B68044A934242
:108BA80002D048F2025300E00023184602B0704792
:108BB8006E52464800B585B001900091019B002B8C
:108BC80002D148F2015318E0009B002B02D148F271
:108BD800105312E0019B0393039B009A5A60009B79
:108BE8001B68019898470290029B002B01D0029BBA
:108BF80003E0039B034A1A600023184605B05DF89A
:108C080004FB00BF6E52464800B587B0039002913E
:108C18000192039B05930598FFF7B6FF0490049B08
:108C2800002B01D0049B13E0029B002B02D148F2D9
:108C380010530DE0019B002B01D1002308E0059B98
:108C48005B685B68019A0299039898470490049BB3
:108C5800184607B05DF804FB00B587B00390029191
:108C68000192039B05930598FFF78EFF0490049BE0
:108C7800002B01D0049B18E0029B002B02D148F284
:108C8800135312E0019B1A68059B5B68DB689A42E4
:108C980002D248F2145308E0059B5B689B68019A6E
:108CA8000299039898470490049B184607B05DF80A
:108CB80004FB000000B585B0134A144BD31ADB0837
:108CC8000293134B01221A700023039310E0039BB5
:108CD800DB000E4A13440193019B1B6898470090E0
:108CE800009B002B01D0009B0AE0039B01330393F8
:108CF800039A029B9A42EAD3054B02221A70002378
:108D0800184605B05DF804FB6CB80F0064B80F0096
:108D18001800002000B585B0124A134BD31ADB089F
:108D280002930023039310E0039BDB000E4A1344D5
:108D38000193019B5B6898470090009B002B01D032
:108D4800009B0AE0039B01330393039A029B9A4218
:108D5800EAD3064B00221A700023184605B05DF8C6
:108D680004FB00BF6CB80F0064B80F0018000020A7
:108D780082B003468DF807309DF8073003F01F02D4
:108D880006499DF907305B09012000FA02F22033F9
:108D980041F8232000BF02B0704700BF00E100E0A7
:108DA800BFF34F8F054BDB6803F4E0620349044BC4
:108DB8001343CB60BFF34F8F00BFFDE700ED00E02A
:108DC8000400FA0518DF704700BF184613DF704724
:108DD80000BF184608B5FFF7E3FF00BF08BD000055
:108DE80000B583B000238DF80730104B1B68009343
:108DF80013E09DF80730012202FA03F31A46009B9C
:108E08001340002B04D09DF907301846FFF7B0FF38
:108E18009DF8073001338DF807309DF807301F2B78
:108E2800E7D900BF03B05DF804FB00BF00E100E034
:108E380000B583B00190FFF7CDFF00BF03B05DF828
:108E480004FB000000B58BB001900023079300F0ED
:108E58006CFCFFF7C5FF03AB00221A605A609A60EA
:108E6800DA600223039303AB1846FFF7ABFF034610
:108E78000793079B0993099B002B02D00998FFF7DA
:108E8800D7FF0D4B1B681846FFF7A0FF0346079353
:108E9800079B0893089B002B02D00898FFF7C8FF90
:108EA8000198FFF793FF03460793019800F090FAA3
:108EB80000BF0BB05DF804FB1410001000B585B0BE
:108EC80001900091019B23F47F6323F00F03039328
:108ED80007E0039B1846FFF7E9FC039B03F5805363
:108EE8000393019A009B1344039A9A42F1D300BF5B
:108EF80005B05DF804FB00B5CDB002460DF10703DF
:108F08001A700DF106030A461A7043F208031B682B
:108F18004B9343F208031B684A930DF107031B7830
:108F2800012B05D14FF40C234B934FF40C234A9398
:108F380002AB4FF490724A99184602F033FC02AB28
:108F48000DF106021278DA714B9B4FF480511846E6
:108F5800FFF7B4FF02AB4FF4907219464B98FFF736
:108F680003FD00BF4DB05DF804FB08B54FF4C82100
:108F78004FF40C20FFF7A2FF00BF08BD00B583B077
:108F8800012000F063FB03468DF807309DF8073099
:108F9800032B03D09DF80730042B1AD143F20803A2
:108FA8001B681A4643F208031B68C3F50C231946CD
:108FB8001046FFF783FF43F20803186843F20803DB
:108FC8001B68C3F50C231A464FF40C21FFF7CCFCA1
:108FD8002AE043F208031B6818464FF40C231A6969
:108FE8004FF40C23DB68D31A03F580531946FFF7B7
:108FF80065FF43F208031B684FF490724FF40C218D
:109008001846FFF7B1FC43F208031B6803F58050CC
:109018004FF40C231A694FF40C23DB68D31A1A4651
:109028004FF40D21FFF7A0FC00BF03B05DF804FB6F
:1090380000B583B000230093002000F0D5F94FF469
:1090480070231B78002B01D100F045FA00F060FB7B
:10905800002000F0FBFA03468DF80730012000F0ED
:10906800F5FA03468DF806309DF80730052B00F217
:10907800B28001A252F823F099900F0013910F00CB
:109088004D910F0075910F0075910F00BF910F0062
:109098009DF80630052B36D801A252F823F000BF00
:1090A800C1900F00E9900F00E3900F00E3900F00CC
:1090B800E3900F00E3900F0043F208031B689A68DF
:1090C8004FF40C239B689A4204D8FFF757FFFFF729
:1090D8004CFF19E0FFF749FF16E0FFF746FF13E0E2
:1090E80043F208031B689A684FF40C239B689A4262
:1090F80006D200F0F0F9FE210020FFF7FCFE03E0A5
:10910800FFF733FF00E000BF65E09DF80630002B55
:1091180012D143F208031B689A684FF40C239B682A
:109128009A4204D8FFF72AFFFFF71FFF09E0FE2144
:109138000020FFF7E0FE04E0FE210020FFF7DBFE41
:1091480000BF48E09DF80630002B04D0002B07DB59
:10915800033B012B04D8FFF711FFFFF706FF04E0DC
:10916800F8210020FFF7C7FE00BF34E09DF8063065
:10917800052B1ED801A252F823F000BF9D910F00C5
:10918800A7910F00B5910F00B5910F00B5910F0091
:10919800B5910F00FFF7F2FEFFF7E7FE0AE000F0D7
:1091A8009AF9FE210020FFF7A6FE03E0FFF7DDFE97
:1091B80000E000BF0FE09DF80630002B04D0002B24
:1091C80007DB033B012B04D8FFF7D8FEFFF7CDFEE2
:1091D80000E000BF00BF002000F038FA03468DF819
:1091E80007309DF80730002B03D09DF80730022B7D
:1091F80008D143F208031B6803F580531846FFF7AC
:1092080021FE1AE09DF80730032B06D143F208032C
:109218001B681846FFF716FE0FE09DF80730042B71
:1092280008D143F208031B6803F580531846FFF77B
:1092380009FE02E0012000F0D7F80023184603B029
:109248005DF804FB00B585B00190019B002B0AD0A6
:10925800074B43F001030393019B9B010293039B7C
:109268000298984700E000BF05B05DF804FB00BF16
:10927800A0B80F0082B00190019B1B681F2B02D879
:109288004FF0A04306E0019B1B6803F01F02019BFF
:109298001A60024B184602B0704700BF0003005026
:1092A80000B585B00190084611461A4603468DF868
:1092B80003300B468DF8023013468DF8013001ABB0
:1092C8001846FFF7D7FF03909DF803209DF802305A
:1092D8005B001A439DF801309B001A439DF8183033
:1092E8001B0242EA03019DF81C301B04019A194332
:1092F800039B02F5E07243F8221000BF05B05DF849
:1093080004FB00B585B0039000230193002300936C
:109318000023012201210398FFF7C2FF00BF05B017
:109328005DF804FB00B585B0019001AB1846FFF766
:10933800A1FF0390019B012202FA03F31946039847
:1093480000F026F800BF05B05DF804FB00B585B055
:10935800019001AB1846FFF78DFF0390039BD3F8EC
:1093680004350293029BDA43019B012101FA03F3BE
:109378001A40039BC3F80825019B01229A40029BCF
:109388001A40039BC3F80C2500BF05B05DF804FB29
:1093980082B001900091019B009AC3F8082500BF94
:1093A80002B0704700B583B00190019B002B0AD032
:1093B8004FF47A70FFF746FF019B013B0193019B35
:1093C800002BF5D100E000BF03B05DF804FB0000FE
:1093D80082B00190019B1A6882F308885B6818477D
:1093E80000BF02B0704700BF80B584B000AF03462D
:1093F800FB710D20FFF785FF0E20FFF782FF0F207E
:10940800FFF77FFF0D20FFF78DFF0E20FFF78AFF84
:10941800FB79012B13D0022B19D0002B1BD1002371
:10942800FB6008E00D20FFF791FF6420FFF7BAFF0B
:10943800FB680133FB60FB68032BF3DD0BE00E20B8
:10944800FFF784FF4FF4C870FFF7ACFFF7E70F2072
:10945800FFF77CFF00BF002318461037BD4680BDCC
:1094680000B587B003900291019200238DF8173060
:109478000DE09DF817301B03039A134404930498D6
:10948800FFF714FA9DF8173001338DF817309DF85F
:109498001730019A9A42ECD80299019B1B031A468D
:1094A8000398FFF761FA00BF07B05DF804FB00B549
:1094B80083B001900B468DF80330019B03F57023B0
:1094C80001339DF8032011461846FFF70FFA00BF35
:1094D80003B05DF804FB00B585B000230393FF23B8
:1094E8008DF80B304FF470231B78002B0ED102E05F
:1094F800039B01330393039B9B00632B06D8039BB9
:1095080003F5702301331B78F82BF1D000214FF4B9
:109518007020FFF7EBF95AE0039A13469B079B1A52
:109528009B006433042B28BF04230193039B03F59A
:10953800702301331B78FE2B18D0FF2B02D0FC2B95
:1095480029D043E043F208031A68039B9B031344A2
:10955800019A19464FF47120FFF782FFFE21039804
:10956800FFF7A5FF0220FFF73FFF30E043F20803B3
:109578001A68039B9B03D018039B23339B03019A10
:109588001946FFF76DFFFC210398FFF790FF0220B3
:10959800FFF72AFF1BE0039B23339B03019A4FF439
:1095A80071211846FFF75CFFF8210398FFF77FFF4A
:1095B800039B01330393039B9B00632B02D9F8237E
:1095C8008DF80B300220FFF70FFF00E000BF9DF879
:1095D8000B30F82BA0D10F20FFF7A4FE4FF470201A
:1095E800FFF764F900BF05B05DF804FB00B583B070
:1095F800019007220649019802F07EF80346002BE5
:1096080001D1012300E00023184603B05DF804FBF4
:1096180090B80F0000B585B00190019B03930198A5
:10962800FFF7E4FF034683F00103DBB2002B01D010
:109638000B2306E0039B9B69002B01D00B2300E062
:109648000023184605B05DF804FB000000B585B09E
:1096580003468DF807309DF80730002B03D143F2FD
:1096680008031B6801E04FF40C230393039B18467F
:10967800FFF7D0FF0346002B0CBF012300238DF812
:109688000B309DF80B30002B2AD0039B184600F0B6
:109698005DF90346002B01D0052332E0039BDB79FB
:1096A800F83B072B1AD801A252F823F0D9960F00DD
:1096B800E5960F00E5960F00E5960F00D5960F008A
:1096C800E5960F00DD960F00E1960F00002318E0E5
:1096D800052316E0022314E0012312E0052310E01D
:1096E800039B03F580531B68084A934201D1042366
:1096F80007E0039B1B68054A934201D1032300E05E
:109708000623184605B05DF804FB00BF00000420DE
:1097180008B500F011F80346002B01D1032302E03D
:10972800FFF7C8FA0346184608BD08B5FFF7F2FA6E
:109738000346184608BD000000B5ADF5077D304961
:10974800304802F00FF88490849B002B01D103234A
:1097580050E0849B1C3384932B49849802F002F8D0
:109768008390839B002B01D1032343E0839A849B3E
:10977800D31A02AA03A80093849B002101F0A4FE37
:1097880002AB1968839A849BD31A02AA03A8009390
:10979800849B01F099FE03AB85930AE013221B49D1
:1097A800859801F0A9FF0346002B0AD0859B013359
:1097B800859302AB1B6803AA1344859A9A42EDD39A
:1097C80000E000BF02AB1B68002B01D1002311E0B1
:1097D800859B043B8593859B01331B7802331A468E
:1097E8000B4B1A600A4B1B681A468599094801F009
:1097F800D9FF002318460DF5077D5DF804FB00BF6F
:10980800C8BA0F00A8B80F00E4BA0F00B4BA0F0026
:109818007C0000201C00002010B5C8B003AC2060FC
:1098280002A8016001A90A606A4613601E491F4820
:10983800FFF7C0F94790002346931DE002AB1A6872
:10984800469BD31AB3F5807F28BF4FF480734593A6
:1098580003AB1A68469BD11805AB459A184601F028
:10986800A1FF05AB459A19461048FFF7CDF9479077
:10987800469A459B13444693479B002B04D102AB61
:10988800469A1B689A42D9D3479B002B07D16A4650
:1098980001AB126819680548FFF7DEF94790479B46
:1098A800184648B010BD00BF78B80F0080000020EF
:1098B80010B5EAB005AC206004A8016003A90A60ED
:1098C80002AA13602EAB48220021184601F093FF2C
:1098D8001EAB40220021184601F08DFF184B1B6873
:1098E800403B184A9918164B1A6806AB184601F0FF
:1098F80059FF06AA2EA940231348FFF79FF80346ED
:10990800699303AA02AB12681B681A4403AB1EA82A
:10991800196800F086F80346699304AB05AA2EACD3
:1099280040A8402101911EA900911B681268214698
:10993800FFF7C4F803466993699B18466AB010BDDF
:109948007C0000201C0000206CB80F0000B58FB010
:1099580001902023049300230393019B0D93019B03
:1099680003F580500D9B1A690D9BDB68D11A04AB77
:1099780005AAFFF751FF03460393039B002B0AD167
:1099880004990D9B03F120020D9BDB6905A8FFF7E5
:109998008FFF03460393039B002B02D048F24253E8
:1099A80000E0002318460FB05DF804FB00B587B04F
:1099B800039002910192012305932022002103982C
:1099C80001F019FF04AA02230199029801F054FD3D
:1099D8000346002B20D1049B202B0AD9029B1A682E
:1099E800049B203B134420221946039801F0DAFE19
:1099F8000AE0049BC3F12003039AD018029B1B685A
:109A0800049A194601F0CEFE029B1A68049B1A4478
:109A1800029B1A6000230593059B184607B05DF862
:109A280004FB00B587B003900291019200230493D0
:109A38000123059304AA02A83023019901F01CFD13
:109A48000346002B19D1029A049B1344019A9A42A7
:109A580001D2012312E002AB019A19460398FFF7DD
:109A6800A5FF0590059B002B07D1039B203302A976
:109A7800019A1846FFF79AFF0590059B184607B00C
:109A88005DF804FBBFF34F8F054BDB6803F4E0621E
:109A98000349044B1343CB60BFF34F8F00BFFDE76F
:109AA80000ED00E00400FA05024B034A1A6000BF0B
:109AB800704700BF080000200090D00308B500F0F0
:109AC80025F90346002B0ED04FF080430022C3F83F
:109AD8000C214FF080430022C3F810214FF080433F
:109AE8000022C3F8382500F02FF90346002B76D062
:109AF8004FF080537C4AD3F80434C2F820354FF035
:109B08008053794AD3F80834C2F824354FF080538B
:109B1800754AD3F80C34C2F828354FF08053724A8E
:109B2800D3F81034C2F82C354FF080536E4AD3F86E
:109B38001434C2F830354FF080536B4AD3F81834D8
:109B4800C2F834354FF08053674AD3F81C34C2F852
:109B580040354FF08053644AD3F82034C2F8443576
:109B68004FF08053604AD3F82434C2F848354FF098
:109B780080535D4AD3F82834C2F84C354FF08053EF
:109B8800594AD3F82C34C2F850354FF08053564A0E
:109B9800D3F83034C2F854354FF08053524AD3F8D2
:109BA8003434C2F860354FF080534F4AD3F8383414
:109BB800C2F864354FF080534B4AD3F83C34C2F8AE
:109BC80068354FF08053484AD3F84034C2F86C35B2
:109BD8004FF08053444AD3F84434C2F8703500F04B
:109BE800D1F80346002B02D0404B414A1A6000F0DE
:109BF800DBF80346002B03D03E4BFB22C3F81825A5
:109C080000F0E4F80346002B0AD03B4B1B6823F016
:109C18000F023A4B1B6803F00F03374913430B60DD
:109C280000F0E6F80346002B03D0354B4FF40072E2
:109C38001A6000F0EFF80346002B0DD04FF0804378
:109C4800D3F8003403F00103002B05D04FF0804314
:109C58006FF00102C3F800242A4BD3F88830294A50
:109C680043F47003C2F88830BFF34F8FBFF36F8F90
:109C78004FF01023D3F80032002B05DB4FF01023F0
:109C8800D3F80432002B2BDA1F4B0122C3F804252A
:109C980000BF1D4BD3F80034002BFAD04FF010232F
:109CA8001222C3F8002200BF174BD3F80034002B50
:109CB800FAD04FF010231222C3F8042200BF124B2F
:109CC800D3F80034002BFAD00F4B0022C3F8042538
:109CD80000BF0D4BD3F80034002BFAD0FFF7D2FEAB
:109CE800FFF7E2FE00BF08BD00C000408C560040F0
:109CF8004881030000F00040E40E004058020010C4
:109D08004096024000ED00E000E001400C4B1B686B
:109D1800082B11D10B4B1B68002B01D101230CE040
:109D2800084B1B68012B01D1012306E0054B1B687A
:109D3800022B01D1012300E001231846704700BF20
:109D480030010010340100100C4B1B68082B11D196
:109D58000B4B1B68002B01D101230CE0084B1B683F
:109D6800012B01D1012306E0054B1B68022B01D111
:109D7800012300E001231846704700BF300100109E
:109D880034010010064B1B68082B05D1054B1B68D6
:109D9800002B01D1012300E000231846704700BFC3
:109DA8003001001034010010064B1B68082B05D148
:109DB800054B1B68002B01D1012300E00023184646
:109DC800704700BF3001001034010010064B1B68BB
:109DD800082B05D1054B1B68002B01D1012300E09E
:109DE80000231846704700BF3001001034010010EE
:109DF800064B1B68082B05D1054B1B68002B01D1AE
:109E0800012300E000231846704700BF300100100E
:109E1800340100100C4B1B68082B11D10B4B1B682D
:109E2800002B01D101230CE0084B1B68012B01D149
:109E3800012306E0054B1B68022B01D1012300E03A
:109E480001231846704700BF30010010340100108C
:109E580030B10268034B04489A4208BF002070479B
:109E680002487047DD55AABB8208F0007108F0006F
:109E780038B50D460446B0B1A0220021043000F0E8
:109E880045FD95B12946082204F1640000F044FD1F
:109E9800082205F1200104F1840000F03DFD044B87
:109EA8002360002038BD034838BD034838BD00BFD3
:109EB800DD55AABB7108F0008308F0002DE9F743CF
:109EC80005460E4699461146FFF7C2FF044600288C
:109ED80040F08480002E00F08580002900F0848006
:109EE800B9F1200F40F0828005F14404082205F101
:109EF8000408204600F010FD05F124070822314629
:109F0800404600F009FD06F120010822384600F01D
:109F180003FD02A94FF4807041F8049D00F0A6FAF1
:109F2800002865D1334A4FF4807313600121936090
:109F38000823314A00F04AFB0121084605232F4A2D
:109F480000F044FB0823424601211C2000F03EFBA0
:109F580008233A460121032000F038FB2246082353
:109F68000121022000F032FB0823254A01211A2092
:109F780000F02CFB0523234A01211B2000F026FBBF
:109F88000823214A0121142000F020FB08231F4A3E
:109F98000121152000F01AFB082305F164020121B4
:109FA800162000F013FB082305F184020121172075
:109FB80000F00CFB0823164A01210B2000F006FBD9
:109FC80000F060FB0446019800F0EEFA114B002CFB
:109FD80018BF1C46A421284600F09AFC204603B06E
:109FE800BDE8F0830C4CF9E70C4CF7E70C4CF5E7AF
:109FF800084CEFE790B0025040BB0F00B8BB0F0011
:10A0080000BB0F00A4BB0F0064BB0F0084BB0F0094
:10A0180020BB0F008408F0007608F0008008F000EC
:10A028008108F0002DE9F041069F044615461E46BA
:10A03800FFF71EFF38B93B46324629462046BDE8A1
:10A04800F041FFF73BBFBDE8F08100000C4BC2694F
:10A058001A60826943F8042C426943F8082C0269A3
:10A0680043F80C2CC26843F8102C826843F8142C6F
:10A07800426843F8182C026843F81C2C704700BF4C
:10A088005CB602500C4B1B68C3610C4B1B688361A8
:10A098000B4B1B6843610B4B1B6803610A4B1B6826
:10A0A800C3600A4B1B688360094B1B684360094BFC
:10A0B8001B680360704700BF5CB6025058B6025078
:10A0C80054B6025050B602504CB6025048B6025030
:10A0D80044B6025040B6025030B10268034B0448FF
:10A0E8009A4208BF0020704702487047DD55AABB56
:10A0F8000202F0000002F00038B5044668B1051D00
:10A108002846702100F004FC28462022044900F06B
:10A11800FBFB044B2360002038BD034838BD00BF5B
:10A12800DCBB0F00DD55AABB0002F000294B2DE96E
:10A13800F04304460E4615460FCB85B06F468DE8B2
:10A148000F002DB94FF00009484605B0BDE8F0836F
:10A158002046FFF7C1FF81460028F5D1231D019352
:10A16800636AA3BB236F8BB1C3F14008A84528BF1E
:10A17800A84604F1300031461844424600F0C4FBBA
:10A18800236F434446442367A5EB0805226F402A02
:10A1980006D104F13001384600F0CCFB00232367D8
:10A1A80005F03F0835F03F0505D031462A463846C8
:10A1B80000F0C0FB2E44B8F1000FC3D04246314630
:10A1C80004F1300000F0A0FBC4F87080BCE7DFF8B1
:10A1D8000890B9E7CCBB0F000C02F0002DE9FF4155
:10A1E800144B04460E460FCB8DE80F002046FFF7B0
:10A1F80073FF8046B0B9CEB1636A251D01953BB99E
:10A2080001236362226F04F13001684600F092FB7B
:10A218002B46043E243453F8042B12BAA34246F8C2
:10A22800042FF8D1404604B0BDE8F081DFF808807B
:10A23800F8E700BFCCBB0F000502F000084B1B6815
:10A248001B0EF02B08D1074B1A68074B9A4205D111
:10A25800064B00201860704705207047062070479D
:10A2680028B9025024BA02500000E0200CBA02506B
:10A2780030B500220C4C49001346023840F6FC75F4
:10A28800904202F10102CABF236025605B181E2AB2
:10A2980004F10404F4D1054A19441360044B054A37
:10A2A80019609A6030BD00BF00B0025078B002500B
:10A2B8007CB0025020F80F0030B51E4B85B01A460E
:10A2C800196800910099CC07FAD500F1A05000F563
:10A2D8002C408000016813680193019BD807FAD5C8
:10A2E800154B164C1868164D1F30202390FBF3F0C1
:10A2F8000138002810DA00230130400153B1A0F1E1
:10A3080020014FF00042134204D1013881424FEA44
:10A318005202F8D105B030BD13680393039BDB07E5
:10A32800FAD5431823602B680293029B002BE3D1D4
:10A338000138DEE7B4B00250ACB00250E4B00250CD
:10A34800DCB002507FB51C681CB901F01F041F2C3B
:10A3580027D1174C254626680196019EF607FAD59F
:10A3680000F1A05000F52C40800000682C68039490
:10A37800039CE407FAD50F4C00EB611020600E48EF
:10A3880001F01F04006802901F2C18BFC9430298EF
:10A398000FBF106001F01F0100FA01F111600021E8
:10A3A800196010684300C00F136004B070BD00BF8F
:10A3B800B4B00250E4B00250DCB002500C4B18604C
:10A3C8003F3020F03F008901403058609960D960E3
:10A3D8001961596199611C330648196082B0026895
:10A3E8000192019AD207FAD5196002B0704700BFEE
:10A3F80090B00250B4B0025038B5A0F12003B3F5C4
:10A40800426F05462CD88F2826D800F1470300F163
:10A418006604DB064FEA541400D0013464013F346B
:10A42800A409013411B1A1421AD30C46E3004FF438
:10A438008050B0FBF3F0202828BF202002B1106024
:10A44800084B01221A602146FFF712FF28462146D1
:10A45800FFF7B4FF002038BD00F11F046409DDE7F1
:10A46800014838BD1CB802502221F0000A460021DC
:10A47800FFF7C2BFF0B5464B89B01D461C68019472
:10A48800019CE407FAD5434BDFF810C1DFF810E16F
:10A4980013449B000A181B681E2A88BFC0F11E01BE
:10A4A8001F330A185B095A43B2F5806F88BF4FF40F
:10A4B80080614FF0000484BFB1FBF3F1091A00F189
:10A4C800A05000F52C402746A14233DC2A680492AC
:10A4D800049AD207FAD5304A126829680591059975
:10A4E800CF07FAD52D482E4C0260002216469A4214
:10A4F80002F1010140D12A4C134621F00101002646
:10A508008B423CD32B680693069BDE07FAD5254B76
:10A518001B682C680794079CE407FAD5036000239E
:10A528001F481C469A422DD11D4A00208B422CD32D
:10A5380009B0F0BD2A680292029AD207FAD5021928
:10A54800920012682E680396039EF607FAD5CCF897
:10A55800002000229A4202F1010206D11E4622F092
:10A568000102964204D30134AEE7CEF80070F1E759
:10A57800CEF800700136F4E726600A46B7E7266091
:10A588000133BDE704600133CCE710600133CDE748
:10A59800B4B0025024AC00147CB00250D4B00250C5
:10A5A800D8B0025078B0025008B540B12028014612
:10A5B8004FF0070228BF20210020FFF75BFF024B66
:10A5C80000221A6008BD00BF1CB80250F0B5294D22
:10A5D80085B02C462E680096009EF607FAD500F145
:10A5E800A05000F52C408000056820680190019873
:10A5F800C707FAD52048214F056002EB8306B2420F
:10A6080029D15A1C1D4E22F001020027934227D35C
:10A6180023680293029BDE07FAD5194B0B449B0073
:10A628001B681F335B099A4213D22168039103996F
:10A63800C907FAD5154400219B1A104A0560084637
:10A64800994210D35A1C0D4922F00102002093426E
:10A658000CD305B0F0BD52F804EBC7F800E0CEE724
:10A6680037600133D2E710600131E9E70860013350
:10A67800EDE700BFB4B00250D4B00250D8B00250D9
:10A6880024AC00142DE9F041814B1D6898682033F3
:10A69800A0B01E461A680192019AD707FAD57D4BD9
:10A6A8007D4A1A6032680292029AD407FAD57B4A28
:10A6B8001A607B4A1446116803910399C907FAD5B1
:10A6C800784A1168C1F3402137680497049FFF074F
:10A6D800FAD5754F1F6027680597059FFF07FAD5BC
:10A6E8001768002900F0CF80B90540F1CC803168A7
:10A6F80006910699CF07FAD56C4919602168079128
:10A708000799C907FAD51168C1F340213768089736
:10A71800089FFF07FAD5664F1F6027680997099FAA
:10A72800FF07FAD51268002900F0AF80910540F1C3
:10A73800AC8032680A920A9AD207FAD5564A1A6049
:10A7480032680B920B9AD707FAD55A4A1A603168C1
:10A758000C910C99CC07FAD55749196031680D91BD
:10A768000D99C907FAD55549196031680E910E99A6
:10A77800CF07FAD55249196031680F910F99CC0764
:10A78800FAD550491960504B1E4619681091109916
:10A79800C907FAD53F4C4D4B236033681193119B81
:10A7A800DB07FAD54A4B236033681293129BDF0705
:10A7B800FAD5484B23603A4B984619681391139978
:10A7C800C907FAD5324F386033681493149BDB07F6
:10A7D800FAD5226033681593159BD807FAD53E4BF6
:10A7E800236033681693169BD907FAD53B4B236031
:10A7F80033681793179BDA07FAD5394B2360336808
:10A808001893189BDB07FAD5364B236033681993E6
:10A81800199BD807FAD5344B236033681A931A9BCF
:10A82800D907FAD5314B236033681B931B9BDA0792
:10A83800FAD52F4B236000F037FC08BBD8F800305E
:10A848001C931C9BDB07F9D53D6033681D931D9B4A
:10A85800D907FAD5274B236033681E931E9BDA0766
:10A86800FAD5254B2360D8F800301F931F9BDB07D0
:10A87800F9D50C4B1B6813F4805F204B08BF1846B2
:10A8880020B0BDE8F0811E48FAE71E48F8E700BF8F
:10A8980090B0025080B0025000100251C01F7229BF
:10A8A800B4B0025088B00250C0CF0129C01F0E2991
:10A8B800C03F002940010249003184A80000164920
:10A8C800400108A180440888B0B00250C044708894
:10A8D80080077A41C0077E4100006A498006164910
:10A8E80040006E4900020021008220214082202180
:10A8F8008082242140A161A100C861510308F100B0
:10A908000108F1000208F10000F04CBF00F073BF2D
:10A918000A46002100F06FBF01EB820204388A4228
:10A9280001D10020704752F8043D1BBA40F8043F9B
:10A93800F5E700002DE9F74F314B44688046924611
:10A9480099461A68002AFCD12E4B9B461A68002AA1
:10A95800FCD14FF0FF30019100F098FC802000F00E
:10A968009BFC294D294A2A4F2A4E012307202B6098
:10A97800A2F59E72C2F83C011360636A3B60A36A49
:10A988003360D8F8003042F8043CD8F80830204644
:10A9980098470199D9F80030002BFBD1BAF1000F84
:10A9A80020D11D4B04221A60D9F80030002BFBD1AE
:10A9B800DBF800A0BAF1000FFAD1D8F80C30204625
:10A9C80098473B6863623368A362144BC3F800A0DE
:10A9D800C3F844A1D9F80030002BFBD12B6003B099
:10A9E800BDE8F08F236A012B04BF0C4A13600C4B9F
:10A9F80040201960C3F804A000F054FCD4E700BF5D
:10AA080010B9025020BC025018B8025000B90250C8
:10AA1800CCB70250D0B70250C8B7025084B6025023
:10AA280028BC025010B5544B98B019461A680192C8
:10AA3800019AD207FAD5514B514A1A600A68029214
:10AA4800029AD407FAD54F4A1A600A680392039A01
:10AA5800D007FAD54C4818600A680492049AD207BD
:10AA6800FAD54A4A1A600A680592059AD407FAD5AF
:10AA7800474A1A600A680692069AD207FAD5454AE2
:10AA88001A600A680792079AD407FAD5424A1A60E8
:10AA98000A680892089AD207FAD5404A1A600A68E2
:10AAA8000992099AD407FAD53D4A1A600A680A92A7
:10AAB8000A9AD207FAD53B4A1A600A680B920B9A8F
:10AAC800D407FAD5384A1A600A680C920C9AD20749
:10AAD800FAD5364A1A600A680D920D9AD407FAD543
:10AAE800334A1A600A680E920E9AD207FAD5314A8A
:10AAF8001A600A680F920F9AD407FAD52E4A1A607C
:10AB08000A681092109AD207FAD52C4A1A601A4B82
:10AB180019461C681194119CE407FAD5174B186064
:10AB2800086812901298C407FAD51A600A68139236
:10AB3800139AD007FAD5124A1A600A681492149A1E
:10AB4800D207FAD51E4A1A600A681592159AD407D0
:10AB5800FAD51C4A1A600A681692169AD007FAD5CE
:10AB6800194A1A600A681792179AD207FAD5174A2B
:10AB78001A6018B010BD00BFB0B0025080B00250CB
:10AB8800009365210004319040966590008361210F
:10AB980000C3302100C364900081619000461021F9
:10ABA800008111210041442100C320290C4610C80E
:10ABB8000086312100C3602140C1282940966521C3
:10ABC8000013319040962529594614C8400432494B
:10ABD80010B5494B94B019461A680092009AD207EA
:10ABE800FAD5464B464A1A600A680192019AD40778
:10ABF800FAD5444A1A600A680292029AD007FAD52E
:10AC0800414818600A680392039AD207FAD53F4A66
:10AC18001A600A680492049AD407FAD53C4A1A6062
:10AC28000A680592059AD207FAD53A4A1A600A685C
:10AC38000692069AD407FAD5374A1A600A68079224
:10AC4800079AD207FAD5354A1A600A680892089A0C
:10AC5800D407FAD5324A1A600A680992099AD207C3
:10AC6800FAD5304A1A600A680A920A9AD407FAD5BD
:10AC78002D4A1A600A680B920B9AD207FAD52B4A0A
:10AC88001A600A680C920C9AD407FAD5284A1A60F6
:10AC98000A680D920D9AD207FAD5264A1A600A68F0
:10ACA8000E920E9AD407FAD5234A1A600A680F92B0
:10ACB8000F9AD207FAD5214A1A600F4B19461C6819
:10ACC8001094109CE407FAD50C4B18600868119092
:10ACD8001198C407FAD51A600A681292129AD00716
:10ACE800FAD5174A1A600A681392139AD207FAD546
:10ACF800144A1A6014B010BDB0B0025080B00250AF
:10AD080080906521000409904096659080806121BB
:10AD180080200821802064900081619000461021E5
:10AD2800008111210041442180202029024610C8B9
:10AD3800008609218020602140212829409665212C
:10AD480040962529594614C810B5504B96B01C4654
:10AD58001A680192019AD207FAD54D4B4D4A1A60EA
:10AD680022680292029AD207FAD54B4A1A604B4AD5
:10AD780042EA804022680392039AD207FAD5186003
:10AD880022680492049AD007FAD5454A1A60A2F5B7
:10AD9800800242EA814122680592059AD207FAD5D3
:10ADA800196022680692069AD007FAD53D4A1A60B9
:10ADB80022680792079AD107FAD53B4A1A60226897
:10ADC8000892089AD207FAD5384A1A602268099276
:10ADD800099AD007FAD5364A1A6022680A920A9A5E
:10ADE800D107FAD5334A1A6022680B920B9AD20718
:10ADF800FAD5314A1A6022680C920C9AD007FAD513
:10AE08002E4A1A6022680D920D9AD107FAD52C4A5B
:10AE18001A6022680E920E9AD207FAD5294A1A6049
:10AE280022680F920F9AD007FAD5274A1A6021682C
:10AE380010911099C907FAD51A60144B1A46196867
:10AE480011911199C807FAD5114B20491960116859
:10AE580012911299C907FAD51D4919601168139101
:10AE68001399CC07FAD50B491960116814911499F4
:10AE7800C807FAD517491960116815911599C907B6
:10AE8800FAD5154A1A6016B010BD00BFB0B002500E
:10AE980080B002504004419000862929D81001C88A
:10AEA80040144190401421294014652100344090F9
:10AEB80000310C90C0400C90C030202940960D9075
:10AEC80000416090031645C80086112100416021A9
:10AED800594644C84014459040142D9070B52648F2
:10AEE80088B0054604680094009CE607FAD5234814
:10AEF800234C0460234C44EA83432C680194019C4E
:10AF0800E407FAD50360930143EA824242F0104411
:10AF180044F4C0442B680293029BDE07FAD5046010
:10AF28002B680393039BDB07FAD5174B03608B0150
:10AF380043EA814141F0104343F4C0432E6804962C
:10AF4800049EF607FAD503602B680593059BDE0778
:10AF5800FAD5046041F058412B680693069BDC073C
:10AF6800FAD5016042F058422B680793079BDB072C
:10AF7800FAD5026008B070BDB0B0025080B002507F
:10AF8800C0210229807100988061189000B5374B64
:10AF98008FB019461A680092009AD207FAD5344B36
:10AFA800344A1A600A680192019AD007FAD5324ADF
:10AFB8001A600A680292029AD207FAD52F4A1A60D2
:10AFC8000A680392039AD007FAD52D4A1A600A68CC
:10AFD8000492049AD207FAD52A4A1A600A68059296
:10AFE800059AD007FAD5284A1A600A680692069A7E
:10AFF800D207FAD5254A1A600A680792079AD00735
:10B00800FAD5234A1A600A680892089AD207FAD52C
:10B01800204A1A600A680992099AD007FAD51E4A86
:10B028001A600A680A920A9AD207FAD51B4A1A6065
:10B0380008680B900B98C007FAD51A600A680C923A
:10B048000C9AD007FAD5164A1A600A680D920D9A1A
:10B05800D207FAD5134A1A600E210D230F220020B9
:10B06800FFF73CFF0FB05DF804FB00BFB0B0025023
:10B0780080B0025080430129406339218070012942
:10B088008020542100D13490C0403490C030202911
:10B09800C0530D9000413890832308C880E31021E5
:10B0A80000413821CF4308C82DE9F04192B001236F
:10B0B80003930493624B1D461A680592059AD207BA
:10B0C800FAD5604C604B2360604B19461A680692AB
:10B0D800069AD707FAD55E4B1A68D60400F1A880FD
:10B0E8002A680792079AD007FAD55A4A22600A684E
:10B0F8000892089AD207FAD51E68C6F30036002EC1
:10B1080040F098801220FFF7D7F807461320FFF782
:10B11800D3F887428CBF12201320FFF7CDF8471EC3
:10B12800FFF734FF03AB01AA39461220FFF70AF9EB
:10B1380004AB804602AA39461320FFF703F900EB57
:10B148004800022832D003283ED0012874D12B6849
:10B158000993099BDB07FAD53F4B23602B680A93B9
:10B168000A9BD807FAD53D4B23602B680F930F9B9A
:10B17800D907FAD53A4B23602B681093109BDA074E
:10B18800FAD5384B23602B681193119BDB07FAD54E
:10B19800354B2360013F25D51023192218210020A3
:10B1A800FFF79CFE304612B0BDE8F0812B680B9388
:10B1B8000B9BD907FAD52D4B23602B680C930C9B5E
:10B1C800DA07FAD52A4BCFE72B680D930D9BDB07DF
:10B1D800FAD5284B23602B680E930E9BD807FAD517
:10B1E800254BC1E703AB01AA39461220FFF7AAF89D
:10B1F80004AB044602AA39461320FFF7A3F810EB64
:10B20800440402D1FFF70EFCC4E7FFF7E1FC022C6F
:10B2180008D0032C09D0012C10D117211620FFF7D4
:10B2280093FDB7E715211420F9E70F210E20F6E763
:10B23800124EB7E7124EB5E7124EB3E7124EB1E71A
:10B24800B0B0025080B0025000084A51B4B0025069
:10B2580088B0025000084E5100065A4940065E491F
:10B26800000442410014424940042E490006524954
:10B278004006564900063A4940063E490608F1008C
:10B288000708F1000408F1000508F100014B1860F7
:10B29800704700BF08BA0250014B1860704700BFE2
:10B2A80004BA0250094BC2431A60043B82B01B68BF
:10B2B8000193074B019A104204D0064A106018689F
:10B2C80002B0704720BF1A680192F3E704BA02502F
:10B2D800FC00002008BA0250054B4FF0FF321A60FC
:10B2E80053F8042C034B1A601A68034B1A60704712
:10B2F80004BA0250FC00002008BA025084B003903F
:10B3080002910192029B039A12689B1A002B02DC9D
:10B318006FF05F03ACE0039B1B681B785BB2002BEC
:10B3280009DB039B1B68591C039A11601B781A469A
:10B33800019B1A6090E0039B1B681B7803F07F0356
:10B34800013B032B00F2858001A252F823F000BFD5
:10B3580069B30F0095B30F00CBB30F000DB40F0006
:10B36800029B039A12689B1A012B02DC6FF05F03A1
:10B378007EE0039B1B6801331B781A46019B1A6009
:10B38800039B1B689A1C039B1A6065E0029B039A47
:10B3980012689B1A022B02DC6FF05F0368E0039BC4
:10B3A8001B6801331B781B02039A12680232127859
:10B3B8001A43019B1A60039B1B68DA1C039B1A60E3
:10B3C8004AE0029B039A12689B1A032B02DC6FF077
:10B3D8005F034DE0039B1B6801331B781A04039B32
:10B3E8001B6802331B781B021343039A126803324B
:10B3F80012781A43019B1A60039B1B681A1D039B52
:10B408001A6029E0029B039A12689B1A042B02DC3B
:10B418006FF05F032CE0039B1B6801331B781A064F
:10B42800039B1B6802331B781B041A43039B1B688E
:10B4380003331B781B021343039A126804321278F1
:10B448001A43019B1A60039B1B685A1D039B1A60D1
:10B4580002E06FF063030BE0019B1B68029A0399FB
:10B468000968521A934202D96FF05F0300E0002383
:10B47800184604B0704700BF00B585B0039002912C
:10B4880001920093029B039A12689B1A002B02DC1C
:10B498006FF05F0314E0039B1B681B781A46009B40
:10B4A800934202D06FF061030AE0039B1B685A1CA9
:10B4B800039B1A60019A02990398FFF71FFF03463E
:10B4C800184605B05DF804FB8AB00390029101921A
:10B4D800009300230793079B0893089B09936FE049
:10B4E8000023069305E0099B01330993069B01336A
:10B4F8000693099A0A9B9A4205D2009A099B13441B
:10B508001B78202BEFD0099A0A9B9A425DD00A9AA1
:10B51800099BD31A012B0CD9009A099B13441B7859
:10B528000D2B06D1099B0133009A13441B780A2B73
:10B5380040D0009A099B13441B780A2B3CD0069BE9
:10B54800002B02D06FF02B03D0E0009A099B134424
:10B558001B783D2B08D1079B01330793079B022BD0
:10B5680002D96FF02B03C1E0009A099B13441B78A2
:10B578005BB2002B08DB009A099B13441B781A4620
:10B588005C4B9B5C7F2B02D16FF02B03AEE0009AE3
:10B59800099B13441B781A46564B9B5C3F2B05D8D6
:10B5A800079B002B02D06FF02B039FE0089B013311
:10B5B800089302E000BF00E000BF099B0133099334
:10B5C800099A0A9B9A428BD300E000BF089B002B84
:10B5D80004D1019B00221A60002387E0089BDA0847
:10B5E80013465B0013445B001946089B03F00702EF
:10B5F80013465B0013445B000733DB080B440893D6
:10B60800089A079BD31A0893039B002B03D0029A2E
:10B61800089B9A4205D2019B089A1A606FF0290389
:10B6280064E00323079300230693069B0893039B78
:10B63800059351E0009B1B780D2B46D0009B1B788F
:10B648000A2B42D0009B1B78202B3ED0009B1B78F6
:10B658001A46284B9B5C402B0CBF01230023DBB20E
:10B668001A46079B9B1A0793069B9A01009B1B7817
:10B678001946204B5B5C03F03F0313430693089B7A
:10B6880001330893089B042B20D100230893079BC0
:10B69800002B06D0069B190C059B5A1C0592CAB2B2
:10B6A8001A70079B012B06D9069B190A059B5A1C81
:10B6B8000592CAB21A70079B022B07D9059B5A1C20
:10B6C8000592069AD2B21A7000E000BF099B013BAE
:10B6D8000993009B01330093099B002BAAD1059A7B
:10B6E800039BD31A1A46019B1A60002318460AB016
:10B6F800704700BFFCBB0F0092B370B4134640EA1A
:10B70800010212F0030F17D05A1E10D004780B78DC
:10B718009C420CD1431C4C1C0244184621469342BF
:10B7280005D00133013406780D78AE42F5D00078A3
:10B738000B78C01A70BC70470F2BE5D904680A68EB
:10B748009442E1D1041D0A1D20461146043B042BF6
:10B75800DAD90434043206680D68AE42F4D0D3E76F
:10B768000020704770B40E78D6B1037833B9002042
:10B7780016E01B78A3B110F8013F83B10378002BC2
:10B78800F9D09E42F7D105464B1C15F8012F002A27
:10B79800EFD013F8014B1CB1A242F6D0EBE7002022
:10B7A80070BC7047844640EA010313F0030F18D1B8
:10B7B8008446202A0BD32DE9F007B1E8F807A0E862
:10B7C800F807A2F12002202AF7D2BDE8F007042AE0
:10B7D80007D351F8043B40F8043BA2F10402042AC1
:10B7E800F7D2002A05D011F8013B00F8013B013AD5
:10B7F800F9D1604670478446002A2DD010F0030F17
:10B8080004D000F8011B013A26D0F7E7C9B241EA93
:10B81800012141EA0141202A12D3A2F120022DE997
:10B82800F0030B460C460D460E460F4688468946E1
:10B83800A0E8FA03203AFBD2BDE8F00320320BD08F
:10B84800042A05D340F8041B043A05D0042AF9D287
:0CB8580000F8011B013AFBD1604670476C
:08B864009D870F00D1870F0042
:10B86C004800000000204000000000000D860F0082
:10B87C0033860F00D5860F0020000000000000006A
:10B88C000000000040414652544F5300000000009D
:10B89C00000000000338FDD8704700002D2D2D2D21
:10B8AC002D424547494E2043455254494649434150
:10B8BC0054452D2D2D2D2D0A4D49494256544342A8
:10B8CC002F6141444167454341676B416B79786D0A
:10B8DC004C4737634C574577436759494B6F5A4927
:10B8EC007A6A304541774977486A45634D426F47DC
:10B8FC0041315545417777540A596D68685A32463B
:10B90C003259584A4159573168656D39754C6D4EED
:10B91C007662544165467730784F4445784D6A6776
:10B92C00774D44517A4D6A4661467730784F54458D
:10B93C00784D6A67774D44517A0A4D6A46614D429B
:10B94C0034784844416142674E5642414D4D453230
:10B95C004A6F59576468646D467951474674595813
:10B96C0070766269356A6232307757544154426757
:10B97C006371686B6A4F505149420A42676771683C
:10B98C006B6A4F50514D4242774E4341415476427F
:10B99C00784F6B596E56475933564976506E6173D2
:10B9AC0063687445365531774459506E4D6B52303F
:10B9BC00642B485A414177737465470A5853304792
:10B9CC0058654D743035572B6E4B6A49515851326E
:10B9DC0050624944452F3832486733734E6B4D4F94
:10B9EC00666B6C536F795177496A414C42674E567E
:10B9FC004851384542414D43423441770A457759C5
:10BA0C00445652306C42417777436759494B7759CA
:10BA1C00424251554841774D77436759494B6F5ACC
:10BA2C00497A6A30454177494452774177524149C6
:10BA3C0067466830713854686D775369330A5969B1
:10BA4C00677039494B3057764F384B6E4C4E4473B8
:10BA5C00477755313155306D62426B4351434946FE
:10BA6C003736583679714C4547436F386776566E82
:10BA7C00345A5657476D486553496D6D4D6B0A5294
:10BA8C003450316E5035754B5371760A2D2D2D2D4A
:10BA9C002D454E4420434552544946494341544553
:10BAAC002D2D2D2D2D0A000006072A8648CE3D028D
:10BABC000106082A8648CE3D030107002D2D2D2DA9
:10BACC002D424547494E204345525449464943412E
:10BADC0054452D2D2D2D2D002D2D2D2D2D454E4428
:10BAEC002043455254494649434154452D2D2D2D53
:10BAFC002D000000FFFFFFFFFFFFFFFFFFFFFFFF19
:10BB0C000000000000000000000000000100000028
:10BB1C00FFFFFFFFFCFFFFFFFFFFFFFFFFFFFFFF2C
:10BB2C000000000000000000000000000100000008
:10BB3C00FFFFFFFF512563FCC2CAB9F3849E17A710
:10BB4C00ADFAE6BCFFFFFFFFFFFFFFFF00000000A8
:10BB5C00FFFFFFFF0000000096C298D84539A1F402
:10BB6C00A033EB2D817D0377F240A463E5E6BCF8AE
:10BB7C0047422CE1F2D1176BF551BF376840B6CB79
:10BB8C00CE5E316B5733CE2B169E0F7C4AEBE78E75
:10BB9C009B7F1AFEE242E34FFFFFFFFF7F00000096
:10BBAC00800000000000000000000000FFFFFFFF0D
:10BBBC007F0000008000000000000000000000007A
:10BBCC00020000000000000055A00F008DA00F0027
:10BBDC0067E6096A85AE67BB72F36E3C3AF54FA512
:10BBEC007F520E518C68059BABD9831F19CDE05B3E
:10BBFC007F7F7F7F7F7F7F7F7F7F7F7F7F7F7F7F49
:10BC0C007F7F7F7F7F7F7F7F7F7F7F7F7F7F7F7F38
:10BC1C007F7F7F7F7F7F7F7F7F7F7F3E7F7F7F3FA9
:10BC2C003435363738393A3B3C3D7F7F7F407F7F18
:10BC3C007F000102030405060708090A0B0C0D0E10
:10BC4C000F101112131415161718197F7F7F7F7F91
:10BC5C007F1A1B1C1D1E1F2021222324252627286A
:10BC6C00292A2B2C2D2E2F303132337F7F7F7F7F53
:04BC7C000090D00361
:020000020000FC
:020000041000EA
:0410140000800F0049
:04000003F00083790D
:00000001FF
