:020000040000FA
:10000000F0650120A9020000E90200008D02000055
:10001000ED020000EF020000F1020000000000000D
:10002000000000000000000000000000CD01000002
:10003000F502000000000000290200002D4500002C
:10004000FB020000FB020000FB020000FB020000BC
:10005000FB020000FB020000FB020000FB020000AC
:10006000FB020000FB020000FB020000FB0200009C
:10007000FB020000FB020000FB020000FB0200008C
:10008000FB020000FB020000FB020000FB0200007C
:10009000FB020000FB020000FB020000FB0200006C
:1000A000FB020000FB020000FB020000FB0200005C
:1000B000FB020000FB020000FB020000FB0200004C
:1000C000FB020000FB020000FB020000FB0200003C
:1000D000FB020000F38C0000FB020000FB020000AA
:1000E000FB020000FB020000FB020000FB0200001C
:1000F000FB020000FB020000FB020000FB0200000C
:10010000FB020000FB020000FB020000FB020000FB
:10011000FB020000FB020000FB020000FB020000EB
:10012000FB020000FB020000FB020000FB020000DB
:10013000FB020000FB020000FB020000FB020000CB
:10014000FB020000FB020000FB020000FB020000BB
:10015000FB020000FB020000FB020000550500004E
:10016000FB020000FB020000FB020000FB0200009B
:10017000FB020000FB020000FB020000FB0200008B
:10018000FB020000FB020000FB020000FB0200007B
:10019000FB020000FB020000FB020000FB0200006B
:1001A000FB020000FB020000FB020000FB0200005B
:1001B000FB020000FB020000DFF80CD02EF004F977
:1001C00000480047E7070000F06501202C4B196844
:1001D0000868B0E8F04F80F30988BFF36F8F4FF0E5
:1001E000000080F311887047000000000848006894
:1001F000006880F308884FF0000080F3148862B62E
:1002000061B6BFF34F8FBFF36F8F00DF00BF00BF3A
:1002100008ED00E0DFF80C00016841F470010160B6
:10022000704700BF88ED00E0EFF30980BFF36F8FE8
:10023000134B1A681EF0100F08BF20ED108A20E93A
:10024000F04F106009B44FF0500080F31188BFF3F5
:100250004F8FBFF36F8F02F035FC4FF0000080F33B
:10026000118809BC19680868B0E8F04F1EF0100F3B
:1002700008BFB0EC108A80F30988BFF36F8F704716
:100280004C000020EFF30580704700000420714609
:10029000084202D0EFF3098001E0EFF308807146D5
:1002A000004A1047DB48000014484FF05901016034
:1002B0004FF0160101604FF088010160104841685D
:1002C00041F4804141600F48416841F002014160C2
:1002D000416841F0040141600B48804707484FF0F6
:1002E0000001016009480047FEE7FEE7FEE7FEE780
:1002F000FEE7FEE7FEE7FEE7FEE7FEE7000100405F
:1003000000020040007000405B030000B9010000E3
:1003100070B504F0ECFC3E4908603E48006800F00F
:100320000705022D02D10846046802E03A4850F859
:10033000254038481030006800F00F00461CB4FB20
:10034000F6F0364908600846006835490844490017
:10035000B0FBF1F03349086070BD10B53248006859
:1003600040F47000304908603048C06C20F00F0045
:1003700040F008002D49C8640E2004F08AFB0E20CE
:1003800006F093FB2A48406840F002002849486084
:100390000846406840F00400486000BF24484068B8
:1003A000C0F380000028F9D01A488830006840F473
:1003B00080204FF08041C1F898020846D0F808022A
:1003C00040F00200C1F808021A48D0F8040100F019
:1003D000F7301849C1F804010846D0F8080100F0C8
:1003E000F730C1F808018804D0F8080220F00200B4
:1003F00008490839086000BF4FF04020D0F840019C
:1004000020F0F0004FF04021C1F8400100BF10BDC6
:1004100008000020100200400C0000200000002016
:1004200020A107000400002088ED00E000C000408B
:1004300000700040001004402DE9F04140F20367D5
:1004400040F29F5800BF00F015F90446BC42FAD8AC
:100450004445F8D3904800684609A64201D30125D7
:1004600000E000258D488E49096850F821008A492E
:100470000968081A8849086008460068204408602E
:1004800086488749096840F8214085490968481C21
:10049000C11700EBD1614911A0EB4111804A1160F5
:1004A0002846BDE8F08170B500251F2404E0FFF761
:1004B000C3FFA0400543641E002CF8DA284670BD37
:1004C00010B57848007800B110BD7748006840F05A
:1004D00080504FF08041C1F808020846D0F8200251
:1004E00020F47F00C1F820020846D0F8200240F432
:1004F000A0206D4918310860C1206C49086500BF13
:100500006B48006800F001000028F9D04FF0E0418E
:1005100067485038016000205F49086000240DE002
:1005200000F0A8F85D4941F82400084650F824007E
:1005300059490968084458490860641C202CEFDBBD
:10054000002057490860012056490870FFF7ABFFAB
:1005500000BFB9E75748406800F4803030B101204F
:10056000554908600004534948600AE05148406812
:1005700000F0030028B101205049086003204D49D4
:100580004860704770B50446254600BF00BF00BFF5
:1005900059204B49086016208905C1F800018820C0
:1005A000C1F80001C006D0F800010028F0D000BF5B
:1005B0000C2004F06EFA00BF00204149086000BF23
:1005C000472000F01F02012191404209920002F1F0
:1005D000E022C2F8001100BF3648006840F48030C5
:1005E00034490860FFF75FFF0646334601220321C6
:1005F000304804F0D9FD2F4804F0DEFD00BF2E483E
:1006000000680028FBD029462A4804F0DAFD294872
:10061000006820F480302749086070BD2DE9F04162
:1006200088B080460D4614461F460026FFF748FF57
:1006300005E02846FFF7A6FF20352036203C202C79
:10064000F7D244B16846FFF79DFF22466946284627
:100650002DF0ECF926443E60002008B0BDE8F081A2
:1006600000B589B0FFF72CFF01A8FFF78BFF0198B9
:1006700009B000BD4FF480300C49486500BF0C48FC
:100680001C38006800F001000028F8D00748006C12
:10069000C0F30B0070470000340000200C03002062
:1006A000380000203C0000200802004000300440D8
:1006B00010310440000008502C00002030000020C1
:1006C0000001004008B502F01FFC009099A02EF038
:1006D000BDF800BF41F28831684602F058F802F0D8
:1006E00013FC044621469AA02EF0B0F8012002F037
:1006F000B2F8EFE710B500BF00BF00BF592099491D
:10070000086016208905C1F800018820C1F80001A1
:10071000C006D0F800010028F0D000BF9248006861
:1007200020F0F0004FF04021C1F84001012004F01A
:1007300045FC012004F08CFA8C4804F0E5FB112004
:100740008B4908608B4804F0A4F98B4804F0A1F9A8
:1007500000221146874804F066F94FF4FC0200219C
:10076000854804F060F9FFF7D3FD4FF08040C06B7F
:1007700020F47F004FF08041C8630846C06B40F40E
:10078000CC00C8630846006B40F04C500863084634
:10079000006C40F04C5008640846406C40F0030088
:1007A00048640846406D754908434FF080414865EC
:1007B0004FF0A8704FF04021C1F8280100BF002081
:1007C0006849086000BF4FF4E1316D4806F0EAF96E
:1007D00010BD10B5192200214FF4E17006F028FC7D
:1007E000FFF788FF10BD1CB5FFF7F3FF65A02EF0E3
:1007F0002DF80020032103465A22CDE9001066A1FE
:10080000674801F084FD06F054FE66A02EF01EF845
:1008100002F01CFB00201CBD10B586B0002001902A
:1008200007F0DEFE04461CB964A02EF00FF808E0C5
:100830006EA02EF00BF84FF47A7002F00CF800BFA7
:10084000FEE774A0029009208DF80C0074A00490BB
:1008500009208DF8140003208DF8150000208DF874
:10086000160002A807F0F1FE0446002C13D16FA079
:100870002DF0ECFF01A807F0D9FF04465CB99DF804
:10088000070000909DF806309DF805209DF80410A3
:1008900076A02DF0DBFF06B010BD10B511F098FA70
:1008A000012803D1FFF7B8FF06F0A0FB10BD2DE92A
:1008B000FC4104460D464FF47A760020019027460D
:1008C000009500BF2A46214671A02DF0BFFF00BF52
:1008D000502080F31188BFF34F8FBFF36F8F00BF9D
:1008E00003E04FF47A7001F0B6FF01980028F8D0C9
:1008F000002080F3118800BFBDE8FC8170B50124A1
:100900004FF47A7502F000FB6749086008460068FA
:1009100066490968401AB0F57A7F03D962480068D1
:100920006249086070BD62480068401C6049086008
:1009300070470000436865636B205461736B2069E6
:10094000732072756E6E696E67202E2E2E0A00005F
:10095000436865636B2064656C6179202E2E2E25BB
:10096000640A0000000100404041004000B0710BEB
:1009700034020040103D805705FE0B003333030066
:10098000000007404672656552544F535F49504915
:100990006E69740A00000000436865636B00000024
:1009A000C5060000765461736B53746172745363AF
:1009B000686564756C65720A0000000057692D4611
:1009C00069206D6F64756C6520696E697469616C0E
:1009D000697A65642E20436F6E6E656374696E6715
:1009E00020746F2041502E2E2E0D0A0057692D467F
:1009F00069206D6F64756C65206661696C65642043
:100A0000746F20696E697469616C697A652E0D0A6C
:100A1000000000004141415F415355530000000078
:100A20003171617A327773780000000057692D4682
:100A30006920436F6E6E656374656420746F204136
:100A4000502E204372656174696E67207461736B08
:100A50007320776869636820757365206E657477A5
:100A60006F726B2E2E2E0D0A00000000495020419F
:100A70006464726573732061637175697265642063
:100A800025642E25642E25642E25640D0A000000A1
:100A90007641737365727443616C6C656420257371
:100AA0002C20256C640A0000400000204400002037
:100AB0004800002038B5054655B900BF502080F3E6
:100AC0001188BFF34F8FBFF36F8F00BF00BFFEE7EA
:100AD000202000900098202801D1012000E0002073
:100AE00050B900BF502080F31188BFF34F8FBFF380
:100AF0006F8F00BF00BFFEE72C4634B1002020609E
:100B0000201D00F043FA01202077204638BD10B5A3
:100B1000202003F0CCFD044634B100202060201DCD
:100B200000F034FA00202077204610BD2DE9FE4F5A
:100B300007468846002001903C46009057B900BF08
:100B4000502080F31188BFF34F8FBFF36F8F00BF2A
:100B500000BFFEE708F07F4008B9012000E0002058
:100B600050B900BF502080F31188BFF34F8FBFF3FF
:100B70006F8F00BF00BFFEE704F1040909F1080010
:100B8000029001F0FEFDD9F80C60206840EA0800F0
:100B9000206026E0D6F804B035680020009005F00B
:100BA0007F4A25F07F450AF0806028B920682840F8
:100BB00040B10120009005E020682840A84201D102
:100BC00001200090009858B10AF0807010B101988F
:100BD00028430190206840F00071304602F054FB39
:100BE0005E4602988642D5D12068019988432060EC
:100BF00001F019FD2068BDE8FE8F2DE9F84F83460E
:100C0000884614461F465D460020009004F07F4051
:100C100008B9012000E0002050B900BF502080F347
:100C20001188BFF34F8FBFF36F8F00BF00BFFEE788
:100C30000CB1012000E0002050B900BF502080F32B
:100C40001188BFF34F8FBFF36F8F00BF00BFFEE768
:100C500002F0D5FB00B90FB9012000E0002050B927
:100C600000BF502080F31188BFF34F8FBFF36F8F09
:100C700000BF00BFFEE701F084FDD5F800904146BB
:100C80005846FFF753FF49EA08002040A04206D12A
:100C900049EA08062868A043286000270BE03FB116
:100CA00044F0A0613A46281D02F037FA002602E01F
:100CB0002E680120009001F0B6FC824607B3BAF11D
:100CC000000F07D14FF08050AF490860BFF34F8F3E
:100CD000BFF36F8F02F0DFFC064606F0007068B9C4
:100CE00003F0E1FB2E6806EA0400A04202D1286866
:100CF000A043286003F0FEFB0120009026F07F4611
:100D00003046BDE8F88F10B50346002022B903EA4B
:100D1000010434B1012004E003EA01048C4200D153
:100D2000012010BD2DE9FF4F83B081460D461746C7
:100D3000DDF840804C464FF0000A00200190B9F1E8
:100D4000000F0AD100BF502080F31188BFF34F8FEE
:100D5000BFF36F8F00BF00BFFEE705F07F4008B90B
:100D6000012000E0002050B900BF502080F311881E
:100D7000BFF34F8FBFF36F8F00BF00BFFEE70DB112
:100D8000012000E0002050B900BF502080F31188FE
:100D9000BFF34F8FBFF36F8F00BF00BFFEE702F0BE
:100DA0002EFB10B9B8F1000F01D1012000E00020A6
:100DB00050B900BF502080F31188BFF34F8FBFF3AD
:100DC0006F8F00BF00BFFEE701F0DBFC20680090E2
:100DD0002946069A0098FFF796FF0290029838B1CC
:100DE000009E4FF00008C7B12068A843206014E0BF
:100DF000B8F1000F03D1009E012001900DE00FB16A
:100E00004AF0807A069808B14AF0806A45EA0A01F9
:100E10004246201D02F081F9002601F004FC8346C1
:100E2000B8F1000F23D0BBF1000F07D14FF0805075
:100E300055490860BFF34F8FBFF36F8F02F02BFC53
:100E4000064606F0007080B903F02DFB266829469F
:100E50003046069AFFF757FF18B117B12068A8432C
:100E600020600120019003F045FB26F07F463046CC
:100E700007B0BDE8F08F2DE9F04105460E462C463F
:100E800055B900BF502080F31188BFF34F8FBFF3D7
:100E90006F8F00BF00BFFEE706F07F4008B901205A
:100EA00000E0002050B900BF502080F31188BFF34C
:100EB0004F8FBFF36F8F00BF00BFFEE703F0F3FA61
:100EC00027682068B043206003F014FB3846BDE873
:100ED000F08170B501460B4600BF5025EFF311803D
:100EE00085F31188BFF34F8FBFF36F8F00BF0246AA
:100EF0001C68104680F3118800BF204670BD70B595
:100F000005462E46341D01F03CFC18E004F10800B3
:100F1000E168814201D0012000E0002050B900BF0B
:100F2000502080F31188BFF34F8FBFF36F8F00BF46
:100F300000BFFEE74FF00071E06802F0A5F92068FD
:100F40000028E3D1307F10B9304603F049FC01F0AE
:100F50006AFB70BD70B504460D4629462046FFF772
:100F6000E5FD70BD70B504460D4629462046FFF7E5
:100F700082FF70BD01460A4609B9002000E0906971
:100F8000704781617047000004ED00E000F1080146
:100F900041604FF0FF31816000F10801C1600161E3
:100FA00000210160704700210161704742684A607A
:100FB00093688B60936859609160086103685B1C5B
:100FC0000360704710B502460B685C1C0CB91069D1
:100FD00007E002F1080000E04068446824689C4291
:100FE000FAD944684C604C68A160886041600A612D
:100FF0001468641C146010BD01460A69D1E901300F
:101000009860D1E9010358605068884201D188682E
:101010005060002008611068401E10601068704722
:1010200070B505460E462C4654B900BF502080F3DB
:101030001188BFF34F8FBFF36F8F00BF00BFFEE774
:1010400003F031FAD4E90F12206801FB0200A0601E
:101050000020A06320686060E06B401E226C216865
:1010600000FB0211E160FF2084F8440084F8450091
:101070009EB9206908B9012000E00020A8B904F158
:10108000100002F0C1F880B14FF08050FE490860B6
:10109000BFF34F8FBFF36F8F07E004F11000FFF72E
:1010A00075FF04F12400FFF771FF03F023FA01201C
:1010B00070BD2DE9F04106460D4617469846069C40
:1010C0000DB9246000E02760E66325640121204615
:1010D000FFF7A6FF84F84C80BDE8F0812DE9F843C6
:1010E00080460E4617461D46DDF82090B8F1000FE9
:1010F00001D0012000E0002050B900BF502080F353
:101100001188BFF34F8FBFF36F8F00BF00BFFEE7A3
:101110000DB1012000E0002050B900BF502080F345
:101120001188BFF34F8FBFF36F8F00BF00BFFEE783
:1011300007B10EB1012000E0002050B900BF5020DF
:1011400080F31188BFF34F8FBFF36F8F00BF00BFD5
:10115000FEE707B90EB9012000E0002050B900BF3A
:10116000502080F31188BFF34F8FBFF36F8F00BF04
:1011700000BFFEE7502000900098502801D10120C8
:1011800000E0002050B900BF502080F31188BFF369
:101190004F8FBFF36F8F00BF00BFFEE700BF2C462D
:1011A0004CB1012084F846004B463A463146404651
:1011B0000094FFF77EFF2046BDE8F8832DE9F84351
:1011C00005460E4690460DB1012000E0002050B9C2
:1011D00000BF502080F31188BFF34F8FBFF36F8F94
:1011E00000BF00BFFEE70EB9002701E005FB06F7D0
:1011F00007F1500003F05BFA044664B1A14609F11F
:101200005009002084F8460043464A4631462846A5
:101210000094FFF74EFF2046BDE8F88370B5044602
:1012200003F041F994F9455010E0606A08B90120D3
:1012300000E0002038B904F1240001F0E5FF18B106
:1012400002F0CBF800E003E0681E45B2002DECDCB4
:1012500000BFFF2084F8450003F04CF903F023F9A8
:1012600094F9445010E0206908B9012000E0002002
:1012700048B904F1100001F0C7FF08B102F0ADF861
:10128000681E45B200E001E0002DECDC00BFFF204D
:1012900084F8440003F02EF970BD70B5054603F0E4
:1012A00002F9A86BE96B884201D1012400E0002417
:1012B00003F020F9204670BD2DE9F04104460F46A9
:1012C00015464FF00008A66B206C48B9206800282E
:1012D0002CD1A06802F0FCF880460020A06025E038
:1012E0007DB93946226C60682CF0A0FB216C6068E7
:1012F00008446060D4E90101884217D32068606027
:1013000014E03946226CE0682CF090FB216CE06818
:10131000411AE1602168E068884203D2216CA0682C
:10132000411AE160022D01D106B1761E701CA06346
:101330004046BDE8F0812DE9FF4383B0064688466C
:101340001D464FF00009344654B900BF502080F3C9
:101350001188BFF34F8FBFF36F8F00BF00BFFEE751
:10136000B8F1000F01D1206C08B9012000E0002085
:1013700050B900BF502080F31188BFF34F8FBFF3E7
:101380006F8F00BF00BFFEE7022D02D1E06B012886
:1013900001D1012000E0002050B900BF502080F3AF
:1013A0001188BFF34F8FBFF36F8F00BF00BFFEE701
:1013B00002F025F808B9059808B9012000E00020DE
:1013C00050B900BF502080F31188BFF34F8FBFF397
:1013D0006F8F00BF00BFFEE700BF03F064F8A06B93
:1013E000E16B884201D3022D28D12A46414620468E
:1013F000FFF762FF0746606A08B9012000E000209D
:1014000068B904F1240001F0FFFE88B14FF080506C
:101410001D490860BFF34F8FBFF36F8F08E03FB1E6
:101420004FF0805018490860BFF34F8FBFF36F8FA4
:1014300003F060F8012007B0BDE8F083059818B903
:1014400003F058F80020F6E7B9F1000F04D101A825
:1014500001F07AFF4FF0010903F04CF801F091F927
:1014600003F021F894F94400401C10B9002084F8DE
:10147000440094F94500401C10B9002084F8450050
:1014800003F038F805A901E004ED00E001A801F03F
:1014900062FFF0B92046FFF700FFA0B104F1100091
:1014A000059901F020FE2046FFF7B8FE01F0BBF8D9
:1014B000002892D14FF08050FB490860BFF34F8F56
:1014C000BFF36F8F89E72046FFF7A8FE01F0ABF866
:1014D00083E72046FFF7A2FE01F0A5F80020AAE767
:1014E00010B5044654B10020A06020600021E160E6
:1014F00000231A4619462046FFF71DFF10BD2DE9AF
:10150000F041044601260027224600210120FFF772
:1015100055FE05462846FFF7E3FF2846BDE8F08163
:101520002DE9F84304460D4601274FF000082B46ED
:101530000022114601200094FFF7D0FD06463046F8
:10154000FFF7CEFF3046BDE8F88370B505462C4660
:1015500054B900BF502080F31188BFF34F8FBFF301
:101560006F8F00BF00BFFEE701F046FFA168884211
:101570000CD1E068401EE060E06828B900231A46FC
:1015800019462046FFF7D7FE012600E00026304628
:1015900070BD01464A6A22B10A6B1268C2F10700A7
:1015A00000E00020704770B5054602F07CFFA86B94
:1015B00008B9012400E0002402F09CFF204670BD21
:1015C0002DE9F34182B005464FF000082C46002675
:1015D00054B900BF502080F31188BFF34F8FBFF381
:1015E0006F8F00BF00BFFEE7206C08B9012000E04C
:1015F000002050B900BF502080F31188BFF34F8FF7
:10160000BFF36F8F00BF00BFFEE701F0F8FE08B91F
:10161000039808B9012000E0002050B900BF502015
:1016200080F31188BFF34F8FBFF36F8F00BF00BFF0
:10163000FEE700BF02F037FFA76BFFB1781EA06383
:10164000206810B902F033F8A060206908B90120C1
:1016500000E0002060B904F1100001F0D5FD38B1C0
:101660004FF0805090490860BFF34F8FBFF36F8FEA
:1016700002F040FF012004B0BDE8F081039898B962
:101680000EB9012000E0002050B900BF502080F3C7
:101690001188BFF34F8FBFF36F8F00BF00BFFEE70E
:1016A00002F028FF0020E6E7B8F1000F04D16846F9
:1016B00001F04AFE4FF0010802F01CFF01F061F852
:1016C00002F0F1FE94F94400401C10B9002084F8A7
:1016D000440094F94500401C10B9002084F84500EE
:1016E00002F008FF03A9684601F035FE40BB204622
:1016F000FFF759FFF0B1206838B902F0D4FEA068B6
:1017000001F089FE064602F0F5FE04F1240003997B
:1017100001F0E9FC2046FFF781FD00F084FF00287E
:1017200088D14FF0805060490860BFF34F8FBFF3FE
:101730006F8F7FE72046FFF771FD00F074FF79E7B8
:101740002046FFF76BFD00F06EFF2046FFF72BFFF2
:101750000028EED05EB102F0A6FE2046FFF719FF8A
:1017600007463946A06801F011FF02F0C3FE0020D1
:1017700081E72DE9F04106460F46344654B900BFD3
:10178000502080F31188BFF34F8FBFF36F8F00BFDE
:1017900000BFFEE701F030FEA168884204D1E06896
:1017A000401CE060012508E039462046FFF708FFAD
:1017B000054615B1E068401CE0602846BDE8F081B0
:1017C000F8B505460E4617460DB1012000E0002091
:1017D00050B900BF502080F31188BFF34F8FBFF383
:1017E0006F8F00BF00BFFEE7AE4201D8012000E0CE
:1017F000002050B900BF502080F31188BFF34F8FF5
:10180000BFF36F8F00BF00BFFEE702203B46002200
:10181000114600902846FFF761FC044604B1A66318
:101820002046F8BD70B505460E460DB1012000E01A
:10183000002050B900BF502080F31188BFF34F8FB4
:10184000BFF36F8F00BF00BFFEE7AE4201D801209B
:1018500000E0002050B900BF502080F31188BFF392
:101860004F8FBFF36F8F00BF00BFFEE70222002142
:101870002846FFF7A3FC044604B1A663204670BDCA
:101880002DE9F05F07468A4690461E463C466CB9F5
:1018900000BF502080F31188BFF34F8FBFF36F8FCD
:1018A00000BF00BFFEE7000004ED00E0BAF1000F4A
:1018B00001D1206C08B9012000E0002050B900BF20
:1018C000502080F31188BFF34F8FBFF36F8F00BF9D
:1018D00000BFFEE7022E02D1E06B012801D10120FA
:1018E00000E0002050B900BF502080F31188BFF302
:1018F0004F8FBFF36F8F00BF00BFFEE702F02EFED9
:1019000000BF5021EFF3118081F31188BFF34F8F97
:10191000BFF36F8F00BF0546A06BE16B884201D318
:10192000022E23D194F945B0324651462046FFF7A6
:10193000C3FC0BF1010088B9606A08B9012000E01E
:10194000002080B904F1240001F05EFC58B1B8F128
:10195000000F08D00120C8F8000004E00BF10100DE
:1019600040B284F845004FF0010901E04FF0000952
:1019700000BF85F3118800BF4846BDE8F09F2DE900
:10198000F04706460F46344654B900BF502080F356
:101990001188BFF34F8FBFF36F8F00BF00BFFEE70B
:1019A000206C08B9012000E0002050B900BF502091
:1019B00080F31188BFF34F8FBFF36F8F00BF00BF5D
:1019C000FEE7206808B9A06808B9012000E00020FF
:1019D00050B900BF502080F31188BFF34F8FBFF381
:1019E0006F8F00BF00BFFEE702F0B8FD00BF5021BF
:1019F000EFF3118081F31188BFF34F8FBFF36F8F27
:101A000000BF0546D4F83890E06B48451ED994F9DC
:101A100045A009F10100A0630AF1010070B9606AF4
:101A200008B9012000E0002068B904F1240001F0A9
:101A3000EBFB40B13FB10120386004E00AF1010046
:101A400040B284F845004FF0010801E04FF0000873
:101A500000BF85F3118800BF4046BDE8F08770B530
:101A600004460D46206C70B1216CE0680144E160D1
:101A7000D4E90210884201D32168E1602846226C33
:101A8000E1682BF0D3FF70BD2DE9F74183B0054627
:101A90000E464FF000082C4654B900BF502080F38A
:101AA0001188BFF34F8FBFF36F8F00BF00BFFEE7FA
:101AB0000EB9206C08B9012000E0002050B900BF29
:101AC000502080F31188BFF34F8FBFF36F8F00BF9B
:101AD00000BFFEE701F093FC08B9059808B90120A2
:101AE00000E0002050B900BF502080F31188BFF300
:101AF0004F8FBFF36F8F00BF00BFFEE700BF02F044
:101B0000D2FCA76BF7B131462046FFF7A8FF781E3D
:101B1000A063206908B9012000E0002060B904F149
:101B2000100001F071FB38B14FF08050FA490860A5
:101B3000BFF34F8FBFF36F8F02F0DCFC012006B0C4
:101B4000BDE8F081059818B902F0D4FC0020F6E752
:101B5000B8F1000F04D101A801F0F6FB4FF0010825
:101B600002F0C8FC00F00DFE02F09DFC94F9440068
:101B7000401C10B9002084F8440094F94500401C32
:101B800010B9002084F8450002F0B4FC05A901A8B2
:101B900001F0E1FBF0B92046FFF705FDA0B104F12B
:101BA0002400059901F09FFA2046FFF737FB00F06B
:101BB0003AFD0028A3D14FF08050D7490860BFF309
:101BC0004F8FBFF36F8F9AE72046FFF727FB00F098
:101BD0002AFD94E72046FFF721FB00F024FD204674
:101BE000FFF7E1FC00288AD00020A8E72DE9F743A1
:101BF00082B005460E464FF000082C4654B900BF8F
:101C0000502080F31188BFF34F8FBFF36F8F00BF59
:101C100000BFFEE70EB9206C08B9012000E00020EB
:101C200050B900BF502080F31188BFF34F8FBFF32E
:101C30006F8F00BF00BFFEE701F0E1FB08B9049819
:101C400008B9012000E0002050B900BF502080F307
:101C50001188BFF34F8FBFF36F8F00BF00BFFEE748
:101C600000BF02F020FCD4F83890B9F1000F1ED06C
:101C7000E76831462046FFF7F2FEE760606A08B980
:101C8000012000E0002060B904F1240001F0BCFA5A
:101C900038B14FF08050A0490860BFF34F8FBFF3B9
:101CA0006F8F02F027FC012005B0BDE8F083049897
:101CB00018B902F01FFC0020F6E7B8F1000F04D1BC
:101CC000684601F041FB4FF0010802F013FC00F000
:101CD00058FD02F0E8FB94F94400401C10B90020C4
:101CE00084F8440094F94500401C10B9002084F8A1
:101CF000450002F0FFFB04A9684601F02CFBF0B997
:101D00002046FFF750FCA0B104F12400049901F033
:101D1000EAF92046FFF782FA00F085FC0028A0D1FE
:101D20004FF080507C490860BFF34F8FBFF36F8F37
:101D300097E72046FFF772FA00F075FC91E720461E
:101D4000FFF76CFA00F06FFC2046FFF72CFC002830
:101D500087D00020A8E72DE9F05F064689461746A0
:101D6000344654B900BF502080F31188BFF34F8F21
:101D7000BFF36F8F00BF00BFFEE7B9F1000F01D1C5
:101D8000206C08B9012000E0002050B900BF5020AD
:101D900080F31188BFF34F8FBFF36F8F00BF00BF79
:101DA000FEE702F0DBFB00BF5021EFF3118081F36F
:101DB0001188BFF34F8FBFF36F8F00BF0546D4F874
:101DC00038A0BAF1000F22D094F944B04946204619
:101DD000FFF745FEAAF10100A0630BF1010070B905
:101DE000206908B9012000E0002068B904F1100062
:101DF00001F00AFA40B13FB10120386004E00BF174
:101E0000010040B284F844004FF0010801E04FF0B7
:101E1000000800BF85F3118800BF4046BDE8F09F71
:101E20002DE9F04706468846344654B900BF502095
:101E300080F31188BFF34F8FBFF36F8F00BF00BFD8
:101E4000FEE7B8F1000F01D1206C08B9012000E0D5
:101E5000002050B900BF502080F31188BFF34F8F8E
:101E6000BFF36F8F00BF00BFFEE7206C08B10120F9
:101E700000E0002050B900BF502080F31188BFF36C
:101E80004F8FBFF36F8F00BF00BFFEE702F066FB0E
:101E900000BF5021EFF3118081F31188BFF34F8F02
:101EA000BFF36F8F00BF0546A06B48B1D4F80C900C
:101EB00041462046FFF7D3FDC4F80C90012700E00F
:101EC000002700BF85F3118800BF3846BDE8F087C2
:101ED00070B5044654B900BF502080F31188BFF399
:101EE0004F8FBFF36F8F00BF00BFFEE702F0DBFA3A
:101EF000A56B02F0FFFA284670BD70B50446254672
:101F000065B900BF502080F31188BFF34F8FBFF336
:101F10006F8F00BF00BFFEE704ED00E002F0C3FAE0
:101F2000D5E90E10461A02F0E5FA304670BD10B53C
:101F300001460A4652B900BF502383F31188BFF30C
:101F40004F8FBFF36F8F00BF00BFFEE7906B10BDD8
:101F5000014600200EE0564A02EBC00252688A4257
:101F600007D10022524B43F8302003EBC0035A60E4
:101F700002E0401C0828EED300BF704770B504464D
:101F8000254655B900BF502080F31188BFF34F8F0D
:101F9000BFF36F8F00BF00BFFEE72846FFF7D8FFF3
:101FA00095F8460010B9284602F01AFC70BD0146AB
:101FB000886C704781647047014691F84C00704707
:101FC00010B501460A4652B900BF502383F3118869
:101FD000BFF34F8FBFF36F8F00BF00BFFEE7936B60
:101FE0000BB9012000E0002010BD10B501460A46E3
:101FF00052B900BF502383F31188BFF34F8FBFF353
:102000006F8F00BF00BFFEE7936BD46BA34201D17B
:10201000012000E0002010BD024600200BE0244B10
:1020200053F8303033B9224B43F8301003EBC00380
:102030005A6002E0401C0828F1D300BF70470246F6
:10204000002000210AE01A4B03EBC1035B689342B6
:1020500003D1174B53F8310002E0491C0829F2D391
:1020600000BF70472DE9F04105460E4617462C4645
:1020700002F019FA94F94400401C10B9002084F8C9
:10208000440094F94500401C10B9002084F8450034
:1020900002F030FAA06B28B93A46314604F1240028
:1020A00001F094F82046FFF7B9F8BDE8F081000090
:1020B0008C03002010B5002407E004EB8401F94AEA
:1020C00002EB8100FEF762FF641C072CF5D3F64893
:1020D000FEF75CFFF548FEF759FFF548FEF756FF9F
:1020E000F448FEF753FFF448FEF750FFEE48F3497B
:1020F0000860EE48F249086010BD10B5044602F0D1
:10210000D2F9F0480068401CEE490860EE480068CB
:1021100040B9ED4804600846006801280DD1FFF77A
:10212000C9FF0AE0E948006838B9E7480068C06AB2
:10213000E16A884201D8E4480460E5480068401C30
:10214000E349086008460068606494F82C10012098
:102150008840E04909680843DE490860E16A01EB0C
:102160008101D04A02EB8100211DFEF71FFF02F022
:10217000C1F9D648006868B1D3480068C06AE16A0E
:10218000884207D24FF08050D3490860BFF34F8F89
:10219000BFF36F8F10BD2DE9F05F82460E4690466B
:1021A0009B460A9F0C9C4FEA8801A522206B2BF0CE
:1021B0005DFCA8F10100216B01EB800929F0070902
:1021C00009F0070008B9012000E0002050B900BF65
:1021D000502080F31188BFF34F8FBFF36F8F00BF84
:1021E00000BFFEE786B1002507E0715D04F1340011
:1021F0004155705D00B902E06D1C102DF5D300BF94
:1022000000214320015502E0002084F83400072F0C
:1022100000D30627E762E76400202065201DFEF753
:10222000C2FE04F11800FEF7BEFE2461C7F10700EC
:10223000A06164620020606584F858005A465146E7
:10224000484602F051F820600B9808B10B980460E2
:10225000BDE8F09F2DE9F04F85B0074688469146CE
:102260009A46DDE90EB6109C0EB1012000E0002078
:1022700050B900BF502080F31188BFF34F8FBFF3D8
:102280006F8F00BF00BFFEE70CB1012000E000200F
:1022900050B900BF502080F31188BFF34F8FBFF3B8
:1022A0006F8F00BF00BFFEE75C20039003985C289F
:1022B00001D1012000E0002050B900BF502080F380
:1022C0001188BFF34F8FBFF36F8F00BF00BFFEE7D2
:1022D00000BFB4B1AEB125462C462E63022085F86E
:1022E0005900002004A953464A46CDE900B1CDE982
:1022F000025041463846FFF74EFF2846FFF7FDFEE5
:1023000001E000200490049805B0BDE8F08F2DE9AD
:10231000FF4F85B0804689461746DDE912ABB8000D
:1023200002F0C5F9064656B15C2002F0C0F9044639
:102330000CB1266304E0304602F052FA00E00024BB
:102340008CB1002084F85900CDE900ABCDE9024002
:102350003A4649464046089BFFF71DFF2046FFF7D7
:10236000CCFE012501E04FF0FF35284609B0BDE85D
:10237000F08F52490968096809B9012100E000217C
:1023800021B14FF0FF31554A116006E04B49096811
:10239000C968C868514A41681160704710B5044661
:1023A00094F8590030B9206B02F01AFA204602F076
:1023B00017FA1AE094F85900012803D1204602F0D8
:1023C0000FFA12E094F85900022801D1012000E030
:1023D000002050B900BF502080F31188BFF34F8F09
:1023E000BFF36F8F00BF00BFFEE710BD70B505469D
:1023F00002F059F815B93448006800E02846044650
:10240000201DFEF7F9FD78B9E06A00EB8000254950
:1024100051F8200040B994F82C10012088402D4933
:10242000096881432B480160A06A18B104F11800C3
:10243000FEF7E2FD26480068401C25490860224856
:102440000068844209D1211D1A48FEF7AFFD2448D7
:102450000068401C2249086009E01A480068401ED4
:10246000184908602046FFF799FFFFF782FF02F046
:1024700041F816480068B8B31348006884423DD15B
:102480001848006808B9012000E0002068BB00BFC0
:10249000502080F31188BFF34F8FBFF36F8F00BFC1
:1024A00000BFFEE7CC030020580400206C0400208D
:1024B0008004002094040020A80400205000002084
:1024C000540000205C0000204C0000206800002028
:1024D000780000206400002004ED00E07C00002073
:1024E000580000208400002008E0FFE74FF08050F3
:1024F000F8490860BFF34F8FBFF36F8F70BD2DE9B0
:10250000F0414FF00008F448006800287CD1F348FF
:102510000068451CF148056015BBF148006800687B
:1025200008B9012000E0002050B900BF502080F31E
:102530001188BFF34F8FBFF36F8F00BF00BFFEE75F
:10254000E7480768E7480068E5490860E54807602C
:10255000E5480068401CE4490860FFF70AFF00BF37
:10256000E248006885423CD300BFDD48006800684F
:1025700008B9012000E0002020B14FF0FF30DB4916
:1025800008602DE0D6480068C068C4686668B54237
:1025900002D2D648066023E0201DFEF72DFDA06A7A
:1025A00018B104F11800FEF727FD94F82C10012053
:1025B0008840CF4909680843CD490860E16A01EBCA
:1025C0008101CC4A02EB8100211DFEF7EFFCCA49D4
:1025D000E06A0968C96A8842C7D34FF00108C4E7B6
:1025E00000BFC5480068C06A00EB8000C14951F8CF
:1025F0002000012801D94FF00108C048006808B93F
:10260000FEF791F907E0FFE7BC480068401CBB49B2
:102610000860FEF788F9BA48006808B14FF0010871
:102620004046BDE8F08170B500240026AA48006845
:1026300050B900BF502080F31188BFF34F8FBFF314
:102640006F8F00BF00BFFEE701F02DFFA2480068BA
:10265000401EA14908600846006800284FD1A948DB
:10266000006800284BD024E0A748C068C46804F183
:102670001800FEF7C1FC201DFEF7BEFC94F82C10DC
:10268000012088409A490968084399490860E16A2D
:1026900001EB8101974A02EB8100211DFEF786FCC8
:1026A0009549E06A0968C96A884202D301209449C1
:1026B00008609548006808B9012000E00020002863
:1026C000D2D00CB1FFF755FE8C48056865B100BF4C
:1026D000FFF715FF10B10120894908606D1E002D1C
:1026E000F6D10020854908608548006838B1012688
:1026F000300778490860BFF34F8FBFF36F8F01F049
:10270000F9FE304670BD2DE9F04105460E4673488E
:10271000076879480068001DFEF76EFC50B97648DE
:10272000006890F82C1001208840714909688143A5
:102730006F480160681C38B936B16F480168091DDF
:102740007248FEF733FC1AE07C196B48006844605D
:10275000BC4207D268480168091D62480068FEF75C
:1027600031FC0CE064480168091D5D480068FEF713
:1027700029FC5E480068844201D25C480460BDE8E0
:10278000F08155480068401C5349086070472DE9A6
:10279000F04704460F464FF0000954B900BF5020DF
:1027A00080F31188BFF34F8FBFF36F8F00BF00BF5F
:1027B000FEE70FB1012000E0002050B900BF50201B
:1027C00080F31188BFF34F8FBFF36F8F00BF00BF3F
:1027D000FEE74148006808B9012000E0002050B938
:1027E00000BF502080F31188BFF34F8FBFF36F8F6E
:1027F00000BF00BFFEE7FFF7C4FF38480668206847
:10280000C5192068B04207D92068A8420BD9B54243
:1028100009D94FF0010906E02068A84201D8B54265
:1028200001D94FF001092560B9F1000F03D0A81BB1
:102830000021FFF768FFFFF7F6FE8046B8F1000FB2
:1028400007D14FF0805023490860BFF34F8FBFF38B
:102850006F8FBDE8F08770B504460025D4B11E48DF
:10286000006808B9012000E0002050B900BF5020E6
:1028700080F31188BFF34F8FBFF36F8F00BF00BF8E
:10288000FEE7FFF77EFF00212046FFF73CFFFFF742
:10289000CAFE05463DB94FF080500E490860BFF3AF
:1028A0004F8FBFF36F8F70BD2DE9F04707463E464F
:1028B00056B900BF502080F31188BFF34F8FBFF38C
:1028C0006F8F00BF00BFFEE70B48006886421FD134
:1028D000002444E004ED00E08400002060000020BB
:1028E0005000002054000020740000207C000020D4
:1028F00064000020CC0300204C0000206C0000206D
:10290000700000205C00002080040020A80400204B
:1029100001F0C9FD7569FE48D0F80080FD48D0F887
:10292000009001F0E7FD454501D04D4501D102245D
:1029300015E0F94885420BD1B06A38B996F85800CD
:10294000012801D102240AE0032408E0022406E061
:10295000F248854200D00DB9042400E0012420464D
:10296000BDE8F08770B5044601F09DFD14B9EC4850
:10297000006800E020460646F56A01F0BBFD2846E7
:1029800070BD2DE9F041054601F0E8FD00BF502182
:10299000EFF3118081F31188BFF34F8FBFF36F8F77
:1029A00000BF044615B9DE48006800E02846074627
:1029B000FE6A00BF84F3118800BF3046BDE8F08195
:1029C0002DE9F04780460D464FF00009072D01D252
:1029D000012000E0002050B900BF502080F3118892
:1029E000BFF34F8FBFF36F8F00BF00BFFEE7072D10
:1029F00000D3062501F057FDB8F1000F02D1C848F9
:102A0000006800E040460446E66CAE4256D0B5424F
:102A10000BD9C348006884420DD0C1480068C06A21
:102A2000A84208D84FF0010905E0BD48006884427B
:102A300001D14FF00109E76AE16AE06C884200D1F8
:102A4000E562E564A06900F0004010B9C5F1070037
:102A5000A06107EB8701B34A02EB810160698842FC
:102A600001D1012000E00020E0B1201DFEF7C4FAF2
:102A700030B90120B840AC4909688143AA480160D7
:102A800094F82C1001208840A74909680843A649FA
:102A90000860E16A01EB8101A24A02EB8100211D7D
:102AA000FEF784FAB9F1000F07D04FF080509F492C
:102AB0000860BFF34F8FBFF36F8F00BF01F01AFDA7
:102AC000BDE8F08770B59A48006818B101209949AF
:102AD00008604DE000209749086091480068046B49
:102AE0004FF0A5352068B0F1A53F0BD16068B0F17B
:102AF000A53F07D1A068B0F1A53F03D1E068B0F1D0
:102B0000A53F05D0864801683431006804F0C6FE50
:102B100085480068B0FA80F0C0F11F0101EB810028
:102B2000804A52F8200008B1012000E0002050B98E
:102B300000BF502080F31188BFF34F8FBFF36F8F1A
:102B400000BF00BFFEE701EB8102764B03EB820082
:102B500042685268426000F108024368934202D121
:102B60004268526842604268D2686D4B1A6000BF8A
:102B700070BD70B5054601F096FC15B9684800684F
:102B800000E028460446201DFEF736FA78B9E06AD0
:102B900000EB8000634951F8200040B994F82C10F4
:102BA000012088406049096881435F480160A06A4C
:102BB00018B104F11800FEF71FFA211D5648FEF760
:102BC000F5F994F85800012802D1002084F8580043
:102BD00001F090FC5848006828B101F064FCFFF750
:102BE000C8FB01F087FC4E480068844229D1524856
:102BF0000068D0B14E48006808B9012000E000200C
:102C000050B900BF502080F31188BFF34F8FBFF33E
:102C10006F8F00BF00BFFEE74FF080504349086050
:102C2000BFF34F8FBFF36F8F0BE03B480068434902
:102C30000968884203D100203949086001E0FFF7A4
:102C400041FF70BD10B502460020114652B900BFC9
:102C5000502383F31188BFF34F8FBFF36F8F00BFF3
:102C600000BFFEE72C4C4B69A34201D1012300E0D9
:102C7000002373B1324C8B6AA34201D1012300E0DF
:102C8000002333B98B6A0BB9012300E0002303B1A1
:102C9000012010BD70B505462C4655B900BF502027
:102CA00080F31188BFF34F8FBFF36F8F00BF00BF5A
:102CB000FEE71B480068844248D03CB301F0F3FBB8
:102CC0002046FFF7BFFF10B3201DFEF795F994F8DB
:102CD0002C100120884014490968084312490860F3
:102CE000E16A01EB81010F4A02EB8100211DFEF731
:102CF0005DF90B49E06A0968C96A884224D34FF03C
:102D000080500A490860BFF34F8F1BE01EE01BE0B4
:102D10005000002054000020A8040020940400204B
:102D20004C000020CC0300206400002004ED00E0F3
:102D30008400002070000020680000205C0000205B
:102D400080040020BFF36F8F01F0D4FB70BD2DE92C
:102D5000F04106460027344656B900BF502080F3A4
:102D60001188BFF34F8FBFF36F8F00BF00BFFEE727
:102D700001F0F4FB00BF5021EFF3118081F31188C3
:102D8000BFF34F8FBFF36F8F00BF05462046FFF79D
:102D900059FF20B3FA480068E0B9FA49E06A0968C7
:102DA000C96A884200D30127201DFEF725F994F84F
:102DB0002C1001208840F44909680843F249086052
:102DC000E16A01EB8101F14A02EB8100211DFEF76E
:102DD000EDF804E004F11801ED48FEF7E7F800BF54
:102DE00085F3118800BF3846BDE8F08110B516E0C4
:102DF00001F059FBE748C068C468201DFEF7FCF8E5
:102E0000E5480068401EE4490860E4480068401E48
:102E1000E249086001F06EFB2046FFF7BFFADF4889
:102E200000680028E4D110BD00BFFFF7DFFFD748DE
:102E30000068012807D94FF08050D9490860BFF3D6
:102E40004F8FBFF36F8FFDF759FDEEE710B586B0DA
:102E500000200590049003AA04A905A805F0A8FB8A
:102E60000022DDE904101346CDE900210290CDA136
:102E7000CE48039AFFF7EEF9CD490860084600688E
:102E800008B1012400E00024012C02D101F099F8DE
:102E90000446012C15D100BF502080F31188BFF3E8
:102EA0004F8FBFF36F8F00BF4FF0FF30C1490860F5
:102EB0000120C14908600020C049086001F039FACA
:102EC00010E0601C08B1012000E0002050B900BFF4
:102ED000502080F31188BFF34F8FBFF36F8F00BF77
:102EE00000BFFEE706B010BD10B500BF502080F354
:102EF0001188BFF34F8FBFF36F8F00BF0020AE4923
:102F0000086001F0BBFA10BDAC490868704770B5A5
:102F100001F024FB0025A9480468204670BD9E48A6
:102F200000687047014611B99648006800E00846FD
:102F3000024652B900BF502080F31188BFF34F8F73
:102F4000BFF36F8F00BF00BFFEE702F13400704790
:102F50000246002101E0521C491C1078A528FAD035
:102F6000890888B270472DE9F04107460C46904623
:102F70001E4617B98348006800E0384605462560BC
:102F800005F134006060E86A2061286BE061686CDC
:102F9000A060E86C60610020A061052E12D0794825
:102FA0000068854202D1002020730FE02673032EB3
:102FB0000CD1FFF7E6FBA86A08B102202073FFF7E7
:102FC00032FB03E02846FFF76FFC2073B8F1000FD7
:102FD00004D0286BFFF7BCFF208401E00020208490
:102FE000BDE8F0812DE9F04707460C4690460026E3
:102FF000206848B3204641684968416000F10801F3
:1030000042688A4202D14168496841604168D1F80A
:103010000C9000BF204641684968416000F10801FA
:1030200042688A4202D14168496841604168CD687E
:1030300006EBC60007EB8001434601222846FFF756
:1030400092FF761C4D45E5D13046BDE8F0872DE96D
:10305000F04105468846164600240727FFF791FBF6
:103060004D480068804539D300BF7F1E07EB8702BB
:10307000464B03EB820104EBC40205EB8200012204
:10308000FFF7B0FF0444002FEFD104EBC40105EBC0
:10309000810002224A490968FFF7A4FF044404EBB7
:1030A000C40105EB8100022246490968FFF79AFF37
:1030B000044404EBC40105EB810004223549FFF709
:1030C00091FF044404EBC40105EB810003223E4957
:1030D000FFF788FF04440EB100203060FFF7A3FA29
:1030E0002046BDE8F08170B504460D4654B900BFD6
:1030F000502080F31188BFF34F8FBFF36F8F00BF55
:1031000000BFFEE71F48016818312046FDF75AFF4F
:1031100001212846FFF7F7FA70BD70B504460D4649
:10312000164654B900BF502080F31188BFF34F8F6B
:10313000BFF36F8F00BF00BFFEE71148006808B102
:10314000012000E0002050B900BF502080F311881A
:10315000BFF34F8FBFF36F8F00BF00BFFEE745F097
:10316000004008490968886106480168183120460E
:10317000FDF71CFF01213046FFF7C5FA70BD0000C6
:10318000840000204C00002064000020CC030020BC
:1031900080040020940400205C00002058000020DF
:1031A00004ED00E049444C4500000000292E0000D9
:1031B000800000207C0000206800002060000020CB
:1031C0005000002054000020A804002070B50546DF
:1031D0000E46144655B900BF502080F31188BFF346
:1031E0004F8FBFF36F8F00BF00BFFEE7FB48016842
:1031F00018312846FDF7DAFE0CB14FF0FF362146B4
:103200003046FFF780FA70BD70B50646F068C468B6
:1032100054B900BF502080F31188BFF34F8FBFF324
:103220006F8F00BF00BFFEE704F11800FDF7E4FE5A
:10323000EB480068A8B9201DFDF7DEFE94F82C10BD
:1032400001208840E74909680843E6490860E16AC7
:1032500001EB8101E44A02EB8100211DFDF7A6FE8E
:1032600004E004F11801E148FDF7A0FEDB49E06A43
:103270000968C96A884204D901250120DC4908602F
:1032800000E00025284670BD70B505460E46D448BE
:10329000006808B1012000E0002050B900BF5020B4
:1032A00080F31188BFF34F8FBFF36F8F00BF00BF54
:1032B000FEE746F000402860EC6854B900BF50209B
:1032C00080F31188BFF34F8FBFF36F8F00BF00BF34
:1032D000FEE72846FDF790FE201DFDF78DFE94F8D1
:1032E0002C1001208840BF4909680843BD49086087
:1032F000E16A01EB8101BC4A02EB8100211DFDF76F
:1033000055FEB649E06A0968C96A884202D90120B7
:10331000B749086070BD10B5044654B900BF5020CD
:1033200080F31188BFF34F8FBFF36F8F00BF00BFD3
:10333000FEE701F0B8F8AF4800682060AE480068CA
:10334000606001F0D7F810BDAA4909680160AA4978
:1033500009684160704770B505460C4655B900BF15
:10336000502080F31188BFF34F8FBFF36F8F00BFE2
:1033700000BFFEE754B900BF502080F31188BFF3AF
:103380004F8FBFF36F8F00BF00BFFEE701F08BF8D8
:10339000994802686868131A2068401C08B900261A
:1033A00017E0944928680968884204D06868904208
:1033B00001D801260DE02068984207D92068C01A7C
:1033C00020602846FFF7C0FF002602E000202060B2
:1033D000012601F08FF8304670BD01208449086055
:1033E0007047014611B10A46906C00E0002070471A
:1033F00008B10246916470477849086870477F4970
:10340000096809B9012005E07549096809B9022070
:1034100000E00020704770B505462C460026002DC0
:1034200054D06E49E06A0968C96A884247D2A069E7
:1034300000F0004028B969480068C06AC0F1070080
:10344000A061E16A01EB8101674A02EB81016069D9
:10345000884201D1012000E0002050B3201DFDF77B
:10346000CBFD78B9E06A00EB80005F4951F820009D
:1034700040B994F82C10012088405A4909688143CA
:103480005848016055480068C06AE06294F82C1002
:103490000120884053490968084352490860E16A9D
:1034A00001EB8101504A02EB8100211DFDF77EFDF9
:1034B00003E04A480068C06AE062012606E0474926
:1034C000E06C0968C96A884200D20126304670BDA6
:1034D00070B505462C460026002D55D03F480068A3
:1034E000844201D1012000E0002050B900BF5020EB
:1034F00080F31188BFF34F8FBFF36F8F00BF00BF02
:10350000FEE7206D50B900BF502080F31188BFF353
:103510004F8FBFF36F8F00BF00BFFEE7206D401ECF
:103520002065E16CE06A88422ED0206D60BB201DD2
:10353000FDF762FD78B9E06A00EB80002A4951F896
:10354000200040B994F82C100120884025490968D2
:10355000814324480160E06CE062E06AC0F107004A
:10356000A06194F82C10012088401E490968084386
:103570001C490860E16A01EB81011B4A02EB8100F2
:10358000211DFDF713FD0126304670BD2DE9F047E2
:1035900006460F4634464FF00109002E79D0206DC3
:1035A00050B900BF502080F31188BFF34F8FBFF395
:1035B0006F8F00BF00BFFEE7E06CB84201D23D460E
:1035C00000E0E56CE06AA84263D0206D012860D17C
:1035D00002480068844213D0012012E04C00002011
:1035E0008400002064000020CC0300208004002020
:1035F000700000207400002060000020680000209F
:10360000002050B900BF502080F31188BFF34F8FC6
:10361000BFF36F8F00BF00BFFEE7D4F82C80E562D8
:10362000A06900F0004010B9C5F10700A06108EBE7
:103630008801FE4A02EB81016069884201D10120C4
:1036400000E0002028B3201DFDF7D6FC78B9E06A21
:1036500000EB8000F54951F8200040B994F82C1097
:1036600001208840F24909688143F148016094F8DB
:103670002C1001208840EE4909680843EC49086095
:10368000E16A01EB8101E94A02EB8100211DFDF7AE
:103690008DFCBDE8F087E74909688869E549096854
:1036A000C96AC1F10701E34A126891617047E148B4
:1036B000006830B1DF49096801F15000096D491C0B
:1036C0000160DC480068704770B506460D4600F0A2
:1036D000EAFED8480068406D88B90120D5490968DC
:1036E00081F858005DB101212846FFF70CF84FF032
:1036F0008050D1490860BFF34F8FBFF36F8F00F048
:10370000F9FE00F0D0FECB480068446D4CB126B104
:103710000020C8490968486503E0601EC54909687A
:1037200048650020C349096881F8580000F0E2FEAE
:10373000204670BD2DE9F0410746884614461D46D7
:1037400000F0B1FEBB48006890F85800022818D07D
:10375000B849096801F15400496DB943016001207D
:10376000B449096881F858005DB101212846FEF787
:10377000CAFF4FF08050B0490860BFF34F8FBFF3CE
:103780006F8F00F0B7FE00F08EFE1CB1A9480068F4
:10379000406D2060A748006890F85800022801D0CA
:1037A000002608E0A349096801F15400496D21EAA7
:1037B00008010160012600209E49096881F858002F
:1037C00000F098FE3046BDE8F0812DE9F04706464E
:1037D0000D46174698464FF0010A56B900BF5020D3
:1037E00080F31188BFF34F8FBFF36F8F00BF00BF0F
:1037F000FEE7344600F057FEB8F1000F02D0606DCE
:10380000C8F8000094F85890022084F85800052F5A
:1038100017D2DFE807F01503070B0D00606D284392
:10382000606521E0606D401C60651DE065651BE022
:10383000B9F1020F01D0656501E04FF0000A13E015
:1038400012E0606D401C08B9012000E0002050B972
:1038500000BF502080F31188BFF34F8FBFF36F8FED
:1038600000BF00BFFEE700BF00BFB9F1010F33D1B9
:10387000201DFDF7C1FB94F82C10012088406C49F5
:10388000096808436A490860E16A01EB8101674AF7
:1038900002EB8100211DFDF789FBA06A08B9012018
:1038A00000E0002050B900BF502080F31188BFF322
:1038B0004F8FBFF36F8F00BF00BFFEE75D49E06A27
:1038C0000968C96A884207D94FF080505A49086090
:1038D000BFF34F8FBFF36F8F00F00CFE5046BDE873
:1038E000F0872DE9F84F07460E4690469946DDF8D9
:1038F00028B00120009057B900BF502080F31188F4
:10390000BFF34F8FBFF36F8F00BF00BFFEE700F024
:1039100025FE3C4600BF5021EFF3118081F3118852
:10392000BFF34F8FBFF36F8F00BF0546B9F1000F94
:1039300002D0606DC9F8000094F858A0022084F805
:103940005800B8F1050F17D2DFE808F01503070B90
:103950000D00606D3043606521E0606D401C606566
:103960001DE066651BE0BAF1020F01D0666501E05B
:103970000020009013E012E0606D401C08B90120A7
:1039800000E0002050B900BF502080F31188BFF341
:103990004F8FBFF36F8F00BF00BFFEE700BF00BFB8
:1039A000BAF1010F3DD1A06A08B9012000E0002062
:1039B00050B900BF502080F31188BFF34F8FBFF381
:1039C0006F8F00BF00BFFEE71C480068A8B9201D2C
:1039D000FDF712FB94F82C10012088401449096867
:1039E000084313490860E16A01EB81010F4A02EBC9
:1039F0008100211DFDF7DAFA04E004F118011048F6
:103A0000FDF7D4FA0B49E06A0968C96A884208D907
:103A1000BBF1000F02D00120CBF8000001200949C2
:103A2000086000BF85F3118800BF0DE0CC030020C3
:103A3000640000204C00002004ED00E08400002021
:103A400080040020700000200098BDE8F88F2DE968
:103A5000F04105460F4655B900BF502080F311884C
:103A6000BFF34F8FBFF36F8F00BF00BFFEE700F0C3
:103A700075FD2C4600BF5021EFF3118081F31188B2
:103A8000BFF34F8FBFF36F8F00BF064694F8588087
:103A9000022084F85800606D401C6065B8F1010F89
:103AA0003AD1A06A08B9012000E0002050B900BF57
:103AB000502080F31188BFF34F8FBFF36F8F00BF8B
:103AC00000BFFEE723480068A8B9201DFDF794FA5F
:103AD00094F82C10012088401F49096808431E49AA
:103AE0000860E16A01EB81011C4A02EB8100211DA3
:103AF000FDF75CFA04E004F118011948FDF756FAE5
:103B00001849E06A0968C96A884205D90FB10120DD
:103B1000386001201449086000BF86F3118800BF97
:103B2000BDE8F08170B5054615B90E48006800E0A3
:103B30002846064600F0B7FC96F85800022804D143
:103B4000002086F85800012400E0002400F0D2FC98
:103B5000204670BD8400002064000020CC030020BB
:103B6000800400204C000020700000202DE9F0416E
:103B700004460D4616461F464FF000086560246156
:103B8000B5420CD8F01BA169884202D34FF001085E
:103B900011E0211DFE480068FDF714FA0BE0BE425B
:103BA00004D2BD4202D34FF0010804E0211DF948C0
:103BB0000068FDF707FA4046BDE8F0812DE9FE43B5
:103BC00004460D4616461F46DDF828804FF00009D2
:103BD00054B900BF502080F31188BFF34F8FBFF35B
:103BE0006F8F00BF00BFFEE7EB48006810B3009581
:103BF00001960294062D15DAFFF701FC022808D180
:103C0000002342466946E4480068FDF794FB81467C
:103C100010E000231A466946DF480068FDF78BFB79
:103C2000814607E000233A466946DB480068FDF715
:103C300027FE81464846BDE8FE832DE9F84334E07F
:103C4000D4480068C0680568D2480068C068C46885
:103C5000201DFDF7D1F92046216A884794F82800F5
:103C600000F0040008B3A0694619AE4207D96660A7
:103C70002461211DC7480068FDF7A4F915E0002064
:103C800003462A46014600902046FFF797FF074665
:103C900057B900BF502080F31188BFF34F8FBFF397
:103CA0006F8F00BF00BFFEE700BFBA480068006822
:103CB00008B9012000E000200028C1D0B548D0F8A4
:103CC0000080B3480068B3490860B148C0F800807C
:103CD000BDE8F88370B50446FFF716F90546AF480E
:103CE0000068854204D2FFF7A8FF0120206001E0B0
:103CF00000202060A9480560284670BD70B586B0D8
:103D00008BE003980028FBDB059C606908B9012063
:103D100000E0002010B9201DFDF76EF902A8FFF7A2
:103D2000D9FF054603980A2875D2DFE800F0090597
:103D30000739416306083A4200BF00BF00BF00BF19
:103D400094F8280040F0010084F828000498A26943
:103D5000811803462A462046FFF708FFF8B120469F
:103D6000216A884794F8280000F00400B8B10020C8
:103D700000900498A1694218002319462046FFF7D5
:103D80001DFF064656B900BF502080F31188BFF3CF
:103D90004F8FBFF36F8F00BF00BFFEE700BF3BE058
:103DA00000BF94F8280020F0010084F8280033E0D8
:103DB00000BF94F8280040F0010084F8280004981F
:103DC000A061A06908B1012000E0002050B900BF47
:103DD000502080F31188BFF34F8FBFF36F8F00BF68
:103DE00000BFFEE7A06941192B462A462046FFF78F
:103DF000BDFE11E094F8280000F0020018B920463A
:103E000000F0EEFC05E094F8280020F0010084F8B2
:103E1000280001E0FFE700BF00BF002203A95E48C1
:103E20000068FDF731FE00287FF46BAF06B070BD6F
:103E3000F8B505460F4657480068C068C468201D9D
:103E4000FDF7DAF894F8280000F00400E8B1A06962
:103E500041192B463A462046FFF788FED8B100208C
:103E600003462A46014600902046FFF7A7FE064675
:103E700056B900BF502080F31188BFF34F8FBFF3B6
:103E80006F8F00BF00BFFEE705E094F8280020F028
:103E9000010084F828002046216A8847F8BDF8B55B
:103EA00005460C46FEF76DFC6846FFF713FF064615
:103EB000009820BB44B9B54206D8FEF7B4FB3146A2
:103EC0002846FFF7B5FF1CE03CB1314800680068A8
:103ED00008B9012000E000200446A91B22462E4814
:103EE0000068FEF7BFF8FEF79EFB50B94FF0805018
:103EF0002B490860BFF34F8FBFF36F8F01E0FEF7D0
:103F000092FBF8BD0146234A126812680AB90122E1
:103F100000E000220A600A6822B91E4A1268D268CC
:103F2000106800E00020704708B5FCF7B6FC00BF41
:103F30006846FFF7E7FF044620460099FFF7AFFF0A
:103F4000FFF7DCFEF4E708B500F0ADFA12480068B0
:103F5000E8B91448FDF71AF81348FDF717F81148A7
:103F60000C49086010480A49086000200F4B104AAD
:103F70000C2100900A20FDF7B1F8074908600846B7
:103F8000006820B10BA104480068FEF745F815E071
:103F90008C00002088000020900000209800002065
:103FA00004ED00E0BC040020D0040020E404002064
:103FB00034050020546D72510000000000F09AFAA0
:103FC00008BD10B586B00024FFF7BDFFB2480068F9
:103FD000D0B100200590049003AA04A905A804F01C
:103FE000EEFA0522DDE904100023CDE9002102905C
:103FF000AAA1AC48039AFEF72DF9AB490860084620
:10400000006800B1012400BF54B900BF502080F304
:104010001188BFF34F8FBFF36F8F00BF00BFFEE764
:10402000204606B010BD2DE9F04706460D4617465E
:104030009846DDE908940DB1012000E0002050B958
:1040400000BF502080F31188BFF34F8FBFF36F8FF5
:1040500000BF00BFFEE78CB1FFF775FF2660A561CA
:10406000C4F81C80C4F82090201DFCF79CFF2FB1E1
:1040700094F8280040F0040084F82800BDE8F08798
:104080002DE9FC4705460E4617469846DDF8289070
:104090002C2000F00CFB044654B1002084F82800CA
:1040A00043463A4631462846CDE90094FFF7BBFF28
:1040B0002046BDE8FC872DE9FC4706460F469046A2
:1040C0009946DDE90AA52C20019001982C2801D100
:1040D000012000E0002050B900BF502080F311887B
:1040E000BFF34F8FBFF36F8F00BF00BFFEE700BF6E
:1040F00055B900BF502080F31188BFF34F8FBFF335
:104100006F8F00BF00BFFEE72C4654B1022084F839
:1041100028004B46424639463046CDE900A4FFF719
:1041200082FF2046BDE8FC875F48006808B1012097
:1041300000E0002050B900BF502080F31188BFF389
:104140004F8FBFF36F8F00BF00BFFEE75648006878
:10415000704701460A4651B900BF502080F31188CC
:10416000BFF34F8FBFF36F8F00BF00BFFEE79069B3
:10417000704770B505460E462C4655B900BF502015
:1041800080F31188BFF34F8FBFF36F8F00BF00BF65
:10419000FEE700F088F936B194F8280040F00400FA
:1041A00084F8280005E094F8280020F0040084F842
:1041B000280000F09FF970BD10B501460A4651B9BC
:1041C00000BF502383F31188BFF34F8FBFF36F8F6E
:1041D00000BF00BFFEE7506810BD01460A4651B956
:1041E00000BF502080F31188BFF34F8FBFF36F8F54
:1041F00000BF00BFFEE71068704770B50446264652
:1042000054B900BF502080F31188BFF34F8FBFF324
:104210006F8F00BF00BFFEE700F045F996F8280059
:1042200000F0010008B9002500E0012500F062F966
:10423000284670BD70B50446254654B900BF5020CD
:1042400080F31188BFF34F8FBFF36F8F00BF00BFA4
:10425000FEE700F028F9EE6900F04CF9304670BD39
:1042600070B504460D46264654B900BF502080F371
:104270001188BFF34F8FBFF36F8F00BF00BFFEE702
:1042800000F011F9F56100F035F970BD0146486A9A
:10429000704741627047000090000020546D72200A
:1042A00053766300293F000094000020C648006850
:1042B000401C08B9012000E0002050B900BF502088
:1042C00080F31188BFF34F8FBFF36F8F00BF00BF24
:1042D000FEE700BF502080F31188BFF34F8FBFF37C
:1042E0006F8F00BF00BFFEE7001F4FF080730360B9
:1042F000001F21F001030360001FB44B036014385A
:104300000260001F6FF00203036020387047002036
:104310004FF0E02108618861AD4800684FF47A7180
:10432000B0FBF1F0401E4FF0E0214861072008612A
:1043300070471CB5A7480068A749884201D00120F2
:1043400000E0002050B900BF502080F31188BFF377
:104350004F8FBFF36F8F00BF00BFFEE79D4800681F
:104360009D49491E884201D0012000E0002050B93B
:1043700000BF502080F31188BFF34F8FBFF36F8FC2
:1043800000BF00BFFEE79549084600780190FF2076
:104390000A4610700846007800909DF8000000F072
:1043A000F0009DF80020904201D1012000E00020A3
:1043B00050B900BF502080F31188BFF34F8FBFF377
:1043C0006F8F00BF00BFFEE79DF8000000F05000B7
:1043D000834A10700720834A106009E08148006812
:1043E000401E804A10609DF800004006000E0090BC
:1043F0009DF8000000F080008028EFD07948006828
:10440000C0F10700042801D1012000E0002050B9CC
:1044100000BF502080F31188BFF34F8FBFF36F8F21
:1044200000BF00BFFEE76F48006800026D4A1060E1
:104430001046008800F4E0601060684A019810702F
:1044400064482030006840F4700062492031086000
:104450000846006840F070400860FFF758FF0020F1
:1044600059490860FBF7D6FE5F48006840F04040BD
:104470005D490860FBF7BAFE00201CBD5248006889
:10448000B0F57A7F01D1012000E0002050B900BFD3
:10449000502080F31188BFF34F8FBFF36F8F00BFA1
:1044A00000BFFEE7704700BF502080F31188BFF3C4
:1044B0004F8FBFF36F8F00BF43480068401C4249D5
:1044C000086008460068012813D14248001D0068B2
:1044D000C0B208B9012000E0002050B900BF502050
:1044E00080F31188BFF34F8FBFF36F8F00BF00BF02
:1044F000FEE770473448006850B900BF502080F391
:104500001188BFF34F8FBFF36F8F00BF00BFFEE76F
:104510002D480068401E2C4908600846006820B9F4
:10452000002080F3118800BF00BF704710B500BFA6
:10453000502080F31188BFF34F8FBFF36F8F00BF00
:10454000FDF7DDFF20B14FF080502249091D0860C2
:1045500000BF002080F3118800BF10BD70B5FBF7CD
:1045600091FE0446102C16D304F1E02090F8F0538D
:104570001B480078854201DB012000E0002050B993
:1045800000BF502080F31188BFF34F8FBFF36F8FB0
:1045900000BF00BFFEE70F480C30006800F4E06089
:1045A00010490968884201D8012000E0002050B974
:1045B00000BF502080F31188BFF34F8FBFF36F8F80
:1045C00000BF00BFFEE770BD9C000020AD420000B0
:1045D0000000002000ED00E071C20F4100E400E0A7
:1045E000A0000020A400002034EF00E010B5014638
:1045F000A24800E0006803688B42FBD30246436890
:1046000013448B4204D143684C6823444360014601
:104610000A464B6813440468A34211D1984C0368BE
:104620002468A34208D04B680468646823444B6044
:1046300003681B680B6005E0914B1B680B6001E091
:1046400003680B60884200D0016010BD30B54FF4A4
:1046500070438C4800F007042CB1C01D20F0070007
:10466000884C041B1B1B0246844C22600024834D93
:104670006C60D018083820F00700814C20600024BE
:104680007F4D2D686C607E4D2D682C601146441A5C
:104690004C607B4C24680C607B4D4C682C607B4DDF
:1046A0004C682C604FF00044794D2C6030BD2DE9F2
:1046B000F04104464FF00008FEF763F870480068C8
:1046C00008B9FFF7C3FF72480068204000286BD18B
:1046D000D4B1083404F00700B0B104F00700C0F111
:1046E0000800044404F0070008B9012000E000209D
:1046F00050B900BF502080F31188BFF34F8FBFF334
:104700006F8F00BF00BFFEE7002C4DD05F480068F0
:10471000844249D8594E3046056801E02E462D683E
:104720006868A04202D228680028F7D1544800687F
:10473000854239D0306800F1080828683060686820
:10474000001B102819D92F1907F0070008B90120FC
:1047500000E0002050B900BF502080F31188BFF363
:104760004F8FBFF36F8F00BF00BFFEE76868001B6D
:1047700078606C603846FFF739FF4449686809681B
:10478000081A42490860084600683F49096888429B
:1047900003D23E4800683C4908603D4968680968A2
:1047A0000843686000202860FDF73DFFB8F1000F66
:1047B00001D103F065F808F0070008B9012000E016
:1047C000002050B900BF502080F31188BFF34F8FF5
:1047D000BFF36F8F00BF00BFFEE74046BDE8F0812A
:1047E00070B506463546002E3FD0083D2C46284978
:1047F00060680968084008B1012000E0002050B955
:1048000000BF502080F31188BFF34F8FBFF36F8F2D
:1048100000BF00BFFEE7206808B9012000E00020CB
:1048200050B900BF502080F31188BFF34F8FBFF302
:104830006F8F00BF00BFFEE7154960680968084038
:1048400098B1206888B91249606809688843606037
:10485000FDF797FF0D496068096808440B49086037
:104860002046FFF7C3FEFDF7DEFE70BD0748006877
:10487000704705480068704770470000A800002096
:10488000B0000020AC050020B8000020B4000020DB
:10489000BC00002010B5044638A0216829F0D6FFDE
:1048A00039A0616829F0D2FF3AA0A16829F0CEFFB3
:1048B0003BA0E16829F0CAFF3CA0216929F0C6FFAE
:1048C0003DA0616929F0C2FF3EA0A16929F0BEFFA9
:1048D0003FA0E16929F0BAFF10BD04463FA029F0CE
:1048E000B5FF2046FFF7D6FF00BFFEE700BF4149F6
:1048F000896901F400010029F9D13E4908600A28BC
:1049000009D100BF3B49896901F400010029F9D1AF
:104910000D21384A1160704710B504462046FFF754
:10492000E5FF10BD08E03348806900F4804018B905
:1049300030480068C0B27047F5E72E488069C0F380
:10494000803070472B488069C0F30070704710B505
:1049500004462046FFF7E0FF10BD70B504460D4643
:104960002046FFF7D9FF204670BD10B50446FFF77B
:10497000D9FF10BD01464FF0FF3070477230202044
:104980003D20307825780A00723120203D20307893
:1049900025780A00723220203D20307825780A00E0
:1049A000723320203D20307825780A007231322081
:1049B0003D20307825780A006C7220203D20307828
:1049C00025780A00706320203D20307825780A0081
:1049D000707372203D20307825780A00496E204897
:1049E000617264204661756C742048616E646C6508
:1049F000720A00000000074010B50022002100F0FC
:104A00001F040123A340DA43F849032303EA907308
:104A100001EB83010B6813400B6010BD00B5F44837
:104A2000FFF7EAFF00BDF0B500230024C0F387259F
:104A3000E5B1C0F38145022D02D1EC4C28340CE0E5
:104A4000C0F38145032D02D1E84C2C3405E0C0F3BE
:104A50008145E64E1C3606EB85042568C0F38726A3
:104A6000C0F34417BE40B54315432560C0F342650B
:104A700075B1C0F30175DD4E0C3606EB85031D687C
:104A8000C0F34266C0F30457BE40B5430D431D60FA
:104A9000F0BD10B50022002100F01F04012303FA2D
:104AA00004F2D249032303EA907301EB83010B68FC
:104AB00013430B6010BD70B504460D46164645F015
:104AC000100040EA4610C9495C310860C848FFF749
:104AD000E0FF00222146C648FFF7A5FF70BDC5488C
:104AE000006840F00400C3490860C048001F006827
:104AF00040F080008906C1F8000230BF7047BD4811
:104B0000006820F00400BB490860B848001F006836
:104B100020F080008906C1F8000230BF7047B34919
:104B2000091F096801F0010109B1B34800E0002044
:104B30007047AE49091F096801F00201022901D13D
:104B4000880300E00020704710B5FBF7E1FBA748A1
:104B50003030006800F0070010B9A84804682DE064
:104B6000A2483030006800F00700012803D1A348B4
:104B70000068440822E09D483030006800F00700DB
:104B8000022803D19D480068840817E09748303018
:104B9000006800F00700032803D198480068C408A3
:104BA0000CE092483030006800F00700042803D180
:104BB00092480068040901E090480468204610BD4E
:104BC00010B5FBF7A5FB89483030006800F0700095
:104BD00010B98A4804682DE084483030006800F03D
:104BE0007000102803D185480068440822E07F48FF
:104BF0003030006800F07000202803D17F48006842
:104C0000840817E079483030006800F070003028E0
:104C100003D17A480068C4080CE07448303000685A
:104C200000F07000402803D174480068040901E0D6
:104C300072480468204610BD10B5FBF769FB6F4849
:104C4000006810BD10B5FBF763FB6C48006810BD31
:104C500010B501466A4A012005E0131EA2F10102C7
:104C600001DC002005E0614B4C331B680B408B429C
:104C7000F3D100BF10BD70B504460D465B484C3003
:104C8000006800F010064FF08040D0F8000240F0BD
:104C900004005649091F08601020FFF7D9FF534848
:104CA0000C30006820F00700C01D4FF08041C1F8B3
:104CB00010024E481C30006820F00F002843C1F855
:104CC00020024A480C30006820F007002043474982
:104CD0000C310860FBF71CFB46B94448001F006814
:104CE00020F004004FF08041C1F8000270BDF8B51B
:104CF000002044A6366800963C4E3C36316801F4EC
:104D0000A02606B127E001F40036B6F5003F09D130
:104D100001F40026B6F5002F01D1374A00E0364AEB
:104D2000104618E001F40026B6F5002F01D1324AF2
:104D300000E0314AC1F381371DF80740C1F308068E
:104D4000B31CC1F34426751C96085E4315FB04F79B
:104D5000B6FBF7F6F000F8BD24483C30006840F49C
:104D600080304FF08041C1F8400270472DE9F34F89
:104D700087B00C46FFF7F0FF079888B91B48001F63
:104D8000006840F001004FF08041C1F800020120AE
:104D9000FFF75EFF00200690DFF85C90022611E02E
:104DA0001248001F006840F004004FF08041C1F835
:104DB00000021020FFF74CFF4FF400200690DFF8B0
:104DC00038900426104884427DD8104884427AD313
:104DD0004FF0FF38002002900390019000940125CD
:104DE0005EE0B8F1000F13D15CE000000402004067
:104DF0000600C05710ED00E0001BB70000000020C7
:104E000080F52000010202040065CD1D80F0FA0249
:104E1000032D44D0042D02D10098840003E0022D1C
:104E200001D100984400022636E0B8F1000F00D10D
:104E300034E0B9FBF6FBD14883452CD340008345D1
:104E400029D84FF0020A21E0CBF35D0000FB0AF7FE
:104E5000CB48874218D3CB48874215D8B7EB940F7D
:104E600002D9A7EB940001E0C7EB940004900498EA
:104E7000404509D2DDF810800296CDF80CA00195CE
:104E8000B8F1000F00D105E00AF1010A40F201205B
:104E90008245D9D900BF761C202EC6D900BF6D1C13
:104EA000042D9ED900BF0198401E069941EA803129
:104EB0000298401E41EA40210398801E0143B248F7
:104EC0000160042000E00BE0FFF7C2FEDDE9010114
:104ED0004843B9FBF0F003994843400005900FE0C8
:104EE000079820B944F21E20A749086002E0A748AD
:104EF000A54908600420FFF7ABFEFFF7F8FE059018
:104F0000059809B0BDE8F08F70B504469E48103092
:104F1000006800F010059E48844200D904469A4873
:104F20004038006840F004004FF08041C1F80002B2
:104F30001020FFF78DFE4FF08040D0F8100240F0B7
:104F400007004FF08041C1F810020846D0F8200257
:104F500020F00F00C1F820028B484038006800F0B4
:104F6000010028B121460020FFF700FF04460AE0B7
:104F700021464FF40020FFF7F9FE04468248103026
:104F8000006800F0100500210220FFF774FE45B90B
:104F90007D484038006820F004004FF08041C1F89F
:104FA0000002204670BD78493039096821F0380187
:104FB00001434FF08042C2F81012704772494039E5
:104FC000096801434FF08042C2F8001270476E49F1
:104FD0004039096881434FF08042C2F8001270479F
:104FE00000224FF0E0231A61042805D11A46126905
:104FF00042F004021A6109E0634A303A126822F072
:10500000380202434FF08043C3F810224FF0E022F1
:10501000516100224FF0E0239A611A46126942F072
:1050200003021A61704700204FF0E02108617047C9
:1050300010B50446042C01D0052C0BD15248403841
:10504000006840F008004FF08041C1F800020820DD
:10505000FFF7FEFD4C485030006820F00700204369
:105060004FF08041C1F8900210BD474950310968A6
:1050700021F4403101434FF08042C2F89012704752
:10508000414854300068704770B504460020002540
:105090003D486030042606FB0400056840F2F71620
:1050A00025EA060646EA011616431E4346F00105A8
:1050B000056070BD3FB501460022364D39CD8DE803
:1050C00039003548814206D12F482838006800F061
:1050D000010004B030BD3148814205D12A4828384A
:1050E0000068C0F34000F4E72D48814205D126480E
:1050F00028380068C0F30020EBE72A48814205D138
:10510000214828380068C0F34020E2E7C1F342603C
:1051100088B1C1F301735DF823001B4B303BC2180B
:105120001068C1F34263C1F30454A3401840C1F3B3
:105130000453D840CDE70020CBE73FB5014600221D
:10514000144D103539CD8DE83900C1F3872090B169
:10515000C1F381435DF823000B4B203BC21810685C
:10516000C1F38723C1F34414A3401840C1F344138F
:10517000D84004B030BD0020FBE7000000093D002E
:1051800080F0FA0240597307400200401E420800B6
:1051900000B0710BA8F20200100000A2110010A2D2
:1051A000120080A2130090A210B502B1C3608C005F
:1051B00044EA4204846010BD816841F001018160CD
:1051C000704710B50A468468C4F38104641C630008
:1051D000002106E000F1100454F8214042F821407B
:1051E000491C9942F6D3846824F00204846010BDFF
:1051F000F0B5DDE905450E0646EA024646EA032615
:1052000046EA840646EA8556C0F80061D0F8006197
:10521000FE4F47F82160F0BD10B5FC4B53F821302C
:10522000C0F80031D0F80031012444EA421423438D
:10523000C0F8003110BDF0B50446C1EB011C04F507
:10524000887707EB8C05042707EB4306002004E072
:1052500052F820702F602D1D401CB042F8D3F0BDD5
:1052600070B50346C1EB011603F5987505EB86048E
:10527000002004E052F820502560241D401C042822
:10528000F8D370BDF0B51446059DC1EB011700F5CC
:10529000A07606EB87021460C1EB0117361D06EB02
:1052A00087021360C1EB0117361D06EB87021560FC
:1052B000F0BDF0B505AC70CC0F0647EA02472F43AE
:1052C00047EA4657DFF848C34CF8217033B16746C8
:1052D00057F8217047F004074CF8217044B1CC4FC7
:1052E00057F8217047F00807DFF824C34CF8217005
:1052F000F0BD10B5C64B53F82130012444EA4214E6
:105300002343C34C44F82130234653F82130C0F8DE
:10531000003210BD70B504460B4604F502754026F8
:1053200006FB0351002009E052F830500D60091DC2
:1053300002EBC0056D680D60091D401C0328F3D306
:1053400070BD30B500F5087505EB811422602D1D88
:1053500005EB8114236030BD70B51446049D00F543
:105360000A7606EB81121460361D06EB811213607B
:10537000361D06EB8112156070BD10B50C0244EAB3
:105380008254C0F800433BB1C0F84833D0F8004322
:1053900044F01004C0F8004310BDD0F8002322F000
:1053A000E002C0F80023D0F80023012343EA4113B0
:1053B0001A43C0F800237047C0F84C13C0F85023BC
:1053C000704730B502460C46D2F80053C5F30220B0
:1053D00008B905210CE0052801D1072108E00428BF
:1053E00001D1082104E0072801D10C2100E010219F
:1053F00002F54273002004E01D6844F820501B1D94
:10540000401C8842F8D330BD7047392803DCA0F136
:105410003001C8B20AE07A2805DC612803DBA0F17C
:105420005701C8B202E0A0F13701C8B270472DE9B8
:10543000F04707468846384628F048FB441E4FF0A0
:10544000000A17E04FF0000900260AE0385DFFF778
:10545000DCFF0546B00005FA00F040EA0909641EC9
:10546000761C082E01D2002CF0DA50460AF1010A0F
:1054700048F82090002CE5DABDE8F0872DE9F74FD9
:1054800081460D46484628F021FB441E4FF0000A95
:10549000002721E04FF0000BD84613E019F8040074
:1054A000FFF7B3FF06460298864006F00F00384328
:1054B0004FEA8801884040EA0B0BC6F30317641ECD
:1054C00008F10108B8F1080F01D2002CE6DA5046C5
:1054D0000AF1010A45F820B0002CDBDA0FB145F8DB
:1054E0002A70BDE8FE8F0246880022FA00F000F024
:1054F0000F00484B185C70472DE9F0470546884679
:105500001646002070556C1E81460FE0002707E00C
:1055100058F829003946FFF7E6FF3055641E7F1C16
:10552000082F01D2002CF3DA09F10109002CEDDA81
:10553000BDE8F08770B506460025002418E0C4EBEE
:105540000410C0EB0420344911F82000B0420CD103
:10555000C4EB0410C0EB04200A4602EB80014FF4B8
:1055600071722E4828F062FA2C4D05B102E0641CDD
:10557000152CE4D300BF284670BD2DE9F041044648
:105580000E4600273046FFF7D5FF2549086008463C
:10559000006810B900BF00BF7F1E002F7ED100251C
:1055A00013E0002104F6281040F82510483040F898
:1055B000251004F6080040F82510483040F8251062
:1055C00004F6B81040F825106D1C122DE9DB04F626
:1055D0002811134800680830FFF729FF04F5176108
:1055E0000F4800689830FFF722FF04F608010C48C6
:1055F000006800F59470FFF71AFF04F5056108488C
:10560000006800F5DC70FFF712FF0BE0ACF500203E
:10561000BCF50020C8000020C8F20200CCF5002034
:10562000DC00002000BF00BF0A2204F62811EDA014
:10563000FFF7EAFE0A2204F51761EFA0FFF7E4FE88
:105640000A2204F60801F1A0FFF7DEFE0A2204F5A3
:105650000561F3A0FFF7D8FEF6480068D0F8C00354
:1056600001287DD1C4F8B809F24A1268D2F8B00313
:10567000C21700EBD262531104F6B81252F823207D
:10568000EC4B1B68D3F8B013CB1701EBD3635B1162
:10569000A1EB431C012303FA0CF300E08DE01A4355
:1056A000E44B1B68D3F8B003C31700EBD3634FEA96
:1056B000631C04F6B81343F82C20DE4A1268D2F8B3
:1056C000B403C21700EBD262531104F6B81252F8B9
:1056D0002320D84B1B68D3F8B413CB1701EBD3634B
:1056E0005B11A1EB431C012303FA0CF31A43D14BCA
:1056F0001B68D3F8B403C31700EBD3634FEA631CF2
:1057000004F6B81343F82C20CA4A1268D2F8B8033A
:10571000C21700EBD262531104F6B81252F82320DC
:10572000C44B1B68D3F8B813CB1701EBD3635B11E1
:10573000A1EB431C012303FA0CF31A43BD4B1B6876
:10574000D3F8B803C31700EBD3634FEA631C04F626
:10575000B81343F82C20B74A1268D2F8BC0300E013
:1057600023E0C21700EBD262531104F6B81252F8CC
:105770002320B04B1B68D3F8BC13CB1701EBD363CA
:105780005B11A1EB431C012303FA0CF31A43A94B51
:105790001B68D3F8BC03C31700EBD3634FEA631C49
:1057A00004F6B81343F82C2007E004F6B811A1481A
:1057B000006800F51370FFF73AFE0A2204F6B811EC
:1057C0009DA0FFF721FE3846BDE8F081302804DBBC
:1057D000392802DCA0F13001C8B2612804DB662858
:1057E00002DCA0F15701C8B2412804DB462802DCE4
:1057F000A0F13701C8B2704710B5024600E0521C54
:1058000010783028FBD000E0491C08783028FBD005
:105810001BE01078412806DB10785A2803DC10784A
:105820002030C3B200E013780878412806DB0878FE
:105830005A2803DC08782030C4B200E00C78A34278
:1058400001D0012010BD521C491C10780028E0D165
:1058500008780028DDD100BFF4E7416801F4800139
:1058600021B10121794A116089054160416801F443
:10587000000121B10121764A1160C90541607047DC
:105880002DE9F04780460E4615464FF0FF3730466B
:10589000FFF750FE674908600846006800B900BF7E
:1058A000284628F013F981466248006800F54070E8
:1058B00028F00CF9814500D20127284628F006F986
:1058C00081465C48006800F5407028F0FFF881458B
:1058D00000D9002700241EE0285DFFF777FF8146EE
:1058E0005449096801F54071085DFFF76FFF814574
:1058F00001DA012714E0285DFFF768FF81464D4972
:10590000096801F54071085DFFF760FF814501DD21
:10591000002705E0641C284628F0D8F8A042DBD810
:1059200000BF3846BDE8F0872DE9F04704468946B8
:1059300016461F46DDF820A04FF0000849462046D5
:10594000FFF71BFE08B14FF0FF38B8F1000F46D14A
:10595000002505E0002104F5206040F825106D1CAD
:10596000122DF7DB04F520613046FFF760FD31486A
:105970000068D0F8C003012803D10020C4F8000853
:1059800003E04FF48070C4F800080020304908603C
:105990002E490860D4F8000826490968B1F8B01308
:1059A000002242EA8151491C0843C4F8000800BFA4
:1059B000264800682649096808430028F8D01D4990
:1059C00009683A46486804F60801FFF795FD194949
:1059D00009685246486804F50561FFF78DFD4046A9
:1059E000BDE8F087435250545F4543435F435552EF
:1059F00056455F4100000000435250545F45434309
:105A00005F43555256455F420000000043525054D8
:105A10005F4543435F504F494E545F58310000008B
:105A2000435250545F4543435F504F494E545F5972
:105A300031000000DC000020435250545F454343D6
:105A40005F43555256455F4E00000000E0000020C5
:105A5000E40000202DE9F05F0446894616461F4603
:105A6000DDE90AAB4FF0000849462046FFF785FD07
:105A700008B14FF0FF38B8F1000F57D100250CE006
:105A8000002104F6080040F82510483040F82510A1
:105A900004F5206040F825106D1C122DF0DB04F693
:105AA00008013046FFF7C3FC04F505613846FFF7EF
:105AB000BEFC04F520615046FFF7B9FCF9480068C8
:105AC000D0F8C003012803D10020C4F8000803E087
:105AD0004FF48070C4F800080020F3490860F349CF
